{
	"contracts/eventtrigger.sol": {
		"Item": {
			"abi": [
				{
					"inputs": [
						{
							"internalType": "contract ItemManager",
							"name": "_parentContract",
							"type": "address"
						},
						{
							"internalType": "uint256",
							"name": "_itemPriceInWei",
							"type": "uint256"
						},
						{
							"internalType": "uint256",
							"name": "_itemIndex",
							"type": "uint256"
						},
						{
							"internalType": "address",
							"name": "_addr",
							"type": "address"
						}
					],
					"stateMutability": "nonpayable",
					"type": "constructor"
				},
				{
					"inputs": [],
					"name": "addr",
					"outputs": [
						{
							"internalType": "address",
							"name": "",
							"type": "address"
						}
					],
					"stateMutability": "view",
					"type": "function"
				},
				{
					"inputs": [],
					"name": "cddress",
					"outputs": [
						{
							"internalType": "address",
							"name": "",
							"type": "address"
						}
					],
					"stateMutability": "view",
					"type": "function"
				},
				{
					"inputs": [],
					"name": "itemIndex",
					"outputs": [
						{
							"internalType": "uint256",
							"name": "",
							"type": "uint256"
						}
					],
					"stateMutability": "view",
					"type": "function"
				},
				{
					"inputs": [],
					"name": "itemPriceInWei",
					"outputs": [
						{
							"internalType": "uint256",
							"name": "",
							"type": "uint256"
						}
					],
					"stateMutability": "view",
					"type": "function"
				},
				{
					"inputs": [],
					"name": "pay",
					"outputs": [],
					"stateMutability": "payable",
					"type": "function"
				},
				{
					"inputs": [],
					"name": "pricePaid",
					"outputs": [
						{
							"internalType": "uint256",
							"name": "",
							"type": "uint256"
						}
					],
					"stateMutability": "view",
					"type": "function"
				}
			],
			"devdoc": {
				"kind": "dev",
				"methods": {},
				"version": 1
			},
			"evm": {
				"assembly": "    /* \"contracts/eventtrigger.sol\":60:1209  contract Item {\r... */\n  mstore(0x40, 0x80)\n    /* \"contracts/eventtrigger.sol\":233:484  constructor(ItemManager _parentContract, uint _itemPriceInWei, uint _itemIndex, address _addr) public {\r... */\n  callvalue\n  dup1\n  iszero\n  tag_1\n  jumpi\n  0x00\n  dup1\n  revert\ntag_1:\n  pop\n  mload(0x40)\n  sub(codesize, bytecodeSize)\n  dup1\n  bytecodeSize\n  dup4\n  codecopy\n  dup2\n  dup2\n  add\n  0x40\n  mstore\n  dup2\n  add\n  swap1\n  tag_2\n  swap2\n  swap1\n  tag_3\n  jump\t// in\ntag_2:\n    /* \"contracts/eventtrigger.sol\":363:377  parentContract */\n  0x04\n  0x00\n  swap1\n  sload\n  swap1\n  0x0100\n  exp\n  swap1\n  div\n  0xffffffffffffffffffffffffffffffffffffffff\n  and\n    /* \"contracts/eventtrigger.sol\":346:360  parentContract */\n  0x04\n  0x00\n    /* \"contracts/eventtrigger.sol\":346:377  parentContract = parentContract */\n  0x0100\n  exp\n  dup2\n  sload\n  dup2\n  0xffffffffffffffffffffffffffffffffffffffff\n  mul\n  not\n  and\n  swap1\n  dup4\n  0xffffffffffffffffffffffffffffffffffffffff\n  and\n  mul\n  or\n  swap1\n  sstore\n  pop\n    /* \"contracts/eventtrigger.sol\":405:420  _itemPriceInWei */\n  dup3\n    /* \"contracts/eventtrigger.sol\":388:402  itemPriceInWei */\n  0x00\n    /* \"contracts/eventtrigger.sol\":388:420  itemPriceInWei = _itemPriceInWei */\n  dup2\n  swap1\n  sstore\n  pop\n    /* \"contracts/eventtrigger.sol\":443:453  _itemIndex */\n  dup2\n    /* \"contracts/eventtrigger.sol\":431:440  itemIndex */\n  0x02\n    /* \"contracts/eventtrigger.sol\":431:453  itemIndex = _itemIndex */\n  dup2\n  swap1\n  sstore\n  pop\n    /* \"contracts/eventtrigger.sol\":471:476  _addr */\n  dup1\n    /* \"contracts/eventtrigger.sol\":464:468  addr */\n  0x03\n  0x00\n    /* \"contracts/eventtrigger.sol\":464:476  addr = _addr */\n  0x0100\n  exp\n  dup2\n  sload\n  dup2\n  0xffffffffffffffffffffffffffffffffffffffff\n  mul\n  not\n  and\n  swap1\n  dup4\n  0xffffffffffffffffffffffffffffffffffffffff\n  and\n  mul\n  or\n  swap1\n  sstore\n  pop\n    /* \"contracts/eventtrigger.sol\":233:484  constructor(ItemManager _parentContract, uint _itemPriceInWei, uint _itemIndex, address _addr) public {\r... */\n  pop\n  pop\n  pop\n  pop\n    /* \"contracts/eventtrigger.sol\":60:1209  contract Item {\r... */\n  jump(tag_6)\n    /* \"#utility.yul\":7:150   */\ntag_8:\n    /* \"#utility.yul\":64:69   */\n  0x00\n    /* \"#utility.yul\":95:101   */\n  dup2\n    /* \"#utility.yul\":89:102   */\n  mload\n    /* \"#utility.yul\":80:102   */\n  swap1\n  pop\n    /* \"#utility.yul\":111:144   */\n  tag_10\n    /* \"#utility.yul\":138:143   */\n  dup2\n    /* \"#utility.yul\":111:144   */\n  tag_11\n  jump\t// in\ntag_10:\n    /* \"#utility.yul\":7:150   */\n  swap3\n  swap2\n  pop\n  pop\n  jump\t// out\n    /* \"#utility.yul\":156:337   */\ntag_12:\n    /* \"#utility.yul\":232:237   */\n  0x00\n    /* \"#utility.yul\":263:269   */\n  dup2\n    /* \"#utility.yul\":257:270   */\n  mload\n    /* \"#utility.yul\":248:270   */\n  swap1\n  pop\n    /* \"#utility.yul\":279:331   */\n  tag_14\n    /* \"#utility.yul\":325:330   */\n  dup2\n    /* \"#utility.yul\":279:331   */\n  tag_15\n  jump\t// in\ntag_14:\n    /* \"#utility.yul\":156:337   */\n  swap3\n  swap2\n  pop\n  pop\n  jump\t// out\n    /* \"#utility.yul\":343:486   */\ntag_16:\n    /* \"#utility.yul\":400:405   */\n  0x00\n    /* \"#utility.yul\":431:437   */\n  dup2\n    /* \"#utility.yul\":425:438   */\n  mload\n    /* \"#utility.yul\":416:438   */\n  swap1\n  pop\n    /* \"#utility.yul\":447:480   */\n  tag_18\n    /* \"#utility.yul\":474:479   */\n  dup2\n    /* \"#utility.yul\":447:480   */\n  tag_19\n  jump\t// in\ntag_18:\n    /* \"#utility.yul\":343:486   */\n  swap3\n  swap2\n  pop\n  pop\n  jump\t// out\n    /* \"#utility.yul\":492:1350   */\ntag_3:\n    /* \"#utility.yul\":608:614   */\n  0x00\n    /* \"#utility.yul\":616:622   */\n  dup1\n    /* \"#utility.yul\":624:630   */\n  0x00\n    /* \"#utility.yul\":632:638   */\n  dup1\n    /* \"#utility.yul\":681:684   */\n  0x80\n    /* \"#utility.yul\":669:678   */\n  dup6\n    /* \"#utility.yul\":660:667   */\n  dup8\n    /* \"#utility.yul\":656:679   */\n  sub\n    /* \"#utility.yul\":652:685   */\n  slt\n    /* \"#utility.yul\":649:769   */\n  iszero\n  tag_21\n  jumpi\n    /* \"#utility.yul\":688:767   */\n  tag_22\n  tag_23\n  jump\t// in\ntag_22:\n    /* \"#utility.yul\":649:769   */\ntag_21:\n    /* \"#utility.yul\":808:809   */\n  0x00\n    /* \"#utility.yul\":833:916   */\n  tag_24\n    /* \"#utility.yul\":908:915   */\n  dup8\n    /* \"#utility.yul\":899:905   */\n  dup3\n    /* \"#utility.yul\":888:897   */\n  dup9\n    /* \"#utility.yul\":884:906   */\n  add\n    /* \"#utility.yul\":833:916   */\n  tag_12\n  jump\t// in\ntag_24:\n    /* \"#utility.yul\":823:916   */\n  swap5\n  pop\n    /* \"#utility.yul\":779:926   */\n  pop\n    /* \"#utility.yul\":965:967   */\n  0x20\n    /* \"#utility.yul\":991:1055   */\n  tag_25\n    /* \"#utility.yul\":1047:1054   */\n  dup8\n    /* \"#utility.yul\":1038:1044   */\n  dup3\n    /* \"#utility.yul\":1027:1036   */\n  dup9\n    /* \"#utility.yul\":1023:1045   */\n  add\n    /* \"#utility.yul\":991:1055   */\n  tag_16\n  jump\t// in\ntag_25:\n    /* \"#utility.yul\":981:1055   */\n  swap4\n  pop\n    /* \"#utility.yul\":936:1065   */\n  pop\n    /* \"#utility.yul\":1104:1106   */\n  0x40\n    /* \"#utility.yul\":1130:1194   */\n  tag_26\n    /* \"#utility.yul\":1186:1193   */\n  dup8\n    /* \"#utility.yul\":1177:1183   */\n  dup3\n    /* \"#utility.yul\":1166:1175   */\n  dup9\n    /* \"#utility.yul\":1162:1184   */\n  add\n    /* \"#utility.yul\":1130:1194   */\n  tag_16\n  jump\t// in\ntag_26:\n    /* \"#utility.yul\":1120:1194   */\n  swap3\n  pop\n    /* \"#utility.yul\":1075:1204   */\n  pop\n    /* \"#utility.yul\":1243:1245   */\n  0x60\n    /* \"#utility.yul\":1269:1333   */\n  tag_27\n    /* \"#utility.yul\":1325:1332   */\n  dup8\n    /* \"#utility.yul\":1316:1322   */\n  dup3\n    /* \"#utility.yul\":1305:1314   */\n  dup9\n    /* \"#utility.yul\":1301:1323   */\n  add\n    /* \"#utility.yul\":1269:1333   */\n  tag_8\n  jump\t// in\ntag_27:\n    /* \"#utility.yul\":1259:1333   */\n  swap2\n  pop\n    /* \"#utility.yul\":1214:1343   */\n  pop\n    /* \"#utility.yul\":492:1350   */\n  swap3\n  swap6\n  swap2\n  swap5\n  pop\n  swap3\n  pop\n  jump\t// out\n    /* \"#utility.yul\":1437:1533   */\ntag_30:\n    /* \"#utility.yul\":1474:1481   */\n  0x00\n    /* \"#utility.yul\":1503:1527   */\n  tag_32\n    /* \"#utility.yul\":1521:1526   */\n  dup3\n    /* \"#utility.yul\":1503:1527   */\n  tag_33\n  jump\t// in\ntag_32:\n    /* \"#utility.yul\":1492:1527   */\n  swap1\n  pop\n    /* \"#utility.yul\":1437:1533   */\n  swap2\n  swap1\n  pop\n  jump\t// out\n    /* \"#utility.yul\":1539:1654   */\ntag_34:\n    /* \"#utility.yul\":1595:1602   */\n  0x00\n    /* \"#utility.yul\":1624:1648   */\n  tag_36\n    /* \"#utility.yul\":1642:1647   */\n  dup3\n    /* \"#utility.yul\":1624:1648   */\n  tag_30\n  jump\t// in\ntag_36:\n    /* \"#utility.yul\":1613:1648   */\n  swap1\n  pop\n    /* \"#utility.yul\":1539:1654   */\n  swap2\n  swap1\n  pop\n  jump\t// out\n    /* \"#utility.yul\":1660:1786   */\ntag_33:\n    /* \"#utility.yul\":1697:1704   */\n  0x00\n    /* \"#utility.yul\":1737:1779   */\n  0xffffffffffffffffffffffffffffffffffffffff\n    /* \"#utility.yul\":1730:1735   */\n  dup3\n    /* \"#utility.yul\":1726:1780   */\n  and\n    /* \"#utility.yul\":1715:1780   */\n  swap1\n  pop\n    /* \"#utility.yul\":1660:1786   */\n  swap2\n  swap1\n  pop\n  jump\t// out\n    /* \"#utility.yul\":1792:1869   */\ntag_38:\n    /* \"#utility.yul\":1829:1836   */\n  0x00\n    /* \"#utility.yul\":1858:1863   */\n  dup2\n    /* \"#utility.yul\":1847:1863   */\n  swap1\n  pop\n    /* \"#utility.yul\":1792:1869   */\n  swap2\n  swap1\n  pop\n  jump\t// out\n    /* \"#utility.yul\":1998:2115   */\ntag_23:\n    /* \"#utility.yul\":2107:2108   */\n  0x00\n    /* \"#utility.yul\":2104:2105   */\n  dup1\n    /* \"#utility.yul\":2097:2109   */\n  revert\n    /* \"#utility.yul\":2121:2243   */\ntag_11:\n    /* \"#utility.yul\":2194:2218   */\n  tag_44\n    /* \"#utility.yul\":2212:2217   */\n  dup2\n    /* \"#utility.yul\":2194:2218   */\n  tag_30\n  jump\t// in\ntag_44:\n    /* \"#utility.yul\":2187:2192   */\n  dup2\n    /* \"#utility.yul\":2184:2219   */\n  eq\n    /* \"#utility.yul\":2174:2237   */\n  tag_45\n  jumpi\n    /* \"#utility.yul\":2233:2234   */\n  0x00\n    /* \"#utility.yul\":2230:2231   */\n  dup1\n    /* \"#utility.yul\":2223:2235   */\n  revert\n    /* \"#utility.yul\":2174:2237   */\ntag_45:\n    /* \"#utility.yul\":2121:2243   */\n  pop\n  jump\t// out\n    /* \"#utility.yul\":2249:2409   */\ntag_15:\n    /* \"#utility.yul\":2341:2384   */\n  tag_47\n    /* \"#utility.yul\":2378:2383   */\n  dup2\n    /* \"#utility.yul\":2341:2384   */\n  tag_34\n  jump\t// in\ntag_47:\n    /* \"#utility.yul\":2334:2339   */\n  dup2\n    /* \"#utility.yul\":2331:2385   */\n  eq\n    /* \"#utility.yul\":2321:2403   */\n  tag_48\n  jumpi\n    /* \"#utility.yul\":2399:2400   */\n  0x00\n    /* \"#utility.yul\":2396:2397   */\n  dup1\n    /* \"#utility.yul\":2389:2401   */\n  revert\n    /* \"#utility.yul\":2321:2403   */\ntag_48:\n    /* \"#utility.yul\":2249:2409   */\n  pop\n  jump\t// out\n    /* \"#utility.yul\":2415:2537   */\ntag_19:\n    /* \"#utility.yul\":2488:2512   */\n  tag_50\n    /* \"#utility.yul\":2506:2511   */\n  dup2\n    /* \"#utility.yul\":2488:2512   */\n  tag_38\n  jump\t// in\ntag_50:\n    /* \"#utility.yul\":2481:2486   */\n  dup2\n    /* \"#utility.yul\":2478:2513   */\n  eq\n    /* \"#utility.yul\":2468:2531   */\n  tag_51\n  jumpi\n    /* \"#utility.yul\":2527:2528   */\n  0x00\n    /* \"#utility.yul\":2524:2525   */\n  dup1\n    /* \"#utility.yul\":2517:2529   */\n  revert\n    /* \"#utility.yul\":2468:2531   */\ntag_51:\n    /* \"#utility.yul\":2415:2537   */\n  pop\n  jump\t// out\n    /* \"contracts/eventtrigger.sol\":60:1209  contract Item {\r... */\ntag_6:\n  dataSize(sub_0)\n  dup1\n  dataOffset(sub_0)\n  0x00\n  codecopy\n  0x00\n  return\nstop\n\nsub_0: assembly {\n        /* \"contracts/eventtrigger.sol\":60:1209  contract Item {\r... */\n      mstore(0x40, 0x80)\n      jumpi(tag_1, lt(calldatasize, 0x04))\n      shr(0xe0, calldataload(0x00))\n      dup1\n      0x1b9265b8\n      eq\n      tag_2\n      jumpi\n      dup1\n      0x767800de\n      eq\n      tag_3\n      jumpi\n      dup1\n      0x8544089b\n      eq\n      tag_4\n      jumpi\n      dup1\n      0x89794d00\n      eq\n      tag_5\n      jumpi\n      dup1\n      0xc784a6e6\n      eq\n      tag_6\n      jumpi\n      dup1\n      0xe07bb1a7\n      eq\n      tag_7\n      jumpi\n    tag_1:\n      0x00\n      dup1\n      revert\n        /* \"contracts/eventtrigger.sol\":599:1165  function pay () external payable {\r... */\n    tag_2:\n      tag_8\n      tag_9\n      jump\t// in\n    tag_8:\n      stop\n        /* \"contracts/eventtrigger.sol\":170:189  address public addr */\n    tag_3:\n      callvalue\n      dup1\n      iszero\n      tag_10\n      jumpi\n      0x00\n      dup1\n      revert\n    tag_10:\n      pop\n      tag_11\n      tag_12\n      jump\t// in\n    tag_11:\n      mload(0x40)\n      tag_13\n      swap2\n      swap1\n      tag_14\n      jump\t// in\n    tag_13:\n      mload(0x40)\n      dup1\n      swap2\n      sub\n      swap1\n      return\n        /* \"contracts/eventtrigger.sol\":492:591  function cddress () public view returns (address) {\r... */\n    tag_4:\n      callvalue\n      dup1\n      iszero\n      tag_15\n      jumpi\n      0x00\n      dup1\n      revert\n    tag_15:\n      pop\n      tag_16\n      tag_17\n      jump\t// in\n    tag_16:\n      mload(0x40)\n      tag_18\n      swap2\n      swap1\n      tag_14\n      jump\t// in\n    tag_18:\n      mload(0x40)\n      dup1\n      swap2\n      sub\n      swap1\n      return\n        /* \"contracts/eventtrigger.sol\":114:135  uint public pricePaid */\n    tag_5:\n      callvalue\n      dup1\n      iszero\n      tag_19\n      jumpi\n      0x00\n      dup1\n      revert\n    tag_19:\n      pop\n      tag_20\n      tag_21\n      jump\t// in\n    tag_20:\n      mload(0x40)\n      tag_22\n      swap2\n      swap1\n      tag_23\n      jump\t// in\n    tag_22:\n      mload(0x40)\n      dup1\n      swap2\n      sub\n      swap1\n      return\n        /* \"contracts/eventtrigger.sol\":81:107  uint public itemPriceInWei */\n    tag_6:\n      callvalue\n      dup1\n      iszero\n      tag_24\n      jumpi\n      0x00\n      dup1\n      revert\n    tag_24:\n      pop\n      tag_25\n      tag_26\n      jump\t// in\n    tag_25:\n      mload(0x40)\n      tag_27\n      swap2\n      swap1\n      tag_23\n      jump\t// in\n    tag_27:\n      mload(0x40)\n      dup1\n      swap2\n      sub\n      swap1\n      return\n        /* \"contracts/eventtrigger.sol\":142:163  uint public itemIndex */\n    tag_7:\n      callvalue\n      dup1\n      iszero\n      tag_28\n      jumpi\n      0x00\n      dup1\n      revert\n    tag_28:\n      pop\n      tag_29\n      tag_30\n      jump\t// in\n    tag_29:\n      mload(0x40)\n      tag_31\n      swap2\n      swap1\n      tag_23\n      jump\t// in\n    tag_31:\n      mload(0x40)\n      dup1\n      swap2\n      sub\n      swap1\n      return\n        /* \"contracts/eventtrigger.sol\":599:1165  function pay () external payable {\r... */\n    tag_9:\n        /* \"contracts/eventtrigger.sol\":665:666  0 */\n      0x00\n        /* \"contracts/eventtrigger.sol\":652:661  pricePaid */\n      sload(0x01)\n        /* \"contracts/eventtrigger.sol\":652:666  pricePaid == 0 */\n      eq\n        /* \"contracts/eventtrigger.sol\":643:696  require (pricePaid == 0, \"Item is paid for already.\") */\n      tag_33\n      jumpi\n      mload(0x40)\n      0x08c379a000000000000000000000000000000000000000000000000000000000\n      dup2\n      mstore\n      0x04\n      add\n      tag_34\n      swap1\n      tag_35\n      jump\t// in\n    tag_34:\n      mload(0x40)\n      dup1\n      swap2\n      sub\n      swap1\n      revert\n    tag_33:\n        /* \"contracts/eventtrigger.sol\":734:743  msg.value */\n      callvalue\n        /* \"contracts/eventtrigger.sol\":716:730  itemPriceInWei */\n      sload(0x00)\n        /* \"contracts/eventtrigger.sol\":716:743  itemPriceInWei == msg.value */\n      eq\n        /* \"contracts/eventtrigger.sol\":707:772  require (itemPriceInWei == msg.value, \"Please pay exact amount.\") */\n      tag_36\n      jumpi\n      mload(0x40)\n      0x08c379a000000000000000000000000000000000000000000000000000000000\n      dup2\n      mstore\n      0x04\n      add\n      tag_37\n      swap1\n      tag_38\n      jump\t// in\n    tag_37:\n      mload(0x40)\n      dup1\n      swap2\n      sub\n      swap1\n      revert\n    tag_36:\n        /* \"contracts/eventtrigger.sol\":796:805  msg.value */\n      callvalue\n        /* \"contracts/eventtrigger.sol\":783:792  pricePaid */\n      0x01\n      0x00\n        /* \"contracts/eventtrigger.sol\":783:805  pricePaid += msg.value */\n      dup3\n      dup3\n      sload\n      tag_39\n      swap2\n      swap1\n      tag_40\n      jump\t// in\n    tag_39:\n      swap3\n      pop\n      pop\n      dup2\n      swap1\n      sstore\n      pop\n        /* \"contracts/eventtrigger.sol\":952:964  bool success */\n      0x00\n        /* \"contracts/eventtrigger.sol\":971:975  addr */\n      0x03\n      0x00\n      swap1\n      sload\n      swap1\n      0x0100\n      exp\n      swap1\n      div\n      0xffffffffffffffffffffffffffffffffffffffff\n      and\n        /* \"contracts/eventtrigger.sol\":971:980  addr.call */\n      0xffffffffffffffffffffffffffffffffffffffff\n      and\n        /* \"contracts/eventtrigger.sol\":989:998  msg.value */\n      callvalue\n        /* \"contracts/eventtrigger.sol\":1006:1014  80000000 */\n      0x04c4b400\n        /* \"contracts/eventtrigger.sol\":971:1079  addr.call{value : msg.value, gas : 80000000 }(abi.encodeWithSignature(\"triggerPayment(uint256)\", itemIndex)) */\n      swap1\n        /* \"contracts/eventtrigger.sol\":1068:1077  itemIndex */\n      sload(0x02)\n        /* \"contracts/eventtrigger.sol\":1017:1078  abi.encodeWithSignature(\"triggerPayment(uint256)\", itemIndex) */\n      add(0x24, mload(0x40))\n      tag_41\n      swap2\n      swap1\n      tag_23\n      jump\t// in\n    tag_41:\n      mload(0x40)\n      0x20\n      dup2\n      dup4\n      sub\n      sub\n      dup2\n      mstore\n      swap1\n      0x40\n      mstore\n      and(not(0xffffffffffffffffffffffffffffffffffffffffffffffffffffffff), 0x800fb83f00000000000000000000000000000000000000000000000000000000)\n      0x20\n      dup3\n      add\n      dup1\n      mload\n      0xffffffffffffffffffffffffffffffffffffffffffffffffffffffff\n      dup4\n      dup2\n      dup4\n      and\n      or\n      dup4\n      mstore\n      pop\n      pop\n      pop\n      pop\n        /* \"contracts/eventtrigger.sol\":971:1079  addr.call{value : msg.value, gas : 80000000 }(abi.encodeWithSignature(\"triggerPayment(uint256)\", itemIndex)) */\n      mload(0x40)\n      tag_42\n      swap2\n      swap1\n      tag_43\n      jump\t// in\n    tag_42:\n      0x00\n      mload(0x40)\n      dup1\n      dup4\n      sub\n      dup2\n      dup6\n      dup9\n      dup9\n      call\n      swap4\n      pop\n      pop\n      pop\n      pop\n      returndatasize\n      dup1\n      0x00\n      dup2\n      eq\n      tag_46\n      jumpi\n      mload(0x40)\n      swap2\n      pop\n      and(add(returndatasize, 0x3f), not(0x1f))\n      dup3\n      add\n      0x40\n      mstore\n      returndatasize\n      dup3\n      mstore\n      returndatasize\n      0x00\n      0x20\n      dup5\n      add\n      returndatacopy\n      jump(tag_45)\n    tag_46:\n      0x60\n      swap2\n      pop\n    tag_45:\n      pop\n        /* \"contracts/eventtrigger.sol\":951:1079  (bool success, ) =  addr.call{value : msg.value, gas : 80000000 }(abi.encodeWithSignature(\"triggerPayment(uint256)\", itemIndex)) */\n      pop\n      swap1\n      pop\n        /* \"contracts/eventtrigger.sol\":632:1165  {\r... */\n      pop\n        /* \"contracts/eventtrigger.sol\":599:1165  function pay () external payable {\r... */\n      jump\t// out\n        /* \"contracts/eventtrigger.sol\":170:189  address public addr */\n    tag_12:\n      0x03\n      0x00\n      swap1\n      sload\n      swap1\n      0x0100\n      exp\n      swap1\n      div\n      0xffffffffffffffffffffffffffffffffffffffff\n      and\n      dup2\n      jump\t// out\n        /* \"contracts/eventtrigger.sol\":492:591  function cddress () public view returns (address) {\r... */\n    tag_17:\n        /* \"contracts/eventtrigger.sol\":533:540  address */\n      0x00\n        /* \"contracts/eventtrigger.sol\":568:582  parentContract */\n      0x04\n      0x00\n      swap1\n      sload\n      swap1\n      0x0100\n      exp\n      swap1\n      div\n      0xffffffffffffffffffffffffffffffffffffffff\n      and\n        /* \"contracts/eventtrigger.sol\":553:583  return address(parentContract) */\n      swap1\n      pop\n        /* \"contracts/eventtrigger.sol\":492:591  function cddress () public view returns (address) {\r... */\n      swap1\n      jump\t// out\n        /* \"contracts/eventtrigger.sol\":114:135  uint public pricePaid */\n    tag_21:\n      sload(0x01)\n      dup2\n      jump\t// out\n        /* \"contracts/eventtrigger.sol\":81:107  uint public itemPriceInWei */\n    tag_26:\n      sload(0x00)\n      dup2\n      jump\t// out\n        /* \"contracts/eventtrigger.sol\":142:163  uint public itemIndex */\n    tag_30:\n      sload(0x02)\n      dup2\n      jump\t// out\n        /* \"#utility.yul\":7:125   */\n    tag_49:\n        /* \"#utility.yul\":94:118   */\n      tag_51\n        /* \"#utility.yul\":112:117   */\n      dup2\n        /* \"#utility.yul\":94:118   */\n      tag_52\n      jump\t// in\n    tag_51:\n        /* \"#utility.yul\":89:92   */\n      dup3\n        /* \"#utility.yul\":82:119   */\n      mstore\n        /* \"#utility.yul\":7:125   */\n      pop\n      pop\n      jump\t// out\n        /* \"#utility.yul\":131:504   */\n    tag_53:\n        /* \"#utility.yul\":235:238   */\n      0x00\n        /* \"#utility.yul\":263:301   */\n      tag_55\n        /* \"#utility.yul\":295:300   */\n      dup3\n        /* \"#utility.yul\":263:301   */\n      tag_56\n      jump\t// in\n    tag_55:\n        /* \"#utility.yul\":317:405   */\n      tag_57\n        /* \"#utility.yul\":398:404   */\n      dup2\n        /* \"#utility.yul\":393:396   */\n      dup6\n        /* \"#utility.yul\":317:405   */\n      tag_58\n      jump\t// in\n    tag_57:\n        /* \"#utility.yul\":310:405   */\n      swap4\n      pop\n        /* \"#utility.yul\":414:466   */\n      tag_59\n        /* \"#utility.yul\":459:465   */\n      dup2\n        /* \"#utility.yul\":454:457   */\n      dup6\n        /* \"#utility.yul\":447:451   */\n      0x20\n        /* \"#utility.yul\":440:445   */\n      dup7\n        /* \"#utility.yul\":436:452   */\n      add\n        /* \"#utility.yul\":414:466   */\n      tag_60\n      jump\t// in\n    tag_59:\n        /* \"#utility.yul\":491:497   */\n      dup1\n        /* \"#utility.yul\":486:489   */\n      dup5\n        /* \"#utility.yul\":482:498   */\n      add\n        /* \"#utility.yul\":475:498   */\n      swap2\n      pop\n        /* \"#utility.yul\":239:504   */\n      pop\n        /* \"#utility.yul\":131:504   */\n      swap3\n      swap2\n      pop\n      pop\n      jump\t// out\n        /* \"#utility.yul\":510:876   */\n    tag_61:\n        /* \"#utility.yul\":652:655   */\n      0x00\n        /* \"#utility.yul\":673:740   */\n      tag_63\n        /* \"#utility.yul\":737:739   */\n      0x19\n        /* \"#utility.yul\":732:735   */\n      dup4\n        /* \"#utility.yul\":673:740   */\n      tag_64\n      jump\t// in\n    tag_63:\n        /* \"#utility.yul\":666:740   */\n      swap2\n      pop\n        /* \"#utility.yul\":749:842   */\n      tag_65\n        /* \"#utility.yul\":838:841   */\n      dup3\n        /* \"#utility.yul\":749:842   */\n      tag_66\n      jump\t// in\n    tag_65:\n        /* \"#utility.yul\":867:869   */\n      0x20\n        /* \"#utility.yul\":862:865   */\n      dup3\n        /* \"#utility.yul\":858:870   */\n      add\n        /* \"#utility.yul\":851:870   */\n      swap1\n      pop\n        /* \"#utility.yul\":510:876   */\n      swap2\n      swap1\n      pop\n      jump\t// out\n        /* \"#utility.yul\":882:1248   */\n    tag_67:\n        /* \"#utility.yul\":1024:1027   */\n      0x00\n        /* \"#utility.yul\":1045:1112   */\n      tag_69\n        /* \"#utility.yul\":1109:1111   */\n      0x18\n        /* \"#utility.yul\":1104:1107   */\n      dup4\n        /* \"#utility.yul\":1045:1112   */\n      tag_64\n      jump\t// in\n    tag_69:\n        /* \"#utility.yul\":1038:1112   */\n      swap2\n      pop\n        /* \"#utility.yul\":1121:1214   */\n      tag_70\n        /* \"#utility.yul\":1210:1213   */\n      dup3\n        /* \"#utility.yul\":1121:1214   */\n      tag_71\n      jump\t// in\n    tag_70:\n        /* \"#utility.yul\":1239:1241   */\n      0x20\n        /* \"#utility.yul\":1234:1237   */\n      dup3\n        /* \"#utility.yul\":1230:1242   */\n      add\n        /* \"#utility.yul\":1223:1242   */\n      swap1\n      pop\n        /* \"#utility.yul\":882:1248   */\n      swap2\n      swap1\n      pop\n      jump\t// out\n        /* \"#utility.yul\":1254:1372   */\n    tag_72:\n        /* \"#utility.yul\":1341:1365   */\n      tag_74\n        /* \"#utility.yul\":1359:1364   */\n      dup2\n        /* \"#utility.yul\":1341:1365   */\n      tag_75\n      jump\t// in\n    tag_74:\n        /* \"#utility.yul\":1336:1339   */\n      dup3\n        /* \"#utility.yul\":1329:1366   */\n      mstore\n        /* \"#utility.yul\":1254:1372   */\n      pop\n      pop\n      jump\t// out\n        /* \"#utility.yul\":1378:1649   */\n    tag_43:\n        /* \"#utility.yul\":1508:1511   */\n      0x00\n        /* \"#utility.yul\":1530:1623   */\n      tag_77\n        /* \"#utility.yul\":1619:1622   */\n      dup3\n        /* \"#utility.yul\":1610:1616   */\n      dup5\n        /* \"#utility.yul\":1530:1623   */\n      tag_53\n      jump\t// in\n    tag_77:\n        /* \"#utility.yul\":1523:1623   */\n      swap2\n      pop\n        /* \"#utility.yul\":1640:1643   */\n      dup2\n        /* \"#utility.yul\":1633:1643   */\n      swap1\n      pop\n        /* \"#utility.yul\":1378:1649   */\n      swap3\n      swap2\n      pop\n      pop\n      jump\t// out\n        /* \"#utility.yul\":1655:1877   */\n    tag_14:\n        /* \"#utility.yul\":1748:1752   */\n      0x00\n        /* \"#utility.yul\":1786:1788   */\n      0x20\n        /* \"#utility.yul\":1775:1784   */\n      dup3\n        /* \"#utility.yul\":1771:1789   */\n      add\n        /* \"#utility.yul\":1763:1789   */\n      swap1\n      pop\n        /* \"#utility.yul\":1799:1870   */\n      tag_79\n        /* \"#utility.yul\":1867:1868   */\n      0x00\n        /* \"#utility.yul\":1856:1865   */\n      dup4\n        /* \"#utility.yul\":1852:1869   */\n      add\n        /* \"#utility.yul\":1843:1849   */\n      dup5\n        /* \"#utility.yul\":1799:1870   */\n      tag_49\n      jump\t// in\n    tag_79:\n        /* \"#utility.yul\":1655:1877   */\n      swap3\n      swap2\n      pop\n      pop\n      jump\t// out\n        /* \"#utility.yul\":1883:2302   */\n    tag_35:\n        /* \"#utility.yul\":2049:2053   */\n      0x00\n        /* \"#utility.yul\":2087:2089   */\n      0x20\n        /* \"#utility.yul\":2076:2085   */\n      dup3\n        /* \"#utility.yul\":2072:2090   */\n      add\n        /* \"#utility.yul\":2064:2090   */\n      swap1\n      pop\n        /* \"#utility.yul\":2136:2145   */\n      dup2\n        /* \"#utility.yul\":2130:2134   */\n      dup2\n        /* \"#utility.yul\":2126:2146   */\n      sub\n        /* \"#utility.yul\":2122:2123   */\n      0x00\n        /* \"#utility.yul\":2111:2120   */\n      dup4\n        /* \"#utility.yul\":2107:2124   */\n      add\n        /* \"#utility.yul\":2100:2147   */\n      mstore\n        /* \"#utility.yul\":2164:2295   */\n      tag_81\n        /* \"#utility.yul\":2290:2294   */\n      dup2\n        /* \"#utility.yul\":2164:2295   */\n      tag_61\n      jump\t// in\n    tag_81:\n        /* \"#utility.yul\":2156:2295   */\n      swap1\n      pop\n        /* \"#utility.yul\":1883:2302   */\n      swap2\n      swap1\n      pop\n      jump\t// out\n        /* \"#utility.yul\":2308:2727   */\n    tag_38:\n        /* \"#utility.yul\":2474:2478   */\n      0x00\n        /* \"#utility.yul\":2512:2514   */\n      0x20\n        /* \"#utility.yul\":2501:2510   */\n      dup3\n        /* \"#utility.yul\":2497:2515   */\n      add\n        /* \"#utility.yul\":2489:2515   */\n      swap1\n      pop\n        /* \"#utility.yul\":2561:2570   */\n      dup2\n        /* \"#utility.yul\":2555:2559   */\n      dup2\n        /* \"#utility.yul\":2551:2571   */\n      sub\n        /* \"#utility.yul\":2547:2548   */\n      0x00\n        /* \"#utility.yul\":2536:2545   */\n      dup4\n        /* \"#utility.yul\":2532:2549   */\n      add\n        /* \"#utility.yul\":2525:2572   */\n      mstore\n        /* \"#utility.yul\":2589:2720   */\n      tag_83\n        /* \"#utility.yul\":2715:2719   */\n      dup2\n        /* \"#utility.yul\":2589:2720   */\n      tag_67\n      jump\t// in\n    tag_83:\n        /* \"#utility.yul\":2581:2720   */\n      swap1\n      pop\n        /* \"#utility.yul\":2308:2727   */\n      swap2\n      swap1\n      pop\n      jump\t// out\n        /* \"#utility.yul\":2733:2955   */\n    tag_23:\n        /* \"#utility.yul\":2826:2830   */\n      0x00\n        /* \"#utility.yul\":2864:2866   */\n      0x20\n        /* \"#utility.yul\":2853:2862   */\n      dup3\n        /* \"#utility.yul\":2849:2867   */\n      add\n        /* \"#utility.yul\":2841:2867   */\n      swap1\n      pop\n        /* \"#utility.yul\":2877:2948   */\n      tag_85\n        /* \"#utility.yul\":2945:2946   */\n      0x00\n        /* \"#utility.yul\":2934:2943   */\n      dup4\n        /* \"#utility.yul\":2930:2947   */\n      add\n        /* \"#utility.yul\":2921:2927   */\n      dup5\n        /* \"#utility.yul\":2877:2948   */\n      tag_72\n      jump\t// in\n    tag_85:\n        /* \"#utility.yul\":2733:2955   */\n      swap3\n      swap2\n      pop\n      pop\n      jump\t// out\n        /* \"#utility.yul\":2961:3059   */\n    tag_56:\n        /* \"#utility.yul\":3012:3018   */\n      0x00\n        /* \"#utility.yul\":3046:3051   */\n      dup2\n        /* \"#utility.yul\":3040:3052   */\n      mload\n        /* \"#utility.yul\":3030:3052   */\n      swap1\n      pop\n        /* \"#utility.yul\":2961:3059   */\n      swap2\n      swap1\n      pop\n      jump\t// out\n        /* \"#utility.yul\":3065:3212   */\n    tag_58:\n        /* \"#utility.yul\":3166:3177   */\n      0x00\n        /* \"#utility.yul\":3203:3206   */\n      dup2\n        /* \"#utility.yul\":3188:3206   */\n      swap1\n      pop\n        /* \"#utility.yul\":3065:3212   */\n      swap3\n      swap2\n      pop\n      pop\n      jump\t// out\n        /* \"#utility.yul\":3218:3387   */\n    tag_64:\n        /* \"#utility.yul\":3302:3313   */\n      0x00\n        /* \"#utility.yul\":3336:3342   */\n      dup3\n        /* \"#utility.yul\":3331:3334   */\n      dup3\n        /* \"#utility.yul\":3324:3343   */\n      mstore\n        /* \"#utility.yul\":3376:3380   */\n      0x20\n        /* \"#utility.yul\":3371:3374   */\n      dup3\n        /* \"#utility.yul\":3367:3381   */\n      add\n        /* \"#utility.yul\":3352:3381   */\n      swap1\n      pop\n        /* \"#utility.yul\":3218:3387   */\n      swap3\n      swap2\n      pop\n      pop\n      jump\t// out\n        /* \"#utility.yul\":3393:3698   */\n    tag_40:\n        /* \"#utility.yul\":3433:3436   */\n      0x00\n        /* \"#utility.yul\":3452:3472   */\n      tag_90\n        /* \"#utility.yul\":3470:3471   */\n      dup3\n        /* \"#utility.yul\":3452:3472   */\n      tag_75\n      jump\t// in\n    tag_90:\n        /* \"#utility.yul\":3447:3472   */\n      swap2\n      pop\n        /* \"#utility.yul\":3486:3506   */\n      tag_91\n        /* \"#utility.yul\":3504:3505   */\n      dup4\n        /* \"#utility.yul\":3486:3506   */\n      tag_75\n      jump\t// in\n    tag_91:\n        /* \"#utility.yul\":3481:3506   */\n      swap3\n      pop\n        /* \"#utility.yul\":3640:3641   */\n      dup3\n        /* \"#utility.yul\":3572:3638   */\n      0xffffffffffffffffffffffffffffffffffffffffffffffffffffffffffffffff\n        /* \"#utility.yul\":3568:3642   */\n      sub\n        /* \"#utility.yul\":3565:3566   */\n      dup3\n        /* \"#utility.yul\":3562:3643   */\n      gt\n        /* \"#utility.yul\":3559:3666   */\n      iszero\n      tag_92\n      jumpi\n        /* \"#utility.yul\":3646:3664   */\n      tag_93\n      tag_94\n      jump\t// in\n    tag_93:\n        /* \"#utility.yul\":3559:3666   */\n    tag_92:\n        /* \"#utility.yul\":3690:3691   */\n      dup3\n        /* \"#utility.yul\":3687:3688   */\n      dup3\n        /* \"#utility.yul\":3683:3692   */\n      add\n        /* \"#utility.yul\":3676:3692   */\n      swap1\n      pop\n        /* \"#utility.yul\":3393:3698   */\n      swap3\n      swap2\n      pop\n      pop\n      jump\t// out\n        /* \"#utility.yul\":3704:3800   */\n    tag_52:\n        /* \"#utility.yul\":3741:3748   */\n      0x00\n        /* \"#utility.yul\":3770:3794   */\n      tag_96\n        /* \"#utility.yul\":3788:3793   */\n      dup3\n        /* \"#utility.yul\":3770:3794   */\n      tag_97\n      jump\t// in\n    tag_96:\n        /* \"#utility.yul\":3759:3794   */\n      swap1\n      pop\n        /* \"#utility.yul\":3704:3800   */\n      swap2\n      swap1\n      pop\n      jump\t// out\n        /* \"#utility.yul\":3806:3932   */\n    tag_97:\n        /* \"#utility.yul\":3843:3850   */\n      0x00\n        /* \"#utility.yul\":3883:3925   */\n      0xffffffffffffffffffffffffffffffffffffffff\n        /* \"#utility.yul\":3876:3881   */\n      dup3\n        /* \"#utility.yul\":3872:3926   */\n      and\n        /* \"#utility.yul\":3861:3926   */\n      swap1\n      pop\n        /* \"#utility.yul\":3806:3932   */\n      swap2\n      swap1\n      pop\n      jump\t// out\n        /* \"#utility.yul\":3938:4015   */\n    tag_75:\n        /* \"#utility.yul\":3975:3982   */\n      0x00\n        /* \"#utility.yul\":4004:4009   */\n      dup2\n        /* \"#utility.yul\":3993:4009   */\n      swap1\n      pop\n        /* \"#utility.yul\":3938:4015   */\n      swap2\n      swap1\n      pop\n      jump\t// out\n        /* \"#utility.yul\":4021:4328   */\n    tag_60:\n        /* \"#utility.yul\":4089:4090   */\n      0x00\n        /* \"#utility.yul\":4099:4212   */\n    tag_101:\n        /* \"#utility.yul\":4113:4119   */\n      dup4\n        /* \"#utility.yul\":4110:4111   */\n      dup2\n        /* \"#utility.yul\":4107:4120   */\n      lt\n        /* \"#utility.yul\":4099:4212   */\n      iszero\n      tag_103\n      jumpi\n        /* \"#utility.yul\":4198:4199   */\n      dup1\n        /* \"#utility.yul\":4193:4196   */\n      dup3\n        /* \"#utility.yul\":4189:4200   */\n      add\n        /* \"#utility.yul\":4183:4201   */\n      mload\n        /* \"#utility.yul\":4179:4180   */\n      dup2\n        /* \"#utility.yul\":4174:4177   */\n      dup5\n        /* \"#utility.yul\":4170:4181   */\n      add\n        /* \"#utility.yul\":4163:4202   */\n      mstore\n        /* \"#utility.yul\":4135:4137   */\n      0x20\n        /* \"#utility.yul\":4132:4133   */\n      dup2\n        /* \"#utility.yul\":4128:4138   */\n      add\n        /* \"#utility.yul\":4123:4138   */\n      swap1\n      pop\n        /* \"#utility.yul\":4099:4212   */\n      jump(tag_101)\n    tag_103:\n        /* \"#utility.yul\":4230:4236   */\n      dup4\n        /* \"#utility.yul\":4227:4228   */\n      dup2\n        /* \"#utility.yul\":4224:4237   */\n      gt\n        /* \"#utility.yul\":4221:4322   */\n      iszero\n      tag_104\n      jumpi\n        /* \"#utility.yul\":4310:4311   */\n      0x00\n        /* \"#utility.yul\":4301:4307   */\n      dup5\n        /* \"#utility.yul\":4296:4299   */\n      dup5\n        /* \"#utility.yul\":4292:4308   */\n      add\n        /* \"#utility.yul\":4285:4312   */\n      mstore\n        /* \"#utility.yul\":4221:4322   */\n    tag_104:\n        /* \"#utility.yul\":4070:4328   */\n      pop\n        /* \"#utility.yul\":4021:4328   */\n      pop\n      pop\n      pop\n      jump\t// out\n        /* \"#utility.yul\":4334:4514   */\n    tag_94:\n        /* \"#utility.yul\":4382:4459   */\n      0x4e487b7100000000000000000000000000000000000000000000000000000000\n        /* \"#utility.yul\":4379:4380   */\n      0x00\n        /* \"#utility.yul\":4372:4460   */\n      mstore\n        /* \"#utility.yul\":4479:4483   */\n      0x11\n        /* \"#utility.yul\":4476:4477   */\n      0x04\n        /* \"#utility.yul\":4469:4484   */\n      mstore\n        /* \"#utility.yul\":4503:4507   */\n      0x24\n        /* \"#utility.yul\":4500:4501   */\n      0x00\n        /* \"#utility.yul\":4493:4508   */\n      revert\n        /* \"#utility.yul\":4520:4695   */\n    tag_66:\n        /* \"#utility.yul\":4660:4687   */\n      0x4974656d206973207061696420666f7220616c72656164792e00000000000000\n        /* \"#utility.yul\":4656:4657   */\n      0x00\n        /* \"#utility.yul\":4648:4654   */\n      dup3\n        /* \"#utility.yul\":4644:4658   */\n      add\n        /* \"#utility.yul\":4637:4688   */\n      mstore\n        /* \"#utility.yul\":4520:4695   */\n      pop\n      jump\t// out\n        /* \"#utility.yul\":4701:4875   */\n    tag_71:\n        /* \"#utility.yul\":4841:4867   */\n      0x506c656173652070617920657861637420616d6f756e742e0000000000000000\n        /* \"#utility.yul\":4837:4838   */\n      0x00\n        /* \"#utility.yul\":4829:4835   */\n      dup3\n        /* \"#utility.yul\":4825:4839   */\n      add\n        /* \"#utility.yul\":4818:4868   */\n      mstore\n        /* \"#utility.yul\":4701:4875   */\n      pop\n      jump\t// out\n\n    auxdata: 0xa26469706673582212209434e7be873921080115860a49409a98822953cc7525a3ed63721eea1bddf7a664736f6c63430008070033\n}\n",
				"bytecode": {
					"linkReferences": {},
					"object": "608060405234801561001057600080fd5b506040516108673803806108678339818101604052810190610032919061012c565b600460009054906101000a900473ffffffffffffffffffffffffffffffffffffffff16600460006101000a81548173ffffffffffffffffffffffffffffffffffffffff021916908373ffffffffffffffffffffffffffffffffffffffff160217905550826000819055508160028190555080600360006101000a81548173ffffffffffffffffffffffffffffffffffffffff021916908373ffffffffffffffffffffffffffffffffffffffff1602179055505050505061022b565b6000815190506100fc816101e6565b92915050565b600081519050610111816101fd565b92915050565b60008151905061012681610214565b92915050565b60008060008060808587031215610146576101456101e1565b5b600061015487828801610102565b945050602061016587828801610117565b935050604061017687828801610117565b9250506060610187878288016100ed565b91505092959194509250565b600061019e826101b7565b9050919050565b60006101b082610193565b9050919050565b600073ffffffffffffffffffffffffffffffffffffffff82169050919050565b6000819050919050565b600080fd5b6101ef81610193565b81146101fa57600080fd5b50565b610206816101a5565b811461021157600080fd5b50565b61021d816101d7565b811461022857600080fd5b50565b61062d8061023a6000396000f3fe6080604052600436106100555760003560e01c80631b9265b81461005a578063767800de146100645780638544089b1461008f57806389794d00146100ba578063c784a6e6146100e5578063e07bb1a714610110575b600080fd5b61006261013b565b005b34801561007057600080fd5b50610079610306565b6040516100869190610414565b60405180910390f35b34801561009b57600080fd5b506100a461032c565b6040516100b19190610414565b60405180910390f35b3480156100c657600080fd5b506100cf610356565b6040516100dc919061046f565b60405180910390f35b3480156100f157600080fd5b506100fa61035c565b604051610107919061046f565b60405180910390f35b34801561011c57600080fd5b50610125610362565b604051610132919061046f565b60405180910390f35b600060015414610180576040517f08c379a00000000000000000000000000000000000000000000000000000000081526004016101779061042f565b60405180910390fd5b34600054146101c4576040517f08c379a00000000000000000000000000000000000000000000000000000000081526004016101bb9061044f565b60405180910390fd5b34600160008282546101d691906104b1565b925050819055506000600360009054906101000a900473ffffffffffffffffffffffffffffffffffffffff1673ffffffffffffffffffffffffffffffffffffffff16346304c4b40090600254604051602401610232919061046f565b6040516020818303038152906040527f800fb83f000000000000000000000000000000000000000000000000000000007bffffffffffffffffffffffffffffffffffffffffffffffffffffffff19166020820180517bffffffffffffffffffffffffffffffffffffffffffffffffffffffff83818316178352505050506040516102bc91906103fd565b600060405180830381858888f193505050503d80600081146102fa576040519150601f19603f3d011682016040523d82523d6000602084013e6102ff565b606091505b5050905050565b600360009054906101000a900473ffffffffffffffffffffffffffffffffffffffff1681565b6000600460009054906101000a900473ffffffffffffffffffffffffffffffffffffffff16905090565b60015481565b60005481565b60025481565b61037181610507565b82525050565b60006103828261048a565b61038c8185610495565b935061039c818560208601610543565b80840191505092915050565b60006103b56019836104a0565b91506103c0826105a5565b602082019050919050565b60006103d86018836104a0565b91506103e3826105ce565b602082019050919050565b6103f781610539565b82525050565b60006104098284610377565b915081905092915050565b60006020820190506104296000830184610368565b92915050565b60006020820190508181036000830152610448816103a8565b9050919050565b60006020820190508181036000830152610468816103cb565b9050919050565b600060208201905061048460008301846103ee565b92915050565b600081519050919050565b600081905092915050565b600082825260208201905092915050565b60006104bc82610539565b91506104c783610539565b9250827fffffffffffffffffffffffffffffffffffffffffffffffffffffffffffffffff038211156104fc576104fb610576565b5b828201905092915050565b600061051282610519565b9050919050565b600073ffffffffffffffffffffffffffffffffffffffff82169050919050565b6000819050919050565b60005b83811015610561578082015181840152602081019050610546565b83811115610570576000848401525b50505050565b7f4e487b7100000000000000000000000000000000000000000000000000000000600052601160045260246000fd5b7f4974656d206973207061696420666f7220616c72656164792e00000000000000600082015250565b7f506c656173652070617920657861637420616d6f756e742e000000000000000060008201525056fea26469706673582212209434e7be873921080115860a49409a98822953cc7525a3ed63721eea1bddf7a664736f6c63430008070033",
					"opcodes": "PUSH1 0x80 PUSH1 0x40 MSTORE CALLVALUE DUP1 ISZERO PUSH2 0x10 JUMPI PUSH1 0x0 DUP1 REVERT JUMPDEST POP PUSH1 0x40 MLOAD PUSH2 0x867 CODESIZE SUB DUP1 PUSH2 0x867 DUP4 CODECOPY DUP2 DUP2 ADD PUSH1 0x40 MSTORE DUP2 ADD SWAP1 PUSH2 0x32 SWAP2 SWAP1 PUSH2 0x12C JUMP JUMPDEST PUSH1 0x4 PUSH1 0x0 SWAP1 SLOAD SWAP1 PUSH2 0x100 EXP SWAP1 DIV PUSH20 0xFFFFFFFFFFFFFFFFFFFFFFFFFFFFFFFFFFFFFFFF AND PUSH1 0x4 PUSH1 0x0 PUSH2 0x100 EXP DUP2 SLOAD DUP2 PUSH20 0xFFFFFFFFFFFFFFFFFFFFFFFFFFFFFFFFFFFFFFFF MUL NOT AND SWAP1 DUP4 PUSH20 0xFFFFFFFFFFFFFFFFFFFFFFFFFFFFFFFFFFFFFFFF AND MUL OR SWAP1 SSTORE POP DUP3 PUSH1 0x0 DUP2 SWAP1 SSTORE POP DUP2 PUSH1 0x2 DUP2 SWAP1 SSTORE POP DUP1 PUSH1 0x3 PUSH1 0x0 PUSH2 0x100 EXP DUP2 SLOAD DUP2 PUSH20 0xFFFFFFFFFFFFFFFFFFFFFFFFFFFFFFFFFFFFFFFF MUL NOT AND SWAP1 DUP4 PUSH20 0xFFFFFFFFFFFFFFFFFFFFFFFFFFFFFFFFFFFFFFFF AND MUL OR SWAP1 SSTORE POP POP POP POP POP PUSH2 0x22B JUMP JUMPDEST PUSH1 0x0 DUP2 MLOAD SWAP1 POP PUSH2 0xFC DUP2 PUSH2 0x1E6 JUMP JUMPDEST SWAP3 SWAP2 POP POP JUMP JUMPDEST PUSH1 0x0 DUP2 MLOAD SWAP1 POP PUSH2 0x111 DUP2 PUSH2 0x1FD JUMP JUMPDEST SWAP3 SWAP2 POP POP JUMP JUMPDEST PUSH1 0x0 DUP2 MLOAD SWAP1 POP PUSH2 0x126 DUP2 PUSH2 0x214 JUMP JUMPDEST SWAP3 SWAP2 POP POP JUMP JUMPDEST PUSH1 0x0 DUP1 PUSH1 0x0 DUP1 PUSH1 0x80 DUP6 DUP8 SUB SLT ISZERO PUSH2 0x146 JUMPI PUSH2 0x145 PUSH2 0x1E1 JUMP JUMPDEST JUMPDEST PUSH1 0x0 PUSH2 0x154 DUP8 DUP3 DUP9 ADD PUSH2 0x102 JUMP JUMPDEST SWAP5 POP POP PUSH1 0x20 PUSH2 0x165 DUP8 DUP3 DUP9 ADD PUSH2 0x117 JUMP JUMPDEST SWAP4 POP POP PUSH1 0x40 PUSH2 0x176 DUP8 DUP3 DUP9 ADD PUSH2 0x117 JUMP JUMPDEST SWAP3 POP POP PUSH1 0x60 PUSH2 0x187 DUP8 DUP3 DUP9 ADD PUSH2 0xED JUMP JUMPDEST SWAP2 POP POP SWAP3 SWAP6 SWAP2 SWAP5 POP SWAP3 POP JUMP JUMPDEST PUSH1 0x0 PUSH2 0x19E DUP3 PUSH2 0x1B7 JUMP JUMPDEST SWAP1 POP SWAP2 SWAP1 POP JUMP JUMPDEST PUSH1 0x0 PUSH2 0x1B0 DUP3 PUSH2 0x193 JUMP JUMPDEST SWAP1 POP SWAP2 SWAP1 POP JUMP JUMPDEST PUSH1 0x0 PUSH20 0xFFFFFFFFFFFFFFFFFFFFFFFFFFFFFFFFFFFFFFFF DUP3 AND SWAP1 POP SWAP2 SWAP1 POP JUMP JUMPDEST PUSH1 0x0 DUP2 SWAP1 POP SWAP2 SWAP1 POP JUMP JUMPDEST PUSH1 0x0 DUP1 REVERT JUMPDEST PUSH2 0x1EF DUP2 PUSH2 0x193 JUMP JUMPDEST DUP2 EQ PUSH2 0x1FA JUMPI PUSH1 0x0 DUP1 REVERT JUMPDEST POP JUMP JUMPDEST PUSH2 0x206 DUP2 PUSH2 0x1A5 JUMP JUMPDEST DUP2 EQ PUSH2 0x211 JUMPI PUSH1 0x0 DUP1 REVERT JUMPDEST POP JUMP JUMPDEST PUSH2 0x21D DUP2 PUSH2 0x1D7 JUMP JUMPDEST DUP2 EQ PUSH2 0x228 JUMPI PUSH1 0x0 DUP1 REVERT JUMPDEST POP JUMP JUMPDEST PUSH2 0x62D DUP1 PUSH2 0x23A PUSH1 0x0 CODECOPY PUSH1 0x0 RETURN INVALID PUSH1 0x80 PUSH1 0x40 MSTORE PUSH1 0x4 CALLDATASIZE LT PUSH2 0x55 JUMPI PUSH1 0x0 CALLDATALOAD PUSH1 0xE0 SHR DUP1 PUSH4 0x1B9265B8 EQ PUSH2 0x5A JUMPI DUP1 PUSH4 0x767800DE EQ PUSH2 0x64 JUMPI DUP1 PUSH4 0x8544089B EQ PUSH2 0x8F JUMPI DUP1 PUSH4 0x89794D00 EQ PUSH2 0xBA JUMPI DUP1 PUSH4 0xC784A6E6 EQ PUSH2 0xE5 JUMPI DUP1 PUSH4 0xE07BB1A7 EQ PUSH2 0x110 JUMPI JUMPDEST PUSH1 0x0 DUP1 REVERT JUMPDEST PUSH2 0x62 PUSH2 0x13B JUMP JUMPDEST STOP JUMPDEST CALLVALUE DUP1 ISZERO PUSH2 0x70 JUMPI PUSH1 0x0 DUP1 REVERT JUMPDEST POP PUSH2 0x79 PUSH2 0x306 JUMP JUMPDEST PUSH1 0x40 MLOAD PUSH2 0x86 SWAP2 SWAP1 PUSH2 0x414 JUMP JUMPDEST PUSH1 0x40 MLOAD DUP1 SWAP2 SUB SWAP1 RETURN JUMPDEST CALLVALUE DUP1 ISZERO PUSH2 0x9B JUMPI PUSH1 0x0 DUP1 REVERT JUMPDEST POP PUSH2 0xA4 PUSH2 0x32C JUMP JUMPDEST PUSH1 0x40 MLOAD PUSH2 0xB1 SWAP2 SWAP1 PUSH2 0x414 JUMP JUMPDEST PUSH1 0x40 MLOAD DUP1 SWAP2 SUB SWAP1 RETURN JUMPDEST CALLVALUE DUP1 ISZERO PUSH2 0xC6 JUMPI PUSH1 0x0 DUP1 REVERT JUMPDEST POP PUSH2 0xCF PUSH2 0x356 JUMP JUMPDEST PUSH1 0x40 MLOAD PUSH2 0xDC SWAP2 SWAP1 PUSH2 0x46F JUMP JUMPDEST PUSH1 0x40 MLOAD DUP1 SWAP2 SUB SWAP1 RETURN JUMPDEST CALLVALUE DUP1 ISZERO PUSH2 0xF1 JUMPI PUSH1 0x0 DUP1 REVERT JUMPDEST POP PUSH2 0xFA PUSH2 0x35C JUMP JUMPDEST PUSH1 0x40 MLOAD PUSH2 0x107 SWAP2 SWAP1 PUSH2 0x46F JUMP JUMPDEST PUSH1 0x40 MLOAD DUP1 SWAP2 SUB SWAP1 RETURN JUMPDEST CALLVALUE DUP1 ISZERO PUSH2 0x11C JUMPI PUSH1 0x0 DUP1 REVERT JUMPDEST POP PUSH2 0x125 PUSH2 0x362 JUMP JUMPDEST PUSH1 0x40 MLOAD PUSH2 0x132 SWAP2 SWAP1 PUSH2 0x46F JUMP JUMPDEST PUSH1 0x40 MLOAD DUP1 SWAP2 SUB SWAP1 RETURN JUMPDEST PUSH1 0x0 PUSH1 0x1 SLOAD EQ PUSH2 0x180 JUMPI PUSH1 0x40 MLOAD PUSH32 0x8C379A000000000000000000000000000000000000000000000000000000000 DUP2 MSTORE PUSH1 0x4 ADD PUSH2 0x177 SWAP1 PUSH2 0x42F JUMP JUMPDEST PUSH1 0x40 MLOAD DUP1 SWAP2 SUB SWAP1 REVERT JUMPDEST CALLVALUE PUSH1 0x0 SLOAD EQ PUSH2 0x1C4 JUMPI PUSH1 0x40 MLOAD PUSH32 0x8C379A000000000000000000000000000000000000000000000000000000000 DUP2 MSTORE PUSH1 0x4 ADD PUSH2 0x1BB SWAP1 PUSH2 0x44F JUMP JUMPDEST PUSH1 0x40 MLOAD DUP1 SWAP2 SUB SWAP1 REVERT JUMPDEST CALLVALUE PUSH1 0x1 PUSH1 0x0 DUP3 DUP3 SLOAD PUSH2 0x1D6 SWAP2 SWAP1 PUSH2 0x4B1 JUMP JUMPDEST SWAP3 POP POP DUP2 SWAP1 SSTORE POP PUSH1 0x0 PUSH1 0x3 PUSH1 0x0 SWAP1 SLOAD SWAP1 PUSH2 0x100 EXP SWAP1 DIV PUSH20 0xFFFFFFFFFFFFFFFFFFFFFFFFFFFFFFFFFFFFFFFF AND PUSH20 0xFFFFFFFFFFFFFFFFFFFFFFFFFFFFFFFFFFFFFFFF AND CALLVALUE PUSH4 0x4C4B400 SWAP1 PUSH1 0x2 SLOAD PUSH1 0x40 MLOAD PUSH1 0x24 ADD PUSH2 0x232 SWAP2 SWAP1 PUSH2 0x46F JUMP JUMPDEST PUSH1 0x40 MLOAD PUSH1 0x20 DUP2 DUP4 SUB SUB DUP2 MSTORE SWAP1 PUSH1 0x40 MSTORE PUSH32 0x800FB83F00000000000000000000000000000000000000000000000000000000 PUSH28 0xFFFFFFFFFFFFFFFFFFFFFFFFFFFFFFFFFFFFFFFFFFFFFFFFFFFFFFFF NOT AND PUSH1 0x20 DUP3 ADD DUP1 MLOAD PUSH28 0xFFFFFFFFFFFFFFFFFFFFFFFFFFFFFFFFFFFFFFFFFFFFFFFFFFFFFFFF DUP4 DUP2 DUP4 AND OR DUP4 MSTORE POP POP POP POP PUSH1 0x40 MLOAD PUSH2 0x2BC SWAP2 SWAP1 PUSH2 0x3FD JUMP JUMPDEST PUSH1 0x0 PUSH1 0x40 MLOAD DUP1 DUP4 SUB DUP2 DUP6 DUP9 DUP9 CALL SWAP4 POP POP POP POP RETURNDATASIZE DUP1 PUSH1 0x0 DUP2 EQ PUSH2 0x2FA JUMPI PUSH1 0x40 MLOAD SWAP2 POP PUSH1 0x1F NOT PUSH1 0x3F RETURNDATASIZE ADD AND DUP3 ADD PUSH1 0x40 MSTORE RETURNDATASIZE DUP3 MSTORE RETURNDATASIZE PUSH1 0x0 PUSH1 0x20 DUP5 ADD RETURNDATACOPY PUSH2 0x2FF JUMP JUMPDEST PUSH1 0x60 SWAP2 POP JUMPDEST POP POP SWAP1 POP POP JUMP JUMPDEST PUSH1 0x3 PUSH1 0x0 SWAP1 SLOAD SWAP1 PUSH2 0x100 EXP SWAP1 DIV PUSH20 0xFFFFFFFFFFFFFFFFFFFFFFFFFFFFFFFFFFFFFFFF AND DUP2 JUMP JUMPDEST PUSH1 0x0 PUSH1 0x4 PUSH1 0x0 SWAP1 SLOAD SWAP1 PUSH2 0x100 EXP SWAP1 DIV PUSH20 0xFFFFFFFFFFFFFFFFFFFFFFFFFFFFFFFFFFFFFFFF AND SWAP1 POP SWAP1 JUMP JUMPDEST PUSH1 0x1 SLOAD DUP2 JUMP JUMPDEST PUSH1 0x0 SLOAD DUP2 JUMP JUMPDEST PUSH1 0x2 SLOAD DUP2 JUMP JUMPDEST PUSH2 0x371 DUP2 PUSH2 0x507 JUMP JUMPDEST DUP3 MSTORE POP POP JUMP JUMPDEST PUSH1 0x0 PUSH2 0x382 DUP3 PUSH2 0x48A JUMP JUMPDEST PUSH2 0x38C DUP2 DUP6 PUSH2 0x495 JUMP JUMPDEST SWAP4 POP PUSH2 0x39C DUP2 DUP6 PUSH1 0x20 DUP7 ADD PUSH2 0x543 JUMP JUMPDEST DUP1 DUP5 ADD SWAP2 POP POP SWAP3 SWAP2 POP POP JUMP JUMPDEST PUSH1 0x0 PUSH2 0x3B5 PUSH1 0x19 DUP4 PUSH2 0x4A0 JUMP JUMPDEST SWAP2 POP PUSH2 0x3C0 DUP3 PUSH2 0x5A5 JUMP JUMPDEST PUSH1 0x20 DUP3 ADD SWAP1 POP SWAP2 SWAP1 POP JUMP JUMPDEST PUSH1 0x0 PUSH2 0x3D8 PUSH1 0x18 DUP4 PUSH2 0x4A0 JUMP JUMPDEST SWAP2 POP PUSH2 0x3E3 DUP3 PUSH2 0x5CE JUMP JUMPDEST PUSH1 0x20 DUP3 ADD SWAP1 POP SWAP2 SWAP1 POP JUMP JUMPDEST PUSH2 0x3F7 DUP2 PUSH2 0x539 JUMP JUMPDEST DUP3 MSTORE POP POP JUMP JUMPDEST PUSH1 0x0 PUSH2 0x409 DUP3 DUP5 PUSH2 0x377 JUMP JUMPDEST SWAP2 POP DUP2 SWAP1 POP SWAP3 SWAP2 POP POP JUMP JUMPDEST PUSH1 0x0 PUSH1 0x20 DUP3 ADD SWAP1 POP PUSH2 0x429 PUSH1 0x0 DUP4 ADD DUP5 PUSH2 0x368 JUMP JUMPDEST SWAP3 SWAP2 POP POP JUMP JUMPDEST PUSH1 0x0 PUSH1 0x20 DUP3 ADD SWAP1 POP DUP2 DUP2 SUB PUSH1 0x0 DUP4 ADD MSTORE PUSH2 0x448 DUP2 PUSH2 0x3A8 JUMP JUMPDEST SWAP1 POP SWAP2 SWAP1 POP JUMP JUMPDEST PUSH1 0x0 PUSH1 0x20 DUP3 ADD SWAP1 POP DUP2 DUP2 SUB PUSH1 0x0 DUP4 ADD MSTORE PUSH2 0x468 DUP2 PUSH2 0x3CB JUMP JUMPDEST SWAP1 POP SWAP2 SWAP1 POP JUMP JUMPDEST PUSH1 0x0 PUSH1 0x20 DUP3 ADD SWAP1 POP PUSH2 0x484 PUSH1 0x0 DUP4 ADD DUP5 PUSH2 0x3EE JUMP JUMPDEST SWAP3 SWAP2 POP POP JUMP JUMPDEST PUSH1 0x0 DUP2 MLOAD SWAP1 POP SWAP2 SWAP1 POP JUMP JUMPDEST PUSH1 0x0 DUP2 SWAP1 POP SWAP3 SWAP2 POP POP JUMP JUMPDEST PUSH1 0x0 DUP3 DUP3 MSTORE PUSH1 0x20 DUP3 ADD SWAP1 POP SWAP3 SWAP2 POP POP JUMP JUMPDEST PUSH1 0x0 PUSH2 0x4BC DUP3 PUSH2 0x539 JUMP JUMPDEST SWAP2 POP PUSH2 0x4C7 DUP4 PUSH2 0x539 JUMP JUMPDEST SWAP3 POP DUP3 PUSH32 0xFFFFFFFFFFFFFFFFFFFFFFFFFFFFFFFFFFFFFFFFFFFFFFFFFFFFFFFFFFFFFFFF SUB DUP3 GT ISZERO PUSH2 0x4FC JUMPI PUSH2 0x4FB PUSH2 0x576 JUMP JUMPDEST JUMPDEST DUP3 DUP3 ADD SWAP1 POP SWAP3 SWAP2 POP POP JUMP JUMPDEST PUSH1 0x0 PUSH2 0x512 DUP3 PUSH2 0x519 JUMP JUMPDEST SWAP1 POP SWAP2 SWAP1 POP JUMP JUMPDEST PUSH1 0x0 PUSH20 0xFFFFFFFFFFFFFFFFFFFFFFFFFFFFFFFFFFFFFFFF DUP3 AND SWAP1 POP SWAP2 SWAP1 POP JUMP JUMPDEST PUSH1 0x0 DUP2 SWAP1 POP SWAP2 SWAP1 POP JUMP JUMPDEST PUSH1 0x0 JUMPDEST DUP4 DUP2 LT ISZERO PUSH2 0x561 JUMPI DUP1 DUP3 ADD MLOAD DUP2 DUP5 ADD MSTORE PUSH1 0x20 DUP2 ADD SWAP1 POP PUSH2 0x546 JUMP JUMPDEST DUP4 DUP2 GT ISZERO PUSH2 0x570 JUMPI PUSH1 0x0 DUP5 DUP5 ADD MSTORE JUMPDEST POP POP POP POP JUMP JUMPDEST PUSH32 0x4E487B7100000000000000000000000000000000000000000000000000000000 PUSH1 0x0 MSTORE PUSH1 0x11 PUSH1 0x4 MSTORE PUSH1 0x24 PUSH1 0x0 REVERT JUMPDEST PUSH32 0x4974656D206973207061696420666F7220616C72656164792E00000000000000 PUSH1 0x0 DUP3 ADD MSTORE POP JUMP JUMPDEST PUSH32 0x506C656173652070617920657861637420616D6F756E742E0000000000000000 PUSH1 0x0 DUP3 ADD MSTORE POP JUMP INVALID LOG2 PUSH5 0x6970667358 0x22 SLT KECCAK256 SWAP5 CALLVALUE 0xE7 0xBE DUP8 CODECOPY 0x21 ADDMOD ADD ISZERO DUP7 EXP 0x49 BLOCKHASH SWAP11 SWAP9 DUP3 0x29 MSTORE8 0xCC PUSH22 0x25A3ED63721EEA1BDDF7A664736F6C63430008070033 "
				},
				"gasEstimates": {
					"creation": {
						"codeDepositCost": "316200",
						"executionCost": "infinite",
						"totalCost": "infinite"
					},
					"external": {
						"addr()": "2514",
						"cddress()": "2544",
						"itemIndex()": "2517",
						"itemPriceInWei()": "2495",
						"pay()": "infinite",
						"pricePaid()": "2473"
					}
				},
				"methodIdentifiers": {
					"addr()": "767800de",
					"cddress()": "8544089b",
					"itemIndex()": "e07bb1a7",
					"itemPriceInWei()": "c784a6e6",
					"pay()": "1b9265b8",
					"pricePaid()": "89794d00"
				}
			},
			"userdoc": {
				"kind": "user",
				"methods": {},
				"version": 1
			}
		}
	}
}