{
	"contracts/eventtrigger.sol": {
		"ItemManager": {
			"abi": [
				{
					"anonymous": false,
					"inputs": [
						{
							"indexed": false,
							"internalType": "uint256",
							"name": "_itemIndex",
							"type": "uint256"
						},
						{
							"indexed": false,
							"internalType": "enum ItemManager.AutoChainState",
							"name": "_state",
							"type": "uint8"
						}
					],
					"name": "AutoChainEvent",
					"type": "event"
				},
				{
					"inputs": [
						{
							"internalType": "string",
							"name": "_identifier",
							"type": "string"
						},
						{
							"internalType": "uint256",
							"name": "_itemPrice",
							"type": "uint256"
						}
					],
					"name": "createItem",
					"outputs": [],
					"stateMutability": "nonpayable",
					"type": "function"
				},
				{
					"inputs": [
						{
							"internalType": "uint256",
							"name": "",
							"type": "uint256"
						}
					],
					"name": "items",
					"outputs": [
						{
							"internalType": "string",
							"name": "_identifier",
							"type": "string"
						},
						{
							"internalType": "uint256",
							"name": "_itemPrice",
							"type": "uint256"
						},
						{
							"internalType": "enum ItemManager.AutoChainState",
							"name": "_state",
							"type": "uint8"
						}
					],
					"stateMutability": "view",
					"type": "function"
				},
				{
					"inputs": [
						{
							"internalType": "uint256",
							"name": "itemIndex",
							"type": "uint256"
						}
					],
					"name": "triggerDelivery",
					"outputs": [],
					"stateMutability": "nonpayable",
					"type": "function"
				},
				{
					"inputs": [
						{
							"internalType": "uint256",
							"name": "_itemIndex",
							"type": "uint256"
						}
					],
					"name": "triggerPayment",
					"outputs": [],
					"stateMutability": "payable",
					"type": "function"
				}
			],
			"devdoc": {
				"kind": "dev",
				"methods": {},
				"version": 1
			},
			"evm": {
				"assembly": "    /* \"contracts/eventtrigger.sol\":60:1373  contract ItemManager {\r... */\n  mstore(0x40, 0x80)\n  callvalue\n  dup1\n  iszero\n  tag_1\n  jumpi\n  0x00\n  dup1\n  revert\ntag_1:\n  pop\n  dataSize(sub_0)\n  dup1\n  dataOffset(sub_0)\n  0x00\n  codecopy\n  0x00\n  return\nstop\n\nsub_0: assembly {\n        /* \"contracts/eventtrigger.sol\":60:1373  contract ItemManager {\r... */\n      mstore(0x40, 0x80)\n      jumpi(tag_1, lt(calldatasize, 0x04))\n      shr(0xe0, calldataload(0x00))\n      dup1\n      0x800fb83f\n      eq\n      tag_2\n      jumpi\n      dup1\n      0x8c551742\n      eq\n      tag_3\n      jumpi\n      dup1\n      0xbfb231d2\n      eq\n      tag_4\n      jumpi\n      dup1\n      0xcd31831e\n      eq\n      tag_5\n      jumpi\n    tag_1:\n      0x00\n      dup1\n      revert\n        /* \"contracts/eventtrigger.sol\":679:1083  function triggerPayment (uint _itemIndex) external payable{\r... */\n    tag_2:\n      tag_6\n      0x04\n      dup1\n      calldatasize\n      sub\n      dup2\n      add\n      swap1\n      tag_7\n      swap2\n      swap1\n      tag_8\n      jump\t// in\n    tag_7:\n      tag_9\n      jump\t// in\n    tag_6:\n      stop\n        /* \"contracts/eventtrigger.sol\":406:671  function createItem (string memory _identifier, uint _itemPrice) public {\r... */\n    tag_3:\n      callvalue\n      dup1\n      iszero\n      tag_10\n      jumpi\n      0x00\n      dup1\n      revert\n    tag_10:\n      pop\n      tag_11\n      0x04\n      dup1\n      calldatasize\n      sub\n      dup2\n      add\n      swap1\n      tag_12\n      swap2\n      swap1\n      tag_13\n      jump\t// in\n    tag_12:\n      tag_14\n      jump\t// in\n    tag_11:\n      stop\n        /* \"contracts/eventtrigger.sol\":341:376  mapping (uint => item) public items */\n    tag_4:\n      callvalue\n      dup1\n      iszero\n      tag_15\n      jumpi\n      0x00\n      dup1\n      revert\n    tag_15:\n      pop\n      tag_16\n      0x04\n      dup1\n      calldatasize\n      sub\n      dup2\n      add\n      swap1\n      tag_17\n      swap2\n      swap1\n      tag_8\n      jump\t// in\n    tag_17:\n      tag_18\n      jump\t// in\n    tag_16:\n      mload(0x40)\n      tag_19\n      swap4\n      swap3\n      swap2\n      swap1\n      tag_20\n      jump\t// in\n    tag_19:\n      mload(0x40)\n      dup1\n      swap2\n      sub\n      swap1\n      return\n        /* \"contracts/eventtrigger.sol\":1091:1370  function triggerDelivery (uint itemIndex) public {\r... */\n    tag_5:\n      callvalue\n      dup1\n      iszero\n      tag_21\n      jumpi\n      0x00\n      dup1\n      revert\n    tag_21:\n      pop\n      tag_22\n      0x04\n      dup1\n      calldatasize\n      sub\n      dup2\n      add\n      swap1\n      tag_23\n      swap2\n      swap1\n      tag_8\n      jump\t// in\n    tag_23:\n      tag_24\n      jump\t// in\n    tag_22:\n      stop\n        /* \"contracts/eventtrigger.sol\":679:1083  function triggerPayment (uint _itemIndex) external payable{\r... */\n    tag_9:\n        /* \"contracts/eventtrigger.sol\":788:797  msg.value */\n      callvalue\n        /* \"contracts/eventtrigger.sol\":757:762  items */\n      0x00\n        /* \"contracts/eventtrigger.sol\":757:773  items[itemIndex] */\n      dup1\n        /* \"contracts/eventtrigger.sol\":763:772  itemIndex */\n      sload(0x01)\n        /* \"contracts/eventtrigger.sol\":757:773  items[itemIndex] */\n      dup2\n      mstore\n      0x20\n      add\n      swap1\n      dup2\n      mstore\n      0x20\n      add\n      0x00\n      keccak256\n        /* \"contracts/eventtrigger.sol\":757:784  items[itemIndex]._itemPrice */\n      0x01\n      add\n      sload\n        /* \"contracts/eventtrigger.sol\":757:797  items[itemIndex]._itemPrice == msg.value */\n      eq\n        /* \"contracts/eventtrigger.sol\":748:826  require (items[itemIndex]._itemPrice == msg.value, \"Please pay exact amount.\") */\n      tag_26\n      jumpi\n      mload(0x40)\n      0x08c379a000000000000000000000000000000000000000000000000000000000\n      dup2\n      mstore\n      0x04\n      add\n      tag_27\n      swap1\n      tag_28\n      jump\t// in\n    tag_27:\n      mload(0x40)\n      dup1\n      swap2\n      sub\n      swap1\n      revert\n    tag_26:\n        /* \"contracts/eventtrigger.sol\":873:895  AutoChainState.Created */\n      0x00\n        /* \"contracts/eventtrigger.sol\":846:895  items[itemIndex]._state == AutoChainState.Created */\n      0x02\n      dup2\n      gt\n      iszero\n      tag_29\n      jumpi\n      tag_30\n      tag_31\n      jump\t// in\n    tag_30:\n    tag_29:\n        /* \"contracts/eventtrigger.sol\":846:851  items */\n      0x00\n        /* \"contracts/eventtrigger.sol\":846:862  items[itemIndex] */\n      dup1\n        /* \"contracts/eventtrigger.sol\":852:861  itemIndex */\n      sload(0x01)\n        /* \"contracts/eventtrigger.sol\":846:862  items[itemIndex] */\n      dup2\n      mstore\n      0x20\n      add\n      swap1\n      dup2\n      mstore\n      0x20\n      add\n      0x00\n      keccak256\n        /* \"contracts/eventtrigger.sol\":846:869  items[itemIndex]._state */\n      0x02\n      add\n      0x00\n      swap1\n      sload\n      swap1\n      0x0100\n      exp\n      swap1\n      div\n      0xff\n      and\n        /* \"contracts/eventtrigger.sol\":846:895  items[itemIndex]._state == AutoChainState.Created */\n      0x02\n      dup2\n      gt\n      iszero\n      tag_32\n      jumpi\n      tag_33\n      tag_31\n      jump\t// in\n    tag_33:\n    tag_32:\n      eq\n        /* \"contracts/eventtrigger.sol\":837:943  require (items[itemIndex]._state == AutoChainState.Created, \"Item has been already paid for or delivered\") */\n      tag_34\n      jumpi\n      mload(0x40)\n      0x08c379a000000000000000000000000000000000000000000000000000000000\n      dup2\n      mstore\n      0x04\n      add\n      tag_35\n      swap1\n      tag_36\n      jump\t// in\n    tag_35:\n      mload(0x40)\n      dup1\n      swap2\n      sub\n      swap1\n      revert\n    tag_34:\n        /* \"contracts/eventtrigger.sol\":990:1009  AutoChainState.Paid */\n      0x01\n        /* \"contracts/eventtrigger.sol\":964:969  items */\n      0x00\n        /* \"contracts/eventtrigger.sol\":964:980  items[itemIndex] */\n      dup1\n        /* \"contracts/eventtrigger.sol\":970:979  itemIndex */\n      sload(0x01)\n        /* \"contracts/eventtrigger.sol\":964:980  items[itemIndex] */\n      dup2\n      mstore\n      0x20\n      add\n      swap1\n      dup2\n      mstore\n      0x20\n      add\n      0x00\n      keccak256\n        /* \"contracts/eventtrigger.sol\":964:987  items[itemIndex]._state */\n      0x02\n      add\n      0x00\n        /* \"contracts/eventtrigger.sol\":964:1009  items[itemIndex]._state = AutoChainState.Paid */\n      0x0100\n      exp\n      dup2\n      sload\n      dup2\n      0xff\n      mul\n      not\n      and\n      swap1\n      dup4\n      0x02\n      dup2\n      gt\n      iszero\n      tag_37\n      jumpi\n      tag_38\n      tag_31\n      jump\t// in\n    tag_38:\n    tag_37:\n      mul\n      or\n      swap1\n      sstore\n      pop\n        /* \"contracts/eventtrigger.sol\":1025:1075  AutoChainEvent(itemIndex, items[itemIndex]._state) */\n      0xc36f1fecada94b82f557d4e62be040548e283d26f16a9d6d69d8a8bb051a6246\n        /* \"contracts/eventtrigger.sol\":1040:1049  itemIndex */\n      sload(0x01)\n        /* \"contracts/eventtrigger.sol\":1051:1056  items */\n      0x00\n        /* \"contracts/eventtrigger.sol\":1051:1067  items[itemIndex] */\n      dup1\n        /* \"contracts/eventtrigger.sol\":1057:1066  itemIndex */\n      sload(0x01)\n        /* \"contracts/eventtrigger.sol\":1051:1067  items[itemIndex] */\n      dup2\n      mstore\n      0x20\n      add\n      swap1\n      dup2\n      mstore\n      0x20\n      add\n      0x00\n      keccak256\n        /* \"contracts/eventtrigger.sol\":1051:1074  items[itemIndex]._state */\n      0x02\n      add\n      0x00\n      swap1\n      sload\n      swap1\n      0x0100\n      exp\n      swap1\n      div\n      0xff\n      and\n        /* \"contracts/eventtrigger.sol\":1025:1075  AutoChainEvent(itemIndex, items[itemIndex]._state) */\n      mload(0x40)\n      tag_39\n      swap3\n      swap2\n      swap1\n      tag_40\n      jump\t// in\n    tag_39:\n      mload(0x40)\n      dup1\n      swap2\n      sub\n      swap1\n      log1\n        /* \"contracts/eventtrigger.sol\":679:1083  function triggerPayment (uint _itemIndex) external payable{\r... */\n      pop\n      jump\t// out\n        /* \"contracts/eventtrigger.sol\":406:671  function createItem (string memory _identifier, uint _itemPrice) public {\r... */\n    tag_14:\n        /* \"contracts/eventtrigger.sol\":520:531  _identifier */\n      dup2\n        /* \"contracts/eventtrigger.sol\":489:494  items */\n      0x00\n        /* \"contracts/eventtrigger.sol\":489:505  items[itemIndex] */\n      dup1\n        /* \"contracts/eventtrigger.sol\":495:504  itemIndex */\n      sload(0x01)\n        /* \"contracts/eventtrigger.sol\":489:505  items[itemIndex] */\n      dup2\n      mstore\n      0x20\n      add\n      swap1\n      dup2\n      mstore\n      0x20\n      add\n      0x00\n      keccak256\n        /* \"contracts/eventtrigger.sol\":489:517  items[itemIndex]._identifier */\n      0x00\n      add\n        /* \"contracts/eventtrigger.sol\":489:531  items[itemIndex]._identifier = _identifier */\n      swap1\n      dup1\n      mload\n      swap1\n      0x20\n      add\n      swap1\n      tag_42\n      swap3\n      swap2\n      swap1\n      tag_43\n      jump\t// in\n    tag_42:\n      pop\n        /* \"contracts/eventtrigger.sol\":572:582  _itemPrice */\n      dup1\n        /* \"contracts/eventtrigger.sol\":542:547  items */\n      0x00\n        /* \"contracts/eventtrigger.sol\":542:558  items[itemIndex] */\n      dup1\n        /* \"contracts/eventtrigger.sol\":548:557  itemIndex */\n      sload(0x01)\n        /* \"contracts/eventtrigger.sol\":542:558  items[itemIndex] */\n      dup2\n      mstore\n      0x20\n      add\n      swap1\n      dup2\n      mstore\n      0x20\n      add\n      0x00\n      keccak256\n        /* \"contracts/eventtrigger.sol\":542:569  items[itemIndex]._itemPrice */\n      0x01\n      add\n        /* \"contracts/eventtrigger.sol\":542:582  items[itemIndex]._itemPrice = _itemPrice */\n      dup2\n      swap1\n      sstore\n      pop\n        /* \"contracts/eventtrigger.sol\":619:641  AutoChainState.Created */\n      0x00\n        /* \"contracts/eventtrigger.sol\":593:598  items */\n      dup1\n        /* \"contracts/eventtrigger.sol\":593:609  items[itemIndex] */\n      0x00\n        /* \"contracts/eventtrigger.sol\":599:608  itemIndex */\n      sload(0x01)\n        /* \"contracts/eventtrigger.sol\":593:609  items[itemIndex] */\n      dup2\n      mstore\n      0x20\n      add\n      swap1\n      dup2\n      mstore\n      0x20\n      add\n      0x00\n      keccak256\n        /* \"contracts/eventtrigger.sol\":593:616  items[itemIndex]._state */\n      0x02\n      add\n      0x00\n        /* \"contracts/eventtrigger.sol\":593:641  items[itemIndex]._state = AutoChainState.Created */\n      0x0100\n      exp\n      dup2\n      sload\n      dup2\n      0xff\n      mul\n      not\n      and\n      swap1\n      dup4\n      0x02\n      dup2\n      gt\n      iszero\n      tag_44\n      jumpi\n      tag_45\n      tag_31\n      jump\t// in\n    tag_45:\n    tag_44:\n      mul\n      or\n      swap1\n      sstore\n      pop\n        /* \"contracts/eventtrigger.sol\":652:661  itemIndex */\n      0x01\n      0x00\n        /* \"contracts/eventtrigger.sol\":652:663  itemIndex++ */\n      dup2\n      sload\n      dup1\n      swap3\n      swap2\n      swap1\n      tag_46\n      swap1\n      tag_47\n      jump\t// in\n    tag_46:\n      swap2\n      swap1\n      pop\n      sstore\n      pop\n        /* \"contracts/eventtrigger.sol\":406:671  function createItem (string memory _identifier, uint _itemPrice) public {\r... */\n      pop\n      pop\n      jump\t// out\n        /* \"contracts/eventtrigger.sol\":341:376  mapping (uint => item) public items */\n    tag_18:\n      mstore(0x20, 0x00)\n      dup1\n      0x00\n      mstore\n      keccak256(0x00, 0x40)\n      0x00\n      swap2\n      pop\n      swap1\n      pop\n      dup1\n      0x00\n      add\n      dup1\n      sload\n      tag_48\n      swap1\n      tag_49\n      jump\t// in\n    tag_48:\n      dup1\n      0x1f\n      add\n      0x20\n      dup1\n      swap2\n      div\n      mul\n      0x20\n      add\n      mload(0x40)\n      swap1\n      dup2\n      add\n      0x40\n      mstore\n      dup1\n      swap3\n      swap2\n      swap1\n      dup2\n      dup2\n      mstore\n      0x20\n      add\n      dup3\n      dup1\n      sload\n      tag_50\n      swap1\n      tag_49\n      jump\t// in\n    tag_50:\n      dup1\n      iszero\n      tag_51\n      jumpi\n      dup1\n      0x1f\n      lt\n      tag_52\n      jumpi\n      0x0100\n      dup1\n      dup4\n      sload\n      div\n      mul\n      dup4\n      mstore\n      swap2\n      0x20\n      add\n      swap2\n      jump(tag_51)\n    tag_52:\n      dup3\n      add\n      swap2\n      swap1\n      0x00\n      mstore\n      keccak256(0x00, 0x20)\n      swap1\n    tag_53:\n      dup2\n      sload\n      dup2\n      mstore\n      swap1\n      0x01\n      add\n      swap1\n      0x20\n      add\n      dup1\n      dup4\n      gt\n      tag_53\n      jumpi\n      dup3\n      swap1\n      sub\n      0x1f\n      and\n      dup3\n      add\n      swap2\n    tag_51:\n      pop\n      pop\n      pop\n      pop\n      pop\n      swap1\n      dup1\n      0x01\n      add\n      sload\n      swap1\n      dup1\n      0x02\n      add\n      0x00\n      swap1\n      sload\n      swap1\n      0x0100\n      exp\n      swap1\n      div\n      0xff\n      and\n      swap1\n      pop\n      dup4\n      jump\t// out\n        /* \"contracts/eventtrigger.sol\":1091:1370  function triggerDelivery (uint itemIndex) public {\r... */\n    tag_24:\n        /* \"contracts/eventtrigger.sol\":1187:1206  AutoChainState.Paid */\n      0x01\n        /* \"contracts/eventtrigger.sol\":1160:1206  items[itemIndex]._state == AutoChainState.Paid */\n      0x02\n      dup2\n      gt\n      iszero\n      tag_55\n      jumpi\n      tag_56\n      tag_31\n      jump\t// in\n    tag_56:\n    tag_55:\n        /* \"contracts/eventtrigger.sol\":1160:1165  items */\n      0x00\n        /* \"contracts/eventtrigger.sol\":1160:1176  items[itemIndex] */\n      dup1\n        /* \"contracts/eventtrigger.sol\":1166:1175  itemIndex */\n      dup4\n        /* \"contracts/eventtrigger.sol\":1160:1176  items[itemIndex] */\n      dup2\n      mstore\n      0x20\n      add\n      swap1\n      dup2\n      mstore\n      0x20\n      add\n      0x00\n      keccak256\n        /* \"contracts/eventtrigger.sol\":1160:1183  items[itemIndex]._state */\n      0x02\n      add\n      0x00\n      swap1\n      sload\n      swap1\n      0x0100\n      exp\n      swap1\n      div\n      0xff\n      and\n        /* \"contracts/eventtrigger.sol\":1160:1206  items[itemIndex]._state == AutoChainState.Paid */\n      0x02\n      dup2\n      gt\n      iszero\n      tag_57\n      jumpi\n      tag_58\n      tag_31\n      jump\t// in\n    tag_58:\n    tag_57:\n      eq\n        /* \"contracts/eventtrigger.sol\":1151:1235  require (items[itemIndex]._state == AutoChainState.Paid, \"Item awaiting payment...\") */\n      tag_59\n      jumpi\n      mload(0x40)\n      0x08c379a000000000000000000000000000000000000000000000000000000000\n      dup2\n      mstore\n      0x04\n      add\n      tag_60\n      swap1\n      tag_61\n      jump\t// in\n    tag_60:\n      mload(0x40)\n      dup1\n      swap2\n      sub\n      swap1\n      revert\n    tag_59:\n        /* \"contracts/eventtrigger.sol\":1272:1296  AutoChainState.Delivered */\n      0x02\n        /* \"contracts/eventtrigger.sol\":1246:1251  items */\n      0x00\n        /* \"contracts/eventtrigger.sol\":1246:1262  items[itemIndex] */\n      dup1\n        /* \"contracts/eventtrigger.sol\":1252:1261  itemIndex */\n      dup4\n        /* \"contracts/eventtrigger.sol\":1246:1262  items[itemIndex] */\n      dup2\n      mstore\n      0x20\n      add\n      swap1\n      dup2\n      mstore\n      0x20\n      add\n      0x00\n      keccak256\n        /* \"contracts/eventtrigger.sol\":1246:1269  items[itemIndex]._state */\n      0x02\n      add\n      0x00\n        /* \"contracts/eventtrigger.sol\":1246:1296  items[itemIndex]._state = AutoChainState.Delivered */\n      0x0100\n      exp\n      dup2\n      sload\n      dup2\n      0xff\n      mul\n      not\n      and\n      swap1\n      dup4\n      0x02\n      dup2\n      gt\n      iszero\n      tag_62\n      jumpi\n      tag_63\n      tag_31\n      jump\t// in\n    tag_63:\n    tag_62:\n      mul\n      or\n      swap1\n      sstore\n      pop\n        /* \"contracts/eventtrigger.sol\":1312:1362  AutoChainEvent(itemIndex, items[itemIndex]._state) */\n      0xc36f1fecada94b82f557d4e62be040548e283d26f16a9d6d69d8a8bb051a6246\n        /* \"contracts/eventtrigger.sol\":1327:1336  itemIndex */\n      dup2\n        /* \"contracts/eventtrigger.sol\":1338:1343  items */\n      0x00\n        /* \"contracts/eventtrigger.sol\":1338:1354  items[itemIndex] */\n      dup1\n        /* \"contracts/eventtrigger.sol\":1344:1353  itemIndex */\n      dup5\n        /* \"contracts/eventtrigger.sol\":1338:1354  items[itemIndex] */\n      dup2\n      mstore\n      0x20\n      add\n      swap1\n      dup2\n      mstore\n      0x20\n      add\n      0x00\n      keccak256\n        /* \"contracts/eventtrigger.sol\":1338:1361  items[itemIndex]._state */\n      0x02\n      add\n      0x00\n      swap1\n      sload\n      swap1\n      0x0100\n      exp\n      swap1\n      div\n      0xff\n      and\n        /* \"contracts/eventtrigger.sol\":1312:1362  AutoChainEvent(itemIndex, items[itemIndex]._state) */\n      mload(0x40)\n      tag_64\n      swap3\n      swap2\n      swap1\n      tag_40\n      jump\t// in\n    tag_64:\n      mload(0x40)\n      dup1\n      swap2\n      sub\n      swap1\n      log1\n        /* \"contracts/eventtrigger.sol\":1091:1370  function triggerDelivery (uint itemIndex) public {\r... */\n      pop\n      jump\t// out\n    tag_43:\n      dup3\n      dup1\n      sload\n      tag_65\n      swap1\n      tag_49\n      jump\t// in\n    tag_65:\n      swap1\n      0x00\n      mstore\n      keccak256(0x00, 0x20)\n      swap1\n      0x1f\n      add\n      0x20\n      swap1\n      div\n      dup2\n      add\n      swap3\n      dup3\n      tag_67\n      jumpi\n      0x00\n      dup6\n      sstore\n      jump(tag_66)\n    tag_67:\n      dup3\n      0x1f\n      lt\n      tag_68\n      jumpi\n      dup1\n      mload\n      not(0xff)\n      and\n      dup4\n      dup1\n      add\n      or\n      dup6\n      sstore\n      jump(tag_66)\n    tag_68:\n      dup3\n      dup1\n      add\n      0x01\n      add\n      dup6\n      sstore\n      dup3\n      iszero\n      tag_66\n      jumpi\n      swap2\n      dup3\n      add\n    tag_69:\n      dup3\n      dup2\n      gt\n      iszero\n      tag_70\n      jumpi\n      dup3\n      mload\n      dup3\n      sstore\n      swap2\n      0x20\n      add\n      swap2\n      swap1\n      0x01\n      add\n      swap1\n      jump(tag_69)\n    tag_70:\n    tag_66:\n      pop\n      swap1\n      pop\n      tag_71\n      swap2\n      swap1\n      tag_72\n      jump\t// in\n    tag_71:\n      pop\n      swap1\n      jump\t// out\n    tag_72:\n    tag_73:\n      dup1\n      dup3\n      gt\n      iszero\n      tag_74\n      jumpi\n      0x00\n      dup2\n      0x00\n      swap1\n      sstore\n      pop\n      0x01\n      add\n      jump(tag_73)\n    tag_74:\n      pop\n      swap1\n      jump\t// out\n        /* \"#utility.yul\":7:419   */\n    tag_76:\n        /* \"#utility.yul\":85:90   */\n      0x00\n        /* \"#utility.yul\":110:176   */\n      tag_78\n        /* \"#utility.yul\":126:175   */\n      tag_79\n        /* \"#utility.yul\":168:174   */\n      dup5\n        /* \"#utility.yul\":126:175   */\n      tag_80\n      jump\t// in\n    tag_79:\n        /* \"#utility.yul\":110:176   */\n      tag_81\n      jump\t// in\n    tag_78:\n        /* \"#utility.yul\":101:176   */\n      swap1\n      pop\n        /* \"#utility.yul\":199:205   */\n      dup3\n        /* \"#utility.yul\":192:197   */\n      dup2\n        /* \"#utility.yul\":185:206   */\n      mstore\n        /* \"#utility.yul\":237:241   */\n      0x20\n        /* \"#utility.yul\":230:235   */\n      dup2\n        /* \"#utility.yul\":226:242   */\n      add\n        /* \"#utility.yul\":275:278   */\n      dup5\n        /* \"#utility.yul\":266:272   */\n      dup5\n        /* \"#utility.yul\":261:264   */\n      dup5\n        /* \"#utility.yul\":257:273   */\n      add\n        /* \"#utility.yul\":254:279   */\n      gt\n        /* \"#utility.yul\":251:363   */\n      iszero\n      tag_82\n      jumpi\n        /* \"#utility.yul\":282:361   */\n      tag_83\n      tag_84\n      jump\t// in\n    tag_83:\n        /* \"#utility.yul\":251:363   */\n    tag_82:\n        /* \"#utility.yul\":372:413   */\n      tag_85\n        /* \"#utility.yul\":406:412   */\n      dup5\n        /* \"#utility.yul\":401:404   */\n      dup3\n        /* \"#utility.yul\":396:399   */\n      dup6\n        /* \"#utility.yul\":372:413   */\n      tag_86\n      jump\t// in\n    tag_85:\n        /* \"#utility.yul\":91:419   */\n      pop\n        /* \"#utility.yul\":7:419   */\n      swap4\n      swap3\n      pop\n      pop\n      pop\n      jump\t// out\n        /* \"#utility.yul\":439:779   */\n    tag_87:\n        /* \"#utility.yul\":495:500   */\n      0x00\n        /* \"#utility.yul\":544:547   */\n      dup3\n        /* \"#utility.yul\":537:541   */\n      0x1f\n        /* \"#utility.yul\":529:535   */\n      dup4\n        /* \"#utility.yul\":525:542   */\n      add\n        /* \"#utility.yul\":521:548   */\n      slt\n        /* \"#utility.yul\":511:633   */\n      tag_89\n      jumpi\n        /* \"#utility.yul\":552:631   */\n      tag_90\n      tag_91\n      jump\t// in\n    tag_90:\n        /* \"#utility.yul\":511:633   */\n    tag_89:\n        /* \"#utility.yul\":669:675   */\n      dup2\n        /* \"#utility.yul\":656:676   */\n      calldataload\n        /* \"#utility.yul\":694:773   */\n      tag_92\n        /* \"#utility.yul\":769:772   */\n      dup5\n        /* \"#utility.yul\":761:767   */\n      dup3\n        /* \"#utility.yul\":754:758   */\n      0x20\n        /* \"#utility.yul\":746:752   */\n      dup7\n        /* \"#utility.yul\":742:759   */\n      add\n        /* \"#utility.yul\":694:773   */\n      tag_76\n      jump\t// in\n    tag_92:\n        /* \"#utility.yul\":685:773   */\n      swap2\n      pop\n        /* \"#utility.yul\":501:779   */\n      pop\n        /* \"#utility.yul\":439:779   */\n      swap3\n      swap2\n      pop\n      pop\n      jump\t// out\n        /* \"#utility.yul\":785:924   */\n    tag_93:\n        /* \"#utility.yul\":831:836   */\n      0x00\n        /* \"#utility.yul\":869:875   */\n      dup2\n        /* \"#utility.yul\":856:876   */\n      calldataload\n        /* \"#utility.yul\":847:876   */\n      swap1\n      pop\n        /* \"#utility.yul\":885:918   */\n      tag_95\n        /* \"#utility.yul\":912:917   */\n      dup2\n        /* \"#utility.yul\":885:918   */\n      tag_96\n      jump\t// in\n    tag_95:\n        /* \"#utility.yul\":785:924   */\n      swap3\n      swap2\n      pop\n      pop\n      jump\t// out\n        /* \"#utility.yul\":930:1584   */\n    tag_13:\n        /* \"#utility.yul\":1008:1014   */\n      0x00\n        /* \"#utility.yul\":1016:1022   */\n      dup1\n        /* \"#utility.yul\":1065:1067   */\n      0x40\n        /* \"#utility.yul\":1053:1062   */\n      dup4\n        /* \"#utility.yul\":1044:1051   */\n      dup6\n        /* \"#utility.yul\":1040:1063   */\n      sub\n        /* \"#utility.yul\":1036:1068   */\n      slt\n        /* \"#utility.yul\":1033:1152   */\n      iszero\n      tag_98\n      jumpi\n        /* \"#utility.yul\":1071:1150   */\n      tag_99\n      tag_100\n      jump\t// in\n    tag_99:\n        /* \"#utility.yul\":1033:1152   */\n    tag_98:\n        /* \"#utility.yul\":1219:1220   */\n      0x00\n        /* \"#utility.yul\":1208:1217   */\n      dup4\n        /* \"#utility.yul\":1204:1221   */\n      add\n        /* \"#utility.yul\":1191:1222   */\n      calldataload\n        /* \"#utility.yul\":1249:1267   */\n      0xffffffffffffffff\n        /* \"#utility.yul\":1241:1247   */\n      dup2\n        /* \"#utility.yul\":1238:1268   */\n      gt\n        /* \"#utility.yul\":1235:1352   */\n      iszero\n      tag_101\n      jumpi\n        /* \"#utility.yul\":1271:1350   */\n      tag_102\n      tag_103\n      jump\t// in\n    tag_102:\n        /* \"#utility.yul\":1235:1352   */\n    tag_101:\n        /* \"#utility.yul\":1376:1439   */\n      tag_104\n        /* \"#utility.yul\":1431:1438   */\n      dup6\n        /* \"#utility.yul\":1422:1428   */\n      dup3\n        /* \"#utility.yul\":1411:1420   */\n      dup7\n        /* \"#utility.yul\":1407:1429   */\n      add\n        /* \"#utility.yul\":1376:1439   */\n      tag_87\n      jump\t// in\n    tag_104:\n        /* \"#utility.yul\":1366:1439   */\n      swap3\n      pop\n        /* \"#utility.yul\":1162:1449   */\n      pop\n        /* \"#utility.yul\":1488:1490   */\n      0x20\n        /* \"#utility.yul\":1514:1567   */\n      tag_105\n        /* \"#utility.yul\":1559:1566   */\n      dup6\n        /* \"#utility.yul\":1550:1556   */\n      dup3\n        /* \"#utility.yul\":1539:1548   */\n      dup7\n        /* \"#utility.yul\":1535:1557   */\n      add\n        /* \"#utility.yul\":1514:1567   */\n      tag_93\n      jump\t// in\n    tag_105:\n        /* \"#utility.yul\":1504:1567   */\n      swap2\n      pop\n        /* \"#utility.yul\":1459:1577   */\n      pop\n        /* \"#utility.yul\":930:1584   */\n      swap3\n      pop\n      swap3\n      swap1\n      pop\n      jump\t// out\n        /* \"#utility.yul\":1590:1919   */\n    tag_8:\n        /* \"#utility.yul\":1649:1655   */\n      0x00\n        /* \"#utility.yul\":1698:1700   */\n      0x20\n        /* \"#utility.yul\":1686:1695   */\n      dup3\n        /* \"#utility.yul\":1677:1684   */\n      dup5\n        /* \"#utility.yul\":1673:1696   */\n      sub\n        /* \"#utility.yul\":1669:1701   */\n      slt\n        /* \"#utility.yul\":1666:1785   */\n      iszero\n      tag_107\n      jumpi\n        /* \"#utility.yul\":1704:1783   */\n      tag_108\n      tag_100\n      jump\t// in\n    tag_108:\n        /* \"#utility.yul\":1666:1785   */\n    tag_107:\n        /* \"#utility.yul\":1824:1825   */\n      0x00\n        /* \"#utility.yul\":1849:1902   */\n      tag_109\n        /* \"#utility.yul\":1894:1901   */\n      dup5\n        /* \"#utility.yul\":1885:1891   */\n      dup3\n        /* \"#utility.yul\":1874:1883   */\n      dup6\n        /* \"#utility.yul\":1870:1892   */\n      add\n        /* \"#utility.yul\":1849:1902   */\n      tag_93\n      jump\t// in\n    tag_109:\n        /* \"#utility.yul\":1839:1902   */\n      swap2\n      pop\n        /* \"#utility.yul\":1795:1912   */\n      pop\n        /* \"#utility.yul\":1590:1919   */\n      swap3\n      swap2\n      pop\n      pop\n      jump\t// out\n        /* \"#utility.yul\":1925:2084   */\n    tag_110:\n        /* \"#utility.yul\":2026:2077   */\n      tag_112\n        /* \"#utility.yul\":2071:2076   */\n      dup2\n        /* \"#utility.yul\":2026:2077   */\n      tag_113\n      jump\t// in\n    tag_112:\n        /* \"#utility.yul\":2021:2024   */\n      dup3\n        /* \"#utility.yul\":2014:2078   */\n      mstore\n        /* \"#utility.yul\":1925:2084   */\n      pop\n      pop\n      jump\t// out\n        /* \"#utility.yul\":2090:2454   */\n    tag_114:\n        /* \"#utility.yul\":2178:2181   */\n      0x00\n        /* \"#utility.yul\":2206:2245   */\n      tag_116\n        /* \"#utility.yul\":2239:2244   */\n      dup3\n        /* \"#utility.yul\":2206:2245   */\n      tag_117\n      jump\t// in\n    tag_116:\n        /* \"#utility.yul\":2261:2332   */\n      tag_118\n        /* \"#utility.yul\":2325:2331   */\n      dup2\n        /* \"#utility.yul\":2320:2323   */\n      dup6\n        /* \"#utility.yul\":2261:2332   */\n      tag_119\n      jump\t// in\n    tag_118:\n        /* \"#utility.yul\":2254:2332   */\n      swap4\n      pop\n        /* \"#utility.yul\":2341:2393   */\n      tag_120\n        /* \"#utility.yul\":2386:2392   */\n      dup2\n        /* \"#utility.yul\":2381:2384   */\n      dup6\n        /* \"#utility.yul\":2374:2378   */\n      0x20\n        /* \"#utility.yul\":2367:2372   */\n      dup7\n        /* \"#utility.yul\":2363:2379   */\n      add\n        /* \"#utility.yul\":2341:2393   */\n      tag_121\n      jump\t// in\n    tag_120:\n        /* \"#utility.yul\":2418:2447   */\n      tag_122\n        /* \"#utility.yul\":2440:2446   */\n      dup2\n        /* \"#utility.yul\":2418:2447   */\n      tag_123\n      jump\t// in\n    tag_122:\n        /* \"#utility.yul\":2413:2416   */\n      dup5\n        /* \"#utility.yul\":2409:2448   */\n      add\n        /* \"#utility.yul\":2402:2448   */\n      swap2\n      pop\n        /* \"#utility.yul\":2182:2454   */\n      pop\n        /* \"#utility.yul\":2090:2454   */\n      swap3\n      swap2\n      pop\n      pop\n      jump\t// out\n        /* \"#utility.yul\":2460:2826   */\n    tag_124:\n        /* \"#utility.yul\":2602:2605   */\n      0x00\n        /* \"#utility.yul\":2623:2690   */\n      tag_126\n        /* \"#utility.yul\":2687:2689   */\n      0x18\n        /* \"#utility.yul\":2682:2685   */\n      dup4\n        /* \"#utility.yul\":2623:2690   */\n      tag_119\n      jump\t// in\n    tag_126:\n        /* \"#utility.yul\":2616:2690   */\n      swap2\n      pop\n        /* \"#utility.yul\":2699:2792   */\n      tag_127\n        /* \"#utility.yul\":2788:2791   */\n      dup3\n        /* \"#utility.yul\":2699:2792   */\n      tag_128\n      jump\t// in\n    tag_127:\n        /* \"#utility.yul\":2817:2819   */\n      0x20\n        /* \"#utility.yul\":2812:2815   */\n      dup3\n        /* \"#utility.yul\":2808:2820   */\n      add\n        /* \"#utility.yul\":2801:2820   */\n      swap1\n      pop\n        /* \"#utility.yul\":2460:2826   */\n      swap2\n      swap1\n      pop\n      jump\t// out\n        /* \"#utility.yul\":2832:3198   */\n    tag_129:\n        /* \"#utility.yul\":2974:2977   */\n      0x00\n        /* \"#utility.yul\":2995:3062   */\n      tag_131\n        /* \"#utility.yul\":3059:3061   */\n      0x2b\n        /* \"#utility.yul\":3054:3057   */\n      dup4\n        /* \"#utility.yul\":2995:3062   */\n      tag_119\n      jump\t// in\n    tag_131:\n        /* \"#utility.yul\":2988:3062   */\n      swap2\n      pop\n        /* \"#utility.yul\":3071:3164   */\n      tag_132\n        /* \"#utility.yul\":3160:3163   */\n      dup3\n        /* \"#utility.yul\":3071:3164   */\n      tag_133\n      jump\t// in\n    tag_132:\n        /* \"#utility.yul\":3189:3191   */\n      0x40\n        /* \"#utility.yul\":3184:3187   */\n      dup3\n        /* \"#utility.yul\":3180:3192   */\n      add\n        /* \"#utility.yul\":3173:3192   */\n      swap1\n      pop\n        /* \"#utility.yul\":2832:3198   */\n      swap2\n      swap1\n      pop\n      jump\t// out\n        /* \"#utility.yul\":3204:3570   */\n    tag_134:\n        /* \"#utility.yul\":3346:3349   */\n      0x00\n        /* \"#utility.yul\":3367:3434   */\n      tag_136\n        /* \"#utility.yul\":3431:3433   */\n      0x18\n        /* \"#utility.yul\":3426:3429   */\n      dup4\n        /* \"#utility.yul\":3367:3434   */\n      tag_119\n      jump\t// in\n    tag_136:\n        /* \"#utility.yul\":3360:3434   */\n      swap2\n      pop\n        /* \"#utility.yul\":3443:3536   */\n      tag_137\n        /* \"#utility.yul\":3532:3535   */\n      dup3\n        /* \"#utility.yul\":3443:3536   */\n      tag_138\n      jump\t// in\n    tag_137:\n        /* \"#utility.yul\":3561:3563   */\n      0x20\n        /* \"#utility.yul\":3556:3559   */\n      dup3\n        /* \"#utility.yul\":3552:3564   */\n      add\n        /* \"#utility.yul\":3545:3564   */\n      swap1\n      pop\n        /* \"#utility.yul\":3204:3570   */\n      swap2\n      swap1\n      pop\n      jump\t// out\n        /* \"#utility.yul\":3576:3694   */\n    tag_139:\n        /* \"#utility.yul\":3663:3687   */\n      tag_141\n        /* \"#utility.yul\":3681:3686   */\n      dup2\n        /* \"#utility.yul\":3663:3687   */\n      tag_142\n      jump\t// in\n    tag_141:\n        /* \"#utility.yul\":3658:3661   */\n      dup3\n        /* \"#utility.yul\":3651:3688   */\n      mstore\n        /* \"#utility.yul\":3576:3694   */\n      pop\n      pop\n      jump\t// out\n        /* \"#utility.yul\":3700:4261   */\n    tag_20:\n        /* \"#utility.yul\":3883:3887   */\n      0x00\n        /* \"#utility.yul\":3921:3923   */\n      0x60\n        /* \"#utility.yul\":3910:3919   */\n      dup3\n        /* \"#utility.yul\":3906:3924   */\n      add\n        /* \"#utility.yul\":3898:3924   */\n      swap1\n      pop\n        /* \"#utility.yul\":3970:3979   */\n      dup2\n        /* \"#utility.yul\":3964:3968   */\n      dup2\n        /* \"#utility.yul\":3960:3980   */\n      sub\n        /* \"#utility.yul\":3956:3957   */\n      0x00\n        /* \"#utility.yul\":3945:3954   */\n      dup4\n        /* \"#utility.yul\":3941:3958   */\n      add\n        /* \"#utility.yul\":3934:3981   */\n      mstore\n        /* \"#utility.yul\":3998:4076   */\n      tag_144\n        /* \"#utility.yul\":4071:4075   */\n      dup2\n        /* \"#utility.yul\":4062:4068   */\n      dup7\n        /* \"#utility.yul\":3998:4076   */\n      tag_114\n      jump\t// in\n    tag_144:\n        /* \"#utility.yul\":3990:4076   */\n      swap1\n      pop\n        /* \"#utility.yul\":4086:4158   */\n      tag_145\n        /* \"#utility.yul\":4154:4156   */\n      0x20\n        /* \"#utility.yul\":4143:4152   */\n      dup4\n        /* \"#utility.yul\":4139:4157   */\n      add\n        /* \"#utility.yul\":4130:4136   */\n      dup6\n        /* \"#utility.yul\":4086:4158   */\n      tag_139\n      jump\t// in\n    tag_145:\n        /* \"#utility.yul\":4168:4254   */\n      tag_146\n        /* \"#utility.yul\":4250:4252   */\n      0x40\n        /* \"#utility.yul\":4239:4248   */\n      dup4\n        /* \"#utility.yul\":4235:4253   */\n      add\n        /* \"#utility.yul\":4226:4232   */\n      dup5\n        /* \"#utility.yul\":4168:4254   */\n      tag_110\n      jump\t// in\n    tag_146:\n        /* \"#utility.yul\":3700:4261   */\n      swap5\n      swap4\n      pop\n      pop\n      pop\n      pop\n      jump\t// out\n        /* \"#utility.yul\":4267:4686   */\n    tag_28:\n        /* \"#utility.yul\":4433:4437   */\n      0x00\n        /* \"#utility.yul\":4471:4473   */\n      0x20\n        /* \"#utility.yul\":4460:4469   */\n      dup3\n        /* \"#utility.yul\":4456:4474   */\n      add\n        /* \"#utility.yul\":4448:4474   */\n      swap1\n      pop\n        /* \"#utility.yul\":4520:4529   */\n      dup2\n        /* \"#utility.yul\":4514:4518   */\n      dup2\n        /* \"#utility.yul\":4510:4530   */\n      sub\n        /* \"#utility.yul\":4506:4507   */\n      0x00\n        /* \"#utility.yul\":4495:4504   */\n      dup4\n        /* \"#utility.yul\":4491:4508   */\n      add\n        /* \"#utility.yul\":4484:4531   */\n      mstore\n        /* \"#utility.yul\":4548:4679   */\n      tag_148\n        /* \"#utility.yul\":4674:4678   */\n      dup2\n        /* \"#utility.yul\":4548:4679   */\n      tag_124\n      jump\t// in\n    tag_148:\n        /* \"#utility.yul\":4540:4679   */\n      swap1\n      pop\n        /* \"#utility.yul\":4267:4686   */\n      swap2\n      swap1\n      pop\n      jump\t// out\n        /* \"#utility.yul\":4692:5111   */\n    tag_36:\n        /* \"#utility.yul\":4858:4862   */\n      0x00\n        /* \"#utility.yul\":4896:4898   */\n      0x20\n        /* \"#utility.yul\":4885:4894   */\n      dup3\n        /* \"#utility.yul\":4881:4899   */\n      add\n        /* \"#utility.yul\":4873:4899   */\n      swap1\n      pop\n        /* \"#utility.yul\":4945:4954   */\n      dup2\n        /* \"#utility.yul\":4939:4943   */\n      dup2\n        /* \"#utility.yul\":4935:4955   */\n      sub\n        /* \"#utility.yul\":4931:4932   */\n      0x00\n        /* \"#utility.yul\":4920:4929   */\n      dup4\n        /* \"#utility.yul\":4916:4933   */\n      add\n        /* \"#utility.yul\":4909:4956   */\n      mstore\n        /* \"#utility.yul\":4973:5104   */\n      tag_150\n        /* \"#utility.yul\":5099:5103   */\n      dup2\n        /* \"#utility.yul\":4973:5104   */\n      tag_129\n      jump\t// in\n    tag_150:\n        /* \"#utility.yul\":4965:5104   */\n      swap1\n      pop\n        /* \"#utility.yul\":4692:5111   */\n      swap2\n      swap1\n      pop\n      jump\t// out\n        /* \"#utility.yul\":5117:5536   */\n    tag_61:\n        /* \"#utility.yul\":5283:5287   */\n      0x00\n        /* \"#utility.yul\":5321:5323   */\n      0x20\n        /* \"#utility.yul\":5310:5319   */\n      dup3\n        /* \"#utility.yul\":5306:5324   */\n      add\n        /* \"#utility.yul\":5298:5324   */\n      swap1\n      pop\n        /* \"#utility.yul\":5370:5379   */\n      dup2\n        /* \"#utility.yul\":5364:5368   */\n      dup2\n        /* \"#utility.yul\":5360:5380   */\n      sub\n        /* \"#utility.yul\":5356:5357   */\n      0x00\n        /* \"#utility.yul\":5345:5354   */\n      dup4\n        /* \"#utility.yul\":5341:5358   */\n      add\n        /* \"#utility.yul\":5334:5381   */\n      mstore\n        /* \"#utility.yul\":5398:5529   */\n      tag_152\n        /* \"#utility.yul\":5524:5528   */\n      dup2\n        /* \"#utility.yul\":5398:5529   */\n      tag_134\n      jump\t// in\n    tag_152:\n        /* \"#utility.yul\":5390:5529   */\n      swap1\n      pop\n        /* \"#utility.yul\":5117:5536   */\n      swap2\n      swap1\n      pop\n      jump\t// out\n        /* \"#utility.yul\":5542:5902   */\n    tag_40:\n        /* \"#utility.yul\":5677:5681   */\n      0x00\n        /* \"#utility.yul\":5715:5717   */\n      0x40\n        /* \"#utility.yul\":5704:5713   */\n      dup3\n        /* \"#utility.yul\":5700:5718   */\n      add\n        /* \"#utility.yul\":5692:5718   */\n      swap1\n      pop\n        /* \"#utility.yul\":5728:5799   */\n      tag_154\n        /* \"#utility.yul\":5796:5797   */\n      0x00\n        /* \"#utility.yul\":5785:5794   */\n      dup4\n        /* \"#utility.yul\":5781:5798   */\n      add\n        /* \"#utility.yul\":5772:5778   */\n      dup6\n        /* \"#utility.yul\":5728:5799   */\n      tag_139\n      jump\t// in\n    tag_154:\n        /* \"#utility.yul\":5809:5895   */\n      tag_155\n        /* \"#utility.yul\":5891:5893   */\n      0x20\n        /* \"#utility.yul\":5880:5889   */\n      dup4\n        /* \"#utility.yul\":5876:5894   */\n      add\n        /* \"#utility.yul\":5867:5873   */\n      dup5\n        /* \"#utility.yul\":5809:5895   */\n      tag_110\n      jump\t// in\n    tag_155:\n        /* \"#utility.yul\":5542:5902   */\n      swap4\n      swap3\n      pop\n      pop\n      pop\n      jump\t// out\n        /* \"#utility.yul\":5908:6037   */\n    tag_81:\n        /* \"#utility.yul\":5942:5948   */\n      0x00\n        /* \"#utility.yul\":5969:5989   */\n      tag_157\n      tag_158\n      jump\t// in\n    tag_157:\n        /* \"#utility.yul\":5959:5989   */\n      swap1\n      pop\n        /* \"#utility.yul\":5998:6031   */\n      tag_159\n        /* \"#utility.yul\":6026:6030   */\n      dup3\n        /* \"#utility.yul\":6018:6024   */\n      dup3\n        /* \"#utility.yul\":5998:6031   */\n      tag_160\n      jump\t// in\n    tag_159:\n        /* \"#utility.yul\":5908:6037   */\n      swap2\n      swap1\n      pop\n      jump\t// out\n        /* \"#utility.yul\":6043:6118   */\n    tag_158:\n        /* \"#utility.yul\":6076:6082   */\n      0x00\n        /* \"#utility.yul\":6109:6111   */\n      0x40\n        /* \"#utility.yul\":6103:6112   */\n      mload\n        /* \"#utility.yul\":6093:6112   */\n      swap1\n      pop\n        /* \"#utility.yul\":6043:6118   */\n      swap1\n      jump\t// out\n        /* \"#utility.yul\":6124:6432   */\n    tag_80:\n        /* \"#utility.yul\":6186:6190   */\n      0x00\n        /* \"#utility.yul\":6276:6294   */\n      0xffffffffffffffff\n        /* \"#utility.yul\":6268:6274   */\n      dup3\n        /* \"#utility.yul\":6265:6295   */\n      gt\n        /* \"#utility.yul\":6262:6318   */\n      iszero\n      tag_163\n      jumpi\n        /* \"#utility.yul\":6298:6316   */\n      tag_164\n      tag_165\n      jump\t// in\n    tag_164:\n        /* \"#utility.yul\":6262:6318   */\n    tag_163:\n        /* \"#utility.yul\":6336:6365   */\n      tag_166\n        /* \"#utility.yul\":6358:6364   */\n      dup3\n        /* \"#utility.yul\":6336:6365   */\n      tag_123\n      jump\t// in\n    tag_166:\n        /* \"#utility.yul\":6328:6365   */\n      swap1\n      pop\n        /* \"#utility.yul\":6420:6424   */\n      0x20\n        /* \"#utility.yul\":6414:6418   */\n      dup2\n        /* \"#utility.yul\":6410:6425   */\n      add\n        /* \"#utility.yul\":6402:6425   */\n      swap1\n      pop\n        /* \"#utility.yul\":6124:6432   */\n      swap2\n      swap1\n      pop\n      jump\t// out\n        /* \"#utility.yul\":6438:6537   */\n    tag_117:\n        /* \"#utility.yul\":6490:6496   */\n      0x00\n        /* \"#utility.yul\":6524:6529   */\n      dup2\n        /* \"#utility.yul\":6518:6530   */\n      mload\n        /* \"#utility.yul\":6508:6530   */\n      swap1\n      pop\n        /* \"#utility.yul\":6438:6537   */\n      swap2\n      swap1\n      pop\n      jump\t// out\n        /* \"#utility.yul\":6543:6712   */\n    tag_119:\n        /* \"#utility.yul\":6627:6638   */\n      0x00\n        /* \"#utility.yul\":6661:6667   */\n      dup3\n        /* \"#utility.yul\":6656:6659   */\n      dup3\n        /* \"#utility.yul\":6649:6668   */\n      mstore\n        /* \"#utility.yul\":6701:6705   */\n      0x20\n        /* \"#utility.yul\":6696:6699   */\n      dup3\n        /* \"#utility.yul\":6692:6706   */\n      add\n        /* \"#utility.yul\":6677:6706   */\n      swap1\n      pop\n        /* \"#utility.yul\":6543:6712   */\n      swap3\n      swap2\n      pop\n      pop\n      jump\t// out\n        /* \"#utility.yul\":6718:6861   */\n    tag_169:\n        /* \"#utility.yul\":6771:6778   */\n      0x00\n        /* \"#utility.yul\":6800:6805   */\n      dup2\n        /* \"#utility.yul\":6789:6805   */\n      swap1\n      pop\n        /* \"#utility.yul\":6806:6855   */\n      tag_171\n        /* \"#utility.yul\":6849:6854   */\n      dup3\n        /* \"#utility.yul\":6806:6855   */\n      tag_172\n      jump\t// in\n    tag_171:\n        /* \"#utility.yul\":6718:6861   */\n      swap2\n      swap1\n      pop\n      jump\t// out\n        /* \"#utility.yul\":6867:6944   */\n    tag_142:\n        /* \"#utility.yul\":6904:6911   */\n      0x00\n        /* \"#utility.yul\":6933:6938   */\n      dup2\n        /* \"#utility.yul\":6922:6938   */\n      swap1\n      pop\n        /* \"#utility.yul\":6867:6944   */\n      swap2\n      swap1\n      pop\n      jump\t// out\n        /* \"#utility.yul\":6950:7093   */\n    tag_113:\n        /* \"#utility.yul\":7014:7023   */\n      0x00\n        /* \"#utility.yul\":7047:7087   */\n      tag_175\n        /* \"#utility.yul\":7081:7086   */\n      dup3\n        /* \"#utility.yul\":7047:7087   */\n      tag_169\n      jump\t// in\n    tag_175:\n        /* \"#utility.yul\":7034:7087   */\n      swap1\n      pop\n        /* \"#utility.yul\":6950:7093   */\n      swap2\n      swap1\n      pop\n      jump\t// out\n        /* \"#utility.yul\":7099:7253   */\n    tag_86:\n        /* \"#utility.yul\":7183:7189   */\n      dup3\n        /* \"#utility.yul\":7178:7181   */\n      dup2\n        /* \"#utility.yul\":7173:7176   */\n      dup4\n        /* \"#utility.yul\":7160:7190   */\n      calldatacopy\n        /* \"#utility.yul\":7245:7246   */\n      0x00\n        /* \"#utility.yul\":7236:7242   */\n      dup4\n        /* \"#utility.yul\":7231:7234   */\n      dup4\n        /* \"#utility.yul\":7227:7243   */\n      add\n        /* \"#utility.yul\":7220:7247   */\n      mstore\n        /* \"#utility.yul\":7099:7253   */\n      pop\n      pop\n      pop\n      jump\t// out\n        /* \"#utility.yul\":7259:7566   */\n    tag_121:\n        /* \"#utility.yul\":7327:7328   */\n      0x00\n        /* \"#utility.yul\":7337:7450   */\n    tag_178:\n        /* \"#utility.yul\":7351:7357   */\n      dup4\n        /* \"#utility.yul\":7348:7349   */\n      dup2\n        /* \"#utility.yul\":7345:7358   */\n      lt\n        /* \"#utility.yul\":7337:7450   */\n      iszero\n      tag_180\n      jumpi\n        /* \"#utility.yul\":7436:7437   */\n      dup1\n        /* \"#utility.yul\":7431:7434   */\n      dup3\n        /* \"#utility.yul\":7427:7438   */\n      add\n        /* \"#utility.yul\":7421:7439   */\n      mload\n        /* \"#utility.yul\":7417:7418   */\n      dup2\n        /* \"#utility.yul\":7412:7415   */\n      dup5\n        /* \"#utility.yul\":7408:7419   */\n      add\n        /* \"#utility.yul\":7401:7440   */\n      mstore\n        /* \"#utility.yul\":7373:7375   */\n      0x20\n        /* \"#utility.yul\":7370:7371   */\n      dup2\n        /* \"#utility.yul\":7366:7376   */\n      add\n        /* \"#utility.yul\":7361:7376   */\n      swap1\n      pop\n        /* \"#utility.yul\":7337:7450   */\n      jump(tag_178)\n    tag_180:\n        /* \"#utility.yul\":7468:7474   */\n      dup4\n        /* \"#utility.yul\":7465:7466   */\n      dup2\n        /* \"#utility.yul\":7462:7475   */\n      gt\n        /* \"#utility.yul\":7459:7560   */\n      iszero\n      tag_181\n      jumpi\n        /* \"#utility.yul\":7548:7549   */\n      0x00\n        /* \"#utility.yul\":7539:7545   */\n      dup5\n        /* \"#utility.yul\":7534:7537   */\n      dup5\n        /* \"#utility.yul\":7530:7546   */\n      add\n        /* \"#utility.yul\":7523:7550   */\n      mstore\n        /* \"#utility.yul\":7459:7560   */\n    tag_181:\n        /* \"#utility.yul\":7308:7566   */\n      pop\n        /* \"#utility.yul\":7259:7566   */\n      pop\n      pop\n      pop\n      jump\t// out\n        /* \"#utility.yul\":7572:7892   */\n    tag_49:\n        /* \"#utility.yul\":7616:7622   */\n      0x00\n        /* \"#utility.yul\":7653:7654   */\n      0x02\n        /* \"#utility.yul\":7647:7651   */\n      dup3\n        /* \"#utility.yul\":7643:7655   */\n      div\n        /* \"#utility.yul\":7633:7655   */\n      swap1\n      pop\n        /* \"#utility.yul\":7700:7701   */\n      0x01\n        /* \"#utility.yul\":7694:7698   */\n      dup3\n        /* \"#utility.yul\":7690:7702   */\n      and\n        /* \"#utility.yul\":7721:7739   */\n      dup1\n        /* \"#utility.yul\":7711:7792   */\n      tag_183\n      jumpi\n        /* \"#utility.yul\":7777:7781   */\n      0x7f\n        /* \"#utility.yul\":7769:7775   */\n      dup3\n        /* \"#utility.yul\":7765:7782   */\n      and\n        /* \"#utility.yul\":7755:7782   */\n      swap2\n      pop\n        /* \"#utility.yul\":7711:7792   */\n    tag_183:\n        /* \"#utility.yul\":7839:7841   */\n      0x20\n        /* \"#utility.yul\":7831:7837   */\n      dup3\n        /* \"#utility.yul\":7828:7842   */\n      lt\n        /* \"#utility.yul\":7808:7826   */\n      dup2\n        /* \"#utility.yul\":7805:7843   */\n      eq\n        /* \"#utility.yul\":7802:7886   */\n      iszero\n      tag_184\n      jumpi\n        /* \"#utility.yul\":7858:7876   */\n      tag_185\n      tag_186\n      jump\t// in\n    tag_185:\n        /* \"#utility.yul\":7802:7886   */\n    tag_184:\n        /* \"#utility.yul\":7623:7892   */\n      pop\n        /* \"#utility.yul\":7572:7892   */\n      swap2\n      swap1\n      pop\n      jump\t// out\n        /* \"#utility.yul\":7898:8179   */\n    tag_160:\n        /* \"#utility.yul\":7981:8008   */\n      tag_188\n        /* \"#utility.yul\":8003:8007   */\n      dup3\n        /* \"#utility.yul\":7981:8008   */\n      tag_123\n      jump\t// in\n    tag_188:\n        /* \"#utility.yul\":7973:7979   */\n      dup2\n        /* \"#utility.yul\":7969:8009   */\n      add\n        /* \"#utility.yul\":8111:8117   */\n      dup2\n        /* \"#utility.yul\":8099:8109   */\n      dup2\n        /* \"#utility.yul\":8096:8118   */\n      lt\n        /* \"#utility.yul\":8075:8093   */\n      0xffffffffffffffff\n        /* \"#utility.yul\":8063:8073   */\n      dup3\n        /* \"#utility.yul\":8060:8094   */\n      gt\n        /* \"#utility.yul\":8057:8119   */\n      or\n        /* \"#utility.yul\":8054:8142   */\n      iszero\n      tag_189\n      jumpi\n        /* \"#utility.yul\":8122:8140   */\n      tag_190\n      tag_165\n      jump\t// in\n    tag_190:\n        /* \"#utility.yul\":8054:8142   */\n    tag_189:\n        /* \"#utility.yul\":8162:8172   */\n      dup1\n        /* \"#utility.yul\":8158:8160   */\n      0x40\n        /* \"#utility.yul\":8151:8173   */\n      mstore\n        /* \"#utility.yul\":7941:8179   */\n      pop\n        /* \"#utility.yul\":7898:8179   */\n      pop\n      pop\n      jump\t// out\n        /* \"#utility.yul\":8185:8418   */\n    tag_47:\n        /* \"#utility.yul\":8224:8227   */\n      0x00\n        /* \"#utility.yul\":8247:8271   */\n      tag_192\n        /* \"#utility.yul\":8265:8270   */\n      dup3\n        /* \"#utility.yul\":8247:8271   */\n      tag_142\n      jump\t// in\n    tag_192:\n        /* \"#utility.yul\":8238:8271   */\n      swap2\n      pop\n        /* \"#utility.yul\":8293:8359   */\n      0xffffffffffffffffffffffffffffffffffffffffffffffffffffffffffffffff\n        /* \"#utility.yul\":8286:8291   */\n      dup3\n        /* \"#utility.yul\":8283:8360   */\n      eq\n        /* \"#utility.yul\":8280:8383   */\n      iszero\n      tag_193\n      jumpi\n        /* \"#utility.yul\":8363:8381   */\n      tag_194\n      tag_195\n      jump\t// in\n    tag_194:\n        /* \"#utility.yul\":8280:8383   */\n    tag_193:\n        /* \"#utility.yul\":8410:8411   */\n      0x01\n        /* \"#utility.yul\":8403:8408   */\n      dup3\n        /* \"#utility.yul\":8399:8412   */\n      add\n        /* \"#utility.yul\":8392:8412   */\n      swap1\n      pop\n        /* \"#utility.yul\":8185:8418   */\n      swap2\n      swap1\n      pop\n      jump\t// out\n        /* \"#utility.yul\":8424:8604   */\n    tag_195:\n        /* \"#utility.yul\":8472:8549   */\n      0x4e487b7100000000000000000000000000000000000000000000000000000000\n        /* \"#utility.yul\":8469:8470   */\n      0x00\n        /* \"#utility.yul\":8462:8550   */\n      mstore\n        /* \"#utility.yul\":8569:8573   */\n      0x11\n        /* \"#utility.yul\":8566:8567   */\n      0x04\n        /* \"#utility.yul\":8559:8574   */\n      mstore\n        /* \"#utility.yul\":8593:8597   */\n      0x24\n        /* \"#utility.yul\":8590:8591   */\n      0x00\n        /* \"#utility.yul\":8583:8598   */\n      revert\n        /* \"#utility.yul\":8610:8790   */\n    tag_31:\n        /* \"#utility.yul\":8658:8735   */\n      0x4e487b7100000000000000000000000000000000000000000000000000000000\n        /* \"#utility.yul\":8655:8656   */\n      0x00\n        /* \"#utility.yul\":8648:8736   */\n      mstore\n        /* \"#utility.yul\":8755:8759   */\n      0x21\n        /* \"#utility.yul\":8752:8753   */\n      0x04\n        /* \"#utility.yul\":8745:8760   */\n      mstore\n        /* \"#utility.yul\":8779:8783   */\n      0x24\n        /* \"#utility.yul\":8776:8777   */\n      0x00\n        /* \"#utility.yul\":8769:8784   */\n      revert\n        /* \"#utility.yul\":8796:8976   */\n    tag_186:\n        /* \"#utility.yul\":8844:8921   */\n      0x4e487b7100000000000000000000000000000000000000000000000000000000\n        /* \"#utility.yul\":8841:8842   */\n      0x00\n        /* \"#utility.yul\":8834:8922   */\n      mstore\n        /* \"#utility.yul\":8941:8945   */\n      0x22\n        /* \"#utility.yul\":8938:8939   */\n      0x04\n        /* \"#utility.yul\":8931:8946   */\n      mstore\n        /* \"#utility.yul\":8965:8969   */\n      0x24\n        /* \"#utility.yul\":8962:8963   */\n      0x00\n        /* \"#utility.yul\":8955:8970   */\n      revert\n        /* \"#utility.yul\":8982:9162   */\n    tag_165:\n        /* \"#utility.yul\":9030:9107   */\n      0x4e487b7100000000000000000000000000000000000000000000000000000000\n        /* \"#utility.yul\":9027:9028   */\n      0x00\n        /* \"#utility.yul\":9020:9108   */\n      mstore\n        /* \"#utility.yul\":9127:9131   */\n      0x41\n        /* \"#utility.yul\":9124:9125   */\n      0x04\n        /* \"#utility.yul\":9117:9132   */\n      mstore\n        /* \"#utility.yul\":9151:9155   */\n      0x24\n        /* \"#utility.yul\":9148:9149   */\n      0x00\n        /* \"#utility.yul\":9141:9156   */\n      revert\n        /* \"#utility.yul\":9168:9285   */\n    tag_91:\n        /* \"#utility.yul\":9277:9278   */\n      0x00\n        /* \"#utility.yul\":9274:9275   */\n      dup1\n        /* \"#utility.yul\":9267:9279   */\n      revert\n        /* \"#utility.yul\":9291:9408   */\n    tag_84:\n        /* \"#utility.yul\":9400:9401   */\n      0x00\n        /* \"#utility.yul\":9397:9398   */\n      dup1\n        /* \"#utility.yul\":9390:9402   */\n      revert\n        /* \"#utility.yul\":9414:9531   */\n    tag_103:\n        /* \"#utility.yul\":9523:9524   */\n      0x00\n        /* \"#utility.yul\":9520:9521   */\n      dup1\n        /* \"#utility.yul\":9513:9525   */\n      revert\n        /* \"#utility.yul\":9537:9654   */\n    tag_100:\n        /* \"#utility.yul\":9646:9647   */\n      0x00\n        /* \"#utility.yul\":9643:9644   */\n      dup1\n        /* \"#utility.yul\":9636:9648   */\n      revert\n        /* \"#utility.yul\":9660:9762   */\n    tag_123:\n        /* \"#utility.yul\":9701:9707   */\n      0x00\n        /* \"#utility.yul\":9752:9754   */\n      0x1f\n        /* \"#utility.yul\":9748:9755   */\n      not\n        /* \"#utility.yul\":9743:9745   */\n      0x1f\n        /* \"#utility.yul\":9736:9741   */\n      dup4\n        /* \"#utility.yul\":9732:9746   */\n      add\n        /* \"#utility.yul\":9728:9756   */\n      and\n        /* \"#utility.yul\":9718:9756   */\n      swap1\n      pop\n        /* \"#utility.yul\":9660:9762   */\n      swap2\n      swap1\n      pop\n      jump\t// out\n        /* \"#utility.yul\":9768:9942   */\n    tag_128:\n        /* \"#utility.yul\":9908:9934   */\n      0x506c656173652070617920657861637420616d6f756e742e0000000000000000\n        /* \"#utility.yul\":9904:9905   */\n      0x00\n        /* \"#utility.yul\":9896:9902   */\n      dup3\n        /* \"#utility.yul\":9892:9906   */\n      add\n        /* \"#utility.yul\":9885:9935   */\n      mstore\n        /* \"#utility.yul\":9768:9942   */\n      pop\n      jump\t// out\n        /* \"#utility.yul\":9948:10178   */\n    tag_133:\n        /* \"#utility.yul\":10088:10122   */\n      0x4974656d20686173206265656e20616c7265616479207061696420666f72206f\n        /* \"#utility.yul\":10084:10085   */\n      0x00\n        /* \"#utility.yul\":10076:10082   */\n      dup3\n        /* \"#utility.yul\":10072:10086   */\n      add\n        /* \"#utility.yul\":10065:10123   */\n      mstore\n        /* \"#utility.yul\":10157:10170   */\n      0x722064656c697665726564000000000000000000000000000000000000000000\n        /* \"#utility.yul\":10152:10154   */\n      0x20\n        /* \"#utility.yul\":10144:10150   */\n      dup3\n        /* \"#utility.yul\":10140:10155   */\n      add\n        /* \"#utility.yul\":10133:10171   */\n      mstore\n        /* \"#utility.yul\":9948:10178   */\n      pop\n      jump\t// out\n        /* \"#utility.yul\":10184:10358   */\n    tag_138:\n        /* \"#utility.yul\":10324:10350   */\n      0x4974656d206177616974696e67207061796d656e742e2e2e0000000000000000\n        /* \"#utility.yul\":10320:10321   */\n      0x00\n        /* \"#utility.yul\":10312:10318   */\n      dup3\n        /* \"#utility.yul\":10308:10322   */\n      add\n        /* \"#utility.yul\":10301:10351   */\n      mstore\n        /* \"#utility.yul\":10184:10358   */\n      pop\n      jump\t// out\n        /* \"#utility.yul\":10364:10485   */\n    tag_172:\n        /* \"#utility.yul\":10453:10454   */\n      0x03\n        /* \"#utility.yul\":10446:10451   */\n      dup2\n        /* \"#utility.yul\":10443:10455   */\n      lt\n        /* \"#utility.yul\":10433:10479   */\n      tag_209\n      jumpi\n        /* \"#utility.yul\":10459:10477   */\n      tag_210\n      tag_31\n      jump\t// in\n    tag_210:\n        /* \"#utility.yul\":10433:10479   */\n    tag_209:\n        /* \"#utility.yul\":10364:10485   */\n      pop\n      jump\t// out\n        /* \"#utility.yul\":10491:10613   */\n    tag_96:\n        /* \"#utility.yul\":10564:10588   */\n      tag_212\n        /* \"#utility.yul\":10582:10587   */\n      dup2\n        /* \"#utility.yul\":10564:10588   */\n      tag_142\n      jump\t// in\n    tag_212:\n        /* \"#utility.yul\":10557:10562   */\n      dup2\n        /* \"#utility.yul\":10554:10589   */\n      eq\n        /* \"#utility.yul\":10544:10607   */\n      tag_213\n      jumpi\n        /* \"#utility.yul\":10603:10604   */\n      0x00\n        /* \"#utility.yul\":10600:10601   */\n      dup1\n        /* \"#utility.yul\":10593:10605   */\n      revert\n        /* \"#utility.yul\":10544:10607   */\n    tag_213:\n        /* \"#utility.yul\":10491:10613   */\n      pop\n      jump\t// out\n\n    auxdata: 0xa2646970667358221220f04d250c248d0de5211c1a77af2763970f3e648a651017b1b5f47dbc6d12330064736f6c63430008070033\n}\n",
				"bytecode": {
					"linkReferences": {},
					"object": "608060405234801561001057600080fd5b50610ba9806100206000396000f3fe60806040526004361061003f5760003560e01c8063800fb83f146100445780638c55174214610060578063bfb231d214610089578063cd31831e146100c8575b600080fd5b61005e60048036038101906100599190610683565b6100f1565b005b34801561006c57600080fd5b5061008760048036038101906100829190610627565b610277565b005b34801561009557600080fd5b506100b060048036038101906100ab9190610683565b61031b565b6040516100bf93929190610770565b60405180910390f35b3480156100d457600080fd5b506100ef60048036038101906100ea9190610683565b6103da565b005b346000806001548152602001908152602001600020600101541461014a576040517f08c379a0000000000000000000000000000000000000000000000000000000008152600401610141906107ae565b60405180910390fd5b6000600281111561015e5761015d6109f5565b5b600080600154815260200190815260200160002060020160009054906101000a900460ff166002811115610195576101946109f5565b5b146101d5576040517f08c379a00000000000000000000000000000000000000000000000000000000081526004016101cc906107ce565b60405180910390fd5b6001600080600154815260200190815260200160002060020160006101000a81548160ff021916908360028111156102105761020f6109f5565b5b02179055507fc36f1fecada94b82f557d4e62be040548e283d26f16a9d6d69d8a8bb051a6246600154600080600154815260200190815260200160002060020160009054906101000a900460ff1660405161026c92919061080e565b60405180910390a150565b81600080600154815260200190815260200160002060000190805190602001906102a29291906104ff565b50806000806001548152602001908152602001600020600101819055506000806000600154815260200190815260200160002060020160006101000a81548160ff021916908360028111156102fa576102f96109f5565b5b0217905550600160008154809291906103129061097d565b91905055505050565b600060205280600052604060002060009150905080600001805461033e9061091a565b80601f016020809104026020016040519081016040528092919081815260200182805461036a9061091a565b80156103b75780601f1061038c576101008083540402835291602001916103b7565b820191906000526020600020905b81548152906001019060200180831161039a57829003601f168201915b5050505050908060010154908060020160009054906101000a900460ff16905083565b600160028111156103ee576103ed6109f5565b5b60008083815260200190815260200160002060020160009054906101000a900460ff166002811115610423576104226109f5565b5b14610463576040517f08c379a000000000000000000000000000000000000000000000000000000000815260040161045a906107ee565b60405180910390fd5b600260008083815260200190815260200160002060020160006101000a81548160ff0219169083600281111561049c5761049b6109f5565b5b02179055507fc36f1fecada94b82f557d4e62be040548e283d26f16a9d6d69d8a8bb051a62468160008084815260200190815260200160002060020160009054906101000a900460ff166040516104f492919061080e565b60405180910390a150565b82805461050b9061091a565b90600052602060002090601f01602090048101928261052d5760008555610574565b82601f1061054657805160ff1916838001178555610574565b82800160010185558215610574579182015b82811115610573578251825591602001919060010190610558565b5b5090506105819190610585565b5090565b5b8082111561059e576000816000905550600101610586565b5090565b60006105b56105b08461085c565b610837565b9050828152602081018484840111156105d1576105d0610a87565b5b6105dc8482856108d8565b509392505050565b600082601f8301126105f9576105f8610a82565b5b81356106098482602086016105a2565b91505092915050565b60008135905061062181610b5c565b92915050565b6000806040838503121561063e5761063d610a91565b5b600083013567ffffffffffffffff81111561065c5761065b610a8c565b5b610668858286016105e4565b925050602061067985828601610612565b9150509250929050565b60006020828403121561069957610698610a91565b5b60006106a784828501610612565b91505092915050565b6106b9816108c6565b82525050565b60006106ca8261088d565b6106d48185610898565b93506106e48185602086016108e7565b6106ed81610a96565b840191505092915050565b6000610705601883610898565b915061071082610aa7565b602082019050919050565b6000610728602b83610898565b915061073382610ad0565b604082019050919050565b600061074b601883610898565b915061075682610b1f565b602082019050919050565b61076a816108bc565b82525050565b6000606082019050818103600083015261078a81866106bf565b90506107996020830185610761565b6107a660408301846106b0565b949350505050565b600060208201905081810360008301526107c7816106f8565b9050919050565b600060208201905081810360008301526107e78161071b565b9050919050565b600060208201905081810360008301526108078161073e565b9050919050565b60006040820190506108236000830185610761565b61083060208301846106b0565b9392505050565b6000610841610852565b905061084d828261094c565b919050565b6000604051905090565b600067ffffffffffffffff82111561087757610876610a53565b5b61088082610a96565b9050602081019050919050565b600081519050919050565b600082825260208201905092915050565b60008190506108b782610b48565b919050565b6000819050919050565b60006108d1826108a9565b9050919050565b82818337600083830152505050565b60005b838110156109055780820151818401526020810190506108ea565b83811115610914576000848401525b50505050565b6000600282049050600182168061093257607f821691505b6020821081141561094657610945610a24565b5b50919050565b61095582610a96565b810181811067ffffffffffffffff8211171561097457610973610a53565b5b80604052505050565b6000610988826108bc565b91507fffffffffffffffffffffffffffffffffffffffffffffffffffffffffffffffff8214156109bb576109ba6109c6565b5b600182019050919050565b7f4e487b7100000000000000000000000000000000000000000000000000000000600052601160045260246000fd5b7f4e487b7100000000000000000000000000000000000000000000000000000000600052602160045260246000fd5b7f4e487b7100000000000000000000000000000000000000000000000000000000600052602260045260246000fd5b7f4e487b7100000000000000000000000000000000000000000000000000000000600052604160045260246000fd5b600080fd5b600080fd5b600080fd5b600080fd5b6000601f19601f8301169050919050565b7f506c656173652070617920657861637420616d6f756e742e0000000000000000600082015250565b7f4974656d20686173206265656e20616c7265616479207061696420666f72206f60008201527f722064656c697665726564000000000000000000000000000000000000000000602082015250565b7f4974656d206177616974696e67207061796d656e742e2e2e0000000000000000600082015250565b60038110610b5957610b586109f5565b5b50565b610b65816108bc565b8114610b7057600080fd5b5056fea2646970667358221220f04d250c248d0de5211c1a77af2763970f3e648a651017b1b5f47dbc6d12330064736f6c63430008070033",
					"opcodes": "PUSH1 0x80 PUSH1 0x40 MSTORE CALLVALUE DUP1 ISZERO PUSH2 0x10 JUMPI PUSH1 0x0 DUP1 REVERT JUMPDEST POP PUSH2 0xBA9 DUP1 PUSH2 0x20 PUSH1 0x0 CODECOPY PUSH1 0x0 RETURN INVALID PUSH1 0x80 PUSH1 0x40 MSTORE PUSH1 0x4 CALLDATASIZE LT PUSH2 0x3F JUMPI PUSH1 0x0 CALLDATALOAD PUSH1 0xE0 SHR DUP1 PUSH4 0x800FB83F EQ PUSH2 0x44 JUMPI DUP1 PUSH4 0x8C551742 EQ PUSH2 0x60 JUMPI DUP1 PUSH4 0xBFB231D2 EQ PUSH2 0x89 JUMPI DUP1 PUSH4 0xCD31831E EQ PUSH2 0xC8 JUMPI JUMPDEST PUSH1 0x0 DUP1 REVERT JUMPDEST PUSH2 0x5E PUSH1 0x4 DUP1 CALLDATASIZE SUB DUP2 ADD SWAP1 PUSH2 0x59 SWAP2 SWAP1 PUSH2 0x683 JUMP JUMPDEST PUSH2 0xF1 JUMP JUMPDEST STOP JUMPDEST CALLVALUE DUP1 ISZERO PUSH2 0x6C JUMPI PUSH1 0x0 DUP1 REVERT JUMPDEST POP PUSH2 0x87 PUSH1 0x4 DUP1 CALLDATASIZE SUB DUP2 ADD SWAP1 PUSH2 0x82 SWAP2 SWAP1 PUSH2 0x627 JUMP JUMPDEST PUSH2 0x277 JUMP JUMPDEST STOP JUMPDEST CALLVALUE DUP1 ISZERO PUSH2 0x95 JUMPI PUSH1 0x0 DUP1 REVERT JUMPDEST POP PUSH2 0xB0 PUSH1 0x4 DUP1 CALLDATASIZE SUB DUP2 ADD SWAP1 PUSH2 0xAB SWAP2 SWAP1 PUSH2 0x683 JUMP JUMPDEST PUSH2 0x31B JUMP JUMPDEST PUSH1 0x40 MLOAD PUSH2 0xBF SWAP4 SWAP3 SWAP2 SWAP1 PUSH2 0x770 JUMP JUMPDEST PUSH1 0x40 MLOAD DUP1 SWAP2 SUB SWAP1 RETURN JUMPDEST CALLVALUE DUP1 ISZERO PUSH2 0xD4 JUMPI PUSH1 0x0 DUP1 REVERT JUMPDEST POP PUSH2 0xEF PUSH1 0x4 DUP1 CALLDATASIZE SUB DUP2 ADD SWAP1 PUSH2 0xEA SWAP2 SWAP1 PUSH2 0x683 JUMP JUMPDEST PUSH2 0x3DA JUMP JUMPDEST STOP JUMPDEST CALLVALUE PUSH1 0x0 DUP1 PUSH1 0x1 SLOAD DUP2 MSTORE PUSH1 0x20 ADD SWAP1 DUP2 MSTORE PUSH1 0x20 ADD PUSH1 0x0 KECCAK256 PUSH1 0x1 ADD SLOAD EQ PUSH2 0x14A JUMPI PUSH1 0x40 MLOAD PUSH32 0x8C379A000000000000000000000000000000000000000000000000000000000 DUP2 MSTORE PUSH1 0x4 ADD PUSH2 0x141 SWAP1 PUSH2 0x7AE JUMP JUMPDEST PUSH1 0x40 MLOAD DUP1 SWAP2 SUB SWAP1 REVERT JUMPDEST PUSH1 0x0 PUSH1 0x2 DUP2 GT ISZERO PUSH2 0x15E JUMPI PUSH2 0x15D PUSH2 0x9F5 JUMP JUMPDEST JUMPDEST PUSH1 0x0 DUP1 PUSH1 0x1 SLOAD DUP2 MSTORE PUSH1 0x20 ADD SWAP1 DUP2 MSTORE PUSH1 0x20 ADD PUSH1 0x0 KECCAK256 PUSH1 0x2 ADD PUSH1 0x0 SWAP1 SLOAD SWAP1 PUSH2 0x100 EXP SWAP1 DIV PUSH1 0xFF AND PUSH1 0x2 DUP2 GT ISZERO PUSH2 0x195 JUMPI PUSH2 0x194 PUSH2 0x9F5 JUMP JUMPDEST JUMPDEST EQ PUSH2 0x1D5 JUMPI PUSH1 0x40 MLOAD PUSH32 0x8C379A000000000000000000000000000000000000000000000000000000000 DUP2 MSTORE PUSH1 0x4 ADD PUSH2 0x1CC SWAP1 PUSH2 0x7CE JUMP JUMPDEST PUSH1 0x40 MLOAD DUP1 SWAP2 SUB SWAP1 REVERT JUMPDEST PUSH1 0x1 PUSH1 0x0 DUP1 PUSH1 0x1 SLOAD DUP2 MSTORE PUSH1 0x20 ADD SWAP1 DUP2 MSTORE PUSH1 0x20 ADD PUSH1 0x0 KECCAK256 PUSH1 0x2 ADD PUSH1 0x0 PUSH2 0x100 EXP DUP2 SLOAD DUP2 PUSH1 0xFF MUL NOT AND SWAP1 DUP4 PUSH1 0x2 DUP2 GT ISZERO PUSH2 0x210 JUMPI PUSH2 0x20F PUSH2 0x9F5 JUMP JUMPDEST JUMPDEST MUL OR SWAP1 SSTORE POP PUSH32 0xC36F1FECADA94B82F557D4E62BE040548E283D26F16A9D6D69D8A8BB051A6246 PUSH1 0x1 SLOAD PUSH1 0x0 DUP1 PUSH1 0x1 SLOAD DUP2 MSTORE PUSH1 0x20 ADD SWAP1 DUP2 MSTORE PUSH1 0x20 ADD PUSH1 0x0 KECCAK256 PUSH1 0x2 ADD PUSH1 0x0 SWAP1 SLOAD SWAP1 PUSH2 0x100 EXP SWAP1 DIV PUSH1 0xFF AND PUSH1 0x40 MLOAD PUSH2 0x26C SWAP3 SWAP2 SWAP1 PUSH2 0x80E JUMP JUMPDEST PUSH1 0x40 MLOAD DUP1 SWAP2 SUB SWAP1 LOG1 POP JUMP JUMPDEST DUP2 PUSH1 0x0 DUP1 PUSH1 0x1 SLOAD DUP2 MSTORE PUSH1 0x20 ADD SWAP1 DUP2 MSTORE PUSH1 0x20 ADD PUSH1 0x0 KECCAK256 PUSH1 0x0 ADD SWAP1 DUP1 MLOAD SWAP1 PUSH1 0x20 ADD SWAP1 PUSH2 0x2A2 SWAP3 SWAP2 SWAP1 PUSH2 0x4FF JUMP JUMPDEST POP DUP1 PUSH1 0x0 DUP1 PUSH1 0x1 SLOAD DUP2 MSTORE PUSH1 0x20 ADD SWAP1 DUP2 MSTORE PUSH1 0x20 ADD PUSH1 0x0 KECCAK256 PUSH1 0x1 ADD DUP2 SWAP1 SSTORE POP PUSH1 0x0 DUP1 PUSH1 0x0 PUSH1 0x1 SLOAD DUP2 MSTORE PUSH1 0x20 ADD SWAP1 DUP2 MSTORE PUSH1 0x20 ADD PUSH1 0x0 KECCAK256 PUSH1 0x2 ADD PUSH1 0x0 PUSH2 0x100 EXP DUP2 SLOAD DUP2 PUSH1 0xFF MUL NOT AND SWAP1 DUP4 PUSH1 0x2 DUP2 GT ISZERO PUSH2 0x2FA JUMPI PUSH2 0x2F9 PUSH2 0x9F5 JUMP JUMPDEST JUMPDEST MUL OR SWAP1 SSTORE POP PUSH1 0x1 PUSH1 0x0 DUP2 SLOAD DUP1 SWAP3 SWAP2 SWAP1 PUSH2 0x312 SWAP1 PUSH2 0x97D JUMP JUMPDEST SWAP2 SWAP1 POP SSTORE POP POP POP JUMP JUMPDEST PUSH1 0x0 PUSH1 0x20 MSTORE DUP1 PUSH1 0x0 MSTORE PUSH1 0x40 PUSH1 0x0 KECCAK256 PUSH1 0x0 SWAP2 POP SWAP1 POP DUP1 PUSH1 0x0 ADD DUP1 SLOAD PUSH2 0x33E SWAP1 PUSH2 0x91A JUMP JUMPDEST DUP1 PUSH1 0x1F ADD PUSH1 0x20 DUP1 SWAP2 DIV MUL PUSH1 0x20 ADD PUSH1 0x40 MLOAD SWAP1 DUP2 ADD PUSH1 0x40 MSTORE DUP1 SWAP3 SWAP2 SWAP1 DUP2 DUP2 MSTORE PUSH1 0x20 ADD DUP3 DUP1 SLOAD PUSH2 0x36A SWAP1 PUSH2 0x91A JUMP JUMPDEST DUP1 ISZERO PUSH2 0x3B7 JUMPI DUP1 PUSH1 0x1F LT PUSH2 0x38C JUMPI PUSH2 0x100 DUP1 DUP4 SLOAD DIV MUL DUP4 MSTORE SWAP2 PUSH1 0x20 ADD SWAP2 PUSH2 0x3B7 JUMP JUMPDEST DUP3 ADD SWAP2 SWAP1 PUSH1 0x0 MSTORE PUSH1 0x20 PUSH1 0x0 KECCAK256 SWAP1 JUMPDEST DUP2 SLOAD DUP2 MSTORE SWAP1 PUSH1 0x1 ADD SWAP1 PUSH1 0x20 ADD DUP1 DUP4 GT PUSH2 0x39A JUMPI DUP3 SWAP1 SUB PUSH1 0x1F AND DUP3 ADD SWAP2 JUMPDEST POP POP POP POP POP SWAP1 DUP1 PUSH1 0x1 ADD SLOAD SWAP1 DUP1 PUSH1 0x2 ADD PUSH1 0x0 SWAP1 SLOAD SWAP1 PUSH2 0x100 EXP SWAP1 DIV PUSH1 0xFF AND SWAP1 POP DUP4 JUMP JUMPDEST PUSH1 0x1 PUSH1 0x2 DUP2 GT ISZERO PUSH2 0x3EE JUMPI PUSH2 0x3ED PUSH2 0x9F5 JUMP JUMPDEST JUMPDEST PUSH1 0x0 DUP1 DUP4 DUP2 MSTORE PUSH1 0x20 ADD SWAP1 DUP2 MSTORE PUSH1 0x20 ADD PUSH1 0x0 KECCAK256 PUSH1 0x2 ADD PUSH1 0x0 SWAP1 SLOAD SWAP1 PUSH2 0x100 EXP SWAP1 DIV PUSH1 0xFF AND PUSH1 0x2 DUP2 GT ISZERO PUSH2 0x423 JUMPI PUSH2 0x422 PUSH2 0x9F5 JUMP JUMPDEST JUMPDEST EQ PUSH2 0x463 JUMPI PUSH1 0x40 MLOAD PUSH32 0x8C379A000000000000000000000000000000000000000000000000000000000 DUP2 MSTORE PUSH1 0x4 ADD PUSH2 0x45A SWAP1 PUSH2 0x7EE JUMP JUMPDEST PUSH1 0x40 MLOAD DUP1 SWAP2 SUB SWAP1 REVERT JUMPDEST PUSH1 0x2 PUSH1 0x0 DUP1 DUP4 DUP2 MSTORE PUSH1 0x20 ADD SWAP1 DUP2 MSTORE PUSH1 0x20 ADD PUSH1 0x0 KECCAK256 PUSH1 0x2 ADD PUSH1 0x0 PUSH2 0x100 EXP DUP2 SLOAD DUP2 PUSH1 0xFF MUL NOT AND SWAP1 DUP4 PUSH1 0x2 DUP2 GT ISZERO PUSH2 0x49C JUMPI PUSH2 0x49B PUSH2 0x9F5 JUMP JUMPDEST JUMPDEST MUL OR SWAP1 SSTORE POP PUSH32 0xC36F1FECADA94B82F557D4E62BE040548E283D26F16A9D6D69D8A8BB051A6246 DUP2 PUSH1 0x0 DUP1 DUP5 DUP2 MSTORE PUSH1 0x20 ADD SWAP1 DUP2 MSTORE PUSH1 0x20 ADD PUSH1 0x0 KECCAK256 PUSH1 0x2 ADD PUSH1 0x0 SWAP1 SLOAD SWAP1 PUSH2 0x100 EXP SWAP1 DIV PUSH1 0xFF AND PUSH1 0x40 MLOAD PUSH2 0x4F4 SWAP3 SWAP2 SWAP1 PUSH2 0x80E JUMP JUMPDEST PUSH1 0x40 MLOAD DUP1 SWAP2 SUB SWAP1 LOG1 POP JUMP JUMPDEST DUP3 DUP1 SLOAD PUSH2 0x50B SWAP1 PUSH2 0x91A JUMP JUMPDEST SWAP1 PUSH1 0x0 MSTORE PUSH1 0x20 PUSH1 0x0 KECCAK256 SWAP1 PUSH1 0x1F ADD PUSH1 0x20 SWAP1 DIV DUP2 ADD SWAP3 DUP3 PUSH2 0x52D JUMPI PUSH1 0x0 DUP6 SSTORE PUSH2 0x574 JUMP JUMPDEST DUP3 PUSH1 0x1F LT PUSH2 0x546 JUMPI DUP1 MLOAD PUSH1 0xFF NOT AND DUP4 DUP1 ADD OR DUP6 SSTORE PUSH2 0x574 JUMP JUMPDEST DUP3 DUP1 ADD PUSH1 0x1 ADD DUP6 SSTORE DUP3 ISZERO PUSH2 0x574 JUMPI SWAP2 DUP3 ADD JUMPDEST DUP3 DUP2 GT ISZERO PUSH2 0x573 JUMPI DUP3 MLOAD DUP3 SSTORE SWAP2 PUSH1 0x20 ADD SWAP2 SWAP1 PUSH1 0x1 ADD SWAP1 PUSH2 0x558 JUMP JUMPDEST JUMPDEST POP SWAP1 POP PUSH2 0x581 SWAP2 SWAP1 PUSH2 0x585 JUMP JUMPDEST POP SWAP1 JUMP JUMPDEST JUMPDEST DUP1 DUP3 GT ISZERO PUSH2 0x59E JUMPI PUSH1 0x0 DUP2 PUSH1 0x0 SWAP1 SSTORE POP PUSH1 0x1 ADD PUSH2 0x586 JUMP JUMPDEST POP SWAP1 JUMP JUMPDEST PUSH1 0x0 PUSH2 0x5B5 PUSH2 0x5B0 DUP5 PUSH2 0x85C JUMP JUMPDEST PUSH2 0x837 JUMP JUMPDEST SWAP1 POP DUP3 DUP2 MSTORE PUSH1 0x20 DUP2 ADD DUP5 DUP5 DUP5 ADD GT ISZERO PUSH2 0x5D1 JUMPI PUSH2 0x5D0 PUSH2 0xA87 JUMP JUMPDEST JUMPDEST PUSH2 0x5DC DUP5 DUP3 DUP6 PUSH2 0x8D8 JUMP JUMPDEST POP SWAP4 SWAP3 POP POP POP JUMP JUMPDEST PUSH1 0x0 DUP3 PUSH1 0x1F DUP4 ADD SLT PUSH2 0x5F9 JUMPI PUSH2 0x5F8 PUSH2 0xA82 JUMP JUMPDEST JUMPDEST DUP2 CALLDATALOAD PUSH2 0x609 DUP5 DUP3 PUSH1 0x20 DUP7 ADD PUSH2 0x5A2 JUMP JUMPDEST SWAP2 POP POP SWAP3 SWAP2 POP POP JUMP JUMPDEST PUSH1 0x0 DUP2 CALLDATALOAD SWAP1 POP PUSH2 0x621 DUP2 PUSH2 0xB5C JUMP JUMPDEST SWAP3 SWAP2 POP POP JUMP JUMPDEST PUSH1 0x0 DUP1 PUSH1 0x40 DUP4 DUP6 SUB SLT ISZERO PUSH2 0x63E JUMPI PUSH2 0x63D PUSH2 0xA91 JUMP JUMPDEST JUMPDEST PUSH1 0x0 DUP4 ADD CALLDATALOAD PUSH8 0xFFFFFFFFFFFFFFFF DUP2 GT ISZERO PUSH2 0x65C JUMPI PUSH2 0x65B PUSH2 0xA8C JUMP JUMPDEST JUMPDEST PUSH2 0x668 DUP6 DUP3 DUP7 ADD PUSH2 0x5E4 JUMP JUMPDEST SWAP3 POP POP PUSH1 0x20 PUSH2 0x679 DUP6 DUP3 DUP7 ADD PUSH2 0x612 JUMP JUMPDEST SWAP2 POP POP SWAP3 POP SWAP3 SWAP1 POP JUMP JUMPDEST PUSH1 0x0 PUSH1 0x20 DUP3 DUP5 SUB SLT ISZERO PUSH2 0x699 JUMPI PUSH2 0x698 PUSH2 0xA91 JUMP JUMPDEST JUMPDEST PUSH1 0x0 PUSH2 0x6A7 DUP5 DUP3 DUP6 ADD PUSH2 0x612 JUMP JUMPDEST SWAP2 POP POP SWAP3 SWAP2 POP POP JUMP JUMPDEST PUSH2 0x6B9 DUP2 PUSH2 0x8C6 JUMP JUMPDEST DUP3 MSTORE POP POP JUMP JUMPDEST PUSH1 0x0 PUSH2 0x6CA DUP3 PUSH2 0x88D JUMP JUMPDEST PUSH2 0x6D4 DUP2 DUP6 PUSH2 0x898 JUMP JUMPDEST SWAP4 POP PUSH2 0x6E4 DUP2 DUP6 PUSH1 0x20 DUP7 ADD PUSH2 0x8E7 JUMP JUMPDEST PUSH2 0x6ED DUP2 PUSH2 0xA96 JUMP JUMPDEST DUP5 ADD SWAP2 POP POP SWAP3 SWAP2 POP POP JUMP JUMPDEST PUSH1 0x0 PUSH2 0x705 PUSH1 0x18 DUP4 PUSH2 0x898 JUMP JUMPDEST SWAP2 POP PUSH2 0x710 DUP3 PUSH2 0xAA7 JUMP JUMPDEST PUSH1 0x20 DUP3 ADD SWAP1 POP SWAP2 SWAP1 POP JUMP JUMPDEST PUSH1 0x0 PUSH2 0x728 PUSH1 0x2B DUP4 PUSH2 0x898 JUMP JUMPDEST SWAP2 POP PUSH2 0x733 DUP3 PUSH2 0xAD0 JUMP JUMPDEST PUSH1 0x40 DUP3 ADD SWAP1 POP SWAP2 SWAP1 POP JUMP JUMPDEST PUSH1 0x0 PUSH2 0x74B PUSH1 0x18 DUP4 PUSH2 0x898 JUMP JUMPDEST SWAP2 POP PUSH2 0x756 DUP3 PUSH2 0xB1F JUMP JUMPDEST PUSH1 0x20 DUP3 ADD SWAP1 POP SWAP2 SWAP1 POP JUMP JUMPDEST PUSH2 0x76A DUP2 PUSH2 0x8BC JUMP JUMPDEST DUP3 MSTORE POP POP JUMP JUMPDEST PUSH1 0x0 PUSH1 0x60 DUP3 ADD SWAP1 POP DUP2 DUP2 SUB PUSH1 0x0 DUP4 ADD MSTORE PUSH2 0x78A DUP2 DUP7 PUSH2 0x6BF JUMP JUMPDEST SWAP1 POP PUSH2 0x799 PUSH1 0x20 DUP4 ADD DUP6 PUSH2 0x761 JUMP JUMPDEST PUSH2 0x7A6 PUSH1 0x40 DUP4 ADD DUP5 PUSH2 0x6B0 JUMP JUMPDEST SWAP5 SWAP4 POP POP POP POP JUMP JUMPDEST PUSH1 0x0 PUSH1 0x20 DUP3 ADD SWAP1 POP DUP2 DUP2 SUB PUSH1 0x0 DUP4 ADD MSTORE PUSH2 0x7C7 DUP2 PUSH2 0x6F8 JUMP JUMPDEST SWAP1 POP SWAP2 SWAP1 POP JUMP JUMPDEST PUSH1 0x0 PUSH1 0x20 DUP3 ADD SWAP1 POP DUP2 DUP2 SUB PUSH1 0x0 DUP4 ADD MSTORE PUSH2 0x7E7 DUP2 PUSH2 0x71B JUMP JUMPDEST SWAP1 POP SWAP2 SWAP1 POP JUMP JUMPDEST PUSH1 0x0 PUSH1 0x20 DUP3 ADD SWAP1 POP DUP2 DUP2 SUB PUSH1 0x0 DUP4 ADD MSTORE PUSH2 0x807 DUP2 PUSH2 0x73E JUMP JUMPDEST SWAP1 POP SWAP2 SWAP1 POP JUMP JUMPDEST PUSH1 0x0 PUSH1 0x40 DUP3 ADD SWAP1 POP PUSH2 0x823 PUSH1 0x0 DUP4 ADD DUP6 PUSH2 0x761 JUMP JUMPDEST PUSH2 0x830 PUSH1 0x20 DUP4 ADD DUP5 PUSH2 0x6B0 JUMP JUMPDEST SWAP4 SWAP3 POP POP POP JUMP JUMPDEST PUSH1 0x0 PUSH2 0x841 PUSH2 0x852 JUMP JUMPDEST SWAP1 POP PUSH2 0x84D DUP3 DUP3 PUSH2 0x94C JUMP JUMPDEST SWAP2 SWAP1 POP JUMP JUMPDEST PUSH1 0x0 PUSH1 0x40 MLOAD SWAP1 POP SWAP1 JUMP JUMPDEST PUSH1 0x0 PUSH8 0xFFFFFFFFFFFFFFFF DUP3 GT ISZERO PUSH2 0x877 JUMPI PUSH2 0x876 PUSH2 0xA53 JUMP JUMPDEST JUMPDEST PUSH2 0x880 DUP3 PUSH2 0xA96 JUMP JUMPDEST SWAP1 POP PUSH1 0x20 DUP2 ADD SWAP1 POP SWAP2 SWAP1 POP JUMP JUMPDEST PUSH1 0x0 DUP2 MLOAD SWAP1 POP SWAP2 SWAP1 POP JUMP JUMPDEST PUSH1 0x0 DUP3 DUP3 MSTORE PUSH1 0x20 DUP3 ADD SWAP1 POP SWAP3 SWAP2 POP POP JUMP JUMPDEST PUSH1 0x0 DUP2 SWAP1 POP PUSH2 0x8B7 DUP3 PUSH2 0xB48 JUMP JUMPDEST SWAP2 SWAP1 POP JUMP JUMPDEST PUSH1 0x0 DUP2 SWAP1 POP SWAP2 SWAP1 POP JUMP JUMPDEST PUSH1 0x0 PUSH2 0x8D1 DUP3 PUSH2 0x8A9 JUMP JUMPDEST SWAP1 POP SWAP2 SWAP1 POP JUMP JUMPDEST DUP3 DUP2 DUP4 CALLDATACOPY PUSH1 0x0 DUP4 DUP4 ADD MSTORE POP POP POP JUMP JUMPDEST PUSH1 0x0 JUMPDEST DUP4 DUP2 LT ISZERO PUSH2 0x905 JUMPI DUP1 DUP3 ADD MLOAD DUP2 DUP5 ADD MSTORE PUSH1 0x20 DUP2 ADD SWAP1 POP PUSH2 0x8EA JUMP JUMPDEST DUP4 DUP2 GT ISZERO PUSH2 0x914 JUMPI PUSH1 0x0 DUP5 DUP5 ADD MSTORE JUMPDEST POP POP POP POP JUMP JUMPDEST PUSH1 0x0 PUSH1 0x2 DUP3 DIV SWAP1 POP PUSH1 0x1 DUP3 AND DUP1 PUSH2 0x932 JUMPI PUSH1 0x7F DUP3 AND SWAP2 POP JUMPDEST PUSH1 0x20 DUP3 LT DUP2 EQ ISZERO PUSH2 0x946 JUMPI PUSH2 0x945 PUSH2 0xA24 JUMP JUMPDEST JUMPDEST POP SWAP2 SWAP1 POP JUMP JUMPDEST PUSH2 0x955 DUP3 PUSH2 0xA96 JUMP JUMPDEST DUP2 ADD DUP2 DUP2 LT PUSH8 0xFFFFFFFFFFFFFFFF DUP3 GT OR ISZERO PUSH2 0x974 JUMPI PUSH2 0x973 PUSH2 0xA53 JUMP JUMPDEST JUMPDEST DUP1 PUSH1 0x40 MSTORE POP POP POP JUMP JUMPDEST PUSH1 0x0 PUSH2 0x988 DUP3 PUSH2 0x8BC JUMP JUMPDEST SWAP2 POP PUSH32 0xFFFFFFFFFFFFFFFFFFFFFFFFFFFFFFFFFFFFFFFFFFFFFFFFFFFFFFFFFFFFFFFF DUP3 EQ ISZERO PUSH2 0x9BB JUMPI PUSH2 0x9BA PUSH2 0x9C6 JUMP JUMPDEST JUMPDEST PUSH1 0x1 DUP3 ADD SWAP1 POP SWAP2 SWAP1 POP JUMP JUMPDEST PUSH32 0x4E487B7100000000000000000000000000000000000000000000000000000000 PUSH1 0x0 MSTORE PUSH1 0x11 PUSH1 0x4 MSTORE PUSH1 0x24 PUSH1 0x0 REVERT JUMPDEST PUSH32 0x4E487B7100000000000000000000000000000000000000000000000000000000 PUSH1 0x0 MSTORE PUSH1 0x21 PUSH1 0x4 MSTORE PUSH1 0x24 PUSH1 0x0 REVERT JUMPDEST PUSH32 0x4E487B7100000000000000000000000000000000000000000000000000000000 PUSH1 0x0 MSTORE PUSH1 0x22 PUSH1 0x4 MSTORE PUSH1 0x24 PUSH1 0x0 REVERT JUMPDEST PUSH32 0x4E487B7100000000000000000000000000000000000000000000000000000000 PUSH1 0x0 MSTORE PUSH1 0x41 PUSH1 0x4 MSTORE PUSH1 0x24 PUSH1 0x0 REVERT JUMPDEST PUSH1 0x0 DUP1 REVERT JUMPDEST PUSH1 0x0 DUP1 REVERT JUMPDEST PUSH1 0x0 DUP1 REVERT JUMPDEST PUSH1 0x0 DUP1 REVERT JUMPDEST PUSH1 0x0 PUSH1 0x1F NOT PUSH1 0x1F DUP4 ADD AND SWAP1 POP SWAP2 SWAP1 POP JUMP JUMPDEST PUSH32 0x506C656173652070617920657861637420616D6F756E742E0000000000000000 PUSH1 0x0 DUP3 ADD MSTORE POP JUMP JUMPDEST PUSH32 0x4974656D20686173206265656E20616C7265616479207061696420666F72206F PUSH1 0x0 DUP3 ADD MSTORE PUSH32 0x722064656C697665726564000000000000000000000000000000000000000000 PUSH1 0x20 DUP3 ADD MSTORE POP JUMP JUMPDEST PUSH32 0x4974656D206177616974696E67207061796D656E742E2E2E0000000000000000 PUSH1 0x0 DUP3 ADD MSTORE POP JUMP JUMPDEST PUSH1 0x3 DUP2 LT PUSH2 0xB59 JUMPI PUSH2 0xB58 PUSH2 0x9F5 JUMP JUMPDEST JUMPDEST POP JUMP JUMPDEST PUSH2 0xB65 DUP2 PUSH2 0x8BC JUMP JUMPDEST DUP2 EQ PUSH2 0xB70 JUMPI PUSH1 0x0 DUP1 REVERT JUMPDEST POP JUMP INVALID LOG2 PUSH5 0x6970667358 0x22 SLT KECCAK256 CREATE 0x4D 0x25 0xC 0x24 DUP14 0xD 0xE5 0x21 SHR BYTE PUSH24 0xAF2763970F3E648A651017B1B5F47DBC6D12330064736F6C PUSH4 0x43000807 STOP CALLER "
				},
				"gasEstimates": {
					"creation": {
						"codeDepositCost": "597000",
						"executionCost": "632",
						"totalCost": "597632"
					},
					"external": {
						"createItem(string,uint256)": "infinite",
						"items(uint256)": "infinite",
						"triggerDelivery(uint256)": "infinite",
						"triggerPayment(uint256)": "infinite"
					}
				},
				"methodIdentifiers": {
					"createItem(string,uint256)": "8c551742",
					"items(uint256)": "bfb231d2",
					"triggerDelivery(uint256)": "cd31831e",
					"triggerPayment(uint256)": "800fb83f"
				}
			},
			"userdoc": {
				"kind": "user",
				"methods": {},
				"version": 1
			}
		}
	}
}