{
	"contracts/itemmanager.sol": {
		"ItemManager": {
			"abi": [
				{
					"anonymous": false,
					"inputs": [
						{
							"indexed": false,
							"internalType": "uint256",
							"name": "_itemIndex",
							"type": "uint256"
						},
						{
							"indexed": false,
							"internalType": "enum ItemManager.AutoChainState",
							"name": "_state",
							"type": "uint8"
						},
						{
							"indexed": false,
							"internalType": "address",
							"name": "_itemAddress",
							"type": "address"
						}
					],
					"name": "AutoChainEvent",
					"type": "event"
				},
				{
					"inputs": [
						{
							"internalType": "string",
							"name": "_identifier",
							"type": "string"
						},
						{
							"internalType": "uint256",
							"name": "_itemPrice",
							"type": "uint256"
						}
					],
					"name": "createItem",
					"outputs": [],
					"stateMutability": "nonpayable",
					"type": "function"
				},
				{
					"inputs": [],
					"name": "getEnum",
					"outputs": [
						{
							"internalType": "enum ItemManager.AutoChainState",
							"name": "",
							"type": "uint8"
						}
					],
					"stateMutability": "view",
					"type": "function"
				},
				{
					"inputs": [
						{
							"internalType": "uint256",
							"name": "",
							"type": "uint256"
						}
					],
					"name": "items",
					"outputs": [
						{
							"internalType": "contract Item",
							"name": "_item",
							"type": "address"
						},
						{
							"internalType": "string",
							"name": "_identifier",
							"type": "string"
						},
						{
							"internalType": "uint256",
							"name": "_itemPrice",
							"type": "uint256"
						},
						{
							"internalType": "enum ItemManager.AutoChainState",
							"name": "_state",
							"type": "uint8"
						}
					],
					"stateMutability": "view",
					"type": "function"
				},
				{
					"inputs": [
						{
							"internalType": "uint256",
							"name": "_itemIndex",
							"type": "uint256"
						}
					],
					"name": "triggerDelivery",
					"outputs": [],
					"stateMutability": "nonpayable",
					"type": "function"
				},
				{
					"inputs": [
						{
							"internalType": "uint256",
							"name": "_itemIndex",
							"type": "uint256"
						}
					],
					"name": "triggerPayment",
					"outputs": [],
					"stateMutability": "payable",
					"type": "function"
				}
			],
			"devdoc": {
				"kind": "dev",
				"methods": {},
				"version": 1
			},
			"evm": {
				"assembly": "    /* \"contracts/itemmanager.sol\":84:1796  contract ItemManager {\r... */\n  mstore(0x40, 0x80)\n  callvalue\n  dup1\n  iszero\n  tag_1\n  jumpi\n  0x00\n  dup1\n  revert\ntag_1:\n  pop\n  dataSize(sub_0)\n  dup1\n  dataOffset(sub_0)\n  0x00\n  codecopy\n  0x00\n  return\nstop\n\nsub_0: assembly {\n        /* \"contracts/itemmanager.sol\":84:1796  contract ItemManager {\r... */\n      mstore(0x40, 0x80)\n      jumpi(tag_1, lt(calldatasize, 0x04))\n      shr(0xe0, calldataload(0x00))\n      dup1\n      0x800fb83f\n      eq\n      tag_2\n      jumpi\n      dup1\n      0x8c551742\n      eq\n      tag_3\n      jumpi\n      dup1\n      0xbfb231d2\n      eq\n      tag_4\n      jumpi\n      dup1\n      0xcd31831e\n      eq\n      tag_5\n      jumpi\n      dup1\n      0xf0ebce5a\n      eq\n      tag_6\n      jumpi\n    tag_1:\n      0x00\n      dup1\n      revert\n        /* \"contracts/itemmanager.sol\":1024:1467  function triggerPayment (uint _itemIndex) external payable{\r... */\n    tag_2:\n      tag_7\n      0x04\n      dup1\n      calldatasize\n      sub\n      dup2\n      add\n      swap1\n      tag_8\n      swap2\n      swap1\n      tag_9\n      jump\t// in\n    tag_8:\n      tag_10\n      jump\t// in\n    tag_7:\n      stop\n        /* \"contracts/itemmanager.sol\":568:1016  function createItem (string memory _identifier, uint _itemPrice) public {\r... */\n    tag_3:\n      callvalue\n      dup1\n      iszero\n      tag_11\n      jumpi\n      0x00\n      dup1\n      revert\n    tag_11:\n      pop\n      tag_12\n      0x04\n      dup1\n      calldatasize\n      sub\n      dup2\n      add\n      swap1\n      tag_13\n      swap2\n      swap1\n      tag_14\n      jump\t// in\n    tag_13:\n      tag_15\n      jump\t// in\n    tag_12:\n      stop\n        /* \"contracts/itemmanager.sol\":503:538  mapping (uint => item) public items */\n    tag_4:\n      callvalue\n      dup1\n      iszero\n      tag_16\n      jumpi\n      0x00\n      dup1\n      revert\n    tag_16:\n      pop\n      tag_17\n      0x04\n      dup1\n      calldatasize\n      sub\n      dup2\n      add\n      swap1\n      tag_18\n      swap2\n      swap1\n      tag_9\n      jump\t// in\n    tag_18:\n      tag_19\n      jump\t// in\n    tag_17:\n      mload(0x40)\n      tag_20\n      swap5\n      swap4\n      swap3\n      swap2\n      swap1\n      tag_21\n      jump\t// in\n    tag_20:\n      mload(0x40)\n      dup1\n      swap2\n      sub\n      swap1\n      return\n        /* \"contracts/itemmanager.sol\":1475:1793  function triggerDelivery (uint _itemIndex) public {\r... */\n    tag_5:\n      callvalue\n      dup1\n      iszero\n      tag_22\n      jumpi\n      0x00\n      dup1\n      revert\n    tag_22:\n      pop\n      tag_23\n      0x04\n      dup1\n      calldatasize\n      sub\n      dup2\n      add\n      swap1\n      tag_24\n      swap2\n      swap1\n      tag_9\n      jump\t// in\n    tag_24:\n      tag_25\n      jump\t// in\n    tag_23:\n      stop\n        /* \"contracts/itemmanager.sol\":168:255  function getEnum () public view returns (ItemManager.AutoChainState) {\r... */\n    tag_6:\n      callvalue\n      dup1\n      iszero\n      tag_26\n      jumpi\n      0x00\n      dup1\n      revert\n    tag_26:\n      pop\n      tag_27\n      tag_28\n      jump\t// in\n    tag_27:\n      mload(0x40)\n      tag_29\n      swap2\n      swap1\n      tag_30\n      jump\t// in\n    tag_29:\n      mload(0x40)\n      dup1\n      swap2\n      sub\n      swap1\n      return\n        /* \"contracts/itemmanager.sol\":1024:1467  function triggerPayment (uint _itemIndex) external payable{\r... */\n    tag_10:\n        /* \"contracts/itemmanager.sol\":1134:1143  msg.value */\n      callvalue\n        /* \"contracts/itemmanager.sol\":1102:1107  items */\n      0x00\n        /* \"contracts/itemmanager.sol\":1102:1119  items[_itemIndex] */\n      dup1\n        /* \"contracts/itemmanager.sol\":1108:1118  _itemIndex */\n      dup4\n        /* \"contracts/itemmanager.sol\":1102:1119  items[_itemIndex] */\n      dup2\n      mstore\n      0x20\n      add\n      swap1\n      dup2\n      mstore\n      0x20\n      add\n      0x00\n      keccak256\n        /* \"contracts/itemmanager.sol\":1102:1130  items[_itemIndex]._itemPrice */\n      0x02\n      add\n      sload\n        /* \"contracts/itemmanager.sol\":1102:1143  items[_itemIndex]._itemPrice == msg.value */\n      eq\n        /* \"contracts/itemmanager.sol\":1093:1172  require (items[_itemIndex]._itemPrice == msg.value, \"Please pay exact amount.\") */\n      tag_32\n      jumpi\n      mload(0x40)\n      0x08c379a000000000000000000000000000000000000000000000000000000000\n      dup2\n      mstore\n      0x04\n      add\n      tag_33\n      swap1\n      tag_34\n      jump\t// in\n    tag_33:\n      mload(0x40)\n      dup1\n      swap2\n      sub\n      swap1\n      revert\n    tag_32:\n        /* \"contracts/itemmanager.sol\":1220:1242  AutoChainState.Created */\n      0x00\n        /* \"contracts/itemmanager.sol\":1192:1242  items[_itemIndex]._state == AutoChainState.Created */\n      0x02\n      dup2\n      gt\n      iszero\n      tag_35\n      jumpi\n      tag_36\n      tag_37\n      jump\t// in\n    tag_36:\n    tag_35:\n        /* \"contracts/itemmanager.sol\":1192:1197  items */\n      0x00\n        /* \"contracts/itemmanager.sol\":1192:1209  items[_itemIndex] */\n      dup1\n        /* \"contracts/itemmanager.sol\":1198:1208  _itemIndex */\n      dup4\n        /* \"contracts/itemmanager.sol\":1192:1209  items[_itemIndex] */\n      dup2\n      mstore\n      0x20\n      add\n      swap1\n      dup2\n      mstore\n      0x20\n      add\n      0x00\n      keccak256\n        /* \"contracts/itemmanager.sol\":1192:1216  items[_itemIndex]._state */\n      0x03\n      add\n      0x00\n      swap1\n      sload\n      swap1\n      0x0100\n      exp\n      swap1\n      div\n      0xff\n      and\n        /* \"contracts/itemmanager.sol\":1192:1242  items[_itemIndex]._state == AutoChainState.Created */\n      0x02\n      dup2\n      gt\n      iszero\n      tag_38\n      jumpi\n      tag_39\n      tag_37\n      jump\t// in\n    tag_39:\n    tag_38:\n      eq\n        /* \"contracts/itemmanager.sol\":1183:1290  require (items[_itemIndex]._state == AutoChainState.Created, \"Item has been already paid for or delivered\") */\n      tag_40\n      jumpi\n      mload(0x40)\n      0x08c379a000000000000000000000000000000000000000000000000000000000\n      dup2\n      mstore\n      0x04\n      add\n      tag_41\n      swap1\n      tag_42\n      jump\t// in\n    tag_41:\n      mload(0x40)\n      dup1\n      swap2\n      sub\n      swap1\n      revert\n    tag_40:\n        /* \"contracts/itemmanager.sol\":1338:1357  AutoChainState.Paid */\n      0x01\n        /* \"contracts/itemmanager.sol\":1311:1316  items */\n      0x00\n        /* \"contracts/itemmanager.sol\":1311:1328  items[_itemIndex] */\n      dup1\n        /* \"contracts/itemmanager.sol\":1317:1327  _itemIndex */\n      dup4\n        /* \"contracts/itemmanager.sol\":1311:1328  items[_itemIndex] */\n      dup2\n      mstore\n      0x20\n      add\n      swap1\n      dup2\n      mstore\n      0x20\n      add\n      0x00\n      keccak256\n        /* \"contracts/itemmanager.sol\":1311:1335  items[_itemIndex]._state */\n      0x03\n      add\n      0x00\n        /* \"contracts/itemmanager.sol\":1311:1357  items[_itemIndex]._state = AutoChainState.Paid */\n      0x0100\n      exp\n      dup2\n      sload\n      dup2\n      0xff\n      mul\n      not\n      and\n      swap1\n      dup4\n      0x02\n      dup2\n      gt\n      iszero\n      tag_43\n      jumpi\n      tag_44\n      tag_37\n      jump\t// in\n    tag_44:\n    tag_43:\n      mul\n      or\n      swap1\n      sstore\n      pop\n        /* \"contracts/itemmanager.sol\":1373:1459  AutoChainEvent(_itemIndex, items[_itemIndex]._state, address(items[_itemIndex]._item)) */\n      0xf24ddcf634b84b7fbfb91b2713d1db50cdf1ac5bcd00d6351384ee26bc1a94bd\n        /* \"contracts/itemmanager.sol\":1388:1398  _itemIndex */\n      dup2\n        /* \"contracts/itemmanager.sol\":1400:1405  items */\n      0x00\n        /* \"contracts/itemmanager.sol\":1400:1417  items[_itemIndex] */\n      dup1\n        /* \"contracts/itemmanager.sol\":1406:1416  _itemIndex */\n      dup5\n        /* \"contracts/itemmanager.sol\":1400:1417  items[_itemIndex] */\n      dup2\n      mstore\n      0x20\n      add\n      swap1\n      dup2\n      mstore\n      0x20\n      add\n      0x00\n      keccak256\n        /* \"contracts/itemmanager.sol\":1400:1424  items[_itemIndex]._state */\n      0x03\n      add\n      0x00\n      swap1\n      sload\n      swap1\n      0x0100\n      exp\n      swap1\n      div\n      0xff\n      and\n        /* \"contracts/itemmanager.sol\":1434:1439  items */\n      0x00\n        /* \"contracts/itemmanager.sol\":1434:1451  items[_itemIndex] */\n      dup1\n        /* \"contracts/itemmanager.sol\":1440:1450  _itemIndex */\n      dup6\n        /* \"contracts/itemmanager.sol\":1434:1451  items[_itemIndex] */\n      dup2\n      mstore\n      0x20\n      add\n      swap1\n      dup2\n      mstore\n      0x20\n      add\n      0x00\n      keccak256\n        /* \"contracts/itemmanager.sol\":1434:1457  items[_itemIndex]._item */\n      0x00\n      add\n      0x00\n      swap1\n      sload\n      swap1\n      0x0100\n      exp\n      swap1\n      div\n      0xffffffffffffffffffffffffffffffffffffffff\n      and\n        /* \"contracts/itemmanager.sol\":1373:1459  AutoChainEvent(_itemIndex, items[_itemIndex]._state, address(items[_itemIndex]._item)) */\n      mload(0x40)\n      tag_45\n      swap4\n      swap3\n      swap2\n      swap1\n      tag_46\n      jump\t// in\n    tag_45:\n      mload(0x40)\n      dup1\n      swap2\n      sub\n      swap1\n      log1\n        /* \"contracts/itemmanager.sol\":1024:1467  function triggerPayment (uint _itemIndex) external payable{\r... */\n      pop\n      jump\t// out\n        /* \"contracts/itemmanager.sol\":568:1016  function createItem (string memory _identifier, uint _itemPrice) public {\r... */\n    tag_15:\n        /* \"contracts/itemmanager.sol\":687:697  _itemPrice */\n      dup1\n        /* \"contracts/itemmanager.sol\":699:708  itemIndex */\n      sload(0x01)\n        /* \"contracts/itemmanager.sol\":718:722  this */\n      address\n        /* \"contracts/itemmanager.sol\":678:724  new Item(_itemPrice, itemIndex, address(this)) */\n      mload(0x40)\n      tag_48\n      swap1\n      tag_49\n      jump\t// in\n    tag_48:\n      tag_50\n      swap4\n      swap3\n      swap2\n      swap1\n      tag_51\n      jump\t// in\n    tag_50:\n      mload(0x40)\n      dup1\n      swap2\n      sub\n      swap1\n      0x00\n      create\n      dup1\n      iszero\n      dup1\n      iszero\n      tag_52\n      jumpi\n      returndatasize\n      0x00\n      dup1\n      returndatacopy\n      revert(0x00, returndatasize)\n    tag_52:\n      pop\n        /* \"contracts/itemmanager.sol\":653:658  items */\n      0x00\n        /* \"contracts/itemmanager.sol\":653:669  items[itemIndex] */\n      dup1\n        /* \"contracts/itemmanager.sol\":659:668  itemIndex */\n      sload(0x01)\n        /* \"contracts/itemmanager.sol\":653:669  items[itemIndex] */\n      dup2\n      mstore\n      0x20\n      add\n      swap1\n      dup2\n      mstore\n      0x20\n      add\n      0x00\n      keccak256\n        /* \"contracts/itemmanager.sol\":653:675  items[itemIndex]._item */\n      0x00\n      add\n      0x00\n        /* \"contracts/itemmanager.sol\":653:724  items[itemIndex]._item = new Item(_itemPrice, itemIndex, address(this)) */\n      0x0100\n      exp\n      dup2\n      sload\n      dup2\n      0xffffffffffffffffffffffffffffffffffffffff\n      mul\n      not\n      and\n      swap1\n      dup4\n      0xffffffffffffffffffffffffffffffffffffffff\n      and\n      mul\n      or\n      swap1\n      sstore\n      pop\n        /* \"contracts/itemmanager.sol\":766:777  _identifier */\n      dup2\n        /* \"contracts/itemmanager.sol\":735:740  items */\n      0x00\n        /* \"contracts/itemmanager.sol\":735:751  items[itemIndex] */\n      dup1\n        /* \"contracts/itemmanager.sol\":741:750  itemIndex */\n      sload(0x01)\n        /* \"contracts/itemmanager.sol\":735:751  items[itemIndex] */\n      dup2\n      mstore\n      0x20\n      add\n      swap1\n      dup2\n      mstore\n      0x20\n      add\n      0x00\n      keccak256\n        /* \"contracts/itemmanager.sol\":735:763  items[itemIndex]._identifier */\n      0x01\n      add\n        /* \"contracts/itemmanager.sol\":735:777  items[itemIndex]._identifier = _identifier */\n      swap1\n      dup1\n      mload\n      swap1\n      0x20\n      add\n      swap1\n      tag_53\n      swap3\n      swap2\n      swap1\n      tag_54\n      jump\t// in\n    tag_53:\n      pop\n        /* \"contracts/itemmanager.sol\":818:828  _itemPrice */\n      dup1\n        /* \"contracts/itemmanager.sol\":788:793  items */\n      0x00\n        /* \"contracts/itemmanager.sol\":788:804  items[itemIndex] */\n      dup1\n        /* \"contracts/itemmanager.sol\":794:803  itemIndex */\n      sload(0x01)\n        /* \"contracts/itemmanager.sol\":788:804  items[itemIndex] */\n      dup2\n      mstore\n      0x20\n      add\n      swap1\n      dup2\n      mstore\n      0x20\n      add\n      0x00\n      keccak256\n        /* \"contracts/itemmanager.sol\":788:815  items[itemIndex]._itemPrice */\n      0x02\n      add\n        /* \"contracts/itemmanager.sol\":788:828  items[itemIndex]._itemPrice = _itemPrice */\n      dup2\n      swap1\n      sstore\n      pop\n        /* \"contracts/itemmanager.sol\":865:887  AutoChainState.Created */\n      0x00\n        /* \"contracts/itemmanager.sol\":839:844  items */\n      dup1\n        /* \"contracts/itemmanager.sol\":839:855  items[itemIndex] */\n      0x00\n        /* \"contracts/itemmanager.sol\":845:854  itemIndex */\n      sload(0x01)\n        /* \"contracts/itemmanager.sol\":839:855  items[itemIndex] */\n      dup2\n      mstore\n      0x20\n      add\n      swap1\n      dup2\n      mstore\n      0x20\n      add\n      0x00\n      keccak256\n        /* \"contracts/itemmanager.sol\":839:862  items[itemIndex]._state */\n      0x03\n      add\n      0x00\n        /* \"contracts/itemmanager.sol\":839:887  items[itemIndex]._state = AutoChainState.Created */\n      0x0100\n      exp\n      dup2\n      sload\n      dup2\n      0xff\n      mul\n      not\n      and\n      swap1\n      dup4\n      0x02\n      dup2\n      gt\n      iszero\n      tag_55\n      jumpi\n      tag_56\n      tag_37\n      jump\t// in\n    tag_56:\n    tag_55:\n      mul\n      or\n      swap1\n      sstore\n      pop\n        /* \"contracts/itemmanager.sol\":903:986  AutoChainEvent(itemIndex, items[itemIndex]._state, address(items[itemIndex]._item)) */\n      0xf24ddcf634b84b7fbfb91b2713d1db50cdf1ac5bcd00d6351384ee26bc1a94bd\n        /* \"contracts/itemmanager.sol\":918:927  itemIndex */\n      sload(0x01)\n        /* \"contracts/itemmanager.sol\":929:934  items */\n      0x00\n        /* \"contracts/itemmanager.sol\":929:945  items[itemIndex] */\n      dup1\n        /* \"contracts/itemmanager.sol\":935:944  itemIndex */\n      sload(0x01)\n        /* \"contracts/itemmanager.sol\":929:945  items[itemIndex] */\n      dup2\n      mstore\n      0x20\n      add\n      swap1\n      dup2\n      mstore\n      0x20\n      add\n      0x00\n      keccak256\n        /* \"contracts/itemmanager.sol\":929:952  items[itemIndex]._state */\n      0x03\n      add\n      0x00\n      swap1\n      sload\n      swap1\n      0x0100\n      exp\n      swap1\n      div\n      0xff\n      and\n        /* \"contracts/itemmanager.sol\":962:967  items */\n      0x00\n        /* \"contracts/itemmanager.sol\":962:978  items[itemIndex] */\n      dup1\n        /* \"contracts/itemmanager.sol\":968:977  itemIndex */\n      sload(0x01)\n        /* \"contracts/itemmanager.sol\":962:978  items[itemIndex] */\n      dup2\n      mstore\n      0x20\n      add\n      swap1\n      dup2\n      mstore\n      0x20\n      add\n      0x00\n      keccak256\n        /* \"contracts/itemmanager.sol\":962:984  items[itemIndex]._item */\n      0x00\n      add\n      0x00\n      swap1\n      sload\n      swap1\n      0x0100\n      exp\n      swap1\n      div\n      0xffffffffffffffffffffffffffffffffffffffff\n      and\n        /* \"contracts/itemmanager.sol\":903:986  AutoChainEvent(itemIndex, items[itemIndex]._state, address(items[itemIndex]._item)) */\n      mload(0x40)\n      tag_57\n      swap4\n      swap3\n      swap2\n      swap1\n      tag_46\n      jump\t// in\n    tag_57:\n      mload(0x40)\n      dup1\n      swap2\n      sub\n      swap1\n      log1\n        /* \"contracts/itemmanager.sol\":997:1006  itemIndex */\n      0x01\n      0x00\n        /* \"contracts/itemmanager.sol\":997:1008  itemIndex++ */\n      dup2\n      sload\n      dup1\n      swap3\n      swap2\n      swap1\n      tag_58\n      swap1\n      tag_59\n      jump\t// in\n    tag_58:\n      swap2\n      swap1\n      pop\n      sstore\n      pop\n        /* \"contracts/itemmanager.sol\":568:1016  function createItem (string memory _identifier, uint _itemPrice) public {\r... */\n      pop\n      pop\n      jump\t// out\n        /* \"contracts/itemmanager.sol\":503:538  mapping (uint => item) public items */\n    tag_19:\n      mstore(0x20, 0x00)\n      dup1\n      0x00\n      mstore\n      keccak256(0x00, 0x40)\n      0x00\n      swap2\n      pop\n      swap1\n      pop\n      dup1\n      0x00\n      add\n      0x00\n      swap1\n      sload\n      swap1\n      0x0100\n      exp\n      swap1\n      div\n      0xffffffffffffffffffffffffffffffffffffffff\n      and\n      swap1\n      dup1\n      0x01\n      add\n      dup1\n      sload\n      tag_60\n      swap1\n      tag_61\n      jump\t// in\n    tag_60:\n      dup1\n      0x1f\n      add\n      0x20\n      dup1\n      swap2\n      div\n      mul\n      0x20\n      add\n      mload(0x40)\n      swap1\n      dup2\n      add\n      0x40\n      mstore\n      dup1\n      swap3\n      swap2\n      swap1\n      dup2\n      dup2\n      mstore\n      0x20\n      add\n      dup3\n      dup1\n      sload\n      tag_62\n      swap1\n      tag_61\n      jump\t// in\n    tag_62:\n      dup1\n      iszero\n      tag_63\n      jumpi\n      dup1\n      0x1f\n      lt\n      tag_64\n      jumpi\n      0x0100\n      dup1\n      dup4\n      sload\n      div\n      mul\n      dup4\n      mstore\n      swap2\n      0x20\n      add\n      swap2\n      jump(tag_63)\n    tag_64:\n      dup3\n      add\n      swap2\n      swap1\n      0x00\n      mstore\n      keccak256(0x00, 0x20)\n      swap1\n    tag_65:\n      dup2\n      sload\n      dup2\n      mstore\n      swap1\n      0x01\n      add\n      swap1\n      0x20\n      add\n      dup1\n      dup4\n      gt\n      tag_65\n      jumpi\n      dup3\n      swap1\n      sub\n      0x1f\n      and\n      dup3\n      add\n      swap2\n    tag_63:\n      pop\n      pop\n      pop\n      pop\n      pop\n      swap1\n      dup1\n      0x02\n      add\n      sload\n      swap1\n      dup1\n      0x03\n      add\n      0x00\n      swap1\n      sload\n      swap1\n      0x0100\n      exp\n      swap1\n      div\n      0xff\n      and\n      swap1\n      pop\n      dup5\n      jump\t// out\n        /* \"contracts/itemmanager.sol\":1475:1793  function triggerDelivery (uint _itemIndex) public {\r... */\n    tag_25:\n        /* \"contracts/itemmanager.sol\":1573:1592  AutoChainState.Paid */\n      0x01\n        /* \"contracts/itemmanager.sol\":1545:1592  items[_itemIndex]._state == AutoChainState.Paid */\n      0x02\n      dup2\n      gt\n      iszero\n      tag_67\n      jumpi\n      tag_68\n      tag_37\n      jump\t// in\n    tag_68:\n    tag_67:\n        /* \"contracts/itemmanager.sol\":1545:1550  items */\n      0x00\n        /* \"contracts/itemmanager.sol\":1545:1562  items[_itemIndex] */\n      dup1\n        /* \"contracts/itemmanager.sol\":1551:1561  _itemIndex */\n      dup4\n        /* \"contracts/itemmanager.sol\":1545:1562  items[_itemIndex] */\n      dup2\n      mstore\n      0x20\n      add\n      swap1\n      dup2\n      mstore\n      0x20\n      add\n      0x00\n      keccak256\n        /* \"contracts/itemmanager.sol\":1545:1569  items[_itemIndex]._state */\n      0x03\n      add\n      0x00\n      swap1\n      sload\n      swap1\n      0x0100\n      exp\n      swap1\n      div\n      0xff\n      and\n        /* \"contracts/itemmanager.sol\":1545:1592  items[_itemIndex]._state == AutoChainState.Paid */\n      0x02\n      dup2\n      gt\n      iszero\n      tag_69\n      jumpi\n      tag_70\n      tag_37\n      jump\t// in\n    tag_70:\n    tag_69:\n      eq\n        /* \"contracts/itemmanager.sol\":1536:1621  require (items[_itemIndex]._state == AutoChainState.Paid, \"Item awaiting payment...\") */\n      tag_71\n      jumpi\n      mload(0x40)\n      0x08c379a000000000000000000000000000000000000000000000000000000000\n      dup2\n      mstore\n      0x04\n      add\n      tag_72\n      swap1\n      tag_73\n      jump\t// in\n    tag_72:\n      mload(0x40)\n      dup1\n      swap2\n      sub\n      swap1\n      revert\n    tag_71:\n        /* \"contracts/itemmanager.sol\":1659:1683  AutoChainState.Delivered */\n      0x02\n        /* \"contracts/itemmanager.sol\":1632:1637  items */\n      0x00\n        /* \"contracts/itemmanager.sol\":1632:1649  items[_itemIndex] */\n      dup1\n        /* \"contracts/itemmanager.sol\":1638:1648  _itemIndex */\n      dup4\n        /* \"contracts/itemmanager.sol\":1632:1649  items[_itemIndex] */\n      dup2\n      mstore\n      0x20\n      add\n      swap1\n      dup2\n      mstore\n      0x20\n      add\n      0x00\n      keccak256\n        /* \"contracts/itemmanager.sol\":1632:1656  items[_itemIndex]._state */\n      0x03\n      add\n      0x00\n        /* \"contracts/itemmanager.sol\":1632:1683  items[_itemIndex]._state = AutoChainState.Delivered */\n      0x0100\n      exp\n      dup2\n      sload\n      dup2\n      0xff\n      mul\n      not\n      and\n      swap1\n      dup4\n      0x02\n      dup2\n      gt\n      iszero\n      tag_74\n      jumpi\n      tag_75\n      tag_37\n      jump\t// in\n    tag_75:\n    tag_74:\n      mul\n      or\n      swap1\n      sstore\n      pop\n        /* \"contracts/itemmanager.sol\":1699:1785  AutoChainEvent(_itemIndex, items[_itemIndex]._state, address(items[_itemIndex]._item)) */\n      0xf24ddcf634b84b7fbfb91b2713d1db50cdf1ac5bcd00d6351384ee26bc1a94bd\n        /* \"contracts/itemmanager.sol\":1714:1724  _itemIndex */\n      dup2\n        /* \"contracts/itemmanager.sol\":1726:1731  items */\n      0x00\n        /* \"contracts/itemmanager.sol\":1726:1743  items[_itemIndex] */\n      dup1\n        /* \"contracts/itemmanager.sol\":1732:1742  _itemIndex */\n      dup5\n        /* \"contracts/itemmanager.sol\":1726:1743  items[_itemIndex] */\n      dup2\n      mstore\n      0x20\n      add\n      swap1\n      dup2\n      mstore\n      0x20\n      add\n      0x00\n      keccak256\n        /* \"contracts/itemmanager.sol\":1726:1750  items[_itemIndex]._state */\n      0x03\n      add\n      0x00\n      swap1\n      sload\n      swap1\n      0x0100\n      exp\n      swap1\n      div\n      0xff\n      and\n        /* \"contracts/itemmanager.sol\":1760:1765  items */\n      0x00\n        /* \"contracts/itemmanager.sol\":1760:1777  items[_itemIndex] */\n      dup1\n        /* \"contracts/itemmanager.sol\":1766:1776  _itemIndex */\n      dup6\n        /* \"contracts/itemmanager.sol\":1760:1777  items[_itemIndex] */\n      dup2\n      mstore\n      0x20\n      add\n      swap1\n      dup2\n      mstore\n      0x20\n      add\n      0x00\n      keccak256\n        /* \"contracts/itemmanager.sol\":1760:1783  items[_itemIndex]._item */\n      0x00\n      add\n      0x00\n      swap1\n      sload\n      swap1\n      0x0100\n      exp\n      swap1\n      div\n      0xffffffffffffffffffffffffffffffffffffffff\n      and\n        /* \"contracts/itemmanager.sol\":1699:1785  AutoChainEvent(_itemIndex, items[_itemIndex]._state, address(items[_itemIndex]._item)) */\n      mload(0x40)\n      tag_76\n      swap4\n      swap3\n      swap2\n      swap1\n      tag_46\n      jump\t// in\n    tag_76:\n      mload(0x40)\n      dup1\n      swap2\n      sub\n      swap1\n      log1\n        /* \"contracts/itemmanager.sol\":1475:1793  function triggerDelivery (uint _itemIndex) public {\r... */\n      pop\n      jump\t// out\n        /* \"contracts/itemmanager.sol\":168:255  function getEnum () public view returns (ItemManager.AutoChainState) {\r... */\n    tag_28:\n        /* \"contracts/itemmanager.sol\":209:235  ItemManager.AutoChainState */\n      0x00\n        /* \"contracts/itemmanager.sol\":168:255  function getEnum () public view returns (ItemManager.AutoChainState) {\r... */\n      swap1\n      jump\t// out\n    tag_49:\n      dataSize(sub_0)\n      dup1\n      dataOffset(sub_0)\n      dup4\n      codecopy\n      add\n      swap1\n      jump\t// out\n    tag_54:\n      dup3\n      dup1\n      sload\n      tag_78\n      swap1\n      tag_61\n      jump\t// in\n    tag_78:\n      swap1\n      0x00\n      mstore\n      keccak256(0x00, 0x20)\n      swap1\n      0x1f\n      add\n      0x20\n      swap1\n      div\n      dup2\n      add\n      swap3\n      dup3\n      tag_80\n      jumpi\n      0x00\n      dup6\n      sstore\n      jump(tag_79)\n    tag_80:\n      dup3\n      0x1f\n      lt\n      tag_81\n      jumpi\n      dup1\n      mload\n      not(0xff)\n      and\n      dup4\n      dup1\n      add\n      or\n      dup6\n      sstore\n      jump(tag_79)\n    tag_81:\n      dup3\n      dup1\n      add\n      0x01\n      add\n      dup6\n      sstore\n      dup3\n      iszero\n      tag_79\n      jumpi\n      swap2\n      dup3\n      add\n    tag_82:\n      dup3\n      dup2\n      gt\n      iszero\n      tag_83\n      jumpi\n      dup3\n      mload\n      dup3\n      sstore\n      swap2\n      0x20\n      add\n      swap2\n      swap1\n      0x01\n      add\n      swap1\n      jump(tag_82)\n    tag_83:\n    tag_79:\n      pop\n      swap1\n      pop\n      tag_84\n      swap2\n      swap1\n      tag_85\n      jump\t// in\n    tag_84:\n      pop\n      swap1\n      jump\t// out\n    tag_85:\n    tag_86:\n      dup1\n      dup3\n      gt\n      iszero\n      tag_87\n      jumpi\n      0x00\n      dup2\n      0x00\n      swap1\n      sstore\n      pop\n      0x01\n      add\n      jump(tag_86)\n    tag_87:\n      pop\n      swap1\n      jump\t// out\n        /* \"#utility.yul\":7:419   */\n    tag_89:\n        /* \"#utility.yul\":85:90   */\n      0x00\n        /* \"#utility.yul\":110:176   */\n      tag_91\n        /* \"#utility.yul\":126:175   */\n      tag_92\n        /* \"#utility.yul\":168:174   */\n      dup5\n        /* \"#utility.yul\":126:175   */\n      tag_93\n      jump\t// in\n    tag_92:\n        /* \"#utility.yul\":110:176   */\n      tag_94\n      jump\t// in\n    tag_91:\n        /* \"#utility.yul\":101:176   */\n      swap1\n      pop\n        /* \"#utility.yul\":199:205   */\n      dup3\n        /* \"#utility.yul\":192:197   */\n      dup2\n        /* \"#utility.yul\":185:206   */\n      mstore\n        /* \"#utility.yul\":237:241   */\n      0x20\n        /* \"#utility.yul\":230:235   */\n      dup2\n        /* \"#utility.yul\":226:242   */\n      add\n        /* \"#utility.yul\":275:278   */\n      dup5\n        /* \"#utility.yul\":266:272   */\n      dup5\n        /* \"#utility.yul\":261:264   */\n      dup5\n        /* \"#utility.yul\":257:273   */\n      add\n        /* \"#utility.yul\":254:279   */\n      gt\n        /* \"#utility.yul\":251:363   */\n      iszero\n      tag_95\n      jumpi\n        /* \"#utility.yul\":282:361   */\n      tag_96\n      tag_97\n      jump\t// in\n    tag_96:\n        /* \"#utility.yul\":251:363   */\n    tag_95:\n        /* \"#utility.yul\":372:413   */\n      tag_98\n        /* \"#utility.yul\":406:412   */\n      dup5\n        /* \"#utility.yul\":401:404   */\n      dup3\n        /* \"#utility.yul\":396:399   */\n      dup6\n        /* \"#utility.yul\":372:413   */\n      tag_99\n      jump\t// in\n    tag_98:\n        /* \"#utility.yul\":91:419   */\n      pop\n        /* \"#utility.yul\":7:419   */\n      swap4\n      swap3\n      pop\n      pop\n      pop\n      jump\t// out\n        /* \"#utility.yul\":439:779   */\n    tag_100:\n        /* \"#utility.yul\":495:500   */\n      0x00\n        /* \"#utility.yul\":544:547   */\n      dup3\n        /* \"#utility.yul\":537:541   */\n      0x1f\n        /* \"#utility.yul\":529:535   */\n      dup4\n        /* \"#utility.yul\":525:542   */\n      add\n        /* \"#utility.yul\":521:548   */\n      slt\n        /* \"#utility.yul\":511:633   */\n      tag_102\n      jumpi\n        /* \"#utility.yul\":552:631   */\n      tag_103\n      tag_104\n      jump\t// in\n    tag_103:\n        /* \"#utility.yul\":511:633   */\n    tag_102:\n        /* \"#utility.yul\":669:675   */\n      dup2\n        /* \"#utility.yul\":656:676   */\n      calldataload\n        /* \"#utility.yul\":694:773   */\n      tag_105\n        /* \"#utility.yul\":769:772   */\n      dup5\n        /* \"#utility.yul\":761:767   */\n      dup3\n        /* \"#utility.yul\":754:758   */\n      0x20\n        /* \"#utility.yul\":746:752   */\n      dup7\n        /* \"#utility.yul\":742:759   */\n      add\n        /* \"#utility.yul\":694:773   */\n      tag_89\n      jump\t// in\n    tag_105:\n        /* \"#utility.yul\":685:773   */\n      swap2\n      pop\n        /* \"#utility.yul\":501:779   */\n      pop\n        /* \"#utility.yul\":439:779   */\n      swap3\n      swap2\n      pop\n      pop\n      jump\t// out\n        /* \"#utility.yul\":785:924   */\n    tag_106:\n        /* \"#utility.yul\":831:836   */\n      0x00\n        /* \"#utility.yul\":869:875   */\n      dup2\n        /* \"#utility.yul\":856:876   */\n      calldataload\n        /* \"#utility.yul\":847:876   */\n      swap1\n      pop\n        /* \"#utility.yul\":885:918   */\n      tag_108\n        /* \"#utility.yul\":912:917   */\n      dup2\n        /* \"#utility.yul\":885:918   */\n      tag_109\n      jump\t// in\n    tag_108:\n        /* \"#utility.yul\":785:924   */\n      swap3\n      swap2\n      pop\n      pop\n      jump\t// out\n        /* \"#utility.yul\":930:1584   */\n    tag_14:\n        /* \"#utility.yul\":1008:1014   */\n      0x00\n        /* \"#utility.yul\":1016:1022   */\n      dup1\n        /* \"#utility.yul\":1065:1067   */\n      0x40\n        /* \"#utility.yul\":1053:1062   */\n      dup4\n        /* \"#utility.yul\":1044:1051   */\n      dup6\n        /* \"#utility.yul\":1040:1063   */\n      sub\n        /* \"#utility.yul\":1036:1068   */\n      slt\n        /* \"#utility.yul\":1033:1152   */\n      iszero\n      tag_111\n      jumpi\n        /* \"#utility.yul\":1071:1150   */\n      tag_112\n      tag_113\n      jump\t// in\n    tag_112:\n        /* \"#utility.yul\":1033:1152   */\n    tag_111:\n        /* \"#utility.yul\":1219:1220   */\n      0x00\n        /* \"#utility.yul\":1208:1217   */\n      dup4\n        /* \"#utility.yul\":1204:1221   */\n      add\n        /* \"#utility.yul\":1191:1222   */\n      calldataload\n        /* \"#utility.yul\":1249:1267   */\n      0xffffffffffffffff\n        /* \"#utility.yul\":1241:1247   */\n      dup2\n        /* \"#utility.yul\":1238:1268   */\n      gt\n        /* \"#utility.yul\":1235:1352   */\n      iszero\n      tag_114\n      jumpi\n        /* \"#utility.yul\":1271:1350   */\n      tag_115\n      tag_116\n      jump\t// in\n    tag_115:\n        /* \"#utility.yul\":1235:1352   */\n    tag_114:\n        /* \"#utility.yul\":1376:1439   */\n      tag_117\n        /* \"#utility.yul\":1431:1438   */\n      dup6\n        /* \"#utility.yul\":1422:1428   */\n      dup3\n        /* \"#utility.yul\":1411:1420   */\n      dup7\n        /* \"#utility.yul\":1407:1429   */\n      add\n        /* \"#utility.yul\":1376:1439   */\n      tag_100\n      jump\t// in\n    tag_117:\n        /* \"#utility.yul\":1366:1439   */\n      swap3\n      pop\n        /* \"#utility.yul\":1162:1449   */\n      pop\n        /* \"#utility.yul\":1488:1490   */\n      0x20\n        /* \"#utility.yul\":1514:1567   */\n      tag_118\n        /* \"#utility.yul\":1559:1566   */\n      dup6\n        /* \"#utility.yul\":1550:1556   */\n      dup3\n        /* \"#utility.yul\":1539:1548   */\n      dup7\n        /* \"#utility.yul\":1535:1557   */\n      add\n        /* \"#utility.yul\":1514:1567   */\n      tag_106\n      jump\t// in\n    tag_118:\n        /* \"#utility.yul\":1504:1567   */\n      swap2\n      pop\n        /* \"#utility.yul\":1459:1577   */\n      pop\n        /* \"#utility.yul\":930:1584   */\n      swap3\n      pop\n      swap3\n      swap1\n      pop\n      jump\t// out\n        /* \"#utility.yul\":1590:1919   */\n    tag_9:\n        /* \"#utility.yul\":1649:1655   */\n      0x00\n        /* \"#utility.yul\":1698:1700   */\n      0x20\n        /* \"#utility.yul\":1686:1695   */\n      dup3\n        /* \"#utility.yul\":1677:1684   */\n      dup5\n        /* \"#utility.yul\":1673:1696   */\n      sub\n        /* \"#utility.yul\":1669:1701   */\n      slt\n        /* \"#utility.yul\":1666:1785   */\n      iszero\n      tag_120\n      jumpi\n        /* \"#utility.yul\":1704:1783   */\n      tag_121\n      tag_113\n      jump\t// in\n    tag_121:\n        /* \"#utility.yul\":1666:1785   */\n    tag_120:\n        /* \"#utility.yul\":1824:1825   */\n      0x00\n        /* \"#utility.yul\":1849:1902   */\n      tag_122\n        /* \"#utility.yul\":1894:1901   */\n      dup5\n        /* \"#utility.yul\":1885:1891   */\n      dup3\n        /* \"#utility.yul\":1874:1883   */\n      dup6\n        /* \"#utility.yul\":1870:1892   */\n      add\n        /* \"#utility.yul\":1849:1902   */\n      tag_106\n      jump\t// in\n    tag_122:\n        /* \"#utility.yul\":1839:1902   */\n      swap2\n      pop\n        /* \"#utility.yul\":1795:1912   */\n      pop\n        /* \"#utility.yul\":1590:1919   */\n      swap3\n      swap2\n      pop\n      pop\n      jump\t// out\n        /* \"#utility.yul\":1925:2043   */\n    tag_123:\n        /* \"#utility.yul\":2012:2036   */\n      tag_125\n        /* \"#utility.yul\":2030:2035   */\n      dup2\n        /* \"#utility.yul\":2012:2036   */\n      tag_126\n      jump\t// in\n    tag_125:\n        /* \"#utility.yul\":2007:2010   */\n      dup3\n        /* \"#utility.yul\":2000:2037   */\n      mstore\n        /* \"#utility.yul\":1925:2043   */\n      pop\n      pop\n      jump\t// out\n        /* \"#utility.yul\":2049:2218   */\n    tag_127:\n        /* \"#utility.yul\":2155:2211   */\n      tag_129\n        /* \"#utility.yul\":2205:2210   */\n      dup2\n        /* \"#utility.yul\":2155:2211   */\n      tag_130\n      jump\t// in\n    tag_129:\n        /* \"#utility.yul\":2150:2153   */\n      dup3\n        /* \"#utility.yul\":2143:2212   */\n      mstore\n        /* \"#utility.yul\":2049:2218   */\n      pop\n      pop\n      jump\t// out\n        /* \"#utility.yul\":2224:2385   */\n    tag_131:\n        /* \"#utility.yul\":2326:2378   */\n      tag_133\n        /* \"#utility.yul\":2372:2377   */\n      dup2\n        /* \"#utility.yul\":2326:2378   */\n      tag_134\n      jump\t// in\n    tag_133:\n        /* \"#utility.yul\":2321:2324   */\n      dup3\n        /* \"#utility.yul\":2314:2379   */\n      mstore\n        /* \"#utility.yul\":2224:2385   */\n      pop\n      pop\n      jump\t// out\n        /* \"#utility.yul\":2391:2755   */\n    tag_135:\n        /* \"#utility.yul\":2479:2482   */\n      0x00\n        /* \"#utility.yul\":2507:2546   */\n      tag_137\n        /* \"#utility.yul\":2540:2545   */\n      dup3\n        /* \"#utility.yul\":2507:2546   */\n      tag_138\n      jump\t// in\n    tag_137:\n        /* \"#utility.yul\":2562:2633   */\n      tag_139\n        /* \"#utility.yul\":2626:2632   */\n      dup2\n        /* \"#utility.yul\":2621:2624   */\n      dup6\n        /* \"#utility.yul\":2562:2633   */\n      tag_140\n      jump\t// in\n    tag_139:\n        /* \"#utility.yul\":2555:2633   */\n      swap4\n      pop\n        /* \"#utility.yul\":2642:2694   */\n      tag_141\n        /* \"#utility.yul\":2687:2693   */\n      dup2\n        /* \"#utility.yul\":2682:2685   */\n      dup6\n        /* \"#utility.yul\":2675:2679   */\n      0x20\n        /* \"#utility.yul\":2668:2673   */\n      dup7\n        /* \"#utility.yul\":2664:2680   */\n      add\n        /* \"#utility.yul\":2642:2694   */\n      tag_142\n      jump\t// in\n    tag_141:\n        /* \"#utility.yul\":2719:2748   */\n      tag_143\n        /* \"#utility.yul\":2741:2747   */\n      dup2\n        /* \"#utility.yul\":2719:2748   */\n      tag_144\n      jump\t// in\n    tag_143:\n        /* \"#utility.yul\":2714:2717   */\n      dup5\n        /* \"#utility.yul\":2710:2749   */\n      add\n        /* \"#utility.yul\":2703:2749   */\n      swap2\n      pop\n        /* \"#utility.yul\":2483:2755   */\n      pop\n        /* \"#utility.yul\":2391:2755   */\n      swap3\n      swap2\n      pop\n      pop\n      jump\t// out\n        /* \"#utility.yul\":2761:3127   */\n    tag_145:\n        /* \"#utility.yul\":2903:2906   */\n      0x00\n        /* \"#utility.yul\":2924:2991   */\n      tag_147\n        /* \"#utility.yul\":2988:2990   */\n      0x18\n        /* \"#utility.yul\":2983:2986   */\n      dup4\n        /* \"#utility.yul\":2924:2991   */\n      tag_140\n      jump\t// in\n    tag_147:\n        /* \"#utility.yul\":2917:2991   */\n      swap2\n      pop\n        /* \"#utility.yul\":3000:3093   */\n      tag_148\n        /* \"#utility.yul\":3089:3092   */\n      dup3\n        /* \"#utility.yul\":3000:3093   */\n      tag_149\n      jump\t// in\n    tag_148:\n        /* \"#utility.yul\":3118:3120   */\n      0x20\n        /* \"#utility.yul\":3113:3116   */\n      dup3\n        /* \"#utility.yul\":3109:3121   */\n      add\n        /* \"#utility.yul\":3102:3121   */\n      swap1\n      pop\n        /* \"#utility.yul\":2761:3127   */\n      swap2\n      swap1\n      pop\n      jump\t// out\n        /* \"#utility.yul\":3133:3499   */\n    tag_150:\n        /* \"#utility.yul\":3275:3278   */\n      0x00\n        /* \"#utility.yul\":3296:3363   */\n      tag_152\n        /* \"#utility.yul\":3360:3362   */\n      0x2b\n        /* \"#utility.yul\":3355:3358   */\n      dup4\n        /* \"#utility.yul\":3296:3363   */\n      tag_140\n      jump\t// in\n    tag_152:\n        /* \"#utility.yul\":3289:3363   */\n      swap2\n      pop\n        /* \"#utility.yul\":3372:3465   */\n      tag_153\n        /* \"#utility.yul\":3461:3464   */\n      dup3\n        /* \"#utility.yul\":3372:3465   */\n      tag_154\n      jump\t// in\n    tag_153:\n        /* \"#utility.yul\":3490:3492   */\n      0x40\n        /* \"#utility.yul\":3485:3488   */\n      dup3\n        /* \"#utility.yul\":3481:3493   */\n      add\n        /* \"#utility.yul\":3474:3493   */\n      swap1\n      pop\n        /* \"#utility.yul\":3133:3499   */\n      swap2\n      swap1\n      pop\n      jump\t// out\n        /* \"#utility.yul\":3505:3871   */\n    tag_155:\n        /* \"#utility.yul\":3647:3650   */\n      0x00\n        /* \"#utility.yul\":3668:3735   */\n      tag_157\n        /* \"#utility.yul\":3732:3734   */\n      0x18\n        /* \"#utility.yul\":3727:3730   */\n      dup4\n        /* \"#utility.yul\":3668:3735   */\n      tag_140\n      jump\t// in\n    tag_157:\n        /* \"#utility.yul\":3661:3735   */\n      swap2\n      pop\n        /* \"#utility.yul\":3744:3837   */\n      tag_158\n        /* \"#utility.yul\":3833:3836   */\n      dup3\n        /* \"#utility.yul\":3744:3837   */\n      tag_159\n      jump\t// in\n    tag_158:\n        /* \"#utility.yul\":3862:3864   */\n      0x20\n        /* \"#utility.yul\":3857:3860   */\n      dup3\n        /* \"#utility.yul\":3853:3865   */\n      add\n        /* \"#utility.yul\":3846:3865   */\n      swap1\n      pop\n        /* \"#utility.yul\":3505:3871   */\n      swap2\n      swap1\n      pop\n      jump\t// out\n        /* \"#utility.yul\":3877:3995   */\n    tag_160:\n        /* \"#utility.yul\":3964:3988   */\n      tag_162\n        /* \"#utility.yul\":3982:3987   */\n      dup2\n        /* \"#utility.yul\":3964:3988   */\n      tag_163\n      jump\t// in\n    tag_162:\n        /* \"#utility.yul\":3959:3962   */\n      dup3\n        /* \"#utility.yul\":3952:3989   */\n      mstore\n        /* \"#utility.yul\":3877:3995   */\n      pop\n      pop\n      jump\t// out\n        /* \"#utility.yul\":4001:4713   */\n    tag_21:\n        /* \"#utility.yul\":4232:4236   */\n      0x00\n        /* \"#utility.yul\":4270:4273   */\n      0x80\n        /* \"#utility.yul\":4259:4268   */\n      dup3\n        /* \"#utility.yul\":4255:4274   */\n      add\n        /* \"#utility.yul\":4247:4274   */\n      swap1\n      pop\n        /* \"#utility.yul\":4284:4374   */\n      tag_165\n        /* \"#utility.yul\":4371:4372   */\n      0x00\n        /* \"#utility.yul\":4360:4369   */\n      dup4\n        /* \"#utility.yul\":4356:4373   */\n      add\n        /* \"#utility.yul\":4347:4353   */\n      dup8\n        /* \"#utility.yul\":4284:4374   */\n      tag_127\n      jump\t// in\n    tag_165:\n        /* \"#utility.yul\":4421:4430   */\n      dup2\n        /* \"#utility.yul\":4415:4419   */\n      dup2\n        /* \"#utility.yul\":4411:4431   */\n      sub\n        /* \"#utility.yul\":4406:4408   */\n      0x20\n        /* \"#utility.yul\":4395:4404   */\n      dup4\n        /* \"#utility.yul\":4391:4409   */\n      add\n        /* \"#utility.yul\":4384:4432   */\n      mstore\n        /* \"#utility.yul\":4449:4527   */\n      tag_166\n        /* \"#utility.yul\":4522:4526   */\n      dup2\n        /* \"#utility.yul\":4513:4519   */\n      dup7\n        /* \"#utility.yul\":4449:4527   */\n      tag_135\n      jump\t// in\n    tag_166:\n        /* \"#utility.yul\":4441:4527   */\n      swap1\n      pop\n        /* \"#utility.yul\":4537:4609   */\n      tag_167\n        /* \"#utility.yul\":4605:4607   */\n      0x40\n        /* \"#utility.yul\":4594:4603   */\n      dup4\n        /* \"#utility.yul\":4590:4608   */\n      add\n        /* \"#utility.yul\":4581:4587   */\n      dup6\n        /* \"#utility.yul\":4537:4609   */\n      tag_160\n      jump\t// in\n    tag_167:\n        /* \"#utility.yul\":4619:4706   */\n      tag_168\n        /* \"#utility.yul\":4702:4704   */\n      0x60\n        /* \"#utility.yul\":4691:4700   */\n      dup4\n        /* \"#utility.yul\":4687:4705   */\n      add\n        /* \"#utility.yul\":4678:4684   */\n      dup5\n        /* \"#utility.yul\":4619:4706   */\n      tag_131\n      jump\t// in\n    tag_168:\n        /* \"#utility.yul\":4001:4713   */\n      swap6\n      swap5\n      pop\n      pop\n      pop\n      pop\n      pop\n      jump\t// out\n        /* \"#utility.yul\":4719:4971   */\n    tag_30:\n        /* \"#utility.yul\":4827:4831   */\n      0x00\n        /* \"#utility.yul\":4865:4867   */\n      0x20\n        /* \"#utility.yul\":4854:4863   */\n      dup3\n        /* \"#utility.yul\":4850:4868   */\n      add\n        /* \"#utility.yul\":4842:4868   */\n      swap1\n      pop\n        /* \"#utility.yul\":4878:4964   */\n      tag_170\n        /* \"#utility.yul\":4961:4962   */\n      0x00\n        /* \"#utility.yul\":4950:4959   */\n      dup4\n        /* \"#utility.yul\":4946:4963   */\n      add\n        /* \"#utility.yul\":4937:4943   */\n      dup5\n        /* \"#utility.yul\":4878:4964   */\n      tag_131\n      jump\t// in\n    tag_170:\n        /* \"#utility.yul\":4719:4971   */\n      swap3\n      swap2\n      pop\n      pop\n      jump\t// out\n        /* \"#utility.yul\":4977:5396   */\n    tag_34:\n        /* \"#utility.yul\":5143:5147   */\n      0x00\n        /* \"#utility.yul\":5181:5183   */\n      0x20\n        /* \"#utility.yul\":5170:5179   */\n      dup3\n        /* \"#utility.yul\":5166:5184   */\n      add\n        /* \"#utility.yul\":5158:5184   */\n      swap1\n      pop\n        /* \"#utility.yul\":5230:5239   */\n      dup2\n        /* \"#utility.yul\":5224:5228   */\n      dup2\n        /* \"#utility.yul\":5220:5240   */\n      sub\n        /* \"#utility.yul\":5216:5217   */\n      0x00\n        /* \"#utility.yul\":5205:5214   */\n      dup4\n        /* \"#utility.yul\":5201:5218   */\n      add\n        /* \"#utility.yul\":5194:5241   */\n      mstore\n        /* \"#utility.yul\":5258:5389   */\n      tag_172\n        /* \"#utility.yul\":5384:5388   */\n      dup2\n        /* \"#utility.yul\":5258:5389   */\n      tag_145\n      jump\t// in\n    tag_172:\n        /* \"#utility.yul\":5250:5389   */\n      swap1\n      pop\n        /* \"#utility.yul\":4977:5396   */\n      swap2\n      swap1\n      pop\n      jump\t// out\n        /* \"#utility.yul\":5402:5821   */\n    tag_42:\n        /* \"#utility.yul\":5568:5572   */\n      0x00\n        /* \"#utility.yul\":5606:5608   */\n      0x20\n        /* \"#utility.yul\":5595:5604   */\n      dup3\n        /* \"#utility.yul\":5591:5609   */\n      add\n        /* \"#utility.yul\":5583:5609   */\n      swap1\n      pop\n        /* \"#utility.yul\":5655:5664   */\n      dup2\n        /* \"#utility.yul\":5649:5653   */\n      dup2\n        /* \"#utility.yul\":5645:5665   */\n      sub\n        /* \"#utility.yul\":5641:5642   */\n      0x00\n        /* \"#utility.yul\":5630:5639   */\n      dup4\n        /* \"#utility.yul\":5626:5643   */\n      add\n        /* \"#utility.yul\":5619:5666   */\n      mstore\n        /* \"#utility.yul\":5683:5814   */\n      tag_174\n        /* \"#utility.yul\":5809:5813   */\n      dup2\n        /* \"#utility.yul\":5683:5814   */\n      tag_150\n      jump\t// in\n    tag_174:\n        /* \"#utility.yul\":5675:5814   */\n      swap1\n      pop\n        /* \"#utility.yul\":5402:5821   */\n      swap2\n      swap1\n      pop\n      jump\t// out\n        /* \"#utility.yul\":5827:6246   */\n    tag_73:\n        /* \"#utility.yul\":5993:5997   */\n      0x00\n        /* \"#utility.yul\":6031:6033   */\n      0x20\n        /* \"#utility.yul\":6020:6029   */\n      dup3\n        /* \"#utility.yul\":6016:6034   */\n      add\n        /* \"#utility.yul\":6008:6034   */\n      swap1\n      pop\n        /* \"#utility.yul\":6080:6089   */\n      dup2\n        /* \"#utility.yul\":6074:6078   */\n      dup2\n        /* \"#utility.yul\":6070:6090   */\n      sub\n        /* \"#utility.yul\":6066:6067   */\n      0x00\n        /* \"#utility.yul\":6055:6064   */\n      dup4\n        /* \"#utility.yul\":6051:6068   */\n      add\n        /* \"#utility.yul\":6044:6091   */\n      mstore\n        /* \"#utility.yul\":6108:6239   */\n      tag_176\n        /* \"#utility.yul\":6234:6238   */\n      dup2\n        /* \"#utility.yul\":6108:6239   */\n      tag_155\n      jump\t// in\n    tag_176:\n        /* \"#utility.yul\":6100:6239   */\n      swap1\n      pop\n        /* \"#utility.yul\":5827:6246   */\n      swap2\n      swap1\n      pop\n      jump\t// out\n        /* \"#utility.yul\":6252:6724   */\n    tag_46:\n        /* \"#utility.yul\":6416:6420   */\n      0x00\n        /* \"#utility.yul\":6454:6456   */\n      0x60\n        /* \"#utility.yul\":6443:6452   */\n      dup3\n        /* \"#utility.yul\":6439:6457   */\n      add\n        /* \"#utility.yul\":6431:6457   */\n      swap1\n      pop\n        /* \"#utility.yul\":6467:6538   */\n      tag_178\n        /* \"#utility.yul\":6535:6536   */\n      0x00\n        /* \"#utility.yul\":6524:6533   */\n      dup4\n        /* \"#utility.yul\":6520:6537   */\n      add\n        /* \"#utility.yul\":6511:6517   */\n      dup7\n        /* \"#utility.yul\":6467:6538   */\n      tag_160\n      jump\t// in\n    tag_178:\n        /* \"#utility.yul\":6548:6635   */\n      tag_179\n        /* \"#utility.yul\":6631:6633   */\n      0x20\n        /* \"#utility.yul\":6620:6629   */\n      dup4\n        /* \"#utility.yul\":6616:6634   */\n      add\n        /* \"#utility.yul\":6607:6613   */\n      dup6\n        /* \"#utility.yul\":6548:6635   */\n      tag_131\n      jump\t// in\n    tag_179:\n        /* \"#utility.yul\":6645:6717   */\n      tag_180\n        /* \"#utility.yul\":6713:6715   */\n      0x40\n        /* \"#utility.yul\":6702:6711   */\n      dup4\n        /* \"#utility.yul\":6698:6716   */\n      add\n        /* \"#utility.yul\":6689:6695   */\n      dup5\n        /* \"#utility.yul\":6645:6717   */\n      tag_123\n      jump\t// in\n    tag_180:\n        /* \"#utility.yul\":6252:6724   */\n      swap5\n      swap4\n      pop\n      pop\n      pop\n      pop\n      jump\t// out\n        /* \"#utility.yul\":6730:7172   */\n    tag_51:\n        /* \"#utility.yul\":6879:6883   */\n      0x00\n        /* \"#utility.yul\":6917:6919   */\n      0x60\n        /* \"#utility.yul\":6906:6915   */\n      dup3\n        /* \"#utility.yul\":6902:6920   */\n      add\n        /* \"#utility.yul\":6894:6920   */\n      swap1\n      pop\n        /* \"#utility.yul\":6930:7001   */\n      tag_182\n        /* \"#utility.yul\":6998:6999   */\n      0x00\n        /* \"#utility.yul\":6987:6996   */\n      dup4\n        /* \"#utility.yul\":6983:7000   */\n      add\n        /* \"#utility.yul\":6974:6980   */\n      dup7\n        /* \"#utility.yul\":6930:7001   */\n      tag_160\n      jump\t// in\n    tag_182:\n        /* \"#utility.yul\":7011:7083   */\n      tag_183\n        /* \"#utility.yul\":7079:7081   */\n      0x20\n        /* \"#utility.yul\":7068:7077   */\n      dup4\n        /* \"#utility.yul\":7064:7082   */\n      add\n        /* \"#utility.yul\":7055:7061   */\n      dup6\n        /* \"#utility.yul\":7011:7083   */\n      tag_160\n      jump\t// in\n    tag_183:\n        /* \"#utility.yul\":7093:7165   */\n      tag_184\n        /* \"#utility.yul\":7161:7163   */\n      0x40\n        /* \"#utility.yul\":7150:7159   */\n      dup4\n        /* \"#utility.yul\":7146:7164   */\n      add\n        /* \"#utility.yul\":7137:7143   */\n      dup5\n        /* \"#utility.yul\":7093:7165   */\n      tag_123\n      jump\t// in\n    tag_184:\n        /* \"#utility.yul\":6730:7172   */\n      swap5\n      swap4\n      pop\n      pop\n      pop\n      pop\n      jump\t// out\n        /* \"#utility.yul\":7178:7307   */\n    tag_94:\n        /* \"#utility.yul\":7212:7218   */\n      0x00\n        /* \"#utility.yul\":7239:7259   */\n      tag_186\n      tag_187\n      jump\t// in\n    tag_186:\n        /* \"#utility.yul\":7229:7259   */\n      swap1\n      pop\n        /* \"#utility.yul\":7268:7301   */\n      tag_188\n        /* \"#utility.yul\":7296:7300   */\n      dup3\n        /* \"#utility.yul\":7288:7294   */\n      dup3\n        /* \"#utility.yul\":7268:7301   */\n      tag_189\n      jump\t// in\n    tag_188:\n        /* \"#utility.yul\":7178:7307   */\n      swap2\n      swap1\n      pop\n      jump\t// out\n        /* \"#utility.yul\":7313:7388   */\n    tag_187:\n        /* \"#utility.yul\":7346:7352   */\n      0x00\n        /* \"#utility.yul\":7379:7381   */\n      0x40\n        /* \"#utility.yul\":7373:7382   */\n      mload\n        /* \"#utility.yul\":7363:7382   */\n      swap1\n      pop\n        /* \"#utility.yul\":7313:7388   */\n      swap1\n      jump\t// out\n        /* \"#utility.yul\":7394:7702   */\n    tag_93:\n        /* \"#utility.yul\":7456:7460   */\n      0x00\n        /* \"#utility.yul\":7546:7564   */\n      0xffffffffffffffff\n        /* \"#utility.yul\":7538:7544   */\n      dup3\n        /* \"#utility.yul\":7535:7565   */\n      gt\n        /* \"#utility.yul\":7532:7588   */\n      iszero\n      tag_192\n      jumpi\n        /* \"#utility.yul\":7568:7586   */\n      tag_193\n      tag_194\n      jump\t// in\n    tag_193:\n        /* \"#utility.yul\":7532:7588   */\n    tag_192:\n        /* \"#utility.yul\":7606:7635   */\n      tag_195\n        /* \"#utility.yul\":7628:7634   */\n      dup3\n        /* \"#utility.yul\":7606:7635   */\n      tag_144\n      jump\t// in\n    tag_195:\n        /* \"#utility.yul\":7598:7635   */\n      swap1\n      pop\n        /* \"#utility.yul\":7690:7694   */\n      0x20\n        /* \"#utility.yul\":7684:7688   */\n      dup2\n        /* \"#utility.yul\":7680:7695   */\n      add\n        /* \"#utility.yul\":7672:7695   */\n      swap1\n      pop\n        /* \"#utility.yul\":7394:7702   */\n      swap2\n      swap1\n      pop\n      jump\t// out\n        /* \"#utility.yul\":7708:7807   */\n    tag_138:\n        /* \"#utility.yul\":7760:7766   */\n      0x00\n        /* \"#utility.yul\":7794:7799   */\n      dup2\n        /* \"#utility.yul\":7788:7800   */\n      mload\n        /* \"#utility.yul\":7778:7800   */\n      swap1\n      pop\n        /* \"#utility.yul\":7708:7807   */\n      swap2\n      swap1\n      pop\n      jump\t// out\n        /* \"#utility.yul\":7813:7982   */\n    tag_140:\n        /* \"#utility.yul\":7897:7908   */\n      0x00\n        /* \"#utility.yul\":7931:7937   */\n      dup3\n        /* \"#utility.yul\":7926:7929   */\n      dup3\n        /* \"#utility.yul\":7919:7938   */\n      mstore\n        /* \"#utility.yul\":7971:7975   */\n      0x20\n        /* \"#utility.yul\":7966:7969   */\n      dup3\n        /* \"#utility.yul\":7962:7976   */\n      add\n        /* \"#utility.yul\":7947:7976   */\n      swap1\n      pop\n        /* \"#utility.yul\":7813:7982   */\n      swap3\n      swap2\n      pop\n      pop\n      jump\t// out\n        /* \"#utility.yul\":7988:8084   */\n    tag_126:\n        /* \"#utility.yul\":8025:8032   */\n      0x00\n        /* \"#utility.yul\":8054:8078   */\n      tag_199\n        /* \"#utility.yul\":8072:8077   */\n      dup3\n        /* \"#utility.yul\":8054:8078   */\n      tag_200\n      jump\t// in\n    tag_199:\n        /* \"#utility.yul\":8043:8078   */\n      swap1\n      pop\n        /* \"#utility.yul\":7988:8084   */\n      swap2\n      swap1\n      pop\n      jump\t// out\n        /* \"#utility.yul\":8090:8235   */\n    tag_201:\n        /* \"#utility.yul\":8144:8151   */\n      0x00\n        /* \"#utility.yul\":8173:8178   */\n      dup2\n        /* \"#utility.yul\":8162:8178   */\n      swap1\n      pop\n        /* \"#utility.yul\":8179:8229   */\n      tag_203\n        /* \"#utility.yul\":8223:8228   */\n      dup3\n        /* \"#utility.yul\":8179:8229   */\n      tag_204\n      jump\t// in\n    tag_203:\n        /* \"#utility.yul\":8090:8235   */\n      swap2\n      swap1\n      pop\n      jump\t// out\n        /* \"#utility.yul\":8241:8367   */\n    tag_200:\n        /* \"#utility.yul\":8278:8285   */\n      0x00\n        /* \"#utility.yul\":8318:8360   */\n      0xffffffffffffffffffffffffffffffffffffffff\n        /* \"#utility.yul\":8311:8316   */\n      dup3\n        /* \"#utility.yul\":8307:8361   */\n      and\n        /* \"#utility.yul\":8296:8361   */\n      swap1\n      pop\n        /* \"#utility.yul\":8241:8367   */\n      swap2\n      swap1\n      pop\n      jump\t// out\n        /* \"#utility.yul\":8373:8450   */\n    tag_163:\n        /* \"#utility.yul\":8410:8417   */\n      0x00\n        /* \"#utility.yul\":8439:8444   */\n      dup2\n        /* \"#utility.yul\":8428:8444   */\n      swap1\n      pop\n        /* \"#utility.yul\":8373:8450   */\n      swap2\n      swap1\n      pop\n      jump\t// out\n        /* \"#utility.yul\":8456:8609   */\n    tag_130:\n        /* \"#utility.yul\":8525:8534   */\n      0x00\n        /* \"#utility.yul\":8558:8603   */\n      tag_208\n        /* \"#utility.yul\":8597:8602   */\n      dup3\n        /* \"#utility.yul\":8558:8603   */\n      tag_209\n      jump\t// in\n    tag_208:\n        /* \"#utility.yul\":8545:8603   */\n      swap1\n      pop\n        /* \"#utility.yul\":8456:8609   */\n      swap2\n      swap1\n      pop\n      jump\t// out\n        /* \"#utility.yul\":8615:8760   */\n    tag_134:\n        /* \"#utility.yul\":8680:8689   */\n      0x00\n        /* \"#utility.yul\":8713:8754   */\n      tag_211\n        /* \"#utility.yul\":8748:8753   */\n      dup3\n        /* \"#utility.yul\":8713:8754   */\n      tag_201\n      jump\t// in\n    tag_211:\n        /* \"#utility.yul\":8700:8754   */\n      swap1\n      pop\n        /* \"#utility.yul\":8615:8760   */\n      swap2\n      swap1\n      pop\n      jump\t// out\n        /* \"#utility.yul\":8766:8900   */\n    tag_209:\n        /* \"#utility.yul\":8824:8833   */\n      0x00\n        /* \"#utility.yul\":8857:8894   */\n      tag_213\n        /* \"#utility.yul\":8888:8893   */\n      dup3\n        /* \"#utility.yul\":8857:8894   */\n      tag_214\n      jump\t// in\n    tag_213:\n        /* \"#utility.yul\":8844:8894   */\n      swap1\n      pop\n        /* \"#utility.yul\":8766:8900   */\n      swap2\n      swap1\n      pop\n      jump\t// out\n        /* \"#utility.yul\":8906:9019   */\n    tag_214:\n        /* \"#utility.yul\":8956:8965   */\n      0x00\n        /* \"#utility.yul\":8989:9013   */\n      tag_216\n        /* \"#utility.yul\":9007:9012   */\n      dup3\n        /* \"#utility.yul\":8989:9013   */\n      tag_200\n      jump\t// in\n    tag_216:\n        /* \"#utility.yul\":8976:9013   */\n      swap1\n      pop\n        /* \"#utility.yul\":8906:9019   */\n      swap2\n      swap1\n      pop\n      jump\t// out\n        /* \"#utility.yul\":9025:9179   */\n    tag_99:\n        /* \"#utility.yul\":9109:9115   */\n      dup3\n        /* \"#utility.yul\":9104:9107   */\n      dup2\n        /* \"#utility.yul\":9099:9102   */\n      dup4\n        /* \"#utility.yul\":9086:9116   */\n      calldatacopy\n        /* \"#utility.yul\":9171:9172   */\n      0x00\n        /* \"#utility.yul\":9162:9168   */\n      dup4\n        /* \"#utility.yul\":9157:9160   */\n      dup4\n        /* \"#utility.yul\":9153:9169   */\n      add\n        /* \"#utility.yul\":9146:9173   */\n      mstore\n        /* \"#utility.yul\":9025:9179   */\n      pop\n      pop\n      pop\n      jump\t// out\n        /* \"#utility.yul\":9185:9492   */\n    tag_142:\n        /* \"#utility.yul\":9253:9254   */\n      0x00\n        /* \"#utility.yul\":9263:9376   */\n    tag_219:\n        /* \"#utility.yul\":9277:9283   */\n      dup4\n        /* \"#utility.yul\":9274:9275   */\n      dup2\n        /* \"#utility.yul\":9271:9284   */\n      lt\n        /* \"#utility.yul\":9263:9376   */\n      iszero\n      tag_221\n      jumpi\n        /* \"#utility.yul\":9362:9363   */\n      dup1\n        /* \"#utility.yul\":9357:9360   */\n      dup3\n        /* \"#utility.yul\":9353:9364   */\n      add\n        /* \"#utility.yul\":9347:9365   */\n      mload\n        /* \"#utility.yul\":9343:9344   */\n      dup2\n        /* \"#utility.yul\":9338:9341   */\n      dup5\n        /* \"#utility.yul\":9334:9345   */\n      add\n        /* \"#utility.yul\":9327:9366   */\n      mstore\n        /* \"#utility.yul\":9299:9301   */\n      0x20\n        /* \"#utility.yul\":9296:9297   */\n      dup2\n        /* \"#utility.yul\":9292:9302   */\n      add\n        /* \"#utility.yul\":9287:9302   */\n      swap1\n      pop\n        /* \"#utility.yul\":9263:9376   */\n      jump(tag_219)\n    tag_221:\n        /* \"#utility.yul\":9394:9400   */\n      dup4\n        /* \"#utility.yul\":9391:9392   */\n      dup2\n        /* \"#utility.yul\":9388:9401   */\n      gt\n        /* \"#utility.yul\":9385:9486   */\n      iszero\n      tag_222\n      jumpi\n        /* \"#utility.yul\":9474:9475   */\n      0x00\n        /* \"#utility.yul\":9465:9471   */\n      dup5\n        /* \"#utility.yul\":9460:9463   */\n      dup5\n        /* \"#utility.yul\":9456:9472   */\n      add\n        /* \"#utility.yul\":9449:9476   */\n      mstore\n        /* \"#utility.yul\":9385:9486   */\n    tag_222:\n        /* \"#utility.yul\":9234:9492   */\n      pop\n        /* \"#utility.yul\":9185:9492   */\n      pop\n      pop\n      pop\n      jump\t// out\n        /* \"#utility.yul\":9498:9818   */\n    tag_61:\n        /* \"#utility.yul\":9542:9548   */\n      0x00\n        /* \"#utility.yul\":9579:9580   */\n      0x02\n        /* \"#utility.yul\":9573:9577   */\n      dup3\n        /* \"#utility.yul\":9569:9581   */\n      div\n        /* \"#utility.yul\":9559:9581   */\n      swap1\n      pop\n        /* \"#utility.yul\":9626:9627   */\n      0x01\n        /* \"#utility.yul\":9620:9624   */\n      dup3\n        /* \"#utility.yul\":9616:9628   */\n      and\n        /* \"#utility.yul\":9647:9665   */\n      dup1\n        /* \"#utility.yul\":9637:9718   */\n      tag_224\n      jumpi\n        /* \"#utility.yul\":9703:9707   */\n      0x7f\n        /* \"#utility.yul\":9695:9701   */\n      dup3\n        /* \"#utility.yul\":9691:9708   */\n      and\n        /* \"#utility.yul\":9681:9708   */\n      swap2\n      pop\n        /* \"#utility.yul\":9637:9718   */\n    tag_224:\n        /* \"#utility.yul\":9765:9767   */\n      0x20\n        /* \"#utility.yul\":9757:9763   */\n      dup3\n        /* \"#utility.yul\":9754:9768   */\n      lt\n        /* \"#utility.yul\":9734:9752   */\n      dup2\n        /* \"#utility.yul\":9731:9769   */\n      eq\n        /* \"#utility.yul\":9728:9812   */\n      iszero\n      tag_225\n      jumpi\n        /* \"#utility.yul\":9784:9802   */\n      tag_226\n      tag_227\n      jump\t// in\n    tag_226:\n        /* \"#utility.yul\":9728:9812   */\n    tag_225:\n        /* \"#utility.yul\":9549:9818   */\n      pop\n        /* \"#utility.yul\":9498:9818   */\n      swap2\n      swap1\n      pop\n      jump\t// out\n        /* \"#utility.yul\":9824:10105   */\n    tag_189:\n        /* \"#utility.yul\":9907:9934   */\n      tag_229\n        /* \"#utility.yul\":9929:9933   */\n      dup3\n        /* \"#utility.yul\":9907:9934   */\n      tag_144\n      jump\t// in\n    tag_229:\n        /* \"#utility.yul\":9899:9905   */\n      dup2\n        /* \"#utility.yul\":9895:9935   */\n      add\n        /* \"#utility.yul\":10037:10043   */\n      dup2\n        /* \"#utility.yul\":10025:10035   */\n      dup2\n        /* \"#utility.yul\":10022:10044   */\n      lt\n        /* \"#utility.yul\":10001:10019   */\n      0xffffffffffffffff\n        /* \"#utility.yul\":9989:9999   */\n      dup3\n        /* \"#utility.yul\":9986:10020   */\n      gt\n        /* \"#utility.yul\":9983:10045   */\n      or\n        /* \"#utility.yul\":9980:10068   */\n      iszero\n      tag_230\n      jumpi\n        /* \"#utility.yul\":10048:10066   */\n      tag_231\n      tag_194\n      jump\t// in\n    tag_231:\n        /* \"#utility.yul\":9980:10068   */\n    tag_230:\n        /* \"#utility.yul\":10088:10098   */\n      dup1\n        /* \"#utility.yul\":10084:10086   */\n      0x40\n        /* \"#utility.yul\":10077:10099   */\n      mstore\n        /* \"#utility.yul\":9867:10105   */\n      pop\n        /* \"#utility.yul\":9824:10105   */\n      pop\n      pop\n      jump\t// out\n        /* \"#utility.yul\":10111:10344   */\n    tag_59:\n        /* \"#utility.yul\":10150:10153   */\n      0x00\n        /* \"#utility.yul\":10173:10197   */\n      tag_233\n        /* \"#utility.yul\":10191:10196   */\n      dup3\n        /* \"#utility.yul\":10173:10197   */\n      tag_163\n      jump\t// in\n    tag_233:\n        /* \"#utility.yul\":10164:10197   */\n      swap2\n      pop\n        /* \"#utility.yul\":10219:10285   */\n      0xffffffffffffffffffffffffffffffffffffffffffffffffffffffffffffffff\n        /* \"#utility.yul\":10212:10217   */\n      dup3\n        /* \"#utility.yul\":10209:10286   */\n      eq\n        /* \"#utility.yul\":10206:10309   */\n      iszero\n      tag_234\n      jumpi\n        /* \"#utility.yul\":10289:10307   */\n      tag_235\n      tag_236\n      jump\t// in\n    tag_235:\n        /* \"#utility.yul\":10206:10309   */\n    tag_234:\n        /* \"#utility.yul\":10336:10337   */\n      0x01\n        /* \"#utility.yul\":10329:10334   */\n      dup3\n        /* \"#utility.yul\":10325:10338   */\n      add\n        /* \"#utility.yul\":10318:10338   */\n      swap1\n      pop\n        /* \"#utility.yul\":10111:10344   */\n      swap2\n      swap1\n      pop\n      jump\t// out\n        /* \"#utility.yul\":10350:10530   */\n    tag_236:\n        /* \"#utility.yul\":10398:10475   */\n      0x4e487b7100000000000000000000000000000000000000000000000000000000\n        /* \"#utility.yul\":10395:10396   */\n      0x00\n        /* \"#utility.yul\":10388:10476   */\n      mstore\n        /* \"#utility.yul\":10495:10499   */\n      0x11\n        /* \"#utility.yul\":10492:10493   */\n      0x04\n        /* \"#utility.yul\":10485:10500   */\n      mstore\n        /* \"#utility.yul\":10519:10523   */\n      0x24\n        /* \"#utility.yul\":10516:10517   */\n      0x00\n        /* \"#utility.yul\":10509:10524   */\n      revert\n        /* \"#utility.yul\":10536:10716   */\n    tag_37:\n        /* \"#utility.yul\":10584:10661   */\n      0x4e487b7100000000000000000000000000000000000000000000000000000000\n        /* \"#utility.yul\":10581:10582   */\n      0x00\n        /* \"#utility.yul\":10574:10662   */\n      mstore\n        /* \"#utility.yul\":10681:10685   */\n      0x21\n        /* \"#utility.yul\":10678:10679   */\n      0x04\n        /* \"#utility.yul\":10671:10686   */\n      mstore\n        /* \"#utility.yul\":10705:10709   */\n      0x24\n        /* \"#utility.yul\":10702:10703   */\n      0x00\n        /* \"#utility.yul\":10695:10710   */\n      revert\n        /* \"#utility.yul\":10722:10902   */\n    tag_227:\n        /* \"#utility.yul\":10770:10847   */\n      0x4e487b7100000000000000000000000000000000000000000000000000000000\n        /* \"#utility.yul\":10767:10768   */\n      0x00\n        /* \"#utility.yul\":10760:10848   */\n      mstore\n        /* \"#utility.yul\":10867:10871   */\n      0x22\n        /* \"#utility.yul\":10864:10865   */\n      0x04\n        /* \"#utility.yul\":10857:10872   */\n      mstore\n        /* \"#utility.yul\":10891:10895   */\n      0x24\n        /* \"#utility.yul\":10888:10889   */\n      0x00\n        /* \"#utility.yul\":10881:10896   */\n      revert\n        /* \"#utility.yul\":10908:11088   */\n    tag_194:\n        /* \"#utility.yul\":10956:11033   */\n      0x4e487b7100000000000000000000000000000000000000000000000000000000\n        /* \"#utility.yul\":10953:10954   */\n      0x00\n        /* \"#utility.yul\":10946:11034   */\n      mstore\n        /* \"#utility.yul\":11053:11057   */\n      0x41\n        /* \"#utility.yul\":11050:11051   */\n      0x04\n        /* \"#utility.yul\":11043:11058   */\n      mstore\n        /* \"#utility.yul\":11077:11081   */\n      0x24\n        /* \"#utility.yul\":11074:11075   */\n      0x00\n        /* \"#utility.yul\":11067:11082   */\n      revert\n        /* \"#utility.yul\":11094:11211   */\n    tag_104:\n        /* \"#utility.yul\":11203:11204   */\n      0x00\n        /* \"#utility.yul\":11200:11201   */\n      dup1\n        /* \"#utility.yul\":11193:11205   */\n      revert\n        /* \"#utility.yul\":11217:11334   */\n    tag_97:\n        /* \"#utility.yul\":11326:11327   */\n      0x00\n        /* \"#utility.yul\":11323:11324   */\n      dup1\n        /* \"#utility.yul\":11316:11328   */\n      revert\n        /* \"#utility.yul\":11340:11457   */\n    tag_116:\n        /* \"#utility.yul\":11449:11450   */\n      0x00\n        /* \"#utility.yul\":11446:11447   */\n      dup1\n        /* \"#utility.yul\":11439:11451   */\n      revert\n        /* \"#utility.yul\":11463:11580   */\n    tag_113:\n        /* \"#utility.yul\":11572:11573   */\n      0x00\n        /* \"#utility.yul\":11569:11570   */\n      dup1\n        /* \"#utility.yul\":11562:11574   */\n      revert\n        /* \"#utility.yul\":11586:11688   */\n    tag_144:\n        /* \"#utility.yul\":11627:11633   */\n      0x00\n        /* \"#utility.yul\":11678:11680   */\n      0x1f\n        /* \"#utility.yul\":11674:11681   */\n      not\n        /* \"#utility.yul\":11669:11671   */\n      0x1f\n        /* \"#utility.yul\":11662:11667   */\n      dup4\n        /* \"#utility.yul\":11658:11672   */\n      add\n        /* \"#utility.yul\":11654:11682   */\n      and\n        /* \"#utility.yul\":11644:11682   */\n      swap1\n      pop\n        /* \"#utility.yul\":11586:11688   */\n      swap2\n      swap1\n      pop\n      jump\t// out\n        /* \"#utility.yul\":11694:11868   */\n    tag_149:\n        /* \"#utility.yul\":11834:11860   */\n      0x506c656173652070617920657861637420616d6f756e742e0000000000000000\n        /* \"#utility.yul\":11830:11831   */\n      0x00\n        /* \"#utility.yul\":11822:11828   */\n      dup3\n        /* \"#utility.yul\":11818:11832   */\n      add\n        /* \"#utility.yul\":11811:11861   */\n      mstore\n        /* \"#utility.yul\":11694:11868   */\n      pop\n      jump\t// out\n        /* \"#utility.yul\":11874:12104   */\n    tag_154:\n        /* \"#utility.yul\":12014:12048   */\n      0x4974656d20686173206265656e20616c7265616479207061696420666f72206f\n        /* \"#utility.yul\":12010:12011   */\n      0x00\n        /* \"#utility.yul\":12002:12008   */\n      dup3\n        /* \"#utility.yul\":11998:12012   */\n      add\n        /* \"#utility.yul\":11991:12049   */\n      mstore\n        /* \"#utility.yul\":12083:12096   */\n      0x722064656c697665726564000000000000000000000000000000000000000000\n        /* \"#utility.yul\":12078:12080   */\n      0x20\n        /* \"#utility.yul\":12070:12076   */\n      dup3\n        /* \"#utility.yul\":12066:12081   */\n      add\n        /* \"#utility.yul\":12059:12097   */\n      mstore\n        /* \"#utility.yul\":11874:12104   */\n      pop\n      jump\t// out\n        /* \"#utility.yul\":12110:12284   */\n    tag_159:\n        /* \"#utility.yul\":12250:12276   */\n      0x4974656d206177616974696e67207061796d656e742e2e2e0000000000000000\n        /* \"#utility.yul\":12246:12247   */\n      0x00\n        /* \"#utility.yul\":12238:12244   */\n      dup3\n        /* \"#utility.yul\":12234:12248   */\n      add\n        /* \"#utility.yul\":12227:12277   */\n      mstore\n        /* \"#utility.yul\":12110:12284   */\n      pop\n      jump\t// out\n        /* \"#utility.yul\":12290:12412   */\n    tag_204:\n        /* \"#utility.yul\":12380:12381   */\n      0x03\n        /* \"#utility.yul\":12373:12378   */\n      dup2\n        /* \"#utility.yul\":12370:12382   */\n      lt\n        /* \"#utility.yul\":12360:12406   */\n      tag_250\n      jumpi\n        /* \"#utility.yul\":12386:12404   */\n      tag_251\n      tag_37\n      jump\t// in\n    tag_251:\n        /* \"#utility.yul\":12360:12406   */\n    tag_250:\n        /* \"#utility.yul\":12290:12412   */\n      pop\n      jump\t// out\n        /* \"#utility.yul\":12418:12540   */\n    tag_109:\n        /* \"#utility.yul\":12491:12515   */\n      tag_253\n        /* \"#utility.yul\":12509:12514   */\n      dup2\n        /* \"#utility.yul\":12491:12515   */\n      tag_163\n      jump\t// in\n    tag_253:\n        /* \"#utility.yul\":12484:12489   */\n      dup2\n        /* \"#utility.yul\":12481:12516   */\n      eq\n        /* \"#utility.yul\":12471:12534   */\n      tag_254\n      jumpi\n        /* \"#utility.yul\":12530:12531   */\n      0x00\n        /* \"#utility.yul\":12527:12528   */\n      dup1\n        /* \"#utility.yul\":12520:12532   */\n      revert\n        /* \"#utility.yul\":12471:12534   */\n    tag_254:\n        /* \"#utility.yul\":12418:12540   */\n      pop\n      jump\t// out\n    stop\n\n    sub_0: assembly {\n            /* \"contracts/item.sol\":60:990  contract Item {\r... */\n          mstore(0x40, 0x80)\n            /* \"contracts/item.sol\":198:378  constructor(uint _itemPriceInWei, uint _itemIndex, address _addr) public {\r... */\n          callvalue\n          dup1\n          iszero\n          tag_1\n          jumpi\n          0x00\n          dup1\n          revert\n        tag_1:\n          pop\n          mload(0x40)\n          sub(codesize, bytecodeSize)\n          dup1\n          bytecodeSize\n          dup4\n          codecopy\n          dup2\n          dup2\n          add\n          0x40\n          mstore\n          dup2\n          add\n          swap1\n          tag_2\n          swap2\n          swap1\n          tag_3\n          jump\t// in\n        tag_2:\n            /* \"contracts/item.sol\":299:314  _itemPriceInWei */\n          dup3\n            /* \"contracts/item.sol\":282:296  itemPriceInWei */\n          0x00\n            /* \"contracts/item.sol\":282:314  itemPriceInWei = _itemPriceInWei */\n          dup2\n          swap1\n          sstore\n          pop\n            /* \"contracts/item.sol\":337:347  _itemIndex */\n          dup2\n            /* \"contracts/item.sol\":325:334  itemIndex */\n          0x02\n            /* \"contracts/item.sol\":325:347  itemIndex = _itemIndex */\n          dup2\n          swap1\n          sstore\n          pop\n            /* \"contracts/item.sol\":365:370  _addr */\n          dup1\n            /* \"contracts/item.sol\":358:362  addr */\n          0x03\n          0x00\n            /* \"contracts/item.sol\":358:370  addr = _addr */\n          0x0100\n          exp\n          dup2\n          sload\n          dup2\n          0xffffffffffffffffffffffffffffffffffffffff\n          mul\n          not\n          and\n          swap1\n          dup4\n          0xffffffffffffffffffffffffffffffffffffffff\n          and\n          mul\n          or\n          swap1\n          sstore\n          pop\n            /* \"contracts/item.sol\":198:378  constructor(uint _itemPriceInWei, uint _itemIndex, address _addr) public {\r... */\n          pop\n          pop\n          pop\n            /* \"contracts/item.sol\":60:990  contract Item {\r... */\n          jump(tag_6)\n            /* \"#utility.yul\":7:150   */\n        tag_8:\n            /* \"#utility.yul\":64:69   */\n          0x00\n            /* \"#utility.yul\":95:101   */\n          dup2\n            /* \"#utility.yul\":89:102   */\n          mload\n            /* \"#utility.yul\":80:102   */\n          swap1\n          pop\n            /* \"#utility.yul\":111:144   */\n          tag_10\n            /* \"#utility.yul\":138:143   */\n          dup2\n            /* \"#utility.yul\":111:144   */\n          tag_11\n          jump\t// in\n        tag_10:\n            /* \"#utility.yul\":7:150   */\n          swap3\n          swap2\n          pop\n          pop\n          jump\t// out\n            /* \"#utility.yul\":156:299   */\n        tag_12:\n            /* \"#utility.yul\":213:218   */\n          0x00\n            /* \"#utility.yul\":244:250   */\n          dup2\n            /* \"#utility.yul\":238:251   */\n          mload\n            /* \"#utility.yul\":229:251   */\n          swap1\n          pop\n            /* \"#utility.yul\":260:293   */\n          tag_14\n            /* \"#utility.yul\":287:292   */\n          dup2\n            /* \"#utility.yul\":260:293   */\n          tag_15\n          jump\t// in\n        tag_14:\n            /* \"#utility.yul\":156:299   */\n          swap3\n          swap2\n          pop\n          pop\n          jump\t// out\n            /* \"#utility.yul\":305:968   */\n        tag_3:\n            /* \"#utility.yul\":393:399   */\n          0x00\n            /* \"#utility.yul\":401:407   */\n          dup1\n            /* \"#utility.yul\":409:415   */\n          0x00\n            /* \"#utility.yul\":458:460   */\n          0x60\n            /* \"#utility.yul\":446:455   */\n          dup5\n            /* \"#utility.yul\":437:444   */\n          dup7\n            /* \"#utility.yul\":433:456   */\n          sub\n            /* \"#utility.yul\":429:461   */\n          slt\n            /* \"#utility.yul\":426:545   */\n          iszero\n          tag_17\n          jumpi\n            /* \"#utility.yul\":464:543   */\n          tag_18\n          tag_19\n          jump\t// in\n        tag_18:\n            /* \"#utility.yul\":426:545   */\n        tag_17:\n            /* \"#utility.yul\":584:585   */\n          0x00\n            /* \"#utility.yul\":609:673   */\n          tag_20\n            /* \"#utility.yul\":665:672   */\n          dup7\n            /* \"#utility.yul\":656:662   */\n          dup3\n            /* \"#utility.yul\":645:654   */\n          dup8\n            /* \"#utility.yul\":641:663   */\n          add\n            /* \"#utility.yul\":609:673   */\n          tag_12\n          jump\t// in\n        tag_20:\n            /* \"#utility.yul\":599:673   */\n          swap4\n          pop\n            /* \"#utility.yul\":555:683   */\n          pop\n            /* \"#utility.yul\":722:724   */\n          0x20\n            /* \"#utility.yul\":748:812   */\n          tag_21\n            /* \"#utility.yul\":804:811   */\n          dup7\n            /* \"#utility.yul\":795:801   */\n          dup3\n            /* \"#utility.yul\":784:793   */\n          dup8\n            /* \"#utility.yul\":780:802   */\n          add\n            /* \"#utility.yul\":748:812   */\n          tag_12\n          jump\t// in\n        tag_21:\n            /* \"#utility.yul\":738:812   */\n          swap3\n          pop\n            /* \"#utility.yul\":693:822   */\n          pop\n            /* \"#utility.yul\":861:863   */\n          0x40\n            /* \"#utility.yul\":887:951   */\n          tag_22\n            /* \"#utility.yul\":943:950   */\n          dup7\n            /* \"#utility.yul\":934:940   */\n          dup3\n            /* \"#utility.yul\":923:932   */\n          dup8\n            /* \"#utility.yul\":919:941   */\n          add\n            /* \"#utility.yul\":887:951   */\n          tag_8\n          jump\t// in\n        tag_22:\n            /* \"#utility.yul\":877:951   */\n          swap2\n          pop\n            /* \"#utility.yul\":832:961   */\n          pop\n            /* \"#utility.yul\":305:968   */\n          swap3\n          pop\n          swap3\n          pop\n          swap3\n          jump\t// out\n            /* \"#utility.yul\":1055:1151   */\n        tag_25:\n            /* \"#utility.yul\":1092:1099   */\n          0x00\n            /* \"#utility.yul\":1121:1145   */\n          tag_27\n            /* \"#utility.yul\":1139:1144   */\n          dup3\n            /* \"#utility.yul\":1121:1145   */\n          tag_28\n          jump\t// in\n        tag_27:\n            /* \"#utility.yul\":1110:1145   */\n          swap1\n          pop\n            /* \"#utility.yul\":1055:1151   */\n          swap2\n          swap1\n          pop\n          jump\t// out\n            /* \"#utility.yul\":1157:1283   */\n        tag_28:\n            /* \"#utility.yul\":1194:1201   */\n          0x00\n            /* \"#utility.yul\":1234:1276   */\n          0xffffffffffffffffffffffffffffffffffffffff\n            /* \"#utility.yul\":1227:1232   */\n          dup3\n            /* \"#utility.yul\":1223:1277   */\n          and\n            /* \"#utility.yul\":1212:1277   */\n          swap1\n          pop\n            /* \"#utility.yul\":1157:1283   */\n          swap2\n          swap1\n          pop\n          jump\t// out\n            /* \"#utility.yul\":1289:1366   */\n        tag_30:\n            /* \"#utility.yul\":1326:1333   */\n          0x00\n            /* \"#utility.yul\":1355:1360   */\n          dup2\n            /* \"#utility.yul\":1344:1360   */\n          swap1\n          pop\n            /* \"#utility.yul\":1289:1366   */\n          swap2\n          swap1\n          pop\n          jump\t// out\n            /* \"#utility.yul\":1495:1612   */\n        tag_19:\n            /* \"#utility.yul\":1604:1605   */\n          0x00\n            /* \"#utility.yul\":1601:1602   */\n          dup1\n            /* \"#utility.yul\":1594:1606   */\n          revert\n            /* \"#utility.yul\":1618:1740   */\n        tag_11:\n            /* \"#utility.yul\":1691:1715   */\n          tag_36\n            /* \"#utility.yul\":1709:1714   */\n          dup2\n            /* \"#utility.yul\":1691:1715   */\n          tag_25\n          jump\t// in\n        tag_36:\n            /* \"#utility.yul\":1684:1689   */\n          dup2\n            /* \"#utility.yul\":1681:1716   */\n          eq\n            /* \"#utility.yul\":1671:1734   */\n          tag_37\n          jumpi\n            /* \"#utility.yul\":1730:1731   */\n          0x00\n            /* \"#utility.yul\":1727:1728   */\n          dup1\n            /* \"#utility.yul\":1720:1732   */\n          revert\n            /* \"#utility.yul\":1671:1734   */\n        tag_37:\n            /* \"#utility.yul\":1618:1740   */\n          pop\n          jump\t// out\n            /* \"#utility.yul\":1746:1868   */\n        tag_15:\n            /* \"#utility.yul\":1819:1843   */\n          tag_39\n            /* \"#utility.yul\":1837:1842   */\n          dup2\n            /* \"#utility.yul\":1819:1843   */\n          tag_30\n          jump\t// in\n        tag_39:\n            /* \"#utility.yul\":1812:1817   */\n          dup2\n            /* \"#utility.yul\":1809:1844   */\n          eq\n            /* \"#utility.yul\":1799:1862   */\n          tag_40\n          jumpi\n            /* \"#utility.yul\":1858:1859   */\n          0x00\n            /* \"#utility.yul\":1855:1856   */\n          dup1\n            /* \"#utility.yul\":1848:1860   */\n          revert\n            /* \"#utility.yul\":1799:1862   */\n        tag_40:\n            /* \"#utility.yul\":1746:1868   */\n          pop\n          jump\t// out\n            /* \"contracts/item.sol\":60:990  contract Item {\r... */\n        tag_6:\n          dataSize(sub_0)\n          dup1\n          dataOffset(sub_0)\n          0x00\n          codecopy\n          0x00\n          return\n        stop\n\n        sub_0: assembly {\n                /* \"contracts/item.sol\":60:990  contract Item {\r... */\n              mstore(0x40, 0x80)\n              jumpi(tag_1, lt(calldatasize, 0x04))\n              shr(0xe0, calldataload(0x00))\n              dup1\n              0x767800de\n              eq\n              tag_3\n              jumpi\n              dup1\n              0x89794d00\n              eq\n              tag_4\n              jumpi\n              dup1\n              0xc784a6e6\n              eq\n              tag_5\n              jumpi\n              dup1\n              0xe07bb1a7\n              eq\n              tag_6\n              jumpi\n              jump(tag_2)\n            tag_1:\n            tag_2:\n                /* \"contracts/item.sol\":448:449  0 */\n              0x00\n                /* \"contracts/item.sol\":435:444  pricePaid */\n              sload(0x01)\n                /* \"contracts/item.sol\":435:449  pricePaid == 0 */\n              eq\n                /* \"contracts/item.sol\":426:479  require (pricePaid == 0, \"Item is paid for already.\") */\n              tag_9\n              jumpi\n              mload(0x40)\n              0x08c379a000000000000000000000000000000000000000000000000000000000\n              dup2\n              mstore\n              0x04\n              add\n              tag_10\n              swap1\n              tag_11\n              jump\t// in\n            tag_10:\n              mload(0x40)\n              dup1\n              swap2\n              sub\n              swap1\n              revert\n            tag_9:\n                /* \"contracts/item.sol\":517:526  msg.value */\n              callvalue\n                /* \"contracts/item.sol\":499:513  itemPriceInWei */\n              sload(0x00)\n                /* \"contracts/item.sol\":499:526  itemPriceInWei == msg.value */\n              eq\n                /* \"contracts/item.sol\":490:555  require (itemPriceInWei == msg.value, \"Please pay exact amount.\") */\n              tag_12\n              jumpi\n              mload(0x40)\n              0x08c379a000000000000000000000000000000000000000000000000000000000\n              dup2\n              mstore\n              0x04\n              add\n              tag_13\n              swap1\n              tag_14\n              jump\t// in\n            tag_13:\n              mload(0x40)\n              dup1\n              swap2\n              sub\n              swap1\n              revert\n            tag_12:\n                /* \"contracts/item.sol\":579:588  msg.value */\n              callvalue\n                /* \"contracts/item.sol\":566:575  pricePaid */\n              0x01\n              0x00\n                /* \"contracts/item.sol\":566:588  pricePaid += msg.value */\n              dup3\n              dup3\n              sload\n              tag_15\n              swap2\n              swap1\n              tag_16\n              jump\t// in\n            tag_15:\n              swap3\n              pop\n              pop\n              dup2\n              swap1\n              sstore\n              pop\n                /* \"contracts/item.sol\":735:747  bool success */\n              0x00\n                /* \"contracts/item.sol\":754:758  addr */\n              0x03\n              0x00\n              swap1\n              sload\n              swap1\n              0x0100\n              exp\n              swap1\n              div\n              0xffffffffffffffffffffffffffffffffffffffff\n              and\n                /* \"contracts/item.sol\":754:763  addr.call */\n              0xffffffffffffffffffffffffffffffffffffffff\n              and\n                /* \"contracts/item.sol\":772:781  msg.value */\n              callvalue\n                /* \"contracts/item.sol\":789:797  80000000 */\n              0x04c4b400\n                /* \"contracts/item.sol\":754:862  addr.call{value : msg.value, gas : 80000000 }(abi.encodeWithSignature(\"triggerPayment(uint256)\", itemIndex)) */\n              swap1\n                /* \"contracts/item.sol\":851:860  itemIndex */\n              sload(0x02)\n                /* \"contracts/item.sol\":800:861  abi.encodeWithSignature(\"triggerPayment(uint256)\", itemIndex) */\n              add(0x24, mload(0x40))\n              tag_17\n              swap2\n              swap1\n              tag_18\n              jump\t// in\n            tag_17:\n              mload(0x40)\n              0x20\n              dup2\n              dup4\n              sub\n              sub\n              dup2\n              mstore\n              swap1\n              0x40\n              mstore\n              and(not(0xffffffffffffffffffffffffffffffffffffffffffffffffffffffff), 0x800fb83f00000000000000000000000000000000000000000000000000000000)\n              0x20\n              dup3\n              add\n              dup1\n              mload\n              0xffffffffffffffffffffffffffffffffffffffffffffffffffffffff\n              dup4\n              dup2\n              dup4\n              and\n              or\n              dup4\n              mstore\n              pop\n              pop\n              pop\n              pop\n                /* \"contracts/item.sol\":754:862  addr.call{value : msg.value, gas : 80000000 }(abi.encodeWithSignature(\"triggerPayment(uint256)\", itemIndex)) */\n              mload(0x40)\n              tag_19\n              swap2\n              swap1\n              tag_20\n              jump\t// in\n            tag_19:\n              0x00\n              mload(0x40)\n              dup1\n              dup4\n              sub\n              dup2\n              dup6\n              dup9\n              dup9\n              call\n              swap4\n              pop\n              pop\n              pop\n              pop\n              returndatasize\n              dup1\n              0x00\n              dup2\n              eq\n              tag_23\n              jumpi\n              mload(0x40)\n              swap2\n              pop\n              and(add(returndatasize, 0x3f), not(0x1f))\n              dup3\n              add\n              0x40\n              mstore\n              returndatasize\n              dup3\n              mstore\n              returndatasize\n              0x00\n              0x20\n              dup5\n              add\n              returndatacopy\n              jump(tag_22)\n            tag_23:\n              0x60\n              swap2\n              pop\n            tag_22:\n              pop\n                /* \"contracts/item.sol\":734:862  (bool success, ) =  addr.call{value : msg.value, gas : 80000000 }(abi.encodeWithSignature(\"triggerPayment(uint256)\", itemIndex)) */\n              pop\n              swap1\n              pop\n                /* \"contracts/item.sol\":882:889  success */\n              dup1\n                /* \"contracts/item.sol\":873:938  require (success, \"Transaction unsuccessful, cancelling payment\") */\n              tag_24\n              jumpi\n              mload(0x40)\n              0x08c379a000000000000000000000000000000000000000000000000000000000\n              dup2\n              mstore\n              0x04\n              add\n              tag_25\n              swap1\n              tag_26\n              jump\t// in\n            tag_25:\n              mload(0x40)\n              dup1\n              swap2\n              sub\n              swap1\n              revert\n            tag_24:\n                /* \"contracts/item.sol\":415:946  {\r... */\n              pop\n                /* \"contracts/item.sol\":60:990  contract Item {\r... */\n              stop\n                /* \"contracts/item.sol\":170:189  address public addr */\n            tag_3:\n              callvalue\n              dup1\n              iszero\n              tag_27\n              jumpi\n              0x00\n              dup1\n              revert\n            tag_27:\n              pop\n              tag_28\n              tag_29\n              jump\t// in\n            tag_28:\n              mload(0x40)\n              tag_30\n              swap2\n              swap1\n              tag_31\n              jump\t// in\n            tag_30:\n              mload(0x40)\n              dup1\n              swap2\n              sub\n              swap1\n              return\n                /* \"contracts/item.sol\":114:135  uint public pricePaid */\n            tag_4:\n              callvalue\n              dup1\n              iszero\n              tag_32\n              jumpi\n              0x00\n              dup1\n              revert\n            tag_32:\n              pop\n              tag_33\n              tag_34\n              jump\t// in\n            tag_33:\n              mload(0x40)\n              tag_35\n              swap2\n              swap1\n              tag_18\n              jump\t// in\n            tag_35:\n              mload(0x40)\n              dup1\n              swap2\n              sub\n              swap1\n              return\n                /* \"contracts/item.sol\":81:107  uint public itemPriceInWei */\n            tag_5:\n              callvalue\n              dup1\n              iszero\n              tag_36\n              jumpi\n              0x00\n              dup1\n              revert\n            tag_36:\n              pop\n              tag_37\n              tag_38\n              jump\t// in\n            tag_37:\n              mload(0x40)\n              tag_39\n              swap2\n              swap1\n              tag_18\n              jump\t// in\n            tag_39:\n              mload(0x40)\n              dup1\n              swap2\n              sub\n              swap1\n              return\n                /* \"contracts/item.sol\":142:163  uint public itemIndex */\n            tag_6:\n              callvalue\n              dup1\n              iszero\n              tag_40\n              jumpi\n              0x00\n              dup1\n              revert\n            tag_40:\n              pop\n              tag_41\n              tag_42\n              jump\t// in\n            tag_41:\n              mload(0x40)\n              tag_43\n              swap2\n              swap1\n              tag_18\n              jump\t// in\n            tag_43:\n              mload(0x40)\n              dup1\n              swap2\n              sub\n              swap1\n              return\n                /* \"contracts/item.sol\":170:189  address public addr */\n            tag_29:\n              0x03\n              0x00\n              swap1\n              sload\n              swap1\n              0x0100\n              exp\n              swap1\n              div\n              0xffffffffffffffffffffffffffffffffffffffff\n              and\n              dup2\n              jump\t// out\n                /* \"contracts/item.sol\":114:135  uint public pricePaid */\n            tag_34:\n              sload(0x01)\n              dup2\n              jump\t// out\n                /* \"contracts/item.sol\":81:107  uint public itemPriceInWei */\n            tag_38:\n              sload(0x00)\n              dup2\n              jump\t// out\n                /* \"contracts/item.sol\":142:163  uint public itemIndex */\n            tag_42:\n              sload(0x02)\n              dup2\n              jump\t// out\n                /* \"#utility.yul\":7:125   */\n            tag_45:\n                /* \"#utility.yul\":94:118   */\n              tag_47\n                /* \"#utility.yul\":112:117   */\n              dup2\n                /* \"#utility.yul\":94:118   */\n              tag_48\n              jump\t// in\n            tag_47:\n                /* \"#utility.yul\":89:92   */\n              dup3\n                /* \"#utility.yul\":82:119   */\n              mstore\n                /* \"#utility.yul\":7:125   */\n              pop\n              pop\n              jump\t// out\n                /* \"#utility.yul\":131:504   */\n            tag_49:\n                /* \"#utility.yul\":235:238   */\n              0x00\n                /* \"#utility.yul\":263:301   */\n              tag_51\n                /* \"#utility.yul\":295:300   */\n              dup3\n                /* \"#utility.yul\":263:301   */\n              tag_52\n              jump\t// in\n            tag_51:\n                /* \"#utility.yul\":317:405   */\n              tag_53\n                /* \"#utility.yul\":398:404   */\n              dup2\n                /* \"#utility.yul\":393:396   */\n              dup6\n                /* \"#utility.yul\":317:405   */\n              tag_54\n              jump\t// in\n            tag_53:\n                /* \"#utility.yul\":310:405   */\n              swap4\n              pop\n                /* \"#utility.yul\":414:466   */\n              tag_55\n                /* \"#utility.yul\":459:465   */\n              dup2\n                /* \"#utility.yul\":454:457   */\n              dup6\n                /* \"#utility.yul\":447:451   */\n              0x20\n                /* \"#utility.yul\":440:445   */\n              dup7\n                /* \"#utility.yul\":436:452   */\n              add\n                /* \"#utility.yul\":414:466   */\n              tag_56\n              jump\t// in\n            tag_55:\n                /* \"#utility.yul\":491:497   */\n              dup1\n                /* \"#utility.yul\":486:489   */\n              dup5\n                /* \"#utility.yul\":482:498   */\n              add\n                /* \"#utility.yul\":475:498   */\n              swap2\n              pop\n                /* \"#utility.yul\":239:504   */\n              pop\n                /* \"#utility.yul\":131:504   */\n              swap3\n              swap2\n              pop\n              pop\n              jump\t// out\n                /* \"#utility.yul\":510:876   */\n            tag_57:\n                /* \"#utility.yul\":652:655   */\n              0x00\n                /* \"#utility.yul\":673:740   */\n              tag_59\n                /* \"#utility.yul\":737:739   */\n              0x2c\n                /* \"#utility.yul\":732:735   */\n              dup4\n                /* \"#utility.yul\":673:740   */\n              tag_60\n              jump\t// in\n            tag_59:\n                /* \"#utility.yul\":666:740   */\n              swap2\n              pop\n                /* \"#utility.yul\":749:842   */\n              tag_61\n                /* \"#utility.yul\":838:841   */\n              dup3\n                /* \"#utility.yul\":749:842   */\n              tag_62\n              jump\t// in\n            tag_61:\n                /* \"#utility.yul\":867:869   */\n              0x40\n                /* \"#utility.yul\":862:865   */\n              dup3\n                /* \"#utility.yul\":858:870   */\n              add\n                /* \"#utility.yul\":851:870   */\n              swap1\n              pop\n                /* \"#utility.yul\":510:876   */\n              swap2\n              swap1\n              pop\n              jump\t// out\n                /* \"#utility.yul\":882:1248   */\n            tag_63:\n                /* \"#utility.yul\":1024:1027   */\n              0x00\n                /* \"#utility.yul\":1045:1112   */\n              tag_65\n                /* \"#utility.yul\":1109:1111   */\n              0x19\n                /* \"#utility.yul\":1104:1107   */\n              dup4\n                /* \"#utility.yul\":1045:1112   */\n              tag_60\n              jump\t// in\n            tag_65:\n                /* \"#utility.yul\":1038:1112   */\n              swap2\n              pop\n                /* \"#utility.yul\":1121:1214   */\n              tag_66\n                /* \"#utility.yul\":1210:1213   */\n              dup3\n                /* \"#utility.yul\":1121:1214   */\n              tag_67\n              jump\t// in\n            tag_66:\n                /* \"#utility.yul\":1239:1241   */\n              0x20\n                /* \"#utility.yul\":1234:1237   */\n              dup3\n                /* \"#utility.yul\":1230:1242   */\n              add\n                /* \"#utility.yul\":1223:1242   */\n              swap1\n              pop\n                /* \"#utility.yul\":882:1248   */\n              swap2\n              swap1\n              pop\n              jump\t// out\n                /* \"#utility.yul\":1254:1620   */\n            tag_68:\n                /* \"#utility.yul\":1396:1399   */\n              0x00\n                /* \"#utility.yul\":1417:1484   */\n              tag_70\n                /* \"#utility.yul\":1481:1483   */\n              0x18\n                /* \"#utility.yul\":1476:1479   */\n              dup4\n                /* \"#utility.yul\":1417:1484   */\n              tag_60\n              jump\t// in\n            tag_70:\n                /* \"#utility.yul\":1410:1484   */\n              swap2\n              pop\n                /* \"#utility.yul\":1493:1586   */\n              tag_71\n                /* \"#utility.yul\":1582:1585   */\n              dup3\n                /* \"#utility.yul\":1493:1586   */\n              tag_72\n              jump\t// in\n            tag_71:\n                /* \"#utility.yul\":1611:1613   */\n              0x20\n                /* \"#utility.yul\":1606:1609   */\n              dup3\n                /* \"#utility.yul\":1602:1614   */\n              add\n                /* \"#utility.yul\":1595:1614   */\n              swap1\n              pop\n                /* \"#utility.yul\":1254:1620   */\n              swap2\n              swap1\n              pop\n              jump\t// out\n                /* \"#utility.yul\":1626:1744   */\n            tag_73:\n                /* \"#utility.yul\":1713:1737   */\n              tag_75\n                /* \"#utility.yul\":1731:1736   */\n              dup2\n                /* \"#utility.yul\":1713:1737   */\n              tag_76\n              jump\t// in\n            tag_75:\n                /* \"#utility.yul\":1708:1711   */\n              dup3\n                /* \"#utility.yul\":1701:1738   */\n              mstore\n                /* \"#utility.yul\":1626:1744   */\n              pop\n              pop\n              jump\t// out\n                /* \"#utility.yul\":1750:2021   */\n            tag_20:\n                /* \"#utility.yul\":1880:1883   */\n              0x00\n                /* \"#utility.yul\":1902:1995   */\n              tag_78\n                /* \"#utility.yul\":1991:1994   */\n              dup3\n                /* \"#utility.yul\":1982:1988   */\n              dup5\n                /* \"#utility.yul\":1902:1995   */\n              tag_49\n              jump\t// in\n            tag_78:\n                /* \"#utility.yul\":1895:1995   */\n              swap2\n              pop\n                /* \"#utility.yul\":2012:2015   */\n              dup2\n                /* \"#utility.yul\":2005:2015   */\n              swap1\n              pop\n                /* \"#utility.yul\":1750:2021   */\n              swap3\n              swap2\n              pop\n              pop\n              jump\t// out\n                /* \"#utility.yul\":2027:2249   */\n            tag_31:\n                /* \"#utility.yul\":2120:2124   */\n              0x00\n                /* \"#utility.yul\":2158:2160   */\n              0x20\n                /* \"#utility.yul\":2147:2156   */\n              dup3\n                /* \"#utility.yul\":2143:2161   */\n              add\n                /* \"#utility.yul\":2135:2161   */\n              swap1\n              pop\n                /* \"#utility.yul\":2171:2242   */\n              tag_80\n                /* \"#utility.yul\":2239:2240   */\n              0x00\n                /* \"#utility.yul\":2228:2237   */\n              dup4\n                /* \"#utility.yul\":2224:2241   */\n              add\n                /* \"#utility.yul\":2215:2221   */\n              dup5\n                /* \"#utility.yul\":2171:2242   */\n              tag_45\n              jump\t// in\n            tag_80:\n                /* \"#utility.yul\":2027:2249   */\n              swap3\n              swap2\n              pop\n              pop\n              jump\t// out\n                /* \"#utility.yul\":2255:2674   */\n            tag_26:\n                /* \"#utility.yul\":2421:2425   */\n              0x00\n                /* \"#utility.yul\":2459:2461   */\n              0x20\n                /* \"#utility.yul\":2448:2457   */\n              dup3\n                /* \"#utility.yul\":2444:2462   */\n              add\n                /* \"#utility.yul\":2436:2462   */\n              swap1\n              pop\n                /* \"#utility.yul\":2508:2517   */\n              dup2\n                /* \"#utility.yul\":2502:2506   */\n              dup2\n                /* \"#utility.yul\":2498:2518   */\n              sub\n                /* \"#utility.yul\":2494:2495   */\n              0x00\n                /* \"#utility.yul\":2483:2492   */\n              dup4\n                /* \"#utility.yul\":2479:2496   */\n              add\n                /* \"#utility.yul\":2472:2519   */\n              mstore\n                /* \"#utility.yul\":2536:2667   */\n              tag_82\n                /* \"#utility.yul\":2662:2666   */\n              dup2\n                /* \"#utility.yul\":2536:2667   */\n              tag_57\n              jump\t// in\n            tag_82:\n                /* \"#utility.yul\":2528:2667   */\n              swap1\n              pop\n                /* \"#utility.yul\":2255:2674   */\n              swap2\n              swap1\n              pop\n              jump\t// out\n                /* \"#utility.yul\":2680:3099   */\n            tag_11:\n                /* \"#utility.yul\":2846:2850   */\n              0x00\n                /* \"#utility.yul\":2884:2886   */\n              0x20\n                /* \"#utility.yul\":2873:2882   */\n              dup3\n                /* \"#utility.yul\":2869:2887   */\n              add\n                /* \"#utility.yul\":2861:2887   */\n              swap1\n              pop\n                /* \"#utility.yul\":2933:2942   */\n              dup2\n                /* \"#utility.yul\":2927:2931   */\n              dup2\n                /* \"#utility.yul\":2923:2943   */\n              sub\n                /* \"#utility.yul\":2919:2920   */\n              0x00\n                /* \"#utility.yul\":2908:2917   */\n              dup4\n                /* \"#utility.yul\":2904:2921   */\n              add\n                /* \"#utility.yul\":2897:2944   */\n              mstore\n                /* \"#utility.yul\":2961:3092   */\n              tag_84\n                /* \"#utility.yul\":3087:3091   */\n              dup2\n                /* \"#utility.yul\":2961:3092   */\n              tag_63\n              jump\t// in\n            tag_84:\n                /* \"#utility.yul\":2953:3092   */\n              swap1\n              pop\n                /* \"#utility.yul\":2680:3099   */\n              swap2\n              swap1\n              pop\n              jump\t// out\n                /* \"#utility.yul\":3105:3524   */\n            tag_14:\n                /* \"#utility.yul\":3271:3275   */\n              0x00\n                /* \"#utility.yul\":3309:3311   */\n              0x20\n                /* \"#utility.yul\":3298:3307   */\n              dup3\n                /* \"#utility.yul\":3294:3312   */\n              add\n                /* \"#utility.yul\":3286:3312   */\n              swap1\n              pop\n                /* \"#utility.yul\":3358:3367   */\n              dup2\n                /* \"#utility.yul\":3352:3356   */\n              dup2\n                /* \"#utility.yul\":3348:3368   */\n              sub\n                /* \"#utility.yul\":3344:3345   */\n              0x00\n                /* \"#utility.yul\":3333:3342   */\n              dup4\n                /* \"#utility.yul\":3329:3346   */\n              add\n                /* \"#utility.yul\":3322:3369   */\n              mstore\n                /* \"#utility.yul\":3386:3517   */\n              tag_86\n                /* \"#utility.yul\":3512:3516   */\n              dup2\n                /* \"#utility.yul\":3386:3517   */\n              tag_68\n              jump\t// in\n            tag_86:\n                /* \"#utility.yul\":3378:3517   */\n              swap1\n              pop\n                /* \"#utility.yul\":3105:3524   */\n              swap2\n              swap1\n              pop\n              jump\t// out\n                /* \"#utility.yul\":3530:3752   */\n            tag_18:\n                /* \"#utility.yul\":3623:3627   */\n              0x00\n                /* \"#utility.yul\":3661:3663   */\n              0x20\n                /* \"#utility.yul\":3650:3659   */\n              dup3\n                /* \"#utility.yul\":3646:3664   */\n              add\n                /* \"#utility.yul\":3638:3664   */\n              swap1\n              pop\n                /* \"#utility.yul\":3674:3745   */\n              tag_88\n                /* \"#utility.yul\":3742:3743   */\n              0x00\n                /* \"#utility.yul\":3731:3740   */\n              dup4\n                /* \"#utility.yul\":3727:3744   */\n              add\n                /* \"#utility.yul\":3718:3724   */\n              dup5\n                /* \"#utility.yul\":3674:3745   */\n              tag_73\n              jump\t// in\n            tag_88:\n                /* \"#utility.yul\":3530:3752   */\n              swap3\n              swap2\n              pop\n              pop\n              jump\t// out\n                /* \"#utility.yul\":3758:3856   */\n            tag_52:\n                /* \"#utility.yul\":3809:3815   */\n              0x00\n                /* \"#utility.yul\":3843:3848   */\n              dup2\n                /* \"#utility.yul\":3837:3849   */\n              mload\n                /* \"#utility.yul\":3827:3849   */\n              swap1\n              pop\n                /* \"#utility.yul\":3758:3856   */\n              swap2\n              swap1\n              pop\n              jump\t// out\n                /* \"#utility.yul\":3862:4009   */\n            tag_54:\n                /* \"#utility.yul\":3963:3974   */\n              0x00\n                /* \"#utility.yul\":4000:4003   */\n              dup2\n                /* \"#utility.yul\":3985:4003   */\n              swap1\n              pop\n                /* \"#utility.yul\":3862:4009   */\n              swap3\n              swap2\n              pop\n              pop\n              jump\t// out\n                /* \"#utility.yul\":4015:4184   */\n            tag_60:\n                /* \"#utility.yul\":4099:4110   */\n              0x00\n                /* \"#utility.yul\":4133:4139   */\n              dup3\n                /* \"#utility.yul\":4128:4131   */\n              dup3\n                /* \"#utility.yul\":4121:4140   */\n              mstore\n                /* \"#utility.yul\":4173:4177   */\n              0x20\n                /* \"#utility.yul\":4168:4171   */\n              dup3\n                /* \"#utility.yul\":4164:4178   */\n              add\n                /* \"#utility.yul\":4149:4178   */\n              swap1\n              pop\n                /* \"#utility.yul\":4015:4184   */\n              swap3\n              swap2\n              pop\n              pop\n              jump\t// out\n                /* \"#utility.yul\":4190:4495   */\n            tag_16:\n                /* \"#utility.yul\":4230:4233   */\n              0x00\n                /* \"#utility.yul\":4249:4269   */\n              tag_93\n                /* \"#utility.yul\":4267:4268   */\n              dup3\n                /* \"#utility.yul\":4249:4269   */\n              tag_76\n              jump\t// in\n            tag_93:\n                /* \"#utility.yul\":4244:4269   */\n              swap2\n              pop\n                /* \"#utility.yul\":4283:4303   */\n              tag_94\n                /* \"#utility.yul\":4301:4302   */\n              dup4\n                /* \"#utility.yul\":4283:4303   */\n              tag_76\n              jump\t// in\n            tag_94:\n                /* \"#utility.yul\":4278:4303   */\n              swap3\n              pop\n                /* \"#utility.yul\":4437:4438   */\n              dup3\n                /* \"#utility.yul\":4369:4435   */\n              0xffffffffffffffffffffffffffffffffffffffffffffffffffffffffffffffff\n                /* \"#utility.yul\":4365:4439   */\n              sub\n                /* \"#utility.yul\":4362:4363   */\n              dup3\n                /* \"#utility.yul\":4359:4440   */\n              gt\n                /* \"#utility.yul\":4356:4463   */\n              iszero\n              tag_95\n              jumpi\n                /* \"#utility.yul\":4443:4461   */\n              tag_96\n              tag_97\n              jump\t// in\n            tag_96:\n                /* \"#utility.yul\":4356:4463   */\n            tag_95:\n                /* \"#utility.yul\":4487:4488   */\n              dup3\n                /* \"#utility.yul\":4484:4485   */\n              dup3\n                /* \"#utility.yul\":4480:4489   */\n              add\n                /* \"#utility.yul\":4473:4489   */\n              swap1\n              pop\n                /* \"#utility.yul\":4190:4495   */\n              swap3\n              swap2\n              pop\n              pop\n              jump\t// out\n                /* \"#utility.yul\":4501:4597   */\n            tag_48:\n                /* \"#utility.yul\":4538:4545   */\n              0x00\n                /* \"#utility.yul\":4567:4591   */\n              tag_99\n                /* \"#utility.yul\":4585:4590   */\n              dup3\n                /* \"#utility.yul\":4567:4591   */\n              tag_100\n              jump\t// in\n            tag_99:\n                /* \"#utility.yul\":4556:4591   */\n              swap1\n              pop\n                /* \"#utility.yul\":4501:4597   */\n              swap2\n              swap1\n              pop\n              jump\t// out\n                /* \"#utility.yul\":4603:4729   */\n            tag_100:\n                /* \"#utility.yul\":4640:4647   */\n              0x00\n                /* \"#utility.yul\":4680:4722   */\n              0xffffffffffffffffffffffffffffffffffffffff\n                /* \"#utility.yul\":4673:4678   */\n              dup3\n                /* \"#utility.yul\":4669:4723   */\n              and\n                /* \"#utility.yul\":4658:4723   */\n              swap1\n              pop\n                /* \"#utility.yul\":4603:4729   */\n              swap2\n              swap1\n              pop\n              jump\t// out\n                /* \"#utility.yul\":4735:4812   */\n            tag_76:\n                /* \"#utility.yul\":4772:4779   */\n              0x00\n                /* \"#utility.yul\":4801:4806   */\n              dup2\n                /* \"#utility.yul\":4790:4806   */\n              swap1\n              pop\n                /* \"#utility.yul\":4735:4812   */\n              swap2\n              swap1\n              pop\n              jump\t// out\n                /* \"#utility.yul\":4818:5125   */\n            tag_56:\n                /* \"#utility.yul\":4886:4887   */\n              0x00\n                /* \"#utility.yul\":4896:5009   */\n            tag_104:\n                /* \"#utility.yul\":4910:4916   */\n              dup4\n                /* \"#utility.yul\":4907:4908   */\n              dup2\n                /* \"#utility.yul\":4904:4917   */\n              lt\n                /* \"#utility.yul\":4896:5009   */\n              iszero\n              tag_106\n              jumpi\n                /* \"#utility.yul\":4995:4996   */\n              dup1\n                /* \"#utility.yul\":4990:4993   */\n              dup3\n                /* \"#utility.yul\":4986:4997   */\n              add\n                /* \"#utility.yul\":4980:4998   */\n              mload\n                /* \"#utility.yul\":4976:4977   */\n              dup2\n                /* \"#utility.yul\":4971:4974   */\n              dup5\n                /* \"#utility.yul\":4967:4978   */\n              add\n                /* \"#utility.yul\":4960:4999   */\n              mstore\n                /* \"#utility.yul\":4932:4934   */\n              0x20\n                /* \"#utility.yul\":4929:4930   */\n              dup2\n                /* \"#utility.yul\":4925:4935   */\n              add\n                /* \"#utility.yul\":4920:4935   */\n              swap1\n              pop\n                /* \"#utility.yul\":4896:5009   */\n              jump(tag_104)\n            tag_106:\n                /* \"#utility.yul\":5027:5033   */\n              dup4\n                /* \"#utility.yul\":5024:5025   */\n              dup2\n                /* \"#utility.yul\":5021:5034   */\n              gt\n                /* \"#utility.yul\":5018:5119   */\n              iszero\n              tag_107\n              jumpi\n                /* \"#utility.yul\":5107:5108   */\n              0x00\n                /* \"#utility.yul\":5098:5104   */\n              dup5\n                /* \"#utility.yul\":5093:5096   */\n              dup5\n                /* \"#utility.yul\":5089:5105   */\n              add\n                /* \"#utility.yul\":5082:5109   */\n              mstore\n                /* \"#utility.yul\":5018:5119   */\n            tag_107:\n                /* \"#utility.yul\":4867:5125   */\n              pop\n                /* \"#utility.yul\":4818:5125   */\n              pop\n              pop\n              pop\n              jump\t// out\n                /* \"#utility.yul\":5131:5311   */\n            tag_97:\n                /* \"#utility.yul\":5179:5256   */\n              0x4e487b7100000000000000000000000000000000000000000000000000000000\n                /* \"#utility.yul\":5176:5177   */\n              0x00\n                /* \"#utility.yul\":5169:5257   */\n              mstore\n                /* \"#utility.yul\":5276:5280   */\n              0x11\n                /* \"#utility.yul\":5273:5274   */\n              0x04\n                /* \"#utility.yul\":5266:5281   */\n              mstore\n                /* \"#utility.yul\":5300:5304   */\n              0x24\n                /* \"#utility.yul\":5297:5298   */\n              0x00\n                /* \"#utility.yul\":5290:5305   */\n              revert\n                /* \"#utility.yul\":5317:5548   */\n            tag_62:\n                /* \"#utility.yul\":5457:5491   */\n              0x5472616e73616374696f6e20756e7375636365737366756c2c2063616e63656c\n                /* \"#utility.yul\":5453:5454   */\n              0x00\n                /* \"#utility.yul\":5445:5451   */\n              dup3\n                /* \"#utility.yul\":5441:5455   */\n              add\n                /* \"#utility.yul\":5434:5492   */\n              mstore\n                /* \"#utility.yul\":5526:5540   */\n              0x6c696e67207061796d656e740000000000000000000000000000000000000000\n                /* \"#utility.yul\":5521:5523   */\n              0x20\n                /* \"#utility.yul\":5513:5519   */\n              dup3\n                /* \"#utility.yul\":5509:5524   */\n              add\n                /* \"#utility.yul\":5502:5541   */\n              mstore\n                /* \"#utility.yul\":5317:5548   */\n              pop\n              jump\t// out\n                /* \"#utility.yul\":5554:5729   */\n            tag_67:\n                /* \"#utility.yul\":5694:5721   */\n              0x4974656d206973207061696420666f7220616c72656164792e00000000000000\n                /* \"#utility.yul\":5690:5691   */\n              0x00\n                /* \"#utility.yul\":5682:5688   */\n              dup3\n                /* \"#utility.yul\":5678:5692   */\n              add\n                /* \"#utility.yul\":5671:5722   */\n              mstore\n                /* \"#utility.yul\":5554:5729   */\n              pop\n              jump\t// out\n                /* \"#utility.yul\":5735:5909   */\n            tag_72:\n                /* \"#utility.yul\":5875:5901   */\n              0x506c656173652070617920657861637420616d6f756e742e0000000000000000\n                /* \"#utility.yul\":5871:5872   */\n              0x00\n                /* \"#utility.yul\":5863:5869   */\n              dup3\n                /* \"#utility.yul\":5859:5873   */\n              add\n                /* \"#utility.yul\":5852:5902   */\n              mstore\n                /* \"#utility.yul\":5735:5909   */\n              pop\n              jump\t// out\n\n            auxdata: 0xa2646970667358221220c4c59afdaab37f79b503f2808f2110fbf287e1067322c801fa7deadd8233cdf064736f6c63430008070033\n        }\n    }\n\n    auxdata: 0xa264697066735822122049e39678b7f03e9c4f190c83001c16b9568d39c2c3fb56229dde8a43b2fc922e64736f6c63430008070033\n}\n",
				"bytecode": {
					"linkReferences": {},
					"object": "608060405234801561001057600080fd5b5061178b806100206000396000f3fe608060405260043610620000505760003560e01c8063800fb83f14620000555780638c5517421462000075578063bfb231d214620000a3578063cd31831e14620000ea578063f0ebce5a1462000118575b600080fd5b6200007360048036038101906200006d9190620008fa565b62000148565b005b3480156200008257600080fd5b50620000a160048036038101906200009b919062000894565b6200030c565b005b348015620000b057600080fd5b50620000cf6004803603810190620000c99190620008fa565b620004e5565b604051620000e1949392919062000a26565b60405180910390f35b348015620000f757600080fd5b50620001166004803603810190620001109190620008fa565b620005d2565b005b3480156200012557600080fd5b50620001306200073c565b6040516200013f919062000a7a565b60405180910390f35b346000808381526020019081526020016000206002015414620001a2576040517f08c379a0000000000000000000000000000000000000000000000000000000008152600401620001999062000a97565b60405180910390fd5b60006002811115620001b957620001b862000dc3565b5b60008083815260200190815260200160002060030160009054906101000a900460ff166002811115620001f157620001f062000dc3565b5b1462000234576040517f08c379a00000000000000000000000000000000000000000000000000000000081526004016200022b9062000ab9565b60405180910390fd5b600160008083815260200190815260200160002060030160006101000a81548160ff0219169083600281111562000270576200026f62000dc3565b5b02179055507ff24ddcf634b84b7fbfb91b2713d1db50cdf1ac5bcd00d6351384ee26bc1a94bd8160008084815260200190815260200160002060030160009054906101000a900460ff1660008085815260200190815260200160002060000160009054906101000a900473ffffffffffffffffffffffffffffffffffffffff16604051620003019392919062000afd565b60405180910390a150565b80600154306040516200031f9062000741565b6200032d9392919062000b3a565b604051809103906000f0801580156200034a573d6000803e3d6000fd5b50600080600154815260200190815260200160002060000160006101000a81548173ffffffffffffffffffffffffffffffffffffffff021916908373ffffffffffffffffffffffffffffffffffffffff1602179055508160008060015481526020019081526020016000206001019080519060200190620003cd9291906200074f565b50806000806001548152602001908152602001600020600201819055506000806000600154815260200190815260200160002060030160006101000a81548160ff0219169083600281111562000428576200042762000dc3565b5b02179055507ff24ddcf634b84b7fbfb91b2713d1db50cdf1ac5bcd00d6351384ee26bc1a94bd600154600080600154815260200190815260200160002060030160009054906101000a900460ff16600080600154815260200190815260200160002060000160009054906101000a900473ffffffffffffffffffffffffffffffffffffffff16604051620004bf9392919062000afd565b60405180910390a160016000815480929190620004dc9062000d46565b91905055505050565b60006020528060005260406000206000915090508060000160009054906101000a900473ffffffffffffffffffffffffffffffffffffffff1690806001018054620005309062000cda565b80601f01602080910402602001604051908101604052809291908181526020018280546200055e9062000cda565b8015620005af5780601f106200058357610100808354040283529160200191620005af565b820191906000526020600020905b8154815290600101906020018083116200059157829003601f168201915b5050505050908060020154908060030160009054906101000a900460ff16905084565b60016002811115620005e957620005e862000dc3565b5b60008083815260200190815260200160002060030160009054906101000a900460ff16600281111562000621576200062062000dc3565b5b1462000664576040517f08c379a00000000000000000000000000000000000000000000000000000000081526004016200065b9062000adb565b60405180910390fd5b600260008083815260200190815260200160002060030160006101000a81548160ff02191690836002811115620006a0576200069f62000dc3565b5b02179055507ff24ddcf634b84b7fbfb91b2713d1db50cdf1ac5bcd00d6351384ee26bc1a94bd8160008084815260200190815260200160002060030160009054906101000a900460ff1660008085815260200190815260200160002060000160009054906101000a900473ffffffffffffffffffffffffffffffffffffffff16604051620007319392919062000afd565b60405180910390a150565b600090565b61080e8062000f4883390190565b8280546200075d9062000cda565b90600052602060002090601f016020900481019282620007815760008555620007cd565b82601f106200079c57805160ff1916838001178555620007cd565b82800160010185558215620007cd579182015b82811115620007cc578251825591602001919060010190620007af565b5b509050620007dc9190620007e0565b5090565b5b80821115620007fb576000816000905550600101620007e1565b5090565b600062000816620008108462000ba0565b62000b77565b90508281526020810184848401111562000835576200083462000e55565b5b6200084284828562000c95565b509392505050565b600082601f83011262000862576200086162000e50565b5b813562000874848260208601620007ff565b91505092915050565b6000813590506200088e8162000f2d565b92915050565b60008060408385031215620008ae57620008ad62000e5f565b5b600083013567ffffffffffffffff811115620008cf57620008ce62000e5a565b5b620008dd858286016200084a565b9250506020620008f0858286016200087d565b9150509250929050565b60006020828403121562000913576200091262000e5f565b5b600062000923848285016200087d565b91505092915050565b620009378162000bf2565b82525050565b620009488162000c45565b82525050565b620009598162000c59565b82525050565b60006200096c8262000bd6565b62000978818562000be1565b93506200098a81856020860162000ca4565b620009958162000e64565b840191505092915050565b6000620009af60188362000be1565b9150620009bc8262000e75565b602082019050919050565b6000620009d6602b8362000be1565b9150620009e38262000e9e565b604082019050919050565b6000620009fd60188362000be1565b915062000a0a8262000eed565b602082019050919050565b62000a208162000c3b565b82525050565b600060808201905062000a3d60008301876200093d565b818103602083015262000a5181866200095f565b905062000a62604083018562000a15565b62000a7160608301846200094e565b95945050505050565b600060208201905062000a9160008301846200094e565b92915050565b6000602082019050818103600083015262000ab281620009a0565b9050919050565b6000602082019050818103600083015262000ad481620009c7565b9050919050565b6000602082019050818103600083015262000af681620009ee565b9050919050565b600060608201905062000b14600083018662000a15565b62000b2360208301856200094e565b62000b3260408301846200092c565b949350505050565b600060608201905062000b51600083018662000a15565b62000b60602083018562000a15565b62000b6f60408301846200092c565b949350505050565b600062000b8362000b96565b905062000b91828262000d10565b919050565b6000604051905090565b600067ffffffffffffffff82111562000bbe5762000bbd62000e21565b5b62000bc98262000e64565b9050602081019050919050565b600081519050919050565b600082825260208201905092915050565b600062000bff8262000c1b565b9050919050565b600081905062000c168262000f16565b919050565b600073ffffffffffffffffffffffffffffffffffffffff82169050919050565b6000819050919050565b600062000c528262000c6d565b9050919050565b600062000c668262000c06565b9050919050565b600062000c7a8262000c81565b9050919050565b600062000c8e8262000c1b565b9050919050565b82818337600083830152505050565b60005b8381101562000cc457808201518184015260208101905062000ca7565b8381111562000cd4576000848401525b50505050565b6000600282049050600182168062000cf357607f821691505b6020821081141562000d0a5762000d0962000df2565b5b50919050565b62000d1b8262000e64565b810181811067ffffffffffffffff8211171562000d3d5762000d3c62000e21565b5b80604052505050565b600062000d538262000c3b565b91507fffffffffffffffffffffffffffffffffffffffffffffffffffffffffffffffff82141562000d895762000d8862000d94565b5b600182019050919050565b7f4e487b7100000000000000000000000000000000000000000000000000000000600052601160045260246000fd5b7f4e487b7100000000000000000000000000000000000000000000000000000000600052602160045260246000fd5b7f4e487b7100000000000000000000000000000000000000000000000000000000600052602260045260246000fd5b7f4e487b7100000000000000000000000000000000000000000000000000000000600052604160045260246000fd5b600080fd5b600080fd5b600080fd5b600080fd5b6000601f19601f8301169050919050565b7f506c656173652070617920657861637420616d6f756e742e0000000000000000600082015250565b7f4974656d20686173206265656e20616c7265616479207061696420666f72206f60008201527f722064656c697665726564000000000000000000000000000000000000000000602082015250565b7f4974656d206177616974696e67207061796d656e742e2e2e0000000000000000600082015250565b6003811062000f2a5762000f2962000dc3565b5b50565b62000f388162000c3b565b811462000f4457600080fd5b5056fe608060405234801561001057600080fd5b5060405161080e38038061080e833981810160405281019061003291906100b3565b826000819055508160028190555080600360006101000a81548173ffffffffffffffffffffffffffffffffffffffff021916908373ffffffffffffffffffffffffffffffffffffffff160217905550505050610175565b60008151905061009881610147565b92915050565b6000815190506100ad8161015e565b92915050565b6000806000606084860312156100cc576100cb610142565b5b60006100da8682870161009e565b93505060206100eb8682870161009e565b92505060406100fc86828701610089565b9150509250925092565b600061011182610118565b9050919050565b600073ffffffffffffffffffffffffffffffffffffffff82169050919050565b6000819050919050565b600080fd5b61015081610106565b811461015b57600080fd5b50565b61016781610138565b811461017257600080fd5b50565b61068a806101846000396000f3fe6080604052600436106100435760003560e01c8063767800de1461024f57806389794d001461027a578063c784a6e6146102a5578063e07bb1a7146102d057610044565b5b600060015414610089576040517f08c379a00000000000000000000000000000000000000000000000000000000081526004016100809061043d565b60405180910390fd5b34600054146100cd576040517f08c379a00000000000000000000000000000000000000000000000000000000081526004016100c49061045d565b60405180910390fd5b34600160008282546100df91906104bf565b925050819055506000600360009054906101000a900473ffffffffffffffffffffffffffffffffffffffff1673ffffffffffffffffffffffffffffffffffffffff16346304c4b4009060025460405160240161013b919061047d565b6040516020818303038152906040527f800fb83f000000000000000000000000000000000000000000000000000000007bffffffffffffffffffffffffffffffffffffffffffffffffffffffff19166020820180517bffffffffffffffffffffffffffffffffffffffffffffffffffffffff83818316178352505050506040516101c591906103eb565b600060405180830381858888f193505050503d8060008114610203576040519150601f19603f3d011682016040523d82523d6000602084013e610208565b606091505b505090508061024c576040517f08c379a00000000000000000000000000000000000000000000000000000000081526004016102439061041d565b60405180910390fd5b50005b34801561025b57600080fd5b506102646102fb565b6040516102719190610402565b60405180910390f35b34801561028657600080fd5b5061028f610321565b60405161029c919061047d565b60405180910390f35b3480156102b157600080fd5b506102ba610327565b6040516102c7919061047d565b60405180910390f35b3480156102dc57600080fd5b506102e561032d565b6040516102f2919061047d565b60405180910390f35b600360009054906101000a900473ffffffffffffffffffffffffffffffffffffffff1681565b60015481565b60005481565b60025481565b61033c81610515565b82525050565b600061034d82610498565b61035781856104a3565b9350610367818560208601610551565b80840191505092915050565b6000610380602c836104ae565b915061038b826105b3565b604082019050919050565b60006103a36019836104ae565b91506103ae82610602565b602082019050919050565b60006103c66018836104ae565b91506103d18261062b565b602082019050919050565b6103e581610547565b82525050565b60006103f78284610342565b915081905092915050565b60006020820190506104176000830184610333565b92915050565b6000602082019050818103600083015261043681610373565b9050919050565b6000602082019050818103600083015261045681610396565b9050919050565b60006020820190508181036000830152610476816103b9565b9050919050565b600060208201905061049260008301846103dc565b92915050565b600081519050919050565b600081905092915050565b600082825260208201905092915050565b60006104ca82610547565b91506104d583610547565b9250827fffffffffffffffffffffffffffffffffffffffffffffffffffffffffffffffff0382111561050a57610509610584565b5b828201905092915050565b600061052082610527565b9050919050565b600073ffffffffffffffffffffffffffffffffffffffff82169050919050565b6000819050919050565b60005b8381101561056f578082015181840152602081019050610554565b8381111561057e576000848401525b50505050565b7f4e487b7100000000000000000000000000000000000000000000000000000000600052601160045260246000fd5b7f5472616e73616374696f6e20756e7375636365737366756c2c2063616e63656c60008201527f6c696e67207061796d656e740000000000000000000000000000000000000000602082015250565b7f4974656d206973207061696420666f7220616c72656164792e00000000000000600082015250565b7f506c656173652070617920657861637420616d6f756e742e000000000000000060008201525056fea2646970667358221220c4c59afdaab37f79b503f2808f2110fbf287e1067322c801fa7deadd8233cdf064736f6c63430008070033a264697066735822122049e39678b7f03e9c4f190c83001c16b9568d39c2c3fb56229dde8a43b2fc922e64736f6c63430008070033",
					"opcodes": "PUSH1 0x80 PUSH1 0x40 MSTORE CALLVALUE DUP1 ISZERO PUSH2 0x10 JUMPI PUSH1 0x0 DUP1 REVERT JUMPDEST POP PUSH2 0x178B DUP1 PUSH2 0x20 PUSH1 0x0 CODECOPY PUSH1 0x0 RETURN INVALID PUSH1 0x80 PUSH1 0x40 MSTORE PUSH1 0x4 CALLDATASIZE LT PUSH3 0x50 JUMPI PUSH1 0x0 CALLDATALOAD PUSH1 0xE0 SHR DUP1 PUSH4 0x800FB83F EQ PUSH3 0x55 JUMPI DUP1 PUSH4 0x8C551742 EQ PUSH3 0x75 JUMPI DUP1 PUSH4 0xBFB231D2 EQ PUSH3 0xA3 JUMPI DUP1 PUSH4 0xCD31831E EQ PUSH3 0xEA JUMPI DUP1 PUSH4 0xF0EBCE5A EQ PUSH3 0x118 JUMPI JUMPDEST PUSH1 0x0 DUP1 REVERT JUMPDEST PUSH3 0x73 PUSH1 0x4 DUP1 CALLDATASIZE SUB DUP2 ADD SWAP1 PUSH3 0x6D SWAP2 SWAP1 PUSH3 0x8FA JUMP JUMPDEST PUSH3 0x148 JUMP JUMPDEST STOP JUMPDEST CALLVALUE DUP1 ISZERO PUSH3 0x82 JUMPI PUSH1 0x0 DUP1 REVERT JUMPDEST POP PUSH3 0xA1 PUSH1 0x4 DUP1 CALLDATASIZE SUB DUP2 ADD SWAP1 PUSH3 0x9B SWAP2 SWAP1 PUSH3 0x894 JUMP JUMPDEST PUSH3 0x30C JUMP JUMPDEST STOP JUMPDEST CALLVALUE DUP1 ISZERO PUSH3 0xB0 JUMPI PUSH1 0x0 DUP1 REVERT JUMPDEST POP PUSH3 0xCF PUSH1 0x4 DUP1 CALLDATASIZE SUB DUP2 ADD SWAP1 PUSH3 0xC9 SWAP2 SWAP1 PUSH3 0x8FA JUMP JUMPDEST PUSH3 0x4E5 JUMP JUMPDEST PUSH1 0x40 MLOAD PUSH3 0xE1 SWAP5 SWAP4 SWAP3 SWAP2 SWAP1 PUSH3 0xA26 JUMP JUMPDEST PUSH1 0x40 MLOAD DUP1 SWAP2 SUB SWAP1 RETURN JUMPDEST CALLVALUE DUP1 ISZERO PUSH3 0xF7 JUMPI PUSH1 0x0 DUP1 REVERT JUMPDEST POP PUSH3 0x116 PUSH1 0x4 DUP1 CALLDATASIZE SUB DUP2 ADD SWAP1 PUSH3 0x110 SWAP2 SWAP1 PUSH3 0x8FA JUMP JUMPDEST PUSH3 0x5D2 JUMP JUMPDEST STOP JUMPDEST CALLVALUE DUP1 ISZERO PUSH3 0x125 JUMPI PUSH1 0x0 DUP1 REVERT JUMPDEST POP PUSH3 0x130 PUSH3 0x73C JUMP JUMPDEST PUSH1 0x40 MLOAD PUSH3 0x13F SWAP2 SWAP1 PUSH3 0xA7A JUMP JUMPDEST PUSH1 0x40 MLOAD DUP1 SWAP2 SUB SWAP1 RETURN JUMPDEST CALLVALUE PUSH1 0x0 DUP1 DUP4 DUP2 MSTORE PUSH1 0x20 ADD SWAP1 DUP2 MSTORE PUSH1 0x20 ADD PUSH1 0x0 KECCAK256 PUSH1 0x2 ADD SLOAD EQ PUSH3 0x1A2 JUMPI PUSH1 0x40 MLOAD PUSH32 0x8C379A000000000000000000000000000000000000000000000000000000000 DUP2 MSTORE PUSH1 0x4 ADD PUSH3 0x199 SWAP1 PUSH3 0xA97 JUMP JUMPDEST PUSH1 0x40 MLOAD DUP1 SWAP2 SUB SWAP1 REVERT JUMPDEST PUSH1 0x0 PUSH1 0x2 DUP2 GT ISZERO PUSH3 0x1B9 JUMPI PUSH3 0x1B8 PUSH3 0xDC3 JUMP JUMPDEST JUMPDEST PUSH1 0x0 DUP1 DUP4 DUP2 MSTORE PUSH1 0x20 ADD SWAP1 DUP2 MSTORE PUSH1 0x20 ADD PUSH1 0x0 KECCAK256 PUSH1 0x3 ADD PUSH1 0x0 SWAP1 SLOAD SWAP1 PUSH2 0x100 EXP SWAP1 DIV PUSH1 0xFF AND PUSH1 0x2 DUP2 GT ISZERO PUSH3 0x1F1 JUMPI PUSH3 0x1F0 PUSH3 0xDC3 JUMP JUMPDEST JUMPDEST EQ PUSH3 0x234 JUMPI PUSH1 0x40 MLOAD PUSH32 0x8C379A000000000000000000000000000000000000000000000000000000000 DUP2 MSTORE PUSH1 0x4 ADD PUSH3 0x22B SWAP1 PUSH3 0xAB9 JUMP JUMPDEST PUSH1 0x40 MLOAD DUP1 SWAP2 SUB SWAP1 REVERT JUMPDEST PUSH1 0x1 PUSH1 0x0 DUP1 DUP4 DUP2 MSTORE PUSH1 0x20 ADD SWAP1 DUP2 MSTORE PUSH1 0x20 ADD PUSH1 0x0 KECCAK256 PUSH1 0x3 ADD PUSH1 0x0 PUSH2 0x100 EXP DUP2 SLOAD DUP2 PUSH1 0xFF MUL NOT AND SWAP1 DUP4 PUSH1 0x2 DUP2 GT ISZERO PUSH3 0x270 JUMPI PUSH3 0x26F PUSH3 0xDC3 JUMP JUMPDEST JUMPDEST MUL OR SWAP1 SSTORE POP PUSH32 0xF24DDCF634B84B7FBFB91B2713D1DB50CDF1AC5BCD00D6351384EE26BC1A94BD DUP2 PUSH1 0x0 DUP1 DUP5 DUP2 MSTORE PUSH1 0x20 ADD SWAP1 DUP2 MSTORE PUSH1 0x20 ADD PUSH1 0x0 KECCAK256 PUSH1 0x3 ADD PUSH1 0x0 SWAP1 SLOAD SWAP1 PUSH2 0x100 EXP SWAP1 DIV PUSH1 0xFF AND PUSH1 0x0 DUP1 DUP6 DUP2 MSTORE PUSH1 0x20 ADD SWAP1 DUP2 MSTORE PUSH1 0x20 ADD PUSH1 0x0 KECCAK256 PUSH1 0x0 ADD PUSH1 0x0 SWAP1 SLOAD SWAP1 PUSH2 0x100 EXP SWAP1 DIV PUSH20 0xFFFFFFFFFFFFFFFFFFFFFFFFFFFFFFFFFFFFFFFF AND PUSH1 0x40 MLOAD PUSH3 0x301 SWAP4 SWAP3 SWAP2 SWAP1 PUSH3 0xAFD JUMP JUMPDEST PUSH1 0x40 MLOAD DUP1 SWAP2 SUB SWAP1 LOG1 POP JUMP JUMPDEST DUP1 PUSH1 0x1 SLOAD ADDRESS PUSH1 0x40 MLOAD PUSH3 0x31F SWAP1 PUSH3 0x741 JUMP JUMPDEST PUSH3 0x32D SWAP4 SWAP3 SWAP2 SWAP1 PUSH3 0xB3A JUMP JUMPDEST PUSH1 0x40 MLOAD DUP1 SWAP2 SUB SWAP1 PUSH1 0x0 CREATE DUP1 ISZERO DUP1 ISZERO PUSH3 0x34A JUMPI RETURNDATASIZE PUSH1 0x0 DUP1 RETURNDATACOPY RETURNDATASIZE PUSH1 0x0 REVERT JUMPDEST POP PUSH1 0x0 DUP1 PUSH1 0x1 SLOAD DUP2 MSTORE PUSH1 0x20 ADD SWAP1 DUP2 MSTORE PUSH1 0x20 ADD PUSH1 0x0 KECCAK256 PUSH1 0x0 ADD PUSH1 0x0 PUSH2 0x100 EXP DUP2 SLOAD DUP2 PUSH20 0xFFFFFFFFFFFFFFFFFFFFFFFFFFFFFFFFFFFFFFFF MUL NOT AND SWAP1 DUP4 PUSH20 0xFFFFFFFFFFFFFFFFFFFFFFFFFFFFFFFFFFFFFFFF AND MUL OR SWAP1 SSTORE POP DUP2 PUSH1 0x0 DUP1 PUSH1 0x1 SLOAD DUP2 MSTORE PUSH1 0x20 ADD SWAP1 DUP2 MSTORE PUSH1 0x20 ADD PUSH1 0x0 KECCAK256 PUSH1 0x1 ADD SWAP1 DUP1 MLOAD SWAP1 PUSH1 0x20 ADD SWAP1 PUSH3 0x3CD SWAP3 SWAP2 SWAP1 PUSH3 0x74F JUMP JUMPDEST POP DUP1 PUSH1 0x0 DUP1 PUSH1 0x1 SLOAD DUP2 MSTORE PUSH1 0x20 ADD SWAP1 DUP2 MSTORE PUSH1 0x20 ADD PUSH1 0x0 KECCAK256 PUSH1 0x2 ADD DUP2 SWAP1 SSTORE POP PUSH1 0x0 DUP1 PUSH1 0x0 PUSH1 0x1 SLOAD DUP2 MSTORE PUSH1 0x20 ADD SWAP1 DUP2 MSTORE PUSH1 0x20 ADD PUSH1 0x0 KECCAK256 PUSH1 0x3 ADD PUSH1 0x0 PUSH2 0x100 EXP DUP2 SLOAD DUP2 PUSH1 0xFF MUL NOT AND SWAP1 DUP4 PUSH1 0x2 DUP2 GT ISZERO PUSH3 0x428 JUMPI PUSH3 0x427 PUSH3 0xDC3 JUMP JUMPDEST JUMPDEST MUL OR SWAP1 SSTORE POP PUSH32 0xF24DDCF634B84B7FBFB91B2713D1DB50CDF1AC5BCD00D6351384EE26BC1A94BD PUSH1 0x1 SLOAD PUSH1 0x0 DUP1 PUSH1 0x1 SLOAD DUP2 MSTORE PUSH1 0x20 ADD SWAP1 DUP2 MSTORE PUSH1 0x20 ADD PUSH1 0x0 KECCAK256 PUSH1 0x3 ADD PUSH1 0x0 SWAP1 SLOAD SWAP1 PUSH2 0x100 EXP SWAP1 DIV PUSH1 0xFF AND PUSH1 0x0 DUP1 PUSH1 0x1 SLOAD DUP2 MSTORE PUSH1 0x20 ADD SWAP1 DUP2 MSTORE PUSH1 0x20 ADD PUSH1 0x0 KECCAK256 PUSH1 0x0 ADD PUSH1 0x0 SWAP1 SLOAD SWAP1 PUSH2 0x100 EXP SWAP1 DIV PUSH20 0xFFFFFFFFFFFFFFFFFFFFFFFFFFFFFFFFFFFFFFFF AND PUSH1 0x40 MLOAD PUSH3 0x4BF SWAP4 SWAP3 SWAP2 SWAP1 PUSH3 0xAFD JUMP JUMPDEST PUSH1 0x40 MLOAD DUP1 SWAP2 SUB SWAP1 LOG1 PUSH1 0x1 PUSH1 0x0 DUP2 SLOAD DUP1 SWAP3 SWAP2 SWAP1 PUSH3 0x4DC SWAP1 PUSH3 0xD46 JUMP JUMPDEST SWAP2 SWAP1 POP SSTORE POP POP POP JUMP JUMPDEST PUSH1 0x0 PUSH1 0x20 MSTORE DUP1 PUSH1 0x0 MSTORE PUSH1 0x40 PUSH1 0x0 KECCAK256 PUSH1 0x0 SWAP2 POP SWAP1 POP DUP1 PUSH1 0x0 ADD PUSH1 0x0 SWAP1 SLOAD SWAP1 PUSH2 0x100 EXP SWAP1 DIV PUSH20 0xFFFFFFFFFFFFFFFFFFFFFFFFFFFFFFFFFFFFFFFF AND SWAP1 DUP1 PUSH1 0x1 ADD DUP1 SLOAD PUSH3 0x530 SWAP1 PUSH3 0xCDA JUMP JUMPDEST DUP1 PUSH1 0x1F ADD PUSH1 0x20 DUP1 SWAP2 DIV MUL PUSH1 0x20 ADD PUSH1 0x40 MLOAD SWAP1 DUP2 ADD PUSH1 0x40 MSTORE DUP1 SWAP3 SWAP2 SWAP1 DUP2 DUP2 MSTORE PUSH1 0x20 ADD DUP3 DUP1 SLOAD PUSH3 0x55E SWAP1 PUSH3 0xCDA JUMP JUMPDEST DUP1 ISZERO PUSH3 0x5AF JUMPI DUP1 PUSH1 0x1F LT PUSH3 0x583 JUMPI PUSH2 0x100 DUP1 DUP4 SLOAD DIV MUL DUP4 MSTORE SWAP2 PUSH1 0x20 ADD SWAP2 PUSH3 0x5AF JUMP JUMPDEST DUP3 ADD SWAP2 SWAP1 PUSH1 0x0 MSTORE PUSH1 0x20 PUSH1 0x0 KECCAK256 SWAP1 JUMPDEST DUP2 SLOAD DUP2 MSTORE SWAP1 PUSH1 0x1 ADD SWAP1 PUSH1 0x20 ADD DUP1 DUP4 GT PUSH3 0x591 JUMPI DUP3 SWAP1 SUB PUSH1 0x1F AND DUP3 ADD SWAP2 JUMPDEST POP POP POP POP POP SWAP1 DUP1 PUSH1 0x2 ADD SLOAD SWAP1 DUP1 PUSH1 0x3 ADD PUSH1 0x0 SWAP1 SLOAD SWAP1 PUSH2 0x100 EXP SWAP1 DIV PUSH1 0xFF AND SWAP1 POP DUP5 JUMP JUMPDEST PUSH1 0x1 PUSH1 0x2 DUP2 GT ISZERO PUSH3 0x5E9 JUMPI PUSH3 0x5E8 PUSH3 0xDC3 JUMP JUMPDEST JUMPDEST PUSH1 0x0 DUP1 DUP4 DUP2 MSTORE PUSH1 0x20 ADD SWAP1 DUP2 MSTORE PUSH1 0x20 ADD PUSH1 0x0 KECCAK256 PUSH1 0x3 ADD PUSH1 0x0 SWAP1 SLOAD SWAP1 PUSH2 0x100 EXP SWAP1 DIV PUSH1 0xFF AND PUSH1 0x2 DUP2 GT ISZERO PUSH3 0x621 JUMPI PUSH3 0x620 PUSH3 0xDC3 JUMP JUMPDEST JUMPDEST EQ PUSH3 0x664 JUMPI PUSH1 0x40 MLOAD PUSH32 0x8C379A000000000000000000000000000000000000000000000000000000000 DUP2 MSTORE PUSH1 0x4 ADD PUSH3 0x65B SWAP1 PUSH3 0xADB JUMP JUMPDEST PUSH1 0x40 MLOAD DUP1 SWAP2 SUB SWAP1 REVERT JUMPDEST PUSH1 0x2 PUSH1 0x0 DUP1 DUP4 DUP2 MSTORE PUSH1 0x20 ADD SWAP1 DUP2 MSTORE PUSH1 0x20 ADD PUSH1 0x0 KECCAK256 PUSH1 0x3 ADD PUSH1 0x0 PUSH2 0x100 EXP DUP2 SLOAD DUP2 PUSH1 0xFF MUL NOT AND SWAP1 DUP4 PUSH1 0x2 DUP2 GT ISZERO PUSH3 0x6A0 JUMPI PUSH3 0x69F PUSH3 0xDC3 JUMP JUMPDEST JUMPDEST MUL OR SWAP1 SSTORE POP PUSH32 0xF24DDCF634B84B7FBFB91B2713D1DB50CDF1AC5BCD00D6351384EE26BC1A94BD DUP2 PUSH1 0x0 DUP1 DUP5 DUP2 MSTORE PUSH1 0x20 ADD SWAP1 DUP2 MSTORE PUSH1 0x20 ADD PUSH1 0x0 KECCAK256 PUSH1 0x3 ADD PUSH1 0x0 SWAP1 SLOAD SWAP1 PUSH2 0x100 EXP SWAP1 DIV PUSH1 0xFF AND PUSH1 0x0 DUP1 DUP6 DUP2 MSTORE PUSH1 0x20 ADD SWAP1 DUP2 MSTORE PUSH1 0x20 ADD PUSH1 0x0 KECCAK256 PUSH1 0x0 ADD PUSH1 0x0 SWAP1 SLOAD SWAP1 PUSH2 0x100 EXP SWAP1 DIV PUSH20 0xFFFFFFFFFFFFFFFFFFFFFFFFFFFFFFFFFFFFFFFF AND PUSH1 0x40 MLOAD PUSH3 0x731 SWAP4 SWAP3 SWAP2 SWAP1 PUSH3 0xAFD JUMP JUMPDEST PUSH1 0x40 MLOAD DUP1 SWAP2 SUB SWAP1 LOG1 POP JUMP JUMPDEST PUSH1 0x0 SWAP1 JUMP JUMPDEST PUSH2 0x80E DUP1 PUSH3 0xF48 DUP4 CODECOPY ADD SWAP1 JUMP JUMPDEST DUP3 DUP1 SLOAD PUSH3 0x75D SWAP1 PUSH3 0xCDA JUMP JUMPDEST SWAP1 PUSH1 0x0 MSTORE PUSH1 0x20 PUSH1 0x0 KECCAK256 SWAP1 PUSH1 0x1F ADD PUSH1 0x20 SWAP1 DIV DUP2 ADD SWAP3 DUP3 PUSH3 0x781 JUMPI PUSH1 0x0 DUP6 SSTORE PUSH3 0x7CD JUMP JUMPDEST DUP3 PUSH1 0x1F LT PUSH3 0x79C JUMPI DUP1 MLOAD PUSH1 0xFF NOT AND DUP4 DUP1 ADD OR DUP6 SSTORE PUSH3 0x7CD JUMP JUMPDEST DUP3 DUP1 ADD PUSH1 0x1 ADD DUP6 SSTORE DUP3 ISZERO PUSH3 0x7CD JUMPI SWAP2 DUP3 ADD JUMPDEST DUP3 DUP2 GT ISZERO PUSH3 0x7CC JUMPI DUP3 MLOAD DUP3 SSTORE SWAP2 PUSH1 0x20 ADD SWAP2 SWAP1 PUSH1 0x1 ADD SWAP1 PUSH3 0x7AF JUMP JUMPDEST JUMPDEST POP SWAP1 POP PUSH3 0x7DC SWAP2 SWAP1 PUSH3 0x7E0 JUMP JUMPDEST POP SWAP1 JUMP JUMPDEST JUMPDEST DUP1 DUP3 GT ISZERO PUSH3 0x7FB JUMPI PUSH1 0x0 DUP2 PUSH1 0x0 SWAP1 SSTORE POP PUSH1 0x1 ADD PUSH3 0x7E1 JUMP JUMPDEST POP SWAP1 JUMP JUMPDEST PUSH1 0x0 PUSH3 0x816 PUSH3 0x810 DUP5 PUSH3 0xBA0 JUMP JUMPDEST PUSH3 0xB77 JUMP JUMPDEST SWAP1 POP DUP3 DUP2 MSTORE PUSH1 0x20 DUP2 ADD DUP5 DUP5 DUP5 ADD GT ISZERO PUSH3 0x835 JUMPI PUSH3 0x834 PUSH3 0xE55 JUMP JUMPDEST JUMPDEST PUSH3 0x842 DUP5 DUP3 DUP6 PUSH3 0xC95 JUMP JUMPDEST POP SWAP4 SWAP3 POP POP POP JUMP JUMPDEST PUSH1 0x0 DUP3 PUSH1 0x1F DUP4 ADD SLT PUSH3 0x862 JUMPI PUSH3 0x861 PUSH3 0xE50 JUMP JUMPDEST JUMPDEST DUP2 CALLDATALOAD PUSH3 0x874 DUP5 DUP3 PUSH1 0x20 DUP7 ADD PUSH3 0x7FF JUMP JUMPDEST SWAP2 POP POP SWAP3 SWAP2 POP POP JUMP JUMPDEST PUSH1 0x0 DUP2 CALLDATALOAD SWAP1 POP PUSH3 0x88E DUP2 PUSH3 0xF2D JUMP JUMPDEST SWAP3 SWAP2 POP POP JUMP JUMPDEST PUSH1 0x0 DUP1 PUSH1 0x40 DUP4 DUP6 SUB SLT ISZERO PUSH3 0x8AE JUMPI PUSH3 0x8AD PUSH3 0xE5F JUMP JUMPDEST JUMPDEST PUSH1 0x0 DUP4 ADD CALLDATALOAD PUSH8 0xFFFFFFFFFFFFFFFF DUP2 GT ISZERO PUSH3 0x8CF JUMPI PUSH3 0x8CE PUSH3 0xE5A JUMP JUMPDEST JUMPDEST PUSH3 0x8DD DUP6 DUP3 DUP7 ADD PUSH3 0x84A JUMP JUMPDEST SWAP3 POP POP PUSH1 0x20 PUSH3 0x8F0 DUP6 DUP3 DUP7 ADD PUSH3 0x87D JUMP JUMPDEST SWAP2 POP POP SWAP3 POP SWAP3 SWAP1 POP JUMP JUMPDEST PUSH1 0x0 PUSH1 0x20 DUP3 DUP5 SUB SLT ISZERO PUSH3 0x913 JUMPI PUSH3 0x912 PUSH3 0xE5F JUMP JUMPDEST JUMPDEST PUSH1 0x0 PUSH3 0x923 DUP5 DUP3 DUP6 ADD PUSH3 0x87D JUMP JUMPDEST SWAP2 POP POP SWAP3 SWAP2 POP POP JUMP JUMPDEST PUSH3 0x937 DUP2 PUSH3 0xBF2 JUMP JUMPDEST DUP3 MSTORE POP POP JUMP JUMPDEST PUSH3 0x948 DUP2 PUSH3 0xC45 JUMP JUMPDEST DUP3 MSTORE POP POP JUMP JUMPDEST PUSH3 0x959 DUP2 PUSH3 0xC59 JUMP JUMPDEST DUP3 MSTORE POP POP JUMP JUMPDEST PUSH1 0x0 PUSH3 0x96C DUP3 PUSH3 0xBD6 JUMP JUMPDEST PUSH3 0x978 DUP2 DUP6 PUSH3 0xBE1 JUMP JUMPDEST SWAP4 POP PUSH3 0x98A DUP2 DUP6 PUSH1 0x20 DUP7 ADD PUSH3 0xCA4 JUMP JUMPDEST PUSH3 0x995 DUP2 PUSH3 0xE64 JUMP JUMPDEST DUP5 ADD SWAP2 POP POP SWAP3 SWAP2 POP POP JUMP JUMPDEST PUSH1 0x0 PUSH3 0x9AF PUSH1 0x18 DUP4 PUSH3 0xBE1 JUMP JUMPDEST SWAP2 POP PUSH3 0x9BC DUP3 PUSH3 0xE75 JUMP JUMPDEST PUSH1 0x20 DUP3 ADD SWAP1 POP SWAP2 SWAP1 POP JUMP JUMPDEST PUSH1 0x0 PUSH3 0x9D6 PUSH1 0x2B DUP4 PUSH3 0xBE1 JUMP JUMPDEST SWAP2 POP PUSH3 0x9E3 DUP3 PUSH3 0xE9E JUMP JUMPDEST PUSH1 0x40 DUP3 ADD SWAP1 POP SWAP2 SWAP1 POP JUMP JUMPDEST PUSH1 0x0 PUSH3 0x9FD PUSH1 0x18 DUP4 PUSH3 0xBE1 JUMP JUMPDEST SWAP2 POP PUSH3 0xA0A DUP3 PUSH3 0xEED JUMP JUMPDEST PUSH1 0x20 DUP3 ADD SWAP1 POP SWAP2 SWAP1 POP JUMP JUMPDEST PUSH3 0xA20 DUP2 PUSH3 0xC3B JUMP JUMPDEST DUP3 MSTORE POP POP JUMP JUMPDEST PUSH1 0x0 PUSH1 0x80 DUP3 ADD SWAP1 POP PUSH3 0xA3D PUSH1 0x0 DUP4 ADD DUP8 PUSH3 0x93D JUMP JUMPDEST DUP2 DUP2 SUB PUSH1 0x20 DUP4 ADD MSTORE PUSH3 0xA51 DUP2 DUP7 PUSH3 0x95F JUMP JUMPDEST SWAP1 POP PUSH3 0xA62 PUSH1 0x40 DUP4 ADD DUP6 PUSH3 0xA15 JUMP JUMPDEST PUSH3 0xA71 PUSH1 0x60 DUP4 ADD DUP5 PUSH3 0x94E JUMP JUMPDEST SWAP6 SWAP5 POP POP POP POP POP JUMP JUMPDEST PUSH1 0x0 PUSH1 0x20 DUP3 ADD SWAP1 POP PUSH3 0xA91 PUSH1 0x0 DUP4 ADD DUP5 PUSH3 0x94E JUMP JUMPDEST SWAP3 SWAP2 POP POP JUMP JUMPDEST PUSH1 0x0 PUSH1 0x20 DUP3 ADD SWAP1 POP DUP2 DUP2 SUB PUSH1 0x0 DUP4 ADD MSTORE PUSH3 0xAB2 DUP2 PUSH3 0x9A0 JUMP JUMPDEST SWAP1 POP SWAP2 SWAP1 POP JUMP JUMPDEST PUSH1 0x0 PUSH1 0x20 DUP3 ADD SWAP1 POP DUP2 DUP2 SUB PUSH1 0x0 DUP4 ADD MSTORE PUSH3 0xAD4 DUP2 PUSH3 0x9C7 JUMP JUMPDEST SWAP1 POP SWAP2 SWAP1 POP JUMP JUMPDEST PUSH1 0x0 PUSH1 0x20 DUP3 ADD SWAP1 POP DUP2 DUP2 SUB PUSH1 0x0 DUP4 ADD MSTORE PUSH3 0xAF6 DUP2 PUSH3 0x9EE JUMP JUMPDEST SWAP1 POP SWAP2 SWAP1 POP JUMP JUMPDEST PUSH1 0x0 PUSH1 0x60 DUP3 ADD SWAP1 POP PUSH3 0xB14 PUSH1 0x0 DUP4 ADD DUP7 PUSH3 0xA15 JUMP JUMPDEST PUSH3 0xB23 PUSH1 0x20 DUP4 ADD DUP6 PUSH3 0x94E JUMP JUMPDEST PUSH3 0xB32 PUSH1 0x40 DUP4 ADD DUP5 PUSH3 0x92C JUMP JUMPDEST SWAP5 SWAP4 POP POP POP POP JUMP JUMPDEST PUSH1 0x0 PUSH1 0x60 DUP3 ADD SWAP1 POP PUSH3 0xB51 PUSH1 0x0 DUP4 ADD DUP7 PUSH3 0xA15 JUMP JUMPDEST PUSH3 0xB60 PUSH1 0x20 DUP4 ADD DUP6 PUSH3 0xA15 JUMP JUMPDEST PUSH3 0xB6F PUSH1 0x40 DUP4 ADD DUP5 PUSH3 0x92C JUMP JUMPDEST SWAP5 SWAP4 POP POP POP POP JUMP JUMPDEST PUSH1 0x0 PUSH3 0xB83 PUSH3 0xB96 JUMP JUMPDEST SWAP1 POP PUSH3 0xB91 DUP3 DUP3 PUSH3 0xD10 JUMP JUMPDEST SWAP2 SWAP1 POP JUMP JUMPDEST PUSH1 0x0 PUSH1 0x40 MLOAD SWAP1 POP SWAP1 JUMP JUMPDEST PUSH1 0x0 PUSH8 0xFFFFFFFFFFFFFFFF DUP3 GT ISZERO PUSH3 0xBBE JUMPI PUSH3 0xBBD PUSH3 0xE21 JUMP JUMPDEST JUMPDEST PUSH3 0xBC9 DUP3 PUSH3 0xE64 JUMP JUMPDEST SWAP1 POP PUSH1 0x20 DUP2 ADD SWAP1 POP SWAP2 SWAP1 POP JUMP JUMPDEST PUSH1 0x0 DUP2 MLOAD SWAP1 POP SWAP2 SWAP1 POP JUMP JUMPDEST PUSH1 0x0 DUP3 DUP3 MSTORE PUSH1 0x20 DUP3 ADD SWAP1 POP SWAP3 SWAP2 POP POP JUMP JUMPDEST PUSH1 0x0 PUSH3 0xBFF DUP3 PUSH3 0xC1B JUMP JUMPDEST SWAP1 POP SWAP2 SWAP1 POP JUMP JUMPDEST PUSH1 0x0 DUP2 SWAP1 POP PUSH3 0xC16 DUP3 PUSH3 0xF16 JUMP JUMPDEST SWAP2 SWAP1 POP JUMP JUMPDEST PUSH1 0x0 PUSH20 0xFFFFFFFFFFFFFFFFFFFFFFFFFFFFFFFFFFFFFFFF DUP3 AND SWAP1 POP SWAP2 SWAP1 POP JUMP JUMPDEST PUSH1 0x0 DUP2 SWAP1 POP SWAP2 SWAP1 POP JUMP JUMPDEST PUSH1 0x0 PUSH3 0xC52 DUP3 PUSH3 0xC6D JUMP JUMPDEST SWAP1 POP SWAP2 SWAP1 POP JUMP JUMPDEST PUSH1 0x0 PUSH3 0xC66 DUP3 PUSH3 0xC06 JUMP JUMPDEST SWAP1 POP SWAP2 SWAP1 POP JUMP JUMPDEST PUSH1 0x0 PUSH3 0xC7A DUP3 PUSH3 0xC81 JUMP JUMPDEST SWAP1 POP SWAP2 SWAP1 POP JUMP JUMPDEST PUSH1 0x0 PUSH3 0xC8E DUP3 PUSH3 0xC1B JUMP JUMPDEST SWAP1 POP SWAP2 SWAP1 POP JUMP JUMPDEST DUP3 DUP2 DUP4 CALLDATACOPY PUSH1 0x0 DUP4 DUP4 ADD MSTORE POP POP POP JUMP JUMPDEST PUSH1 0x0 JUMPDEST DUP4 DUP2 LT ISZERO PUSH3 0xCC4 JUMPI DUP1 DUP3 ADD MLOAD DUP2 DUP5 ADD MSTORE PUSH1 0x20 DUP2 ADD SWAP1 POP PUSH3 0xCA7 JUMP JUMPDEST DUP4 DUP2 GT ISZERO PUSH3 0xCD4 JUMPI PUSH1 0x0 DUP5 DUP5 ADD MSTORE JUMPDEST POP POP POP POP JUMP JUMPDEST PUSH1 0x0 PUSH1 0x2 DUP3 DIV SWAP1 POP PUSH1 0x1 DUP3 AND DUP1 PUSH3 0xCF3 JUMPI PUSH1 0x7F DUP3 AND SWAP2 POP JUMPDEST PUSH1 0x20 DUP3 LT DUP2 EQ ISZERO PUSH3 0xD0A JUMPI PUSH3 0xD09 PUSH3 0xDF2 JUMP JUMPDEST JUMPDEST POP SWAP2 SWAP1 POP JUMP JUMPDEST PUSH3 0xD1B DUP3 PUSH3 0xE64 JUMP JUMPDEST DUP2 ADD DUP2 DUP2 LT PUSH8 0xFFFFFFFFFFFFFFFF DUP3 GT OR ISZERO PUSH3 0xD3D JUMPI PUSH3 0xD3C PUSH3 0xE21 JUMP JUMPDEST JUMPDEST DUP1 PUSH1 0x40 MSTORE POP POP POP JUMP JUMPDEST PUSH1 0x0 PUSH3 0xD53 DUP3 PUSH3 0xC3B JUMP JUMPDEST SWAP2 POP PUSH32 0xFFFFFFFFFFFFFFFFFFFFFFFFFFFFFFFFFFFFFFFFFFFFFFFFFFFFFFFFFFFFFFFF DUP3 EQ ISZERO PUSH3 0xD89 JUMPI PUSH3 0xD88 PUSH3 0xD94 JUMP JUMPDEST JUMPDEST PUSH1 0x1 DUP3 ADD SWAP1 POP SWAP2 SWAP1 POP JUMP JUMPDEST PUSH32 0x4E487B7100000000000000000000000000000000000000000000000000000000 PUSH1 0x0 MSTORE PUSH1 0x11 PUSH1 0x4 MSTORE PUSH1 0x24 PUSH1 0x0 REVERT JUMPDEST PUSH32 0x4E487B7100000000000000000000000000000000000000000000000000000000 PUSH1 0x0 MSTORE PUSH1 0x21 PUSH1 0x4 MSTORE PUSH1 0x24 PUSH1 0x0 REVERT JUMPDEST PUSH32 0x4E487B7100000000000000000000000000000000000000000000000000000000 PUSH1 0x0 MSTORE PUSH1 0x22 PUSH1 0x4 MSTORE PUSH1 0x24 PUSH1 0x0 REVERT JUMPDEST PUSH32 0x4E487B7100000000000000000000000000000000000000000000000000000000 PUSH1 0x0 MSTORE PUSH1 0x41 PUSH1 0x4 MSTORE PUSH1 0x24 PUSH1 0x0 REVERT JUMPDEST PUSH1 0x0 DUP1 REVERT JUMPDEST PUSH1 0x0 DUP1 REVERT JUMPDEST PUSH1 0x0 DUP1 REVERT JUMPDEST PUSH1 0x0 DUP1 REVERT JUMPDEST PUSH1 0x0 PUSH1 0x1F NOT PUSH1 0x1F DUP4 ADD AND SWAP1 POP SWAP2 SWAP1 POP JUMP JUMPDEST PUSH32 0x506C656173652070617920657861637420616D6F756E742E0000000000000000 PUSH1 0x0 DUP3 ADD MSTORE POP JUMP JUMPDEST PUSH32 0x4974656D20686173206265656E20616C7265616479207061696420666F72206F PUSH1 0x0 DUP3 ADD MSTORE PUSH32 0x722064656C697665726564000000000000000000000000000000000000000000 PUSH1 0x20 DUP3 ADD MSTORE POP JUMP JUMPDEST PUSH32 0x4974656D206177616974696E67207061796D656E742E2E2E0000000000000000 PUSH1 0x0 DUP3 ADD MSTORE POP JUMP JUMPDEST PUSH1 0x3 DUP2 LT PUSH3 0xF2A JUMPI PUSH3 0xF29 PUSH3 0xDC3 JUMP JUMPDEST JUMPDEST POP JUMP JUMPDEST PUSH3 0xF38 DUP2 PUSH3 0xC3B JUMP JUMPDEST DUP2 EQ PUSH3 0xF44 JUMPI PUSH1 0x0 DUP1 REVERT JUMPDEST POP JUMP INVALID PUSH1 0x80 PUSH1 0x40 MSTORE CALLVALUE DUP1 ISZERO PUSH2 0x10 JUMPI PUSH1 0x0 DUP1 REVERT JUMPDEST POP PUSH1 0x40 MLOAD PUSH2 0x80E CODESIZE SUB DUP1 PUSH2 0x80E DUP4 CODECOPY DUP2 DUP2 ADD PUSH1 0x40 MSTORE DUP2 ADD SWAP1 PUSH2 0x32 SWAP2 SWAP1 PUSH2 0xB3 JUMP JUMPDEST DUP3 PUSH1 0x0 DUP2 SWAP1 SSTORE POP DUP2 PUSH1 0x2 DUP2 SWAP1 SSTORE POP DUP1 PUSH1 0x3 PUSH1 0x0 PUSH2 0x100 EXP DUP2 SLOAD DUP2 PUSH20 0xFFFFFFFFFFFFFFFFFFFFFFFFFFFFFFFFFFFFFFFF MUL NOT AND SWAP1 DUP4 PUSH20 0xFFFFFFFFFFFFFFFFFFFFFFFFFFFFFFFFFFFFFFFF AND MUL OR SWAP1 SSTORE POP POP POP POP PUSH2 0x175 JUMP JUMPDEST PUSH1 0x0 DUP2 MLOAD SWAP1 POP PUSH2 0x98 DUP2 PUSH2 0x147 JUMP JUMPDEST SWAP3 SWAP2 POP POP JUMP JUMPDEST PUSH1 0x0 DUP2 MLOAD SWAP1 POP PUSH2 0xAD DUP2 PUSH2 0x15E JUMP JUMPDEST SWAP3 SWAP2 POP POP JUMP JUMPDEST PUSH1 0x0 DUP1 PUSH1 0x0 PUSH1 0x60 DUP5 DUP7 SUB SLT ISZERO PUSH2 0xCC JUMPI PUSH2 0xCB PUSH2 0x142 JUMP JUMPDEST JUMPDEST PUSH1 0x0 PUSH2 0xDA DUP7 DUP3 DUP8 ADD PUSH2 0x9E JUMP JUMPDEST SWAP4 POP POP PUSH1 0x20 PUSH2 0xEB DUP7 DUP3 DUP8 ADD PUSH2 0x9E JUMP JUMPDEST SWAP3 POP POP PUSH1 0x40 PUSH2 0xFC DUP7 DUP3 DUP8 ADD PUSH2 0x89 JUMP JUMPDEST SWAP2 POP POP SWAP3 POP SWAP3 POP SWAP3 JUMP JUMPDEST PUSH1 0x0 PUSH2 0x111 DUP3 PUSH2 0x118 JUMP JUMPDEST SWAP1 POP SWAP2 SWAP1 POP JUMP JUMPDEST PUSH1 0x0 PUSH20 0xFFFFFFFFFFFFFFFFFFFFFFFFFFFFFFFFFFFFFFFF DUP3 AND SWAP1 POP SWAP2 SWAP1 POP JUMP JUMPDEST PUSH1 0x0 DUP2 SWAP1 POP SWAP2 SWAP1 POP JUMP JUMPDEST PUSH1 0x0 DUP1 REVERT JUMPDEST PUSH2 0x150 DUP2 PUSH2 0x106 JUMP JUMPDEST DUP2 EQ PUSH2 0x15B JUMPI PUSH1 0x0 DUP1 REVERT JUMPDEST POP JUMP JUMPDEST PUSH2 0x167 DUP2 PUSH2 0x138 JUMP JUMPDEST DUP2 EQ PUSH2 0x172 JUMPI PUSH1 0x0 DUP1 REVERT JUMPDEST POP JUMP JUMPDEST PUSH2 0x68A DUP1 PUSH2 0x184 PUSH1 0x0 CODECOPY PUSH1 0x0 RETURN INVALID PUSH1 0x80 PUSH1 0x40 MSTORE PUSH1 0x4 CALLDATASIZE LT PUSH2 0x43 JUMPI PUSH1 0x0 CALLDATALOAD PUSH1 0xE0 SHR DUP1 PUSH4 0x767800DE EQ PUSH2 0x24F JUMPI DUP1 PUSH4 0x89794D00 EQ PUSH2 0x27A JUMPI DUP1 PUSH4 0xC784A6E6 EQ PUSH2 0x2A5 JUMPI DUP1 PUSH4 0xE07BB1A7 EQ PUSH2 0x2D0 JUMPI PUSH2 0x44 JUMP JUMPDEST JUMPDEST PUSH1 0x0 PUSH1 0x1 SLOAD EQ PUSH2 0x89 JUMPI PUSH1 0x40 MLOAD PUSH32 0x8C379A000000000000000000000000000000000000000000000000000000000 DUP2 MSTORE PUSH1 0x4 ADD PUSH2 0x80 SWAP1 PUSH2 0x43D JUMP JUMPDEST PUSH1 0x40 MLOAD DUP1 SWAP2 SUB SWAP1 REVERT JUMPDEST CALLVALUE PUSH1 0x0 SLOAD EQ PUSH2 0xCD JUMPI PUSH1 0x40 MLOAD PUSH32 0x8C379A000000000000000000000000000000000000000000000000000000000 DUP2 MSTORE PUSH1 0x4 ADD PUSH2 0xC4 SWAP1 PUSH2 0x45D JUMP JUMPDEST PUSH1 0x40 MLOAD DUP1 SWAP2 SUB SWAP1 REVERT JUMPDEST CALLVALUE PUSH1 0x1 PUSH1 0x0 DUP3 DUP3 SLOAD PUSH2 0xDF SWAP2 SWAP1 PUSH2 0x4BF JUMP JUMPDEST SWAP3 POP POP DUP2 SWAP1 SSTORE POP PUSH1 0x0 PUSH1 0x3 PUSH1 0x0 SWAP1 SLOAD SWAP1 PUSH2 0x100 EXP SWAP1 DIV PUSH20 0xFFFFFFFFFFFFFFFFFFFFFFFFFFFFFFFFFFFFFFFF AND PUSH20 0xFFFFFFFFFFFFFFFFFFFFFFFFFFFFFFFFFFFFFFFF AND CALLVALUE PUSH4 0x4C4B400 SWAP1 PUSH1 0x2 SLOAD PUSH1 0x40 MLOAD PUSH1 0x24 ADD PUSH2 0x13B SWAP2 SWAP1 PUSH2 0x47D JUMP JUMPDEST PUSH1 0x40 MLOAD PUSH1 0x20 DUP2 DUP4 SUB SUB DUP2 MSTORE SWAP1 PUSH1 0x40 MSTORE PUSH32 0x800FB83F00000000000000000000000000000000000000000000000000000000 PUSH28 0xFFFFFFFFFFFFFFFFFFFFFFFFFFFFFFFFFFFFFFFFFFFFFFFFFFFFFFFF NOT AND PUSH1 0x20 DUP3 ADD DUP1 MLOAD PUSH28 0xFFFFFFFFFFFFFFFFFFFFFFFFFFFFFFFFFFFFFFFFFFFFFFFFFFFFFFFF DUP4 DUP2 DUP4 AND OR DUP4 MSTORE POP POP POP POP PUSH1 0x40 MLOAD PUSH2 0x1C5 SWAP2 SWAP1 PUSH2 0x3EB JUMP JUMPDEST PUSH1 0x0 PUSH1 0x40 MLOAD DUP1 DUP4 SUB DUP2 DUP6 DUP9 DUP9 CALL SWAP4 POP POP POP POP RETURNDATASIZE DUP1 PUSH1 0x0 DUP2 EQ PUSH2 0x203 JUMPI PUSH1 0x40 MLOAD SWAP2 POP PUSH1 0x1F NOT PUSH1 0x3F RETURNDATASIZE ADD AND DUP3 ADD PUSH1 0x40 MSTORE RETURNDATASIZE DUP3 MSTORE RETURNDATASIZE PUSH1 0x0 PUSH1 0x20 DUP5 ADD RETURNDATACOPY PUSH2 0x208 JUMP JUMPDEST PUSH1 0x60 SWAP2 POP JUMPDEST POP POP SWAP1 POP DUP1 PUSH2 0x24C JUMPI PUSH1 0x40 MLOAD PUSH32 0x8C379A000000000000000000000000000000000000000000000000000000000 DUP2 MSTORE PUSH1 0x4 ADD PUSH2 0x243 SWAP1 PUSH2 0x41D JUMP JUMPDEST PUSH1 0x40 MLOAD DUP1 SWAP2 SUB SWAP1 REVERT JUMPDEST POP STOP JUMPDEST CALLVALUE DUP1 ISZERO PUSH2 0x25B JUMPI PUSH1 0x0 DUP1 REVERT JUMPDEST POP PUSH2 0x264 PUSH2 0x2FB JUMP JUMPDEST PUSH1 0x40 MLOAD PUSH2 0x271 SWAP2 SWAP1 PUSH2 0x402 JUMP JUMPDEST PUSH1 0x40 MLOAD DUP1 SWAP2 SUB SWAP1 RETURN JUMPDEST CALLVALUE DUP1 ISZERO PUSH2 0x286 JUMPI PUSH1 0x0 DUP1 REVERT JUMPDEST POP PUSH2 0x28F PUSH2 0x321 JUMP JUMPDEST PUSH1 0x40 MLOAD PUSH2 0x29C SWAP2 SWAP1 PUSH2 0x47D JUMP JUMPDEST PUSH1 0x40 MLOAD DUP1 SWAP2 SUB SWAP1 RETURN JUMPDEST CALLVALUE DUP1 ISZERO PUSH2 0x2B1 JUMPI PUSH1 0x0 DUP1 REVERT JUMPDEST POP PUSH2 0x2BA PUSH2 0x327 JUMP JUMPDEST PUSH1 0x40 MLOAD PUSH2 0x2C7 SWAP2 SWAP1 PUSH2 0x47D JUMP JUMPDEST PUSH1 0x40 MLOAD DUP1 SWAP2 SUB SWAP1 RETURN JUMPDEST CALLVALUE DUP1 ISZERO PUSH2 0x2DC JUMPI PUSH1 0x0 DUP1 REVERT JUMPDEST POP PUSH2 0x2E5 PUSH2 0x32D JUMP JUMPDEST PUSH1 0x40 MLOAD PUSH2 0x2F2 SWAP2 SWAP1 PUSH2 0x47D JUMP JUMPDEST PUSH1 0x40 MLOAD DUP1 SWAP2 SUB SWAP1 RETURN JUMPDEST PUSH1 0x3 PUSH1 0x0 SWAP1 SLOAD SWAP1 PUSH2 0x100 EXP SWAP1 DIV PUSH20 0xFFFFFFFFFFFFFFFFFFFFFFFFFFFFFFFFFFFFFFFF AND DUP2 JUMP JUMPDEST PUSH1 0x1 SLOAD DUP2 JUMP JUMPDEST PUSH1 0x0 SLOAD DUP2 JUMP JUMPDEST PUSH1 0x2 SLOAD DUP2 JUMP JUMPDEST PUSH2 0x33C DUP2 PUSH2 0x515 JUMP JUMPDEST DUP3 MSTORE POP POP JUMP JUMPDEST PUSH1 0x0 PUSH2 0x34D DUP3 PUSH2 0x498 JUMP JUMPDEST PUSH2 0x357 DUP2 DUP6 PUSH2 0x4A3 JUMP JUMPDEST SWAP4 POP PUSH2 0x367 DUP2 DUP6 PUSH1 0x20 DUP7 ADD PUSH2 0x551 JUMP JUMPDEST DUP1 DUP5 ADD SWAP2 POP POP SWAP3 SWAP2 POP POP JUMP JUMPDEST PUSH1 0x0 PUSH2 0x380 PUSH1 0x2C DUP4 PUSH2 0x4AE JUMP JUMPDEST SWAP2 POP PUSH2 0x38B DUP3 PUSH2 0x5B3 JUMP JUMPDEST PUSH1 0x40 DUP3 ADD SWAP1 POP SWAP2 SWAP1 POP JUMP JUMPDEST PUSH1 0x0 PUSH2 0x3A3 PUSH1 0x19 DUP4 PUSH2 0x4AE JUMP JUMPDEST SWAP2 POP PUSH2 0x3AE DUP3 PUSH2 0x602 JUMP JUMPDEST PUSH1 0x20 DUP3 ADD SWAP1 POP SWAP2 SWAP1 POP JUMP JUMPDEST PUSH1 0x0 PUSH2 0x3C6 PUSH1 0x18 DUP4 PUSH2 0x4AE JUMP JUMPDEST SWAP2 POP PUSH2 0x3D1 DUP3 PUSH2 0x62B JUMP JUMPDEST PUSH1 0x20 DUP3 ADD SWAP1 POP SWAP2 SWAP1 POP JUMP JUMPDEST PUSH2 0x3E5 DUP2 PUSH2 0x547 JUMP JUMPDEST DUP3 MSTORE POP POP JUMP JUMPDEST PUSH1 0x0 PUSH2 0x3F7 DUP3 DUP5 PUSH2 0x342 JUMP JUMPDEST SWAP2 POP DUP2 SWAP1 POP SWAP3 SWAP2 POP POP JUMP JUMPDEST PUSH1 0x0 PUSH1 0x20 DUP3 ADD SWAP1 POP PUSH2 0x417 PUSH1 0x0 DUP4 ADD DUP5 PUSH2 0x333 JUMP JUMPDEST SWAP3 SWAP2 POP POP JUMP JUMPDEST PUSH1 0x0 PUSH1 0x20 DUP3 ADD SWAP1 POP DUP2 DUP2 SUB PUSH1 0x0 DUP4 ADD MSTORE PUSH2 0x436 DUP2 PUSH2 0x373 JUMP JUMPDEST SWAP1 POP SWAP2 SWAP1 POP JUMP JUMPDEST PUSH1 0x0 PUSH1 0x20 DUP3 ADD SWAP1 POP DUP2 DUP2 SUB PUSH1 0x0 DUP4 ADD MSTORE PUSH2 0x456 DUP2 PUSH2 0x396 JUMP JUMPDEST SWAP1 POP SWAP2 SWAP1 POP JUMP JUMPDEST PUSH1 0x0 PUSH1 0x20 DUP3 ADD SWAP1 POP DUP2 DUP2 SUB PUSH1 0x0 DUP4 ADD MSTORE PUSH2 0x476 DUP2 PUSH2 0x3B9 JUMP JUMPDEST SWAP1 POP SWAP2 SWAP1 POP JUMP JUMPDEST PUSH1 0x0 PUSH1 0x20 DUP3 ADD SWAP1 POP PUSH2 0x492 PUSH1 0x0 DUP4 ADD DUP5 PUSH2 0x3DC JUMP JUMPDEST SWAP3 SWAP2 POP POP JUMP JUMPDEST PUSH1 0x0 DUP2 MLOAD SWAP1 POP SWAP2 SWAP1 POP JUMP JUMPDEST PUSH1 0x0 DUP2 SWAP1 POP SWAP3 SWAP2 POP POP JUMP JUMPDEST PUSH1 0x0 DUP3 DUP3 MSTORE PUSH1 0x20 DUP3 ADD SWAP1 POP SWAP3 SWAP2 POP POP JUMP JUMPDEST PUSH1 0x0 PUSH2 0x4CA DUP3 PUSH2 0x547 JUMP JUMPDEST SWAP2 POP PUSH2 0x4D5 DUP4 PUSH2 0x547 JUMP JUMPDEST SWAP3 POP DUP3 PUSH32 0xFFFFFFFFFFFFFFFFFFFFFFFFFFFFFFFFFFFFFFFFFFFFFFFFFFFFFFFFFFFFFFFF SUB DUP3 GT ISZERO PUSH2 0x50A JUMPI PUSH2 0x509 PUSH2 0x584 JUMP JUMPDEST JUMPDEST DUP3 DUP3 ADD SWAP1 POP SWAP3 SWAP2 POP POP JUMP JUMPDEST PUSH1 0x0 PUSH2 0x520 DUP3 PUSH2 0x527 JUMP JUMPDEST SWAP1 POP SWAP2 SWAP1 POP JUMP JUMPDEST PUSH1 0x0 PUSH20 0xFFFFFFFFFFFFFFFFFFFFFFFFFFFFFFFFFFFFFFFF DUP3 AND SWAP1 POP SWAP2 SWAP1 POP JUMP JUMPDEST PUSH1 0x0 DUP2 SWAP1 POP SWAP2 SWAP1 POP JUMP JUMPDEST PUSH1 0x0 JUMPDEST DUP4 DUP2 LT ISZERO PUSH2 0x56F JUMPI DUP1 DUP3 ADD MLOAD DUP2 DUP5 ADD MSTORE PUSH1 0x20 DUP2 ADD SWAP1 POP PUSH2 0x554 JUMP JUMPDEST DUP4 DUP2 GT ISZERO PUSH2 0x57E JUMPI PUSH1 0x0 DUP5 DUP5 ADD MSTORE JUMPDEST POP POP POP POP JUMP JUMPDEST PUSH32 0x4E487B7100000000000000000000000000000000000000000000000000000000 PUSH1 0x0 MSTORE PUSH1 0x11 PUSH1 0x4 MSTORE PUSH1 0x24 PUSH1 0x0 REVERT JUMPDEST PUSH32 0x5472616E73616374696F6E20756E7375636365737366756C2C2063616E63656C PUSH1 0x0 DUP3 ADD MSTORE PUSH32 0x6C696E67207061796D656E740000000000000000000000000000000000000000 PUSH1 0x20 DUP3 ADD MSTORE POP JUMP JUMPDEST PUSH32 0x4974656D206973207061696420666F7220616C72656164792E00000000000000 PUSH1 0x0 DUP3 ADD MSTORE POP JUMP JUMPDEST PUSH32 0x506C656173652070617920657861637420616D6F756E742E0000000000000000 PUSH1 0x0 DUP3 ADD MSTORE POP JUMP INVALID LOG2 PUSH5 0x6970667358 0x22 SLT KECCAK256 0xC4 0xC5 SWAP11 REVERT 0xAA 0xB3 PUSH32 0x79B503F2808F2110FBF287E1067322C801FA7DEADD8233CDF064736F6C634300 ADDMOD SMOD STOP CALLER LOG2 PUSH5 0x6970667358 0x22 SLT KECCAK256 0x49 0xE3 SWAP7 PUSH25 0xB7F03E9C4F190C83001C16B9568D39C2C3FB56229DDE8A43B2 0xFC SWAP3 0x2E PUSH5 0x736F6C6343 STOP ADDMOD SMOD STOP CALLER "
				},
				"gasEstimates": {
					"creation": {
						"codeDepositCost": "1205400",
						"executionCost": "1254",
						"totalCost": "1206654"
					},
					"external": {
						"createItem(string,uint256)": "infinite",
						"getEnum()": "490",
						"items(uint256)": "infinite",
						"triggerDelivery(uint256)": "infinite",
						"triggerPayment(uint256)": "infinite"
					}
				},
				"methodIdentifiers": {
					"createItem(string,uint256)": "8c551742",
					"getEnum()": "f0ebce5a",
					"items(uint256)": "bfb231d2",
					"triggerDelivery(uint256)": "cd31831e",
					"triggerPayment(uint256)": "800fb83f"
				}
			},
			"userdoc": {
				"kind": "user",
				"methods": {},
				"version": 1
			}
		}
	}
}