{
	"contracts/eventtrigger.sol": {
		"ItemManager": {
			"abi": [
				{
					"inputs": [
						{
							"internalType": "string",
							"name": "_identifier",
							"type": "string"
						},
						{
							"internalType": "uint256",
							"name": "_itemPrice",
							"type": "uint256"
						}
					],
					"name": "createItem",
					"outputs": [],
					"stateMutability": "nonpayable",
					"type": "function"
				},
				{
					"inputs": [
						{
							"internalType": "uint256",
							"name": "",
							"type": "uint256"
						}
					],
					"name": "items",
					"outputs": [
						{
							"internalType": "string",
							"name": "_identifier",
							"type": "string"
						},
						{
							"internalType": "uint256",
							"name": "_itemPrice",
							"type": "uint256"
						}
					],
					"stateMutability": "view",
					"type": "function"
				},
				{
					"inputs": [],
					"name": "triggerDelivery",
					"outputs": [],
					"stateMutability": "nonpayable",
					"type": "function"
				},
				{
					"inputs": [],
					"name": "triggerPayment",
					"outputs": [],
					"stateMutability": "nonpayable",
					"type": "function"
				}
			],
			"devdoc": {
				"kind": "dev",
				"methods": {},
				"version": 1
			},
			"evm": {
				"assembly": "    /* \"contracts/eventtrigger.sol\":60:482  contract ItemManager {\r... */\n  mstore(0x40, 0x80)\n  callvalue\n  dup1\n  iszero\n  tag_1\n  jumpi\n  0x00\n  dup1\n  revert\ntag_1:\n  pop\n  dataSize(sub_0)\n  dup1\n  dataOffset(sub_0)\n  0x00\n  codecopy\n  0x00\n  return\nstop\n\nsub_0: assembly {\n        /* \"contracts/eventtrigger.sol\":60:482  contract ItemManager {\r... */\n      mstore(0x40, 0x80)\n      callvalue\n      dup1\n      iszero\n      tag_1\n      jumpi\n      0x00\n      dup1\n      revert\n    tag_1:\n      pop\n      jumpi(tag_2, lt(calldatasize, 0x04))\n      shr(0xe0, calldataload(0x00))\n      dup1\n      0xce2057\n      eq\n      tag_3\n      jumpi\n      dup1\n      0x5f4fe7b6\n      eq\n      tag_4\n      jumpi\n      dup1\n      0x8c551742\n      eq\n      tag_5\n      jumpi\n      dup1\n      0xbfb231d2\n      eq\n      tag_6\n      jumpi\n    tag_2:\n      0x00\n      dup1\n      revert\n        /* \"contracts/eventtrigger.sol\":382:426  function triggerPayment () public {\r... */\n    tag_3:\n      tag_7\n      tag_8\n      jump\t// in\n    tag_7:\n      stop\n        /* \"contracts/eventtrigger.sol\":434:479  function triggerDelivery () public {\r... */\n    tag_4:\n      tag_9\n      tag_10\n      jump\t// in\n    tag_9:\n      stop\n        /* \"contracts/eventtrigger.sol\":292:374  function createItem (string memory _identifier, uint _itemPrice) public {\r... */\n    tag_5:\n      tag_11\n      0x04\n      dup1\n      calldatasize\n      sub\n      dup2\n      add\n      swap1\n      tag_12\n      swap2\n      swap1\n      tag_13\n      jump\t// in\n    tag_12:\n      tag_14\n      jump\t// in\n    tag_11:\n      stop\n        /* \"contracts/eventtrigger.sol\":227:262  mapping (uint => item) public items */\n    tag_6:\n      tag_15\n      0x04\n      dup1\n      calldatasize\n      sub\n      dup2\n      add\n      swap1\n      tag_16\n      swap2\n      swap1\n      tag_17\n      jump\t// in\n    tag_16:\n      tag_18\n      jump\t// in\n    tag_15:\n      mload(0x40)\n      tag_19\n      swap3\n      swap2\n      swap1\n      tag_20\n      jump\t// in\n    tag_19:\n      mload(0x40)\n      dup1\n      swap2\n      sub\n      swap1\n      return\n        /* \"contracts/eventtrigger.sol\":382:426  function triggerPayment () public {\r... */\n    tag_8:\n      jump\t// out\n        /* \"contracts/eventtrigger.sol\":434:479  function triggerDelivery () public {\r... */\n    tag_10:\n      jump\t// out\n        /* \"contracts/eventtrigger.sol\":292:374  function createItem (string memory _identifier, uint _itemPrice) public {\r... */\n    tag_14:\n      pop\n      pop\n      jump\t// out\n        /* \"contracts/eventtrigger.sol\":227:262  mapping (uint => item) public items */\n    tag_18:\n      mstore(0x20, 0x00)\n      dup1\n      0x00\n      mstore\n      keccak256(0x00, 0x40)\n      0x00\n      swap2\n      pop\n      swap1\n      pop\n      dup1\n      0x00\n      add\n      dup1\n      sload\n      tag_24\n      swap1\n      tag_25\n      jump\t// in\n    tag_24:\n      dup1\n      0x1f\n      add\n      0x20\n      dup1\n      swap2\n      div\n      mul\n      0x20\n      add\n      mload(0x40)\n      swap1\n      dup2\n      add\n      0x40\n      mstore\n      dup1\n      swap3\n      swap2\n      swap1\n      dup2\n      dup2\n      mstore\n      0x20\n      add\n      dup3\n      dup1\n      sload\n      tag_26\n      swap1\n      tag_25\n      jump\t// in\n    tag_26:\n      dup1\n      iszero\n      tag_27\n      jumpi\n      dup1\n      0x1f\n      lt\n      tag_28\n      jumpi\n      0x0100\n      dup1\n      dup4\n      sload\n      div\n      mul\n      dup4\n      mstore\n      swap2\n      0x20\n      add\n      swap2\n      jump(tag_27)\n    tag_28:\n      dup3\n      add\n      swap2\n      swap1\n      0x00\n      mstore\n      keccak256(0x00, 0x20)\n      swap1\n    tag_29:\n      dup2\n      sload\n      dup2\n      mstore\n      swap1\n      0x01\n      add\n      swap1\n      0x20\n      add\n      dup1\n      dup4\n      gt\n      tag_29\n      jumpi\n      dup3\n      swap1\n      sub\n      0x1f\n      and\n      dup3\n      add\n      swap2\n    tag_27:\n      pop\n      pop\n      pop\n      pop\n      pop\n      swap1\n      dup1\n      0x01\n      add\n      sload\n      swap1\n      pop\n      dup3\n      jump\t// out\n        /* \"#utility.yul\":7:419   */\n    tag_31:\n        /* \"#utility.yul\":85:90   */\n      0x00\n        /* \"#utility.yul\":110:176   */\n      tag_33\n        /* \"#utility.yul\":126:175   */\n      tag_34\n        /* \"#utility.yul\":168:174   */\n      dup5\n        /* \"#utility.yul\":126:175   */\n      tag_35\n      jump\t// in\n    tag_34:\n        /* \"#utility.yul\":110:176   */\n      tag_36\n      jump\t// in\n    tag_33:\n        /* \"#utility.yul\":101:176   */\n      swap1\n      pop\n        /* \"#utility.yul\":199:205   */\n      dup3\n        /* \"#utility.yul\":192:197   */\n      dup2\n        /* \"#utility.yul\":185:206   */\n      mstore\n        /* \"#utility.yul\":237:241   */\n      0x20\n        /* \"#utility.yul\":230:235   */\n      dup2\n        /* \"#utility.yul\":226:242   */\n      add\n        /* \"#utility.yul\":275:278   */\n      dup5\n        /* \"#utility.yul\":266:272   */\n      dup5\n        /* \"#utility.yul\":261:264   */\n      dup5\n        /* \"#utility.yul\":257:273   */\n      add\n        /* \"#utility.yul\":254:279   */\n      gt\n        /* \"#utility.yul\":251:363   */\n      iszero\n      tag_37\n      jumpi\n        /* \"#utility.yul\":282:361   */\n      tag_38\n      tag_39\n      jump\t// in\n    tag_38:\n        /* \"#utility.yul\":251:363   */\n    tag_37:\n        /* \"#utility.yul\":372:413   */\n      tag_40\n        /* \"#utility.yul\":406:412   */\n      dup5\n        /* \"#utility.yul\":401:404   */\n      dup3\n        /* \"#utility.yul\":396:399   */\n      dup6\n        /* \"#utility.yul\":372:413   */\n      tag_41\n      jump\t// in\n    tag_40:\n        /* \"#utility.yul\":91:419   */\n      pop\n        /* \"#utility.yul\":7:419   */\n      swap4\n      swap3\n      pop\n      pop\n      pop\n      jump\t// out\n        /* \"#utility.yul\":439:779   */\n    tag_42:\n        /* \"#utility.yul\":495:500   */\n      0x00\n        /* \"#utility.yul\":544:547   */\n      dup3\n        /* \"#utility.yul\":537:541   */\n      0x1f\n        /* \"#utility.yul\":529:535   */\n      dup4\n        /* \"#utility.yul\":525:542   */\n      add\n        /* \"#utility.yul\":521:548   */\n      slt\n        /* \"#utility.yul\":511:633   */\n      tag_44\n      jumpi\n        /* \"#utility.yul\":552:631   */\n      tag_45\n      tag_46\n      jump\t// in\n    tag_45:\n        /* \"#utility.yul\":511:633   */\n    tag_44:\n        /* \"#utility.yul\":669:675   */\n      dup2\n        /* \"#utility.yul\":656:676   */\n      calldataload\n        /* \"#utility.yul\":694:773   */\n      tag_47\n        /* \"#utility.yul\":769:772   */\n      dup5\n        /* \"#utility.yul\":761:767   */\n      dup3\n        /* \"#utility.yul\":754:758   */\n      0x20\n        /* \"#utility.yul\":746:752   */\n      dup7\n        /* \"#utility.yul\":742:759   */\n      add\n        /* \"#utility.yul\":694:773   */\n      tag_31\n      jump\t// in\n    tag_47:\n        /* \"#utility.yul\":685:773   */\n      swap2\n      pop\n        /* \"#utility.yul\":501:779   */\n      pop\n        /* \"#utility.yul\":439:779   */\n      swap3\n      swap2\n      pop\n      pop\n      jump\t// out\n        /* \"#utility.yul\":785:924   */\n    tag_48:\n        /* \"#utility.yul\":831:836   */\n      0x00\n        /* \"#utility.yul\":869:875   */\n      dup2\n        /* \"#utility.yul\":856:876   */\n      calldataload\n        /* \"#utility.yul\":847:876   */\n      swap1\n      pop\n        /* \"#utility.yul\":885:918   */\n      tag_50\n        /* \"#utility.yul\":912:917   */\n      dup2\n        /* \"#utility.yul\":885:918   */\n      tag_51\n      jump\t// in\n    tag_50:\n        /* \"#utility.yul\":785:924   */\n      swap3\n      swap2\n      pop\n      pop\n      jump\t// out\n        /* \"#utility.yul\":930:1584   */\n    tag_13:\n        /* \"#utility.yul\":1008:1014   */\n      0x00\n        /* \"#utility.yul\":1016:1022   */\n      dup1\n        /* \"#utility.yul\":1065:1067   */\n      0x40\n        /* \"#utility.yul\":1053:1062   */\n      dup4\n        /* \"#utility.yul\":1044:1051   */\n      dup6\n        /* \"#utility.yul\":1040:1063   */\n      sub\n        /* \"#utility.yul\":1036:1068   */\n      slt\n        /* \"#utility.yul\":1033:1152   */\n      iszero\n      tag_53\n      jumpi\n        /* \"#utility.yul\":1071:1150   */\n      tag_54\n      tag_55\n      jump\t// in\n    tag_54:\n        /* \"#utility.yul\":1033:1152   */\n    tag_53:\n        /* \"#utility.yul\":1219:1220   */\n      0x00\n        /* \"#utility.yul\":1208:1217   */\n      dup4\n        /* \"#utility.yul\":1204:1221   */\n      add\n        /* \"#utility.yul\":1191:1222   */\n      calldataload\n        /* \"#utility.yul\":1249:1267   */\n      0xffffffffffffffff\n        /* \"#utility.yul\":1241:1247   */\n      dup2\n        /* \"#utility.yul\":1238:1268   */\n      gt\n        /* \"#utility.yul\":1235:1352   */\n      iszero\n      tag_56\n      jumpi\n        /* \"#utility.yul\":1271:1350   */\n      tag_57\n      tag_58\n      jump\t// in\n    tag_57:\n        /* \"#utility.yul\":1235:1352   */\n    tag_56:\n        /* \"#utility.yul\":1376:1439   */\n      tag_59\n        /* \"#utility.yul\":1431:1438   */\n      dup6\n        /* \"#utility.yul\":1422:1428   */\n      dup3\n        /* \"#utility.yul\":1411:1420   */\n      dup7\n        /* \"#utility.yul\":1407:1429   */\n      add\n        /* \"#utility.yul\":1376:1439   */\n      tag_42\n      jump\t// in\n    tag_59:\n        /* \"#utility.yul\":1366:1439   */\n      swap3\n      pop\n        /* \"#utility.yul\":1162:1449   */\n      pop\n        /* \"#utility.yul\":1488:1490   */\n      0x20\n        /* \"#utility.yul\":1514:1567   */\n      tag_60\n        /* \"#utility.yul\":1559:1566   */\n      dup6\n        /* \"#utility.yul\":1550:1556   */\n      dup3\n        /* \"#utility.yul\":1539:1548   */\n      dup7\n        /* \"#utility.yul\":1535:1557   */\n      add\n        /* \"#utility.yul\":1514:1567   */\n      tag_48\n      jump\t// in\n    tag_60:\n        /* \"#utility.yul\":1504:1567   */\n      swap2\n      pop\n        /* \"#utility.yul\":1459:1577   */\n      pop\n        /* \"#utility.yul\":930:1584   */\n      swap3\n      pop\n      swap3\n      swap1\n      pop\n      jump\t// out\n        /* \"#utility.yul\":1590:1919   */\n    tag_17:\n        /* \"#utility.yul\":1649:1655   */\n      0x00\n        /* \"#utility.yul\":1698:1700   */\n      0x20\n        /* \"#utility.yul\":1686:1695   */\n      dup3\n        /* \"#utility.yul\":1677:1684   */\n      dup5\n        /* \"#utility.yul\":1673:1696   */\n      sub\n        /* \"#utility.yul\":1669:1701   */\n      slt\n        /* \"#utility.yul\":1666:1785   */\n      iszero\n      tag_62\n      jumpi\n        /* \"#utility.yul\":1704:1783   */\n      tag_63\n      tag_55\n      jump\t// in\n    tag_63:\n        /* \"#utility.yul\":1666:1785   */\n    tag_62:\n        /* \"#utility.yul\":1824:1825   */\n      0x00\n        /* \"#utility.yul\":1849:1902   */\n      tag_64\n        /* \"#utility.yul\":1894:1901   */\n      dup5\n        /* \"#utility.yul\":1885:1891   */\n      dup3\n        /* \"#utility.yul\":1874:1883   */\n      dup6\n        /* \"#utility.yul\":1870:1892   */\n      add\n        /* \"#utility.yul\":1849:1902   */\n      tag_48\n      jump\t// in\n    tag_64:\n        /* \"#utility.yul\":1839:1902   */\n      swap2\n      pop\n        /* \"#utility.yul\":1795:1912   */\n      pop\n        /* \"#utility.yul\":1590:1919   */\n      swap3\n      swap2\n      pop\n      pop\n      jump\t// out\n        /* \"#utility.yul\":1925:2289   */\n    tag_65:\n        /* \"#utility.yul\":2013:2016   */\n      0x00\n        /* \"#utility.yul\":2041:2080   */\n      tag_67\n        /* \"#utility.yul\":2074:2079   */\n      dup3\n        /* \"#utility.yul\":2041:2080   */\n      tag_68\n      jump\t// in\n    tag_67:\n        /* \"#utility.yul\":2096:2167   */\n      tag_69\n        /* \"#utility.yul\":2160:2166   */\n      dup2\n        /* \"#utility.yul\":2155:2158   */\n      dup6\n        /* \"#utility.yul\":2096:2167   */\n      tag_70\n      jump\t// in\n    tag_69:\n        /* \"#utility.yul\":2089:2167   */\n      swap4\n      pop\n        /* \"#utility.yul\":2176:2228   */\n      tag_71\n        /* \"#utility.yul\":2221:2227   */\n      dup2\n        /* \"#utility.yul\":2216:2219   */\n      dup6\n        /* \"#utility.yul\":2209:2213   */\n      0x20\n        /* \"#utility.yul\":2202:2207   */\n      dup7\n        /* \"#utility.yul\":2198:2214   */\n      add\n        /* \"#utility.yul\":2176:2228   */\n      tag_72\n      jump\t// in\n    tag_71:\n        /* \"#utility.yul\":2253:2282   */\n      tag_73\n        /* \"#utility.yul\":2275:2281   */\n      dup2\n        /* \"#utility.yul\":2253:2282   */\n      tag_74\n      jump\t// in\n    tag_73:\n        /* \"#utility.yul\":2248:2251   */\n      dup5\n        /* \"#utility.yul\":2244:2283   */\n      add\n        /* \"#utility.yul\":2237:2283   */\n      swap2\n      pop\n        /* \"#utility.yul\":2017:2289   */\n      pop\n        /* \"#utility.yul\":1925:2289   */\n      swap3\n      swap2\n      pop\n      pop\n      jump\t// out\n        /* \"#utility.yul\":2295:2413   */\n    tag_75:\n        /* \"#utility.yul\":2382:2406   */\n      tag_77\n        /* \"#utility.yul\":2400:2405   */\n      dup2\n        /* \"#utility.yul\":2382:2406   */\n      tag_78\n      jump\t// in\n    tag_77:\n        /* \"#utility.yul\":2377:2380   */\n      dup3\n        /* \"#utility.yul\":2370:2407   */\n      mstore\n        /* \"#utility.yul\":2295:2413   */\n      pop\n      pop\n      jump\t// out\n        /* \"#utility.yul\":2419:2842   */\n    tag_20:\n        /* \"#utility.yul\":2560:2564   */\n      0x00\n        /* \"#utility.yul\":2598:2600   */\n      0x40\n        /* \"#utility.yul\":2587:2596   */\n      dup3\n        /* \"#utility.yul\":2583:2601   */\n      add\n        /* \"#utility.yul\":2575:2601   */\n      swap1\n      pop\n        /* \"#utility.yul\":2647:2656   */\n      dup2\n        /* \"#utility.yul\":2641:2645   */\n      dup2\n        /* \"#utility.yul\":2637:2657   */\n      sub\n        /* \"#utility.yul\":2633:2634   */\n      0x00\n        /* \"#utility.yul\":2622:2631   */\n      dup4\n        /* \"#utility.yul\":2618:2635   */\n      add\n        /* \"#utility.yul\":2611:2658   */\n      mstore\n        /* \"#utility.yul\":2675:2753   */\n      tag_80\n        /* \"#utility.yul\":2748:2752   */\n      dup2\n        /* \"#utility.yul\":2739:2745   */\n      dup6\n        /* \"#utility.yul\":2675:2753   */\n      tag_65\n      jump\t// in\n    tag_80:\n        /* \"#utility.yul\":2667:2753   */\n      swap1\n      pop\n        /* \"#utility.yul\":2763:2835   */\n      tag_81\n        /* \"#utility.yul\":2831:2833   */\n      0x20\n        /* \"#utility.yul\":2820:2829   */\n      dup4\n        /* \"#utility.yul\":2816:2834   */\n      add\n        /* \"#utility.yul\":2807:2813   */\n      dup5\n        /* \"#utility.yul\":2763:2835   */\n      tag_75\n      jump\t// in\n    tag_81:\n        /* \"#utility.yul\":2419:2842   */\n      swap4\n      swap3\n      pop\n      pop\n      pop\n      jump\t// out\n        /* \"#utility.yul\":2848:2977   */\n    tag_36:\n        /* \"#utility.yul\":2882:2888   */\n      0x00\n        /* \"#utility.yul\":2909:2929   */\n      tag_83\n      tag_84\n      jump\t// in\n    tag_83:\n        /* \"#utility.yul\":2899:2929   */\n      swap1\n      pop\n        /* \"#utility.yul\":2938:2971   */\n      tag_85\n        /* \"#utility.yul\":2966:2970   */\n      dup3\n        /* \"#utility.yul\":2958:2964   */\n      dup3\n        /* \"#utility.yul\":2938:2971   */\n      tag_86\n      jump\t// in\n    tag_85:\n        /* \"#utility.yul\":2848:2977   */\n      swap2\n      swap1\n      pop\n      jump\t// out\n        /* \"#utility.yul\":2983:3058   */\n    tag_84:\n        /* \"#utility.yul\":3016:3022   */\n      0x00\n        /* \"#utility.yul\":3049:3051   */\n      0x40\n        /* \"#utility.yul\":3043:3052   */\n      mload\n        /* \"#utility.yul\":3033:3052   */\n      swap1\n      pop\n        /* \"#utility.yul\":2983:3058   */\n      swap1\n      jump\t// out\n        /* \"#utility.yul\":3064:3372   */\n    tag_35:\n        /* \"#utility.yul\":3126:3130   */\n      0x00\n        /* \"#utility.yul\":3216:3234   */\n      0xffffffffffffffff\n        /* \"#utility.yul\":3208:3214   */\n      dup3\n        /* \"#utility.yul\":3205:3235   */\n      gt\n        /* \"#utility.yul\":3202:3258   */\n      iszero\n      tag_89\n      jumpi\n        /* \"#utility.yul\":3238:3256   */\n      tag_90\n      tag_91\n      jump\t// in\n    tag_90:\n        /* \"#utility.yul\":3202:3258   */\n    tag_89:\n        /* \"#utility.yul\":3276:3305   */\n      tag_92\n        /* \"#utility.yul\":3298:3304   */\n      dup3\n        /* \"#utility.yul\":3276:3305   */\n      tag_74\n      jump\t// in\n    tag_92:\n        /* \"#utility.yul\":3268:3305   */\n      swap1\n      pop\n        /* \"#utility.yul\":3360:3364   */\n      0x20\n        /* \"#utility.yul\":3354:3358   */\n      dup2\n        /* \"#utility.yul\":3350:3365   */\n      add\n        /* \"#utility.yul\":3342:3365   */\n      swap1\n      pop\n        /* \"#utility.yul\":3064:3372   */\n      swap2\n      swap1\n      pop\n      jump\t// out\n        /* \"#utility.yul\":3378:3477   */\n    tag_68:\n        /* \"#utility.yul\":3430:3436   */\n      0x00\n        /* \"#utility.yul\":3464:3469   */\n      dup2\n        /* \"#utility.yul\":3458:3470   */\n      mload\n        /* \"#utility.yul\":3448:3470   */\n      swap1\n      pop\n        /* \"#utility.yul\":3378:3477   */\n      swap2\n      swap1\n      pop\n      jump\t// out\n        /* \"#utility.yul\":3483:3652   */\n    tag_70:\n        /* \"#utility.yul\":3567:3578   */\n      0x00\n        /* \"#utility.yul\":3601:3607   */\n      dup3\n        /* \"#utility.yul\":3596:3599   */\n      dup3\n        /* \"#utility.yul\":3589:3608   */\n      mstore\n        /* \"#utility.yul\":3641:3645   */\n      0x20\n        /* \"#utility.yul\":3636:3639   */\n      dup3\n        /* \"#utility.yul\":3632:3646   */\n      add\n        /* \"#utility.yul\":3617:3646   */\n      swap1\n      pop\n        /* \"#utility.yul\":3483:3652   */\n      swap3\n      swap2\n      pop\n      pop\n      jump\t// out\n        /* \"#utility.yul\":3658:3735   */\n    tag_78:\n        /* \"#utility.yul\":3695:3702   */\n      0x00\n        /* \"#utility.yul\":3724:3729   */\n      dup2\n        /* \"#utility.yul\":3713:3729   */\n      swap1\n      pop\n        /* \"#utility.yul\":3658:3735   */\n      swap2\n      swap1\n      pop\n      jump\t// out\n        /* \"#utility.yul\":3741:3895   */\n    tag_41:\n        /* \"#utility.yul\":3825:3831   */\n      dup3\n        /* \"#utility.yul\":3820:3823   */\n      dup2\n        /* \"#utility.yul\":3815:3818   */\n      dup4\n        /* \"#utility.yul\":3802:3832   */\n      calldatacopy\n        /* \"#utility.yul\":3887:3888   */\n      0x00\n        /* \"#utility.yul\":3878:3884   */\n      dup4\n        /* \"#utility.yul\":3873:3876   */\n      dup4\n        /* \"#utility.yul\":3869:3885   */\n      add\n        /* \"#utility.yul\":3862:3889   */\n      mstore\n        /* \"#utility.yul\":3741:3895   */\n      pop\n      pop\n      pop\n      jump\t// out\n        /* \"#utility.yul\":3901:4208   */\n    tag_72:\n        /* \"#utility.yul\":3969:3970   */\n      0x00\n        /* \"#utility.yul\":3979:4092   */\n    tag_98:\n        /* \"#utility.yul\":3993:3999   */\n      dup4\n        /* \"#utility.yul\":3990:3991   */\n      dup2\n        /* \"#utility.yul\":3987:4000   */\n      lt\n        /* \"#utility.yul\":3979:4092   */\n      iszero\n      tag_100\n      jumpi\n        /* \"#utility.yul\":4078:4079   */\n      dup1\n        /* \"#utility.yul\":4073:4076   */\n      dup3\n        /* \"#utility.yul\":4069:4080   */\n      add\n        /* \"#utility.yul\":4063:4081   */\n      mload\n        /* \"#utility.yul\":4059:4060   */\n      dup2\n        /* \"#utility.yul\":4054:4057   */\n      dup5\n        /* \"#utility.yul\":4050:4061   */\n      add\n        /* \"#utility.yul\":4043:4082   */\n      mstore\n        /* \"#utility.yul\":4015:4017   */\n      0x20\n        /* \"#utility.yul\":4012:4013   */\n      dup2\n        /* \"#utility.yul\":4008:4018   */\n      add\n        /* \"#utility.yul\":4003:4018   */\n      swap1\n      pop\n        /* \"#utility.yul\":3979:4092   */\n      jump(tag_98)\n    tag_100:\n        /* \"#utility.yul\":4110:4116   */\n      dup4\n        /* \"#utility.yul\":4107:4108   */\n      dup2\n        /* \"#utility.yul\":4104:4117   */\n      gt\n        /* \"#utility.yul\":4101:4202   */\n      iszero\n      tag_101\n      jumpi\n        /* \"#utility.yul\":4190:4191   */\n      0x00\n        /* \"#utility.yul\":4181:4187   */\n      dup5\n        /* \"#utility.yul\":4176:4179   */\n      dup5\n        /* \"#utility.yul\":4172:4188   */\n      add\n        /* \"#utility.yul\":4165:4192   */\n      mstore\n        /* \"#utility.yul\":4101:4202   */\n    tag_101:\n        /* \"#utility.yul\":3950:4208   */\n      pop\n        /* \"#utility.yul\":3901:4208   */\n      pop\n      pop\n      pop\n      jump\t// out\n        /* \"#utility.yul\":4214:4534   */\n    tag_25:\n        /* \"#utility.yul\":4258:4264   */\n      0x00\n        /* \"#utility.yul\":4295:4296   */\n      0x02\n        /* \"#utility.yul\":4289:4293   */\n      dup3\n        /* \"#utility.yul\":4285:4297   */\n      div\n        /* \"#utility.yul\":4275:4297   */\n      swap1\n      pop\n        /* \"#utility.yul\":4342:4343   */\n      0x01\n        /* \"#utility.yul\":4336:4340   */\n      dup3\n        /* \"#utility.yul\":4332:4344   */\n      and\n        /* \"#utility.yul\":4363:4381   */\n      dup1\n        /* \"#utility.yul\":4353:4434   */\n      tag_103\n      jumpi\n        /* \"#utility.yul\":4419:4423   */\n      0x7f\n        /* \"#utility.yul\":4411:4417   */\n      dup3\n        /* \"#utility.yul\":4407:4424   */\n      and\n        /* \"#utility.yul\":4397:4424   */\n      swap2\n      pop\n        /* \"#utility.yul\":4353:4434   */\n    tag_103:\n        /* \"#utility.yul\":4481:4483   */\n      0x20\n        /* \"#utility.yul\":4473:4479   */\n      dup3\n        /* \"#utility.yul\":4470:4484   */\n      lt\n        /* \"#utility.yul\":4450:4468   */\n      dup2\n        /* \"#utility.yul\":4447:4485   */\n      eq\n        /* \"#utility.yul\":4444:4528   */\n      iszero\n      tag_104\n      jumpi\n        /* \"#utility.yul\":4500:4518   */\n      tag_105\n      tag_106\n      jump\t// in\n    tag_105:\n        /* \"#utility.yul\":4444:4528   */\n    tag_104:\n        /* \"#utility.yul\":4265:4534   */\n      pop\n        /* \"#utility.yul\":4214:4534   */\n      swap2\n      swap1\n      pop\n      jump\t// out\n        /* \"#utility.yul\":4540:4821   */\n    tag_86:\n        /* \"#utility.yul\":4623:4650   */\n      tag_108\n        /* \"#utility.yul\":4645:4649   */\n      dup3\n        /* \"#utility.yul\":4623:4650   */\n      tag_74\n      jump\t// in\n    tag_108:\n        /* \"#utility.yul\":4615:4621   */\n      dup2\n        /* \"#utility.yul\":4611:4651   */\n      add\n        /* \"#utility.yul\":4753:4759   */\n      dup2\n        /* \"#utility.yul\":4741:4751   */\n      dup2\n        /* \"#utility.yul\":4738:4760   */\n      lt\n        /* \"#utility.yul\":4717:4735   */\n      0xffffffffffffffff\n        /* \"#utility.yul\":4705:4715   */\n      dup3\n        /* \"#utility.yul\":4702:4736   */\n      gt\n        /* \"#utility.yul\":4699:4761   */\n      or\n        /* \"#utility.yul\":4696:4784   */\n      iszero\n      tag_109\n      jumpi\n        /* \"#utility.yul\":4764:4782   */\n      tag_110\n      tag_91\n      jump\t// in\n    tag_110:\n        /* \"#utility.yul\":4696:4784   */\n    tag_109:\n        /* \"#utility.yul\":4804:4814   */\n      dup1\n        /* \"#utility.yul\":4800:4802   */\n      0x40\n        /* \"#utility.yul\":4793:4815   */\n      mstore\n        /* \"#utility.yul\":4583:4821   */\n      pop\n        /* \"#utility.yul\":4540:4821   */\n      pop\n      pop\n      jump\t// out\n        /* \"#utility.yul\":4827:5007   */\n    tag_106:\n        /* \"#utility.yul\":4875:4952   */\n      0x4e487b7100000000000000000000000000000000000000000000000000000000\n        /* \"#utility.yul\":4872:4873   */\n      0x00\n        /* \"#utility.yul\":4865:4953   */\n      mstore\n        /* \"#utility.yul\":4972:4976   */\n      0x22\n        /* \"#utility.yul\":4969:4970   */\n      0x04\n        /* \"#utility.yul\":4962:4977   */\n      mstore\n        /* \"#utility.yul\":4996:5000   */\n      0x24\n        /* \"#utility.yul\":4993:4994   */\n      0x00\n        /* \"#utility.yul\":4986:5001   */\n      revert\n        /* \"#utility.yul\":5013:5193   */\n    tag_91:\n        /* \"#utility.yul\":5061:5138   */\n      0x4e487b7100000000000000000000000000000000000000000000000000000000\n        /* \"#utility.yul\":5058:5059   */\n      0x00\n        /* \"#utility.yul\":5051:5139   */\n      mstore\n        /* \"#utility.yul\":5158:5162   */\n      0x41\n        /* \"#utility.yul\":5155:5156   */\n      0x04\n        /* \"#utility.yul\":5148:5163   */\n      mstore\n        /* \"#utility.yul\":5182:5186   */\n      0x24\n        /* \"#utility.yul\":5179:5180   */\n      0x00\n        /* \"#utility.yul\":5172:5187   */\n      revert\n        /* \"#utility.yul\":5199:5316   */\n    tag_46:\n        /* \"#utility.yul\":5308:5309   */\n      0x00\n        /* \"#utility.yul\":5305:5306   */\n      dup1\n        /* \"#utility.yul\":5298:5310   */\n      revert\n        /* \"#utility.yul\":5322:5439   */\n    tag_39:\n        /* \"#utility.yul\":5431:5432   */\n      0x00\n        /* \"#utility.yul\":5428:5429   */\n      dup1\n        /* \"#utility.yul\":5421:5433   */\n      revert\n        /* \"#utility.yul\":5445:5562   */\n    tag_58:\n        /* \"#utility.yul\":5554:5555   */\n      0x00\n        /* \"#utility.yul\":5551:5552   */\n      dup1\n        /* \"#utility.yul\":5544:5556   */\n      revert\n        /* \"#utility.yul\":5568:5685   */\n    tag_55:\n        /* \"#utility.yul\":5677:5678   */\n      0x00\n        /* \"#utility.yul\":5674:5675   */\n      dup1\n        /* \"#utility.yul\":5667:5679   */\n      revert\n        /* \"#utility.yul\":5691:5793   */\n    tag_74:\n        /* \"#utility.yul\":5732:5738   */\n      0x00\n        /* \"#utility.yul\":5783:5785   */\n      0x1f\n        /* \"#utility.yul\":5779:5786   */\n      not\n        /* \"#utility.yul\":5774:5776   */\n      0x1f\n        /* \"#utility.yul\":5767:5772   */\n      dup4\n        /* \"#utility.yul\":5763:5777   */\n      add\n        /* \"#utility.yul\":5759:5787   */\n      and\n        /* \"#utility.yul\":5749:5787   */\n      swap1\n      pop\n        /* \"#utility.yul\":5691:5793   */\n      swap2\n      swap1\n      pop\n      jump\t// out\n        /* \"#utility.yul\":5799:5921   */\n    tag_51:\n        /* \"#utility.yul\":5872:5896   */\n      tag_119\n        /* \"#utility.yul\":5890:5895   */\n      dup2\n        /* \"#utility.yul\":5872:5896   */\n      tag_78\n      jump\t// in\n    tag_119:\n        /* \"#utility.yul\":5865:5870   */\n      dup2\n        /* \"#utility.yul\":5862:5897   */\n      eq\n        /* \"#utility.yul\":5852:5915   */\n      tag_120\n      jumpi\n        /* \"#utility.yul\":5911:5912   */\n      0x00\n        /* \"#utility.yul\":5908:5909   */\n      dup1\n        /* \"#utility.yul\":5901:5913   */\n      revert\n        /* \"#utility.yul\":5852:5915   */\n    tag_120:\n        /* \"#utility.yul\":5799:5921   */\n      pop\n      jump\t// out\n\n    auxdata: 0xa2646970667358221220eb7f15ffd61701b978e996dce10e3b8e865d0e68127f5ddd3ba8951bdd6f3d4764736f6c63430008070033\n}\n",
				"bytecode": {
					"linkReferences": {},
					"object": "608060405234801561001057600080fd5b506104dc806100206000396000f3fe608060405234801561001057600080fd5b506004361061004b5760003560e01c8062ce2057146100505780635f4fe7b61461005a5780638c55174214610064578063bfb231d214610080575b600080fd5b6100586100b1565b005b6100626100b3565b005b61007e600480360381019061007991906101ea565b6100b5565b005b61009a60048036038101906100959190610246565b6100b9565b6040516100a89291906102bb565b60405180910390f35b565b565b5050565b60006020528060005260406000206000915090508060000180546100dc906103a9565b80601f0160208091040260200160405190810160405280929190818152602001828054610108906103a9565b80156101555780601f1061012a57610100808354040283529160200191610155565b820191906000526020600020905b81548152906001019060200180831161013857829003601f168201915b5050505050908060010154905082565b600061017861017384610310565b6102eb565b9050828152602081018484840111156101945761019361046f565b5b61019f848285610367565b509392505050565b600082601f8301126101bc576101bb61046a565b5b81356101cc848260208601610165565b91505092915050565b6000813590506101e48161048f565b92915050565b6000806040838503121561020157610200610479565b5b600083013567ffffffffffffffff81111561021f5761021e610474565b5b61022b858286016101a7565b925050602061023c858286016101d5565b9150509250929050565b60006020828403121561025c5761025b610479565b5b600061026a848285016101d5565b91505092915050565b600061027e82610341565b610288818561034c565b9350610298818560208601610376565b6102a18161047e565b840191505092915050565b6102b58161035d565b82525050565b600060408201905081810360008301526102d58185610273565b90506102e460208301846102ac565b9392505050565b60006102f5610306565b905061030182826103db565b919050565b6000604051905090565b600067ffffffffffffffff82111561032b5761032a61043b565b5b6103348261047e565b9050602081019050919050565b600081519050919050565b600082825260208201905092915050565b6000819050919050565b82818337600083830152505050565b60005b83811015610394578082015181840152602081019050610379565b838111156103a3576000848401525b50505050565b600060028204905060018216806103c157607f821691505b602082108114156103d5576103d461040c565b5b50919050565b6103e48261047e565b810181811067ffffffffffffffff821117156104035761040261043b565b5b80604052505050565b7f4e487b7100000000000000000000000000000000000000000000000000000000600052602260045260246000fd5b7f4e487b7100000000000000000000000000000000000000000000000000000000600052604160045260246000fd5b600080fd5b600080fd5b600080fd5b600080fd5b6000601f19601f8301169050919050565b6104988161035d565b81146104a357600080fd5b5056fea2646970667358221220eb7f15ffd61701b978e996dce10e3b8e865d0e68127f5ddd3ba8951bdd6f3d4764736f6c63430008070033",
					"opcodes": "PUSH1 0x80 PUSH1 0x40 MSTORE CALLVALUE DUP1 ISZERO PUSH2 0x10 JUMPI PUSH1 0x0 DUP1 REVERT JUMPDEST POP PUSH2 0x4DC DUP1 PUSH2 0x20 PUSH1 0x0 CODECOPY PUSH1 0x0 RETURN INVALID PUSH1 0x80 PUSH1 0x40 MSTORE CALLVALUE DUP1 ISZERO PUSH2 0x10 JUMPI PUSH1 0x0 DUP1 REVERT JUMPDEST POP PUSH1 0x4 CALLDATASIZE LT PUSH2 0x4B JUMPI PUSH1 0x0 CALLDATALOAD PUSH1 0xE0 SHR DUP1 PUSH3 0xCE2057 EQ PUSH2 0x50 JUMPI DUP1 PUSH4 0x5F4FE7B6 EQ PUSH2 0x5A JUMPI DUP1 PUSH4 0x8C551742 EQ PUSH2 0x64 JUMPI DUP1 PUSH4 0xBFB231D2 EQ PUSH2 0x80 JUMPI JUMPDEST PUSH1 0x0 DUP1 REVERT JUMPDEST PUSH2 0x58 PUSH2 0xB1 JUMP JUMPDEST STOP JUMPDEST PUSH2 0x62 PUSH2 0xB3 JUMP JUMPDEST STOP JUMPDEST PUSH2 0x7E PUSH1 0x4 DUP1 CALLDATASIZE SUB DUP2 ADD SWAP1 PUSH2 0x79 SWAP2 SWAP1 PUSH2 0x1EA JUMP JUMPDEST PUSH2 0xB5 JUMP JUMPDEST STOP JUMPDEST PUSH2 0x9A PUSH1 0x4 DUP1 CALLDATASIZE SUB DUP2 ADD SWAP1 PUSH2 0x95 SWAP2 SWAP1 PUSH2 0x246 JUMP JUMPDEST PUSH2 0xB9 JUMP JUMPDEST PUSH1 0x40 MLOAD PUSH2 0xA8 SWAP3 SWAP2 SWAP1 PUSH2 0x2BB JUMP JUMPDEST PUSH1 0x40 MLOAD DUP1 SWAP2 SUB SWAP1 RETURN JUMPDEST JUMP JUMPDEST JUMP JUMPDEST POP POP JUMP JUMPDEST PUSH1 0x0 PUSH1 0x20 MSTORE DUP1 PUSH1 0x0 MSTORE PUSH1 0x40 PUSH1 0x0 KECCAK256 PUSH1 0x0 SWAP2 POP SWAP1 POP DUP1 PUSH1 0x0 ADD DUP1 SLOAD PUSH2 0xDC SWAP1 PUSH2 0x3A9 JUMP JUMPDEST DUP1 PUSH1 0x1F ADD PUSH1 0x20 DUP1 SWAP2 DIV MUL PUSH1 0x20 ADD PUSH1 0x40 MLOAD SWAP1 DUP2 ADD PUSH1 0x40 MSTORE DUP1 SWAP3 SWAP2 SWAP1 DUP2 DUP2 MSTORE PUSH1 0x20 ADD DUP3 DUP1 SLOAD PUSH2 0x108 SWAP1 PUSH2 0x3A9 JUMP JUMPDEST DUP1 ISZERO PUSH2 0x155 JUMPI DUP1 PUSH1 0x1F LT PUSH2 0x12A JUMPI PUSH2 0x100 DUP1 DUP4 SLOAD DIV MUL DUP4 MSTORE SWAP2 PUSH1 0x20 ADD SWAP2 PUSH2 0x155 JUMP JUMPDEST DUP3 ADD SWAP2 SWAP1 PUSH1 0x0 MSTORE PUSH1 0x20 PUSH1 0x0 KECCAK256 SWAP1 JUMPDEST DUP2 SLOAD DUP2 MSTORE SWAP1 PUSH1 0x1 ADD SWAP1 PUSH1 0x20 ADD DUP1 DUP4 GT PUSH2 0x138 JUMPI DUP3 SWAP1 SUB PUSH1 0x1F AND DUP3 ADD SWAP2 JUMPDEST POP POP POP POP POP SWAP1 DUP1 PUSH1 0x1 ADD SLOAD SWAP1 POP DUP3 JUMP JUMPDEST PUSH1 0x0 PUSH2 0x178 PUSH2 0x173 DUP5 PUSH2 0x310 JUMP JUMPDEST PUSH2 0x2EB JUMP JUMPDEST SWAP1 POP DUP3 DUP2 MSTORE PUSH1 0x20 DUP2 ADD DUP5 DUP5 DUP5 ADD GT ISZERO PUSH2 0x194 JUMPI PUSH2 0x193 PUSH2 0x46F JUMP JUMPDEST JUMPDEST PUSH2 0x19F DUP5 DUP3 DUP6 PUSH2 0x367 JUMP JUMPDEST POP SWAP4 SWAP3 POP POP POP JUMP JUMPDEST PUSH1 0x0 DUP3 PUSH1 0x1F DUP4 ADD SLT PUSH2 0x1BC JUMPI PUSH2 0x1BB PUSH2 0x46A JUMP JUMPDEST JUMPDEST DUP2 CALLDATALOAD PUSH2 0x1CC DUP5 DUP3 PUSH1 0x20 DUP7 ADD PUSH2 0x165 JUMP JUMPDEST SWAP2 POP POP SWAP3 SWAP2 POP POP JUMP JUMPDEST PUSH1 0x0 DUP2 CALLDATALOAD SWAP1 POP PUSH2 0x1E4 DUP2 PUSH2 0x48F JUMP JUMPDEST SWAP3 SWAP2 POP POP JUMP JUMPDEST PUSH1 0x0 DUP1 PUSH1 0x40 DUP4 DUP6 SUB SLT ISZERO PUSH2 0x201 JUMPI PUSH2 0x200 PUSH2 0x479 JUMP JUMPDEST JUMPDEST PUSH1 0x0 DUP4 ADD CALLDATALOAD PUSH8 0xFFFFFFFFFFFFFFFF DUP2 GT ISZERO PUSH2 0x21F JUMPI PUSH2 0x21E PUSH2 0x474 JUMP JUMPDEST JUMPDEST PUSH2 0x22B DUP6 DUP3 DUP7 ADD PUSH2 0x1A7 JUMP JUMPDEST SWAP3 POP POP PUSH1 0x20 PUSH2 0x23C DUP6 DUP3 DUP7 ADD PUSH2 0x1D5 JUMP JUMPDEST SWAP2 POP POP SWAP3 POP SWAP3 SWAP1 POP JUMP JUMPDEST PUSH1 0x0 PUSH1 0x20 DUP3 DUP5 SUB SLT ISZERO PUSH2 0x25C JUMPI PUSH2 0x25B PUSH2 0x479 JUMP JUMPDEST JUMPDEST PUSH1 0x0 PUSH2 0x26A DUP5 DUP3 DUP6 ADD PUSH2 0x1D5 JUMP JUMPDEST SWAP2 POP POP SWAP3 SWAP2 POP POP JUMP JUMPDEST PUSH1 0x0 PUSH2 0x27E DUP3 PUSH2 0x341 JUMP JUMPDEST PUSH2 0x288 DUP2 DUP6 PUSH2 0x34C JUMP JUMPDEST SWAP4 POP PUSH2 0x298 DUP2 DUP6 PUSH1 0x20 DUP7 ADD PUSH2 0x376 JUMP JUMPDEST PUSH2 0x2A1 DUP2 PUSH2 0x47E JUMP JUMPDEST DUP5 ADD SWAP2 POP POP SWAP3 SWAP2 POP POP JUMP JUMPDEST PUSH2 0x2B5 DUP2 PUSH2 0x35D JUMP JUMPDEST DUP3 MSTORE POP POP JUMP JUMPDEST PUSH1 0x0 PUSH1 0x40 DUP3 ADD SWAP1 POP DUP2 DUP2 SUB PUSH1 0x0 DUP4 ADD MSTORE PUSH2 0x2D5 DUP2 DUP6 PUSH2 0x273 JUMP JUMPDEST SWAP1 POP PUSH2 0x2E4 PUSH1 0x20 DUP4 ADD DUP5 PUSH2 0x2AC JUMP JUMPDEST SWAP4 SWAP3 POP POP POP JUMP JUMPDEST PUSH1 0x0 PUSH2 0x2F5 PUSH2 0x306 JUMP JUMPDEST SWAP1 POP PUSH2 0x301 DUP3 DUP3 PUSH2 0x3DB JUMP JUMPDEST SWAP2 SWAP1 POP JUMP JUMPDEST PUSH1 0x0 PUSH1 0x40 MLOAD SWAP1 POP SWAP1 JUMP JUMPDEST PUSH1 0x0 PUSH8 0xFFFFFFFFFFFFFFFF DUP3 GT ISZERO PUSH2 0x32B JUMPI PUSH2 0x32A PUSH2 0x43B JUMP JUMPDEST JUMPDEST PUSH2 0x334 DUP3 PUSH2 0x47E JUMP JUMPDEST SWAP1 POP PUSH1 0x20 DUP2 ADD SWAP1 POP SWAP2 SWAP1 POP JUMP JUMPDEST PUSH1 0x0 DUP2 MLOAD SWAP1 POP SWAP2 SWAP1 POP JUMP JUMPDEST PUSH1 0x0 DUP3 DUP3 MSTORE PUSH1 0x20 DUP3 ADD SWAP1 POP SWAP3 SWAP2 POP POP JUMP JUMPDEST PUSH1 0x0 DUP2 SWAP1 POP SWAP2 SWAP1 POP JUMP JUMPDEST DUP3 DUP2 DUP4 CALLDATACOPY PUSH1 0x0 DUP4 DUP4 ADD MSTORE POP POP POP JUMP JUMPDEST PUSH1 0x0 JUMPDEST DUP4 DUP2 LT ISZERO PUSH2 0x394 JUMPI DUP1 DUP3 ADD MLOAD DUP2 DUP5 ADD MSTORE PUSH1 0x20 DUP2 ADD SWAP1 POP PUSH2 0x379 JUMP JUMPDEST DUP4 DUP2 GT ISZERO PUSH2 0x3A3 JUMPI PUSH1 0x0 DUP5 DUP5 ADD MSTORE JUMPDEST POP POP POP POP JUMP JUMPDEST PUSH1 0x0 PUSH1 0x2 DUP3 DIV SWAP1 POP PUSH1 0x1 DUP3 AND DUP1 PUSH2 0x3C1 JUMPI PUSH1 0x7F DUP3 AND SWAP2 POP JUMPDEST PUSH1 0x20 DUP3 LT DUP2 EQ ISZERO PUSH2 0x3D5 JUMPI PUSH2 0x3D4 PUSH2 0x40C JUMP JUMPDEST JUMPDEST POP SWAP2 SWAP1 POP JUMP JUMPDEST PUSH2 0x3E4 DUP3 PUSH2 0x47E JUMP JUMPDEST DUP2 ADD DUP2 DUP2 LT PUSH8 0xFFFFFFFFFFFFFFFF DUP3 GT OR ISZERO PUSH2 0x403 JUMPI PUSH2 0x402 PUSH2 0x43B JUMP JUMPDEST JUMPDEST DUP1 PUSH1 0x40 MSTORE POP POP POP JUMP JUMPDEST PUSH32 0x4E487B7100000000000000000000000000000000000000000000000000000000 PUSH1 0x0 MSTORE PUSH1 0x22 PUSH1 0x4 MSTORE PUSH1 0x24 PUSH1 0x0 REVERT JUMPDEST PUSH32 0x4E487B7100000000000000000000000000000000000000000000000000000000 PUSH1 0x0 MSTORE PUSH1 0x41 PUSH1 0x4 MSTORE PUSH1 0x24 PUSH1 0x0 REVERT JUMPDEST PUSH1 0x0 DUP1 REVERT JUMPDEST PUSH1 0x0 DUP1 REVERT JUMPDEST PUSH1 0x0 DUP1 REVERT JUMPDEST PUSH1 0x0 DUP1 REVERT JUMPDEST PUSH1 0x0 PUSH1 0x1F NOT PUSH1 0x1F DUP4 ADD AND SWAP1 POP SWAP2 SWAP1 POP JUMP JUMPDEST PUSH2 0x498 DUP2 PUSH2 0x35D JUMP JUMPDEST DUP2 EQ PUSH2 0x4A3 JUMPI PUSH1 0x0 DUP1 REVERT JUMPDEST POP JUMP INVALID LOG2 PUSH5 0x6970667358 0x22 SLT KECCAK256 0xEB PUSH32 0x15FFD61701B978E996DCE10E3B8E865D0E68127F5DDD3BA8951BDD6F3D476473 PUSH16 0x6C634300080700330000000000000000 "
				},
				"gasEstimates": {
					"creation": {
						"codeDepositCost": "248800",
						"executionCost": "287",
						"totalCost": "249087"
					},
					"external": {
						"createItem(string,uint256)": "infinite",
						"items(uint256)": "infinite",
						"triggerDelivery()": "144",
						"triggerPayment()": "122"
					}
				},
				"methodIdentifiers": {
					"createItem(string,uint256)": "8c551742",
					"items(uint256)": "bfb231d2",
					"triggerDelivery()": "5f4fe7b6",
					"triggerPayment()": "00ce2057"
				}
			},
			"userdoc": {
				"kind": "user",
				"methods": {},
				"version": 1
			}
		}
	}
}