{
	"contracts/eventtrigger.sol": {
		"Item": {
			"abi": [
				{
					"inputs": [
						{
							"internalType": "contract ItemManager",
							"name": "_parentContract",
							"type": "address"
						},
						{
							"internalType": "uint256",
							"name": "_itemPriceInWei",
							"type": "uint256"
						},
						{
							"internalType": "uint256",
							"name": "_itemIndex",
							"type": "uint256"
						}
					],
					"stateMutability": "nonpayable",
					"type": "constructor"
				},
				{
					"inputs": [],
					"name": "addr",
					"outputs": [
						{
							"internalType": "address",
							"name": "",
							"type": "address"
						}
					],
					"stateMutability": "view",
					"type": "function"
				},
				{
					"inputs": [],
					"name": "itemIndex",
					"outputs": [
						{
							"internalType": "uint256",
							"name": "",
							"type": "uint256"
						}
					],
					"stateMutability": "view",
					"type": "function"
				},
				{
					"inputs": [],
					"name": "itemPriceInWei",
					"outputs": [
						{
							"internalType": "uint256",
							"name": "",
							"type": "uint256"
						}
					],
					"stateMutability": "view",
					"type": "function"
				},
				{
					"inputs": [
						{
							"internalType": "contract ItemManager",
							"name": "_parentContract",
							"type": "address"
						}
					],
					"name": "pay",
					"outputs": [],
					"stateMutability": "payable",
					"type": "function"
				},
				{
					"inputs": [],
					"name": "pricePaid",
					"outputs": [
						{
							"internalType": "uint256",
							"name": "",
							"type": "uint256"
						}
					],
					"stateMutability": "view",
					"type": "function"
				}
			],
			"devdoc": {
				"kind": "dev",
				"methods": {},
				"version": 1
			},
			"evm": {
				"assembly": "    /* \"contracts/eventtrigger.sol\":60:1158  contract Item {\r... */\n  mstore(0x40, 0x80)\n    /* \"contracts/eventtrigger.sol\":207:420  constructor(ItemManager _parentContract, uint _itemPriceInWei, uint _itemIndex) public {\r... */\n  callvalue\n  dup1\n  iszero\n  tag_1\n  jumpi\n  0x00\n  dup1\n  revert\ntag_1:\n  pop\n  mload(0x40)\n  sub(codesize, bytecodeSize)\n  dup1\n  bytecodeSize\n  dup4\n  codecopy\n  dup2\n  dup2\n  add\n  0x40\n  mstore\n  dup2\n  add\n  swap1\n  tag_2\n  swap2\n  swap1\n  tag_3\n  jump\t// in\ntag_2:\n    /* \"contracts/eventtrigger.sol\":322:336  parentContract */\n  0x03\n  0x00\n  swap1\n  sload\n  swap1\n  0x0100\n  exp\n  swap1\n  div\n  0xffffffffffffffffffffffffffffffffffffffff\n  and\n    /* \"contracts/eventtrigger.sol\":305:319  parentContract */\n  0x03\n  0x00\n    /* \"contracts/eventtrigger.sol\":305:336  parentContract = parentContract */\n  0x0100\n  exp\n  dup2\n  sload\n  dup2\n  0xffffffffffffffffffffffffffffffffffffffff\n  mul\n  not\n  and\n  swap1\n  dup4\n  0xffffffffffffffffffffffffffffffffffffffff\n  and\n  mul\n  or\n  swap1\n  sstore\n  pop\n    /* \"contracts/eventtrigger.sol\":364:379  _itemPriceInWei */\n  dup2\n    /* \"contracts/eventtrigger.sol\":347:361  itemPriceInWei */\n  0x00\n    /* \"contracts/eventtrigger.sol\":347:379  itemPriceInWei = _itemPriceInWei */\n  dup2\n  swap1\n  sstore\n  pop\n    /* \"contracts/eventtrigger.sol\":402:412  _itemIndex */\n  dup1\n    /* \"contracts/eventtrigger.sol\":390:399  itemIndex */\n  0x02\n    /* \"contracts/eventtrigger.sol\":390:412  itemIndex = _itemIndex */\n  dup2\n  swap1\n  sstore\n  pop\n    /* \"contracts/eventtrigger.sol\":207:420  constructor(ItemManager _parentContract, uint _itemPriceInWei, uint _itemIndex) public {\r... */\n  pop\n  pop\n  pop\n    /* \"contracts/eventtrigger.sol\":60:1158  contract Item {\r... */\n  jump(tag_6)\n    /* \"#utility.yul\":7:188   */\ntag_8:\n    /* \"#utility.yul\":83:88   */\n  0x00\n    /* \"#utility.yul\":114:120   */\n  dup2\n    /* \"#utility.yul\":108:121   */\n  mload\n    /* \"#utility.yul\":99:121   */\n  swap1\n  pop\n    /* \"#utility.yul\":130:182   */\n  tag_10\n    /* \"#utility.yul\":176:181   */\n  dup2\n    /* \"#utility.yul\":130:182   */\n  tag_11\n  jump\t// in\ntag_10:\n    /* \"#utility.yul\":7:188   */\n  swap3\n  swap2\n  pop\n  pop\n  jump\t// out\n    /* \"#utility.yul\":194:337   */\ntag_12:\n    /* \"#utility.yul\":251:256   */\n  0x00\n    /* \"#utility.yul\":282:288   */\n  dup2\n    /* \"#utility.yul\":276:289   */\n  mload\n    /* \"#utility.yul\":267:289   */\n  swap1\n  pop\n    /* \"#utility.yul\":298:331   */\n  tag_14\n    /* \"#utility.yul\":325:330   */\n  dup2\n    /* \"#utility.yul\":298:331   */\n  tag_15\n  jump\t// in\ntag_14:\n    /* \"#utility.yul\":194:337   */\n  swap3\n  swap2\n  pop\n  pop\n  jump\t// out\n    /* \"#utility.yul\":343:1044   */\ntag_3:\n    /* \"#utility.yul\":450:456   */\n  0x00\n    /* \"#utility.yul\":458:464   */\n  dup1\n    /* \"#utility.yul\":466:472   */\n  0x00\n    /* \"#utility.yul\":515:517   */\n  0x60\n    /* \"#utility.yul\":503:512   */\n  dup5\n    /* \"#utility.yul\":494:501   */\n  dup7\n    /* \"#utility.yul\":490:513   */\n  sub\n    /* \"#utility.yul\":486:518   */\n  slt\n    /* \"#utility.yul\":483:602   */\n  iszero\n  tag_17\n  jumpi\n    /* \"#utility.yul\":521:600   */\n  tag_18\n  tag_19\n  jump\t// in\ntag_18:\n    /* \"#utility.yul\":483:602   */\ntag_17:\n    /* \"#utility.yul\":641:642   */\n  0x00\n    /* \"#utility.yul\":666:749   */\n  tag_20\n    /* \"#utility.yul\":741:748   */\n  dup7\n    /* \"#utility.yul\":732:738   */\n  dup3\n    /* \"#utility.yul\":721:730   */\n  dup8\n    /* \"#utility.yul\":717:739   */\n  add\n    /* \"#utility.yul\":666:749   */\n  tag_8\n  jump\t// in\ntag_20:\n    /* \"#utility.yul\":656:749   */\n  swap4\n  pop\n    /* \"#utility.yul\":612:759   */\n  pop\n    /* \"#utility.yul\":798:800   */\n  0x20\n    /* \"#utility.yul\":824:888   */\n  tag_21\n    /* \"#utility.yul\":880:887   */\n  dup7\n    /* \"#utility.yul\":871:877   */\n  dup3\n    /* \"#utility.yul\":860:869   */\n  dup8\n    /* \"#utility.yul\":856:878   */\n  add\n    /* \"#utility.yul\":824:888   */\n  tag_12\n  jump\t// in\ntag_21:\n    /* \"#utility.yul\":814:888   */\n  swap3\n  pop\n    /* \"#utility.yul\":769:898   */\n  pop\n    /* \"#utility.yul\":937:939   */\n  0x40\n    /* \"#utility.yul\":963:1027   */\n  tag_22\n    /* \"#utility.yul\":1019:1026   */\n  dup7\n    /* \"#utility.yul\":1010:1016   */\n  dup3\n    /* \"#utility.yul\":999:1008   */\n  dup8\n    /* \"#utility.yul\":995:1017   */\n  add\n    /* \"#utility.yul\":963:1027   */\n  tag_12\n  jump\t// in\ntag_22:\n    /* \"#utility.yul\":953:1027   */\n  swap2\n  pop\n    /* \"#utility.yul\":908:1037   */\n  pop\n    /* \"#utility.yul\":343:1044   */\n  swap3\n  pop\n  swap3\n  pop\n  swap3\n  jump\t// out\n    /* \"#utility.yul\":1131:1227   */\ntag_25:\n    /* \"#utility.yul\":1168:1175   */\n  0x00\n    /* \"#utility.yul\":1197:1221   */\n  tag_27\n    /* \"#utility.yul\":1215:1220   */\n  dup3\n    /* \"#utility.yul\":1197:1221   */\n  tag_28\n  jump\t// in\ntag_27:\n    /* \"#utility.yul\":1186:1221   */\n  swap1\n  pop\n    /* \"#utility.yul\":1131:1227   */\n  swap2\n  swap1\n  pop\n  jump\t// out\n    /* \"#utility.yul\":1233:1348   */\ntag_29:\n    /* \"#utility.yul\":1289:1296   */\n  0x00\n    /* \"#utility.yul\":1318:1342   */\n  tag_31\n    /* \"#utility.yul\":1336:1341   */\n  dup3\n    /* \"#utility.yul\":1318:1342   */\n  tag_25\n  jump\t// in\ntag_31:\n    /* \"#utility.yul\":1307:1342   */\n  swap1\n  pop\n    /* \"#utility.yul\":1233:1348   */\n  swap2\n  swap1\n  pop\n  jump\t// out\n    /* \"#utility.yul\":1354:1480   */\ntag_28:\n    /* \"#utility.yul\":1391:1398   */\n  0x00\n    /* \"#utility.yul\":1431:1473   */\n  0xffffffffffffffffffffffffffffffffffffffff\n    /* \"#utility.yul\":1424:1429   */\n  dup3\n    /* \"#utility.yul\":1420:1474   */\n  and\n    /* \"#utility.yul\":1409:1474   */\n  swap1\n  pop\n    /* \"#utility.yul\":1354:1480   */\n  swap2\n  swap1\n  pop\n  jump\t// out\n    /* \"#utility.yul\":1486:1563   */\ntag_33:\n    /* \"#utility.yul\":1523:1530   */\n  0x00\n    /* \"#utility.yul\":1552:1557   */\n  dup2\n    /* \"#utility.yul\":1541:1557   */\n  swap1\n  pop\n    /* \"#utility.yul\":1486:1563   */\n  swap2\n  swap1\n  pop\n  jump\t// out\n    /* \"#utility.yul\":1692:1809   */\ntag_19:\n    /* \"#utility.yul\":1801:1802   */\n  0x00\n    /* \"#utility.yul\":1798:1799   */\n  dup1\n    /* \"#utility.yul\":1791:1803   */\n  revert\n    /* \"#utility.yul\":1815:1975   */\ntag_11:\n    /* \"#utility.yul\":1907:1950   */\n  tag_39\n    /* \"#utility.yul\":1944:1949   */\n  dup2\n    /* \"#utility.yul\":1907:1950   */\n  tag_29\n  jump\t// in\ntag_39:\n    /* \"#utility.yul\":1900:1905   */\n  dup2\n    /* \"#utility.yul\":1897:1951   */\n  eq\n    /* \"#utility.yul\":1887:1969   */\n  tag_40\n  jumpi\n    /* \"#utility.yul\":1965:1966   */\n  0x00\n    /* \"#utility.yul\":1962:1963   */\n  dup1\n    /* \"#utility.yul\":1955:1967   */\n  revert\n    /* \"#utility.yul\":1887:1969   */\ntag_40:\n    /* \"#utility.yul\":1815:1975   */\n  pop\n  jump\t// out\n    /* \"#utility.yul\":1981:2103   */\ntag_15:\n    /* \"#utility.yul\":2054:2078   */\n  tag_42\n    /* \"#utility.yul\":2072:2077   */\n  dup2\n    /* \"#utility.yul\":2054:2078   */\n  tag_33\n  jump\t// in\ntag_42:\n    /* \"#utility.yul\":2047:2052   */\n  dup2\n    /* \"#utility.yul\":2044:2079   */\n  eq\n    /* \"#utility.yul\":2034:2097   */\n  tag_43\n  jumpi\n    /* \"#utility.yul\":2093:2094   */\n  0x00\n    /* \"#utility.yul\":2090:2091   */\n  dup1\n    /* \"#utility.yul\":2083:2095   */\n  revert\n    /* \"#utility.yul\":2034:2097   */\ntag_43:\n    /* \"#utility.yul\":1981:2103   */\n  pop\n  jump\t// out\n    /* \"contracts/eventtrigger.sol\":60:1158  contract Item {\r... */\ntag_6:\n  dataSize(sub_0)\n  dup1\n  dataOffset(sub_0)\n  0x00\n  codecopy\n  0x00\n  return\nstop\n\nsub_0: assembly {\n        /* \"contracts/eventtrigger.sol\":60:1158  contract Item {\r... */\n      mstore(0x40, 0x80)\n      jumpi(tag_1, lt(calldatasize, 0x04))\n      shr(0xe0, calldataload(0x00))\n      dup1\n      0x0c11dedd\n      eq\n      tag_2\n      jumpi\n      dup1\n      0x767800de\n      eq\n      tag_3\n      jumpi\n      dup1\n      0x89794d00\n      eq\n      tag_4\n      jumpi\n      dup1\n      0xc784a6e6\n      eq\n      tag_5\n      jumpi\n      dup1\n      0xe07bb1a7\n      eq\n      tag_6\n      jumpi\n    tag_1:\n      0x00\n      dup1\n      revert\n        /* \"contracts/eventtrigger.sol\":501:1114  function pay (ItemManager _parentContract) external payable {\r... */\n    tag_2:\n      tag_7\n      0x04\n      dup1\n      calldatasize\n      sub\n      dup2\n      add\n      swap1\n      tag_8\n      swap2\n      swap1\n      tag_9\n      jump\t// in\n    tag_8:\n      tag_10\n      jump\t// in\n    tag_7:\n      stop\n        /* \"contracts/eventtrigger.sol\":428:493  function addr () public view returns (address) {\r... */\n    tag_3:\n      callvalue\n      dup1\n      iszero\n      tag_11\n      jumpi\n      0x00\n      dup1\n      revert\n    tag_11:\n      pop\n      tag_12\n      tag_13\n      jump\t// in\n    tag_12:\n      mload(0x40)\n      tag_14\n      swap2\n      swap1\n      tag_15\n      jump\t// in\n    tag_14:\n      mload(0x40)\n      dup1\n      swap2\n      sub\n      swap1\n      return\n        /* \"contracts/eventtrigger.sol\":114:135  uint public pricePaid */\n    tag_4:\n      callvalue\n      dup1\n      iszero\n      tag_16\n      jumpi\n      0x00\n      dup1\n      revert\n    tag_16:\n      pop\n      tag_17\n      tag_18\n      jump\t// in\n    tag_17:\n      mload(0x40)\n      tag_19\n      swap2\n      swap1\n      tag_20\n      jump\t// in\n    tag_19:\n      mload(0x40)\n      dup1\n      swap2\n      sub\n      swap1\n      return\n        /* \"contracts/eventtrigger.sol\":81:107  uint public itemPriceInWei */\n    tag_5:\n      callvalue\n      dup1\n      iszero\n      tag_21\n      jumpi\n      0x00\n      dup1\n      revert\n    tag_21:\n      pop\n      tag_22\n      tag_23\n      jump\t// in\n    tag_22:\n      mload(0x40)\n      tag_24\n      swap2\n      swap1\n      tag_20\n      jump\t// in\n    tag_24:\n      mload(0x40)\n      dup1\n      swap2\n      sub\n      swap1\n      return\n        /* \"contracts/eventtrigger.sol\":142:163  uint public itemIndex */\n    tag_6:\n      callvalue\n      dup1\n      iszero\n      tag_25\n      jumpi\n      0x00\n      dup1\n      revert\n    tag_25:\n      pop\n      tag_26\n      tag_27\n      jump\t// in\n    tag_26:\n      mload(0x40)\n      tag_28\n      swap2\n      swap1\n      tag_20\n      jump\t// in\n    tag_28:\n      mload(0x40)\n      dup1\n      swap2\n      sub\n      swap1\n      return\n        /* \"contracts/eventtrigger.sol\":501:1114  function pay (ItemManager _parentContract) external payable {\r... */\n    tag_10:\n        /* \"contracts/eventtrigger.sol\":594:595  0 */\n      0x00\n        /* \"contracts/eventtrigger.sol\":581:590  pricePaid */\n      sload(0x01)\n        /* \"contracts/eventtrigger.sol\":581:595  pricePaid == 0 */\n      eq\n        /* \"contracts/eventtrigger.sol\":572:625  require (pricePaid == 0, \"Item is paid for already.\") */\n      tag_30\n      jumpi\n      mload(0x40)\n      0x08c379a000000000000000000000000000000000000000000000000000000000\n      dup2\n      mstore\n      0x04\n      add\n      tag_31\n      swap1\n      tag_32\n      jump\t// in\n    tag_31:\n      mload(0x40)\n      dup1\n      swap2\n      sub\n      swap1\n      revert\n    tag_30:\n        /* \"contracts/eventtrigger.sol\":663:672  msg.value */\n      callvalue\n        /* \"contracts/eventtrigger.sol\":645:659  itemPriceInWei */\n      sload(0x00)\n        /* \"contracts/eventtrigger.sol\":645:672  itemPriceInWei == msg.value */\n      eq\n        /* \"contracts/eventtrigger.sol\":636:701  require (itemPriceInWei == msg.value, \"Please pay exact amount.\") */\n      tag_33\n      jumpi\n      mload(0x40)\n      0x08c379a000000000000000000000000000000000000000000000000000000000\n      dup2\n      mstore\n      0x04\n      add\n      tag_34\n      swap1\n      tag_35\n      jump\t// in\n    tag_34:\n      mload(0x40)\n      dup1\n      swap2\n      sub\n      swap1\n      revert\n    tag_33:\n        /* \"contracts/eventtrigger.sol\":725:734  msg.value */\n      callvalue\n        /* \"contracts/eventtrigger.sol\":712:721  pricePaid */\n      0x01\n      0x00\n        /* \"contracts/eventtrigger.sol\":712:734  pricePaid += msg.value */\n      dup3\n      dup3\n      sload\n      tag_36\n      swap2\n      swap1\n      tag_37\n      jump\t// in\n    tag_36:\n      swap3\n      pop\n      pop\n      dup2\n      swap1\n      sstore\n      pop\n        /* \"contracts/eventtrigger.sol\":808:823  _parentContract */\n      dup1\n        /* \"contracts/eventtrigger.sol\":808:838  _parentContract.triggerPayment */\n      0xffffffffffffffffffffffffffffffffffffffff\n      and\n      0x800fb83f\n        /* \"contracts/eventtrigger.sol\":847:856  msg.value */\n      callvalue\n        /* \"contracts/eventtrigger.sol\":858:867  itemIndex */\n      sload(0x02)\n        /* \"contracts/eventtrigger.sol\":808:868  _parentContract.triggerPayment{value : msg.value}(itemIndex) */\n      mload(0x40)\n      dup4\n      0xffffffff\n      and\n      0xe0\n      shl\n      dup2\n      mstore\n      0x04\n      add\n      tag_38\n      swap2\n      swap1\n      tag_20\n      jump\t// in\n    tag_38:\n      0x00\n      mload(0x40)\n      dup1\n      dup4\n      sub\n      dup2\n      dup6\n      dup9\n      dup1\n      extcodesize\n      iszero\n      dup1\n      iszero\n      tag_39\n      jumpi\n      0x00\n      dup1\n      revert\n    tag_39:\n      pop\n      gas\n      call\n      iszero\n      dup1\n      iszero\n      tag_41\n      jumpi\n      returndatasize\n      0x00\n      dup1\n      returndatacopy\n      revert(0x00, returndatasize)\n    tag_41:\n      pop\n      pop\n      pop\n      pop\n      pop\n        /* \"contracts/eventtrigger.sol\":501:1114  function pay (ItemManager _parentContract) external payable {\r... */\n      pop\n      jump\t// out\n        /* \"contracts/eventtrigger.sol\":428:493  function addr () public view returns (address) {\r... */\n    tag_13:\n        /* \"contracts/eventtrigger.sol\":466:473  address */\n      0x00\n        /* \"contracts/eventtrigger.sol\":428:493  function addr () public view returns (address) {\r... */\n      swap1\n      jump\t// out\n        /* \"contracts/eventtrigger.sol\":114:135  uint public pricePaid */\n    tag_18:\n      sload(0x01)\n      dup2\n      jump\t// out\n        /* \"contracts/eventtrigger.sol\":81:107  uint public itemPriceInWei */\n    tag_23:\n      sload(0x00)\n      dup2\n      jump\t// out\n        /* \"contracts/eventtrigger.sol\":142:163  uint public itemIndex */\n    tag_27:\n      sload(0x02)\n      dup2\n      jump\t// out\n        /* \"#utility.yul\":7:184   */\n    tag_44:\n        /* \"#utility.yul\":72:77   */\n      0x00\n        /* \"#utility.yul\":110:116   */\n      dup2\n        /* \"#utility.yul\":97:117   */\n      calldataload\n        /* \"#utility.yul\":88:117   */\n      swap1\n      pop\n        /* \"#utility.yul\":126:178   */\n      tag_46\n        /* \"#utility.yul\":172:177   */\n      dup2\n        /* \"#utility.yul\":126:178   */\n      tag_47\n      jump\t// in\n    tag_46:\n        /* \"#utility.yul\":7:184   */\n      swap3\n      swap2\n      pop\n      pop\n      jump\t// out\n        /* \"#utility.yul\":190:557   */\n    tag_9:\n        /* \"#utility.yul\":268:274   */\n      0x00\n        /* \"#utility.yul\":317:319   */\n      0x20\n        /* \"#utility.yul\":305:314   */\n      dup3\n        /* \"#utility.yul\":296:303   */\n      dup5\n        /* \"#utility.yul\":292:315   */\n      sub\n        /* \"#utility.yul\":288:320   */\n      slt\n        /* \"#utility.yul\":285:404   */\n      iszero\n      tag_49\n      jumpi\n        /* \"#utility.yul\":323:402   */\n      tag_50\n      tag_51\n      jump\t// in\n    tag_50:\n        /* \"#utility.yul\":285:404   */\n    tag_49:\n        /* \"#utility.yul\":443:444   */\n      0x00\n        /* \"#utility.yul\":468:540   */\n      tag_52\n        /* \"#utility.yul\":532:539   */\n      dup5\n        /* \"#utility.yul\":523:529   */\n      dup3\n        /* \"#utility.yul\":512:521   */\n      dup6\n        /* \"#utility.yul\":508:530   */\n      add\n        /* \"#utility.yul\":468:540   */\n      tag_44\n      jump\t// in\n    tag_52:\n        /* \"#utility.yul\":458:540   */\n      swap2\n      pop\n        /* \"#utility.yul\":414:550   */\n      pop\n        /* \"#utility.yul\":190:557   */\n      swap3\n      swap2\n      pop\n      pop\n      jump\t// out\n        /* \"#utility.yul\":563:681   */\n    tag_53:\n        /* \"#utility.yul\":650:674   */\n      tag_55\n        /* \"#utility.yul\":668:673   */\n      dup2\n        /* \"#utility.yul\":650:674   */\n      tag_56\n      jump\t// in\n    tag_55:\n        /* \"#utility.yul\":645:648   */\n      dup3\n        /* \"#utility.yul\":638:675   */\n      mstore\n        /* \"#utility.yul\":563:681   */\n      pop\n      pop\n      jump\t// out\n        /* \"#utility.yul\":687:1053   */\n    tag_57:\n        /* \"#utility.yul\":829:832   */\n      0x00\n        /* \"#utility.yul\":850:917   */\n      tag_59\n        /* \"#utility.yul\":914:916   */\n      0x19\n        /* \"#utility.yul\":909:912   */\n      dup4\n        /* \"#utility.yul\":850:917   */\n      tag_60\n      jump\t// in\n    tag_59:\n        /* \"#utility.yul\":843:917   */\n      swap2\n      pop\n        /* \"#utility.yul\":926:1019   */\n      tag_61\n        /* \"#utility.yul\":1015:1018   */\n      dup3\n        /* \"#utility.yul\":926:1019   */\n      tag_62\n      jump\t// in\n    tag_61:\n        /* \"#utility.yul\":1044:1046   */\n      0x20\n        /* \"#utility.yul\":1039:1042   */\n      dup3\n        /* \"#utility.yul\":1035:1047   */\n      add\n        /* \"#utility.yul\":1028:1047   */\n      swap1\n      pop\n        /* \"#utility.yul\":687:1053   */\n      swap2\n      swap1\n      pop\n      jump\t// out\n        /* \"#utility.yul\":1059:1425   */\n    tag_63:\n        /* \"#utility.yul\":1201:1204   */\n      0x00\n        /* \"#utility.yul\":1222:1289   */\n      tag_65\n        /* \"#utility.yul\":1286:1288   */\n      0x18\n        /* \"#utility.yul\":1281:1284   */\n      dup4\n        /* \"#utility.yul\":1222:1289   */\n      tag_60\n      jump\t// in\n    tag_65:\n        /* \"#utility.yul\":1215:1289   */\n      swap2\n      pop\n        /* \"#utility.yul\":1298:1391   */\n      tag_66\n        /* \"#utility.yul\":1387:1390   */\n      dup3\n        /* \"#utility.yul\":1298:1391   */\n      tag_67\n      jump\t// in\n    tag_66:\n        /* \"#utility.yul\":1416:1418   */\n      0x20\n        /* \"#utility.yul\":1411:1414   */\n      dup3\n        /* \"#utility.yul\":1407:1419   */\n      add\n        /* \"#utility.yul\":1400:1419   */\n      swap1\n      pop\n        /* \"#utility.yul\":1059:1425   */\n      swap2\n      swap1\n      pop\n      jump\t// out\n        /* \"#utility.yul\":1431:1549   */\n    tag_68:\n        /* \"#utility.yul\":1518:1542   */\n      tag_70\n        /* \"#utility.yul\":1536:1541   */\n      dup2\n        /* \"#utility.yul\":1518:1542   */\n      tag_71\n      jump\t// in\n    tag_70:\n        /* \"#utility.yul\":1513:1516   */\n      dup3\n        /* \"#utility.yul\":1506:1543   */\n      mstore\n        /* \"#utility.yul\":1431:1549   */\n      pop\n      pop\n      jump\t// out\n        /* \"#utility.yul\":1555:1777   */\n    tag_15:\n        /* \"#utility.yul\":1648:1652   */\n      0x00\n        /* \"#utility.yul\":1686:1688   */\n      0x20\n        /* \"#utility.yul\":1675:1684   */\n      dup3\n        /* \"#utility.yul\":1671:1689   */\n      add\n        /* \"#utility.yul\":1663:1689   */\n      swap1\n      pop\n        /* \"#utility.yul\":1699:1770   */\n      tag_73\n        /* \"#utility.yul\":1767:1768   */\n      0x00\n        /* \"#utility.yul\":1756:1765   */\n      dup4\n        /* \"#utility.yul\":1752:1769   */\n      add\n        /* \"#utility.yul\":1743:1749   */\n      dup5\n        /* \"#utility.yul\":1699:1770   */\n      tag_53\n      jump\t// in\n    tag_73:\n        /* \"#utility.yul\":1555:1777   */\n      swap3\n      swap2\n      pop\n      pop\n      jump\t// out\n        /* \"#utility.yul\":1783:2202   */\n    tag_32:\n        /* \"#utility.yul\":1949:1953   */\n      0x00\n        /* \"#utility.yul\":1987:1989   */\n      0x20\n        /* \"#utility.yul\":1976:1985   */\n      dup3\n        /* \"#utility.yul\":1972:1990   */\n      add\n        /* \"#utility.yul\":1964:1990   */\n      swap1\n      pop\n        /* \"#utility.yul\":2036:2045   */\n      dup2\n        /* \"#utility.yul\":2030:2034   */\n      dup2\n        /* \"#utility.yul\":2026:2046   */\n      sub\n        /* \"#utility.yul\":2022:2023   */\n      0x00\n        /* \"#utility.yul\":2011:2020   */\n      dup4\n        /* \"#utility.yul\":2007:2024   */\n      add\n        /* \"#utility.yul\":2000:2047   */\n      mstore\n        /* \"#utility.yul\":2064:2195   */\n      tag_75\n        /* \"#utility.yul\":2190:2194   */\n      dup2\n        /* \"#utility.yul\":2064:2195   */\n      tag_57\n      jump\t// in\n    tag_75:\n        /* \"#utility.yul\":2056:2195   */\n      swap1\n      pop\n        /* \"#utility.yul\":1783:2202   */\n      swap2\n      swap1\n      pop\n      jump\t// out\n        /* \"#utility.yul\":2208:2627   */\n    tag_35:\n        /* \"#utility.yul\":2374:2378   */\n      0x00\n        /* \"#utility.yul\":2412:2414   */\n      0x20\n        /* \"#utility.yul\":2401:2410   */\n      dup3\n        /* \"#utility.yul\":2397:2415   */\n      add\n        /* \"#utility.yul\":2389:2415   */\n      swap1\n      pop\n        /* \"#utility.yul\":2461:2470   */\n      dup2\n        /* \"#utility.yul\":2455:2459   */\n      dup2\n        /* \"#utility.yul\":2451:2471   */\n      sub\n        /* \"#utility.yul\":2447:2448   */\n      0x00\n        /* \"#utility.yul\":2436:2445   */\n      dup4\n        /* \"#utility.yul\":2432:2449   */\n      add\n        /* \"#utility.yul\":2425:2472   */\n      mstore\n        /* \"#utility.yul\":2489:2620   */\n      tag_77\n        /* \"#utility.yul\":2615:2619   */\n      dup2\n        /* \"#utility.yul\":2489:2620   */\n      tag_63\n      jump\t// in\n    tag_77:\n        /* \"#utility.yul\":2481:2620   */\n      swap1\n      pop\n        /* \"#utility.yul\":2208:2627   */\n      swap2\n      swap1\n      pop\n      jump\t// out\n        /* \"#utility.yul\":2633:2855   */\n    tag_20:\n        /* \"#utility.yul\":2726:2730   */\n      0x00\n        /* \"#utility.yul\":2764:2766   */\n      0x20\n        /* \"#utility.yul\":2753:2762   */\n      dup3\n        /* \"#utility.yul\":2749:2767   */\n      add\n        /* \"#utility.yul\":2741:2767   */\n      swap1\n      pop\n        /* \"#utility.yul\":2777:2848   */\n      tag_79\n        /* \"#utility.yul\":2845:2846   */\n      0x00\n        /* \"#utility.yul\":2834:2843   */\n      dup4\n        /* \"#utility.yul\":2830:2847   */\n      add\n        /* \"#utility.yul\":2821:2827   */\n      dup5\n        /* \"#utility.yul\":2777:2848   */\n      tag_68\n      jump\t// in\n    tag_79:\n        /* \"#utility.yul\":2633:2855   */\n      swap3\n      swap2\n      pop\n      pop\n      jump\t// out\n        /* \"#utility.yul\":2942:3111   */\n    tag_60:\n        /* \"#utility.yul\":3026:3037   */\n      0x00\n        /* \"#utility.yul\":3060:3066   */\n      dup3\n        /* \"#utility.yul\":3055:3058   */\n      dup3\n        /* \"#utility.yul\":3048:3067   */\n      mstore\n        /* \"#utility.yul\":3100:3104   */\n      0x20\n        /* \"#utility.yul\":3095:3098   */\n      dup3\n        /* \"#utility.yul\":3091:3105   */\n      add\n        /* \"#utility.yul\":3076:3105   */\n      swap1\n      pop\n        /* \"#utility.yul\":2942:3111   */\n      swap3\n      swap2\n      pop\n      pop\n      jump\t// out\n        /* \"#utility.yul\":3117:3422   */\n    tag_37:\n        /* \"#utility.yul\":3157:3160   */\n      0x00\n        /* \"#utility.yul\":3176:3196   */\n      tag_84\n        /* \"#utility.yul\":3194:3195   */\n      dup3\n        /* \"#utility.yul\":3176:3196   */\n      tag_71\n      jump\t// in\n    tag_84:\n        /* \"#utility.yul\":3171:3196   */\n      swap2\n      pop\n        /* \"#utility.yul\":3210:3230   */\n      tag_85\n        /* \"#utility.yul\":3228:3229   */\n      dup4\n        /* \"#utility.yul\":3210:3230   */\n      tag_71\n      jump\t// in\n    tag_85:\n        /* \"#utility.yul\":3205:3230   */\n      swap3\n      pop\n        /* \"#utility.yul\":3364:3365   */\n      dup3\n        /* \"#utility.yul\":3296:3362   */\n      0xffffffffffffffffffffffffffffffffffffffffffffffffffffffffffffffff\n        /* \"#utility.yul\":3292:3366   */\n      sub\n        /* \"#utility.yul\":3289:3290   */\n      dup3\n        /* \"#utility.yul\":3286:3367   */\n      gt\n        /* \"#utility.yul\":3283:3390   */\n      iszero\n      tag_86\n      jumpi\n        /* \"#utility.yul\":3370:3388   */\n      tag_87\n      tag_88\n      jump\t// in\n    tag_87:\n        /* \"#utility.yul\":3283:3390   */\n    tag_86:\n        /* \"#utility.yul\":3414:3415   */\n      dup3\n        /* \"#utility.yul\":3411:3412   */\n      dup3\n        /* \"#utility.yul\":3407:3416   */\n      add\n        /* \"#utility.yul\":3400:3416   */\n      swap1\n      pop\n        /* \"#utility.yul\":3117:3422   */\n      swap3\n      swap2\n      pop\n      pop\n      jump\t// out\n        /* \"#utility.yul\":3428:3524   */\n    tag_56:\n        /* \"#utility.yul\":3465:3472   */\n      0x00\n        /* \"#utility.yul\":3494:3518   */\n      tag_90\n        /* \"#utility.yul\":3512:3517   */\n      dup3\n        /* \"#utility.yul\":3494:3518   */\n      tag_91\n      jump\t// in\n    tag_90:\n        /* \"#utility.yul\":3483:3518   */\n      swap1\n      pop\n        /* \"#utility.yul\":3428:3524   */\n      swap2\n      swap1\n      pop\n      jump\t// out\n        /* \"#utility.yul\":3530:3645   */\n    tag_92:\n        /* \"#utility.yul\":3586:3593   */\n      0x00\n        /* \"#utility.yul\":3615:3639   */\n      tag_94\n        /* \"#utility.yul\":3633:3638   */\n      dup3\n        /* \"#utility.yul\":3615:3639   */\n      tag_56\n      jump\t// in\n    tag_94:\n        /* \"#utility.yul\":3604:3639   */\n      swap1\n      pop\n        /* \"#utility.yul\":3530:3645   */\n      swap2\n      swap1\n      pop\n      jump\t// out\n        /* \"#utility.yul\":3651:3777   */\n    tag_91:\n        /* \"#utility.yul\":3688:3695   */\n      0x00\n        /* \"#utility.yul\":3728:3770   */\n      0xffffffffffffffffffffffffffffffffffffffff\n        /* \"#utility.yul\":3721:3726   */\n      dup3\n        /* \"#utility.yul\":3717:3771   */\n      and\n        /* \"#utility.yul\":3706:3771   */\n      swap1\n      pop\n        /* \"#utility.yul\":3651:3777   */\n      swap2\n      swap1\n      pop\n      jump\t// out\n        /* \"#utility.yul\":3783:3860   */\n    tag_71:\n        /* \"#utility.yul\":3820:3827   */\n      0x00\n        /* \"#utility.yul\":3849:3854   */\n      dup2\n        /* \"#utility.yul\":3838:3854   */\n      swap1\n      pop\n        /* \"#utility.yul\":3783:3860   */\n      swap2\n      swap1\n      pop\n      jump\t// out\n        /* \"#utility.yul\":3866:4046   */\n    tag_88:\n        /* \"#utility.yul\":3914:3991   */\n      0x4e487b7100000000000000000000000000000000000000000000000000000000\n        /* \"#utility.yul\":3911:3912   */\n      0x00\n        /* \"#utility.yul\":3904:3992   */\n      mstore\n        /* \"#utility.yul\":4011:4015   */\n      0x11\n        /* \"#utility.yul\":4008:4009   */\n      0x04\n        /* \"#utility.yul\":4001:4016   */\n      mstore\n        /* \"#utility.yul\":4035:4039   */\n      0x24\n        /* \"#utility.yul\":4032:4033   */\n      0x00\n        /* \"#utility.yul\":4025:4040   */\n      revert\n        /* \"#utility.yul\":4175:4292   */\n    tag_51:\n        /* \"#utility.yul\":4284:4285   */\n      0x00\n        /* \"#utility.yul\":4281:4282   */\n      dup1\n        /* \"#utility.yul\":4274:4286   */\n      revert\n        /* \"#utility.yul\":4298:4473   */\n    tag_62:\n        /* \"#utility.yul\":4438:4465   */\n      0x4974656d206973207061696420666f7220616c72656164792e00000000000000\n        /* \"#utility.yul\":4434:4435   */\n      0x00\n        /* \"#utility.yul\":4426:4432   */\n      dup3\n        /* \"#utility.yul\":4422:4436   */\n      add\n        /* \"#utility.yul\":4415:4466   */\n      mstore\n        /* \"#utility.yul\":4298:4473   */\n      pop\n      jump\t// out\n        /* \"#utility.yul\":4479:4653   */\n    tag_67:\n        /* \"#utility.yul\":4619:4645   */\n      0x506c656173652070617920657861637420616d6f756e742e0000000000000000\n        /* \"#utility.yul\":4615:4616   */\n      0x00\n        /* \"#utility.yul\":4607:4613   */\n      dup3\n        /* \"#utility.yul\":4603:4617   */\n      add\n        /* \"#utility.yul\":4596:4646   */\n      mstore\n        /* \"#utility.yul\":4479:4653   */\n      pop\n      jump\t// out\n        /* \"#utility.yul\":4659:4819   */\n    tag_47:\n        /* \"#utility.yul\":4751:4794   */\n      tag_104\n        /* \"#utility.yul\":4788:4793   */\n      dup2\n        /* \"#utility.yul\":4751:4794   */\n      tag_92\n      jump\t// in\n    tag_104:\n        /* \"#utility.yul\":4744:4749   */\n      dup2\n        /* \"#utility.yul\":4741:4795   */\n      eq\n        /* \"#utility.yul\":4731:4813   */\n      tag_105\n      jumpi\n        /* \"#utility.yul\":4809:4810   */\n      0x00\n        /* \"#utility.yul\":4806:4807   */\n      dup1\n        /* \"#utility.yul\":4799:4811   */\n      revert\n        /* \"#utility.yul\":4731:4813   */\n    tag_105:\n        /* \"#utility.yul\":4659:4819   */\n      pop\n      jump\t// out\n\n    auxdata: 0xa264697066735822122048974ec352cb460ea44edf60f9b24455bfe7b16b9206d1e655b12410c44b229464736f6c63430008070033\n}\n",
				"bytecode": {
					"linkReferences": {},
					"object": "608060405234801561001057600080fd5b5060405161069d38038061069d833981810160405281019061003291906100d5565b600360009054906101000a900473ffffffffffffffffffffffffffffffffffffffff16600360006101000a81548173ffffffffffffffffffffffffffffffffffffffff021916908373ffffffffffffffffffffffffffffffffffffffff16021790555081600081905550806002819055505050506101a9565b6000815190506100ba8161017b565b92915050565b6000815190506100cf81610192565b92915050565b6000806000606084860312156100ee576100ed610176565b5b60006100fc868287016100ab565b935050602061010d868287016100c0565b925050604061011e868287016100c0565b9150509250925092565b60006101338261014c565b9050919050565b600061014582610128565b9050919050565b600073ffffffffffffffffffffffffffffffffffffffff82169050919050565b6000819050919050565b600080fd5b6101848161013a565b811461018f57600080fd5b50565b61019b8161016c565b81146101a657600080fd5b50565b6104e5806101b86000396000f3fe60806040526004361061004a5760003560e01c80630c11dedd1461004f578063767800de1461006b57806389794d0014610096578063c784a6e6146100c1578063e07bb1a7146100ec575b600080fd5b61006960048036038101906100649190610256565b610117565b005b34801561007757600080fd5b5061008061022a565b60405161008d91906102e7565b60405180910390f35b3480156100a257600080fd5b506100ab61022f565b6040516100b89190610342565b60405180910390f35b3480156100cd57600080fd5b506100d6610235565b6040516100e39190610342565b60405180910390f35b3480156100f857600080fd5b5061010161023b565b60405161010e9190610342565b60405180910390f35b60006001541461015c576040517f08c379a000000000000000000000000000000000000000000000000000000000815260040161015390610302565b60405180910390fd5b34600054146101a0576040517f08c379a000000000000000000000000000000000000000000000000000000000815260040161019790610322565b60405180910390fd5b34600160008282546101b2919061036e565b925050819055508073ffffffffffffffffffffffffffffffffffffffff1663800fb83f346002546040518363ffffffff1660e01b81526004016101f59190610342565b6000604051808303818588803b15801561020e57600080fd5b505af1158015610222573d6000803e3d6000fd5b505050505050565b600090565b60015481565b60005481565b60025481565b60008135905061025081610498565b92915050565b60006020828403121561026c5761026b610441565b5b600061027a84828501610241565b91505092915050565b61028c816103c4565b82525050565b600061029f60198361035d565b91506102aa82610446565b602082019050919050565b60006102c260188361035d565b91506102cd8261046f565b602082019050919050565b6102e181610408565b82525050565b60006020820190506102fc6000830184610283565b92915050565b6000602082019050818103600083015261031b81610292565b9050919050565b6000602082019050818103600083015261033b816102b5565b9050919050565b600060208201905061035760008301846102d8565b92915050565b600082825260208201905092915050565b600061037982610408565b915061038483610408565b9250827fffffffffffffffffffffffffffffffffffffffffffffffffffffffffffffffff038211156103b9576103b8610412565b5b828201905092915050565b60006103cf826103e8565b9050919050565b60006103e1826103c4565b9050919050565b600073ffffffffffffffffffffffffffffffffffffffff82169050919050565b6000819050919050565b7f4e487b7100000000000000000000000000000000000000000000000000000000600052601160045260246000fd5b600080fd5b7f4974656d206973207061696420666f7220616c72656164792e00000000000000600082015250565b7f506c656173652070617920657861637420616d6f756e742e0000000000000000600082015250565b6104a1816103d6565b81146104ac57600080fd5b5056fea264697066735822122048974ec352cb460ea44edf60f9b24455bfe7b16b9206d1e655b12410c44b229464736f6c63430008070033",
					"opcodes": "PUSH1 0x80 PUSH1 0x40 MSTORE CALLVALUE DUP1 ISZERO PUSH2 0x10 JUMPI PUSH1 0x0 DUP1 REVERT JUMPDEST POP PUSH1 0x40 MLOAD PUSH2 0x69D CODESIZE SUB DUP1 PUSH2 0x69D DUP4 CODECOPY DUP2 DUP2 ADD PUSH1 0x40 MSTORE DUP2 ADD SWAP1 PUSH2 0x32 SWAP2 SWAP1 PUSH2 0xD5 JUMP JUMPDEST PUSH1 0x3 PUSH1 0x0 SWAP1 SLOAD SWAP1 PUSH2 0x100 EXP SWAP1 DIV PUSH20 0xFFFFFFFFFFFFFFFFFFFFFFFFFFFFFFFFFFFFFFFF AND PUSH1 0x3 PUSH1 0x0 PUSH2 0x100 EXP DUP2 SLOAD DUP2 PUSH20 0xFFFFFFFFFFFFFFFFFFFFFFFFFFFFFFFFFFFFFFFF MUL NOT AND SWAP1 DUP4 PUSH20 0xFFFFFFFFFFFFFFFFFFFFFFFFFFFFFFFFFFFFFFFF AND MUL OR SWAP1 SSTORE POP DUP2 PUSH1 0x0 DUP2 SWAP1 SSTORE POP DUP1 PUSH1 0x2 DUP2 SWAP1 SSTORE POP POP POP POP PUSH2 0x1A9 JUMP JUMPDEST PUSH1 0x0 DUP2 MLOAD SWAP1 POP PUSH2 0xBA DUP2 PUSH2 0x17B JUMP JUMPDEST SWAP3 SWAP2 POP POP JUMP JUMPDEST PUSH1 0x0 DUP2 MLOAD SWAP1 POP PUSH2 0xCF DUP2 PUSH2 0x192 JUMP JUMPDEST SWAP3 SWAP2 POP POP JUMP JUMPDEST PUSH1 0x0 DUP1 PUSH1 0x0 PUSH1 0x60 DUP5 DUP7 SUB SLT ISZERO PUSH2 0xEE JUMPI PUSH2 0xED PUSH2 0x176 JUMP JUMPDEST JUMPDEST PUSH1 0x0 PUSH2 0xFC DUP7 DUP3 DUP8 ADD PUSH2 0xAB JUMP JUMPDEST SWAP4 POP POP PUSH1 0x20 PUSH2 0x10D DUP7 DUP3 DUP8 ADD PUSH2 0xC0 JUMP JUMPDEST SWAP3 POP POP PUSH1 0x40 PUSH2 0x11E DUP7 DUP3 DUP8 ADD PUSH2 0xC0 JUMP JUMPDEST SWAP2 POP POP SWAP3 POP SWAP3 POP SWAP3 JUMP JUMPDEST PUSH1 0x0 PUSH2 0x133 DUP3 PUSH2 0x14C JUMP JUMPDEST SWAP1 POP SWAP2 SWAP1 POP JUMP JUMPDEST PUSH1 0x0 PUSH2 0x145 DUP3 PUSH2 0x128 JUMP JUMPDEST SWAP1 POP SWAP2 SWAP1 POP JUMP JUMPDEST PUSH1 0x0 PUSH20 0xFFFFFFFFFFFFFFFFFFFFFFFFFFFFFFFFFFFFFFFF DUP3 AND SWAP1 POP SWAP2 SWAP1 POP JUMP JUMPDEST PUSH1 0x0 DUP2 SWAP1 POP SWAP2 SWAP1 POP JUMP JUMPDEST PUSH1 0x0 DUP1 REVERT JUMPDEST PUSH2 0x184 DUP2 PUSH2 0x13A JUMP JUMPDEST DUP2 EQ PUSH2 0x18F JUMPI PUSH1 0x0 DUP1 REVERT JUMPDEST POP JUMP JUMPDEST PUSH2 0x19B DUP2 PUSH2 0x16C JUMP JUMPDEST DUP2 EQ PUSH2 0x1A6 JUMPI PUSH1 0x0 DUP1 REVERT JUMPDEST POP JUMP JUMPDEST PUSH2 0x4E5 DUP1 PUSH2 0x1B8 PUSH1 0x0 CODECOPY PUSH1 0x0 RETURN INVALID PUSH1 0x80 PUSH1 0x40 MSTORE PUSH1 0x4 CALLDATASIZE LT PUSH2 0x4A JUMPI PUSH1 0x0 CALLDATALOAD PUSH1 0xE0 SHR DUP1 PUSH4 0xC11DEDD EQ PUSH2 0x4F JUMPI DUP1 PUSH4 0x767800DE EQ PUSH2 0x6B JUMPI DUP1 PUSH4 0x89794D00 EQ PUSH2 0x96 JUMPI DUP1 PUSH4 0xC784A6E6 EQ PUSH2 0xC1 JUMPI DUP1 PUSH4 0xE07BB1A7 EQ PUSH2 0xEC JUMPI JUMPDEST PUSH1 0x0 DUP1 REVERT JUMPDEST PUSH2 0x69 PUSH1 0x4 DUP1 CALLDATASIZE SUB DUP2 ADD SWAP1 PUSH2 0x64 SWAP2 SWAP1 PUSH2 0x256 JUMP JUMPDEST PUSH2 0x117 JUMP JUMPDEST STOP JUMPDEST CALLVALUE DUP1 ISZERO PUSH2 0x77 JUMPI PUSH1 0x0 DUP1 REVERT JUMPDEST POP PUSH2 0x80 PUSH2 0x22A JUMP JUMPDEST PUSH1 0x40 MLOAD PUSH2 0x8D SWAP2 SWAP1 PUSH2 0x2E7 JUMP JUMPDEST PUSH1 0x40 MLOAD DUP1 SWAP2 SUB SWAP1 RETURN JUMPDEST CALLVALUE DUP1 ISZERO PUSH2 0xA2 JUMPI PUSH1 0x0 DUP1 REVERT JUMPDEST POP PUSH2 0xAB PUSH2 0x22F JUMP JUMPDEST PUSH1 0x40 MLOAD PUSH2 0xB8 SWAP2 SWAP1 PUSH2 0x342 JUMP JUMPDEST PUSH1 0x40 MLOAD DUP1 SWAP2 SUB SWAP1 RETURN JUMPDEST CALLVALUE DUP1 ISZERO PUSH2 0xCD JUMPI PUSH1 0x0 DUP1 REVERT JUMPDEST POP PUSH2 0xD6 PUSH2 0x235 JUMP JUMPDEST PUSH1 0x40 MLOAD PUSH2 0xE3 SWAP2 SWAP1 PUSH2 0x342 JUMP JUMPDEST PUSH1 0x40 MLOAD DUP1 SWAP2 SUB SWAP1 RETURN JUMPDEST CALLVALUE DUP1 ISZERO PUSH2 0xF8 JUMPI PUSH1 0x0 DUP1 REVERT JUMPDEST POP PUSH2 0x101 PUSH2 0x23B JUMP JUMPDEST PUSH1 0x40 MLOAD PUSH2 0x10E SWAP2 SWAP1 PUSH2 0x342 JUMP JUMPDEST PUSH1 0x40 MLOAD DUP1 SWAP2 SUB SWAP1 RETURN JUMPDEST PUSH1 0x0 PUSH1 0x1 SLOAD EQ PUSH2 0x15C JUMPI PUSH1 0x40 MLOAD PUSH32 0x8C379A000000000000000000000000000000000000000000000000000000000 DUP2 MSTORE PUSH1 0x4 ADD PUSH2 0x153 SWAP1 PUSH2 0x302 JUMP JUMPDEST PUSH1 0x40 MLOAD DUP1 SWAP2 SUB SWAP1 REVERT JUMPDEST CALLVALUE PUSH1 0x0 SLOAD EQ PUSH2 0x1A0 JUMPI PUSH1 0x40 MLOAD PUSH32 0x8C379A000000000000000000000000000000000000000000000000000000000 DUP2 MSTORE PUSH1 0x4 ADD PUSH2 0x197 SWAP1 PUSH2 0x322 JUMP JUMPDEST PUSH1 0x40 MLOAD DUP1 SWAP2 SUB SWAP1 REVERT JUMPDEST CALLVALUE PUSH1 0x1 PUSH1 0x0 DUP3 DUP3 SLOAD PUSH2 0x1B2 SWAP2 SWAP1 PUSH2 0x36E JUMP JUMPDEST SWAP3 POP POP DUP2 SWAP1 SSTORE POP DUP1 PUSH20 0xFFFFFFFFFFFFFFFFFFFFFFFFFFFFFFFFFFFFFFFF AND PUSH4 0x800FB83F CALLVALUE PUSH1 0x2 SLOAD PUSH1 0x40 MLOAD DUP4 PUSH4 0xFFFFFFFF AND PUSH1 0xE0 SHL DUP2 MSTORE PUSH1 0x4 ADD PUSH2 0x1F5 SWAP2 SWAP1 PUSH2 0x342 JUMP JUMPDEST PUSH1 0x0 PUSH1 0x40 MLOAD DUP1 DUP4 SUB DUP2 DUP6 DUP9 DUP1 EXTCODESIZE ISZERO DUP1 ISZERO PUSH2 0x20E JUMPI PUSH1 0x0 DUP1 REVERT JUMPDEST POP GAS CALL ISZERO DUP1 ISZERO PUSH2 0x222 JUMPI RETURNDATASIZE PUSH1 0x0 DUP1 RETURNDATACOPY RETURNDATASIZE PUSH1 0x0 REVERT JUMPDEST POP POP POP POP POP POP JUMP JUMPDEST PUSH1 0x0 SWAP1 JUMP JUMPDEST PUSH1 0x1 SLOAD DUP2 JUMP JUMPDEST PUSH1 0x0 SLOAD DUP2 JUMP JUMPDEST PUSH1 0x2 SLOAD DUP2 JUMP JUMPDEST PUSH1 0x0 DUP2 CALLDATALOAD SWAP1 POP PUSH2 0x250 DUP2 PUSH2 0x498 JUMP JUMPDEST SWAP3 SWAP2 POP POP JUMP JUMPDEST PUSH1 0x0 PUSH1 0x20 DUP3 DUP5 SUB SLT ISZERO PUSH2 0x26C JUMPI PUSH2 0x26B PUSH2 0x441 JUMP JUMPDEST JUMPDEST PUSH1 0x0 PUSH2 0x27A DUP5 DUP3 DUP6 ADD PUSH2 0x241 JUMP JUMPDEST SWAP2 POP POP SWAP3 SWAP2 POP POP JUMP JUMPDEST PUSH2 0x28C DUP2 PUSH2 0x3C4 JUMP JUMPDEST DUP3 MSTORE POP POP JUMP JUMPDEST PUSH1 0x0 PUSH2 0x29F PUSH1 0x19 DUP4 PUSH2 0x35D JUMP JUMPDEST SWAP2 POP PUSH2 0x2AA DUP3 PUSH2 0x446 JUMP JUMPDEST PUSH1 0x20 DUP3 ADD SWAP1 POP SWAP2 SWAP1 POP JUMP JUMPDEST PUSH1 0x0 PUSH2 0x2C2 PUSH1 0x18 DUP4 PUSH2 0x35D JUMP JUMPDEST SWAP2 POP PUSH2 0x2CD DUP3 PUSH2 0x46F JUMP JUMPDEST PUSH1 0x20 DUP3 ADD SWAP1 POP SWAP2 SWAP1 POP JUMP JUMPDEST PUSH2 0x2E1 DUP2 PUSH2 0x408 JUMP JUMPDEST DUP3 MSTORE POP POP JUMP JUMPDEST PUSH1 0x0 PUSH1 0x20 DUP3 ADD SWAP1 POP PUSH2 0x2FC PUSH1 0x0 DUP4 ADD DUP5 PUSH2 0x283 JUMP JUMPDEST SWAP3 SWAP2 POP POP JUMP JUMPDEST PUSH1 0x0 PUSH1 0x20 DUP3 ADD SWAP1 POP DUP2 DUP2 SUB PUSH1 0x0 DUP4 ADD MSTORE PUSH2 0x31B DUP2 PUSH2 0x292 JUMP JUMPDEST SWAP1 POP SWAP2 SWAP1 POP JUMP JUMPDEST PUSH1 0x0 PUSH1 0x20 DUP3 ADD SWAP1 POP DUP2 DUP2 SUB PUSH1 0x0 DUP4 ADD MSTORE PUSH2 0x33B DUP2 PUSH2 0x2B5 JUMP JUMPDEST SWAP1 POP SWAP2 SWAP1 POP JUMP JUMPDEST PUSH1 0x0 PUSH1 0x20 DUP3 ADD SWAP1 POP PUSH2 0x357 PUSH1 0x0 DUP4 ADD DUP5 PUSH2 0x2D8 JUMP JUMPDEST SWAP3 SWAP2 POP POP JUMP JUMPDEST PUSH1 0x0 DUP3 DUP3 MSTORE PUSH1 0x20 DUP3 ADD SWAP1 POP SWAP3 SWAP2 POP POP JUMP JUMPDEST PUSH1 0x0 PUSH2 0x379 DUP3 PUSH2 0x408 JUMP JUMPDEST SWAP2 POP PUSH2 0x384 DUP4 PUSH2 0x408 JUMP JUMPDEST SWAP3 POP DUP3 PUSH32 0xFFFFFFFFFFFFFFFFFFFFFFFFFFFFFFFFFFFFFFFFFFFFFFFFFFFFFFFFFFFFFFFF SUB DUP3 GT ISZERO PUSH2 0x3B9 JUMPI PUSH2 0x3B8 PUSH2 0x412 JUMP JUMPDEST JUMPDEST DUP3 DUP3 ADD SWAP1 POP SWAP3 SWAP2 POP POP JUMP JUMPDEST PUSH1 0x0 PUSH2 0x3CF DUP3 PUSH2 0x3E8 JUMP JUMPDEST SWAP1 POP SWAP2 SWAP1 POP JUMP JUMPDEST PUSH1 0x0 PUSH2 0x3E1 DUP3 PUSH2 0x3C4 JUMP JUMPDEST SWAP1 POP SWAP2 SWAP1 POP JUMP JUMPDEST PUSH1 0x0 PUSH20 0xFFFFFFFFFFFFFFFFFFFFFFFFFFFFFFFFFFFFFFFF DUP3 AND SWAP1 POP SWAP2 SWAP1 POP JUMP JUMPDEST PUSH1 0x0 DUP2 SWAP1 POP SWAP2 SWAP1 POP JUMP JUMPDEST PUSH32 0x4E487B7100000000000000000000000000000000000000000000000000000000 PUSH1 0x0 MSTORE PUSH1 0x11 PUSH1 0x4 MSTORE PUSH1 0x24 PUSH1 0x0 REVERT JUMPDEST PUSH1 0x0 DUP1 REVERT JUMPDEST PUSH32 0x4974656D206973207061696420666F7220616C72656164792E00000000000000 PUSH1 0x0 DUP3 ADD MSTORE POP JUMP JUMPDEST PUSH32 0x506C656173652070617920657861637420616D6F756E742E0000000000000000 PUSH1 0x0 DUP3 ADD MSTORE POP JUMP JUMPDEST PUSH2 0x4A1 DUP2 PUSH2 0x3D6 JUMP JUMPDEST DUP2 EQ PUSH2 0x4AC JUMPI PUSH1 0x0 DUP1 REVERT JUMPDEST POP JUMP INVALID LOG2 PUSH5 0x6970667358 0x22 SLT KECCAK256 BASEFEE SWAP8 0x4E 0xC3 MSTORE 0xCB CHAINID 0xE LOG4 0x4E 0xDF PUSH1 0xF9 0xB2 DIFFICULTY SSTORE 0xBF 0xE7 0xB1 PUSH12 0x9206D1E655B12410C44B2294 PUSH5 0x736F6C6343 STOP ADDMOD SMOD STOP CALLER "
				},
				"gasEstimates": {
					"creation": {
						"codeDepositCost": "250600",
						"executionCost": "infinite",
						"totalCost": "infinite"
					},
					"external": {
						"addr()": "378",
						"itemIndex()": "2495",
						"itemPriceInWei()": "2473",
						"pay(address)": "infinite",
						"pricePaid()": "2451"
					}
				},
				"methodIdentifiers": {
					"addr()": "767800de",
					"itemIndex()": "e07bb1a7",
					"itemPriceInWei()": "c784a6e6",
					"pay(address)": "0c11dedd",
					"pricePaid()": "89794d00"
				}
			},
			"userdoc": {
				"kind": "user",
				"methods": {},
				"version": 1
			}
		}
	}
}