{
	"contracts/eventtrigger.sol": {
		"ItemManager": {
			"abi": [
				{
					"anonymous": false,
					"inputs": [
						{
							"indexed": false,
							"internalType": "uint256",
							"name": "_itemIndex",
							"type": "uint256"
						},
						{
							"indexed": false,
							"internalType": "enum ItemManager.AutoChainState",
							"name": "_state",
							"type": "uint8"
						},
						{
							"indexed": false,
							"internalType": "address",
							"name": "_itemAddress",
							"type": "address"
						}
					],
					"name": "AutoChainEvent",
					"type": "event"
				},
				{
					"inputs": [
						{
							"internalType": "string",
							"name": "_identifier",
							"type": "string"
						},
						{
							"internalType": "uint256",
							"name": "_itemPrice",
							"type": "uint256"
						}
					],
					"name": "createItem",
					"outputs": [],
					"stateMutability": "nonpayable",
					"type": "function"
				},
				{
					"inputs": [
						{
							"internalType": "uint256",
							"name": "",
							"type": "uint256"
						}
					],
					"name": "items",
					"outputs": [
						{
							"internalType": "contract Item",
							"name": "_item",
							"type": "address"
						},
						{
							"internalType": "string",
							"name": "_identifier",
							"type": "string"
						},
						{
							"internalType": "uint256",
							"name": "_itemPrice",
							"type": "uint256"
						},
						{
							"internalType": "enum ItemManager.AutoChainState",
							"name": "_state",
							"type": "uint8"
						}
					],
					"stateMutability": "view",
					"type": "function"
				},
				{
					"inputs": [
						{
							"internalType": "uint256",
							"name": "_itemIndex",
							"type": "uint256"
						}
					],
					"name": "triggerDelivery",
					"outputs": [],
					"stateMutability": "nonpayable",
					"type": "function"
				},
				{
					"inputs": [
						{
							"internalType": "uint256",
							"name": "_itemIndex",
							"type": "uint256"
						}
					],
					"name": "triggerPayment",
					"outputs": [],
					"stateMutability": "payable",
					"type": "function"
				}
			],
			"devdoc": {
				"kind": "dev",
				"methods": {},
				"version": 1
			},
			"evm": {
				"assembly": "    /* \"contracts/eventtrigger.sol\":1162:2780  contract ItemManager {\r... */\n  mstore(0x40, 0x80)\n  callvalue\n  dup1\n  iszero\n  tag_1\n  jumpi\n  0x00\n  dup1\n  revert\ntag_1:\n  pop\n  dataSize(sub_0)\n  dup1\n  dataOffset(sub_0)\n  0x00\n  codecopy\n  0x00\n  return\nstop\n\nsub_0: assembly {\n        /* \"contracts/eventtrigger.sol\":1162:2780  contract ItemManager {\r... */\n      mstore(0x40, 0x80)\n      jumpi(tag_1, lt(calldatasize, 0x04))\n      shr(0xe0, calldataload(0x00))\n      dup1\n      0x800fb83f\n      eq\n      tag_2\n      jumpi\n      dup1\n      0x8c551742\n      eq\n      tag_3\n      jumpi\n      dup1\n      0xbfb231d2\n      eq\n      tag_4\n      jumpi\n      dup1\n      0xcd31831e\n      eq\n      tag_5\n      jumpi\n    tag_1:\n      0x00\n      dup1\n      revert\n        /* \"contracts/eventtrigger.sol\":2010:2452  function triggerPayment (uint _itemIndex) external payable{\r... */\n    tag_2:\n      tag_6\n      0x04\n      dup1\n      calldatasize\n      sub\n      dup2\n      add\n      swap1\n      tag_7\n      swap2\n      swap1\n      tag_8\n      jump\t// in\n    tag_7:\n      tag_9\n      jump\t// in\n    tag_6:\n      stop\n        /* \"contracts/eventtrigger.sol\":1551:2002  function createItem (string memory _identifier, uint _itemPrice) public {\r... */\n    tag_3:\n      callvalue\n      dup1\n      iszero\n      tag_10\n      jumpi\n      0x00\n      dup1\n      revert\n    tag_10:\n      pop\n      tag_11\n      0x04\n      dup1\n      calldatasize\n      sub\n      dup2\n      add\n      swap1\n      tag_12\n      swap2\n      swap1\n      tag_13\n      jump\t// in\n    tag_12:\n      tag_14\n      jump\t// in\n    tag_11:\n      stop\n        /* \"contracts/eventtrigger.sol\":1486:1521  mapping (uint => item) public items */\n    tag_4:\n      callvalue\n      dup1\n      iszero\n      tag_15\n      jumpi\n      0x00\n      dup1\n      revert\n    tag_15:\n      pop\n      tag_16\n      0x04\n      dup1\n      calldatasize\n      sub\n      dup2\n      add\n      swap1\n      tag_17\n      swap2\n      swap1\n      tag_8\n      jump\t// in\n    tag_17:\n      tag_18\n      jump\t// in\n    tag_16:\n      mload(0x40)\n      tag_19\n      swap5\n      swap4\n      swap3\n      swap2\n      swap1\n      tag_20\n      jump\t// in\n    tag_19:\n      mload(0x40)\n      dup1\n      swap2\n      sub\n      swap1\n      return\n        /* \"contracts/eventtrigger.sol\":2460:2777  function triggerDelivery (uint _itemIndex) public {\r... */\n    tag_5:\n      callvalue\n      dup1\n      iszero\n      tag_21\n      jumpi\n      0x00\n      dup1\n      revert\n    tag_21:\n      pop\n      tag_22\n      0x04\n      dup1\n      calldatasize\n      sub\n      dup2\n      add\n      swap1\n      tag_23\n      swap2\n      swap1\n      tag_8\n      jump\t// in\n    tag_23:\n      tag_24\n      jump\t// in\n    tag_22:\n      stop\n        /* \"contracts/eventtrigger.sol\":2010:2452  function triggerPayment (uint _itemIndex) external payable{\r... */\n    tag_9:\n        /* \"contracts/eventtrigger.sol\":2120:2129  msg.value */\n      callvalue\n        /* \"contracts/eventtrigger.sol\":2088:2093  items */\n      0x00\n        /* \"contracts/eventtrigger.sol\":2088:2105  items[_itemIndex] */\n      dup1\n        /* \"contracts/eventtrigger.sol\":2094:2104  _itemIndex */\n      dup4\n        /* \"contracts/eventtrigger.sol\":2088:2105  items[_itemIndex] */\n      dup2\n      mstore\n      0x20\n      add\n      swap1\n      dup2\n      mstore\n      0x20\n      add\n      0x00\n      keccak256\n        /* \"contracts/eventtrigger.sol\":2088:2116  items[_itemIndex]._itemPrice */\n      0x02\n      add\n      sload\n        /* \"contracts/eventtrigger.sol\":2088:2129  items[_itemIndex]._itemPrice == msg.value */\n      eq\n        /* \"contracts/eventtrigger.sol\":2079:2158  require (items[_itemIndex]._itemPrice == msg.value, \"Please pay exact amount.\") */\n      tag_26\n      jumpi\n      mload(0x40)\n      0x08c379a000000000000000000000000000000000000000000000000000000000\n      dup2\n      mstore\n      0x04\n      add\n      tag_27\n      swap1\n      tag_28\n      jump\t// in\n    tag_27:\n      mload(0x40)\n      dup1\n      swap2\n      sub\n      swap1\n      revert\n    tag_26:\n        /* \"contracts/eventtrigger.sol\":2206:2228  AutoChainState.Created */\n      0x00\n        /* \"contracts/eventtrigger.sol\":2178:2228  items[_itemIndex]._state == AutoChainState.Created */\n      0x02\n      dup2\n      gt\n      iszero\n      tag_29\n      jumpi\n      tag_30\n      tag_31\n      jump\t// in\n    tag_30:\n    tag_29:\n        /* \"contracts/eventtrigger.sol\":2178:2183  items */\n      0x00\n        /* \"contracts/eventtrigger.sol\":2178:2195  items[_itemIndex] */\n      dup1\n        /* \"contracts/eventtrigger.sol\":2184:2194  _itemIndex */\n      dup4\n        /* \"contracts/eventtrigger.sol\":2178:2195  items[_itemIndex] */\n      dup2\n      mstore\n      0x20\n      add\n      swap1\n      dup2\n      mstore\n      0x20\n      add\n      0x00\n      keccak256\n        /* \"contracts/eventtrigger.sol\":2178:2202  items[_itemIndex]._state */\n      0x03\n      add\n      0x00\n      swap1\n      sload\n      swap1\n      0x0100\n      exp\n      swap1\n      div\n      0xff\n      and\n        /* \"contracts/eventtrigger.sol\":2178:2228  items[_itemIndex]._state == AutoChainState.Created */\n      0x02\n      dup2\n      gt\n      iszero\n      tag_32\n      jumpi\n      tag_33\n      tag_31\n      jump\t// in\n    tag_33:\n    tag_32:\n      eq\n        /* \"contracts/eventtrigger.sol\":2169:2276  require (items[_itemIndex]._state == AutoChainState.Created, \"Item has been already paid for or delivered\") */\n      tag_34\n      jumpi\n      mload(0x40)\n      0x08c379a000000000000000000000000000000000000000000000000000000000\n      dup2\n      mstore\n      0x04\n      add\n      tag_35\n      swap1\n      tag_36\n      jump\t// in\n    tag_35:\n      mload(0x40)\n      dup1\n      swap2\n      sub\n      swap1\n      revert\n    tag_34:\n        /* \"contracts/eventtrigger.sol\":2324:2343  AutoChainState.Paid */\n      0x01\n        /* \"contracts/eventtrigger.sol\":2297:2302  items */\n      0x00\n        /* \"contracts/eventtrigger.sol\":2297:2314  items[_itemIndex] */\n      dup1\n        /* \"contracts/eventtrigger.sol\":2303:2313  _itemIndex */\n      dup4\n        /* \"contracts/eventtrigger.sol\":2297:2314  items[_itemIndex] */\n      dup2\n      mstore\n      0x20\n      add\n      swap1\n      dup2\n      mstore\n      0x20\n      add\n      0x00\n      keccak256\n        /* \"contracts/eventtrigger.sol\":2297:2321  items[_itemIndex]._state */\n      0x03\n      add\n      0x00\n        /* \"contracts/eventtrigger.sol\":2297:2343  items[_itemIndex]._state = AutoChainState.Paid */\n      0x0100\n      exp\n      dup2\n      sload\n      dup2\n      0xff\n      mul\n      not\n      and\n      swap1\n      dup4\n      0x02\n      dup2\n      gt\n      iszero\n      tag_37\n      jumpi\n      tag_38\n      tag_31\n      jump\t// in\n    tag_38:\n    tag_37:\n      mul\n      or\n      swap1\n      sstore\n      pop\n        /* \"contracts/eventtrigger.sol\":2359:2444  AutoChainEvent(_itemIndex, items[_itemIndex]._state, address(items[itemIndex]._item)) */\n      0xf24ddcf634b84b7fbfb91b2713d1db50cdf1ac5bcd00d6351384ee26bc1a94bd\n        /* \"contracts/eventtrigger.sol\":2374:2384  _itemIndex */\n      dup2\n        /* \"contracts/eventtrigger.sol\":2386:2391  items */\n      0x00\n        /* \"contracts/eventtrigger.sol\":2386:2403  items[_itemIndex] */\n      dup1\n        /* \"contracts/eventtrigger.sol\":2392:2402  _itemIndex */\n      dup5\n        /* \"contracts/eventtrigger.sol\":2386:2403  items[_itemIndex] */\n      dup2\n      mstore\n      0x20\n      add\n      swap1\n      dup2\n      mstore\n      0x20\n      add\n      0x00\n      keccak256\n        /* \"contracts/eventtrigger.sol\":2386:2410  items[_itemIndex]._state */\n      0x03\n      add\n      0x00\n      swap1\n      sload\n      swap1\n      0x0100\n      exp\n      swap1\n      div\n      0xff\n      and\n        /* \"contracts/eventtrigger.sol\":2420:2425  items */\n      0x00\n        /* \"contracts/eventtrigger.sol\":2420:2436  items[itemIndex] */\n      dup1\n        /* \"contracts/eventtrigger.sol\":2426:2435  itemIndex */\n      sload(0x01)\n        /* \"contracts/eventtrigger.sol\":2420:2436  items[itemIndex] */\n      dup2\n      mstore\n      0x20\n      add\n      swap1\n      dup2\n      mstore\n      0x20\n      add\n      0x00\n      keccak256\n        /* \"contracts/eventtrigger.sol\":2420:2442  items[itemIndex]._item */\n      0x00\n      add\n      0x00\n      swap1\n      sload\n      swap1\n      0x0100\n      exp\n      swap1\n      div\n      0xffffffffffffffffffffffffffffffffffffffff\n      and\n        /* \"contracts/eventtrigger.sol\":2359:2444  AutoChainEvent(_itemIndex, items[_itemIndex]._state, address(items[itemIndex]._item)) */\n      mload(0x40)\n      tag_39\n      swap4\n      swap3\n      swap2\n      swap1\n      tag_40\n      jump\t// in\n    tag_39:\n      mload(0x40)\n      dup1\n      swap2\n      sub\n      swap1\n      log1\n        /* \"contracts/eventtrigger.sol\":2010:2452  function triggerPayment (uint _itemIndex) external payable{\r... */\n      pop\n      jump\t// out\n        /* \"contracts/eventtrigger.sol\":1551:2002  function createItem (string memory _identifier, uint _itemPrice) public {\r... */\n    tag_14:\n        /* \"contracts/eventtrigger.sol\":1634:1644  Item _item */\n      0x00\n        /* \"contracts/eventtrigger.sol\":1656:1660  this */\n      address\n        /* \"contracts/eventtrigger.sol\":1662:1672  _itemPrice */\n      dup3\n        /* \"contracts/eventtrigger.sol\":1674:1683  itemIndex */\n      sload(0x01)\n        /* \"contracts/eventtrigger.sol\":1647:1684  new Item(this, _itemPrice, itemIndex) */\n      mload(0x40)\n      tag_42\n      swap1\n      tag_43\n      jump\t// in\n    tag_42:\n      tag_44\n      swap4\n      swap3\n      swap2\n      swap1\n      tag_45\n      jump\t// in\n    tag_44:\n      mload(0x40)\n      dup1\n      swap2\n      sub\n      swap1\n      0x00\n      create\n      dup1\n      iszero\n      dup1\n      iszero\n      tag_46\n      jumpi\n      returndatasize\n      0x00\n      dup1\n      returndatacopy\n      revert(0x00, returndatasize)\n    tag_46:\n      pop\n        /* \"contracts/eventtrigger.sol\":1634:1684  Item _item = new Item(this, _itemPrice, itemIndex) */\n      swap1\n      pop\n        /* \"contracts/eventtrigger.sol\":1722:1727  _item */\n      dup1\n        /* \"contracts/eventtrigger.sol\":1697:1702  items */\n      0x00\n        /* \"contracts/eventtrigger.sol\":1697:1713  items[itemIndex] */\n      dup1\n        /* \"contracts/eventtrigger.sol\":1703:1712  itemIndex */\n      sload(0x01)\n        /* \"contracts/eventtrigger.sol\":1697:1713  items[itemIndex] */\n      dup2\n      mstore\n      0x20\n      add\n      swap1\n      dup2\n      mstore\n      0x20\n      add\n      0x00\n      keccak256\n        /* \"contracts/eventtrigger.sol\":1697:1719  items[itemIndex]._item */\n      0x00\n      add\n      0x00\n        /* \"contracts/eventtrigger.sol\":1697:1727  items[itemIndex]._item = _item */\n      0x0100\n      exp\n      dup2\n      sload\n      dup2\n      0xffffffffffffffffffffffffffffffffffffffff\n      mul\n      not\n      and\n      swap1\n      dup4\n      0xffffffffffffffffffffffffffffffffffffffff\n      and\n      mul\n      or\n      swap1\n      sstore\n      pop\n        /* \"contracts/eventtrigger.sol\":1769:1780  _identifier */\n      dup3\n        /* \"contracts/eventtrigger.sol\":1738:1743  items */\n      0x00\n        /* \"contracts/eventtrigger.sol\":1738:1754  items[itemIndex] */\n      dup1\n        /* \"contracts/eventtrigger.sol\":1744:1753  itemIndex */\n      sload(0x01)\n        /* \"contracts/eventtrigger.sol\":1738:1754  items[itemIndex] */\n      dup2\n      mstore\n      0x20\n      add\n      swap1\n      dup2\n      mstore\n      0x20\n      add\n      0x00\n      keccak256\n        /* \"contracts/eventtrigger.sol\":1738:1766  items[itemIndex]._identifier */\n      0x01\n      add\n        /* \"contracts/eventtrigger.sol\":1738:1780  items[itemIndex]._identifier = _identifier */\n      swap1\n      dup1\n      mload\n      swap1\n      0x20\n      add\n      swap1\n      tag_47\n      swap3\n      swap2\n      swap1\n      tag_48\n      jump\t// in\n    tag_47:\n      pop\n        /* \"contracts/eventtrigger.sol\":1821:1831  _itemPrice */\n      dup2\n        /* \"contracts/eventtrigger.sol\":1791:1796  items */\n      0x00\n        /* \"contracts/eventtrigger.sol\":1791:1807  items[itemIndex] */\n      dup1\n        /* \"contracts/eventtrigger.sol\":1797:1806  itemIndex */\n      sload(0x01)\n        /* \"contracts/eventtrigger.sol\":1791:1807  items[itemIndex] */\n      dup2\n      mstore\n      0x20\n      add\n      swap1\n      dup2\n      mstore\n      0x20\n      add\n      0x00\n      keccak256\n        /* \"contracts/eventtrigger.sol\":1791:1818  items[itemIndex]._itemPrice */\n      0x02\n      add\n        /* \"contracts/eventtrigger.sol\":1791:1831  items[itemIndex]._itemPrice = _itemPrice */\n      dup2\n      swap1\n      sstore\n      pop\n        /* \"contracts/eventtrigger.sol\":1868:1890  AutoChainState.Created */\n      0x00\n        /* \"contracts/eventtrigger.sol\":1842:1847  items */\n      dup1\n        /* \"contracts/eventtrigger.sol\":1842:1858  items[itemIndex] */\n      0x00\n        /* \"contracts/eventtrigger.sol\":1848:1857  itemIndex */\n      sload(0x01)\n        /* \"contracts/eventtrigger.sol\":1842:1858  items[itemIndex] */\n      dup2\n      mstore\n      0x20\n      add\n      swap1\n      dup2\n      mstore\n      0x20\n      add\n      0x00\n      keccak256\n        /* \"contracts/eventtrigger.sol\":1842:1865  items[itemIndex]._state */\n      0x03\n      add\n      0x00\n        /* \"contracts/eventtrigger.sol\":1842:1890  items[itemIndex]._state = AutoChainState.Created */\n      0x0100\n      exp\n      dup2\n      sload\n      dup2\n      0xff\n      mul\n      not\n      and\n      swap1\n      dup4\n      0x02\n      dup2\n      gt\n      iszero\n      tag_49\n      jumpi\n      tag_50\n      tag_31\n      jump\t// in\n    tag_50:\n    tag_49:\n      mul\n      or\n      swap1\n      sstore\n      pop\n        /* \"contracts/eventtrigger.sol\":1906:1972  AutoChainEvent(itemIndex, items[itemIndex]._state, address(_item)) */\n      0xf24ddcf634b84b7fbfb91b2713d1db50cdf1ac5bcd00d6351384ee26bc1a94bd\n        /* \"contracts/eventtrigger.sol\":1921:1930  itemIndex */\n      sload(0x01)\n        /* \"contracts/eventtrigger.sol\":1932:1937  items */\n      0x00\n        /* \"contracts/eventtrigger.sol\":1932:1948  items[itemIndex] */\n      dup1\n        /* \"contracts/eventtrigger.sol\":1938:1947  itemIndex */\n      sload(0x01)\n        /* \"contracts/eventtrigger.sol\":1932:1948  items[itemIndex] */\n      dup2\n      mstore\n      0x20\n      add\n      swap1\n      dup2\n      mstore\n      0x20\n      add\n      0x00\n      keccak256\n        /* \"contracts/eventtrigger.sol\":1932:1955  items[itemIndex]._state */\n      0x03\n      add\n      0x00\n      swap1\n      sload\n      swap1\n      0x0100\n      exp\n      swap1\n      div\n      0xff\n      and\n        /* \"contracts/eventtrigger.sol\":1965:1970  _item */\n      dup4\n        /* \"contracts/eventtrigger.sol\":1906:1972  AutoChainEvent(itemIndex, items[itemIndex]._state, address(_item)) */\n      mload(0x40)\n      tag_51\n      swap4\n      swap3\n      swap2\n      swap1\n      tag_40\n      jump\t// in\n    tag_51:\n      mload(0x40)\n      dup1\n      swap2\n      sub\n      swap1\n      log1\n        /* \"contracts/eventtrigger.sol\":1983:1992  itemIndex */\n      0x01\n      0x00\n        /* \"contracts/eventtrigger.sol\":1983:1994  itemIndex++ */\n      dup2\n      sload\n      dup1\n      swap3\n      swap2\n      swap1\n      tag_52\n      swap1\n      tag_53\n      jump\t// in\n    tag_52:\n      swap2\n      swap1\n      pop\n      sstore\n      pop\n        /* \"contracts/eventtrigger.sol\":1623:2002  {\r... */\n      pop\n        /* \"contracts/eventtrigger.sol\":1551:2002  function createItem (string memory _identifier, uint _itemPrice) public {\r... */\n      pop\n      pop\n      jump\t// out\n        /* \"contracts/eventtrigger.sol\":1486:1521  mapping (uint => item) public items */\n    tag_18:\n      mstore(0x20, 0x00)\n      dup1\n      0x00\n      mstore\n      keccak256(0x00, 0x40)\n      0x00\n      swap2\n      pop\n      swap1\n      pop\n      dup1\n      0x00\n      add\n      0x00\n      swap1\n      sload\n      swap1\n      0x0100\n      exp\n      swap1\n      div\n      0xffffffffffffffffffffffffffffffffffffffff\n      and\n      swap1\n      dup1\n      0x01\n      add\n      dup1\n      sload\n      tag_54\n      swap1\n      tag_55\n      jump\t// in\n    tag_54:\n      dup1\n      0x1f\n      add\n      0x20\n      dup1\n      swap2\n      div\n      mul\n      0x20\n      add\n      mload(0x40)\n      swap1\n      dup2\n      add\n      0x40\n      mstore\n      dup1\n      swap3\n      swap2\n      swap1\n      dup2\n      dup2\n      mstore\n      0x20\n      add\n      dup3\n      dup1\n      sload\n      tag_56\n      swap1\n      tag_55\n      jump\t// in\n    tag_56:\n      dup1\n      iszero\n      tag_57\n      jumpi\n      dup1\n      0x1f\n      lt\n      tag_58\n      jumpi\n      0x0100\n      dup1\n      dup4\n      sload\n      div\n      mul\n      dup4\n      mstore\n      swap2\n      0x20\n      add\n      swap2\n      jump(tag_57)\n    tag_58:\n      dup3\n      add\n      swap2\n      swap1\n      0x00\n      mstore\n      keccak256(0x00, 0x20)\n      swap1\n    tag_59:\n      dup2\n      sload\n      dup2\n      mstore\n      swap1\n      0x01\n      add\n      swap1\n      0x20\n      add\n      dup1\n      dup4\n      gt\n      tag_59\n      jumpi\n      dup3\n      swap1\n      sub\n      0x1f\n      and\n      dup3\n      add\n      swap2\n    tag_57:\n      pop\n      pop\n      pop\n      pop\n      pop\n      swap1\n      dup1\n      0x02\n      add\n      sload\n      swap1\n      dup1\n      0x03\n      add\n      0x00\n      swap1\n      sload\n      swap1\n      0x0100\n      exp\n      swap1\n      div\n      0xff\n      and\n      swap1\n      pop\n      dup5\n      jump\t// out\n        /* \"contracts/eventtrigger.sol\":2460:2777  function triggerDelivery (uint _itemIndex) public {\r... */\n    tag_24:\n        /* \"contracts/eventtrigger.sol\":2558:2577  AutoChainState.Paid */\n      0x01\n        /* \"contracts/eventtrigger.sol\":2530:2577  items[_itemIndex]._state == AutoChainState.Paid */\n      0x02\n      dup2\n      gt\n      iszero\n      tag_61\n      jumpi\n      tag_62\n      tag_31\n      jump\t// in\n    tag_62:\n    tag_61:\n        /* \"contracts/eventtrigger.sol\":2530:2535  items */\n      0x00\n        /* \"contracts/eventtrigger.sol\":2530:2547  items[_itemIndex] */\n      dup1\n        /* \"contracts/eventtrigger.sol\":2536:2546  _itemIndex */\n      dup4\n        /* \"contracts/eventtrigger.sol\":2530:2547  items[_itemIndex] */\n      dup2\n      mstore\n      0x20\n      add\n      swap1\n      dup2\n      mstore\n      0x20\n      add\n      0x00\n      keccak256\n        /* \"contracts/eventtrigger.sol\":2530:2554  items[_itemIndex]._state */\n      0x03\n      add\n      0x00\n      swap1\n      sload\n      swap1\n      0x0100\n      exp\n      swap1\n      div\n      0xff\n      and\n        /* \"contracts/eventtrigger.sol\":2530:2577  items[_itemIndex]._state == AutoChainState.Paid */\n      0x02\n      dup2\n      gt\n      iszero\n      tag_63\n      jumpi\n      tag_64\n      tag_31\n      jump\t// in\n    tag_64:\n    tag_63:\n      eq\n        /* \"contracts/eventtrigger.sol\":2521:2606  require (items[_itemIndex]._state == AutoChainState.Paid, \"Item awaiting payment...\") */\n      tag_65\n      jumpi\n      mload(0x40)\n      0x08c379a000000000000000000000000000000000000000000000000000000000\n      dup2\n      mstore\n      0x04\n      add\n      tag_66\n      swap1\n      tag_67\n      jump\t// in\n    tag_66:\n      mload(0x40)\n      dup1\n      swap2\n      sub\n      swap1\n      revert\n    tag_65:\n        /* \"contracts/eventtrigger.sol\":2644:2668  AutoChainState.Delivered */\n      0x02\n        /* \"contracts/eventtrigger.sol\":2617:2622  items */\n      0x00\n        /* \"contracts/eventtrigger.sol\":2617:2634  items[_itemIndex] */\n      dup1\n        /* \"contracts/eventtrigger.sol\":2623:2633  _itemIndex */\n      dup4\n        /* \"contracts/eventtrigger.sol\":2617:2634  items[_itemIndex] */\n      dup2\n      mstore\n      0x20\n      add\n      swap1\n      dup2\n      mstore\n      0x20\n      add\n      0x00\n      keccak256\n        /* \"contracts/eventtrigger.sol\":2617:2641  items[_itemIndex]._state */\n      0x03\n      add\n      0x00\n        /* \"contracts/eventtrigger.sol\":2617:2668  items[_itemIndex]._state = AutoChainState.Delivered */\n      0x0100\n      exp\n      dup2\n      sload\n      dup2\n      0xff\n      mul\n      not\n      and\n      swap1\n      dup4\n      0x02\n      dup2\n      gt\n      iszero\n      tag_68\n      jumpi\n      tag_69\n      tag_31\n      jump\t// in\n    tag_69:\n    tag_68:\n      mul\n      or\n      swap1\n      sstore\n      pop\n        /* \"contracts/eventtrigger.sol\":2684:2769  AutoChainEvent(_itemIndex, items[_itemIndex]._state, address(items[itemIndex]._item)) */\n      0xf24ddcf634b84b7fbfb91b2713d1db50cdf1ac5bcd00d6351384ee26bc1a94bd\n        /* \"contracts/eventtrigger.sol\":2699:2709  _itemIndex */\n      dup2\n        /* \"contracts/eventtrigger.sol\":2711:2716  items */\n      0x00\n        /* \"contracts/eventtrigger.sol\":2711:2728  items[_itemIndex] */\n      dup1\n        /* \"contracts/eventtrigger.sol\":2717:2727  _itemIndex */\n      dup5\n        /* \"contracts/eventtrigger.sol\":2711:2728  items[_itemIndex] */\n      dup2\n      mstore\n      0x20\n      add\n      swap1\n      dup2\n      mstore\n      0x20\n      add\n      0x00\n      keccak256\n        /* \"contracts/eventtrigger.sol\":2711:2735  items[_itemIndex]._state */\n      0x03\n      add\n      0x00\n      swap1\n      sload\n      swap1\n      0x0100\n      exp\n      swap1\n      div\n      0xff\n      and\n        /* \"contracts/eventtrigger.sol\":2745:2750  items */\n      0x00\n        /* \"contracts/eventtrigger.sol\":2745:2761  items[itemIndex] */\n      dup1\n        /* \"contracts/eventtrigger.sol\":2751:2760  itemIndex */\n      sload(0x01)\n        /* \"contracts/eventtrigger.sol\":2745:2761  items[itemIndex] */\n      dup2\n      mstore\n      0x20\n      add\n      swap1\n      dup2\n      mstore\n      0x20\n      add\n      0x00\n      keccak256\n        /* \"contracts/eventtrigger.sol\":2745:2767  items[itemIndex]._item */\n      0x00\n      add\n      0x00\n      swap1\n      sload\n      swap1\n      0x0100\n      exp\n      swap1\n      div\n      0xffffffffffffffffffffffffffffffffffffffff\n      and\n        /* \"contracts/eventtrigger.sol\":2684:2769  AutoChainEvent(_itemIndex, items[_itemIndex]._state, address(items[itemIndex]._item)) */\n      mload(0x40)\n      tag_70\n      swap4\n      swap3\n      swap2\n      swap1\n      tag_40\n      jump\t// in\n    tag_70:\n      mload(0x40)\n      dup1\n      swap2\n      sub\n      swap1\n      log1\n        /* \"contracts/eventtrigger.sol\":2460:2777  function triggerDelivery (uint _itemIndex) public {\r... */\n      pop\n      jump\t// out\n    tag_43:\n      dataSize(sub_0)\n      dup1\n      dataOffset(sub_0)\n      dup4\n      codecopy\n      add\n      swap1\n      jump\t// out\n    tag_48:\n      dup3\n      dup1\n      sload\n      tag_71\n      swap1\n      tag_55\n      jump\t// in\n    tag_71:\n      swap1\n      0x00\n      mstore\n      keccak256(0x00, 0x20)\n      swap1\n      0x1f\n      add\n      0x20\n      swap1\n      div\n      dup2\n      add\n      swap3\n      dup3\n      tag_73\n      jumpi\n      0x00\n      dup6\n      sstore\n      jump(tag_72)\n    tag_73:\n      dup3\n      0x1f\n      lt\n      tag_74\n      jumpi\n      dup1\n      mload\n      not(0xff)\n      and\n      dup4\n      dup1\n      add\n      or\n      dup6\n      sstore\n      jump(tag_72)\n    tag_74:\n      dup3\n      dup1\n      add\n      0x01\n      add\n      dup6\n      sstore\n      dup3\n      iszero\n      tag_72\n      jumpi\n      swap2\n      dup3\n      add\n    tag_75:\n      dup3\n      dup2\n      gt\n      iszero\n      tag_76\n      jumpi\n      dup3\n      mload\n      dup3\n      sstore\n      swap2\n      0x20\n      add\n      swap2\n      swap1\n      0x01\n      add\n      swap1\n      jump(tag_75)\n    tag_76:\n    tag_72:\n      pop\n      swap1\n      pop\n      tag_77\n      swap2\n      swap1\n      tag_78\n      jump\t// in\n    tag_77:\n      pop\n      swap1\n      jump\t// out\n    tag_78:\n    tag_79:\n      dup1\n      dup3\n      gt\n      iszero\n      tag_80\n      jumpi\n      0x00\n      dup2\n      0x00\n      swap1\n      sstore\n      pop\n      0x01\n      add\n      jump(tag_79)\n    tag_80:\n      pop\n      swap1\n      jump\t// out\n        /* \"#utility.yul\":7:419   */\n    tag_82:\n        /* \"#utility.yul\":85:90   */\n      0x00\n        /* \"#utility.yul\":110:176   */\n      tag_84\n        /* \"#utility.yul\":126:175   */\n      tag_85\n        /* \"#utility.yul\":168:174   */\n      dup5\n        /* \"#utility.yul\":126:175   */\n      tag_86\n      jump\t// in\n    tag_85:\n        /* \"#utility.yul\":110:176   */\n      tag_87\n      jump\t// in\n    tag_84:\n        /* \"#utility.yul\":101:176   */\n      swap1\n      pop\n        /* \"#utility.yul\":199:205   */\n      dup3\n        /* \"#utility.yul\":192:197   */\n      dup2\n        /* \"#utility.yul\":185:206   */\n      mstore\n        /* \"#utility.yul\":237:241   */\n      0x20\n        /* \"#utility.yul\":230:235   */\n      dup2\n        /* \"#utility.yul\":226:242   */\n      add\n        /* \"#utility.yul\":275:278   */\n      dup5\n        /* \"#utility.yul\":266:272   */\n      dup5\n        /* \"#utility.yul\":261:264   */\n      dup5\n        /* \"#utility.yul\":257:273   */\n      add\n        /* \"#utility.yul\":254:279   */\n      gt\n        /* \"#utility.yul\":251:363   */\n      iszero\n      tag_88\n      jumpi\n        /* \"#utility.yul\":282:361   */\n      tag_89\n      tag_90\n      jump\t// in\n    tag_89:\n        /* \"#utility.yul\":251:363   */\n    tag_88:\n        /* \"#utility.yul\":372:413   */\n      tag_91\n        /* \"#utility.yul\":406:412   */\n      dup5\n        /* \"#utility.yul\":401:404   */\n      dup3\n        /* \"#utility.yul\":396:399   */\n      dup6\n        /* \"#utility.yul\":372:413   */\n      tag_92\n      jump\t// in\n    tag_91:\n        /* \"#utility.yul\":91:419   */\n      pop\n        /* \"#utility.yul\":7:419   */\n      swap4\n      swap3\n      pop\n      pop\n      pop\n      jump\t// out\n        /* \"#utility.yul\":439:779   */\n    tag_93:\n        /* \"#utility.yul\":495:500   */\n      0x00\n        /* \"#utility.yul\":544:547   */\n      dup3\n        /* \"#utility.yul\":537:541   */\n      0x1f\n        /* \"#utility.yul\":529:535   */\n      dup4\n        /* \"#utility.yul\":525:542   */\n      add\n        /* \"#utility.yul\":521:548   */\n      slt\n        /* \"#utility.yul\":511:633   */\n      tag_95\n      jumpi\n        /* \"#utility.yul\":552:631   */\n      tag_96\n      tag_97\n      jump\t// in\n    tag_96:\n        /* \"#utility.yul\":511:633   */\n    tag_95:\n        /* \"#utility.yul\":669:675   */\n      dup2\n        /* \"#utility.yul\":656:676   */\n      calldataload\n        /* \"#utility.yul\":694:773   */\n      tag_98\n        /* \"#utility.yul\":769:772   */\n      dup5\n        /* \"#utility.yul\":761:767   */\n      dup3\n        /* \"#utility.yul\":754:758   */\n      0x20\n        /* \"#utility.yul\":746:752   */\n      dup7\n        /* \"#utility.yul\":742:759   */\n      add\n        /* \"#utility.yul\":694:773   */\n      tag_82\n      jump\t// in\n    tag_98:\n        /* \"#utility.yul\":685:773   */\n      swap2\n      pop\n        /* \"#utility.yul\":501:779   */\n      pop\n        /* \"#utility.yul\":439:779   */\n      swap3\n      swap2\n      pop\n      pop\n      jump\t// out\n        /* \"#utility.yul\":785:924   */\n    tag_99:\n        /* \"#utility.yul\":831:836   */\n      0x00\n        /* \"#utility.yul\":869:875   */\n      dup2\n        /* \"#utility.yul\":856:876   */\n      calldataload\n        /* \"#utility.yul\":847:876   */\n      swap1\n      pop\n        /* \"#utility.yul\":885:918   */\n      tag_101\n        /* \"#utility.yul\":912:917   */\n      dup2\n        /* \"#utility.yul\":885:918   */\n      tag_102\n      jump\t// in\n    tag_101:\n        /* \"#utility.yul\":785:924   */\n      swap3\n      swap2\n      pop\n      pop\n      jump\t// out\n        /* \"#utility.yul\":930:1584   */\n    tag_13:\n        /* \"#utility.yul\":1008:1014   */\n      0x00\n        /* \"#utility.yul\":1016:1022   */\n      dup1\n        /* \"#utility.yul\":1065:1067   */\n      0x40\n        /* \"#utility.yul\":1053:1062   */\n      dup4\n        /* \"#utility.yul\":1044:1051   */\n      dup6\n        /* \"#utility.yul\":1040:1063   */\n      sub\n        /* \"#utility.yul\":1036:1068   */\n      slt\n        /* \"#utility.yul\":1033:1152   */\n      iszero\n      tag_104\n      jumpi\n        /* \"#utility.yul\":1071:1150   */\n      tag_105\n      tag_106\n      jump\t// in\n    tag_105:\n        /* \"#utility.yul\":1033:1152   */\n    tag_104:\n        /* \"#utility.yul\":1219:1220   */\n      0x00\n        /* \"#utility.yul\":1208:1217   */\n      dup4\n        /* \"#utility.yul\":1204:1221   */\n      add\n        /* \"#utility.yul\":1191:1222   */\n      calldataload\n        /* \"#utility.yul\":1249:1267   */\n      0xffffffffffffffff\n        /* \"#utility.yul\":1241:1247   */\n      dup2\n        /* \"#utility.yul\":1238:1268   */\n      gt\n        /* \"#utility.yul\":1235:1352   */\n      iszero\n      tag_107\n      jumpi\n        /* \"#utility.yul\":1271:1350   */\n      tag_108\n      tag_109\n      jump\t// in\n    tag_108:\n        /* \"#utility.yul\":1235:1352   */\n    tag_107:\n        /* \"#utility.yul\":1376:1439   */\n      tag_110\n        /* \"#utility.yul\":1431:1438   */\n      dup6\n        /* \"#utility.yul\":1422:1428   */\n      dup3\n        /* \"#utility.yul\":1411:1420   */\n      dup7\n        /* \"#utility.yul\":1407:1429   */\n      add\n        /* \"#utility.yul\":1376:1439   */\n      tag_93\n      jump\t// in\n    tag_110:\n        /* \"#utility.yul\":1366:1439   */\n      swap3\n      pop\n        /* \"#utility.yul\":1162:1449   */\n      pop\n        /* \"#utility.yul\":1488:1490   */\n      0x20\n        /* \"#utility.yul\":1514:1567   */\n      tag_111\n        /* \"#utility.yul\":1559:1566   */\n      dup6\n        /* \"#utility.yul\":1550:1556   */\n      dup3\n        /* \"#utility.yul\":1539:1548   */\n      dup7\n        /* \"#utility.yul\":1535:1557   */\n      add\n        /* \"#utility.yul\":1514:1567   */\n      tag_99\n      jump\t// in\n    tag_111:\n        /* \"#utility.yul\":1504:1567   */\n      swap2\n      pop\n        /* \"#utility.yul\":1459:1577   */\n      pop\n        /* \"#utility.yul\":930:1584   */\n      swap3\n      pop\n      swap3\n      swap1\n      pop\n      jump\t// out\n        /* \"#utility.yul\":1590:1919   */\n    tag_8:\n        /* \"#utility.yul\":1649:1655   */\n      0x00\n        /* \"#utility.yul\":1698:1700   */\n      0x20\n        /* \"#utility.yul\":1686:1695   */\n      dup3\n        /* \"#utility.yul\":1677:1684   */\n      dup5\n        /* \"#utility.yul\":1673:1696   */\n      sub\n        /* \"#utility.yul\":1669:1701   */\n      slt\n        /* \"#utility.yul\":1666:1785   */\n      iszero\n      tag_113\n      jumpi\n        /* \"#utility.yul\":1704:1783   */\n      tag_114\n      tag_106\n      jump\t// in\n    tag_114:\n        /* \"#utility.yul\":1666:1785   */\n    tag_113:\n        /* \"#utility.yul\":1824:1825   */\n      0x00\n        /* \"#utility.yul\":1849:1902   */\n      tag_115\n        /* \"#utility.yul\":1894:1901   */\n      dup5\n        /* \"#utility.yul\":1885:1891   */\n      dup3\n        /* \"#utility.yul\":1874:1883   */\n      dup6\n        /* \"#utility.yul\":1870:1892   */\n      add\n        /* \"#utility.yul\":1849:1902   */\n      tag_99\n      jump\t// in\n    tag_115:\n        /* \"#utility.yul\":1839:1902   */\n      swap2\n      pop\n        /* \"#utility.yul\":1795:1912   */\n      pop\n        /* \"#utility.yul\":1590:1919   */\n      swap3\n      swap2\n      pop\n      pop\n      jump\t// out\n        /* \"#utility.yul\":1925:2043   */\n    tag_116:\n        /* \"#utility.yul\":2012:2036   */\n      tag_118\n        /* \"#utility.yul\":2030:2035   */\n      dup2\n        /* \"#utility.yul\":2012:2036   */\n      tag_119\n      jump\t// in\n    tag_118:\n        /* \"#utility.yul\":2007:2010   */\n      dup3\n        /* \"#utility.yul\":2000:2037   */\n      mstore\n        /* \"#utility.yul\":1925:2043   */\n      pop\n      pop\n      jump\t// out\n        /* \"#utility.yul\":2049:2218   */\n    tag_120:\n        /* \"#utility.yul\":2155:2211   */\n      tag_122\n        /* \"#utility.yul\":2205:2210   */\n      dup2\n        /* \"#utility.yul\":2155:2211   */\n      tag_123\n      jump\t// in\n    tag_122:\n        /* \"#utility.yul\":2150:2153   */\n      dup3\n        /* \"#utility.yul\":2143:2212   */\n      mstore\n        /* \"#utility.yul\":2049:2218   */\n      pop\n      pop\n      jump\t// out\n        /* \"#utility.yul\":2224:2377   */\n    tag_124:\n        /* \"#utility.yul\":2322:2370   */\n      tag_126\n        /* \"#utility.yul\":2364:2369   */\n      dup2\n        /* \"#utility.yul\":2322:2370   */\n      tag_127\n      jump\t// in\n    tag_126:\n        /* \"#utility.yul\":2317:2320   */\n      dup3\n        /* \"#utility.yul\":2310:2371   */\n      mstore\n        /* \"#utility.yul\":2224:2377   */\n      pop\n      pop\n      jump\t// out\n        /* \"#utility.yul\":2383:2544   */\n    tag_128:\n        /* \"#utility.yul\":2485:2537   */\n      tag_130\n        /* \"#utility.yul\":2531:2536   */\n      dup2\n        /* \"#utility.yul\":2485:2537   */\n      tag_131\n      jump\t// in\n    tag_130:\n        /* \"#utility.yul\":2480:2483   */\n      dup3\n        /* \"#utility.yul\":2473:2538   */\n      mstore\n        /* \"#utility.yul\":2383:2544   */\n      pop\n      pop\n      jump\t// out\n        /* \"#utility.yul\":2550:2914   */\n    tag_132:\n        /* \"#utility.yul\":2638:2641   */\n      0x00\n        /* \"#utility.yul\":2666:2705   */\n      tag_134\n        /* \"#utility.yul\":2699:2704   */\n      dup3\n        /* \"#utility.yul\":2666:2705   */\n      tag_135\n      jump\t// in\n    tag_134:\n        /* \"#utility.yul\":2721:2792   */\n      tag_136\n        /* \"#utility.yul\":2785:2791   */\n      dup2\n        /* \"#utility.yul\":2780:2783   */\n      dup6\n        /* \"#utility.yul\":2721:2792   */\n      tag_137\n      jump\t// in\n    tag_136:\n        /* \"#utility.yul\":2714:2792   */\n      swap4\n      pop\n        /* \"#utility.yul\":2801:2853   */\n      tag_138\n        /* \"#utility.yul\":2846:2852   */\n      dup2\n        /* \"#utility.yul\":2841:2844   */\n      dup6\n        /* \"#utility.yul\":2834:2838   */\n      0x20\n        /* \"#utility.yul\":2827:2832   */\n      dup7\n        /* \"#utility.yul\":2823:2839   */\n      add\n        /* \"#utility.yul\":2801:2853   */\n      tag_139\n      jump\t// in\n    tag_138:\n        /* \"#utility.yul\":2878:2907   */\n      tag_140\n        /* \"#utility.yul\":2900:2906   */\n      dup2\n        /* \"#utility.yul\":2878:2907   */\n      tag_141\n      jump\t// in\n    tag_140:\n        /* \"#utility.yul\":2873:2876   */\n      dup5\n        /* \"#utility.yul\":2869:2908   */\n      add\n        /* \"#utility.yul\":2862:2908   */\n      swap2\n      pop\n        /* \"#utility.yul\":2642:2914   */\n      pop\n        /* \"#utility.yul\":2550:2914   */\n      swap3\n      swap2\n      pop\n      pop\n      jump\t// out\n        /* \"#utility.yul\":2920:3286   */\n    tag_142:\n        /* \"#utility.yul\":3062:3065   */\n      0x00\n        /* \"#utility.yul\":3083:3150   */\n      tag_144\n        /* \"#utility.yul\":3147:3149   */\n      0x18\n        /* \"#utility.yul\":3142:3145   */\n      dup4\n        /* \"#utility.yul\":3083:3150   */\n      tag_137\n      jump\t// in\n    tag_144:\n        /* \"#utility.yul\":3076:3150   */\n      swap2\n      pop\n        /* \"#utility.yul\":3159:3252   */\n      tag_145\n        /* \"#utility.yul\":3248:3251   */\n      dup3\n        /* \"#utility.yul\":3159:3252   */\n      tag_146\n      jump\t// in\n    tag_145:\n        /* \"#utility.yul\":3277:3279   */\n      0x20\n        /* \"#utility.yul\":3272:3275   */\n      dup3\n        /* \"#utility.yul\":3268:3280   */\n      add\n        /* \"#utility.yul\":3261:3280   */\n      swap1\n      pop\n        /* \"#utility.yul\":2920:3286   */\n      swap2\n      swap1\n      pop\n      jump\t// out\n        /* \"#utility.yul\":3292:3658   */\n    tag_147:\n        /* \"#utility.yul\":3434:3437   */\n      0x00\n        /* \"#utility.yul\":3455:3522   */\n      tag_149\n        /* \"#utility.yul\":3519:3521   */\n      0x2b\n        /* \"#utility.yul\":3514:3517   */\n      dup4\n        /* \"#utility.yul\":3455:3522   */\n      tag_137\n      jump\t// in\n    tag_149:\n        /* \"#utility.yul\":3448:3522   */\n      swap2\n      pop\n        /* \"#utility.yul\":3531:3624   */\n      tag_150\n        /* \"#utility.yul\":3620:3623   */\n      dup3\n        /* \"#utility.yul\":3531:3624   */\n      tag_151\n      jump\t// in\n    tag_150:\n        /* \"#utility.yul\":3649:3651   */\n      0x40\n        /* \"#utility.yul\":3644:3647   */\n      dup3\n        /* \"#utility.yul\":3640:3652   */\n      add\n        /* \"#utility.yul\":3633:3652   */\n      swap1\n      pop\n        /* \"#utility.yul\":3292:3658   */\n      swap2\n      swap1\n      pop\n      jump\t// out\n        /* \"#utility.yul\":3664:4030   */\n    tag_152:\n        /* \"#utility.yul\":3806:3809   */\n      0x00\n        /* \"#utility.yul\":3827:3894   */\n      tag_154\n        /* \"#utility.yul\":3891:3893   */\n      0x18\n        /* \"#utility.yul\":3886:3889   */\n      dup4\n        /* \"#utility.yul\":3827:3894   */\n      tag_137\n      jump\t// in\n    tag_154:\n        /* \"#utility.yul\":3820:3894   */\n      swap2\n      pop\n        /* \"#utility.yul\":3903:3996   */\n      tag_155\n        /* \"#utility.yul\":3992:3995   */\n      dup3\n        /* \"#utility.yul\":3903:3996   */\n      tag_156\n      jump\t// in\n    tag_155:\n        /* \"#utility.yul\":4021:4023   */\n      0x20\n        /* \"#utility.yul\":4016:4019   */\n      dup3\n        /* \"#utility.yul\":4012:4024   */\n      add\n        /* \"#utility.yul\":4005:4024   */\n      swap1\n      pop\n        /* \"#utility.yul\":3664:4030   */\n      swap2\n      swap1\n      pop\n      jump\t// out\n        /* \"#utility.yul\":4036:4154   */\n    tag_157:\n        /* \"#utility.yul\":4123:4147   */\n      tag_159\n        /* \"#utility.yul\":4141:4146   */\n      dup2\n        /* \"#utility.yul\":4123:4147   */\n      tag_160\n      jump\t// in\n    tag_159:\n        /* \"#utility.yul\":4118:4121   */\n      dup3\n        /* \"#utility.yul\":4111:4148   */\n      mstore\n        /* \"#utility.yul\":4036:4154   */\n      pop\n      pop\n      jump\t// out\n        /* \"#utility.yul\":4160:4640   */\n    tag_45:\n        /* \"#utility.yul\":4328:4332   */\n      0x00\n        /* \"#utility.yul\":4366:4368   */\n      0x60\n        /* \"#utility.yul\":4355:4364   */\n      dup3\n        /* \"#utility.yul\":4351:4369   */\n      add\n        /* \"#utility.yul\":4343:4369   */\n      swap1\n      pop\n        /* \"#utility.yul\":4379:4469   */\n      tag_162\n        /* \"#utility.yul\":4466:4467   */\n      0x00\n        /* \"#utility.yul\":4455:4464   */\n      dup4\n        /* \"#utility.yul\":4451:4468   */\n      add\n        /* \"#utility.yul\":4442:4448   */\n      dup7\n        /* \"#utility.yul\":4379:4469   */\n      tag_120\n      jump\t// in\n    tag_162:\n        /* \"#utility.yul\":4479:4551   */\n      tag_163\n        /* \"#utility.yul\":4547:4549   */\n      0x20\n        /* \"#utility.yul\":4536:4545   */\n      dup4\n        /* \"#utility.yul\":4532:4550   */\n      add\n        /* \"#utility.yul\":4523:4529   */\n      dup6\n        /* \"#utility.yul\":4479:4551   */\n      tag_157\n      jump\t// in\n    tag_163:\n        /* \"#utility.yul\":4561:4633   */\n      tag_164\n        /* \"#utility.yul\":4629:4631   */\n      0x40\n        /* \"#utility.yul\":4618:4627   */\n      dup4\n        /* \"#utility.yul\":4614:4632   */\n      add\n        /* \"#utility.yul\":4605:4611   */\n      dup5\n        /* \"#utility.yul\":4561:4633   */\n      tag_157\n      jump\t// in\n    tag_164:\n        /* \"#utility.yul\":4160:4640   */\n      swap5\n      swap4\n      pop\n      pop\n      pop\n      pop\n      jump\t// out\n        /* \"#utility.yul\":4646:5342   */\n    tag_20:\n        /* \"#utility.yul\":4869:4873   */\n      0x00\n        /* \"#utility.yul\":4907:4910   */\n      0x80\n        /* \"#utility.yul\":4896:4905   */\n      dup3\n        /* \"#utility.yul\":4892:4911   */\n      add\n        /* \"#utility.yul\":4884:4911   */\n      swap1\n      pop\n        /* \"#utility.yul\":4921:5003   */\n      tag_166\n        /* \"#utility.yul\":5000:5001   */\n      0x00\n        /* \"#utility.yul\":4989:4998   */\n      dup4\n        /* \"#utility.yul\":4985:5002   */\n      add\n        /* \"#utility.yul\":4976:4982   */\n      dup8\n        /* \"#utility.yul\":4921:5003   */\n      tag_124\n      jump\t// in\n    tag_166:\n        /* \"#utility.yul\":5050:5059   */\n      dup2\n        /* \"#utility.yul\":5044:5048   */\n      dup2\n        /* \"#utility.yul\":5040:5060   */\n      sub\n        /* \"#utility.yul\":5035:5037   */\n      0x20\n        /* \"#utility.yul\":5024:5033   */\n      dup4\n        /* \"#utility.yul\":5020:5038   */\n      add\n        /* \"#utility.yul\":5013:5061   */\n      mstore\n        /* \"#utility.yul\":5078:5156   */\n      tag_167\n        /* \"#utility.yul\":5151:5155   */\n      dup2\n        /* \"#utility.yul\":5142:5148   */\n      dup7\n        /* \"#utility.yul\":5078:5156   */\n      tag_132\n      jump\t// in\n    tag_167:\n        /* \"#utility.yul\":5070:5156   */\n      swap1\n      pop\n        /* \"#utility.yul\":5166:5238   */\n      tag_168\n        /* \"#utility.yul\":5234:5236   */\n      0x40\n        /* \"#utility.yul\":5223:5232   */\n      dup4\n        /* \"#utility.yul\":5219:5237   */\n      add\n        /* \"#utility.yul\":5210:5216   */\n      dup6\n        /* \"#utility.yul\":5166:5238   */\n      tag_157\n      jump\t// in\n    tag_168:\n        /* \"#utility.yul\":5248:5335   */\n      tag_169\n        /* \"#utility.yul\":5331:5333   */\n      0x60\n        /* \"#utility.yul\":5320:5329   */\n      dup4\n        /* \"#utility.yul\":5316:5334   */\n      add\n        /* \"#utility.yul\":5307:5313   */\n      dup5\n        /* \"#utility.yul\":5248:5335   */\n      tag_128\n      jump\t// in\n    tag_169:\n        /* \"#utility.yul\":4646:5342   */\n      swap6\n      swap5\n      pop\n      pop\n      pop\n      pop\n      pop\n      jump\t// out\n        /* \"#utility.yul\":5348:5767   */\n    tag_28:\n        /* \"#utility.yul\":5514:5518   */\n      0x00\n        /* \"#utility.yul\":5552:5554   */\n      0x20\n        /* \"#utility.yul\":5541:5550   */\n      dup3\n        /* \"#utility.yul\":5537:5555   */\n      add\n        /* \"#utility.yul\":5529:5555   */\n      swap1\n      pop\n        /* \"#utility.yul\":5601:5610   */\n      dup2\n        /* \"#utility.yul\":5595:5599   */\n      dup2\n        /* \"#utility.yul\":5591:5611   */\n      sub\n        /* \"#utility.yul\":5587:5588   */\n      0x00\n        /* \"#utility.yul\":5576:5585   */\n      dup4\n        /* \"#utility.yul\":5572:5589   */\n      add\n        /* \"#utility.yul\":5565:5612   */\n      mstore\n        /* \"#utility.yul\":5629:5760   */\n      tag_171\n        /* \"#utility.yul\":5755:5759   */\n      dup2\n        /* \"#utility.yul\":5629:5760   */\n      tag_142\n      jump\t// in\n    tag_171:\n        /* \"#utility.yul\":5621:5760   */\n      swap1\n      pop\n        /* \"#utility.yul\":5348:5767   */\n      swap2\n      swap1\n      pop\n      jump\t// out\n        /* \"#utility.yul\":5773:6192   */\n    tag_36:\n        /* \"#utility.yul\":5939:5943   */\n      0x00\n        /* \"#utility.yul\":5977:5979   */\n      0x20\n        /* \"#utility.yul\":5966:5975   */\n      dup3\n        /* \"#utility.yul\":5962:5980   */\n      add\n        /* \"#utility.yul\":5954:5980   */\n      swap1\n      pop\n        /* \"#utility.yul\":6026:6035   */\n      dup2\n        /* \"#utility.yul\":6020:6024   */\n      dup2\n        /* \"#utility.yul\":6016:6036   */\n      sub\n        /* \"#utility.yul\":6012:6013   */\n      0x00\n        /* \"#utility.yul\":6001:6010   */\n      dup4\n        /* \"#utility.yul\":5997:6014   */\n      add\n        /* \"#utility.yul\":5990:6037   */\n      mstore\n        /* \"#utility.yul\":6054:6185   */\n      tag_173\n        /* \"#utility.yul\":6180:6184   */\n      dup2\n        /* \"#utility.yul\":6054:6185   */\n      tag_147\n      jump\t// in\n    tag_173:\n        /* \"#utility.yul\":6046:6185   */\n      swap1\n      pop\n        /* \"#utility.yul\":5773:6192   */\n      swap2\n      swap1\n      pop\n      jump\t// out\n        /* \"#utility.yul\":6198:6617   */\n    tag_67:\n        /* \"#utility.yul\":6364:6368   */\n      0x00\n        /* \"#utility.yul\":6402:6404   */\n      0x20\n        /* \"#utility.yul\":6391:6400   */\n      dup3\n        /* \"#utility.yul\":6387:6405   */\n      add\n        /* \"#utility.yul\":6379:6405   */\n      swap1\n      pop\n        /* \"#utility.yul\":6451:6460   */\n      dup2\n        /* \"#utility.yul\":6445:6449   */\n      dup2\n        /* \"#utility.yul\":6441:6461   */\n      sub\n        /* \"#utility.yul\":6437:6438   */\n      0x00\n        /* \"#utility.yul\":6426:6435   */\n      dup4\n        /* \"#utility.yul\":6422:6439   */\n      add\n        /* \"#utility.yul\":6415:6462   */\n      mstore\n        /* \"#utility.yul\":6479:6610   */\n      tag_175\n        /* \"#utility.yul\":6605:6609   */\n      dup2\n        /* \"#utility.yul\":6479:6610   */\n      tag_152\n      jump\t// in\n    tag_175:\n        /* \"#utility.yul\":6471:6610   */\n      swap1\n      pop\n        /* \"#utility.yul\":6198:6617   */\n      swap2\n      swap1\n      pop\n      jump\t// out\n        /* \"#utility.yul\":6623:7095   */\n    tag_40:\n        /* \"#utility.yul\":6787:6791   */\n      0x00\n        /* \"#utility.yul\":6825:6827   */\n      0x60\n        /* \"#utility.yul\":6814:6823   */\n      dup3\n        /* \"#utility.yul\":6810:6828   */\n      add\n        /* \"#utility.yul\":6802:6828   */\n      swap1\n      pop\n        /* \"#utility.yul\":6838:6909   */\n      tag_177\n        /* \"#utility.yul\":6906:6907   */\n      0x00\n        /* \"#utility.yul\":6895:6904   */\n      dup4\n        /* \"#utility.yul\":6891:6908   */\n      add\n        /* \"#utility.yul\":6882:6888   */\n      dup7\n        /* \"#utility.yul\":6838:6909   */\n      tag_157\n      jump\t// in\n    tag_177:\n        /* \"#utility.yul\":6919:7006   */\n      tag_178\n        /* \"#utility.yul\":7002:7004   */\n      0x20\n        /* \"#utility.yul\":6991:7000   */\n      dup4\n        /* \"#utility.yul\":6987:7005   */\n      add\n        /* \"#utility.yul\":6978:6984   */\n      dup6\n        /* \"#utility.yul\":6919:7006   */\n      tag_128\n      jump\t// in\n    tag_178:\n        /* \"#utility.yul\":7016:7088   */\n      tag_179\n        /* \"#utility.yul\":7084:7086   */\n      0x40\n        /* \"#utility.yul\":7073:7082   */\n      dup4\n        /* \"#utility.yul\":7069:7087   */\n      add\n        /* \"#utility.yul\":7060:7066   */\n      dup5\n        /* \"#utility.yul\":7016:7088   */\n      tag_116\n      jump\t// in\n    tag_179:\n        /* \"#utility.yul\":6623:7095   */\n      swap5\n      swap4\n      pop\n      pop\n      pop\n      pop\n      jump\t// out\n        /* \"#utility.yul\":7101:7230   */\n    tag_87:\n        /* \"#utility.yul\":7135:7141   */\n      0x00\n        /* \"#utility.yul\":7162:7182   */\n      tag_181\n      tag_182\n      jump\t// in\n    tag_181:\n        /* \"#utility.yul\":7152:7182   */\n      swap1\n      pop\n        /* \"#utility.yul\":7191:7224   */\n      tag_183\n        /* \"#utility.yul\":7219:7223   */\n      dup3\n        /* \"#utility.yul\":7211:7217   */\n      dup3\n        /* \"#utility.yul\":7191:7224   */\n      tag_184\n      jump\t// in\n    tag_183:\n        /* \"#utility.yul\":7101:7230   */\n      swap2\n      swap1\n      pop\n      jump\t// out\n        /* \"#utility.yul\":7236:7311   */\n    tag_182:\n        /* \"#utility.yul\":7269:7275   */\n      0x00\n        /* \"#utility.yul\":7302:7304   */\n      0x40\n        /* \"#utility.yul\":7296:7305   */\n      mload\n        /* \"#utility.yul\":7286:7305   */\n      swap1\n      pop\n        /* \"#utility.yul\":7236:7311   */\n      swap1\n      jump\t// out\n        /* \"#utility.yul\":7317:7625   */\n    tag_86:\n        /* \"#utility.yul\":7379:7383   */\n      0x00\n        /* \"#utility.yul\":7469:7487   */\n      0xffffffffffffffff\n        /* \"#utility.yul\":7461:7467   */\n      dup3\n        /* \"#utility.yul\":7458:7488   */\n      gt\n        /* \"#utility.yul\":7455:7511   */\n      iszero\n      tag_187\n      jumpi\n        /* \"#utility.yul\":7491:7509   */\n      tag_188\n      tag_189\n      jump\t// in\n    tag_188:\n        /* \"#utility.yul\":7455:7511   */\n    tag_187:\n        /* \"#utility.yul\":7529:7558   */\n      tag_190\n        /* \"#utility.yul\":7551:7557   */\n      dup3\n        /* \"#utility.yul\":7529:7558   */\n      tag_141\n      jump\t// in\n    tag_190:\n        /* \"#utility.yul\":7521:7558   */\n      swap1\n      pop\n        /* \"#utility.yul\":7613:7617   */\n      0x20\n        /* \"#utility.yul\":7607:7611   */\n      dup2\n        /* \"#utility.yul\":7603:7618   */\n      add\n        /* \"#utility.yul\":7595:7618   */\n      swap1\n      pop\n        /* \"#utility.yul\":7317:7625   */\n      swap2\n      swap1\n      pop\n      jump\t// out\n        /* \"#utility.yul\":7631:7730   */\n    tag_135:\n        /* \"#utility.yul\":7683:7689   */\n      0x00\n        /* \"#utility.yul\":7717:7722   */\n      dup2\n        /* \"#utility.yul\":7711:7723   */\n      mload\n        /* \"#utility.yul\":7701:7723   */\n      swap1\n      pop\n        /* \"#utility.yul\":7631:7730   */\n      swap2\n      swap1\n      pop\n      jump\t// out\n        /* \"#utility.yul\":7736:7905   */\n    tag_137:\n        /* \"#utility.yul\":7820:7831   */\n      0x00\n        /* \"#utility.yul\":7854:7860   */\n      dup3\n        /* \"#utility.yul\":7849:7852   */\n      dup3\n        /* \"#utility.yul\":7842:7861   */\n      mstore\n        /* \"#utility.yul\":7894:7898   */\n      0x20\n        /* \"#utility.yul\":7889:7892   */\n      dup3\n        /* \"#utility.yul\":7885:7899   */\n      add\n        /* \"#utility.yul\":7870:7899   */\n      swap1\n      pop\n        /* \"#utility.yul\":7736:7905   */\n      swap3\n      swap2\n      pop\n      pop\n      jump\t// out\n        /* \"#utility.yul\":7911:8007   */\n    tag_119:\n        /* \"#utility.yul\":7948:7955   */\n      0x00\n        /* \"#utility.yul\":7977:8001   */\n      tag_194\n        /* \"#utility.yul\":7995:8000   */\n      dup3\n        /* \"#utility.yul\":7977:8001   */\n      tag_195\n      jump\t// in\n    tag_194:\n        /* \"#utility.yul\":7966:8001   */\n      swap1\n      pop\n        /* \"#utility.yul\":7911:8007   */\n      swap2\n      swap1\n      pop\n      jump\t// out\n        /* \"#utility.yul\":8013:8158   */\n    tag_196:\n        /* \"#utility.yul\":8067:8074   */\n      0x00\n        /* \"#utility.yul\":8096:8101   */\n      dup2\n        /* \"#utility.yul\":8085:8101   */\n      swap1\n      pop\n        /* \"#utility.yul\":8102:8152   */\n      tag_198\n        /* \"#utility.yul\":8146:8151   */\n      dup3\n        /* \"#utility.yul\":8102:8152   */\n      tag_199\n      jump\t// in\n    tag_198:\n        /* \"#utility.yul\":8013:8158   */\n      swap2\n      swap1\n      pop\n      jump\t// out\n        /* \"#utility.yul\":8164:8290   */\n    tag_195:\n        /* \"#utility.yul\":8201:8208   */\n      0x00\n        /* \"#utility.yul\":8241:8283   */\n      0xffffffffffffffffffffffffffffffffffffffff\n        /* \"#utility.yul\":8234:8239   */\n      dup3\n        /* \"#utility.yul\":8230:8284   */\n      and\n        /* \"#utility.yul\":8219:8284   */\n      swap1\n      pop\n        /* \"#utility.yul\":8164:8290   */\n      swap2\n      swap1\n      pop\n      jump\t// out\n        /* \"#utility.yul\":8296:8373   */\n    tag_160:\n        /* \"#utility.yul\":8333:8340   */\n      0x00\n        /* \"#utility.yul\":8362:8367   */\n      dup2\n        /* \"#utility.yul\":8351:8367   */\n      swap1\n      pop\n        /* \"#utility.yul\":8296:8373   */\n      swap2\n      swap1\n      pop\n      jump\t// out\n        /* \"#utility.yul\":8379:8524   */\n    tag_123:\n        /* \"#utility.yul\":8448:8457   */\n      0x00\n        /* \"#utility.yul\":8481:8518   */\n      tag_203\n        /* \"#utility.yul\":8512:8517   */\n      dup3\n        /* \"#utility.yul\":8481:8518   */\n      tag_204\n      jump\t// in\n    tag_203:\n        /* \"#utility.yul\":8468:8518   */\n      swap1\n      pop\n        /* \"#utility.yul\":8379:8524   */\n      swap2\n      swap1\n      pop\n      jump\t// out\n        /* \"#utility.yul\":8530:8667   */\n    tag_127:\n        /* \"#utility.yul\":8591:8600   */\n      0x00\n        /* \"#utility.yul\":8624:8661   */\n      tag_206\n        /* \"#utility.yul\":8655:8660   */\n      dup3\n        /* \"#utility.yul\":8624:8661   */\n      tag_204\n      jump\t// in\n    tag_206:\n        /* \"#utility.yul\":8611:8661   */\n      swap1\n      pop\n        /* \"#utility.yul\":8530:8667   */\n      swap2\n      swap1\n      pop\n      jump\t// out\n        /* \"#utility.yul\":8673:8818   */\n    tag_131:\n        /* \"#utility.yul\":8738:8747   */\n      0x00\n        /* \"#utility.yul\":8771:8812   */\n      tag_208\n        /* \"#utility.yul\":8806:8811   */\n      dup3\n        /* \"#utility.yul\":8771:8812   */\n      tag_196\n      jump\t// in\n    tag_208:\n        /* \"#utility.yul\":8758:8812   */\n      swap1\n      pop\n        /* \"#utility.yul\":8673:8818   */\n      swap2\n      swap1\n      pop\n      jump\t// out\n        /* \"#utility.yul\":8824:8950   */\n    tag_204:\n        /* \"#utility.yul\":8874:8883   */\n      0x00\n        /* \"#utility.yul\":8907:8944   */\n      tag_210\n        /* \"#utility.yul\":8938:8943   */\n      dup3\n        /* \"#utility.yul\":8907:8944   */\n      tag_211\n      jump\t// in\n    tag_210:\n        /* \"#utility.yul\":8894:8944   */\n      swap1\n      pop\n        /* \"#utility.yul\":8824:8950   */\n      swap2\n      swap1\n      pop\n      jump\t// out\n        /* \"#utility.yul\":8956:9069   */\n    tag_211:\n        /* \"#utility.yul\":9006:9015   */\n      0x00\n        /* \"#utility.yul\":9039:9063   */\n      tag_213\n        /* \"#utility.yul\":9057:9062   */\n      dup3\n        /* \"#utility.yul\":9039:9063   */\n      tag_195\n      jump\t// in\n    tag_213:\n        /* \"#utility.yul\":9026:9063   */\n      swap1\n      pop\n        /* \"#utility.yul\":8956:9069   */\n      swap2\n      swap1\n      pop\n      jump\t// out\n        /* \"#utility.yul\":9075:9229   */\n    tag_92:\n        /* \"#utility.yul\":9159:9165   */\n      dup3\n        /* \"#utility.yul\":9154:9157   */\n      dup2\n        /* \"#utility.yul\":9149:9152   */\n      dup4\n        /* \"#utility.yul\":9136:9166   */\n      calldatacopy\n        /* \"#utility.yul\":9221:9222   */\n      0x00\n        /* \"#utility.yul\":9212:9218   */\n      dup4\n        /* \"#utility.yul\":9207:9210   */\n      dup4\n        /* \"#utility.yul\":9203:9219   */\n      add\n        /* \"#utility.yul\":9196:9223   */\n      mstore\n        /* \"#utility.yul\":9075:9229   */\n      pop\n      pop\n      pop\n      jump\t// out\n        /* \"#utility.yul\":9235:9542   */\n    tag_139:\n        /* \"#utility.yul\":9303:9304   */\n      0x00\n        /* \"#utility.yul\":9313:9426   */\n    tag_216:\n        /* \"#utility.yul\":9327:9333   */\n      dup4\n        /* \"#utility.yul\":9324:9325   */\n      dup2\n        /* \"#utility.yul\":9321:9334   */\n      lt\n        /* \"#utility.yul\":9313:9426   */\n      iszero\n      tag_218\n      jumpi\n        /* \"#utility.yul\":9412:9413   */\n      dup1\n        /* \"#utility.yul\":9407:9410   */\n      dup3\n        /* \"#utility.yul\":9403:9414   */\n      add\n        /* \"#utility.yul\":9397:9415   */\n      mload\n        /* \"#utility.yul\":9393:9394   */\n      dup2\n        /* \"#utility.yul\":9388:9391   */\n      dup5\n        /* \"#utility.yul\":9384:9395   */\n      add\n        /* \"#utility.yul\":9377:9416   */\n      mstore\n        /* \"#utility.yul\":9349:9351   */\n      0x20\n        /* \"#utility.yul\":9346:9347   */\n      dup2\n        /* \"#utility.yul\":9342:9352   */\n      add\n        /* \"#utility.yul\":9337:9352   */\n      swap1\n      pop\n        /* \"#utility.yul\":9313:9426   */\n      jump(tag_216)\n    tag_218:\n        /* \"#utility.yul\":9444:9450   */\n      dup4\n        /* \"#utility.yul\":9441:9442   */\n      dup2\n        /* \"#utility.yul\":9438:9451   */\n      gt\n        /* \"#utility.yul\":9435:9536   */\n      iszero\n      tag_219\n      jumpi\n        /* \"#utility.yul\":9524:9525   */\n      0x00\n        /* \"#utility.yul\":9515:9521   */\n      dup5\n        /* \"#utility.yul\":9510:9513   */\n      dup5\n        /* \"#utility.yul\":9506:9522   */\n      add\n        /* \"#utility.yul\":9499:9526   */\n      mstore\n        /* \"#utility.yul\":9435:9536   */\n    tag_219:\n        /* \"#utility.yul\":9284:9542   */\n      pop\n        /* \"#utility.yul\":9235:9542   */\n      pop\n      pop\n      pop\n      jump\t// out\n        /* \"#utility.yul\":9548:9868   */\n    tag_55:\n        /* \"#utility.yul\":9592:9598   */\n      0x00\n        /* \"#utility.yul\":9629:9630   */\n      0x02\n        /* \"#utility.yul\":9623:9627   */\n      dup3\n        /* \"#utility.yul\":9619:9631   */\n      div\n        /* \"#utility.yul\":9609:9631   */\n      swap1\n      pop\n        /* \"#utility.yul\":9676:9677   */\n      0x01\n        /* \"#utility.yul\":9670:9674   */\n      dup3\n        /* \"#utility.yul\":9666:9678   */\n      and\n        /* \"#utility.yul\":9697:9715   */\n      dup1\n        /* \"#utility.yul\":9687:9768   */\n      tag_221\n      jumpi\n        /* \"#utility.yul\":9753:9757   */\n      0x7f\n        /* \"#utility.yul\":9745:9751   */\n      dup3\n        /* \"#utility.yul\":9741:9758   */\n      and\n        /* \"#utility.yul\":9731:9758   */\n      swap2\n      pop\n        /* \"#utility.yul\":9687:9768   */\n    tag_221:\n        /* \"#utility.yul\":9815:9817   */\n      0x20\n        /* \"#utility.yul\":9807:9813   */\n      dup3\n        /* \"#utility.yul\":9804:9818   */\n      lt\n        /* \"#utility.yul\":9784:9802   */\n      dup2\n        /* \"#utility.yul\":9781:9819   */\n      eq\n        /* \"#utility.yul\":9778:9862   */\n      iszero\n      tag_222\n      jumpi\n        /* \"#utility.yul\":9834:9852   */\n      tag_223\n      tag_224\n      jump\t// in\n    tag_223:\n        /* \"#utility.yul\":9778:9862   */\n    tag_222:\n        /* \"#utility.yul\":9599:9868   */\n      pop\n        /* \"#utility.yul\":9548:9868   */\n      swap2\n      swap1\n      pop\n      jump\t// out\n        /* \"#utility.yul\":9874:10155   */\n    tag_184:\n        /* \"#utility.yul\":9957:9984   */\n      tag_226\n        /* \"#utility.yul\":9979:9983   */\n      dup3\n        /* \"#utility.yul\":9957:9984   */\n      tag_141\n      jump\t// in\n    tag_226:\n        /* \"#utility.yul\":9949:9955   */\n      dup2\n        /* \"#utility.yul\":9945:9985   */\n      add\n        /* \"#utility.yul\":10087:10093   */\n      dup2\n        /* \"#utility.yul\":10075:10085   */\n      dup2\n        /* \"#utility.yul\":10072:10094   */\n      lt\n        /* \"#utility.yul\":10051:10069   */\n      0xffffffffffffffff\n        /* \"#utility.yul\":10039:10049   */\n      dup3\n        /* \"#utility.yul\":10036:10070   */\n      gt\n        /* \"#utility.yul\":10033:10095   */\n      or\n        /* \"#utility.yul\":10030:10118   */\n      iszero\n      tag_227\n      jumpi\n        /* \"#utility.yul\":10098:10116   */\n      tag_228\n      tag_189\n      jump\t// in\n    tag_228:\n        /* \"#utility.yul\":10030:10118   */\n    tag_227:\n        /* \"#utility.yul\":10138:10148   */\n      dup1\n        /* \"#utility.yul\":10134:10136   */\n      0x40\n        /* \"#utility.yul\":10127:10149   */\n      mstore\n        /* \"#utility.yul\":9917:10155   */\n      pop\n        /* \"#utility.yul\":9874:10155   */\n      pop\n      pop\n      jump\t// out\n        /* \"#utility.yul\":10161:10394   */\n    tag_53:\n        /* \"#utility.yul\":10200:10203   */\n      0x00\n        /* \"#utility.yul\":10223:10247   */\n      tag_230\n        /* \"#utility.yul\":10241:10246   */\n      dup3\n        /* \"#utility.yul\":10223:10247   */\n      tag_160\n      jump\t// in\n    tag_230:\n        /* \"#utility.yul\":10214:10247   */\n      swap2\n      pop\n        /* \"#utility.yul\":10269:10335   */\n      0xffffffffffffffffffffffffffffffffffffffffffffffffffffffffffffffff\n        /* \"#utility.yul\":10262:10267   */\n      dup3\n        /* \"#utility.yul\":10259:10336   */\n      eq\n        /* \"#utility.yul\":10256:10359   */\n      iszero\n      tag_231\n      jumpi\n        /* \"#utility.yul\":10339:10357   */\n      tag_232\n      tag_233\n      jump\t// in\n    tag_232:\n        /* \"#utility.yul\":10256:10359   */\n    tag_231:\n        /* \"#utility.yul\":10386:10387   */\n      0x01\n        /* \"#utility.yul\":10379:10384   */\n      dup3\n        /* \"#utility.yul\":10375:10388   */\n      add\n        /* \"#utility.yul\":10368:10388   */\n      swap1\n      pop\n        /* \"#utility.yul\":10161:10394   */\n      swap2\n      swap1\n      pop\n      jump\t// out\n        /* \"#utility.yul\":10400:10580   */\n    tag_233:\n        /* \"#utility.yul\":10448:10525   */\n      0x4e487b7100000000000000000000000000000000000000000000000000000000\n        /* \"#utility.yul\":10445:10446   */\n      0x00\n        /* \"#utility.yul\":10438:10526   */\n      mstore\n        /* \"#utility.yul\":10545:10549   */\n      0x11\n        /* \"#utility.yul\":10542:10543   */\n      0x04\n        /* \"#utility.yul\":10535:10550   */\n      mstore\n        /* \"#utility.yul\":10569:10573   */\n      0x24\n        /* \"#utility.yul\":10566:10567   */\n      0x00\n        /* \"#utility.yul\":10559:10574   */\n      revert\n        /* \"#utility.yul\":10586:10766   */\n    tag_31:\n        /* \"#utility.yul\":10634:10711   */\n      0x4e487b7100000000000000000000000000000000000000000000000000000000\n        /* \"#utility.yul\":10631:10632   */\n      0x00\n        /* \"#utility.yul\":10624:10712   */\n      mstore\n        /* \"#utility.yul\":10731:10735   */\n      0x21\n        /* \"#utility.yul\":10728:10729   */\n      0x04\n        /* \"#utility.yul\":10721:10736   */\n      mstore\n        /* \"#utility.yul\":10755:10759   */\n      0x24\n        /* \"#utility.yul\":10752:10753   */\n      0x00\n        /* \"#utility.yul\":10745:10760   */\n      revert\n        /* \"#utility.yul\":10772:10952   */\n    tag_224:\n        /* \"#utility.yul\":10820:10897   */\n      0x4e487b7100000000000000000000000000000000000000000000000000000000\n        /* \"#utility.yul\":10817:10818   */\n      0x00\n        /* \"#utility.yul\":10810:10898   */\n      mstore\n        /* \"#utility.yul\":10917:10921   */\n      0x22\n        /* \"#utility.yul\":10914:10915   */\n      0x04\n        /* \"#utility.yul\":10907:10922   */\n      mstore\n        /* \"#utility.yul\":10941:10945   */\n      0x24\n        /* \"#utility.yul\":10938:10939   */\n      0x00\n        /* \"#utility.yul\":10931:10946   */\n      revert\n        /* \"#utility.yul\":10958:11138   */\n    tag_189:\n        /* \"#utility.yul\":11006:11083   */\n      0x4e487b7100000000000000000000000000000000000000000000000000000000\n        /* \"#utility.yul\":11003:11004   */\n      0x00\n        /* \"#utility.yul\":10996:11084   */\n      mstore\n        /* \"#utility.yul\":11103:11107   */\n      0x41\n        /* \"#utility.yul\":11100:11101   */\n      0x04\n        /* \"#utility.yul\":11093:11108   */\n      mstore\n        /* \"#utility.yul\":11127:11131   */\n      0x24\n        /* \"#utility.yul\":11124:11125   */\n      0x00\n        /* \"#utility.yul\":11117:11132   */\n      revert\n        /* \"#utility.yul\":11144:11261   */\n    tag_97:\n        /* \"#utility.yul\":11253:11254   */\n      0x00\n        /* \"#utility.yul\":11250:11251   */\n      dup1\n        /* \"#utility.yul\":11243:11255   */\n      revert\n        /* \"#utility.yul\":11267:11384   */\n    tag_90:\n        /* \"#utility.yul\":11376:11377   */\n      0x00\n        /* \"#utility.yul\":11373:11374   */\n      dup1\n        /* \"#utility.yul\":11366:11378   */\n      revert\n        /* \"#utility.yul\":11390:11507   */\n    tag_109:\n        /* \"#utility.yul\":11499:11500   */\n      0x00\n        /* \"#utility.yul\":11496:11497   */\n      dup1\n        /* \"#utility.yul\":11489:11501   */\n      revert\n        /* \"#utility.yul\":11513:11630   */\n    tag_106:\n        /* \"#utility.yul\":11622:11623   */\n      0x00\n        /* \"#utility.yul\":11619:11620   */\n      dup1\n        /* \"#utility.yul\":11612:11624   */\n      revert\n        /* \"#utility.yul\":11636:11738   */\n    tag_141:\n        /* \"#utility.yul\":11677:11683   */\n      0x00\n        /* \"#utility.yul\":11728:11730   */\n      0x1f\n        /* \"#utility.yul\":11724:11731   */\n      not\n        /* \"#utility.yul\":11719:11721   */\n      0x1f\n        /* \"#utility.yul\":11712:11717   */\n      dup4\n        /* \"#utility.yul\":11708:11722   */\n      add\n        /* \"#utility.yul\":11704:11732   */\n      and\n        /* \"#utility.yul\":11694:11732   */\n      swap1\n      pop\n        /* \"#utility.yul\":11636:11738   */\n      swap2\n      swap1\n      pop\n      jump\t// out\n        /* \"#utility.yul\":11744:11918   */\n    tag_146:\n        /* \"#utility.yul\":11884:11910   */\n      0x506c656173652070617920657861637420616d6f756e742e0000000000000000\n        /* \"#utility.yul\":11880:11881   */\n      0x00\n        /* \"#utility.yul\":11872:11878   */\n      dup3\n        /* \"#utility.yul\":11868:11882   */\n      add\n        /* \"#utility.yul\":11861:11911   */\n      mstore\n        /* \"#utility.yul\":11744:11918   */\n      pop\n      jump\t// out\n        /* \"#utility.yul\":11924:12154   */\n    tag_151:\n        /* \"#utility.yul\":12064:12098   */\n      0x4974656d20686173206265656e20616c7265616479207061696420666f72206f\n        /* \"#utility.yul\":12060:12061   */\n      0x00\n        /* \"#utility.yul\":12052:12058   */\n      dup3\n        /* \"#utility.yul\":12048:12062   */\n      add\n        /* \"#utility.yul\":12041:12099   */\n      mstore\n        /* \"#utility.yul\":12133:12146   */\n      0x722064656c697665726564000000000000000000000000000000000000000000\n        /* \"#utility.yul\":12128:12130   */\n      0x20\n        /* \"#utility.yul\":12120:12126   */\n      dup3\n        /* \"#utility.yul\":12116:12131   */\n      add\n        /* \"#utility.yul\":12109:12147   */\n      mstore\n        /* \"#utility.yul\":11924:12154   */\n      pop\n      jump\t// out\n        /* \"#utility.yul\":12160:12334   */\n    tag_156:\n        /* \"#utility.yul\":12300:12326   */\n      0x4974656d206177616974696e67207061796d656e742e2e2e0000000000000000\n        /* \"#utility.yul\":12296:12297   */\n      0x00\n        /* \"#utility.yul\":12288:12294   */\n      dup3\n        /* \"#utility.yul\":12284:12298   */\n      add\n        /* \"#utility.yul\":12277:12327   */\n      mstore\n        /* \"#utility.yul\":12160:12334   */\n      pop\n      jump\t// out\n        /* \"#utility.yul\":12340:12462   */\n    tag_199:\n        /* \"#utility.yul\":12430:12431   */\n      0x03\n        /* \"#utility.yul\":12423:12428   */\n      dup2\n        /* \"#utility.yul\":12420:12432   */\n      lt\n        /* \"#utility.yul\":12410:12456   */\n      tag_247\n      jumpi\n        /* \"#utility.yul\":12436:12454   */\n      tag_248\n      tag_31\n      jump\t// in\n    tag_248:\n        /* \"#utility.yul\":12410:12456   */\n    tag_247:\n        /* \"#utility.yul\":12340:12462   */\n      pop\n      jump\t// out\n        /* \"#utility.yul\":12468:12590   */\n    tag_102:\n        /* \"#utility.yul\":12541:12565   */\n      tag_250\n        /* \"#utility.yul\":12559:12564   */\n      dup2\n        /* \"#utility.yul\":12541:12565   */\n      tag_160\n      jump\t// in\n    tag_250:\n        /* \"#utility.yul\":12534:12539   */\n      dup2\n        /* \"#utility.yul\":12531:12566   */\n      eq\n        /* \"#utility.yul\":12521:12584   */\n      tag_251\n      jumpi\n        /* \"#utility.yul\":12580:12581   */\n      0x00\n        /* \"#utility.yul\":12577:12578   */\n      dup1\n        /* \"#utility.yul\":12570:12582   */\n      revert\n        /* \"#utility.yul\":12521:12584   */\n    tag_251:\n        /* \"#utility.yul\":12468:12590   */\n      pop\n      jump\t// out\n    stop\n\n    sub_0: assembly {\n            /* \"contracts/eventtrigger.sol\":60:1158  contract Item {\r... */\n          mstore(0x40, 0x80)\n            /* \"contracts/eventtrigger.sol\":207:420  constructor(ItemManager _parentContract, uint _itemPriceInWei, uint _itemIndex) public {\r... */\n          callvalue\n          dup1\n          iszero\n          tag_1\n          jumpi\n          0x00\n          dup1\n          revert\n        tag_1:\n          pop\n          mload(0x40)\n          sub(codesize, bytecodeSize)\n          dup1\n          bytecodeSize\n          dup4\n          codecopy\n          dup2\n          dup2\n          add\n          0x40\n          mstore\n          dup2\n          add\n          swap1\n          tag_2\n          swap2\n          swap1\n          tag_3\n          jump\t// in\n        tag_2:\n            /* \"contracts/eventtrigger.sol\":322:336  parentContract */\n          0x03\n          0x00\n          swap1\n          sload\n          swap1\n          0x0100\n          exp\n          swap1\n          div\n          0xffffffffffffffffffffffffffffffffffffffff\n          and\n            /* \"contracts/eventtrigger.sol\":305:319  parentContract */\n          0x03\n          0x00\n            /* \"contracts/eventtrigger.sol\":305:336  parentContract = parentContract */\n          0x0100\n          exp\n          dup2\n          sload\n          dup2\n          0xffffffffffffffffffffffffffffffffffffffff\n          mul\n          not\n          and\n          swap1\n          dup4\n          0xffffffffffffffffffffffffffffffffffffffff\n          and\n          mul\n          or\n          swap1\n          sstore\n          pop\n            /* \"contracts/eventtrigger.sol\":364:379  _itemPriceInWei */\n          dup2\n            /* \"contracts/eventtrigger.sol\":347:361  itemPriceInWei */\n          0x00\n            /* \"contracts/eventtrigger.sol\":347:379  itemPriceInWei = _itemPriceInWei */\n          dup2\n          swap1\n          sstore\n          pop\n            /* \"contracts/eventtrigger.sol\":402:412  _itemIndex */\n          dup1\n            /* \"contracts/eventtrigger.sol\":390:399  itemIndex */\n          0x02\n            /* \"contracts/eventtrigger.sol\":390:412  itemIndex = _itemIndex */\n          dup2\n          swap1\n          sstore\n          pop\n            /* \"contracts/eventtrigger.sol\":207:420  constructor(ItemManager _parentContract, uint _itemPriceInWei, uint _itemIndex) public {\r... */\n          pop\n          pop\n          pop\n            /* \"contracts/eventtrigger.sol\":60:1158  contract Item {\r... */\n          jump(tag_6)\n            /* \"#utility.yul\":7:188   */\n        tag_8:\n            /* \"#utility.yul\":83:88   */\n          0x00\n            /* \"#utility.yul\":114:120   */\n          dup2\n            /* \"#utility.yul\":108:121   */\n          mload\n            /* \"#utility.yul\":99:121   */\n          swap1\n          pop\n            /* \"#utility.yul\":130:182   */\n          tag_10\n            /* \"#utility.yul\":176:181   */\n          dup2\n            /* \"#utility.yul\":130:182   */\n          tag_11\n          jump\t// in\n        tag_10:\n            /* \"#utility.yul\":7:188   */\n          swap3\n          swap2\n          pop\n          pop\n          jump\t// out\n            /* \"#utility.yul\":194:337   */\n        tag_12:\n            /* \"#utility.yul\":251:256   */\n          0x00\n            /* \"#utility.yul\":282:288   */\n          dup2\n            /* \"#utility.yul\":276:289   */\n          mload\n            /* \"#utility.yul\":267:289   */\n          swap1\n          pop\n            /* \"#utility.yul\":298:331   */\n          tag_14\n            /* \"#utility.yul\":325:330   */\n          dup2\n            /* \"#utility.yul\":298:331   */\n          tag_15\n          jump\t// in\n        tag_14:\n            /* \"#utility.yul\":194:337   */\n          swap3\n          swap2\n          pop\n          pop\n          jump\t// out\n            /* \"#utility.yul\":343:1044   */\n        tag_3:\n            /* \"#utility.yul\":450:456   */\n          0x00\n            /* \"#utility.yul\":458:464   */\n          dup1\n            /* \"#utility.yul\":466:472   */\n          0x00\n            /* \"#utility.yul\":515:517   */\n          0x60\n            /* \"#utility.yul\":503:512   */\n          dup5\n            /* \"#utility.yul\":494:501   */\n          dup7\n            /* \"#utility.yul\":490:513   */\n          sub\n            /* \"#utility.yul\":486:518   */\n          slt\n            /* \"#utility.yul\":483:602   */\n          iszero\n          tag_17\n          jumpi\n            /* \"#utility.yul\":521:600   */\n          tag_18\n          tag_19\n          jump\t// in\n        tag_18:\n            /* \"#utility.yul\":483:602   */\n        tag_17:\n            /* \"#utility.yul\":641:642   */\n          0x00\n            /* \"#utility.yul\":666:749   */\n          tag_20\n            /* \"#utility.yul\":741:748   */\n          dup7\n            /* \"#utility.yul\":732:738   */\n          dup3\n            /* \"#utility.yul\":721:730   */\n          dup8\n            /* \"#utility.yul\":717:739   */\n          add\n            /* \"#utility.yul\":666:749   */\n          tag_8\n          jump\t// in\n        tag_20:\n            /* \"#utility.yul\":656:749   */\n          swap4\n          pop\n            /* \"#utility.yul\":612:759   */\n          pop\n            /* \"#utility.yul\":798:800   */\n          0x20\n            /* \"#utility.yul\":824:888   */\n          tag_21\n            /* \"#utility.yul\":880:887   */\n          dup7\n            /* \"#utility.yul\":871:877   */\n          dup3\n            /* \"#utility.yul\":860:869   */\n          dup8\n            /* \"#utility.yul\":856:878   */\n          add\n            /* \"#utility.yul\":824:888   */\n          tag_12\n          jump\t// in\n        tag_21:\n            /* \"#utility.yul\":814:888   */\n          swap3\n          pop\n            /* \"#utility.yul\":769:898   */\n          pop\n            /* \"#utility.yul\":937:939   */\n          0x40\n            /* \"#utility.yul\":963:1027   */\n          tag_22\n            /* \"#utility.yul\":1019:1026   */\n          dup7\n            /* \"#utility.yul\":1010:1016   */\n          dup3\n            /* \"#utility.yul\":999:1008   */\n          dup8\n            /* \"#utility.yul\":995:1017   */\n          add\n            /* \"#utility.yul\":963:1027   */\n          tag_12\n          jump\t// in\n        tag_22:\n            /* \"#utility.yul\":953:1027   */\n          swap2\n          pop\n            /* \"#utility.yul\":908:1037   */\n          pop\n            /* \"#utility.yul\":343:1044   */\n          swap3\n          pop\n          swap3\n          pop\n          swap3\n          jump\t// out\n            /* \"#utility.yul\":1131:1227   */\n        tag_25:\n            /* \"#utility.yul\":1168:1175   */\n          0x00\n            /* \"#utility.yul\":1197:1221   */\n          tag_27\n            /* \"#utility.yul\":1215:1220   */\n          dup3\n            /* \"#utility.yul\":1197:1221   */\n          tag_28\n          jump\t// in\n        tag_27:\n            /* \"#utility.yul\":1186:1221   */\n          swap1\n          pop\n            /* \"#utility.yul\":1131:1227   */\n          swap2\n          swap1\n          pop\n          jump\t// out\n            /* \"#utility.yul\":1233:1348   */\n        tag_29:\n            /* \"#utility.yul\":1289:1296   */\n          0x00\n            /* \"#utility.yul\":1318:1342   */\n          tag_31\n            /* \"#utility.yul\":1336:1341   */\n          dup3\n            /* \"#utility.yul\":1318:1342   */\n          tag_25\n          jump\t// in\n        tag_31:\n            /* \"#utility.yul\":1307:1342   */\n          swap1\n          pop\n            /* \"#utility.yul\":1233:1348   */\n          swap2\n          swap1\n          pop\n          jump\t// out\n            /* \"#utility.yul\":1354:1480   */\n        tag_28:\n            /* \"#utility.yul\":1391:1398   */\n          0x00\n            /* \"#utility.yul\":1431:1473   */\n          0xffffffffffffffffffffffffffffffffffffffff\n            /* \"#utility.yul\":1424:1429   */\n          dup3\n            /* \"#utility.yul\":1420:1474   */\n          and\n            /* \"#utility.yul\":1409:1474   */\n          swap1\n          pop\n            /* \"#utility.yul\":1354:1480   */\n          swap2\n          swap1\n          pop\n          jump\t// out\n            /* \"#utility.yul\":1486:1563   */\n        tag_33:\n            /* \"#utility.yul\":1523:1530   */\n          0x00\n            /* \"#utility.yul\":1552:1557   */\n          dup2\n            /* \"#utility.yul\":1541:1557   */\n          swap1\n          pop\n            /* \"#utility.yul\":1486:1563   */\n          swap2\n          swap1\n          pop\n          jump\t// out\n            /* \"#utility.yul\":1692:1809   */\n        tag_19:\n            /* \"#utility.yul\":1801:1802   */\n          0x00\n            /* \"#utility.yul\":1798:1799   */\n          dup1\n            /* \"#utility.yul\":1791:1803   */\n          revert\n            /* \"#utility.yul\":1815:1975   */\n        tag_11:\n            /* \"#utility.yul\":1907:1950   */\n          tag_39\n            /* \"#utility.yul\":1944:1949   */\n          dup2\n            /* \"#utility.yul\":1907:1950   */\n          tag_29\n          jump\t// in\n        tag_39:\n            /* \"#utility.yul\":1900:1905   */\n          dup2\n            /* \"#utility.yul\":1897:1951   */\n          eq\n            /* \"#utility.yul\":1887:1969   */\n          tag_40\n          jumpi\n            /* \"#utility.yul\":1965:1966   */\n          0x00\n            /* \"#utility.yul\":1962:1963   */\n          dup1\n            /* \"#utility.yul\":1955:1967   */\n          revert\n            /* \"#utility.yul\":1887:1969   */\n        tag_40:\n            /* \"#utility.yul\":1815:1975   */\n          pop\n          jump\t// out\n            /* \"#utility.yul\":1981:2103   */\n        tag_15:\n            /* \"#utility.yul\":2054:2078   */\n          tag_42\n            /* \"#utility.yul\":2072:2077   */\n          dup2\n            /* \"#utility.yul\":2054:2078   */\n          tag_33\n          jump\t// in\n        tag_42:\n            /* \"#utility.yul\":2047:2052   */\n          dup2\n            /* \"#utility.yul\":2044:2079   */\n          eq\n            /* \"#utility.yul\":2034:2097   */\n          tag_43\n          jumpi\n            /* \"#utility.yul\":2093:2094   */\n          0x00\n            /* \"#utility.yul\":2090:2091   */\n          dup1\n            /* \"#utility.yul\":2083:2095   */\n          revert\n            /* \"#utility.yul\":2034:2097   */\n        tag_43:\n            /* \"#utility.yul\":1981:2103   */\n          pop\n          jump\t// out\n            /* \"contracts/eventtrigger.sol\":60:1158  contract Item {\r... */\n        tag_6:\n          dataSize(sub_0)\n          dup1\n          dataOffset(sub_0)\n          0x00\n          codecopy\n          0x00\n          return\n        stop\n\n        sub_0: assembly {\n                /* \"contracts/eventtrigger.sol\":60:1158  contract Item {\r... */\n              mstore(0x40, 0x80)\n              jumpi(tag_1, lt(calldatasize, 0x04))\n              shr(0xe0, calldataload(0x00))\n              dup1\n              0x0c11dedd\n              eq\n              tag_2\n              jumpi\n              dup1\n              0x767800de\n              eq\n              tag_3\n              jumpi\n              dup1\n              0x89794d00\n              eq\n              tag_4\n              jumpi\n              dup1\n              0xc784a6e6\n              eq\n              tag_5\n              jumpi\n              dup1\n              0xe07bb1a7\n              eq\n              tag_6\n              jumpi\n            tag_1:\n              0x00\n              dup1\n              revert\n                /* \"contracts/eventtrigger.sol\":501:1114  function pay (ItemManager _parentContract) external payable {\r... */\n            tag_2:\n              tag_7\n              0x04\n              dup1\n              calldatasize\n              sub\n              dup2\n              add\n              swap1\n              tag_8\n              swap2\n              swap1\n              tag_9\n              jump\t// in\n            tag_8:\n              tag_10\n              jump\t// in\n            tag_7:\n              stop\n                /* \"contracts/eventtrigger.sol\":428:493  function addr () public view returns (address) {\r... */\n            tag_3:\n              callvalue\n              dup1\n              iszero\n              tag_11\n              jumpi\n              0x00\n              dup1\n              revert\n            tag_11:\n              pop\n              tag_12\n              tag_13\n              jump\t// in\n            tag_12:\n              mload(0x40)\n              tag_14\n              swap2\n              swap1\n              tag_15\n              jump\t// in\n            tag_14:\n              mload(0x40)\n              dup1\n              swap2\n              sub\n              swap1\n              return\n                /* \"contracts/eventtrigger.sol\":114:135  uint public pricePaid */\n            tag_4:\n              callvalue\n              dup1\n              iszero\n              tag_16\n              jumpi\n              0x00\n              dup1\n              revert\n            tag_16:\n              pop\n              tag_17\n              tag_18\n              jump\t// in\n            tag_17:\n              mload(0x40)\n              tag_19\n              swap2\n              swap1\n              tag_20\n              jump\t// in\n            tag_19:\n              mload(0x40)\n              dup1\n              swap2\n              sub\n              swap1\n              return\n                /* \"contracts/eventtrigger.sol\":81:107  uint public itemPriceInWei */\n            tag_5:\n              callvalue\n              dup1\n              iszero\n              tag_21\n              jumpi\n              0x00\n              dup1\n              revert\n            tag_21:\n              pop\n              tag_22\n              tag_23\n              jump\t// in\n            tag_22:\n              mload(0x40)\n              tag_24\n              swap2\n              swap1\n              tag_20\n              jump\t// in\n            tag_24:\n              mload(0x40)\n              dup1\n              swap2\n              sub\n              swap1\n              return\n                /* \"contracts/eventtrigger.sol\":142:163  uint public itemIndex */\n            tag_6:\n              callvalue\n              dup1\n              iszero\n              tag_25\n              jumpi\n              0x00\n              dup1\n              revert\n            tag_25:\n              pop\n              tag_26\n              tag_27\n              jump\t// in\n            tag_26:\n              mload(0x40)\n              tag_28\n              swap2\n              swap1\n              tag_20\n              jump\t// in\n            tag_28:\n              mload(0x40)\n              dup1\n              swap2\n              sub\n              swap1\n              return\n                /* \"contracts/eventtrigger.sol\":501:1114  function pay (ItemManager _parentContract) external payable {\r... */\n            tag_10:\n                /* \"contracts/eventtrigger.sol\":594:595  0 */\n              0x00\n                /* \"contracts/eventtrigger.sol\":581:590  pricePaid */\n              sload(0x01)\n                /* \"contracts/eventtrigger.sol\":581:595  pricePaid == 0 */\n              eq\n                /* \"contracts/eventtrigger.sol\":572:625  require (pricePaid == 0, \"Item is paid for already.\") */\n              tag_30\n              jumpi\n              mload(0x40)\n              0x08c379a000000000000000000000000000000000000000000000000000000000\n              dup2\n              mstore\n              0x04\n              add\n              tag_31\n              swap1\n              tag_32\n              jump\t// in\n            tag_31:\n              mload(0x40)\n              dup1\n              swap2\n              sub\n              swap1\n              revert\n            tag_30:\n                /* \"contracts/eventtrigger.sol\":663:672  msg.value */\n              callvalue\n                /* \"contracts/eventtrigger.sol\":645:659  itemPriceInWei */\n              sload(0x00)\n                /* \"contracts/eventtrigger.sol\":645:672  itemPriceInWei == msg.value */\n              eq\n                /* \"contracts/eventtrigger.sol\":636:701  require (itemPriceInWei == msg.value, \"Please pay exact amount.\") */\n              tag_33\n              jumpi\n              mload(0x40)\n              0x08c379a000000000000000000000000000000000000000000000000000000000\n              dup2\n              mstore\n              0x04\n              add\n              tag_34\n              swap1\n              tag_35\n              jump\t// in\n            tag_34:\n              mload(0x40)\n              dup1\n              swap2\n              sub\n              swap1\n              revert\n            tag_33:\n                /* \"contracts/eventtrigger.sol\":725:734  msg.value */\n              callvalue\n                /* \"contracts/eventtrigger.sol\":712:721  pricePaid */\n              0x01\n              0x00\n                /* \"contracts/eventtrigger.sol\":712:734  pricePaid += msg.value */\n              dup3\n              dup3\n              sload\n              tag_36\n              swap2\n              swap1\n              tag_37\n              jump\t// in\n            tag_36:\n              swap3\n              pop\n              pop\n              dup2\n              swap1\n              sstore\n              pop\n                /* \"contracts/eventtrigger.sol\":808:823  _parentContract */\n              dup1\n                /* \"contracts/eventtrigger.sol\":808:838  _parentContract.triggerPayment */\n              0xffffffffffffffffffffffffffffffffffffffff\n              and\n              0x800fb83f\n                /* \"contracts/eventtrigger.sol\":847:856  msg.value */\n              callvalue\n                /* \"contracts/eventtrigger.sol\":858:867  itemIndex */\n              sload(0x02)\n                /* \"contracts/eventtrigger.sol\":808:868  _parentContract.triggerPayment{value : msg.value}(itemIndex) */\n              mload(0x40)\n              dup4\n              0xffffffff\n              and\n              0xe0\n              shl\n              dup2\n              mstore\n              0x04\n              add\n              tag_38\n              swap2\n              swap1\n              tag_20\n              jump\t// in\n            tag_38:\n              0x00\n              mload(0x40)\n              dup1\n              dup4\n              sub\n              dup2\n              dup6\n              dup9\n              dup1\n              extcodesize\n              iszero\n              dup1\n              iszero\n              tag_39\n              jumpi\n              0x00\n              dup1\n              revert\n            tag_39:\n              pop\n              gas\n              call\n              iszero\n              dup1\n              iszero\n              tag_41\n              jumpi\n              returndatasize\n              0x00\n              dup1\n              returndatacopy\n              revert(0x00, returndatasize)\n            tag_41:\n              pop\n              pop\n              pop\n              pop\n              pop\n                /* \"contracts/eventtrigger.sol\":501:1114  function pay (ItemManager _parentContract) external payable {\r... */\n              pop\n              jump\t// out\n                /* \"contracts/eventtrigger.sol\":428:493  function addr () public view returns (address) {\r... */\n            tag_13:\n                /* \"contracts/eventtrigger.sol\":466:473  address */\n              0x00\n                /* \"contracts/eventtrigger.sol\":428:493  function addr () public view returns (address) {\r... */\n              swap1\n              jump\t// out\n                /* \"contracts/eventtrigger.sol\":114:135  uint public pricePaid */\n            tag_18:\n              sload(0x01)\n              dup2\n              jump\t// out\n                /* \"contracts/eventtrigger.sol\":81:107  uint public itemPriceInWei */\n            tag_23:\n              sload(0x00)\n              dup2\n              jump\t// out\n                /* \"contracts/eventtrigger.sol\":142:163  uint public itemIndex */\n            tag_27:\n              sload(0x02)\n              dup2\n              jump\t// out\n                /* \"#utility.yul\":7:184   */\n            tag_44:\n                /* \"#utility.yul\":72:77   */\n              0x00\n                /* \"#utility.yul\":110:116   */\n              dup2\n                /* \"#utility.yul\":97:117   */\n              calldataload\n                /* \"#utility.yul\":88:117   */\n              swap1\n              pop\n                /* \"#utility.yul\":126:178   */\n              tag_46\n                /* \"#utility.yul\":172:177   */\n              dup2\n                /* \"#utility.yul\":126:178   */\n              tag_47\n              jump\t// in\n            tag_46:\n                /* \"#utility.yul\":7:184   */\n              swap3\n              swap2\n              pop\n              pop\n              jump\t// out\n                /* \"#utility.yul\":190:557   */\n            tag_9:\n                /* \"#utility.yul\":268:274   */\n              0x00\n                /* \"#utility.yul\":317:319   */\n              0x20\n                /* \"#utility.yul\":305:314   */\n              dup3\n                /* \"#utility.yul\":296:303   */\n              dup5\n                /* \"#utility.yul\":292:315   */\n              sub\n                /* \"#utility.yul\":288:320   */\n              slt\n                /* \"#utility.yul\":285:404   */\n              iszero\n              tag_49\n              jumpi\n                /* \"#utility.yul\":323:402   */\n              tag_50\n              tag_51\n              jump\t// in\n            tag_50:\n                /* \"#utility.yul\":285:404   */\n            tag_49:\n                /* \"#utility.yul\":443:444   */\n              0x00\n                /* \"#utility.yul\":468:540   */\n              tag_52\n                /* \"#utility.yul\":532:539   */\n              dup5\n                /* \"#utility.yul\":523:529   */\n              dup3\n                /* \"#utility.yul\":512:521   */\n              dup6\n                /* \"#utility.yul\":508:530   */\n              add\n                /* \"#utility.yul\":468:540   */\n              tag_44\n              jump\t// in\n            tag_52:\n                /* \"#utility.yul\":458:540   */\n              swap2\n              pop\n                /* \"#utility.yul\":414:550   */\n              pop\n                /* \"#utility.yul\":190:557   */\n              swap3\n              swap2\n              pop\n              pop\n              jump\t// out\n                /* \"#utility.yul\":563:681   */\n            tag_53:\n                /* \"#utility.yul\":650:674   */\n              tag_55\n                /* \"#utility.yul\":668:673   */\n              dup2\n                /* \"#utility.yul\":650:674   */\n              tag_56\n              jump\t// in\n            tag_55:\n                /* \"#utility.yul\":645:648   */\n              dup3\n                /* \"#utility.yul\":638:675   */\n              mstore\n                /* \"#utility.yul\":563:681   */\n              pop\n              pop\n              jump\t// out\n                /* \"#utility.yul\":687:1053   */\n            tag_57:\n                /* \"#utility.yul\":829:832   */\n              0x00\n                /* \"#utility.yul\":850:917   */\n              tag_59\n                /* \"#utility.yul\":914:916   */\n              0x19\n                /* \"#utility.yul\":909:912   */\n              dup4\n                /* \"#utility.yul\":850:917   */\n              tag_60\n              jump\t// in\n            tag_59:\n                /* \"#utility.yul\":843:917   */\n              swap2\n              pop\n                /* \"#utility.yul\":926:1019   */\n              tag_61\n                /* \"#utility.yul\":1015:1018   */\n              dup3\n                /* \"#utility.yul\":926:1019   */\n              tag_62\n              jump\t// in\n            tag_61:\n                /* \"#utility.yul\":1044:1046   */\n              0x20\n                /* \"#utility.yul\":1039:1042   */\n              dup3\n                /* \"#utility.yul\":1035:1047   */\n              add\n                /* \"#utility.yul\":1028:1047   */\n              swap1\n              pop\n                /* \"#utility.yul\":687:1053   */\n              swap2\n              swap1\n              pop\n              jump\t// out\n                /* \"#utility.yul\":1059:1425   */\n            tag_63:\n                /* \"#utility.yul\":1201:1204   */\n              0x00\n                /* \"#utility.yul\":1222:1289   */\n              tag_65\n                /* \"#utility.yul\":1286:1288   */\n              0x18\n                /* \"#utility.yul\":1281:1284   */\n              dup4\n                /* \"#utility.yul\":1222:1289   */\n              tag_60\n              jump\t// in\n            tag_65:\n                /* \"#utility.yul\":1215:1289   */\n              swap2\n              pop\n                /* \"#utility.yul\":1298:1391   */\n              tag_66\n                /* \"#utility.yul\":1387:1390   */\n              dup3\n                /* \"#utility.yul\":1298:1391   */\n              tag_67\n              jump\t// in\n            tag_66:\n                /* \"#utility.yul\":1416:1418   */\n              0x20\n                /* \"#utility.yul\":1411:1414   */\n              dup3\n                /* \"#utility.yul\":1407:1419   */\n              add\n                /* \"#utility.yul\":1400:1419   */\n              swap1\n              pop\n                /* \"#utility.yul\":1059:1425   */\n              swap2\n              swap1\n              pop\n              jump\t// out\n                /* \"#utility.yul\":1431:1549   */\n            tag_68:\n                /* \"#utility.yul\":1518:1542   */\n              tag_70\n                /* \"#utility.yul\":1536:1541   */\n              dup2\n                /* \"#utility.yul\":1518:1542   */\n              tag_71\n              jump\t// in\n            tag_70:\n                /* \"#utility.yul\":1513:1516   */\n              dup3\n                /* \"#utility.yul\":1506:1543   */\n              mstore\n                /* \"#utility.yul\":1431:1549   */\n              pop\n              pop\n              jump\t// out\n                /* \"#utility.yul\":1555:1777   */\n            tag_15:\n                /* \"#utility.yul\":1648:1652   */\n              0x00\n                /* \"#utility.yul\":1686:1688   */\n              0x20\n                /* \"#utility.yul\":1675:1684   */\n              dup3\n                /* \"#utility.yul\":1671:1689   */\n              add\n                /* \"#utility.yul\":1663:1689   */\n              swap1\n              pop\n                /* \"#utility.yul\":1699:1770   */\n              tag_73\n                /* \"#utility.yul\":1767:1768   */\n              0x00\n                /* \"#utility.yul\":1756:1765   */\n              dup4\n                /* \"#utility.yul\":1752:1769   */\n              add\n                /* \"#utility.yul\":1743:1749   */\n              dup5\n                /* \"#utility.yul\":1699:1770   */\n              tag_53\n              jump\t// in\n            tag_73:\n                /* \"#utility.yul\":1555:1777   */\n              swap3\n              swap2\n              pop\n              pop\n              jump\t// out\n                /* \"#utility.yul\":1783:2202   */\n            tag_32:\n                /* \"#utility.yul\":1949:1953   */\n              0x00\n                /* \"#utility.yul\":1987:1989   */\n              0x20\n                /* \"#utility.yul\":1976:1985   */\n              dup3\n                /* \"#utility.yul\":1972:1990   */\n              add\n                /* \"#utility.yul\":1964:1990   */\n              swap1\n              pop\n                /* \"#utility.yul\":2036:2045   */\n              dup2\n                /* \"#utility.yul\":2030:2034   */\n              dup2\n                /* \"#utility.yul\":2026:2046   */\n              sub\n                /* \"#utility.yul\":2022:2023   */\n              0x00\n                /* \"#utility.yul\":2011:2020   */\n              dup4\n                /* \"#utility.yul\":2007:2024   */\n              add\n                /* \"#utility.yul\":2000:2047   */\n              mstore\n                /* \"#utility.yul\":2064:2195   */\n              tag_75\n                /* \"#utility.yul\":2190:2194   */\n              dup2\n                /* \"#utility.yul\":2064:2195   */\n              tag_57\n              jump\t// in\n            tag_75:\n                /* \"#utility.yul\":2056:2195   */\n              swap1\n              pop\n                /* \"#utility.yul\":1783:2202   */\n              swap2\n              swap1\n              pop\n              jump\t// out\n                /* \"#utility.yul\":2208:2627   */\n            tag_35:\n                /* \"#utility.yul\":2374:2378   */\n              0x00\n                /* \"#utility.yul\":2412:2414   */\n              0x20\n                /* \"#utility.yul\":2401:2410   */\n              dup3\n                /* \"#utility.yul\":2397:2415   */\n              add\n                /* \"#utility.yul\":2389:2415   */\n              swap1\n              pop\n                /* \"#utility.yul\":2461:2470   */\n              dup2\n                /* \"#utility.yul\":2455:2459   */\n              dup2\n                /* \"#utility.yul\":2451:2471   */\n              sub\n                /* \"#utility.yul\":2447:2448   */\n              0x00\n                /* \"#utility.yul\":2436:2445   */\n              dup4\n                /* \"#utility.yul\":2432:2449   */\n              add\n                /* \"#utility.yul\":2425:2472   */\n              mstore\n                /* \"#utility.yul\":2489:2620   */\n              tag_77\n                /* \"#utility.yul\":2615:2619   */\n              dup2\n                /* \"#utility.yul\":2489:2620   */\n              tag_63\n              jump\t// in\n            tag_77:\n                /* \"#utility.yul\":2481:2620   */\n              swap1\n              pop\n                /* \"#utility.yul\":2208:2627   */\n              swap2\n              swap1\n              pop\n              jump\t// out\n                /* \"#utility.yul\":2633:2855   */\n            tag_20:\n                /* \"#utility.yul\":2726:2730   */\n              0x00\n                /* \"#utility.yul\":2764:2766   */\n              0x20\n                /* \"#utility.yul\":2753:2762   */\n              dup3\n                /* \"#utility.yul\":2749:2767   */\n              add\n                /* \"#utility.yul\":2741:2767   */\n              swap1\n              pop\n                /* \"#utility.yul\":2777:2848   */\n              tag_79\n                /* \"#utility.yul\":2845:2846   */\n              0x00\n                /* \"#utility.yul\":2834:2843   */\n              dup4\n                /* \"#utility.yul\":2830:2847   */\n              add\n                /* \"#utility.yul\":2821:2827   */\n              dup5\n                /* \"#utility.yul\":2777:2848   */\n              tag_68\n              jump\t// in\n            tag_79:\n                /* \"#utility.yul\":2633:2855   */\n              swap3\n              swap2\n              pop\n              pop\n              jump\t// out\n                /* \"#utility.yul\":2942:3111   */\n            tag_60:\n                /* \"#utility.yul\":3026:3037   */\n              0x00\n                /* \"#utility.yul\":3060:3066   */\n              dup3\n                /* \"#utility.yul\":3055:3058   */\n              dup3\n                /* \"#utility.yul\":3048:3067   */\n              mstore\n                /* \"#utility.yul\":3100:3104   */\n              0x20\n                /* \"#utility.yul\":3095:3098   */\n              dup3\n                /* \"#utility.yul\":3091:3105   */\n              add\n                /* \"#utility.yul\":3076:3105   */\n              swap1\n              pop\n                /* \"#utility.yul\":2942:3111   */\n              swap3\n              swap2\n              pop\n              pop\n              jump\t// out\n                /* \"#utility.yul\":3117:3422   */\n            tag_37:\n                /* \"#utility.yul\":3157:3160   */\n              0x00\n                /* \"#utility.yul\":3176:3196   */\n              tag_84\n                /* \"#utility.yul\":3194:3195   */\n              dup3\n                /* \"#utility.yul\":3176:3196   */\n              tag_71\n              jump\t// in\n            tag_84:\n                /* \"#utility.yul\":3171:3196   */\n              swap2\n              pop\n                /* \"#utility.yul\":3210:3230   */\n              tag_85\n                /* \"#utility.yul\":3228:3229   */\n              dup4\n                /* \"#utility.yul\":3210:3230   */\n              tag_71\n              jump\t// in\n            tag_85:\n                /* \"#utility.yul\":3205:3230   */\n              swap3\n              pop\n                /* \"#utility.yul\":3364:3365   */\n              dup3\n                /* \"#utility.yul\":3296:3362   */\n              0xffffffffffffffffffffffffffffffffffffffffffffffffffffffffffffffff\n                /* \"#utility.yul\":3292:3366   */\n              sub\n                /* \"#utility.yul\":3289:3290   */\n              dup3\n                /* \"#utility.yul\":3286:3367   */\n              gt\n                /* \"#utility.yul\":3283:3390   */\n              iszero\n              tag_86\n              jumpi\n                /* \"#utility.yul\":3370:3388   */\n              tag_87\n              tag_88\n              jump\t// in\n            tag_87:\n                /* \"#utility.yul\":3283:3390   */\n            tag_86:\n                /* \"#utility.yul\":3414:3415   */\n              dup3\n                /* \"#utility.yul\":3411:3412   */\n              dup3\n                /* \"#utility.yul\":3407:3416   */\n              add\n                /* \"#utility.yul\":3400:3416   */\n              swap1\n              pop\n                /* \"#utility.yul\":3117:3422   */\n              swap3\n              swap2\n              pop\n              pop\n              jump\t// out\n                /* \"#utility.yul\":3428:3524   */\n            tag_56:\n                /* \"#utility.yul\":3465:3472   */\n              0x00\n                /* \"#utility.yul\":3494:3518   */\n              tag_90\n                /* \"#utility.yul\":3512:3517   */\n              dup3\n                /* \"#utility.yul\":3494:3518   */\n              tag_91\n              jump\t// in\n            tag_90:\n                /* \"#utility.yul\":3483:3518   */\n              swap1\n              pop\n                /* \"#utility.yul\":3428:3524   */\n              swap2\n              swap1\n              pop\n              jump\t// out\n                /* \"#utility.yul\":3530:3645   */\n            tag_92:\n                /* \"#utility.yul\":3586:3593   */\n              0x00\n                /* \"#utility.yul\":3615:3639   */\n              tag_94\n                /* \"#utility.yul\":3633:3638   */\n              dup3\n                /* \"#utility.yul\":3615:3639   */\n              tag_56\n              jump\t// in\n            tag_94:\n                /* \"#utility.yul\":3604:3639   */\n              swap1\n              pop\n                /* \"#utility.yul\":3530:3645   */\n              swap2\n              swap1\n              pop\n              jump\t// out\n                /* \"#utility.yul\":3651:3777   */\n            tag_91:\n                /* \"#utility.yul\":3688:3695   */\n              0x00\n                /* \"#utility.yul\":3728:3770   */\n              0xffffffffffffffffffffffffffffffffffffffff\n                /* \"#utility.yul\":3721:3726   */\n              dup3\n                /* \"#utility.yul\":3717:3771   */\n              and\n                /* \"#utility.yul\":3706:3771   */\n              swap1\n              pop\n                /* \"#utility.yul\":3651:3777   */\n              swap2\n              swap1\n              pop\n              jump\t// out\n                /* \"#utility.yul\":3783:3860   */\n            tag_71:\n                /* \"#utility.yul\":3820:3827   */\n              0x00\n                /* \"#utility.yul\":3849:3854   */\n              dup2\n                /* \"#utility.yul\":3838:3854   */\n              swap1\n              pop\n                /* \"#utility.yul\":3783:3860   */\n              swap2\n              swap1\n              pop\n              jump\t// out\n                /* \"#utility.yul\":3866:4046   */\n            tag_88:\n                /* \"#utility.yul\":3914:3991   */\n              0x4e487b7100000000000000000000000000000000000000000000000000000000\n                /* \"#utility.yul\":3911:3912   */\n              0x00\n                /* \"#utility.yul\":3904:3992   */\n              mstore\n                /* \"#utility.yul\":4011:4015   */\n              0x11\n                /* \"#utility.yul\":4008:4009   */\n              0x04\n                /* \"#utility.yul\":4001:4016   */\n              mstore\n                /* \"#utility.yul\":4035:4039   */\n              0x24\n                /* \"#utility.yul\":4032:4033   */\n              0x00\n                /* \"#utility.yul\":4025:4040   */\n              revert\n                /* \"#utility.yul\":4175:4292   */\n            tag_51:\n                /* \"#utility.yul\":4284:4285   */\n              0x00\n                /* \"#utility.yul\":4281:4282   */\n              dup1\n                /* \"#utility.yul\":4274:4286   */\n              revert\n                /* \"#utility.yul\":4298:4473   */\n            tag_62:\n                /* \"#utility.yul\":4438:4465   */\n              0x4974656d206973207061696420666f7220616c72656164792e00000000000000\n                /* \"#utility.yul\":4434:4435   */\n              0x00\n                /* \"#utility.yul\":4426:4432   */\n              dup3\n                /* \"#utility.yul\":4422:4436   */\n              add\n                /* \"#utility.yul\":4415:4466   */\n              mstore\n                /* \"#utility.yul\":4298:4473   */\n              pop\n              jump\t// out\n                /* \"#utility.yul\":4479:4653   */\n            tag_67:\n                /* \"#utility.yul\":4619:4645   */\n              0x506c656173652070617920657861637420616d6f756e742e0000000000000000\n                /* \"#utility.yul\":4615:4616   */\n              0x00\n                /* \"#utility.yul\":4607:4613   */\n              dup3\n                /* \"#utility.yul\":4603:4617   */\n              add\n                /* \"#utility.yul\":4596:4646   */\n              mstore\n                /* \"#utility.yul\":4479:4653   */\n              pop\n              jump\t// out\n                /* \"#utility.yul\":4659:4819   */\n            tag_47:\n                /* \"#utility.yul\":4751:4794   */\n              tag_104\n                /* \"#utility.yul\":4788:4793   */\n              dup2\n                /* \"#utility.yul\":4751:4794   */\n              tag_92\n              jump\t// in\n            tag_104:\n                /* \"#utility.yul\":4744:4749   */\n              dup2\n                /* \"#utility.yul\":4741:4795   */\n              eq\n                /* \"#utility.yul\":4731:4813   */\n              tag_105\n              jumpi\n                /* \"#utility.yul\":4809:4810   */\n              0x00\n                /* \"#utility.yul\":4806:4807   */\n              dup1\n                /* \"#utility.yul\":4799:4811   */\n              revert\n                /* \"#utility.yul\":4731:4813   */\n            tag_105:\n                /* \"#utility.yul\":4659:4819   */\n              pop\n              jump\t// out\n\n            auxdata: 0xa264697066735822122048974ec352cb460ea44edf60f9b24455bfe7b16b9206d1e655b12410c44b229464736f6c63430008070033\n        }\n    }\n\n    auxdata: 0xa2646970667358221220ad1ff89b0514455cabf2ed477efddd40e6fc403bab953723beb97c08a88329f364736f6c63430008070033\n}\n",
				"bytecode": {
					"linkReferences": {},
					"object": "608060405234801561001057600080fd5b506115b4806100206000396000f3fe608060405260043610620000445760003560e01c8063800fb83f14620000495780638c5517421462000069578063bfb231d21462000097578063cd31831e14620000de575b600080fd5b6200006760048036038101906200006191906200088c565b6200010c565b005b3480156200007657600080fd5b506200009560048036038101906200008f919062000826565b620002d2565b005b348015620000a457600080fd5b50620000c36004803603810190620000bd91906200088c565b6200047a565b604051620000d5949392919062000a06565b60405180910390f35b348015620000eb57600080fd5b506200010a60048036038101906200010491906200088c565b62000567565b005b34600080838152602001908152602001600020600201541462000166576040517f08c379a00000000000000000000000000000000000000000000000000000000081526004016200015d9062000a5a565b60405180910390fd5b600060028111156200017d576200017c62000d5d565b5b60008083815260200190815260200160002060030160009054906101000a900460ff166002811115620001b557620001b462000d5d565b5b14620001f8576040517f08c379a0000000000000000000000000000000000000000000000000000000008152600401620001ef9062000a7c565b60405180910390fd5b600160008083815260200190815260200160002060030160006101000a81548160ff0219169083600281111562000234576200023362000d5d565b5b02179055507ff24ddcf634b84b7fbfb91b2713d1db50cdf1ac5bcd00d6351384ee26bc1a94bd8160008084815260200190815260200160002060030160009054906101000a900460ff16600080600154815260200190815260200160002060000160009054906101000a900473ffffffffffffffffffffffffffffffffffffffff16604051620002c79392919062000ac0565b60405180910390a150565b60003082600154604051620002e790620006d3565b620002f593929190620009c9565b604051809103906000f08015801562000312573d6000803e3d6000fd5b50905080600080600154815260200190815260200160002060000160006101000a81548173ffffffffffffffffffffffffffffffffffffffff021916908373ffffffffffffffffffffffffffffffffffffffff160217905550826000806001548152602001908152602001600020600101908051906020019062000398929190620006e1565b50816000806001548152602001908152602001600020600201819055506000806000600154815260200190815260200160002060030160006101000a81548160ff02191690836002811115620003f357620003f262000d5d565b5b02179055507ff24ddcf634b84b7fbfb91b2713d1db50cdf1ac5bcd00d6351384ee26bc1a94bd600154600080600154815260200190815260200160002060030160009054906101000a900460ff1683604051620004539392919062000ac0565b60405180910390a160016000815480929190620004709062000ce0565b9190505550505050565b60006020528060005260406000206000915090508060000160009054906101000a900473ffffffffffffffffffffffffffffffffffffffff1690806001018054620004c59062000c74565b80601f0160208091040260200160405190810160405280929190818152602001828054620004f39062000c74565b8015620005445780601f10620005185761010080835404028352916020019162000544565b820191906000526020600020905b8154815290600101906020018083116200052657829003601f168201915b5050505050908060020154908060030160009054906101000a900460ff16905084565b600160028111156200057e576200057d62000d5d565b5b60008083815260200190815260200160002060030160009054906101000a900460ff166002811115620005b657620005b562000d5d565b5b14620005f9576040517f08c379a0000000000000000000000000000000000000000000000000000000008152600401620005f09062000a9e565b60405180910390fd5b600260008083815260200190815260200160002060030160006101000a81548160ff0219169083600281111562000635576200063462000d5d565b5b02179055507ff24ddcf634b84b7fbfb91b2713d1db50cdf1ac5bcd00d6351384ee26bc1a94bd8160008084815260200190815260200160002060030160009054906101000a900460ff16600080600154815260200190815260200160002060000160009054906101000a900473ffffffffffffffffffffffffffffffffffffffff16604051620006c89392919062000ac0565b60405180910390a150565b61069d8062000ee283390190565b828054620006ef9062000c74565b90600052602060002090601f0160209004810192826200071357600085556200075f565b82601f106200072e57805160ff19168380011785556200075f565b828001600101855582156200075f579182015b828111156200075e57825182559160200191906001019062000741565b5b5090506200076e919062000772565b5090565b5b808211156200078d57600081600090555060010162000773565b5090565b6000620007a8620007a28462000b26565b62000afd565b905082815260208101848484011115620007c757620007c662000def565b5b620007d484828562000c2f565b509392505050565b600082601f830112620007f457620007f362000dea565b5b81356200080684826020860162000791565b91505092915050565b600081359050620008208162000ec7565b92915050565b6000806040838503121562000840576200083f62000df9565b5b600083013567ffffffffffffffff81111562000861576200086062000df4565b5b6200086f85828601620007dc565b925050602062000882858286016200080f565b9150509250929050565b600060208284031215620008a557620008a462000df9565b5b6000620008b5848285016200080f565b91505092915050565b620008c98162000b78565b82525050565b620008da8162000bcb565b82525050565b620008eb8162000bdf565b82525050565b620008fc8162000bf3565b82525050565b60006200090f8262000b5c565b6200091b818562000b67565b93506200092d81856020860162000c3e565b620009388162000dfe565b840191505092915050565b60006200095260188362000b67565b91506200095f8262000e0f565b602082019050919050565b600062000979602b8362000b67565b9150620009868262000e38565b604082019050919050565b6000620009a060188362000b67565b9150620009ad8262000e87565b602082019050919050565b620009c38162000bc1565b82525050565b6000606082019050620009e06000830186620008cf565b620009ef6020830185620009b8565b620009fe6040830184620009b8565b949350505050565b600060808201905062000a1d6000830187620008e0565b818103602083015262000a31818662000902565b905062000a426040830185620009b8565b62000a516060830184620008f1565b95945050505050565b6000602082019050818103600083015262000a758162000943565b9050919050565b6000602082019050818103600083015262000a97816200096a565b9050919050565b6000602082019050818103600083015262000ab98162000991565b9050919050565b600060608201905062000ad76000830186620009b8565b62000ae66020830185620008f1565b62000af56040830184620008be565b949350505050565b600062000b0962000b1c565b905062000b17828262000caa565b919050565b6000604051905090565b600067ffffffffffffffff82111562000b445762000b4362000dbb565b5b62000b4f8262000dfe565b9050602081019050919050565b600081519050919050565b600082825260208201905092915050565b600062000b858262000ba1565b9050919050565b600081905062000b9c8262000eb0565b919050565b600073ffffffffffffffffffffffffffffffffffffffff82169050919050565b6000819050919050565b600062000bd88262000c07565b9050919050565b600062000bec8262000c07565b9050919050565b600062000c008262000b8c565b9050919050565b600062000c148262000c1b565b9050919050565b600062000c288262000ba1565b9050919050565b82818337600083830152505050565b60005b8381101562000c5e57808201518184015260208101905062000c41565b8381111562000c6e576000848401525b50505050565b6000600282049050600182168062000c8d57607f821691505b6020821081141562000ca45762000ca362000d8c565b5b50919050565b62000cb58262000dfe565b810181811067ffffffffffffffff8211171562000cd75762000cd662000dbb565b5b80604052505050565b600062000ced8262000bc1565b91507fffffffffffffffffffffffffffffffffffffffffffffffffffffffffffffffff82141562000d235762000d2262000d2e565b5b600182019050919050565b7f4e487b7100000000000000000000000000000000000000000000000000000000600052601160045260246000fd5b7f4e487b7100000000000000000000000000000000000000000000000000000000600052602160045260246000fd5b7f4e487b7100000000000000000000000000000000000000000000000000000000600052602260045260246000fd5b7f4e487b7100000000000000000000000000000000000000000000000000000000600052604160045260246000fd5b600080fd5b600080fd5b600080fd5b600080fd5b6000601f19601f8301169050919050565b7f506c656173652070617920657861637420616d6f756e742e0000000000000000600082015250565b7f4974656d20686173206265656e20616c7265616479207061696420666f72206f60008201527f722064656c697665726564000000000000000000000000000000000000000000602082015250565b7f4974656d206177616974696e67207061796d656e742e2e2e0000000000000000600082015250565b6003811062000ec45762000ec362000d5d565b5b50565b62000ed28162000bc1565b811462000ede57600080fd5b5056fe608060405234801561001057600080fd5b5060405161069d38038061069d833981810160405281019061003291906100d5565b600360009054906101000a900473ffffffffffffffffffffffffffffffffffffffff16600360006101000a81548173ffffffffffffffffffffffffffffffffffffffff021916908373ffffffffffffffffffffffffffffffffffffffff16021790555081600081905550806002819055505050506101a9565b6000815190506100ba8161017b565b92915050565b6000815190506100cf81610192565b92915050565b6000806000606084860312156100ee576100ed610176565b5b60006100fc868287016100ab565b935050602061010d868287016100c0565b925050604061011e868287016100c0565b9150509250925092565b60006101338261014c565b9050919050565b600061014582610128565b9050919050565b600073ffffffffffffffffffffffffffffffffffffffff82169050919050565b6000819050919050565b600080fd5b6101848161013a565b811461018f57600080fd5b50565b61019b8161016c565b81146101a657600080fd5b50565b6104e5806101b86000396000f3fe60806040526004361061004a5760003560e01c80630c11dedd1461004f578063767800de1461006b57806389794d0014610096578063c784a6e6146100c1578063e07bb1a7146100ec575b600080fd5b61006960048036038101906100649190610256565b610117565b005b34801561007757600080fd5b5061008061022a565b60405161008d91906102e7565b60405180910390f35b3480156100a257600080fd5b506100ab61022f565b6040516100b89190610342565b60405180910390f35b3480156100cd57600080fd5b506100d6610235565b6040516100e39190610342565b60405180910390f35b3480156100f857600080fd5b5061010161023b565b60405161010e9190610342565b60405180910390f35b60006001541461015c576040517f08c379a000000000000000000000000000000000000000000000000000000000815260040161015390610302565b60405180910390fd5b34600054146101a0576040517f08c379a000000000000000000000000000000000000000000000000000000000815260040161019790610322565b60405180910390fd5b34600160008282546101b2919061036e565b925050819055508073ffffffffffffffffffffffffffffffffffffffff1663800fb83f346002546040518363ffffffff1660e01b81526004016101f59190610342565b6000604051808303818588803b15801561020e57600080fd5b505af1158015610222573d6000803e3d6000fd5b505050505050565b600090565b60015481565b60005481565b60025481565b60008135905061025081610498565b92915050565b60006020828403121561026c5761026b610441565b5b600061027a84828501610241565b91505092915050565b61028c816103c4565b82525050565b600061029f60198361035d565b91506102aa82610446565b602082019050919050565b60006102c260188361035d565b91506102cd8261046f565b602082019050919050565b6102e181610408565b82525050565b60006020820190506102fc6000830184610283565b92915050565b6000602082019050818103600083015261031b81610292565b9050919050565b6000602082019050818103600083015261033b816102b5565b9050919050565b600060208201905061035760008301846102d8565b92915050565b600082825260208201905092915050565b600061037982610408565b915061038483610408565b9250827fffffffffffffffffffffffffffffffffffffffffffffffffffffffffffffffff038211156103b9576103b8610412565b5b828201905092915050565b60006103cf826103e8565b9050919050565b60006103e1826103c4565b9050919050565b600073ffffffffffffffffffffffffffffffffffffffff82169050919050565b6000819050919050565b7f4e487b7100000000000000000000000000000000000000000000000000000000600052601160045260246000fd5b600080fd5b7f4974656d206973207061696420666f7220616c72656164792e00000000000000600082015250565b7f506c656173652070617920657861637420616d6f756e742e0000000000000000600082015250565b6104a1816103d6565b81146104ac57600080fd5b5056fea264697066735822122048974ec352cb460ea44edf60f9b24455bfe7b16b9206d1e655b12410c44b229464736f6c63430008070033a2646970667358221220ad1ff89b0514455cabf2ed477efddd40e6fc403bab953723beb97c08a88329f364736f6c63430008070033",
					"opcodes": "PUSH1 0x80 PUSH1 0x40 MSTORE CALLVALUE DUP1 ISZERO PUSH2 0x10 JUMPI PUSH1 0x0 DUP1 REVERT JUMPDEST POP PUSH2 0x15B4 DUP1 PUSH2 0x20 PUSH1 0x0 CODECOPY PUSH1 0x0 RETURN INVALID PUSH1 0x80 PUSH1 0x40 MSTORE PUSH1 0x4 CALLDATASIZE LT PUSH3 0x44 JUMPI PUSH1 0x0 CALLDATALOAD PUSH1 0xE0 SHR DUP1 PUSH4 0x800FB83F EQ PUSH3 0x49 JUMPI DUP1 PUSH4 0x8C551742 EQ PUSH3 0x69 JUMPI DUP1 PUSH4 0xBFB231D2 EQ PUSH3 0x97 JUMPI DUP1 PUSH4 0xCD31831E EQ PUSH3 0xDE JUMPI JUMPDEST PUSH1 0x0 DUP1 REVERT JUMPDEST PUSH3 0x67 PUSH1 0x4 DUP1 CALLDATASIZE SUB DUP2 ADD SWAP1 PUSH3 0x61 SWAP2 SWAP1 PUSH3 0x88C JUMP JUMPDEST PUSH3 0x10C JUMP JUMPDEST STOP JUMPDEST CALLVALUE DUP1 ISZERO PUSH3 0x76 JUMPI PUSH1 0x0 DUP1 REVERT JUMPDEST POP PUSH3 0x95 PUSH1 0x4 DUP1 CALLDATASIZE SUB DUP2 ADD SWAP1 PUSH3 0x8F SWAP2 SWAP1 PUSH3 0x826 JUMP JUMPDEST PUSH3 0x2D2 JUMP JUMPDEST STOP JUMPDEST CALLVALUE DUP1 ISZERO PUSH3 0xA4 JUMPI PUSH1 0x0 DUP1 REVERT JUMPDEST POP PUSH3 0xC3 PUSH1 0x4 DUP1 CALLDATASIZE SUB DUP2 ADD SWAP1 PUSH3 0xBD SWAP2 SWAP1 PUSH3 0x88C JUMP JUMPDEST PUSH3 0x47A JUMP JUMPDEST PUSH1 0x40 MLOAD PUSH3 0xD5 SWAP5 SWAP4 SWAP3 SWAP2 SWAP1 PUSH3 0xA06 JUMP JUMPDEST PUSH1 0x40 MLOAD DUP1 SWAP2 SUB SWAP1 RETURN JUMPDEST CALLVALUE DUP1 ISZERO PUSH3 0xEB JUMPI PUSH1 0x0 DUP1 REVERT JUMPDEST POP PUSH3 0x10A PUSH1 0x4 DUP1 CALLDATASIZE SUB DUP2 ADD SWAP1 PUSH3 0x104 SWAP2 SWAP1 PUSH3 0x88C JUMP JUMPDEST PUSH3 0x567 JUMP JUMPDEST STOP JUMPDEST CALLVALUE PUSH1 0x0 DUP1 DUP4 DUP2 MSTORE PUSH1 0x20 ADD SWAP1 DUP2 MSTORE PUSH1 0x20 ADD PUSH1 0x0 KECCAK256 PUSH1 0x2 ADD SLOAD EQ PUSH3 0x166 JUMPI PUSH1 0x40 MLOAD PUSH32 0x8C379A000000000000000000000000000000000000000000000000000000000 DUP2 MSTORE PUSH1 0x4 ADD PUSH3 0x15D SWAP1 PUSH3 0xA5A JUMP JUMPDEST PUSH1 0x40 MLOAD DUP1 SWAP2 SUB SWAP1 REVERT JUMPDEST PUSH1 0x0 PUSH1 0x2 DUP2 GT ISZERO PUSH3 0x17D JUMPI PUSH3 0x17C PUSH3 0xD5D JUMP JUMPDEST JUMPDEST PUSH1 0x0 DUP1 DUP4 DUP2 MSTORE PUSH1 0x20 ADD SWAP1 DUP2 MSTORE PUSH1 0x20 ADD PUSH1 0x0 KECCAK256 PUSH1 0x3 ADD PUSH1 0x0 SWAP1 SLOAD SWAP1 PUSH2 0x100 EXP SWAP1 DIV PUSH1 0xFF AND PUSH1 0x2 DUP2 GT ISZERO PUSH3 0x1B5 JUMPI PUSH3 0x1B4 PUSH3 0xD5D JUMP JUMPDEST JUMPDEST EQ PUSH3 0x1F8 JUMPI PUSH1 0x40 MLOAD PUSH32 0x8C379A000000000000000000000000000000000000000000000000000000000 DUP2 MSTORE PUSH1 0x4 ADD PUSH3 0x1EF SWAP1 PUSH3 0xA7C JUMP JUMPDEST PUSH1 0x40 MLOAD DUP1 SWAP2 SUB SWAP1 REVERT JUMPDEST PUSH1 0x1 PUSH1 0x0 DUP1 DUP4 DUP2 MSTORE PUSH1 0x20 ADD SWAP1 DUP2 MSTORE PUSH1 0x20 ADD PUSH1 0x0 KECCAK256 PUSH1 0x3 ADD PUSH1 0x0 PUSH2 0x100 EXP DUP2 SLOAD DUP2 PUSH1 0xFF MUL NOT AND SWAP1 DUP4 PUSH1 0x2 DUP2 GT ISZERO PUSH3 0x234 JUMPI PUSH3 0x233 PUSH3 0xD5D JUMP JUMPDEST JUMPDEST MUL OR SWAP1 SSTORE POP PUSH32 0xF24DDCF634B84B7FBFB91B2713D1DB50CDF1AC5BCD00D6351384EE26BC1A94BD DUP2 PUSH1 0x0 DUP1 DUP5 DUP2 MSTORE PUSH1 0x20 ADD SWAP1 DUP2 MSTORE PUSH1 0x20 ADD PUSH1 0x0 KECCAK256 PUSH1 0x3 ADD PUSH1 0x0 SWAP1 SLOAD SWAP1 PUSH2 0x100 EXP SWAP1 DIV PUSH1 0xFF AND PUSH1 0x0 DUP1 PUSH1 0x1 SLOAD DUP2 MSTORE PUSH1 0x20 ADD SWAP1 DUP2 MSTORE PUSH1 0x20 ADD PUSH1 0x0 KECCAK256 PUSH1 0x0 ADD PUSH1 0x0 SWAP1 SLOAD SWAP1 PUSH2 0x100 EXP SWAP1 DIV PUSH20 0xFFFFFFFFFFFFFFFFFFFFFFFFFFFFFFFFFFFFFFFF AND PUSH1 0x40 MLOAD PUSH3 0x2C7 SWAP4 SWAP3 SWAP2 SWAP1 PUSH3 0xAC0 JUMP JUMPDEST PUSH1 0x40 MLOAD DUP1 SWAP2 SUB SWAP1 LOG1 POP JUMP JUMPDEST PUSH1 0x0 ADDRESS DUP3 PUSH1 0x1 SLOAD PUSH1 0x40 MLOAD PUSH3 0x2E7 SWAP1 PUSH3 0x6D3 JUMP JUMPDEST PUSH3 0x2F5 SWAP4 SWAP3 SWAP2 SWAP1 PUSH3 0x9C9 JUMP JUMPDEST PUSH1 0x40 MLOAD DUP1 SWAP2 SUB SWAP1 PUSH1 0x0 CREATE DUP1 ISZERO DUP1 ISZERO PUSH3 0x312 JUMPI RETURNDATASIZE PUSH1 0x0 DUP1 RETURNDATACOPY RETURNDATASIZE PUSH1 0x0 REVERT JUMPDEST POP SWAP1 POP DUP1 PUSH1 0x0 DUP1 PUSH1 0x1 SLOAD DUP2 MSTORE PUSH1 0x20 ADD SWAP1 DUP2 MSTORE PUSH1 0x20 ADD PUSH1 0x0 KECCAK256 PUSH1 0x0 ADD PUSH1 0x0 PUSH2 0x100 EXP DUP2 SLOAD DUP2 PUSH20 0xFFFFFFFFFFFFFFFFFFFFFFFFFFFFFFFFFFFFFFFF MUL NOT AND SWAP1 DUP4 PUSH20 0xFFFFFFFFFFFFFFFFFFFFFFFFFFFFFFFFFFFFFFFF AND MUL OR SWAP1 SSTORE POP DUP3 PUSH1 0x0 DUP1 PUSH1 0x1 SLOAD DUP2 MSTORE PUSH1 0x20 ADD SWAP1 DUP2 MSTORE PUSH1 0x20 ADD PUSH1 0x0 KECCAK256 PUSH1 0x1 ADD SWAP1 DUP1 MLOAD SWAP1 PUSH1 0x20 ADD SWAP1 PUSH3 0x398 SWAP3 SWAP2 SWAP1 PUSH3 0x6E1 JUMP JUMPDEST POP DUP2 PUSH1 0x0 DUP1 PUSH1 0x1 SLOAD DUP2 MSTORE PUSH1 0x20 ADD SWAP1 DUP2 MSTORE PUSH1 0x20 ADD PUSH1 0x0 KECCAK256 PUSH1 0x2 ADD DUP2 SWAP1 SSTORE POP PUSH1 0x0 DUP1 PUSH1 0x0 PUSH1 0x1 SLOAD DUP2 MSTORE PUSH1 0x20 ADD SWAP1 DUP2 MSTORE PUSH1 0x20 ADD PUSH1 0x0 KECCAK256 PUSH1 0x3 ADD PUSH1 0x0 PUSH2 0x100 EXP DUP2 SLOAD DUP2 PUSH1 0xFF MUL NOT AND SWAP1 DUP4 PUSH1 0x2 DUP2 GT ISZERO PUSH3 0x3F3 JUMPI PUSH3 0x3F2 PUSH3 0xD5D JUMP JUMPDEST JUMPDEST MUL OR SWAP1 SSTORE POP PUSH32 0xF24DDCF634B84B7FBFB91B2713D1DB50CDF1AC5BCD00D6351384EE26BC1A94BD PUSH1 0x1 SLOAD PUSH1 0x0 DUP1 PUSH1 0x1 SLOAD DUP2 MSTORE PUSH1 0x20 ADD SWAP1 DUP2 MSTORE PUSH1 0x20 ADD PUSH1 0x0 KECCAK256 PUSH1 0x3 ADD PUSH1 0x0 SWAP1 SLOAD SWAP1 PUSH2 0x100 EXP SWAP1 DIV PUSH1 0xFF AND DUP4 PUSH1 0x40 MLOAD PUSH3 0x453 SWAP4 SWAP3 SWAP2 SWAP1 PUSH3 0xAC0 JUMP JUMPDEST PUSH1 0x40 MLOAD DUP1 SWAP2 SUB SWAP1 LOG1 PUSH1 0x1 PUSH1 0x0 DUP2 SLOAD DUP1 SWAP3 SWAP2 SWAP1 PUSH3 0x470 SWAP1 PUSH3 0xCE0 JUMP JUMPDEST SWAP2 SWAP1 POP SSTORE POP POP POP POP JUMP JUMPDEST PUSH1 0x0 PUSH1 0x20 MSTORE DUP1 PUSH1 0x0 MSTORE PUSH1 0x40 PUSH1 0x0 KECCAK256 PUSH1 0x0 SWAP2 POP SWAP1 POP DUP1 PUSH1 0x0 ADD PUSH1 0x0 SWAP1 SLOAD SWAP1 PUSH2 0x100 EXP SWAP1 DIV PUSH20 0xFFFFFFFFFFFFFFFFFFFFFFFFFFFFFFFFFFFFFFFF AND SWAP1 DUP1 PUSH1 0x1 ADD DUP1 SLOAD PUSH3 0x4C5 SWAP1 PUSH3 0xC74 JUMP JUMPDEST DUP1 PUSH1 0x1F ADD PUSH1 0x20 DUP1 SWAP2 DIV MUL PUSH1 0x20 ADD PUSH1 0x40 MLOAD SWAP1 DUP2 ADD PUSH1 0x40 MSTORE DUP1 SWAP3 SWAP2 SWAP1 DUP2 DUP2 MSTORE PUSH1 0x20 ADD DUP3 DUP1 SLOAD PUSH3 0x4F3 SWAP1 PUSH3 0xC74 JUMP JUMPDEST DUP1 ISZERO PUSH3 0x544 JUMPI DUP1 PUSH1 0x1F LT PUSH3 0x518 JUMPI PUSH2 0x100 DUP1 DUP4 SLOAD DIV MUL DUP4 MSTORE SWAP2 PUSH1 0x20 ADD SWAP2 PUSH3 0x544 JUMP JUMPDEST DUP3 ADD SWAP2 SWAP1 PUSH1 0x0 MSTORE PUSH1 0x20 PUSH1 0x0 KECCAK256 SWAP1 JUMPDEST DUP2 SLOAD DUP2 MSTORE SWAP1 PUSH1 0x1 ADD SWAP1 PUSH1 0x20 ADD DUP1 DUP4 GT PUSH3 0x526 JUMPI DUP3 SWAP1 SUB PUSH1 0x1F AND DUP3 ADD SWAP2 JUMPDEST POP POP POP POP POP SWAP1 DUP1 PUSH1 0x2 ADD SLOAD SWAP1 DUP1 PUSH1 0x3 ADD PUSH1 0x0 SWAP1 SLOAD SWAP1 PUSH2 0x100 EXP SWAP1 DIV PUSH1 0xFF AND SWAP1 POP DUP5 JUMP JUMPDEST PUSH1 0x1 PUSH1 0x2 DUP2 GT ISZERO PUSH3 0x57E JUMPI PUSH3 0x57D PUSH3 0xD5D JUMP JUMPDEST JUMPDEST PUSH1 0x0 DUP1 DUP4 DUP2 MSTORE PUSH1 0x20 ADD SWAP1 DUP2 MSTORE PUSH1 0x20 ADD PUSH1 0x0 KECCAK256 PUSH1 0x3 ADD PUSH1 0x0 SWAP1 SLOAD SWAP1 PUSH2 0x100 EXP SWAP1 DIV PUSH1 0xFF AND PUSH1 0x2 DUP2 GT ISZERO PUSH3 0x5B6 JUMPI PUSH3 0x5B5 PUSH3 0xD5D JUMP JUMPDEST JUMPDEST EQ PUSH3 0x5F9 JUMPI PUSH1 0x40 MLOAD PUSH32 0x8C379A000000000000000000000000000000000000000000000000000000000 DUP2 MSTORE PUSH1 0x4 ADD PUSH3 0x5F0 SWAP1 PUSH3 0xA9E JUMP JUMPDEST PUSH1 0x40 MLOAD DUP1 SWAP2 SUB SWAP1 REVERT JUMPDEST PUSH1 0x2 PUSH1 0x0 DUP1 DUP4 DUP2 MSTORE PUSH1 0x20 ADD SWAP1 DUP2 MSTORE PUSH1 0x20 ADD PUSH1 0x0 KECCAK256 PUSH1 0x3 ADD PUSH1 0x0 PUSH2 0x100 EXP DUP2 SLOAD DUP2 PUSH1 0xFF MUL NOT AND SWAP1 DUP4 PUSH1 0x2 DUP2 GT ISZERO PUSH3 0x635 JUMPI PUSH3 0x634 PUSH3 0xD5D JUMP JUMPDEST JUMPDEST MUL OR SWAP1 SSTORE POP PUSH32 0xF24DDCF634B84B7FBFB91B2713D1DB50CDF1AC5BCD00D6351384EE26BC1A94BD DUP2 PUSH1 0x0 DUP1 DUP5 DUP2 MSTORE PUSH1 0x20 ADD SWAP1 DUP2 MSTORE PUSH1 0x20 ADD PUSH1 0x0 KECCAK256 PUSH1 0x3 ADD PUSH1 0x0 SWAP1 SLOAD SWAP1 PUSH2 0x100 EXP SWAP1 DIV PUSH1 0xFF AND PUSH1 0x0 DUP1 PUSH1 0x1 SLOAD DUP2 MSTORE PUSH1 0x20 ADD SWAP1 DUP2 MSTORE PUSH1 0x20 ADD PUSH1 0x0 KECCAK256 PUSH1 0x0 ADD PUSH1 0x0 SWAP1 SLOAD SWAP1 PUSH2 0x100 EXP SWAP1 DIV PUSH20 0xFFFFFFFFFFFFFFFFFFFFFFFFFFFFFFFFFFFFFFFF AND PUSH1 0x40 MLOAD PUSH3 0x6C8 SWAP4 SWAP3 SWAP2 SWAP1 PUSH3 0xAC0 JUMP JUMPDEST PUSH1 0x40 MLOAD DUP1 SWAP2 SUB SWAP1 LOG1 POP JUMP JUMPDEST PUSH2 0x69D DUP1 PUSH3 0xEE2 DUP4 CODECOPY ADD SWAP1 JUMP JUMPDEST DUP3 DUP1 SLOAD PUSH3 0x6EF SWAP1 PUSH3 0xC74 JUMP JUMPDEST SWAP1 PUSH1 0x0 MSTORE PUSH1 0x20 PUSH1 0x0 KECCAK256 SWAP1 PUSH1 0x1F ADD PUSH1 0x20 SWAP1 DIV DUP2 ADD SWAP3 DUP3 PUSH3 0x713 JUMPI PUSH1 0x0 DUP6 SSTORE PUSH3 0x75F JUMP JUMPDEST DUP3 PUSH1 0x1F LT PUSH3 0x72E JUMPI DUP1 MLOAD PUSH1 0xFF NOT AND DUP4 DUP1 ADD OR DUP6 SSTORE PUSH3 0x75F JUMP JUMPDEST DUP3 DUP1 ADD PUSH1 0x1 ADD DUP6 SSTORE DUP3 ISZERO PUSH3 0x75F JUMPI SWAP2 DUP3 ADD JUMPDEST DUP3 DUP2 GT ISZERO PUSH3 0x75E JUMPI DUP3 MLOAD DUP3 SSTORE SWAP2 PUSH1 0x20 ADD SWAP2 SWAP1 PUSH1 0x1 ADD SWAP1 PUSH3 0x741 JUMP JUMPDEST JUMPDEST POP SWAP1 POP PUSH3 0x76E SWAP2 SWAP1 PUSH3 0x772 JUMP JUMPDEST POP SWAP1 JUMP JUMPDEST JUMPDEST DUP1 DUP3 GT ISZERO PUSH3 0x78D JUMPI PUSH1 0x0 DUP2 PUSH1 0x0 SWAP1 SSTORE POP PUSH1 0x1 ADD PUSH3 0x773 JUMP JUMPDEST POP SWAP1 JUMP JUMPDEST PUSH1 0x0 PUSH3 0x7A8 PUSH3 0x7A2 DUP5 PUSH3 0xB26 JUMP JUMPDEST PUSH3 0xAFD JUMP JUMPDEST SWAP1 POP DUP3 DUP2 MSTORE PUSH1 0x20 DUP2 ADD DUP5 DUP5 DUP5 ADD GT ISZERO PUSH3 0x7C7 JUMPI PUSH3 0x7C6 PUSH3 0xDEF JUMP JUMPDEST JUMPDEST PUSH3 0x7D4 DUP5 DUP3 DUP6 PUSH3 0xC2F JUMP JUMPDEST POP SWAP4 SWAP3 POP POP POP JUMP JUMPDEST PUSH1 0x0 DUP3 PUSH1 0x1F DUP4 ADD SLT PUSH3 0x7F4 JUMPI PUSH3 0x7F3 PUSH3 0xDEA JUMP JUMPDEST JUMPDEST DUP2 CALLDATALOAD PUSH3 0x806 DUP5 DUP3 PUSH1 0x20 DUP7 ADD PUSH3 0x791 JUMP JUMPDEST SWAP2 POP POP SWAP3 SWAP2 POP POP JUMP JUMPDEST PUSH1 0x0 DUP2 CALLDATALOAD SWAP1 POP PUSH3 0x820 DUP2 PUSH3 0xEC7 JUMP JUMPDEST SWAP3 SWAP2 POP POP JUMP JUMPDEST PUSH1 0x0 DUP1 PUSH1 0x40 DUP4 DUP6 SUB SLT ISZERO PUSH3 0x840 JUMPI PUSH3 0x83F PUSH3 0xDF9 JUMP JUMPDEST JUMPDEST PUSH1 0x0 DUP4 ADD CALLDATALOAD PUSH8 0xFFFFFFFFFFFFFFFF DUP2 GT ISZERO PUSH3 0x861 JUMPI PUSH3 0x860 PUSH3 0xDF4 JUMP JUMPDEST JUMPDEST PUSH3 0x86F DUP6 DUP3 DUP7 ADD PUSH3 0x7DC JUMP JUMPDEST SWAP3 POP POP PUSH1 0x20 PUSH3 0x882 DUP6 DUP3 DUP7 ADD PUSH3 0x80F JUMP JUMPDEST SWAP2 POP POP SWAP3 POP SWAP3 SWAP1 POP JUMP JUMPDEST PUSH1 0x0 PUSH1 0x20 DUP3 DUP5 SUB SLT ISZERO PUSH3 0x8A5 JUMPI PUSH3 0x8A4 PUSH3 0xDF9 JUMP JUMPDEST JUMPDEST PUSH1 0x0 PUSH3 0x8B5 DUP5 DUP3 DUP6 ADD PUSH3 0x80F JUMP JUMPDEST SWAP2 POP POP SWAP3 SWAP2 POP POP JUMP JUMPDEST PUSH3 0x8C9 DUP2 PUSH3 0xB78 JUMP JUMPDEST DUP3 MSTORE POP POP JUMP JUMPDEST PUSH3 0x8DA DUP2 PUSH3 0xBCB JUMP JUMPDEST DUP3 MSTORE POP POP JUMP JUMPDEST PUSH3 0x8EB DUP2 PUSH3 0xBDF JUMP JUMPDEST DUP3 MSTORE POP POP JUMP JUMPDEST PUSH3 0x8FC DUP2 PUSH3 0xBF3 JUMP JUMPDEST DUP3 MSTORE POP POP JUMP JUMPDEST PUSH1 0x0 PUSH3 0x90F DUP3 PUSH3 0xB5C JUMP JUMPDEST PUSH3 0x91B DUP2 DUP6 PUSH3 0xB67 JUMP JUMPDEST SWAP4 POP PUSH3 0x92D DUP2 DUP6 PUSH1 0x20 DUP7 ADD PUSH3 0xC3E JUMP JUMPDEST PUSH3 0x938 DUP2 PUSH3 0xDFE JUMP JUMPDEST DUP5 ADD SWAP2 POP POP SWAP3 SWAP2 POP POP JUMP JUMPDEST PUSH1 0x0 PUSH3 0x952 PUSH1 0x18 DUP4 PUSH3 0xB67 JUMP JUMPDEST SWAP2 POP PUSH3 0x95F DUP3 PUSH3 0xE0F JUMP JUMPDEST PUSH1 0x20 DUP3 ADD SWAP1 POP SWAP2 SWAP1 POP JUMP JUMPDEST PUSH1 0x0 PUSH3 0x979 PUSH1 0x2B DUP4 PUSH3 0xB67 JUMP JUMPDEST SWAP2 POP PUSH3 0x986 DUP3 PUSH3 0xE38 JUMP JUMPDEST PUSH1 0x40 DUP3 ADD SWAP1 POP SWAP2 SWAP1 POP JUMP JUMPDEST PUSH1 0x0 PUSH3 0x9A0 PUSH1 0x18 DUP4 PUSH3 0xB67 JUMP JUMPDEST SWAP2 POP PUSH3 0x9AD DUP3 PUSH3 0xE87 JUMP JUMPDEST PUSH1 0x20 DUP3 ADD SWAP1 POP SWAP2 SWAP1 POP JUMP JUMPDEST PUSH3 0x9C3 DUP2 PUSH3 0xBC1 JUMP JUMPDEST DUP3 MSTORE POP POP JUMP JUMPDEST PUSH1 0x0 PUSH1 0x60 DUP3 ADD SWAP1 POP PUSH3 0x9E0 PUSH1 0x0 DUP4 ADD DUP7 PUSH3 0x8CF JUMP JUMPDEST PUSH3 0x9EF PUSH1 0x20 DUP4 ADD DUP6 PUSH3 0x9B8 JUMP JUMPDEST PUSH3 0x9FE PUSH1 0x40 DUP4 ADD DUP5 PUSH3 0x9B8 JUMP JUMPDEST SWAP5 SWAP4 POP POP POP POP JUMP JUMPDEST PUSH1 0x0 PUSH1 0x80 DUP3 ADD SWAP1 POP PUSH3 0xA1D PUSH1 0x0 DUP4 ADD DUP8 PUSH3 0x8E0 JUMP JUMPDEST DUP2 DUP2 SUB PUSH1 0x20 DUP4 ADD MSTORE PUSH3 0xA31 DUP2 DUP7 PUSH3 0x902 JUMP JUMPDEST SWAP1 POP PUSH3 0xA42 PUSH1 0x40 DUP4 ADD DUP6 PUSH3 0x9B8 JUMP JUMPDEST PUSH3 0xA51 PUSH1 0x60 DUP4 ADD DUP5 PUSH3 0x8F1 JUMP JUMPDEST SWAP6 SWAP5 POP POP POP POP POP JUMP JUMPDEST PUSH1 0x0 PUSH1 0x20 DUP3 ADD SWAP1 POP DUP2 DUP2 SUB PUSH1 0x0 DUP4 ADD MSTORE PUSH3 0xA75 DUP2 PUSH3 0x943 JUMP JUMPDEST SWAP1 POP SWAP2 SWAP1 POP JUMP JUMPDEST PUSH1 0x0 PUSH1 0x20 DUP3 ADD SWAP1 POP DUP2 DUP2 SUB PUSH1 0x0 DUP4 ADD MSTORE PUSH3 0xA97 DUP2 PUSH3 0x96A JUMP JUMPDEST SWAP1 POP SWAP2 SWAP1 POP JUMP JUMPDEST PUSH1 0x0 PUSH1 0x20 DUP3 ADD SWAP1 POP DUP2 DUP2 SUB PUSH1 0x0 DUP4 ADD MSTORE PUSH3 0xAB9 DUP2 PUSH3 0x991 JUMP JUMPDEST SWAP1 POP SWAP2 SWAP1 POP JUMP JUMPDEST PUSH1 0x0 PUSH1 0x60 DUP3 ADD SWAP1 POP PUSH3 0xAD7 PUSH1 0x0 DUP4 ADD DUP7 PUSH3 0x9B8 JUMP JUMPDEST PUSH3 0xAE6 PUSH1 0x20 DUP4 ADD DUP6 PUSH3 0x8F1 JUMP JUMPDEST PUSH3 0xAF5 PUSH1 0x40 DUP4 ADD DUP5 PUSH3 0x8BE JUMP JUMPDEST SWAP5 SWAP4 POP POP POP POP JUMP JUMPDEST PUSH1 0x0 PUSH3 0xB09 PUSH3 0xB1C JUMP JUMPDEST SWAP1 POP PUSH3 0xB17 DUP3 DUP3 PUSH3 0xCAA JUMP JUMPDEST SWAP2 SWAP1 POP JUMP JUMPDEST PUSH1 0x0 PUSH1 0x40 MLOAD SWAP1 POP SWAP1 JUMP JUMPDEST PUSH1 0x0 PUSH8 0xFFFFFFFFFFFFFFFF DUP3 GT ISZERO PUSH3 0xB44 JUMPI PUSH3 0xB43 PUSH3 0xDBB JUMP JUMPDEST JUMPDEST PUSH3 0xB4F DUP3 PUSH3 0xDFE JUMP JUMPDEST SWAP1 POP PUSH1 0x20 DUP2 ADD SWAP1 POP SWAP2 SWAP1 POP JUMP JUMPDEST PUSH1 0x0 DUP2 MLOAD SWAP1 POP SWAP2 SWAP1 POP JUMP JUMPDEST PUSH1 0x0 DUP3 DUP3 MSTORE PUSH1 0x20 DUP3 ADD SWAP1 POP SWAP3 SWAP2 POP POP JUMP JUMPDEST PUSH1 0x0 PUSH3 0xB85 DUP3 PUSH3 0xBA1 JUMP JUMPDEST SWAP1 POP SWAP2 SWAP1 POP JUMP JUMPDEST PUSH1 0x0 DUP2 SWAP1 POP PUSH3 0xB9C DUP3 PUSH3 0xEB0 JUMP JUMPDEST SWAP2 SWAP1 POP JUMP JUMPDEST PUSH1 0x0 PUSH20 0xFFFFFFFFFFFFFFFFFFFFFFFFFFFFFFFFFFFFFFFF DUP3 AND SWAP1 POP SWAP2 SWAP1 POP JUMP JUMPDEST PUSH1 0x0 DUP2 SWAP1 POP SWAP2 SWAP1 POP JUMP JUMPDEST PUSH1 0x0 PUSH3 0xBD8 DUP3 PUSH3 0xC07 JUMP JUMPDEST SWAP1 POP SWAP2 SWAP1 POP JUMP JUMPDEST PUSH1 0x0 PUSH3 0xBEC DUP3 PUSH3 0xC07 JUMP JUMPDEST SWAP1 POP SWAP2 SWAP1 POP JUMP JUMPDEST PUSH1 0x0 PUSH3 0xC00 DUP3 PUSH3 0xB8C JUMP JUMPDEST SWAP1 POP SWAP2 SWAP1 POP JUMP JUMPDEST PUSH1 0x0 PUSH3 0xC14 DUP3 PUSH3 0xC1B JUMP JUMPDEST SWAP1 POP SWAP2 SWAP1 POP JUMP JUMPDEST PUSH1 0x0 PUSH3 0xC28 DUP3 PUSH3 0xBA1 JUMP JUMPDEST SWAP1 POP SWAP2 SWAP1 POP JUMP JUMPDEST DUP3 DUP2 DUP4 CALLDATACOPY PUSH1 0x0 DUP4 DUP4 ADD MSTORE POP POP POP JUMP JUMPDEST PUSH1 0x0 JUMPDEST DUP4 DUP2 LT ISZERO PUSH3 0xC5E JUMPI DUP1 DUP3 ADD MLOAD DUP2 DUP5 ADD MSTORE PUSH1 0x20 DUP2 ADD SWAP1 POP PUSH3 0xC41 JUMP JUMPDEST DUP4 DUP2 GT ISZERO PUSH3 0xC6E JUMPI PUSH1 0x0 DUP5 DUP5 ADD MSTORE JUMPDEST POP POP POP POP JUMP JUMPDEST PUSH1 0x0 PUSH1 0x2 DUP3 DIV SWAP1 POP PUSH1 0x1 DUP3 AND DUP1 PUSH3 0xC8D JUMPI PUSH1 0x7F DUP3 AND SWAP2 POP JUMPDEST PUSH1 0x20 DUP3 LT DUP2 EQ ISZERO PUSH3 0xCA4 JUMPI PUSH3 0xCA3 PUSH3 0xD8C JUMP JUMPDEST JUMPDEST POP SWAP2 SWAP1 POP JUMP JUMPDEST PUSH3 0xCB5 DUP3 PUSH3 0xDFE JUMP JUMPDEST DUP2 ADD DUP2 DUP2 LT PUSH8 0xFFFFFFFFFFFFFFFF DUP3 GT OR ISZERO PUSH3 0xCD7 JUMPI PUSH3 0xCD6 PUSH3 0xDBB JUMP JUMPDEST JUMPDEST DUP1 PUSH1 0x40 MSTORE POP POP POP JUMP JUMPDEST PUSH1 0x0 PUSH3 0xCED DUP3 PUSH3 0xBC1 JUMP JUMPDEST SWAP2 POP PUSH32 0xFFFFFFFFFFFFFFFFFFFFFFFFFFFFFFFFFFFFFFFFFFFFFFFFFFFFFFFFFFFFFFFF DUP3 EQ ISZERO PUSH3 0xD23 JUMPI PUSH3 0xD22 PUSH3 0xD2E JUMP JUMPDEST JUMPDEST PUSH1 0x1 DUP3 ADD SWAP1 POP SWAP2 SWAP1 POP JUMP JUMPDEST PUSH32 0x4E487B7100000000000000000000000000000000000000000000000000000000 PUSH1 0x0 MSTORE PUSH1 0x11 PUSH1 0x4 MSTORE PUSH1 0x24 PUSH1 0x0 REVERT JUMPDEST PUSH32 0x4E487B7100000000000000000000000000000000000000000000000000000000 PUSH1 0x0 MSTORE PUSH1 0x21 PUSH1 0x4 MSTORE PUSH1 0x24 PUSH1 0x0 REVERT JUMPDEST PUSH32 0x4E487B7100000000000000000000000000000000000000000000000000000000 PUSH1 0x0 MSTORE PUSH1 0x22 PUSH1 0x4 MSTORE PUSH1 0x24 PUSH1 0x0 REVERT JUMPDEST PUSH32 0x4E487B7100000000000000000000000000000000000000000000000000000000 PUSH1 0x0 MSTORE PUSH1 0x41 PUSH1 0x4 MSTORE PUSH1 0x24 PUSH1 0x0 REVERT JUMPDEST PUSH1 0x0 DUP1 REVERT JUMPDEST PUSH1 0x0 DUP1 REVERT JUMPDEST PUSH1 0x0 DUP1 REVERT JUMPDEST PUSH1 0x0 DUP1 REVERT JUMPDEST PUSH1 0x0 PUSH1 0x1F NOT PUSH1 0x1F DUP4 ADD AND SWAP1 POP SWAP2 SWAP1 POP JUMP JUMPDEST PUSH32 0x506C656173652070617920657861637420616D6F756E742E0000000000000000 PUSH1 0x0 DUP3 ADD MSTORE POP JUMP JUMPDEST PUSH32 0x4974656D20686173206265656E20616C7265616479207061696420666F72206F PUSH1 0x0 DUP3 ADD MSTORE PUSH32 0x722064656C697665726564000000000000000000000000000000000000000000 PUSH1 0x20 DUP3 ADD MSTORE POP JUMP JUMPDEST PUSH32 0x4974656D206177616974696E67207061796D656E742E2E2E0000000000000000 PUSH1 0x0 DUP3 ADD MSTORE POP JUMP JUMPDEST PUSH1 0x3 DUP2 LT PUSH3 0xEC4 JUMPI PUSH3 0xEC3 PUSH3 0xD5D JUMP JUMPDEST JUMPDEST POP JUMP JUMPDEST PUSH3 0xED2 DUP2 PUSH3 0xBC1 JUMP JUMPDEST DUP2 EQ PUSH3 0xEDE JUMPI PUSH1 0x0 DUP1 REVERT JUMPDEST POP JUMP INVALID PUSH1 0x80 PUSH1 0x40 MSTORE CALLVALUE DUP1 ISZERO PUSH2 0x10 JUMPI PUSH1 0x0 DUP1 REVERT JUMPDEST POP PUSH1 0x40 MLOAD PUSH2 0x69D CODESIZE SUB DUP1 PUSH2 0x69D DUP4 CODECOPY DUP2 DUP2 ADD PUSH1 0x40 MSTORE DUP2 ADD SWAP1 PUSH2 0x32 SWAP2 SWAP1 PUSH2 0xD5 JUMP JUMPDEST PUSH1 0x3 PUSH1 0x0 SWAP1 SLOAD SWAP1 PUSH2 0x100 EXP SWAP1 DIV PUSH20 0xFFFFFFFFFFFFFFFFFFFFFFFFFFFFFFFFFFFFFFFF AND PUSH1 0x3 PUSH1 0x0 PUSH2 0x100 EXP DUP2 SLOAD DUP2 PUSH20 0xFFFFFFFFFFFFFFFFFFFFFFFFFFFFFFFFFFFFFFFF MUL NOT AND SWAP1 DUP4 PUSH20 0xFFFFFFFFFFFFFFFFFFFFFFFFFFFFFFFFFFFFFFFF AND MUL OR SWAP1 SSTORE POP DUP2 PUSH1 0x0 DUP2 SWAP1 SSTORE POP DUP1 PUSH1 0x2 DUP2 SWAP1 SSTORE POP POP POP POP PUSH2 0x1A9 JUMP JUMPDEST PUSH1 0x0 DUP2 MLOAD SWAP1 POP PUSH2 0xBA DUP2 PUSH2 0x17B JUMP JUMPDEST SWAP3 SWAP2 POP POP JUMP JUMPDEST PUSH1 0x0 DUP2 MLOAD SWAP1 POP PUSH2 0xCF DUP2 PUSH2 0x192 JUMP JUMPDEST SWAP3 SWAP2 POP POP JUMP JUMPDEST PUSH1 0x0 DUP1 PUSH1 0x0 PUSH1 0x60 DUP5 DUP7 SUB SLT ISZERO PUSH2 0xEE JUMPI PUSH2 0xED PUSH2 0x176 JUMP JUMPDEST JUMPDEST PUSH1 0x0 PUSH2 0xFC DUP7 DUP3 DUP8 ADD PUSH2 0xAB JUMP JUMPDEST SWAP4 POP POP PUSH1 0x20 PUSH2 0x10D DUP7 DUP3 DUP8 ADD PUSH2 0xC0 JUMP JUMPDEST SWAP3 POP POP PUSH1 0x40 PUSH2 0x11E DUP7 DUP3 DUP8 ADD PUSH2 0xC0 JUMP JUMPDEST SWAP2 POP POP SWAP3 POP SWAP3 POP SWAP3 JUMP JUMPDEST PUSH1 0x0 PUSH2 0x133 DUP3 PUSH2 0x14C JUMP JUMPDEST SWAP1 POP SWAP2 SWAP1 POP JUMP JUMPDEST PUSH1 0x0 PUSH2 0x145 DUP3 PUSH2 0x128 JUMP JUMPDEST SWAP1 POP SWAP2 SWAP1 POP JUMP JUMPDEST PUSH1 0x0 PUSH20 0xFFFFFFFFFFFFFFFFFFFFFFFFFFFFFFFFFFFFFFFF DUP3 AND SWAP1 POP SWAP2 SWAP1 POP JUMP JUMPDEST PUSH1 0x0 DUP2 SWAP1 POP SWAP2 SWAP1 POP JUMP JUMPDEST PUSH1 0x0 DUP1 REVERT JUMPDEST PUSH2 0x184 DUP2 PUSH2 0x13A JUMP JUMPDEST DUP2 EQ PUSH2 0x18F JUMPI PUSH1 0x0 DUP1 REVERT JUMPDEST POP JUMP JUMPDEST PUSH2 0x19B DUP2 PUSH2 0x16C JUMP JUMPDEST DUP2 EQ PUSH2 0x1A6 JUMPI PUSH1 0x0 DUP1 REVERT JUMPDEST POP JUMP JUMPDEST PUSH2 0x4E5 DUP1 PUSH2 0x1B8 PUSH1 0x0 CODECOPY PUSH1 0x0 RETURN INVALID PUSH1 0x80 PUSH1 0x40 MSTORE PUSH1 0x4 CALLDATASIZE LT PUSH2 0x4A JUMPI PUSH1 0x0 CALLDATALOAD PUSH1 0xE0 SHR DUP1 PUSH4 0xC11DEDD EQ PUSH2 0x4F JUMPI DUP1 PUSH4 0x767800DE EQ PUSH2 0x6B JUMPI DUP1 PUSH4 0x89794D00 EQ PUSH2 0x96 JUMPI DUP1 PUSH4 0xC784A6E6 EQ PUSH2 0xC1 JUMPI DUP1 PUSH4 0xE07BB1A7 EQ PUSH2 0xEC JUMPI JUMPDEST PUSH1 0x0 DUP1 REVERT JUMPDEST PUSH2 0x69 PUSH1 0x4 DUP1 CALLDATASIZE SUB DUP2 ADD SWAP1 PUSH2 0x64 SWAP2 SWAP1 PUSH2 0x256 JUMP JUMPDEST PUSH2 0x117 JUMP JUMPDEST STOP JUMPDEST CALLVALUE DUP1 ISZERO PUSH2 0x77 JUMPI PUSH1 0x0 DUP1 REVERT JUMPDEST POP PUSH2 0x80 PUSH2 0x22A JUMP JUMPDEST PUSH1 0x40 MLOAD PUSH2 0x8D SWAP2 SWAP1 PUSH2 0x2E7 JUMP JUMPDEST PUSH1 0x40 MLOAD DUP1 SWAP2 SUB SWAP1 RETURN JUMPDEST CALLVALUE DUP1 ISZERO PUSH2 0xA2 JUMPI PUSH1 0x0 DUP1 REVERT JUMPDEST POP PUSH2 0xAB PUSH2 0x22F JUMP JUMPDEST PUSH1 0x40 MLOAD PUSH2 0xB8 SWAP2 SWAP1 PUSH2 0x342 JUMP JUMPDEST PUSH1 0x40 MLOAD DUP1 SWAP2 SUB SWAP1 RETURN JUMPDEST CALLVALUE DUP1 ISZERO PUSH2 0xCD JUMPI PUSH1 0x0 DUP1 REVERT JUMPDEST POP PUSH2 0xD6 PUSH2 0x235 JUMP JUMPDEST PUSH1 0x40 MLOAD PUSH2 0xE3 SWAP2 SWAP1 PUSH2 0x342 JUMP JUMPDEST PUSH1 0x40 MLOAD DUP1 SWAP2 SUB SWAP1 RETURN JUMPDEST CALLVALUE DUP1 ISZERO PUSH2 0xF8 JUMPI PUSH1 0x0 DUP1 REVERT JUMPDEST POP PUSH2 0x101 PUSH2 0x23B JUMP JUMPDEST PUSH1 0x40 MLOAD PUSH2 0x10E SWAP2 SWAP1 PUSH2 0x342 JUMP JUMPDEST PUSH1 0x40 MLOAD DUP1 SWAP2 SUB SWAP1 RETURN JUMPDEST PUSH1 0x0 PUSH1 0x1 SLOAD EQ PUSH2 0x15C JUMPI PUSH1 0x40 MLOAD PUSH32 0x8C379A000000000000000000000000000000000000000000000000000000000 DUP2 MSTORE PUSH1 0x4 ADD PUSH2 0x153 SWAP1 PUSH2 0x302 JUMP JUMPDEST PUSH1 0x40 MLOAD DUP1 SWAP2 SUB SWAP1 REVERT JUMPDEST CALLVALUE PUSH1 0x0 SLOAD EQ PUSH2 0x1A0 JUMPI PUSH1 0x40 MLOAD PUSH32 0x8C379A000000000000000000000000000000000000000000000000000000000 DUP2 MSTORE PUSH1 0x4 ADD PUSH2 0x197 SWAP1 PUSH2 0x322 JUMP JUMPDEST PUSH1 0x40 MLOAD DUP1 SWAP2 SUB SWAP1 REVERT JUMPDEST CALLVALUE PUSH1 0x1 PUSH1 0x0 DUP3 DUP3 SLOAD PUSH2 0x1B2 SWAP2 SWAP1 PUSH2 0x36E JUMP JUMPDEST SWAP3 POP POP DUP2 SWAP1 SSTORE POP DUP1 PUSH20 0xFFFFFFFFFFFFFFFFFFFFFFFFFFFFFFFFFFFFFFFF AND PUSH4 0x800FB83F CALLVALUE PUSH1 0x2 SLOAD PUSH1 0x40 MLOAD DUP4 PUSH4 0xFFFFFFFF AND PUSH1 0xE0 SHL DUP2 MSTORE PUSH1 0x4 ADD PUSH2 0x1F5 SWAP2 SWAP1 PUSH2 0x342 JUMP JUMPDEST PUSH1 0x0 PUSH1 0x40 MLOAD DUP1 DUP4 SUB DUP2 DUP6 DUP9 DUP1 EXTCODESIZE ISZERO DUP1 ISZERO PUSH2 0x20E JUMPI PUSH1 0x0 DUP1 REVERT JUMPDEST POP GAS CALL ISZERO DUP1 ISZERO PUSH2 0x222 JUMPI RETURNDATASIZE PUSH1 0x0 DUP1 RETURNDATACOPY RETURNDATASIZE PUSH1 0x0 REVERT JUMPDEST POP POP POP POP POP POP JUMP JUMPDEST PUSH1 0x0 SWAP1 JUMP JUMPDEST PUSH1 0x1 SLOAD DUP2 JUMP JUMPDEST PUSH1 0x0 SLOAD DUP2 JUMP JUMPDEST PUSH1 0x2 SLOAD DUP2 JUMP JUMPDEST PUSH1 0x0 DUP2 CALLDATALOAD SWAP1 POP PUSH2 0x250 DUP2 PUSH2 0x498 JUMP JUMPDEST SWAP3 SWAP2 POP POP JUMP JUMPDEST PUSH1 0x0 PUSH1 0x20 DUP3 DUP5 SUB SLT ISZERO PUSH2 0x26C JUMPI PUSH2 0x26B PUSH2 0x441 JUMP JUMPDEST JUMPDEST PUSH1 0x0 PUSH2 0x27A DUP5 DUP3 DUP6 ADD PUSH2 0x241 JUMP JUMPDEST SWAP2 POP POP SWAP3 SWAP2 POP POP JUMP JUMPDEST PUSH2 0x28C DUP2 PUSH2 0x3C4 JUMP JUMPDEST DUP3 MSTORE POP POP JUMP JUMPDEST PUSH1 0x0 PUSH2 0x29F PUSH1 0x19 DUP4 PUSH2 0x35D JUMP JUMPDEST SWAP2 POP PUSH2 0x2AA DUP3 PUSH2 0x446 JUMP JUMPDEST PUSH1 0x20 DUP3 ADD SWAP1 POP SWAP2 SWAP1 POP JUMP JUMPDEST PUSH1 0x0 PUSH2 0x2C2 PUSH1 0x18 DUP4 PUSH2 0x35D JUMP JUMPDEST SWAP2 POP PUSH2 0x2CD DUP3 PUSH2 0x46F JUMP JUMPDEST PUSH1 0x20 DUP3 ADD SWAP1 POP SWAP2 SWAP1 POP JUMP JUMPDEST PUSH2 0x2E1 DUP2 PUSH2 0x408 JUMP JUMPDEST DUP3 MSTORE POP POP JUMP JUMPDEST PUSH1 0x0 PUSH1 0x20 DUP3 ADD SWAP1 POP PUSH2 0x2FC PUSH1 0x0 DUP4 ADD DUP5 PUSH2 0x283 JUMP JUMPDEST SWAP3 SWAP2 POP POP JUMP JUMPDEST PUSH1 0x0 PUSH1 0x20 DUP3 ADD SWAP1 POP DUP2 DUP2 SUB PUSH1 0x0 DUP4 ADD MSTORE PUSH2 0x31B DUP2 PUSH2 0x292 JUMP JUMPDEST SWAP1 POP SWAP2 SWAP1 POP JUMP JUMPDEST PUSH1 0x0 PUSH1 0x20 DUP3 ADD SWAP1 POP DUP2 DUP2 SUB PUSH1 0x0 DUP4 ADD MSTORE PUSH2 0x33B DUP2 PUSH2 0x2B5 JUMP JUMPDEST SWAP1 POP SWAP2 SWAP1 POP JUMP JUMPDEST PUSH1 0x0 PUSH1 0x20 DUP3 ADD SWAP1 POP PUSH2 0x357 PUSH1 0x0 DUP4 ADD DUP5 PUSH2 0x2D8 JUMP JUMPDEST SWAP3 SWAP2 POP POP JUMP JUMPDEST PUSH1 0x0 DUP3 DUP3 MSTORE PUSH1 0x20 DUP3 ADD SWAP1 POP SWAP3 SWAP2 POP POP JUMP JUMPDEST PUSH1 0x0 PUSH2 0x379 DUP3 PUSH2 0x408 JUMP JUMPDEST SWAP2 POP PUSH2 0x384 DUP4 PUSH2 0x408 JUMP JUMPDEST SWAP3 POP DUP3 PUSH32 0xFFFFFFFFFFFFFFFFFFFFFFFFFFFFFFFFFFFFFFFFFFFFFFFFFFFFFFFFFFFFFFFF SUB DUP3 GT ISZERO PUSH2 0x3B9 JUMPI PUSH2 0x3B8 PUSH2 0x412 JUMP JUMPDEST JUMPDEST DUP3 DUP3 ADD SWAP1 POP SWAP3 SWAP2 POP POP JUMP JUMPDEST PUSH1 0x0 PUSH2 0x3CF DUP3 PUSH2 0x3E8 JUMP JUMPDEST SWAP1 POP SWAP2 SWAP1 POP JUMP JUMPDEST PUSH1 0x0 PUSH2 0x3E1 DUP3 PUSH2 0x3C4 JUMP JUMPDEST SWAP1 POP SWAP2 SWAP1 POP JUMP JUMPDEST PUSH1 0x0 PUSH20 0xFFFFFFFFFFFFFFFFFFFFFFFFFFFFFFFFFFFFFFFF DUP3 AND SWAP1 POP SWAP2 SWAP1 POP JUMP JUMPDEST PUSH1 0x0 DUP2 SWAP1 POP SWAP2 SWAP1 POP JUMP JUMPDEST PUSH32 0x4E487B7100000000000000000000000000000000000000000000000000000000 PUSH1 0x0 MSTORE PUSH1 0x11 PUSH1 0x4 MSTORE PUSH1 0x24 PUSH1 0x0 REVERT JUMPDEST PUSH1 0x0 DUP1 REVERT JUMPDEST PUSH32 0x4974656D206973207061696420666F7220616C72656164792E00000000000000 PUSH1 0x0 DUP3 ADD MSTORE POP JUMP JUMPDEST PUSH32 0x506C656173652070617920657861637420616D6F756E742E0000000000000000 PUSH1 0x0 DUP3 ADD MSTORE POP JUMP JUMPDEST PUSH2 0x4A1 DUP2 PUSH2 0x3D6 JUMP JUMPDEST DUP2 EQ PUSH2 0x4AC JUMPI PUSH1 0x0 DUP1 REVERT JUMPDEST POP JUMP INVALID LOG2 PUSH5 0x6970667358 0x22 SLT KECCAK256 BASEFEE SWAP8 0x4E 0xC3 MSTORE 0xCB CHAINID 0xE LOG4 0x4E 0xDF PUSH1 0xF9 0xB2 DIFFICULTY SSTORE 0xBF 0xE7 0xB1 PUSH12 0x9206D1E655B12410C44B2294 PUSH5 0x736F6C6343 STOP ADDMOD SMOD STOP CALLER LOG2 PUSH5 0x6970667358 0x22 SLT KECCAK256 0xAD 0x1F 0xF8 SWAP12 SDIV EQ GASLIMIT 0x5C 0xAB CALLCODE 0xED SELFBALANCE PUSH31 0xFDDD40E6FC403BAB953723BEB97C08A88329F364736F6C6343000807003300 "
				},
				"gasEstimates": {
					"creation": {
						"codeDepositCost": "1111200",
						"executionCost": "1154",
						"totalCost": "1112354"
					},
					"external": {
						"createItem(string,uint256)": "infinite",
						"items(uint256)": "infinite",
						"triggerDelivery(uint256)": "infinite",
						"triggerPayment(uint256)": "infinite"
					}
				},
				"methodIdentifiers": {
					"createItem(string,uint256)": "8c551742",
					"items(uint256)": "bfb231d2",
					"triggerDelivery(uint256)": "cd31831e",
					"triggerPayment(uint256)": "800fb83f"
				}
			},
			"userdoc": {
				"kind": "user",
				"methods": {},
				"version": 1
			}
		}
	}
}