{
	"contracts/eventtrigger.sol": {
		"ItemManager": {
			"abi": [
				{
					"inputs": [
						{
							"internalType": "string",
							"name": "_identifier",
							"type": "string"
						},
						{
							"internalType": "uint256",
							"name": "_itemPrice",
							"type": "uint256"
						}
					],
					"name": "createItem",
					"outputs": [],
					"stateMutability": "nonpayable",
					"type": "function"
				},
				{
					"inputs": [
						{
							"internalType": "uint256",
							"name": "",
							"type": "uint256"
						}
					],
					"name": "items",
					"outputs": [
						{
							"internalType": "string",
							"name": "_identifier",
							"type": "string"
						},
						{
							"internalType": "uint256",
							"name": "_itemPrice",
							"type": "uint256"
						},
						{
							"internalType": "enum ItemManager.AutoChainState",
							"name": "_state",
							"type": "uint8"
						}
					],
					"stateMutability": "view",
					"type": "function"
				},
				{
					"inputs": [],
					"name": "triggerDelivery",
					"outputs": [],
					"stateMutability": "nonpayable",
					"type": "function"
				},
				{
					"inputs": [],
					"name": "triggerPayment",
					"outputs": [],
					"stateMutability": "nonpayable",
					"type": "function"
				}
			],
			"devdoc": {
				"kind": "dev",
				"methods": {},
				"version": 1
			},
			"evm": {
				"assembly": "    /* \"contracts/eventtrigger.sol\":60:697  contract ItemManager {\r... */\n  mstore(0x40, 0x80)\n  callvalue\n  dup1\n  iszero\n  tag_1\n  jumpi\n  0x00\n  dup1\n  revert\ntag_1:\n  pop\n  dataSize(sub_0)\n  dup1\n  dataOffset(sub_0)\n  0x00\n  codecopy\n  0x00\n  return\nstop\n\nsub_0: assembly {\n        /* \"contracts/eventtrigger.sol\":60:697  contract ItemManager {\r... */\n      mstore(0x40, 0x80)\n      callvalue\n      dup1\n      iszero\n      tag_1\n      jumpi\n      0x00\n      dup1\n      revert\n    tag_1:\n      pop\n      jumpi(tag_2, lt(calldatasize, 0x04))\n      shr(0xe0, calldataload(0x00))\n      dup1\n      0xce2057\n      eq\n      tag_3\n      jumpi\n      dup1\n      0x5f4fe7b6\n      eq\n      tag_4\n      jumpi\n      dup1\n      0x8c551742\n      eq\n      tag_5\n      jumpi\n      dup1\n      0xbfb231d2\n      eq\n      tag_6\n      jumpi\n    tag_2:\n      0x00\n      dup1\n      revert\n        /* \"contracts/eventtrigger.sol\":597:641  function triggerPayment () public {\r... */\n    tag_3:\n      tag_7\n      tag_8\n      jump\t// in\n    tag_7:\n      stop\n        /* \"contracts/eventtrigger.sol\":649:694  function triggerDelivery () public {\r... */\n    tag_4:\n      tag_9\n      tag_10\n      jump\t// in\n    tag_9:\n      stop\n        /* \"contracts/eventtrigger.sol\":336:589  function createItem (string memory _identifier, uint _itemPrice) public {\r... */\n    tag_5:\n      tag_11\n      0x04\n      dup1\n      calldatasize\n      sub\n      dup2\n      add\n      swap1\n      tag_12\n      swap2\n      swap1\n      tag_13\n      jump\t// in\n    tag_12:\n      tag_14\n      jump\t// in\n    tag_11:\n      stop\n        /* \"contracts/eventtrigger.sol\":271:306  mapping (uint => item) public items */\n    tag_6:\n      tag_15\n      0x04\n      dup1\n      calldatasize\n      sub\n      dup2\n      add\n      swap1\n      tag_16\n      swap2\n      swap1\n      tag_17\n      jump\t// in\n    tag_16:\n      tag_18\n      jump\t// in\n    tag_15:\n      mload(0x40)\n      tag_19\n      swap4\n      swap3\n      swap2\n      swap1\n      tag_20\n      jump\t// in\n    tag_19:\n      mload(0x40)\n      dup1\n      swap2\n      sub\n      swap1\n      return\n        /* \"contracts/eventtrigger.sol\":597:641  function triggerPayment () public {\r... */\n    tag_8:\n      jump\t// out\n        /* \"contracts/eventtrigger.sol\":649:694  function triggerDelivery () public {\r... */\n    tag_10:\n      jump\t// out\n        /* \"contracts/eventtrigger.sol\":336:589  function createItem (string memory _identifier, uint _itemPrice) public {\r... */\n    tag_14:\n        /* \"contracts/eventtrigger.sol\":450:461  _identifier */\n      dup2\n        /* \"contracts/eventtrigger.sol\":419:424  items */\n      0x00\n        /* \"contracts/eventtrigger.sol\":419:435  items[itemIndex] */\n      dup1\n        /* \"contracts/eventtrigger.sol\":425:434  itemIndex */\n      sload(0x01)\n        /* \"contracts/eventtrigger.sol\":419:435  items[itemIndex] */\n      dup2\n      mstore\n      0x20\n      add\n      swap1\n      dup2\n      mstore\n      0x20\n      add\n      0x00\n      keccak256\n        /* \"contracts/eventtrigger.sol\":419:447  items[itemIndex]._identifier */\n      0x00\n      add\n        /* \"contracts/eventtrigger.sol\":419:461  items[itemIndex]._identifier = _identifier */\n      swap1\n      dup1\n      mload\n      swap1\n      0x20\n      add\n      swap1\n      tag_24\n      swap3\n      swap2\n      swap1\n      tag_25\n      jump\t// in\n    tag_24:\n      pop\n        /* \"contracts/eventtrigger.sol\":502:512  _itemPrice */\n      dup1\n        /* \"contracts/eventtrigger.sol\":472:477  items */\n      0x00\n        /* \"contracts/eventtrigger.sol\":472:488  items[itemIndex] */\n      dup1\n        /* \"contracts/eventtrigger.sol\":478:487  itemIndex */\n      sload(0x01)\n        /* \"contracts/eventtrigger.sol\":472:488  items[itemIndex] */\n      dup2\n      mstore\n      0x20\n      add\n      swap1\n      dup2\n      mstore\n      0x20\n      add\n      0x00\n      keccak256\n        /* \"contracts/eventtrigger.sol\":472:499  items[itemIndex]._itemPrice */\n      0x01\n      add\n        /* \"contracts/eventtrigger.sol\":472:512  items[itemIndex]._itemPrice = _itemPrice */\n      dup2\n      swap1\n      sstore\n      pop\n        /* \"contracts/eventtrigger.sol\":549:571  AutoChainState.Created */\n      0x00\n        /* \"contracts/eventtrigger.sol\":523:528  items */\n      dup1\n        /* \"contracts/eventtrigger.sol\":523:539  items[itemIndex] */\n      0x00\n        /* \"contracts/eventtrigger.sol\":529:538  itemIndex */\n      sload(0x01)\n        /* \"contracts/eventtrigger.sol\":523:539  items[itemIndex] */\n      dup2\n      mstore\n      0x20\n      add\n      swap1\n      dup2\n      mstore\n      0x20\n      add\n      0x00\n      keccak256\n        /* \"contracts/eventtrigger.sol\":523:546  items[itemIndex]._state */\n      0x02\n      add\n      0x00\n        /* \"contracts/eventtrigger.sol\":523:571  items[itemIndex]._state = AutoChainState.Created */\n      0x0100\n      exp\n      dup2\n      sload\n      dup2\n      0xff\n      mul\n      not\n      and\n      swap1\n      dup4\n      0x02\n      dup2\n      gt\n      iszero\n      tag_26\n      jumpi\n      tag_27\n      tag_28\n      jump\t// in\n    tag_27:\n    tag_26:\n      mul\n      or\n      swap1\n      sstore\n      pop\n        /* \"contracts/eventtrigger.sol\":336:589  function createItem (string memory _identifier, uint _itemPrice) public {\r... */\n      pop\n      pop\n      jump\t// out\n        /* \"contracts/eventtrigger.sol\":271:306  mapping (uint => item) public items */\n    tag_18:\n      mstore(0x20, 0x00)\n      dup1\n      0x00\n      mstore\n      keccak256(0x00, 0x40)\n      0x00\n      swap2\n      pop\n      swap1\n      pop\n      dup1\n      0x00\n      add\n      dup1\n      sload\n      tag_29\n      swap1\n      tag_30\n      jump\t// in\n    tag_29:\n      dup1\n      0x1f\n      add\n      0x20\n      dup1\n      swap2\n      div\n      mul\n      0x20\n      add\n      mload(0x40)\n      swap1\n      dup2\n      add\n      0x40\n      mstore\n      dup1\n      swap3\n      swap2\n      swap1\n      dup2\n      dup2\n      mstore\n      0x20\n      add\n      dup3\n      dup1\n      sload\n      tag_31\n      swap1\n      tag_30\n      jump\t// in\n    tag_31:\n      dup1\n      iszero\n      tag_32\n      jumpi\n      dup1\n      0x1f\n      lt\n      tag_33\n      jumpi\n      0x0100\n      dup1\n      dup4\n      sload\n      div\n      mul\n      dup4\n      mstore\n      swap2\n      0x20\n      add\n      swap2\n      jump(tag_32)\n    tag_33:\n      dup3\n      add\n      swap2\n      swap1\n      0x00\n      mstore\n      keccak256(0x00, 0x20)\n      swap1\n    tag_34:\n      dup2\n      sload\n      dup2\n      mstore\n      swap1\n      0x01\n      add\n      swap1\n      0x20\n      add\n      dup1\n      dup4\n      gt\n      tag_34\n      jumpi\n      dup3\n      swap1\n      sub\n      0x1f\n      and\n      dup3\n      add\n      swap2\n    tag_32:\n      pop\n      pop\n      pop\n      pop\n      pop\n      swap1\n      dup1\n      0x01\n      add\n      sload\n      swap1\n      dup1\n      0x02\n      add\n      0x00\n      swap1\n      sload\n      swap1\n      0x0100\n      exp\n      swap1\n      div\n      0xff\n      and\n      swap1\n      pop\n      dup4\n      jump\t// out\n    tag_25:\n      dup3\n      dup1\n      sload\n      tag_35\n      swap1\n      tag_30\n      jump\t// in\n    tag_35:\n      swap1\n      0x00\n      mstore\n      keccak256(0x00, 0x20)\n      swap1\n      0x1f\n      add\n      0x20\n      swap1\n      div\n      dup2\n      add\n      swap3\n      dup3\n      tag_37\n      jumpi\n      0x00\n      dup6\n      sstore\n      jump(tag_36)\n    tag_37:\n      dup3\n      0x1f\n      lt\n      tag_38\n      jumpi\n      dup1\n      mload\n      not(0xff)\n      and\n      dup4\n      dup1\n      add\n      or\n      dup6\n      sstore\n      jump(tag_36)\n    tag_38:\n      dup3\n      dup1\n      add\n      0x01\n      add\n      dup6\n      sstore\n      dup3\n      iszero\n      tag_36\n      jumpi\n      swap2\n      dup3\n      add\n    tag_39:\n      dup3\n      dup2\n      gt\n      iszero\n      tag_40\n      jumpi\n      dup3\n      mload\n      dup3\n      sstore\n      swap2\n      0x20\n      add\n      swap2\n      swap1\n      0x01\n      add\n      swap1\n      jump(tag_39)\n    tag_40:\n    tag_36:\n      pop\n      swap1\n      pop\n      tag_41\n      swap2\n      swap1\n      tag_42\n      jump\t// in\n    tag_41:\n      pop\n      swap1\n      jump\t// out\n    tag_42:\n    tag_43:\n      dup1\n      dup3\n      gt\n      iszero\n      tag_44\n      jumpi\n      0x00\n      dup2\n      0x00\n      swap1\n      sstore\n      pop\n      0x01\n      add\n      jump(tag_43)\n    tag_44:\n      pop\n      swap1\n      jump\t// out\n        /* \"#utility.yul\":7:419   */\n    tag_46:\n        /* \"#utility.yul\":85:90   */\n      0x00\n        /* \"#utility.yul\":110:176   */\n      tag_48\n        /* \"#utility.yul\":126:175   */\n      tag_49\n        /* \"#utility.yul\":168:174   */\n      dup5\n        /* \"#utility.yul\":126:175   */\n      tag_50\n      jump\t// in\n    tag_49:\n        /* \"#utility.yul\":110:176   */\n      tag_51\n      jump\t// in\n    tag_48:\n        /* \"#utility.yul\":101:176   */\n      swap1\n      pop\n        /* \"#utility.yul\":199:205   */\n      dup3\n        /* \"#utility.yul\":192:197   */\n      dup2\n        /* \"#utility.yul\":185:206   */\n      mstore\n        /* \"#utility.yul\":237:241   */\n      0x20\n        /* \"#utility.yul\":230:235   */\n      dup2\n        /* \"#utility.yul\":226:242   */\n      add\n        /* \"#utility.yul\":275:278   */\n      dup5\n        /* \"#utility.yul\":266:272   */\n      dup5\n        /* \"#utility.yul\":261:264   */\n      dup5\n        /* \"#utility.yul\":257:273   */\n      add\n        /* \"#utility.yul\":254:279   */\n      gt\n        /* \"#utility.yul\":251:363   */\n      iszero\n      tag_52\n      jumpi\n        /* \"#utility.yul\":282:361   */\n      tag_53\n      tag_54\n      jump\t// in\n    tag_53:\n        /* \"#utility.yul\":251:363   */\n    tag_52:\n        /* \"#utility.yul\":372:413   */\n      tag_55\n        /* \"#utility.yul\":406:412   */\n      dup5\n        /* \"#utility.yul\":401:404   */\n      dup3\n        /* \"#utility.yul\":396:399   */\n      dup6\n        /* \"#utility.yul\":372:413   */\n      tag_56\n      jump\t// in\n    tag_55:\n        /* \"#utility.yul\":91:419   */\n      pop\n        /* \"#utility.yul\":7:419   */\n      swap4\n      swap3\n      pop\n      pop\n      pop\n      jump\t// out\n        /* \"#utility.yul\":439:779   */\n    tag_57:\n        /* \"#utility.yul\":495:500   */\n      0x00\n        /* \"#utility.yul\":544:547   */\n      dup3\n        /* \"#utility.yul\":537:541   */\n      0x1f\n        /* \"#utility.yul\":529:535   */\n      dup4\n        /* \"#utility.yul\":525:542   */\n      add\n        /* \"#utility.yul\":521:548   */\n      slt\n        /* \"#utility.yul\":511:633   */\n      tag_59\n      jumpi\n        /* \"#utility.yul\":552:631   */\n      tag_60\n      tag_61\n      jump\t// in\n    tag_60:\n        /* \"#utility.yul\":511:633   */\n    tag_59:\n        /* \"#utility.yul\":669:675   */\n      dup2\n        /* \"#utility.yul\":656:676   */\n      calldataload\n        /* \"#utility.yul\":694:773   */\n      tag_62\n        /* \"#utility.yul\":769:772   */\n      dup5\n        /* \"#utility.yul\":761:767   */\n      dup3\n        /* \"#utility.yul\":754:758   */\n      0x20\n        /* \"#utility.yul\":746:752   */\n      dup7\n        /* \"#utility.yul\":742:759   */\n      add\n        /* \"#utility.yul\":694:773   */\n      tag_46\n      jump\t// in\n    tag_62:\n        /* \"#utility.yul\":685:773   */\n      swap2\n      pop\n        /* \"#utility.yul\":501:779   */\n      pop\n        /* \"#utility.yul\":439:779   */\n      swap3\n      swap2\n      pop\n      pop\n      jump\t// out\n        /* \"#utility.yul\":785:924   */\n    tag_63:\n        /* \"#utility.yul\":831:836   */\n      0x00\n        /* \"#utility.yul\":869:875   */\n      dup2\n        /* \"#utility.yul\":856:876   */\n      calldataload\n        /* \"#utility.yul\":847:876   */\n      swap1\n      pop\n        /* \"#utility.yul\":885:918   */\n      tag_65\n        /* \"#utility.yul\":912:917   */\n      dup2\n        /* \"#utility.yul\":885:918   */\n      tag_66\n      jump\t// in\n    tag_65:\n        /* \"#utility.yul\":785:924   */\n      swap3\n      swap2\n      pop\n      pop\n      jump\t// out\n        /* \"#utility.yul\":930:1584   */\n    tag_13:\n        /* \"#utility.yul\":1008:1014   */\n      0x00\n        /* \"#utility.yul\":1016:1022   */\n      dup1\n        /* \"#utility.yul\":1065:1067   */\n      0x40\n        /* \"#utility.yul\":1053:1062   */\n      dup4\n        /* \"#utility.yul\":1044:1051   */\n      dup6\n        /* \"#utility.yul\":1040:1063   */\n      sub\n        /* \"#utility.yul\":1036:1068   */\n      slt\n        /* \"#utility.yul\":1033:1152   */\n      iszero\n      tag_68\n      jumpi\n        /* \"#utility.yul\":1071:1150   */\n      tag_69\n      tag_70\n      jump\t// in\n    tag_69:\n        /* \"#utility.yul\":1033:1152   */\n    tag_68:\n        /* \"#utility.yul\":1219:1220   */\n      0x00\n        /* \"#utility.yul\":1208:1217   */\n      dup4\n        /* \"#utility.yul\":1204:1221   */\n      add\n        /* \"#utility.yul\":1191:1222   */\n      calldataload\n        /* \"#utility.yul\":1249:1267   */\n      0xffffffffffffffff\n        /* \"#utility.yul\":1241:1247   */\n      dup2\n        /* \"#utility.yul\":1238:1268   */\n      gt\n        /* \"#utility.yul\":1235:1352   */\n      iszero\n      tag_71\n      jumpi\n        /* \"#utility.yul\":1271:1350   */\n      tag_72\n      tag_73\n      jump\t// in\n    tag_72:\n        /* \"#utility.yul\":1235:1352   */\n    tag_71:\n        /* \"#utility.yul\":1376:1439   */\n      tag_74\n        /* \"#utility.yul\":1431:1438   */\n      dup6\n        /* \"#utility.yul\":1422:1428   */\n      dup3\n        /* \"#utility.yul\":1411:1420   */\n      dup7\n        /* \"#utility.yul\":1407:1429   */\n      add\n        /* \"#utility.yul\":1376:1439   */\n      tag_57\n      jump\t// in\n    tag_74:\n        /* \"#utility.yul\":1366:1439   */\n      swap3\n      pop\n        /* \"#utility.yul\":1162:1449   */\n      pop\n        /* \"#utility.yul\":1488:1490   */\n      0x20\n        /* \"#utility.yul\":1514:1567   */\n      tag_75\n        /* \"#utility.yul\":1559:1566   */\n      dup6\n        /* \"#utility.yul\":1550:1556   */\n      dup3\n        /* \"#utility.yul\":1539:1548   */\n      dup7\n        /* \"#utility.yul\":1535:1557   */\n      add\n        /* \"#utility.yul\":1514:1567   */\n      tag_63\n      jump\t// in\n    tag_75:\n        /* \"#utility.yul\":1504:1567   */\n      swap2\n      pop\n        /* \"#utility.yul\":1459:1577   */\n      pop\n        /* \"#utility.yul\":930:1584   */\n      swap3\n      pop\n      swap3\n      swap1\n      pop\n      jump\t// out\n        /* \"#utility.yul\":1590:1919   */\n    tag_17:\n        /* \"#utility.yul\":1649:1655   */\n      0x00\n        /* \"#utility.yul\":1698:1700   */\n      0x20\n        /* \"#utility.yul\":1686:1695   */\n      dup3\n        /* \"#utility.yul\":1677:1684   */\n      dup5\n        /* \"#utility.yul\":1673:1696   */\n      sub\n        /* \"#utility.yul\":1669:1701   */\n      slt\n        /* \"#utility.yul\":1666:1785   */\n      iszero\n      tag_77\n      jumpi\n        /* \"#utility.yul\":1704:1783   */\n      tag_78\n      tag_70\n      jump\t// in\n    tag_78:\n        /* \"#utility.yul\":1666:1785   */\n    tag_77:\n        /* \"#utility.yul\":1824:1825   */\n      0x00\n        /* \"#utility.yul\":1849:1902   */\n      tag_79\n        /* \"#utility.yul\":1894:1901   */\n      dup5\n        /* \"#utility.yul\":1885:1891   */\n      dup3\n        /* \"#utility.yul\":1874:1883   */\n      dup6\n        /* \"#utility.yul\":1870:1892   */\n      add\n        /* \"#utility.yul\":1849:1902   */\n      tag_63\n      jump\t// in\n    tag_79:\n        /* \"#utility.yul\":1839:1902   */\n      swap2\n      pop\n        /* \"#utility.yul\":1795:1912   */\n      pop\n        /* \"#utility.yul\":1590:1919   */\n      swap3\n      swap2\n      pop\n      pop\n      jump\t// out\n        /* \"#utility.yul\":1925:2084   */\n    tag_80:\n        /* \"#utility.yul\":2026:2077   */\n      tag_82\n        /* \"#utility.yul\":2071:2076   */\n      dup2\n        /* \"#utility.yul\":2026:2077   */\n      tag_83\n      jump\t// in\n    tag_82:\n        /* \"#utility.yul\":2021:2024   */\n      dup3\n        /* \"#utility.yul\":2014:2078   */\n      mstore\n        /* \"#utility.yul\":1925:2084   */\n      pop\n      pop\n      jump\t// out\n        /* \"#utility.yul\":2090:2454   */\n    tag_84:\n        /* \"#utility.yul\":2178:2181   */\n      0x00\n        /* \"#utility.yul\":2206:2245   */\n      tag_86\n        /* \"#utility.yul\":2239:2244   */\n      dup3\n        /* \"#utility.yul\":2206:2245   */\n      tag_87\n      jump\t// in\n    tag_86:\n        /* \"#utility.yul\":2261:2332   */\n      tag_88\n        /* \"#utility.yul\":2325:2331   */\n      dup2\n        /* \"#utility.yul\":2320:2323   */\n      dup6\n        /* \"#utility.yul\":2261:2332   */\n      tag_89\n      jump\t// in\n    tag_88:\n        /* \"#utility.yul\":2254:2332   */\n      swap4\n      pop\n        /* \"#utility.yul\":2341:2393   */\n      tag_90\n        /* \"#utility.yul\":2386:2392   */\n      dup2\n        /* \"#utility.yul\":2381:2384   */\n      dup6\n        /* \"#utility.yul\":2374:2378   */\n      0x20\n        /* \"#utility.yul\":2367:2372   */\n      dup7\n        /* \"#utility.yul\":2363:2379   */\n      add\n        /* \"#utility.yul\":2341:2393   */\n      tag_91\n      jump\t// in\n    tag_90:\n        /* \"#utility.yul\":2418:2447   */\n      tag_92\n        /* \"#utility.yul\":2440:2446   */\n      dup2\n        /* \"#utility.yul\":2418:2447   */\n      tag_93\n      jump\t// in\n    tag_92:\n        /* \"#utility.yul\":2413:2416   */\n      dup5\n        /* \"#utility.yul\":2409:2448   */\n      add\n        /* \"#utility.yul\":2402:2448   */\n      swap2\n      pop\n        /* \"#utility.yul\":2182:2454   */\n      pop\n        /* \"#utility.yul\":2090:2454   */\n      swap3\n      swap2\n      pop\n      pop\n      jump\t// out\n        /* \"#utility.yul\":2460:2578   */\n    tag_94:\n        /* \"#utility.yul\":2547:2571   */\n      tag_96\n        /* \"#utility.yul\":2565:2570   */\n      dup2\n        /* \"#utility.yul\":2547:2571   */\n      tag_97\n      jump\t// in\n    tag_96:\n        /* \"#utility.yul\":2542:2545   */\n      dup3\n        /* \"#utility.yul\":2535:2572   */\n      mstore\n        /* \"#utility.yul\":2460:2578   */\n      pop\n      pop\n      jump\t// out\n        /* \"#utility.yul\":2584:3145   */\n    tag_20:\n        /* \"#utility.yul\":2767:2771   */\n      0x00\n        /* \"#utility.yul\":2805:2807   */\n      0x60\n        /* \"#utility.yul\":2794:2803   */\n      dup3\n        /* \"#utility.yul\":2790:2808   */\n      add\n        /* \"#utility.yul\":2782:2808   */\n      swap1\n      pop\n        /* \"#utility.yul\":2854:2863   */\n      dup2\n        /* \"#utility.yul\":2848:2852   */\n      dup2\n        /* \"#utility.yul\":2844:2864   */\n      sub\n        /* \"#utility.yul\":2840:2841   */\n      0x00\n        /* \"#utility.yul\":2829:2838   */\n      dup4\n        /* \"#utility.yul\":2825:2842   */\n      add\n        /* \"#utility.yul\":2818:2865   */\n      mstore\n        /* \"#utility.yul\":2882:2960   */\n      tag_99\n        /* \"#utility.yul\":2955:2959   */\n      dup2\n        /* \"#utility.yul\":2946:2952   */\n      dup7\n        /* \"#utility.yul\":2882:2960   */\n      tag_84\n      jump\t// in\n    tag_99:\n        /* \"#utility.yul\":2874:2960   */\n      swap1\n      pop\n        /* \"#utility.yul\":2970:3042   */\n      tag_100\n        /* \"#utility.yul\":3038:3040   */\n      0x20\n        /* \"#utility.yul\":3027:3036   */\n      dup4\n        /* \"#utility.yul\":3023:3041   */\n      add\n        /* \"#utility.yul\":3014:3020   */\n      dup6\n        /* \"#utility.yul\":2970:3042   */\n      tag_94\n      jump\t// in\n    tag_100:\n        /* \"#utility.yul\":3052:3138   */\n      tag_101\n        /* \"#utility.yul\":3134:3136   */\n      0x40\n        /* \"#utility.yul\":3123:3132   */\n      dup4\n        /* \"#utility.yul\":3119:3137   */\n      add\n        /* \"#utility.yul\":3110:3116   */\n      dup5\n        /* \"#utility.yul\":3052:3138   */\n      tag_80\n      jump\t// in\n    tag_101:\n        /* \"#utility.yul\":2584:3145   */\n      swap5\n      swap4\n      pop\n      pop\n      pop\n      pop\n      jump\t// out\n        /* \"#utility.yul\":3151:3280   */\n    tag_51:\n        /* \"#utility.yul\":3185:3191   */\n      0x00\n        /* \"#utility.yul\":3212:3232   */\n      tag_103\n      tag_104\n      jump\t// in\n    tag_103:\n        /* \"#utility.yul\":3202:3232   */\n      swap1\n      pop\n        /* \"#utility.yul\":3241:3274   */\n      tag_105\n        /* \"#utility.yul\":3269:3273   */\n      dup3\n        /* \"#utility.yul\":3261:3267   */\n      dup3\n        /* \"#utility.yul\":3241:3274   */\n      tag_106\n      jump\t// in\n    tag_105:\n        /* \"#utility.yul\":3151:3280   */\n      swap2\n      swap1\n      pop\n      jump\t// out\n        /* \"#utility.yul\":3286:3361   */\n    tag_104:\n        /* \"#utility.yul\":3319:3325   */\n      0x00\n        /* \"#utility.yul\":3352:3354   */\n      0x40\n        /* \"#utility.yul\":3346:3355   */\n      mload\n        /* \"#utility.yul\":3336:3355   */\n      swap1\n      pop\n        /* \"#utility.yul\":3286:3361   */\n      swap1\n      jump\t// out\n        /* \"#utility.yul\":3367:3675   */\n    tag_50:\n        /* \"#utility.yul\":3429:3433   */\n      0x00\n        /* \"#utility.yul\":3519:3537   */\n      0xffffffffffffffff\n        /* \"#utility.yul\":3511:3517   */\n      dup3\n        /* \"#utility.yul\":3508:3538   */\n      gt\n        /* \"#utility.yul\":3505:3561   */\n      iszero\n      tag_109\n      jumpi\n        /* \"#utility.yul\":3541:3559   */\n      tag_110\n      tag_111\n      jump\t// in\n    tag_110:\n        /* \"#utility.yul\":3505:3561   */\n    tag_109:\n        /* \"#utility.yul\":3579:3608   */\n      tag_112\n        /* \"#utility.yul\":3601:3607   */\n      dup3\n        /* \"#utility.yul\":3579:3608   */\n      tag_93\n      jump\t// in\n    tag_112:\n        /* \"#utility.yul\":3571:3608   */\n      swap1\n      pop\n        /* \"#utility.yul\":3663:3667   */\n      0x20\n        /* \"#utility.yul\":3657:3661   */\n      dup2\n        /* \"#utility.yul\":3653:3668   */\n      add\n        /* \"#utility.yul\":3645:3668   */\n      swap1\n      pop\n        /* \"#utility.yul\":3367:3675   */\n      swap2\n      swap1\n      pop\n      jump\t// out\n        /* \"#utility.yul\":3681:3780   */\n    tag_87:\n        /* \"#utility.yul\":3733:3739   */\n      0x00\n        /* \"#utility.yul\":3767:3772   */\n      dup2\n        /* \"#utility.yul\":3761:3773   */\n      mload\n        /* \"#utility.yul\":3751:3773   */\n      swap1\n      pop\n        /* \"#utility.yul\":3681:3780   */\n      swap2\n      swap1\n      pop\n      jump\t// out\n        /* \"#utility.yul\":3786:3955   */\n    tag_89:\n        /* \"#utility.yul\":3870:3881   */\n      0x00\n        /* \"#utility.yul\":3904:3910   */\n      dup3\n        /* \"#utility.yul\":3899:3902   */\n      dup3\n        /* \"#utility.yul\":3892:3911   */\n      mstore\n        /* \"#utility.yul\":3944:3948   */\n      0x20\n        /* \"#utility.yul\":3939:3942   */\n      dup3\n        /* \"#utility.yul\":3935:3949   */\n      add\n        /* \"#utility.yul\":3920:3949   */\n      swap1\n      pop\n        /* \"#utility.yul\":3786:3955   */\n      swap3\n      swap2\n      pop\n      pop\n      jump\t// out\n        /* \"#utility.yul\":3961:4104   */\n    tag_115:\n        /* \"#utility.yul\":4014:4021   */\n      0x00\n        /* \"#utility.yul\":4043:4048   */\n      dup2\n        /* \"#utility.yul\":4032:4048   */\n      swap1\n      pop\n        /* \"#utility.yul\":4049:4098   */\n      tag_117\n        /* \"#utility.yul\":4092:4097   */\n      dup3\n        /* \"#utility.yul\":4049:4098   */\n      tag_118\n      jump\t// in\n    tag_117:\n        /* \"#utility.yul\":3961:4104   */\n      swap2\n      swap1\n      pop\n      jump\t// out\n        /* \"#utility.yul\":4110:4187   */\n    tag_97:\n        /* \"#utility.yul\":4147:4154   */\n      0x00\n        /* \"#utility.yul\":4176:4181   */\n      dup2\n        /* \"#utility.yul\":4165:4181   */\n      swap1\n      pop\n        /* \"#utility.yul\":4110:4187   */\n      swap2\n      swap1\n      pop\n      jump\t// out\n        /* \"#utility.yul\":4193:4336   */\n    tag_83:\n        /* \"#utility.yul\":4257:4266   */\n      0x00\n        /* \"#utility.yul\":4290:4330   */\n      tag_121\n        /* \"#utility.yul\":4324:4329   */\n      dup3\n        /* \"#utility.yul\":4290:4330   */\n      tag_115\n      jump\t// in\n    tag_121:\n        /* \"#utility.yul\":4277:4330   */\n      swap1\n      pop\n        /* \"#utility.yul\":4193:4336   */\n      swap2\n      swap1\n      pop\n      jump\t// out\n        /* \"#utility.yul\":4342:4496   */\n    tag_56:\n        /* \"#utility.yul\":4426:4432   */\n      dup3\n        /* \"#utility.yul\":4421:4424   */\n      dup2\n        /* \"#utility.yul\":4416:4419   */\n      dup4\n        /* \"#utility.yul\":4403:4433   */\n      calldatacopy\n        /* \"#utility.yul\":4488:4489   */\n      0x00\n        /* \"#utility.yul\":4479:4485   */\n      dup4\n        /* \"#utility.yul\":4474:4477   */\n      dup4\n        /* \"#utility.yul\":4470:4486   */\n      add\n        /* \"#utility.yul\":4463:4490   */\n      mstore\n        /* \"#utility.yul\":4342:4496   */\n      pop\n      pop\n      pop\n      jump\t// out\n        /* \"#utility.yul\":4502:4809   */\n    tag_91:\n        /* \"#utility.yul\":4570:4571   */\n      0x00\n        /* \"#utility.yul\":4580:4693   */\n    tag_124:\n        /* \"#utility.yul\":4594:4600   */\n      dup4\n        /* \"#utility.yul\":4591:4592   */\n      dup2\n        /* \"#utility.yul\":4588:4601   */\n      lt\n        /* \"#utility.yul\":4580:4693   */\n      iszero\n      tag_126\n      jumpi\n        /* \"#utility.yul\":4679:4680   */\n      dup1\n        /* \"#utility.yul\":4674:4677   */\n      dup3\n        /* \"#utility.yul\":4670:4681   */\n      add\n        /* \"#utility.yul\":4664:4682   */\n      mload\n        /* \"#utility.yul\":4660:4661   */\n      dup2\n        /* \"#utility.yul\":4655:4658   */\n      dup5\n        /* \"#utility.yul\":4651:4662   */\n      add\n        /* \"#utility.yul\":4644:4683   */\n      mstore\n        /* \"#utility.yul\":4616:4618   */\n      0x20\n        /* \"#utility.yul\":4613:4614   */\n      dup2\n        /* \"#utility.yul\":4609:4619   */\n      add\n        /* \"#utility.yul\":4604:4619   */\n      swap1\n      pop\n        /* \"#utility.yul\":4580:4693   */\n      jump(tag_124)\n    tag_126:\n        /* \"#utility.yul\":4711:4717   */\n      dup4\n        /* \"#utility.yul\":4708:4709   */\n      dup2\n        /* \"#utility.yul\":4705:4718   */\n      gt\n        /* \"#utility.yul\":4702:4803   */\n      iszero\n      tag_127\n      jumpi\n        /* \"#utility.yul\":4791:4792   */\n      0x00\n        /* \"#utility.yul\":4782:4788   */\n      dup5\n        /* \"#utility.yul\":4777:4780   */\n      dup5\n        /* \"#utility.yul\":4773:4789   */\n      add\n        /* \"#utility.yul\":4766:4793   */\n      mstore\n        /* \"#utility.yul\":4702:4803   */\n    tag_127:\n        /* \"#utility.yul\":4551:4809   */\n      pop\n        /* \"#utility.yul\":4502:4809   */\n      pop\n      pop\n      pop\n      jump\t// out\n        /* \"#utility.yul\":4815:5135   */\n    tag_30:\n        /* \"#utility.yul\":4859:4865   */\n      0x00\n        /* \"#utility.yul\":4896:4897   */\n      0x02\n        /* \"#utility.yul\":4890:4894   */\n      dup3\n        /* \"#utility.yul\":4886:4898   */\n      div\n        /* \"#utility.yul\":4876:4898   */\n      swap1\n      pop\n        /* \"#utility.yul\":4943:4944   */\n      0x01\n        /* \"#utility.yul\":4937:4941   */\n      dup3\n        /* \"#utility.yul\":4933:4945   */\n      and\n        /* \"#utility.yul\":4964:4982   */\n      dup1\n        /* \"#utility.yul\":4954:5035   */\n      tag_129\n      jumpi\n        /* \"#utility.yul\":5020:5024   */\n      0x7f\n        /* \"#utility.yul\":5012:5018   */\n      dup3\n        /* \"#utility.yul\":5008:5025   */\n      and\n        /* \"#utility.yul\":4998:5025   */\n      swap2\n      pop\n        /* \"#utility.yul\":4954:5035   */\n    tag_129:\n        /* \"#utility.yul\":5082:5084   */\n      0x20\n        /* \"#utility.yul\":5074:5080   */\n      dup3\n        /* \"#utility.yul\":5071:5085   */\n      lt\n        /* \"#utility.yul\":5051:5069   */\n      dup2\n        /* \"#utility.yul\":5048:5086   */\n      eq\n        /* \"#utility.yul\":5045:5129   */\n      iszero\n      tag_130\n      jumpi\n        /* \"#utility.yul\":5101:5119   */\n      tag_131\n      tag_132\n      jump\t// in\n    tag_131:\n        /* \"#utility.yul\":5045:5129   */\n    tag_130:\n        /* \"#utility.yul\":4866:5135   */\n      pop\n        /* \"#utility.yul\":4815:5135   */\n      swap2\n      swap1\n      pop\n      jump\t// out\n        /* \"#utility.yul\":5141:5422   */\n    tag_106:\n        /* \"#utility.yul\":5224:5251   */\n      tag_134\n        /* \"#utility.yul\":5246:5250   */\n      dup3\n        /* \"#utility.yul\":5224:5251   */\n      tag_93\n      jump\t// in\n    tag_134:\n        /* \"#utility.yul\":5216:5222   */\n      dup2\n        /* \"#utility.yul\":5212:5252   */\n      add\n        /* \"#utility.yul\":5354:5360   */\n      dup2\n        /* \"#utility.yul\":5342:5352   */\n      dup2\n        /* \"#utility.yul\":5339:5361   */\n      lt\n        /* \"#utility.yul\":5318:5336   */\n      0xffffffffffffffff\n        /* \"#utility.yul\":5306:5316   */\n      dup3\n        /* \"#utility.yul\":5303:5337   */\n      gt\n        /* \"#utility.yul\":5300:5362   */\n      or\n        /* \"#utility.yul\":5297:5385   */\n      iszero\n      tag_135\n      jumpi\n        /* \"#utility.yul\":5365:5383   */\n      tag_136\n      tag_111\n      jump\t// in\n    tag_136:\n        /* \"#utility.yul\":5297:5385   */\n    tag_135:\n        /* \"#utility.yul\":5405:5415   */\n      dup1\n        /* \"#utility.yul\":5401:5403   */\n      0x40\n        /* \"#utility.yul\":5394:5416   */\n      mstore\n        /* \"#utility.yul\":5184:5422   */\n      pop\n        /* \"#utility.yul\":5141:5422   */\n      pop\n      pop\n      jump\t// out\n        /* \"#utility.yul\":5428:5608   */\n    tag_28:\n        /* \"#utility.yul\":5476:5553   */\n      0x4e487b7100000000000000000000000000000000000000000000000000000000\n        /* \"#utility.yul\":5473:5474   */\n      0x00\n        /* \"#utility.yul\":5466:5554   */\n      mstore\n        /* \"#utility.yul\":5573:5577   */\n      0x21\n        /* \"#utility.yul\":5570:5571   */\n      0x04\n        /* \"#utility.yul\":5563:5578   */\n      mstore\n        /* \"#utility.yul\":5597:5601   */\n      0x24\n        /* \"#utility.yul\":5594:5595   */\n      0x00\n        /* \"#utility.yul\":5587:5602   */\n      revert\n        /* \"#utility.yul\":5614:5794   */\n    tag_132:\n        /* \"#utility.yul\":5662:5739   */\n      0x4e487b7100000000000000000000000000000000000000000000000000000000\n        /* \"#utility.yul\":5659:5660   */\n      0x00\n        /* \"#utility.yul\":5652:5740   */\n      mstore\n        /* \"#utility.yul\":5759:5763   */\n      0x22\n        /* \"#utility.yul\":5756:5757   */\n      0x04\n        /* \"#utility.yul\":5749:5764   */\n      mstore\n        /* \"#utility.yul\":5783:5787   */\n      0x24\n        /* \"#utility.yul\":5780:5781   */\n      0x00\n        /* \"#utility.yul\":5773:5788   */\n      revert\n        /* \"#utility.yul\":5800:5980   */\n    tag_111:\n        /* \"#utility.yul\":5848:5925   */\n      0x4e487b7100000000000000000000000000000000000000000000000000000000\n        /* \"#utility.yul\":5845:5846   */\n      0x00\n        /* \"#utility.yul\":5838:5926   */\n      mstore\n        /* \"#utility.yul\":5945:5949   */\n      0x41\n        /* \"#utility.yul\":5942:5943   */\n      0x04\n        /* \"#utility.yul\":5935:5950   */\n      mstore\n        /* \"#utility.yul\":5969:5973   */\n      0x24\n        /* \"#utility.yul\":5966:5967   */\n      0x00\n        /* \"#utility.yul\":5959:5974   */\n      revert\n        /* \"#utility.yul\":5986:6103   */\n    tag_61:\n        /* \"#utility.yul\":6095:6096   */\n      0x00\n        /* \"#utility.yul\":6092:6093   */\n      dup1\n        /* \"#utility.yul\":6085:6097   */\n      revert\n        /* \"#utility.yul\":6109:6226   */\n    tag_54:\n        /* \"#utility.yul\":6218:6219   */\n      0x00\n        /* \"#utility.yul\":6215:6216   */\n      dup1\n        /* \"#utility.yul\":6208:6220   */\n      revert\n        /* \"#utility.yul\":6232:6349   */\n    tag_73:\n        /* \"#utility.yul\":6341:6342   */\n      0x00\n        /* \"#utility.yul\":6338:6339   */\n      dup1\n        /* \"#utility.yul\":6331:6343   */\n      revert\n        /* \"#utility.yul\":6355:6472   */\n    tag_70:\n        /* \"#utility.yul\":6464:6465   */\n      0x00\n        /* \"#utility.yul\":6461:6462   */\n      dup1\n        /* \"#utility.yul\":6454:6466   */\n      revert\n        /* \"#utility.yul\":6478:6580   */\n    tag_93:\n        /* \"#utility.yul\":6519:6525   */\n      0x00\n        /* \"#utility.yul\":6570:6572   */\n      0x1f\n        /* \"#utility.yul\":6566:6573   */\n      not\n        /* \"#utility.yul\":6561:6563   */\n      0x1f\n        /* \"#utility.yul\":6554:6559   */\n      dup4\n        /* \"#utility.yul\":6550:6564   */\n      add\n        /* \"#utility.yul\":6546:6574   */\n      and\n        /* \"#utility.yul\":6536:6574   */\n      swap1\n      pop\n        /* \"#utility.yul\":6478:6580   */\n      swap2\n      swap1\n      pop\n      jump\t// out\n        /* \"#utility.yul\":6586:6707   */\n    tag_118:\n        /* \"#utility.yul\":6675:6676   */\n      0x03\n        /* \"#utility.yul\":6668:6673   */\n      dup2\n        /* \"#utility.yul\":6665:6677   */\n      lt\n        /* \"#utility.yul\":6655:6701   */\n      tag_146\n      jumpi\n        /* \"#utility.yul\":6681:6699   */\n      tag_147\n      tag_28\n      jump\t// in\n    tag_147:\n        /* \"#utility.yul\":6655:6701   */\n    tag_146:\n        /* \"#utility.yul\":6586:6707   */\n      pop\n      jump\t// out\n        /* \"#utility.yul\":6713:6835   */\n    tag_66:\n        /* \"#utility.yul\":6786:6810   */\n      tag_149\n        /* \"#utility.yul\":6804:6809   */\n      dup2\n        /* \"#utility.yul\":6786:6810   */\n      tag_97\n      jump\t// in\n    tag_149:\n        /* \"#utility.yul\":6779:6784   */\n      dup2\n        /* \"#utility.yul\":6776:6811   */\n      eq\n        /* \"#utility.yul\":6766:6829   */\n      tag_150\n      jumpi\n        /* \"#utility.yul\":6825:6826   */\n      0x00\n        /* \"#utility.yul\":6822:6823   */\n      dup1\n        /* \"#utility.yul\":6815:6827   */\n      revert\n        /* \"#utility.yul\":6766:6829   */\n    tag_150:\n        /* \"#utility.yul\":6713:6835   */\n      pop\n      jump\t// out\n\n    auxdata: 0xa26469706673582212204c9fb154b7883ca24e3456a017a0e30fa9652820ac7109fc92f0989ebf8c41be64736f6c63430008070033\n}\n",
				"bytecode": {
					"linkReferences": {},
					"object": "608060405234801561001057600080fd5b506106a0806100206000396000f3fe608060405234801561001057600080fd5b506004361061004b5760003560e01c8062ce2057146100505780635f4fe7b61461005a5780638c55174214610064578063bfb231d214610080575b600080fd5b6100586100b2565b005b6100626100b4565b005b61007e60048036038101906100799190610329565b6100b6565b005b61009a60048036038101906100959190610385565b610142565b6040516100a993929190610409565b60405180910390f35b565b565b81600080600154815260200190815260200160002060000190805190602001906100e1929190610201565b50806000806001548152602001908152602001600020600101819055506000806000600154815260200190815260200160002060020160006101000a81548160ff021916908360028111156101395761013861058d565b5b02179055505050565b60006020528060005260406000206000915090508060000180546101659061052a565b80601f01602080910402602001604051908101604052809291908181526020018280546101919061052a565b80156101de5780601f106101b3576101008083540402835291602001916101de565b820191906000526020600020905b8154815290600101906020018083116101c157829003601f168201915b5050505050908060010154908060020160009054906101000a900460ff16905083565b82805461020d9061052a565b90600052602060002090601f01602090048101928261022f5760008555610276565b82601f1061024857805160ff1916838001178555610276565b82800160010185558215610276579182015b8281111561027557825182559160200191906001019061025a565b5b5090506102839190610287565b5090565b5b808211156102a0576000816000905550600101610288565b5090565b60006102b76102b28461046c565b610447565b9050828152602081018484840111156102d3576102d261061f565b5b6102de8482856104e8565b509392505050565b600082601f8301126102fb576102fa61061a565b5b813561030b8482602086016102a4565b91505092915050565b60008135905061032381610653565b92915050565b600080604083850312156103405761033f610629565b5b600083013567ffffffffffffffff81111561035e5761035d610624565b5b61036a858286016102e6565b925050602061037b85828601610314565b9150509250929050565b60006020828403121561039b5761039a610629565b5b60006103a984828501610314565b91505092915050565b6103bb816104d6565b82525050565b60006103cc8261049d565b6103d681856104a8565b93506103e68185602086016104f7565b6103ef8161062e565b840191505092915050565b610403816104cc565b82525050565b6000606082019050818103600083015261042381866103c1565b905061043260208301856103fa565b61043f60408301846103b2565b949350505050565b6000610451610462565b905061045d828261055c565b919050565b6000604051905090565b600067ffffffffffffffff821115610487576104866105eb565b5b6104908261062e565b9050602081019050919050565b600081519050919050565b600082825260208201905092915050565b60008190506104c78261063f565b919050565b6000819050919050565b60006104e1826104b9565b9050919050565b82818337600083830152505050565b60005b838110156105155780820151818401526020810190506104fa565b83811115610524576000848401525b50505050565b6000600282049050600182168061054257607f821691505b60208210811415610556576105556105bc565b5b50919050565b6105658261062e565b810181811067ffffffffffffffff82111715610584576105836105eb565b5b80604052505050565b7f4e487b7100000000000000000000000000000000000000000000000000000000600052602160045260246000fd5b7f4e487b7100000000000000000000000000000000000000000000000000000000600052602260045260246000fd5b7f4e487b7100000000000000000000000000000000000000000000000000000000600052604160045260246000fd5b600080fd5b600080fd5b600080fd5b600080fd5b6000601f19601f8301169050919050565b600381106106505761064f61058d565b5b50565b61065c816104cc565b811461066757600080fd5b5056fea26469706673582212204c9fb154b7883ca24e3456a017a0e30fa9652820ac7109fc92f0989ebf8c41be64736f6c63430008070033",
					"opcodes": "PUSH1 0x80 PUSH1 0x40 MSTORE CALLVALUE DUP1 ISZERO PUSH2 0x10 JUMPI PUSH1 0x0 DUP1 REVERT JUMPDEST POP PUSH2 0x6A0 DUP1 PUSH2 0x20 PUSH1 0x0 CODECOPY PUSH1 0x0 RETURN INVALID PUSH1 0x80 PUSH1 0x40 MSTORE CALLVALUE DUP1 ISZERO PUSH2 0x10 JUMPI PUSH1 0x0 DUP1 REVERT JUMPDEST POP PUSH1 0x4 CALLDATASIZE LT PUSH2 0x4B JUMPI PUSH1 0x0 CALLDATALOAD PUSH1 0xE0 SHR DUP1 PUSH3 0xCE2057 EQ PUSH2 0x50 JUMPI DUP1 PUSH4 0x5F4FE7B6 EQ PUSH2 0x5A JUMPI DUP1 PUSH4 0x8C551742 EQ PUSH2 0x64 JUMPI DUP1 PUSH4 0xBFB231D2 EQ PUSH2 0x80 JUMPI JUMPDEST PUSH1 0x0 DUP1 REVERT JUMPDEST PUSH2 0x58 PUSH2 0xB2 JUMP JUMPDEST STOP JUMPDEST PUSH2 0x62 PUSH2 0xB4 JUMP JUMPDEST STOP JUMPDEST PUSH2 0x7E PUSH1 0x4 DUP1 CALLDATASIZE SUB DUP2 ADD SWAP1 PUSH2 0x79 SWAP2 SWAP1 PUSH2 0x329 JUMP JUMPDEST PUSH2 0xB6 JUMP JUMPDEST STOP JUMPDEST PUSH2 0x9A PUSH1 0x4 DUP1 CALLDATASIZE SUB DUP2 ADD SWAP1 PUSH2 0x95 SWAP2 SWAP1 PUSH2 0x385 JUMP JUMPDEST PUSH2 0x142 JUMP JUMPDEST PUSH1 0x40 MLOAD PUSH2 0xA9 SWAP4 SWAP3 SWAP2 SWAP1 PUSH2 0x409 JUMP JUMPDEST PUSH1 0x40 MLOAD DUP1 SWAP2 SUB SWAP1 RETURN JUMPDEST JUMP JUMPDEST JUMP JUMPDEST DUP2 PUSH1 0x0 DUP1 PUSH1 0x1 SLOAD DUP2 MSTORE PUSH1 0x20 ADD SWAP1 DUP2 MSTORE PUSH1 0x20 ADD PUSH1 0x0 KECCAK256 PUSH1 0x0 ADD SWAP1 DUP1 MLOAD SWAP1 PUSH1 0x20 ADD SWAP1 PUSH2 0xE1 SWAP3 SWAP2 SWAP1 PUSH2 0x201 JUMP JUMPDEST POP DUP1 PUSH1 0x0 DUP1 PUSH1 0x1 SLOAD DUP2 MSTORE PUSH1 0x20 ADD SWAP1 DUP2 MSTORE PUSH1 0x20 ADD PUSH1 0x0 KECCAK256 PUSH1 0x1 ADD DUP2 SWAP1 SSTORE POP PUSH1 0x0 DUP1 PUSH1 0x0 PUSH1 0x1 SLOAD DUP2 MSTORE PUSH1 0x20 ADD SWAP1 DUP2 MSTORE PUSH1 0x20 ADD PUSH1 0x0 KECCAK256 PUSH1 0x2 ADD PUSH1 0x0 PUSH2 0x100 EXP DUP2 SLOAD DUP2 PUSH1 0xFF MUL NOT AND SWAP1 DUP4 PUSH1 0x2 DUP2 GT ISZERO PUSH2 0x139 JUMPI PUSH2 0x138 PUSH2 0x58D JUMP JUMPDEST JUMPDEST MUL OR SWAP1 SSTORE POP POP POP JUMP JUMPDEST PUSH1 0x0 PUSH1 0x20 MSTORE DUP1 PUSH1 0x0 MSTORE PUSH1 0x40 PUSH1 0x0 KECCAK256 PUSH1 0x0 SWAP2 POP SWAP1 POP DUP1 PUSH1 0x0 ADD DUP1 SLOAD PUSH2 0x165 SWAP1 PUSH2 0x52A JUMP JUMPDEST DUP1 PUSH1 0x1F ADD PUSH1 0x20 DUP1 SWAP2 DIV MUL PUSH1 0x20 ADD PUSH1 0x40 MLOAD SWAP1 DUP2 ADD PUSH1 0x40 MSTORE DUP1 SWAP3 SWAP2 SWAP1 DUP2 DUP2 MSTORE PUSH1 0x20 ADD DUP3 DUP1 SLOAD PUSH2 0x191 SWAP1 PUSH2 0x52A JUMP JUMPDEST DUP1 ISZERO PUSH2 0x1DE JUMPI DUP1 PUSH1 0x1F LT PUSH2 0x1B3 JUMPI PUSH2 0x100 DUP1 DUP4 SLOAD DIV MUL DUP4 MSTORE SWAP2 PUSH1 0x20 ADD SWAP2 PUSH2 0x1DE JUMP JUMPDEST DUP3 ADD SWAP2 SWAP1 PUSH1 0x0 MSTORE PUSH1 0x20 PUSH1 0x0 KECCAK256 SWAP1 JUMPDEST DUP2 SLOAD DUP2 MSTORE SWAP1 PUSH1 0x1 ADD SWAP1 PUSH1 0x20 ADD DUP1 DUP4 GT PUSH2 0x1C1 JUMPI DUP3 SWAP1 SUB PUSH1 0x1F AND DUP3 ADD SWAP2 JUMPDEST POP POP POP POP POP SWAP1 DUP1 PUSH1 0x1 ADD SLOAD SWAP1 DUP1 PUSH1 0x2 ADD PUSH1 0x0 SWAP1 SLOAD SWAP1 PUSH2 0x100 EXP SWAP1 DIV PUSH1 0xFF AND SWAP1 POP DUP4 JUMP JUMPDEST DUP3 DUP1 SLOAD PUSH2 0x20D SWAP1 PUSH2 0x52A JUMP JUMPDEST SWAP1 PUSH1 0x0 MSTORE PUSH1 0x20 PUSH1 0x0 KECCAK256 SWAP1 PUSH1 0x1F ADD PUSH1 0x20 SWAP1 DIV DUP2 ADD SWAP3 DUP3 PUSH2 0x22F JUMPI PUSH1 0x0 DUP6 SSTORE PUSH2 0x276 JUMP JUMPDEST DUP3 PUSH1 0x1F LT PUSH2 0x248 JUMPI DUP1 MLOAD PUSH1 0xFF NOT AND DUP4 DUP1 ADD OR DUP6 SSTORE PUSH2 0x276 JUMP JUMPDEST DUP3 DUP1 ADD PUSH1 0x1 ADD DUP6 SSTORE DUP3 ISZERO PUSH2 0x276 JUMPI SWAP2 DUP3 ADD JUMPDEST DUP3 DUP2 GT ISZERO PUSH2 0x275 JUMPI DUP3 MLOAD DUP3 SSTORE SWAP2 PUSH1 0x20 ADD SWAP2 SWAP1 PUSH1 0x1 ADD SWAP1 PUSH2 0x25A JUMP JUMPDEST JUMPDEST POP SWAP1 POP PUSH2 0x283 SWAP2 SWAP1 PUSH2 0x287 JUMP JUMPDEST POP SWAP1 JUMP JUMPDEST JUMPDEST DUP1 DUP3 GT ISZERO PUSH2 0x2A0 JUMPI PUSH1 0x0 DUP2 PUSH1 0x0 SWAP1 SSTORE POP PUSH1 0x1 ADD PUSH2 0x288 JUMP JUMPDEST POP SWAP1 JUMP JUMPDEST PUSH1 0x0 PUSH2 0x2B7 PUSH2 0x2B2 DUP5 PUSH2 0x46C JUMP JUMPDEST PUSH2 0x447 JUMP JUMPDEST SWAP1 POP DUP3 DUP2 MSTORE PUSH1 0x20 DUP2 ADD DUP5 DUP5 DUP5 ADD GT ISZERO PUSH2 0x2D3 JUMPI PUSH2 0x2D2 PUSH2 0x61F JUMP JUMPDEST JUMPDEST PUSH2 0x2DE DUP5 DUP3 DUP6 PUSH2 0x4E8 JUMP JUMPDEST POP SWAP4 SWAP3 POP POP POP JUMP JUMPDEST PUSH1 0x0 DUP3 PUSH1 0x1F DUP4 ADD SLT PUSH2 0x2FB JUMPI PUSH2 0x2FA PUSH2 0x61A JUMP JUMPDEST JUMPDEST DUP2 CALLDATALOAD PUSH2 0x30B DUP5 DUP3 PUSH1 0x20 DUP7 ADD PUSH2 0x2A4 JUMP JUMPDEST SWAP2 POP POP SWAP3 SWAP2 POP POP JUMP JUMPDEST PUSH1 0x0 DUP2 CALLDATALOAD SWAP1 POP PUSH2 0x323 DUP2 PUSH2 0x653 JUMP JUMPDEST SWAP3 SWAP2 POP POP JUMP JUMPDEST PUSH1 0x0 DUP1 PUSH1 0x40 DUP4 DUP6 SUB SLT ISZERO PUSH2 0x340 JUMPI PUSH2 0x33F PUSH2 0x629 JUMP JUMPDEST JUMPDEST PUSH1 0x0 DUP4 ADD CALLDATALOAD PUSH8 0xFFFFFFFFFFFFFFFF DUP2 GT ISZERO PUSH2 0x35E JUMPI PUSH2 0x35D PUSH2 0x624 JUMP JUMPDEST JUMPDEST PUSH2 0x36A DUP6 DUP3 DUP7 ADD PUSH2 0x2E6 JUMP JUMPDEST SWAP3 POP POP PUSH1 0x20 PUSH2 0x37B DUP6 DUP3 DUP7 ADD PUSH2 0x314 JUMP JUMPDEST SWAP2 POP POP SWAP3 POP SWAP3 SWAP1 POP JUMP JUMPDEST PUSH1 0x0 PUSH1 0x20 DUP3 DUP5 SUB SLT ISZERO PUSH2 0x39B JUMPI PUSH2 0x39A PUSH2 0x629 JUMP JUMPDEST JUMPDEST PUSH1 0x0 PUSH2 0x3A9 DUP5 DUP3 DUP6 ADD PUSH2 0x314 JUMP JUMPDEST SWAP2 POP POP SWAP3 SWAP2 POP POP JUMP JUMPDEST PUSH2 0x3BB DUP2 PUSH2 0x4D6 JUMP JUMPDEST DUP3 MSTORE POP POP JUMP JUMPDEST PUSH1 0x0 PUSH2 0x3CC DUP3 PUSH2 0x49D JUMP JUMPDEST PUSH2 0x3D6 DUP2 DUP6 PUSH2 0x4A8 JUMP JUMPDEST SWAP4 POP PUSH2 0x3E6 DUP2 DUP6 PUSH1 0x20 DUP7 ADD PUSH2 0x4F7 JUMP JUMPDEST PUSH2 0x3EF DUP2 PUSH2 0x62E JUMP JUMPDEST DUP5 ADD SWAP2 POP POP SWAP3 SWAP2 POP POP JUMP JUMPDEST PUSH2 0x403 DUP2 PUSH2 0x4CC JUMP JUMPDEST DUP3 MSTORE POP POP JUMP JUMPDEST PUSH1 0x0 PUSH1 0x60 DUP3 ADD SWAP1 POP DUP2 DUP2 SUB PUSH1 0x0 DUP4 ADD MSTORE PUSH2 0x423 DUP2 DUP7 PUSH2 0x3C1 JUMP JUMPDEST SWAP1 POP PUSH2 0x432 PUSH1 0x20 DUP4 ADD DUP6 PUSH2 0x3FA JUMP JUMPDEST PUSH2 0x43F PUSH1 0x40 DUP4 ADD DUP5 PUSH2 0x3B2 JUMP JUMPDEST SWAP5 SWAP4 POP POP POP POP JUMP JUMPDEST PUSH1 0x0 PUSH2 0x451 PUSH2 0x462 JUMP JUMPDEST SWAP1 POP PUSH2 0x45D DUP3 DUP3 PUSH2 0x55C JUMP JUMPDEST SWAP2 SWAP1 POP JUMP JUMPDEST PUSH1 0x0 PUSH1 0x40 MLOAD SWAP1 POP SWAP1 JUMP JUMPDEST PUSH1 0x0 PUSH8 0xFFFFFFFFFFFFFFFF DUP3 GT ISZERO PUSH2 0x487 JUMPI PUSH2 0x486 PUSH2 0x5EB JUMP JUMPDEST JUMPDEST PUSH2 0x490 DUP3 PUSH2 0x62E JUMP JUMPDEST SWAP1 POP PUSH1 0x20 DUP2 ADD SWAP1 POP SWAP2 SWAP1 POP JUMP JUMPDEST PUSH1 0x0 DUP2 MLOAD SWAP1 POP SWAP2 SWAP1 POP JUMP JUMPDEST PUSH1 0x0 DUP3 DUP3 MSTORE PUSH1 0x20 DUP3 ADD SWAP1 POP SWAP3 SWAP2 POP POP JUMP JUMPDEST PUSH1 0x0 DUP2 SWAP1 POP PUSH2 0x4C7 DUP3 PUSH2 0x63F JUMP JUMPDEST SWAP2 SWAP1 POP JUMP JUMPDEST PUSH1 0x0 DUP2 SWAP1 POP SWAP2 SWAP1 POP JUMP JUMPDEST PUSH1 0x0 PUSH2 0x4E1 DUP3 PUSH2 0x4B9 JUMP JUMPDEST SWAP1 POP SWAP2 SWAP1 POP JUMP JUMPDEST DUP3 DUP2 DUP4 CALLDATACOPY PUSH1 0x0 DUP4 DUP4 ADD MSTORE POP POP POP JUMP JUMPDEST PUSH1 0x0 JUMPDEST DUP4 DUP2 LT ISZERO PUSH2 0x515 JUMPI DUP1 DUP3 ADD MLOAD DUP2 DUP5 ADD MSTORE PUSH1 0x20 DUP2 ADD SWAP1 POP PUSH2 0x4FA JUMP JUMPDEST DUP4 DUP2 GT ISZERO PUSH2 0x524 JUMPI PUSH1 0x0 DUP5 DUP5 ADD MSTORE JUMPDEST POP POP POP POP JUMP JUMPDEST PUSH1 0x0 PUSH1 0x2 DUP3 DIV SWAP1 POP PUSH1 0x1 DUP3 AND DUP1 PUSH2 0x542 JUMPI PUSH1 0x7F DUP3 AND SWAP2 POP JUMPDEST PUSH1 0x20 DUP3 LT DUP2 EQ ISZERO PUSH2 0x556 JUMPI PUSH2 0x555 PUSH2 0x5BC JUMP JUMPDEST JUMPDEST POP SWAP2 SWAP1 POP JUMP JUMPDEST PUSH2 0x565 DUP3 PUSH2 0x62E JUMP JUMPDEST DUP2 ADD DUP2 DUP2 LT PUSH8 0xFFFFFFFFFFFFFFFF DUP3 GT OR ISZERO PUSH2 0x584 JUMPI PUSH2 0x583 PUSH2 0x5EB JUMP JUMPDEST JUMPDEST DUP1 PUSH1 0x40 MSTORE POP POP POP JUMP JUMPDEST PUSH32 0x4E487B7100000000000000000000000000000000000000000000000000000000 PUSH1 0x0 MSTORE PUSH1 0x21 PUSH1 0x4 MSTORE PUSH1 0x24 PUSH1 0x0 REVERT JUMPDEST PUSH32 0x4E487B7100000000000000000000000000000000000000000000000000000000 PUSH1 0x0 MSTORE PUSH1 0x22 PUSH1 0x4 MSTORE PUSH1 0x24 PUSH1 0x0 REVERT JUMPDEST PUSH32 0x4E487B7100000000000000000000000000000000000000000000000000000000 PUSH1 0x0 MSTORE PUSH1 0x41 PUSH1 0x4 MSTORE PUSH1 0x24 PUSH1 0x0 REVERT JUMPDEST PUSH1 0x0 DUP1 REVERT JUMPDEST PUSH1 0x0 DUP1 REVERT JUMPDEST PUSH1 0x0 DUP1 REVERT JUMPDEST PUSH1 0x0 DUP1 REVERT JUMPDEST PUSH1 0x0 PUSH1 0x1F NOT PUSH1 0x1F DUP4 ADD AND SWAP1 POP SWAP2 SWAP1 POP JUMP JUMPDEST PUSH1 0x3 DUP2 LT PUSH2 0x650 JUMPI PUSH2 0x64F PUSH2 0x58D JUMP JUMPDEST JUMPDEST POP JUMP JUMPDEST PUSH2 0x65C DUP2 PUSH2 0x4CC JUMP JUMPDEST DUP2 EQ PUSH2 0x667 JUMPI PUSH1 0x0 DUP1 REVERT JUMPDEST POP JUMP INVALID LOG2 PUSH5 0x6970667358 0x22 SLT KECCAK256 0x4C SWAP16 0xB1 SLOAD 0xB7 DUP9 EXTCODECOPY LOG2 0x4E CALLVALUE JUMP LOG0 OR LOG0 0xE3 0xF 0xA9 PUSH6 0x2820AC7109FC SWAP3 CREATE SWAP9 SWAP15 0xBF DUP13 COINBASE 0xBE PUSH5 0x736F6C6343 STOP ADDMOD SMOD STOP CALLER "
				},
				"gasEstimates": {
					"creation": {
						"codeDepositCost": "339200",
						"executionCost": "374",
						"totalCost": "339574"
					},
					"external": {
						"createItem(string,uint256)": "infinite",
						"items(uint256)": "infinite",
						"triggerDelivery()": "144",
						"triggerPayment()": "122"
					}
				},
				"methodIdentifiers": {
					"createItem(string,uint256)": "8c551742",
					"items(uint256)": "bfb231d2",
					"triggerDelivery()": "5f4fe7b6",
					"triggerPayment()": "00ce2057"
				}
			},
			"userdoc": {
				"kind": "user",
				"methods": {},
				"version": 1
			}
		}
	}
}