{
	"contracts/eventtrigger.sol": {
		"ItemManager": {
			"abi": [
				{
					"inputs": [
						{
							"internalType": "string",
							"name": "_identifier",
							"type": "string"
						},
						{
							"internalType": "uint256",
							"name": "_itemPrice",
							"type": "uint256"
						}
					],
					"name": "createItem",
					"outputs": [],
					"stateMutability": "nonpayable",
					"type": "function"
				},
				{
					"inputs": [
						{
							"internalType": "uint256",
							"name": "",
							"type": "uint256"
						}
					],
					"name": "items",
					"outputs": [
						{
							"internalType": "string",
							"name": "_identifier",
							"type": "string"
						},
						{
							"internalType": "uint256",
							"name": "_itemPrice",
							"type": "uint256"
						},
						{
							"internalType": "enum ItemManager.AutoChainState",
							"name": "_state",
							"type": "uint8"
						}
					],
					"stateMutability": "view",
					"type": "function"
				},
				{
					"inputs": [],
					"name": "triggerDelivery",
					"outputs": [],
					"stateMutability": "nonpayable",
					"type": "function"
				},
				{
					"inputs": [
						{
							"internalType": "uint256",
							"name": "_itemIndex",
							"type": "uint256"
						}
					],
					"name": "triggerPayment",
					"outputs": [],
					"stateMutability": "payable",
					"type": "function"
				}
			],
			"devdoc": {
				"kind": "dev",
				"methods": {},
				"version": 1
			},
			"evm": {
				"assembly": "    /* \"contracts/eventtrigger.sol\":60:1013  contract ItemManager {\r... */\n  mstore(0x40, 0x80)\n  callvalue\n  dup1\n  iszero\n  tag_1\n  jumpi\n  0x00\n  dup1\n  revert\ntag_1:\n  pop\n  dataSize(sub_0)\n  dup1\n  dataOffset(sub_0)\n  0x00\n  codecopy\n  0x00\n  return\nstop\n\nsub_0: assembly {\n        /* \"contracts/eventtrigger.sol\":60:1013  contract ItemManager {\r... */\n      mstore(0x40, 0x80)\n      jumpi(tag_1, lt(calldatasize, 0x04))\n      shr(0xe0, calldataload(0x00))\n      dup1\n      0x5f4fe7b6\n      eq\n      tag_2\n      jumpi\n      dup1\n      0x800fb83f\n      eq\n      tag_3\n      jumpi\n      dup1\n      0x8c551742\n      eq\n      tag_4\n      jumpi\n      dup1\n      0xbfb231d2\n      eq\n      tag_5\n      jumpi\n    tag_1:\n      0x00\n      dup1\n      revert\n        /* \"contracts/eventtrigger.sol\":957:1010  function triggerDelivery () public {\r... */\n    tag_2:\n      callvalue\n      dup1\n      iszero\n      tag_6\n      jumpi\n      0x00\n      dup1\n      revert\n    tag_6:\n      pop\n      tag_7\n      tag_8\n      jump\t// in\n    tag_7:\n      stop\n        /* \"contracts/eventtrigger.sol\":609:949  function triggerPayment (uint _itemIndex) external payable{\r... */\n    tag_3:\n      tag_9\n      0x04\n      dup1\n      calldatasize\n      sub\n      dup2\n      add\n      swap1\n      tag_10\n      swap2\n      swap1\n      tag_11\n      jump\t// in\n    tag_10:\n      tag_12\n      jump\t// in\n    tag_9:\n      stop\n        /* \"contracts/eventtrigger.sol\":336:601  function createItem (string memory _identifier, uint _itemPrice) public {\r... */\n    tag_4:\n      callvalue\n      dup1\n      iszero\n      tag_13\n      jumpi\n      0x00\n      dup1\n      revert\n    tag_13:\n      pop\n      tag_14\n      0x04\n      dup1\n      calldatasize\n      sub\n      dup2\n      add\n      swap1\n      tag_15\n      swap2\n      swap1\n      tag_16\n      jump\t// in\n    tag_15:\n      tag_17\n      jump\t// in\n    tag_14:\n      stop\n        /* \"contracts/eventtrigger.sol\":271:306  mapping (uint => item) public items */\n    tag_5:\n      callvalue\n      dup1\n      iszero\n      tag_18\n      jumpi\n      0x00\n      dup1\n      revert\n    tag_18:\n      pop\n      tag_19\n      0x04\n      dup1\n      calldatasize\n      sub\n      dup2\n      add\n      swap1\n      tag_20\n      swap2\n      swap1\n      tag_11\n      jump\t// in\n    tag_20:\n      tag_21\n      jump\t// in\n    tag_19:\n      mload(0x40)\n      tag_22\n      swap4\n      swap3\n      swap2\n      swap1\n      tag_23\n      jump\t// in\n    tag_22:\n      mload(0x40)\n      dup1\n      swap2\n      sub\n      swap1\n      return\n        /* \"contracts/eventtrigger.sol\":957:1010  function triggerDelivery () public {\r... */\n    tag_8:\n      jump\t// out\n        /* \"contracts/eventtrigger.sol\":609:949  function triggerPayment (uint _itemIndex) external payable{\r... */\n    tag_12:\n        /* \"contracts/eventtrigger.sol\":718:727  msg.value */\n      callvalue\n        /* \"contracts/eventtrigger.sol\":687:692  items */\n      0x00\n        /* \"contracts/eventtrigger.sol\":687:703  items[itemIndex] */\n      dup1\n        /* \"contracts/eventtrigger.sol\":693:702  itemIndex */\n      sload(0x01)\n        /* \"contracts/eventtrigger.sol\":687:703  items[itemIndex] */\n      dup2\n      mstore\n      0x20\n      add\n      swap1\n      dup2\n      mstore\n      0x20\n      add\n      0x00\n      keccak256\n        /* \"contracts/eventtrigger.sol\":687:714  items[itemIndex]._itemPrice */\n      0x01\n      add\n      sload\n        /* \"contracts/eventtrigger.sol\":687:727  items[itemIndex]._itemPrice == msg.value */\n      eq\n        /* \"contracts/eventtrigger.sol\":678:756  require (items[itemIndex]._itemPrice == msg.value, \"Please pay exact amount.\") */\n      tag_26\n      jumpi\n      mload(0x40)\n      0x08c379a000000000000000000000000000000000000000000000000000000000\n      dup2\n      mstore\n      0x04\n      add\n      tag_27\n      swap1\n      tag_28\n      jump\t// in\n    tag_27:\n      mload(0x40)\n      dup1\n      swap2\n      sub\n      swap1\n      revert\n    tag_26:\n        /* \"contracts/eventtrigger.sol\":803:825  AutoChainState.Created */\n      0x00\n        /* \"contracts/eventtrigger.sol\":776:825  items[itemIndex]._state == AutoChainState.Created */\n      0x02\n      dup2\n      gt\n      iszero\n      tag_29\n      jumpi\n      tag_30\n      tag_31\n      jump\t// in\n    tag_30:\n    tag_29:\n        /* \"contracts/eventtrigger.sol\":776:781  items */\n      0x00\n        /* \"contracts/eventtrigger.sol\":776:792  items[itemIndex] */\n      dup1\n        /* \"contracts/eventtrigger.sol\":782:791  itemIndex */\n      sload(0x01)\n        /* \"contracts/eventtrigger.sol\":776:792  items[itemIndex] */\n      dup2\n      mstore\n      0x20\n      add\n      swap1\n      dup2\n      mstore\n      0x20\n      add\n      0x00\n      keccak256\n        /* \"contracts/eventtrigger.sol\":776:799  items[itemIndex]._state */\n      0x02\n      add\n      0x00\n      swap1\n      sload\n      swap1\n      0x0100\n      exp\n      swap1\n      div\n      0xff\n      and\n        /* \"contracts/eventtrigger.sol\":776:825  items[itemIndex]._state == AutoChainState.Created */\n      0x02\n      dup2\n      gt\n      iszero\n      tag_32\n      jumpi\n      tag_33\n      tag_31\n      jump\t// in\n    tag_33:\n    tag_32:\n      eq\n        /* \"contracts/eventtrigger.sol\":767:873  require (items[itemIndex]._state == AutoChainState.Created, \"Item has been already paid for or delivered\") */\n      tag_34\n      jumpi\n      mload(0x40)\n      0x08c379a000000000000000000000000000000000000000000000000000000000\n      dup2\n      mstore\n      0x04\n      add\n      tag_35\n      swap1\n      tag_36\n      jump\t// in\n    tag_35:\n      mload(0x40)\n      dup1\n      swap2\n      sub\n      swap1\n      revert\n    tag_34:\n        /* \"contracts/eventtrigger.sol\":920:939  AutoChainState.Paid */\n      0x01\n        /* \"contracts/eventtrigger.sol\":894:899  items */\n      0x00\n        /* \"contracts/eventtrigger.sol\":894:910  items[itemIndex] */\n      dup1\n        /* \"contracts/eventtrigger.sol\":900:909  itemIndex */\n      sload(0x01)\n        /* \"contracts/eventtrigger.sol\":894:910  items[itemIndex] */\n      dup2\n      mstore\n      0x20\n      add\n      swap1\n      dup2\n      mstore\n      0x20\n      add\n      0x00\n      keccak256\n        /* \"contracts/eventtrigger.sol\":894:917  items[itemIndex]._state */\n      0x02\n      add\n      0x00\n        /* \"contracts/eventtrigger.sol\":894:939  items[itemIndex]._state = AutoChainState.Paid */\n      0x0100\n      exp\n      dup2\n      sload\n      dup2\n      0xff\n      mul\n      not\n      and\n      swap1\n      dup4\n      0x02\n      dup2\n      gt\n      iszero\n      tag_37\n      jumpi\n      tag_38\n      tag_31\n      jump\t// in\n    tag_38:\n    tag_37:\n      mul\n      or\n      swap1\n      sstore\n      pop\n        /* \"contracts/eventtrigger.sol\":609:949  function triggerPayment (uint _itemIndex) external payable{\r... */\n      pop\n      jump\t// out\n        /* \"contracts/eventtrigger.sol\":336:601  function createItem (string memory _identifier, uint _itemPrice) public {\r... */\n    tag_17:\n        /* \"contracts/eventtrigger.sol\":450:461  _identifier */\n      dup2\n        /* \"contracts/eventtrigger.sol\":419:424  items */\n      0x00\n        /* \"contracts/eventtrigger.sol\":419:435  items[itemIndex] */\n      dup1\n        /* \"contracts/eventtrigger.sol\":425:434  itemIndex */\n      sload(0x01)\n        /* \"contracts/eventtrigger.sol\":419:435  items[itemIndex] */\n      dup2\n      mstore\n      0x20\n      add\n      swap1\n      dup2\n      mstore\n      0x20\n      add\n      0x00\n      keccak256\n        /* \"contracts/eventtrigger.sol\":419:447  items[itemIndex]._identifier */\n      0x00\n      add\n        /* \"contracts/eventtrigger.sol\":419:461  items[itemIndex]._identifier = _identifier */\n      swap1\n      dup1\n      mload\n      swap1\n      0x20\n      add\n      swap1\n      tag_40\n      swap3\n      swap2\n      swap1\n      tag_41\n      jump\t// in\n    tag_40:\n      pop\n        /* \"contracts/eventtrigger.sol\":502:512  _itemPrice */\n      dup1\n        /* \"contracts/eventtrigger.sol\":472:477  items */\n      0x00\n        /* \"contracts/eventtrigger.sol\":472:488  items[itemIndex] */\n      dup1\n        /* \"contracts/eventtrigger.sol\":478:487  itemIndex */\n      sload(0x01)\n        /* \"contracts/eventtrigger.sol\":472:488  items[itemIndex] */\n      dup2\n      mstore\n      0x20\n      add\n      swap1\n      dup2\n      mstore\n      0x20\n      add\n      0x00\n      keccak256\n        /* \"contracts/eventtrigger.sol\":472:499  items[itemIndex]._itemPrice */\n      0x01\n      add\n        /* \"contracts/eventtrigger.sol\":472:512  items[itemIndex]._itemPrice = _itemPrice */\n      dup2\n      swap1\n      sstore\n      pop\n        /* \"contracts/eventtrigger.sol\":549:571  AutoChainState.Created */\n      0x00\n        /* \"contracts/eventtrigger.sol\":523:528  items */\n      dup1\n        /* \"contracts/eventtrigger.sol\":523:539  items[itemIndex] */\n      0x00\n        /* \"contracts/eventtrigger.sol\":529:538  itemIndex */\n      sload(0x01)\n        /* \"contracts/eventtrigger.sol\":523:539  items[itemIndex] */\n      dup2\n      mstore\n      0x20\n      add\n      swap1\n      dup2\n      mstore\n      0x20\n      add\n      0x00\n      keccak256\n        /* \"contracts/eventtrigger.sol\":523:546  items[itemIndex]._state */\n      0x02\n      add\n      0x00\n        /* \"contracts/eventtrigger.sol\":523:571  items[itemIndex]._state = AutoChainState.Created */\n      0x0100\n      exp\n      dup2\n      sload\n      dup2\n      0xff\n      mul\n      not\n      and\n      swap1\n      dup4\n      0x02\n      dup2\n      gt\n      iszero\n      tag_42\n      jumpi\n      tag_43\n      tag_31\n      jump\t// in\n    tag_43:\n    tag_42:\n      mul\n      or\n      swap1\n      sstore\n      pop\n        /* \"contracts/eventtrigger.sol\":582:591  itemIndex */\n      0x01\n      0x00\n        /* \"contracts/eventtrigger.sol\":582:593  itemIndex++ */\n      dup2\n      sload\n      dup1\n      swap3\n      swap2\n      swap1\n      tag_44\n      swap1\n      tag_45\n      jump\t// in\n    tag_44:\n      swap2\n      swap1\n      pop\n      sstore\n      pop\n        /* \"contracts/eventtrigger.sol\":336:601  function createItem (string memory _identifier, uint _itemPrice) public {\r... */\n      pop\n      pop\n      jump\t// out\n        /* \"contracts/eventtrigger.sol\":271:306  mapping (uint => item) public items */\n    tag_21:\n      mstore(0x20, 0x00)\n      dup1\n      0x00\n      mstore\n      keccak256(0x00, 0x40)\n      0x00\n      swap2\n      pop\n      swap1\n      pop\n      dup1\n      0x00\n      add\n      dup1\n      sload\n      tag_46\n      swap1\n      tag_47\n      jump\t// in\n    tag_46:\n      dup1\n      0x1f\n      add\n      0x20\n      dup1\n      swap2\n      div\n      mul\n      0x20\n      add\n      mload(0x40)\n      swap1\n      dup2\n      add\n      0x40\n      mstore\n      dup1\n      swap3\n      swap2\n      swap1\n      dup2\n      dup2\n      mstore\n      0x20\n      add\n      dup3\n      dup1\n      sload\n      tag_48\n      swap1\n      tag_47\n      jump\t// in\n    tag_48:\n      dup1\n      iszero\n      tag_49\n      jumpi\n      dup1\n      0x1f\n      lt\n      tag_50\n      jumpi\n      0x0100\n      dup1\n      dup4\n      sload\n      div\n      mul\n      dup4\n      mstore\n      swap2\n      0x20\n      add\n      swap2\n      jump(tag_49)\n    tag_50:\n      dup3\n      add\n      swap2\n      swap1\n      0x00\n      mstore\n      keccak256(0x00, 0x20)\n      swap1\n    tag_51:\n      dup2\n      sload\n      dup2\n      mstore\n      swap1\n      0x01\n      add\n      swap1\n      0x20\n      add\n      dup1\n      dup4\n      gt\n      tag_51\n      jumpi\n      dup3\n      swap1\n      sub\n      0x1f\n      and\n      dup3\n      add\n      swap2\n    tag_49:\n      pop\n      pop\n      pop\n      pop\n      pop\n      swap1\n      dup1\n      0x01\n      add\n      sload\n      swap1\n      dup1\n      0x02\n      add\n      0x00\n      swap1\n      sload\n      swap1\n      0x0100\n      exp\n      swap1\n      div\n      0xff\n      and\n      swap1\n      pop\n      dup4\n      jump\t// out\n    tag_41:\n      dup3\n      dup1\n      sload\n      tag_52\n      swap1\n      tag_47\n      jump\t// in\n    tag_52:\n      swap1\n      0x00\n      mstore\n      keccak256(0x00, 0x20)\n      swap1\n      0x1f\n      add\n      0x20\n      swap1\n      div\n      dup2\n      add\n      swap3\n      dup3\n      tag_54\n      jumpi\n      0x00\n      dup6\n      sstore\n      jump(tag_53)\n    tag_54:\n      dup3\n      0x1f\n      lt\n      tag_55\n      jumpi\n      dup1\n      mload\n      not(0xff)\n      and\n      dup4\n      dup1\n      add\n      or\n      dup6\n      sstore\n      jump(tag_53)\n    tag_55:\n      dup3\n      dup1\n      add\n      0x01\n      add\n      dup6\n      sstore\n      dup3\n      iszero\n      tag_53\n      jumpi\n      swap2\n      dup3\n      add\n    tag_56:\n      dup3\n      dup2\n      gt\n      iszero\n      tag_57\n      jumpi\n      dup3\n      mload\n      dup3\n      sstore\n      swap2\n      0x20\n      add\n      swap2\n      swap1\n      0x01\n      add\n      swap1\n      jump(tag_56)\n    tag_57:\n    tag_53:\n      pop\n      swap1\n      pop\n      tag_58\n      swap2\n      swap1\n      tag_59\n      jump\t// in\n    tag_58:\n      pop\n      swap1\n      jump\t// out\n    tag_59:\n    tag_60:\n      dup1\n      dup3\n      gt\n      iszero\n      tag_61\n      jumpi\n      0x00\n      dup2\n      0x00\n      swap1\n      sstore\n      pop\n      0x01\n      add\n      jump(tag_60)\n    tag_61:\n      pop\n      swap1\n      jump\t// out\n        /* \"#utility.yul\":7:419   */\n    tag_63:\n        /* \"#utility.yul\":85:90   */\n      0x00\n        /* \"#utility.yul\":110:176   */\n      tag_65\n        /* \"#utility.yul\":126:175   */\n      tag_66\n        /* \"#utility.yul\":168:174   */\n      dup5\n        /* \"#utility.yul\":126:175   */\n      tag_67\n      jump\t// in\n    tag_66:\n        /* \"#utility.yul\":110:176   */\n      tag_68\n      jump\t// in\n    tag_65:\n        /* \"#utility.yul\":101:176   */\n      swap1\n      pop\n        /* \"#utility.yul\":199:205   */\n      dup3\n        /* \"#utility.yul\":192:197   */\n      dup2\n        /* \"#utility.yul\":185:206   */\n      mstore\n        /* \"#utility.yul\":237:241   */\n      0x20\n        /* \"#utility.yul\":230:235   */\n      dup2\n        /* \"#utility.yul\":226:242   */\n      add\n        /* \"#utility.yul\":275:278   */\n      dup5\n        /* \"#utility.yul\":266:272   */\n      dup5\n        /* \"#utility.yul\":261:264   */\n      dup5\n        /* \"#utility.yul\":257:273   */\n      add\n        /* \"#utility.yul\":254:279   */\n      gt\n        /* \"#utility.yul\":251:363   */\n      iszero\n      tag_69\n      jumpi\n        /* \"#utility.yul\":282:361   */\n      tag_70\n      tag_71\n      jump\t// in\n    tag_70:\n        /* \"#utility.yul\":251:363   */\n    tag_69:\n        /* \"#utility.yul\":372:413   */\n      tag_72\n        /* \"#utility.yul\":406:412   */\n      dup5\n        /* \"#utility.yul\":401:404   */\n      dup3\n        /* \"#utility.yul\":396:399   */\n      dup6\n        /* \"#utility.yul\":372:413   */\n      tag_73\n      jump\t// in\n    tag_72:\n        /* \"#utility.yul\":91:419   */\n      pop\n        /* \"#utility.yul\":7:419   */\n      swap4\n      swap3\n      pop\n      pop\n      pop\n      jump\t// out\n        /* \"#utility.yul\":439:779   */\n    tag_74:\n        /* \"#utility.yul\":495:500   */\n      0x00\n        /* \"#utility.yul\":544:547   */\n      dup3\n        /* \"#utility.yul\":537:541   */\n      0x1f\n        /* \"#utility.yul\":529:535   */\n      dup4\n        /* \"#utility.yul\":525:542   */\n      add\n        /* \"#utility.yul\":521:548   */\n      slt\n        /* \"#utility.yul\":511:633   */\n      tag_76\n      jumpi\n        /* \"#utility.yul\":552:631   */\n      tag_77\n      tag_78\n      jump\t// in\n    tag_77:\n        /* \"#utility.yul\":511:633   */\n    tag_76:\n        /* \"#utility.yul\":669:675   */\n      dup2\n        /* \"#utility.yul\":656:676   */\n      calldataload\n        /* \"#utility.yul\":694:773   */\n      tag_79\n        /* \"#utility.yul\":769:772   */\n      dup5\n        /* \"#utility.yul\":761:767   */\n      dup3\n        /* \"#utility.yul\":754:758   */\n      0x20\n        /* \"#utility.yul\":746:752   */\n      dup7\n        /* \"#utility.yul\":742:759   */\n      add\n        /* \"#utility.yul\":694:773   */\n      tag_63\n      jump\t// in\n    tag_79:\n        /* \"#utility.yul\":685:773   */\n      swap2\n      pop\n        /* \"#utility.yul\":501:779   */\n      pop\n        /* \"#utility.yul\":439:779   */\n      swap3\n      swap2\n      pop\n      pop\n      jump\t// out\n        /* \"#utility.yul\":785:924   */\n    tag_80:\n        /* \"#utility.yul\":831:836   */\n      0x00\n        /* \"#utility.yul\":869:875   */\n      dup2\n        /* \"#utility.yul\":856:876   */\n      calldataload\n        /* \"#utility.yul\":847:876   */\n      swap1\n      pop\n        /* \"#utility.yul\":885:918   */\n      tag_82\n        /* \"#utility.yul\":912:917   */\n      dup2\n        /* \"#utility.yul\":885:918   */\n      tag_83\n      jump\t// in\n    tag_82:\n        /* \"#utility.yul\":785:924   */\n      swap3\n      swap2\n      pop\n      pop\n      jump\t// out\n        /* \"#utility.yul\":930:1584   */\n    tag_16:\n        /* \"#utility.yul\":1008:1014   */\n      0x00\n        /* \"#utility.yul\":1016:1022   */\n      dup1\n        /* \"#utility.yul\":1065:1067   */\n      0x40\n        /* \"#utility.yul\":1053:1062   */\n      dup4\n        /* \"#utility.yul\":1044:1051   */\n      dup6\n        /* \"#utility.yul\":1040:1063   */\n      sub\n        /* \"#utility.yul\":1036:1068   */\n      slt\n        /* \"#utility.yul\":1033:1152   */\n      iszero\n      tag_85\n      jumpi\n        /* \"#utility.yul\":1071:1150   */\n      tag_86\n      tag_87\n      jump\t// in\n    tag_86:\n        /* \"#utility.yul\":1033:1152   */\n    tag_85:\n        /* \"#utility.yul\":1219:1220   */\n      0x00\n        /* \"#utility.yul\":1208:1217   */\n      dup4\n        /* \"#utility.yul\":1204:1221   */\n      add\n        /* \"#utility.yul\":1191:1222   */\n      calldataload\n        /* \"#utility.yul\":1249:1267   */\n      0xffffffffffffffff\n        /* \"#utility.yul\":1241:1247   */\n      dup2\n        /* \"#utility.yul\":1238:1268   */\n      gt\n        /* \"#utility.yul\":1235:1352   */\n      iszero\n      tag_88\n      jumpi\n        /* \"#utility.yul\":1271:1350   */\n      tag_89\n      tag_90\n      jump\t// in\n    tag_89:\n        /* \"#utility.yul\":1235:1352   */\n    tag_88:\n        /* \"#utility.yul\":1376:1439   */\n      tag_91\n        /* \"#utility.yul\":1431:1438   */\n      dup6\n        /* \"#utility.yul\":1422:1428   */\n      dup3\n        /* \"#utility.yul\":1411:1420   */\n      dup7\n        /* \"#utility.yul\":1407:1429   */\n      add\n        /* \"#utility.yul\":1376:1439   */\n      tag_74\n      jump\t// in\n    tag_91:\n        /* \"#utility.yul\":1366:1439   */\n      swap3\n      pop\n        /* \"#utility.yul\":1162:1449   */\n      pop\n        /* \"#utility.yul\":1488:1490   */\n      0x20\n        /* \"#utility.yul\":1514:1567   */\n      tag_92\n        /* \"#utility.yul\":1559:1566   */\n      dup6\n        /* \"#utility.yul\":1550:1556   */\n      dup3\n        /* \"#utility.yul\":1539:1548   */\n      dup7\n        /* \"#utility.yul\":1535:1557   */\n      add\n        /* \"#utility.yul\":1514:1567   */\n      tag_80\n      jump\t// in\n    tag_92:\n        /* \"#utility.yul\":1504:1567   */\n      swap2\n      pop\n        /* \"#utility.yul\":1459:1577   */\n      pop\n        /* \"#utility.yul\":930:1584   */\n      swap3\n      pop\n      swap3\n      swap1\n      pop\n      jump\t// out\n        /* \"#utility.yul\":1590:1919   */\n    tag_11:\n        /* \"#utility.yul\":1649:1655   */\n      0x00\n        /* \"#utility.yul\":1698:1700   */\n      0x20\n        /* \"#utility.yul\":1686:1695   */\n      dup3\n        /* \"#utility.yul\":1677:1684   */\n      dup5\n        /* \"#utility.yul\":1673:1696   */\n      sub\n        /* \"#utility.yul\":1669:1701   */\n      slt\n        /* \"#utility.yul\":1666:1785   */\n      iszero\n      tag_94\n      jumpi\n        /* \"#utility.yul\":1704:1783   */\n      tag_95\n      tag_87\n      jump\t// in\n    tag_95:\n        /* \"#utility.yul\":1666:1785   */\n    tag_94:\n        /* \"#utility.yul\":1824:1825   */\n      0x00\n        /* \"#utility.yul\":1849:1902   */\n      tag_96\n        /* \"#utility.yul\":1894:1901   */\n      dup5\n        /* \"#utility.yul\":1885:1891   */\n      dup3\n        /* \"#utility.yul\":1874:1883   */\n      dup6\n        /* \"#utility.yul\":1870:1892   */\n      add\n        /* \"#utility.yul\":1849:1902   */\n      tag_80\n      jump\t// in\n    tag_96:\n        /* \"#utility.yul\":1839:1902   */\n      swap2\n      pop\n        /* \"#utility.yul\":1795:1912   */\n      pop\n        /* \"#utility.yul\":1590:1919   */\n      swap3\n      swap2\n      pop\n      pop\n      jump\t// out\n        /* \"#utility.yul\":1925:2084   */\n    tag_97:\n        /* \"#utility.yul\":2026:2077   */\n      tag_99\n        /* \"#utility.yul\":2071:2076   */\n      dup2\n        /* \"#utility.yul\":2026:2077   */\n      tag_100\n      jump\t// in\n    tag_99:\n        /* \"#utility.yul\":2021:2024   */\n      dup3\n        /* \"#utility.yul\":2014:2078   */\n      mstore\n        /* \"#utility.yul\":1925:2084   */\n      pop\n      pop\n      jump\t// out\n        /* \"#utility.yul\":2090:2454   */\n    tag_101:\n        /* \"#utility.yul\":2178:2181   */\n      0x00\n        /* \"#utility.yul\":2206:2245   */\n      tag_103\n        /* \"#utility.yul\":2239:2244   */\n      dup3\n        /* \"#utility.yul\":2206:2245   */\n      tag_104\n      jump\t// in\n    tag_103:\n        /* \"#utility.yul\":2261:2332   */\n      tag_105\n        /* \"#utility.yul\":2325:2331   */\n      dup2\n        /* \"#utility.yul\":2320:2323   */\n      dup6\n        /* \"#utility.yul\":2261:2332   */\n      tag_106\n      jump\t// in\n    tag_105:\n        /* \"#utility.yul\":2254:2332   */\n      swap4\n      pop\n        /* \"#utility.yul\":2341:2393   */\n      tag_107\n        /* \"#utility.yul\":2386:2392   */\n      dup2\n        /* \"#utility.yul\":2381:2384   */\n      dup6\n        /* \"#utility.yul\":2374:2378   */\n      0x20\n        /* \"#utility.yul\":2367:2372   */\n      dup7\n        /* \"#utility.yul\":2363:2379   */\n      add\n        /* \"#utility.yul\":2341:2393   */\n      tag_108\n      jump\t// in\n    tag_107:\n        /* \"#utility.yul\":2418:2447   */\n      tag_109\n        /* \"#utility.yul\":2440:2446   */\n      dup2\n        /* \"#utility.yul\":2418:2447   */\n      tag_110\n      jump\t// in\n    tag_109:\n        /* \"#utility.yul\":2413:2416   */\n      dup5\n        /* \"#utility.yul\":2409:2448   */\n      add\n        /* \"#utility.yul\":2402:2448   */\n      swap2\n      pop\n        /* \"#utility.yul\":2182:2454   */\n      pop\n        /* \"#utility.yul\":2090:2454   */\n      swap3\n      swap2\n      pop\n      pop\n      jump\t// out\n        /* \"#utility.yul\":2460:2826   */\n    tag_111:\n        /* \"#utility.yul\":2602:2605   */\n      0x00\n        /* \"#utility.yul\":2623:2690   */\n      tag_113\n        /* \"#utility.yul\":2687:2689   */\n      0x18\n        /* \"#utility.yul\":2682:2685   */\n      dup4\n        /* \"#utility.yul\":2623:2690   */\n      tag_106\n      jump\t// in\n    tag_113:\n        /* \"#utility.yul\":2616:2690   */\n      swap2\n      pop\n        /* \"#utility.yul\":2699:2792   */\n      tag_114\n        /* \"#utility.yul\":2788:2791   */\n      dup3\n        /* \"#utility.yul\":2699:2792   */\n      tag_115\n      jump\t// in\n    tag_114:\n        /* \"#utility.yul\":2817:2819   */\n      0x20\n        /* \"#utility.yul\":2812:2815   */\n      dup3\n        /* \"#utility.yul\":2808:2820   */\n      add\n        /* \"#utility.yul\":2801:2820   */\n      swap1\n      pop\n        /* \"#utility.yul\":2460:2826   */\n      swap2\n      swap1\n      pop\n      jump\t// out\n        /* \"#utility.yul\":2832:3198   */\n    tag_116:\n        /* \"#utility.yul\":2974:2977   */\n      0x00\n        /* \"#utility.yul\":2995:3062   */\n      tag_118\n        /* \"#utility.yul\":3059:3061   */\n      0x2b\n        /* \"#utility.yul\":3054:3057   */\n      dup4\n        /* \"#utility.yul\":2995:3062   */\n      tag_106\n      jump\t// in\n    tag_118:\n        /* \"#utility.yul\":2988:3062   */\n      swap2\n      pop\n        /* \"#utility.yul\":3071:3164   */\n      tag_119\n        /* \"#utility.yul\":3160:3163   */\n      dup3\n        /* \"#utility.yul\":3071:3164   */\n      tag_120\n      jump\t// in\n    tag_119:\n        /* \"#utility.yul\":3189:3191   */\n      0x40\n        /* \"#utility.yul\":3184:3187   */\n      dup3\n        /* \"#utility.yul\":3180:3192   */\n      add\n        /* \"#utility.yul\":3173:3192   */\n      swap1\n      pop\n        /* \"#utility.yul\":2832:3198   */\n      swap2\n      swap1\n      pop\n      jump\t// out\n        /* \"#utility.yul\":3204:3322   */\n    tag_121:\n        /* \"#utility.yul\":3291:3315   */\n      tag_123\n        /* \"#utility.yul\":3309:3314   */\n      dup2\n        /* \"#utility.yul\":3291:3315   */\n      tag_124\n      jump\t// in\n    tag_123:\n        /* \"#utility.yul\":3286:3289   */\n      dup3\n        /* \"#utility.yul\":3279:3316   */\n      mstore\n        /* \"#utility.yul\":3204:3322   */\n      pop\n      pop\n      jump\t// out\n        /* \"#utility.yul\":3328:3889   */\n    tag_23:\n        /* \"#utility.yul\":3511:3515   */\n      0x00\n        /* \"#utility.yul\":3549:3551   */\n      0x60\n        /* \"#utility.yul\":3538:3547   */\n      dup3\n        /* \"#utility.yul\":3534:3552   */\n      add\n        /* \"#utility.yul\":3526:3552   */\n      swap1\n      pop\n        /* \"#utility.yul\":3598:3607   */\n      dup2\n        /* \"#utility.yul\":3592:3596   */\n      dup2\n        /* \"#utility.yul\":3588:3608   */\n      sub\n        /* \"#utility.yul\":3584:3585   */\n      0x00\n        /* \"#utility.yul\":3573:3582   */\n      dup4\n        /* \"#utility.yul\":3569:3586   */\n      add\n        /* \"#utility.yul\":3562:3609   */\n      mstore\n        /* \"#utility.yul\":3626:3704   */\n      tag_126\n        /* \"#utility.yul\":3699:3703   */\n      dup2\n        /* \"#utility.yul\":3690:3696   */\n      dup7\n        /* \"#utility.yul\":3626:3704   */\n      tag_101\n      jump\t// in\n    tag_126:\n        /* \"#utility.yul\":3618:3704   */\n      swap1\n      pop\n        /* \"#utility.yul\":3714:3786   */\n      tag_127\n        /* \"#utility.yul\":3782:3784   */\n      0x20\n        /* \"#utility.yul\":3771:3780   */\n      dup4\n        /* \"#utility.yul\":3767:3785   */\n      add\n        /* \"#utility.yul\":3758:3764   */\n      dup6\n        /* \"#utility.yul\":3714:3786   */\n      tag_121\n      jump\t// in\n    tag_127:\n        /* \"#utility.yul\":3796:3882   */\n      tag_128\n        /* \"#utility.yul\":3878:3880   */\n      0x40\n        /* \"#utility.yul\":3867:3876   */\n      dup4\n        /* \"#utility.yul\":3863:3881   */\n      add\n        /* \"#utility.yul\":3854:3860   */\n      dup5\n        /* \"#utility.yul\":3796:3882   */\n      tag_97\n      jump\t// in\n    tag_128:\n        /* \"#utility.yul\":3328:3889   */\n      swap5\n      swap4\n      pop\n      pop\n      pop\n      pop\n      jump\t// out\n        /* \"#utility.yul\":3895:4314   */\n    tag_28:\n        /* \"#utility.yul\":4061:4065   */\n      0x00\n        /* \"#utility.yul\":4099:4101   */\n      0x20\n        /* \"#utility.yul\":4088:4097   */\n      dup3\n        /* \"#utility.yul\":4084:4102   */\n      add\n        /* \"#utility.yul\":4076:4102   */\n      swap1\n      pop\n        /* \"#utility.yul\":4148:4157   */\n      dup2\n        /* \"#utility.yul\":4142:4146   */\n      dup2\n        /* \"#utility.yul\":4138:4158   */\n      sub\n        /* \"#utility.yul\":4134:4135   */\n      0x00\n        /* \"#utility.yul\":4123:4132   */\n      dup4\n        /* \"#utility.yul\":4119:4136   */\n      add\n        /* \"#utility.yul\":4112:4159   */\n      mstore\n        /* \"#utility.yul\":4176:4307   */\n      tag_130\n        /* \"#utility.yul\":4302:4306   */\n      dup2\n        /* \"#utility.yul\":4176:4307   */\n      tag_111\n      jump\t// in\n    tag_130:\n        /* \"#utility.yul\":4168:4307   */\n      swap1\n      pop\n        /* \"#utility.yul\":3895:4314   */\n      swap2\n      swap1\n      pop\n      jump\t// out\n        /* \"#utility.yul\":4320:4739   */\n    tag_36:\n        /* \"#utility.yul\":4486:4490   */\n      0x00\n        /* \"#utility.yul\":4524:4526   */\n      0x20\n        /* \"#utility.yul\":4513:4522   */\n      dup3\n        /* \"#utility.yul\":4509:4527   */\n      add\n        /* \"#utility.yul\":4501:4527   */\n      swap1\n      pop\n        /* \"#utility.yul\":4573:4582   */\n      dup2\n        /* \"#utility.yul\":4567:4571   */\n      dup2\n        /* \"#utility.yul\":4563:4583   */\n      sub\n        /* \"#utility.yul\":4559:4560   */\n      0x00\n        /* \"#utility.yul\":4548:4557   */\n      dup4\n        /* \"#utility.yul\":4544:4561   */\n      add\n        /* \"#utility.yul\":4537:4584   */\n      mstore\n        /* \"#utility.yul\":4601:4732   */\n      tag_132\n        /* \"#utility.yul\":4727:4731   */\n      dup2\n        /* \"#utility.yul\":4601:4732   */\n      tag_116\n      jump\t// in\n    tag_132:\n        /* \"#utility.yul\":4593:4732   */\n      swap1\n      pop\n        /* \"#utility.yul\":4320:4739   */\n      swap2\n      swap1\n      pop\n      jump\t// out\n        /* \"#utility.yul\":4745:4874   */\n    tag_68:\n        /* \"#utility.yul\":4779:4785   */\n      0x00\n        /* \"#utility.yul\":4806:4826   */\n      tag_134\n      tag_135\n      jump\t// in\n    tag_134:\n        /* \"#utility.yul\":4796:4826   */\n      swap1\n      pop\n        /* \"#utility.yul\":4835:4868   */\n      tag_136\n        /* \"#utility.yul\":4863:4867   */\n      dup3\n        /* \"#utility.yul\":4855:4861   */\n      dup3\n        /* \"#utility.yul\":4835:4868   */\n      tag_137\n      jump\t// in\n    tag_136:\n        /* \"#utility.yul\":4745:4874   */\n      swap2\n      swap1\n      pop\n      jump\t// out\n        /* \"#utility.yul\":4880:4955   */\n    tag_135:\n        /* \"#utility.yul\":4913:4919   */\n      0x00\n        /* \"#utility.yul\":4946:4948   */\n      0x40\n        /* \"#utility.yul\":4940:4949   */\n      mload\n        /* \"#utility.yul\":4930:4949   */\n      swap1\n      pop\n        /* \"#utility.yul\":4880:4955   */\n      swap1\n      jump\t// out\n        /* \"#utility.yul\":4961:5269   */\n    tag_67:\n        /* \"#utility.yul\":5023:5027   */\n      0x00\n        /* \"#utility.yul\":5113:5131   */\n      0xffffffffffffffff\n        /* \"#utility.yul\":5105:5111   */\n      dup3\n        /* \"#utility.yul\":5102:5132   */\n      gt\n        /* \"#utility.yul\":5099:5155   */\n      iszero\n      tag_140\n      jumpi\n        /* \"#utility.yul\":5135:5153   */\n      tag_141\n      tag_142\n      jump\t// in\n    tag_141:\n        /* \"#utility.yul\":5099:5155   */\n    tag_140:\n        /* \"#utility.yul\":5173:5202   */\n      tag_143\n        /* \"#utility.yul\":5195:5201   */\n      dup3\n        /* \"#utility.yul\":5173:5202   */\n      tag_110\n      jump\t// in\n    tag_143:\n        /* \"#utility.yul\":5165:5202   */\n      swap1\n      pop\n        /* \"#utility.yul\":5257:5261   */\n      0x20\n        /* \"#utility.yul\":5251:5255   */\n      dup2\n        /* \"#utility.yul\":5247:5262   */\n      add\n        /* \"#utility.yul\":5239:5262   */\n      swap1\n      pop\n        /* \"#utility.yul\":4961:5269   */\n      swap2\n      swap1\n      pop\n      jump\t// out\n        /* \"#utility.yul\":5275:5374   */\n    tag_104:\n        /* \"#utility.yul\":5327:5333   */\n      0x00\n        /* \"#utility.yul\":5361:5366   */\n      dup2\n        /* \"#utility.yul\":5355:5367   */\n      mload\n        /* \"#utility.yul\":5345:5367   */\n      swap1\n      pop\n        /* \"#utility.yul\":5275:5374   */\n      swap2\n      swap1\n      pop\n      jump\t// out\n        /* \"#utility.yul\":5380:5549   */\n    tag_106:\n        /* \"#utility.yul\":5464:5475   */\n      0x00\n        /* \"#utility.yul\":5498:5504   */\n      dup3\n        /* \"#utility.yul\":5493:5496   */\n      dup3\n        /* \"#utility.yul\":5486:5505   */\n      mstore\n        /* \"#utility.yul\":5538:5542   */\n      0x20\n        /* \"#utility.yul\":5533:5536   */\n      dup3\n        /* \"#utility.yul\":5529:5543   */\n      add\n        /* \"#utility.yul\":5514:5543   */\n      swap1\n      pop\n        /* \"#utility.yul\":5380:5549   */\n      swap3\n      swap2\n      pop\n      pop\n      jump\t// out\n        /* \"#utility.yul\":5555:5698   */\n    tag_146:\n        /* \"#utility.yul\":5608:5615   */\n      0x00\n        /* \"#utility.yul\":5637:5642   */\n      dup2\n        /* \"#utility.yul\":5626:5642   */\n      swap1\n      pop\n        /* \"#utility.yul\":5643:5692   */\n      tag_148\n        /* \"#utility.yul\":5686:5691   */\n      dup3\n        /* \"#utility.yul\":5643:5692   */\n      tag_149\n      jump\t// in\n    tag_148:\n        /* \"#utility.yul\":5555:5698   */\n      swap2\n      swap1\n      pop\n      jump\t// out\n        /* \"#utility.yul\":5704:5781   */\n    tag_124:\n        /* \"#utility.yul\":5741:5748   */\n      0x00\n        /* \"#utility.yul\":5770:5775   */\n      dup2\n        /* \"#utility.yul\":5759:5775   */\n      swap1\n      pop\n        /* \"#utility.yul\":5704:5781   */\n      swap2\n      swap1\n      pop\n      jump\t// out\n        /* \"#utility.yul\":5787:5930   */\n    tag_100:\n        /* \"#utility.yul\":5851:5860   */\n      0x00\n        /* \"#utility.yul\":5884:5924   */\n      tag_152\n        /* \"#utility.yul\":5918:5923   */\n      dup3\n        /* \"#utility.yul\":5884:5924   */\n      tag_146\n      jump\t// in\n    tag_152:\n        /* \"#utility.yul\":5871:5924   */\n      swap1\n      pop\n        /* \"#utility.yul\":5787:5930   */\n      swap2\n      swap1\n      pop\n      jump\t// out\n        /* \"#utility.yul\":5936:6090   */\n    tag_73:\n        /* \"#utility.yul\":6020:6026   */\n      dup3\n        /* \"#utility.yul\":6015:6018   */\n      dup2\n        /* \"#utility.yul\":6010:6013   */\n      dup4\n        /* \"#utility.yul\":5997:6027   */\n      calldatacopy\n        /* \"#utility.yul\":6082:6083   */\n      0x00\n        /* \"#utility.yul\":6073:6079   */\n      dup4\n        /* \"#utility.yul\":6068:6071   */\n      dup4\n        /* \"#utility.yul\":6064:6080   */\n      add\n        /* \"#utility.yul\":6057:6084   */\n      mstore\n        /* \"#utility.yul\":5936:6090   */\n      pop\n      pop\n      pop\n      jump\t// out\n        /* \"#utility.yul\":6096:6403   */\n    tag_108:\n        /* \"#utility.yul\":6164:6165   */\n      0x00\n        /* \"#utility.yul\":6174:6287   */\n    tag_155:\n        /* \"#utility.yul\":6188:6194   */\n      dup4\n        /* \"#utility.yul\":6185:6186   */\n      dup2\n        /* \"#utility.yul\":6182:6195   */\n      lt\n        /* \"#utility.yul\":6174:6287   */\n      iszero\n      tag_157\n      jumpi\n        /* \"#utility.yul\":6273:6274   */\n      dup1\n        /* \"#utility.yul\":6268:6271   */\n      dup3\n        /* \"#utility.yul\":6264:6275   */\n      add\n        /* \"#utility.yul\":6258:6276   */\n      mload\n        /* \"#utility.yul\":6254:6255   */\n      dup2\n        /* \"#utility.yul\":6249:6252   */\n      dup5\n        /* \"#utility.yul\":6245:6256   */\n      add\n        /* \"#utility.yul\":6238:6277   */\n      mstore\n        /* \"#utility.yul\":6210:6212   */\n      0x20\n        /* \"#utility.yul\":6207:6208   */\n      dup2\n        /* \"#utility.yul\":6203:6213   */\n      add\n        /* \"#utility.yul\":6198:6213   */\n      swap1\n      pop\n        /* \"#utility.yul\":6174:6287   */\n      jump(tag_155)\n    tag_157:\n        /* \"#utility.yul\":6305:6311   */\n      dup4\n        /* \"#utility.yul\":6302:6303   */\n      dup2\n        /* \"#utility.yul\":6299:6312   */\n      gt\n        /* \"#utility.yul\":6296:6397   */\n      iszero\n      tag_158\n      jumpi\n        /* \"#utility.yul\":6385:6386   */\n      0x00\n        /* \"#utility.yul\":6376:6382   */\n      dup5\n        /* \"#utility.yul\":6371:6374   */\n      dup5\n        /* \"#utility.yul\":6367:6383   */\n      add\n        /* \"#utility.yul\":6360:6387   */\n      mstore\n        /* \"#utility.yul\":6296:6397   */\n    tag_158:\n        /* \"#utility.yul\":6145:6403   */\n      pop\n        /* \"#utility.yul\":6096:6403   */\n      pop\n      pop\n      pop\n      jump\t// out\n        /* \"#utility.yul\":6409:6729   */\n    tag_47:\n        /* \"#utility.yul\":6453:6459   */\n      0x00\n        /* \"#utility.yul\":6490:6491   */\n      0x02\n        /* \"#utility.yul\":6484:6488   */\n      dup3\n        /* \"#utility.yul\":6480:6492   */\n      div\n        /* \"#utility.yul\":6470:6492   */\n      swap1\n      pop\n        /* \"#utility.yul\":6537:6538   */\n      0x01\n        /* \"#utility.yul\":6531:6535   */\n      dup3\n        /* \"#utility.yul\":6527:6539   */\n      and\n        /* \"#utility.yul\":6558:6576   */\n      dup1\n        /* \"#utility.yul\":6548:6629   */\n      tag_160\n      jumpi\n        /* \"#utility.yul\":6614:6618   */\n      0x7f\n        /* \"#utility.yul\":6606:6612   */\n      dup3\n        /* \"#utility.yul\":6602:6619   */\n      and\n        /* \"#utility.yul\":6592:6619   */\n      swap2\n      pop\n        /* \"#utility.yul\":6548:6629   */\n    tag_160:\n        /* \"#utility.yul\":6676:6678   */\n      0x20\n        /* \"#utility.yul\":6668:6674   */\n      dup3\n        /* \"#utility.yul\":6665:6679   */\n      lt\n        /* \"#utility.yul\":6645:6663   */\n      dup2\n        /* \"#utility.yul\":6642:6680   */\n      eq\n        /* \"#utility.yul\":6639:6723   */\n      iszero\n      tag_161\n      jumpi\n        /* \"#utility.yul\":6695:6713   */\n      tag_162\n      tag_163\n      jump\t// in\n    tag_162:\n        /* \"#utility.yul\":6639:6723   */\n    tag_161:\n        /* \"#utility.yul\":6460:6729   */\n      pop\n        /* \"#utility.yul\":6409:6729   */\n      swap2\n      swap1\n      pop\n      jump\t// out\n        /* \"#utility.yul\":6735:7016   */\n    tag_137:\n        /* \"#utility.yul\":6818:6845   */\n      tag_165\n        /* \"#utility.yul\":6840:6844   */\n      dup3\n        /* \"#utility.yul\":6818:6845   */\n      tag_110\n      jump\t// in\n    tag_165:\n        /* \"#utility.yul\":6810:6816   */\n      dup2\n        /* \"#utility.yul\":6806:6846   */\n      add\n        /* \"#utility.yul\":6948:6954   */\n      dup2\n        /* \"#utility.yul\":6936:6946   */\n      dup2\n        /* \"#utility.yul\":6933:6955   */\n      lt\n        /* \"#utility.yul\":6912:6930   */\n      0xffffffffffffffff\n        /* \"#utility.yul\":6900:6910   */\n      dup3\n        /* \"#utility.yul\":6897:6931   */\n      gt\n        /* \"#utility.yul\":6894:6956   */\n      or\n        /* \"#utility.yul\":6891:6979   */\n      iszero\n      tag_166\n      jumpi\n        /* \"#utility.yul\":6959:6977   */\n      tag_167\n      tag_142\n      jump\t// in\n    tag_167:\n        /* \"#utility.yul\":6891:6979   */\n    tag_166:\n        /* \"#utility.yul\":6999:7009   */\n      dup1\n        /* \"#utility.yul\":6995:6997   */\n      0x40\n        /* \"#utility.yul\":6988:7010   */\n      mstore\n        /* \"#utility.yul\":6778:7016   */\n      pop\n        /* \"#utility.yul\":6735:7016   */\n      pop\n      pop\n      jump\t// out\n        /* \"#utility.yul\":7022:7255   */\n    tag_45:\n        /* \"#utility.yul\":7061:7064   */\n      0x00\n        /* \"#utility.yul\":7084:7108   */\n      tag_169\n        /* \"#utility.yul\":7102:7107   */\n      dup3\n        /* \"#utility.yul\":7084:7108   */\n      tag_124\n      jump\t// in\n    tag_169:\n        /* \"#utility.yul\":7075:7108   */\n      swap2\n      pop\n        /* \"#utility.yul\":7130:7196   */\n      0xffffffffffffffffffffffffffffffffffffffffffffffffffffffffffffffff\n        /* \"#utility.yul\":7123:7128   */\n      dup3\n        /* \"#utility.yul\":7120:7197   */\n      eq\n        /* \"#utility.yul\":7117:7220   */\n      iszero\n      tag_170\n      jumpi\n        /* \"#utility.yul\":7200:7218   */\n      tag_171\n      tag_172\n      jump\t// in\n    tag_171:\n        /* \"#utility.yul\":7117:7220   */\n    tag_170:\n        /* \"#utility.yul\":7247:7248   */\n      0x01\n        /* \"#utility.yul\":7240:7245   */\n      dup3\n        /* \"#utility.yul\":7236:7249   */\n      add\n        /* \"#utility.yul\":7229:7249   */\n      swap1\n      pop\n        /* \"#utility.yul\":7022:7255   */\n      swap2\n      swap1\n      pop\n      jump\t// out\n        /* \"#utility.yul\":7261:7441   */\n    tag_172:\n        /* \"#utility.yul\":7309:7386   */\n      0x4e487b7100000000000000000000000000000000000000000000000000000000\n        /* \"#utility.yul\":7306:7307   */\n      0x00\n        /* \"#utility.yul\":7299:7387   */\n      mstore\n        /* \"#utility.yul\":7406:7410   */\n      0x11\n        /* \"#utility.yul\":7403:7404   */\n      0x04\n        /* \"#utility.yul\":7396:7411   */\n      mstore\n        /* \"#utility.yul\":7430:7434   */\n      0x24\n        /* \"#utility.yul\":7427:7428   */\n      0x00\n        /* \"#utility.yul\":7420:7435   */\n      revert\n        /* \"#utility.yul\":7447:7627   */\n    tag_31:\n        /* \"#utility.yul\":7495:7572   */\n      0x4e487b7100000000000000000000000000000000000000000000000000000000\n        /* \"#utility.yul\":7492:7493   */\n      0x00\n        /* \"#utility.yul\":7485:7573   */\n      mstore\n        /* \"#utility.yul\":7592:7596   */\n      0x21\n        /* \"#utility.yul\":7589:7590   */\n      0x04\n        /* \"#utility.yul\":7582:7597   */\n      mstore\n        /* \"#utility.yul\":7616:7620   */\n      0x24\n        /* \"#utility.yul\":7613:7614   */\n      0x00\n        /* \"#utility.yul\":7606:7621   */\n      revert\n        /* \"#utility.yul\":7633:7813   */\n    tag_163:\n        /* \"#utility.yul\":7681:7758   */\n      0x4e487b7100000000000000000000000000000000000000000000000000000000\n        /* \"#utility.yul\":7678:7679   */\n      0x00\n        /* \"#utility.yul\":7671:7759   */\n      mstore\n        /* \"#utility.yul\":7778:7782   */\n      0x22\n        /* \"#utility.yul\":7775:7776   */\n      0x04\n        /* \"#utility.yul\":7768:7783   */\n      mstore\n        /* \"#utility.yul\":7802:7806   */\n      0x24\n        /* \"#utility.yul\":7799:7800   */\n      0x00\n        /* \"#utility.yul\":7792:7807   */\n      revert\n        /* \"#utility.yul\":7819:7999   */\n    tag_142:\n        /* \"#utility.yul\":7867:7944   */\n      0x4e487b7100000000000000000000000000000000000000000000000000000000\n        /* \"#utility.yul\":7864:7865   */\n      0x00\n        /* \"#utility.yul\":7857:7945   */\n      mstore\n        /* \"#utility.yul\":7964:7968   */\n      0x41\n        /* \"#utility.yul\":7961:7962   */\n      0x04\n        /* \"#utility.yul\":7954:7969   */\n      mstore\n        /* \"#utility.yul\":7988:7992   */\n      0x24\n        /* \"#utility.yul\":7985:7986   */\n      0x00\n        /* \"#utility.yul\":7978:7993   */\n      revert\n        /* \"#utility.yul\":8005:8122   */\n    tag_78:\n        /* \"#utility.yul\":8114:8115   */\n      0x00\n        /* \"#utility.yul\":8111:8112   */\n      dup1\n        /* \"#utility.yul\":8104:8116   */\n      revert\n        /* \"#utility.yul\":8128:8245   */\n    tag_71:\n        /* \"#utility.yul\":8237:8238   */\n      0x00\n        /* \"#utility.yul\":8234:8235   */\n      dup1\n        /* \"#utility.yul\":8227:8239   */\n      revert\n        /* \"#utility.yul\":8251:8368   */\n    tag_90:\n        /* \"#utility.yul\":8360:8361   */\n      0x00\n        /* \"#utility.yul\":8357:8358   */\n      dup1\n        /* \"#utility.yul\":8350:8362   */\n      revert\n        /* \"#utility.yul\":8374:8491   */\n    tag_87:\n        /* \"#utility.yul\":8483:8484   */\n      0x00\n        /* \"#utility.yul\":8480:8481   */\n      dup1\n        /* \"#utility.yul\":8473:8485   */\n      revert\n        /* \"#utility.yul\":8497:8599   */\n    tag_110:\n        /* \"#utility.yul\":8538:8544   */\n      0x00\n        /* \"#utility.yul\":8589:8591   */\n      0x1f\n        /* \"#utility.yul\":8585:8592   */\n      not\n        /* \"#utility.yul\":8580:8582   */\n      0x1f\n        /* \"#utility.yul\":8573:8578   */\n      dup4\n        /* \"#utility.yul\":8569:8583   */\n      add\n        /* \"#utility.yul\":8565:8593   */\n      and\n        /* \"#utility.yul\":8555:8593   */\n      swap1\n      pop\n        /* \"#utility.yul\":8497:8599   */\n      swap2\n      swap1\n      pop\n      jump\t// out\n        /* \"#utility.yul\":8605:8779   */\n    tag_115:\n        /* \"#utility.yul\":8745:8771   */\n      0x506c656173652070617920657861637420616d6f756e742e0000000000000000\n        /* \"#utility.yul\":8741:8742   */\n      0x00\n        /* \"#utility.yul\":8733:8739   */\n      dup3\n        /* \"#utility.yul\":8729:8743   */\n      add\n        /* \"#utility.yul\":8722:8772   */\n      mstore\n        /* \"#utility.yul\":8605:8779   */\n      pop\n      jump\t// out\n        /* \"#utility.yul\":8785:9015   */\n    tag_120:\n        /* \"#utility.yul\":8925:8959   */\n      0x4974656d20686173206265656e20616c7265616479207061696420666f72206f\n        /* \"#utility.yul\":8921:8922   */\n      0x00\n        /* \"#utility.yul\":8913:8919   */\n      dup3\n        /* \"#utility.yul\":8909:8923   */\n      add\n        /* \"#utility.yul\":8902:8960   */\n      mstore\n        /* \"#utility.yul\":8994:9007   */\n      0x722064656c697665726564000000000000000000000000000000000000000000\n        /* \"#utility.yul\":8989:8991   */\n      0x20\n        /* \"#utility.yul\":8981:8987   */\n      dup3\n        /* \"#utility.yul\":8977:8992   */\n      add\n        /* \"#utility.yul\":8970:9008   */\n      mstore\n        /* \"#utility.yul\":8785:9015   */\n      pop\n      jump\t// out\n        /* \"#utility.yul\":9021:9142   */\n    tag_149:\n        /* \"#utility.yul\":9110:9111   */\n      0x03\n        /* \"#utility.yul\":9103:9108   */\n      dup2\n        /* \"#utility.yul\":9100:9112   */\n      lt\n        /* \"#utility.yul\":9090:9136   */\n      tag_185\n      jumpi\n        /* \"#utility.yul\":9116:9134   */\n      tag_186\n      tag_31\n      jump\t// in\n    tag_186:\n        /* \"#utility.yul\":9090:9136   */\n    tag_185:\n        /* \"#utility.yul\":9021:9142   */\n      pop\n      jump\t// out\n        /* \"#utility.yul\":9148:9270   */\n    tag_83:\n        /* \"#utility.yul\":9221:9245   */\n      tag_188\n        /* \"#utility.yul\":9239:9244   */\n      dup2\n        /* \"#utility.yul\":9221:9245   */\n      tag_124\n      jump\t// in\n    tag_188:\n        /* \"#utility.yul\":9214:9219   */\n      dup2\n        /* \"#utility.yul\":9211:9246   */\n      eq\n        /* \"#utility.yul\":9201:9264   */\n      tag_189\n      jumpi\n        /* \"#utility.yul\":9260:9261   */\n      0x00\n        /* \"#utility.yul\":9257:9258   */\n      dup1\n        /* \"#utility.yul\":9250:9262   */\n      revert\n        /* \"#utility.yul\":9201:9264   */\n    tag_189:\n        /* \"#utility.yul\":9148:9270   */\n      pop\n      jump\t// out\n\n    auxdata: 0xa2646970667358221220384eb85c8da4fcf7ef9335cda163b01a9f26c26d5d40607c432ea4791ae4423d64736f6c63430008070033\n}\n",
				"bytecode": {
					"linkReferences": {},
					"object": "608060405234801561001057600080fd5b50610980806100206000396000f3fe60806040526004361061003f5760003560e01c80635f4fe7b614610044578063800fb83f1461005b5780638c55174214610077578063bfb231d2146100a0575b600080fd5b34801561005057600080fd5b506100596100df565b005b610075600480360381019061007091906104ef565b6100e1565b005b34801561008357600080fd5b5061009e60048036038101906100999190610493565b610208565b005b3480156100ac57600080fd5b506100c760048036038101906100c291906104ef565b6102ac565b6040516100d6939291906105b9565b60405180910390f35b565b346000806001548152602001908152602001600020600101541461013a576040517f08c379a0000000000000000000000000000000000000000000000000000000008152600401610131906105f7565b60405180910390fd5b6000600281111561014e5761014d6107f5565b5b600080600154815260200190815260200160002060020160009054906101000a900460ff166002811115610185576101846107f5565b5b146101c5576040517f08c379a00000000000000000000000000000000000000000000000000000000081526004016101bc90610617565b60405180910390fd5b6001600080600154815260200190815260200160002060020160006101000a81548160ff02191690836002811115610200576101ff6107f5565b5b021790555050565b816000806001548152602001908152602001600020600001908051906020019061023392919061036b565b50806000806001548152602001908152602001600020600101819055506000806000600154815260200190815260200160002060020160006101000a81548160ff0219169083600281111561028b5761028a6107f5565b5b0217905550600160008154809291906102a39061077d565b91905055505050565b60006020528060005260406000206000915090508060000180546102cf9061071a565b80601f01602080910402602001604051908101604052809291908181526020018280546102fb9061071a565b80156103485780601f1061031d57610100808354040283529160200191610348565b820191906000526020600020905b81548152906001019060200180831161032b57829003601f168201915b5050505050908060010154908060020160009054906101000a900460ff16905083565b8280546103779061071a565b90600052602060002090601f01602090048101928261039957600085556103e0565b82601f106103b257805160ff19168380011785556103e0565b828001600101855582156103e0579182015b828111156103df5782518255916020019190600101906103c4565b5b5090506103ed91906103f1565b5090565b5b8082111561040a5760008160009055506001016103f2565b5090565b600061042161041c8461065c565b610637565b90508281526020810184848401111561043d5761043c610887565b5b6104488482856106d8565b509392505050565b600082601f83011261046557610464610882565b5b813561047584826020860161040e565b91505092915050565b60008135905061048d81610933565b92915050565b600080604083850312156104aa576104a9610891565b5b600083013567ffffffffffffffff8111156104c8576104c761088c565b5b6104d485828601610450565b92505060206104e58582860161047e565b9150509250929050565b60006020828403121561050557610504610891565b5b60006105138482850161047e565b91505092915050565b610525816106c6565b82525050565b60006105368261068d565b6105408185610698565b93506105508185602086016106e7565b61055981610896565b840191505092915050565b6000610571601883610698565b915061057c826108a7565b602082019050919050565b6000610594602b83610698565b915061059f826108d0565b604082019050919050565b6105b3816106bc565b82525050565b600060608201905081810360008301526105d3818661052b565b90506105e260208301856105aa565b6105ef604083018461051c565b949350505050565b6000602082019050818103600083015261061081610564565b9050919050565b6000602082019050818103600083015261063081610587565b9050919050565b6000610641610652565b905061064d828261074c565b919050565b6000604051905090565b600067ffffffffffffffff82111561067757610676610853565b5b61068082610896565b9050602081019050919050565b600081519050919050565b600082825260208201905092915050565b60008190506106b78261091f565b919050565b6000819050919050565b60006106d1826106a9565b9050919050565b82818337600083830152505050565b60005b838110156107055780820151818401526020810190506106ea565b83811115610714576000848401525b50505050565b6000600282049050600182168061073257607f821691505b6020821081141561074657610745610824565b5b50919050565b61075582610896565b810181811067ffffffffffffffff8211171561077457610773610853565b5b80604052505050565b6000610788826106bc565b91507fffffffffffffffffffffffffffffffffffffffffffffffffffffffffffffffff8214156107bb576107ba6107c6565b5b600182019050919050565b7f4e487b7100000000000000000000000000000000000000000000000000000000600052601160045260246000fd5b7f4e487b7100000000000000000000000000000000000000000000000000000000600052602160045260246000fd5b7f4e487b7100000000000000000000000000000000000000000000000000000000600052602260045260246000fd5b7f4e487b7100000000000000000000000000000000000000000000000000000000600052604160045260246000fd5b600080fd5b600080fd5b600080fd5b600080fd5b6000601f19601f8301169050919050565b7f506c656173652070617920657861637420616d6f756e742e0000000000000000600082015250565b7f4974656d20686173206265656e20616c7265616479207061696420666f72206f60008201527f722064656c697665726564000000000000000000000000000000000000000000602082015250565b600381106109305761092f6107f5565b5b50565b61093c816106bc565b811461094757600080fd5b5056fea2646970667358221220384eb85c8da4fcf7ef9335cda163b01a9f26c26d5d40607c432ea4791ae4423d64736f6c63430008070033",
					"opcodes": "PUSH1 0x80 PUSH1 0x40 MSTORE CALLVALUE DUP1 ISZERO PUSH2 0x10 JUMPI PUSH1 0x0 DUP1 REVERT JUMPDEST POP PUSH2 0x980 DUP1 PUSH2 0x20 PUSH1 0x0 CODECOPY PUSH1 0x0 RETURN INVALID PUSH1 0x80 PUSH1 0x40 MSTORE PUSH1 0x4 CALLDATASIZE LT PUSH2 0x3F JUMPI PUSH1 0x0 CALLDATALOAD PUSH1 0xE0 SHR DUP1 PUSH4 0x5F4FE7B6 EQ PUSH2 0x44 JUMPI DUP1 PUSH4 0x800FB83F EQ PUSH2 0x5B JUMPI DUP1 PUSH4 0x8C551742 EQ PUSH2 0x77 JUMPI DUP1 PUSH4 0xBFB231D2 EQ PUSH2 0xA0 JUMPI JUMPDEST PUSH1 0x0 DUP1 REVERT JUMPDEST CALLVALUE DUP1 ISZERO PUSH2 0x50 JUMPI PUSH1 0x0 DUP1 REVERT JUMPDEST POP PUSH2 0x59 PUSH2 0xDF JUMP JUMPDEST STOP JUMPDEST PUSH2 0x75 PUSH1 0x4 DUP1 CALLDATASIZE SUB DUP2 ADD SWAP1 PUSH2 0x70 SWAP2 SWAP1 PUSH2 0x4EF JUMP JUMPDEST PUSH2 0xE1 JUMP JUMPDEST STOP JUMPDEST CALLVALUE DUP1 ISZERO PUSH2 0x83 JUMPI PUSH1 0x0 DUP1 REVERT JUMPDEST POP PUSH2 0x9E PUSH1 0x4 DUP1 CALLDATASIZE SUB DUP2 ADD SWAP1 PUSH2 0x99 SWAP2 SWAP1 PUSH2 0x493 JUMP JUMPDEST PUSH2 0x208 JUMP JUMPDEST STOP JUMPDEST CALLVALUE DUP1 ISZERO PUSH2 0xAC JUMPI PUSH1 0x0 DUP1 REVERT JUMPDEST POP PUSH2 0xC7 PUSH1 0x4 DUP1 CALLDATASIZE SUB DUP2 ADD SWAP1 PUSH2 0xC2 SWAP2 SWAP1 PUSH2 0x4EF JUMP JUMPDEST PUSH2 0x2AC JUMP JUMPDEST PUSH1 0x40 MLOAD PUSH2 0xD6 SWAP4 SWAP3 SWAP2 SWAP1 PUSH2 0x5B9 JUMP JUMPDEST PUSH1 0x40 MLOAD DUP1 SWAP2 SUB SWAP1 RETURN JUMPDEST JUMP JUMPDEST CALLVALUE PUSH1 0x0 DUP1 PUSH1 0x1 SLOAD DUP2 MSTORE PUSH1 0x20 ADD SWAP1 DUP2 MSTORE PUSH1 0x20 ADD PUSH1 0x0 KECCAK256 PUSH1 0x1 ADD SLOAD EQ PUSH2 0x13A JUMPI PUSH1 0x40 MLOAD PUSH32 0x8C379A000000000000000000000000000000000000000000000000000000000 DUP2 MSTORE PUSH1 0x4 ADD PUSH2 0x131 SWAP1 PUSH2 0x5F7 JUMP JUMPDEST PUSH1 0x40 MLOAD DUP1 SWAP2 SUB SWAP1 REVERT JUMPDEST PUSH1 0x0 PUSH1 0x2 DUP2 GT ISZERO PUSH2 0x14E JUMPI PUSH2 0x14D PUSH2 0x7F5 JUMP JUMPDEST JUMPDEST PUSH1 0x0 DUP1 PUSH1 0x1 SLOAD DUP2 MSTORE PUSH1 0x20 ADD SWAP1 DUP2 MSTORE PUSH1 0x20 ADD PUSH1 0x0 KECCAK256 PUSH1 0x2 ADD PUSH1 0x0 SWAP1 SLOAD SWAP1 PUSH2 0x100 EXP SWAP1 DIV PUSH1 0xFF AND PUSH1 0x2 DUP2 GT ISZERO PUSH2 0x185 JUMPI PUSH2 0x184 PUSH2 0x7F5 JUMP JUMPDEST JUMPDEST EQ PUSH2 0x1C5 JUMPI PUSH1 0x40 MLOAD PUSH32 0x8C379A000000000000000000000000000000000000000000000000000000000 DUP2 MSTORE PUSH1 0x4 ADD PUSH2 0x1BC SWAP1 PUSH2 0x617 JUMP JUMPDEST PUSH1 0x40 MLOAD DUP1 SWAP2 SUB SWAP1 REVERT JUMPDEST PUSH1 0x1 PUSH1 0x0 DUP1 PUSH1 0x1 SLOAD DUP2 MSTORE PUSH1 0x20 ADD SWAP1 DUP2 MSTORE PUSH1 0x20 ADD PUSH1 0x0 KECCAK256 PUSH1 0x2 ADD PUSH1 0x0 PUSH2 0x100 EXP DUP2 SLOAD DUP2 PUSH1 0xFF MUL NOT AND SWAP1 DUP4 PUSH1 0x2 DUP2 GT ISZERO PUSH2 0x200 JUMPI PUSH2 0x1FF PUSH2 0x7F5 JUMP JUMPDEST JUMPDEST MUL OR SWAP1 SSTORE POP POP JUMP JUMPDEST DUP2 PUSH1 0x0 DUP1 PUSH1 0x1 SLOAD DUP2 MSTORE PUSH1 0x20 ADD SWAP1 DUP2 MSTORE PUSH1 0x20 ADD PUSH1 0x0 KECCAK256 PUSH1 0x0 ADD SWAP1 DUP1 MLOAD SWAP1 PUSH1 0x20 ADD SWAP1 PUSH2 0x233 SWAP3 SWAP2 SWAP1 PUSH2 0x36B JUMP JUMPDEST POP DUP1 PUSH1 0x0 DUP1 PUSH1 0x1 SLOAD DUP2 MSTORE PUSH1 0x20 ADD SWAP1 DUP2 MSTORE PUSH1 0x20 ADD PUSH1 0x0 KECCAK256 PUSH1 0x1 ADD DUP2 SWAP1 SSTORE POP PUSH1 0x0 DUP1 PUSH1 0x0 PUSH1 0x1 SLOAD DUP2 MSTORE PUSH1 0x20 ADD SWAP1 DUP2 MSTORE PUSH1 0x20 ADD PUSH1 0x0 KECCAK256 PUSH1 0x2 ADD PUSH1 0x0 PUSH2 0x100 EXP DUP2 SLOAD DUP2 PUSH1 0xFF MUL NOT AND SWAP1 DUP4 PUSH1 0x2 DUP2 GT ISZERO PUSH2 0x28B JUMPI PUSH2 0x28A PUSH2 0x7F5 JUMP JUMPDEST JUMPDEST MUL OR SWAP1 SSTORE POP PUSH1 0x1 PUSH1 0x0 DUP2 SLOAD DUP1 SWAP3 SWAP2 SWAP1 PUSH2 0x2A3 SWAP1 PUSH2 0x77D JUMP JUMPDEST SWAP2 SWAP1 POP SSTORE POP POP POP JUMP JUMPDEST PUSH1 0x0 PUSH1 0x20 MSTORE DUP1 PUSH1 0x0 MSTORE PUSH1 0x40 PUSH1 0x0 KECCAK256 PUSH1 0x0 SWAP2 POP SWAP1 POP DUP1 PUSH1 0x0 ADD DUP1 SLOAD PUSH2 0x2CF SWAP1 PUSH2 0x71A JUMP JUMPDEST DUP1 PUSH1 0x1F ADD PUSH1 0x20 DUP1 SWAP2 DIV MUL PUSH1 0x20 ADD PUSH1 0x40 MLOAD SWAP1 DUP2 ADD PUSH1 0x40 MSTORE DUP1 SWAP3 SWAP2 SWAP1 DUP2 DUP2 MSTORE PUSH1 0x20 ADD DUP3 DUP1 SLOAD PUSH2 0x2FB SWAP1 PUSH2 0x71A JUMP JUMPDEST DUP1 ISZERO PUSH2 0x348 JUMPI DUP1 PUSH1 0x1F LT PUSH2 0x31D JUMPI PUSH2 0x100 DUP1 DUP4 SLOAD DIV MUL DUP4 MSTORE SWAP2 PUSH1 0x20 ADD SWAP2 PUSH2 0x348 JUMP JUMPDEST DUP3 ADD SWAP2 SWAP1 PUSH1 0x0 MSTORE PUSH1 0x20 PUSH1 0x0 KECCAK256 SWAP1 JUMPDEST DUP2 SLOAD DUP2 MSTORE SWAP1 PUSH1 0x1 ADD SWAP1 PUSH1 0x20 ADD DUP1 DUP4 GT PUSH2 0x32B JUMPI DUP3 SWAP1 SUB PUSH1 0x1F AND DUP3 ADD SWAP2 JUMPDEST POP POP POP POP POP SWAP1 DUP1 PUSH1 0x1 ADD SLOAD SWAP1 DUP1 PUSH1 0x2 ADD PUSH1 0x0 SWAP1 SLOAD SWAP1 PUSH2 0x100 EXP SWAP1 DIV PUSH1 0xFF AND SWAP1 POP DUP4 JUMP JUMPDEST DUP3 DUP1 SLOAD PUSH2 0x377 SWAP1 PUSH2 0x71A JUMP JUMPDEST SWAP1 PUSH1 0x0 MSTORE PUSH1 0x20 PUSH1 0x0 KECCAK256 SWAP1 PUSH1 0x1F ADD PUSH1 0x20 SWAP1 DIV DUP2 ADD SWAP3 DUP3 PUSH2 0x399 JUMPI PUSH1 0x0 DUP6 SSTORE PUSH2 0x3E0 JUMP JUMPDEST DUP3 PUSH1 0x1F LT PUSH2 0x3B2 JUMPI DUP1 MLOAD PUSH1 0xFF NOT AND DUP4 DUP1 ADD OR DUP6 SSTORE PUSH2 0x3E0 JUMP JUMPDEST DUP3 DUP1 ADD PUSH1 0x1 ADD DUP6 SSTORE DUP3 ISZERO PUSH2 0x3E0 JUMPI SWAP2 DUP3 ADD JUMPDEST DUP3 DUP2 GT ISZERO PUSH2 0x3DF JUMPI DUP3 MLOAD DUP3 SSTORE SWAP2 PUSH1 0x20 ADD SWAP2 SWAP1 PUSH1 0x1 ADD SWAP1 PUSH2 0x3C4 JUMP JUMPDEST JUMPDEST POP SWAP1 POP PUSH2 0x3ED SWAP2 SWAP1 PUSH2 0x3F1 JUMP JUMPDEST POP SWAP1 JUMP JUMPDEST JUMPDEST DUP1 DUP3 GT ISZERO PUSH2 0x40A JUMPI PUSH1 0x0 DUP2 PUSH1 0x0 SWAP1 SSTORE POP PUSH1 0x1 ADD PUSH2 0x3F2 JUMP JUMPDEST POP SWAP1 JUMP JUMPDEST PUSH1 0x0 PUSH2 0x421 PUSH2 0x41C DUP5 PUSH2 0x65C JUMP JUMPDEST PUSH2 0x637 JUMP JUMPDEST SWAP1 POP DUP3 DUP2 MSTORE PUSH1 0x20 DUP2 ADD DUP5 DUP5 DUP5 ADD GT ISZERO PUSH2 0x43D JUMPI PUSH2 0x43C PUSH2 0x887 JUMP JUMPDEST JUMPDEST PUSH2 0x448 DUP5 DUP3 DUP6 PUSH2 0x6D8 JUMP JUMPDEST POP SWAP4 SWAP3 POP POP POP JUMP JUMPDEST PUSH1 0x0 DUP3 PUSH1 0x1F DUP4 ADD SLT PUSH2 0x465 JUMPI PUSH2 0x464 PUSH2 0x882 JUMP JUMPDEST JUMPDEST DUP2 CALLDATALOAD PUSH2 0x475 DUP5 DUP3 PUSH1 0x20 DUP7 ADD PUSH2 0x40E JUMP JUMPDEST SWAP2 POP POP SWAP3 SWAP2 POP POP JUMP JUMPDEST PUSH1 0x0 DUP2 CALLDATALOAD SWAP1 POP PUSH2 0x48D DUP2 PUSH2 0x933 JUMP JUMPDEST SWAP3 SWAP2 POP POP JUMP JUMPDEST PUSH1 0x0 DUP1 PUSH1 0x40 DUP4 DUP6 SUB SLT ISZERO PUSH2 0x4AA JUMPI PUSH2 0x4A9 PUSH2 0x891 JUMP JUMPDEST JUMPDEST PUSH1 0x0 DUP4 ADD CALLDATALOAD PUSH8 0xFFFFFFFFFFFFFFFF DUP2 GT ISZERO PUSH2 0x4C8 JUMPI PUSH2 0x4C7 PUSH2 0x88C JUMP JUMPDEST JUMPDEST PUSH2 0x4D4 DUP6 DUP3 DUP7 ADD PUSH2 0x450 JUMP JUMPDEST SWAP3 POP POP PUSH1 0x20 PUSH2 0x4E5 DUP6 DUP3 DUP7 ADD PUSH2 0x47E JUMP JUMPDEST SWAP2 POP POP SWAP3 POP SWAP3 SWAP1 POP JUMP JUMPDEST PUSH1 0x0 PUSH1 0x20 DUP3 DUP5 SUB SLT ISZERO PUSH2 0x505 JUMPI PUSH2 0x504 PUSH2 0x891 JUMP JUMPDEST JUMPDEST PUSH1 0x0 PUSH2 0x513 DUP5 DUP3 DUP6 ADD PUSH2 0x47E JUMP JUMPDEST SWAP2 POP POP SWAP3 SWAP2 POP POP JUMP JUMPDEST PUSH2 0x525 DUP2 PUSH2 0x6C6 JUMP JUMPDEST DUP3 MSTORE POP POP JUMP JUMPDEST PUSH1 0x0 PUSH2 0x536 DUP3 PUSH2 0x68D JUMP JUMPDEST PUSH2 0x540 DUP2 DUP6 PUSH2 0x698 JUMP JUMPDEST SWAP4 POP PUSH2 0x550 DUP2 DUP6 PUSH1 0x20 DUP7 ADD PUSH2 0x6E7 JUMP JUMPDEST PUSH2 0x559 DUP2 PUSH2 0x896 JUMP JUMPDEST DUP5 ADD SWAP2 POP POP SWAP3 SWAP2 POP POP JUMP JUMPDEST PUSH1 0x0 PUSH2 0x571 PUSH1 0x18 DUP4 PUSH2 0x698 JUMP JUMPDEST SWAP2 POP PUSH2 0x57C DUP3 PUSH2 0x8A7 JUMP JUMPDEST PUSH1 0x20 DUP3 ADD SWAP1 POP SWAP2 SWAP1 POP JUMP JUMPDEST PUSH1 0x0 PUSH2 0x594 PUSH1 0x2B DUP4 PUSH2 0x698 JUMP JUMPDEST SWAP2 POP PUSH2 0x59F DUP3 PUSH2 0x8D0 JUMP JUMPDEST PUSH1 0x40 DUP3 ADD SWAP1 POP SWAP2 SWAP1 POP JUMP JUMPDEST PUSH2 0x5B3 DUP2 PUSH2 0x6BC JUMP JUMPDEST DUP3 MSTORE POP POP JUMP JUMPDEST PUSH1 0x0 PUSH1 0x60 DUP3 ADD SWAP1 POP DUP2 DUP2 SUB PUSH1 0x0 DUP4 ADD MSTORE PUSH2 0x5D3 DUP2 DUP7 PUSH2 0x52B JUMP JUMPDEST SWAP1 POP PUSH2 0x5E2 PUSH1 0x20 DUP4 ADD DUP6 PUSH2 0x5AA JUMP JUMPDEST PUSH2 0x5EF PUSH1 0x40 DUP4 ADD DUP5 PUSH2 0x51C JUMP JUMPDEST SWAP5 SWAP4 POP POP POP POP JUMP JUMPDEST PUSH1 0x0 PUSH1 0x20 DUP3 ADD SWAP1 POP DUP2 DUP2 SUB PUSH1 0x0 DUP4 ADD MSTORE PUSH2 0x610 DUP2 PUSH2 0x564 JUMP JUMPDEST SWAP1 POP SWAP2 SWAP1 POP JUMP JUMPDEST PUSH1 0x0 PUSH1 0x20 DUP3 ADD SWAP1 POP DUP2 DUP2 SUB PUSH1 0x0 DUP4 ADD MSTORE PUSH2 0x630 DUP2 PUSH2 0x587 JUMP JUMPDEST SWAP1 POP SWAP2 SWAP1 POP JUMP JUMPDEST PUSH1 0x0 PUSH2 0x641 PUSH2 0x652 JUMP JUMPDEST SWAP1 POP PUSH2 0x64D DUP3 DUP3 PUSH2 0x74C JUMP JUMPDEST SWAP2 SWAP1 POP JUMP JUMPDEST PUSH1 0x0 PUSH1 0x40 MLOAD SWAP1 POP SWAP1 JUMP JUMPDEST PUSH1 0x0 PUSH8 0xFFFFFFFFFFFFFFFF DUP3 GT ISZERO PUSH2 0x677 JUMPI PUSH2 0x676 PUSH2 0x853 JUMP JUMPDEST JUMPDEST PUSH2 0x680 DUP3 PUSH2 0x896 JUMP JUMPDEST SWAP1 POP PUSH1 0x20 DUP2 ADD SWAP1 POP SWAP2 SWAP1 POP JUMP JUMPDEST PUSH1 0x0 DUP2 MLOAD SWAP1 POP SWAP2 SWAP1 POP JUMP JUMPDEST PUSH1 0x0 DUP3 DUP3 MSTORE PUSH1 0x20 DUP3 ADD SWAP1 POP SWAP3 SWAP2 POP POP JUMP JUMPDEST PUSH1 0x0 DUP2 SWAP1 POP PUSH2 0x6B7 DUP3 PUSH2 0x91F JUMP JUMPDEST SWAP2 SWAP1 POP JUMP JUMPDEST PUSH1 0x0 DUP2 SWAP1 POP SWAP2 SWAP1 POP JUMP JUMPDEST PUSH1 0x0 PUSH2 0x6D1 DUP3 PUSH2 0x6A9 JUMP JUMPDEST SWAP1 POP SWAP2 SWAP1 POP JUMP JUMPDEST DUP3 DUP2 DUP4 CALLDATACOPY PUSH1 0x0 DUP4 DUP4 ADD MSTORE POP POP POP JUMP JUMPDEST PUSH1 0x0 JUMPDEST DUP4 DUP2 LT ISZERO PUSH2 0x705 JUMPI DUP1 DUP3 ADD MLOAD DUP2 DUP5 ADD MSTORE PUSH1 0x20 DUP2 ADD SWAP1 POP PUSH2 0x6EA JUMP JUMPDEST DUP4 DUP2 GT ISZERO PUSH2 0x714 JUMPI PUSH1 0x0 DUP5 DUP5 ADD MSTORE JUMPDEST POP POP POP POP JUMP JUMPDEST PUSH1 0x0 PUSH1 0x2 DUP3 DIV SWAP1 POP PUSH1 0x1 DUP3 AND DUP1 PUSH2 0x732 JUMPI PUSH1 0x7F DUP3 AND SWAP2 POP JUMPDEST PUSH1 0x20 DUP3 LT DUP2 EQ ISZERO PUSH2 0x746 JUMPI PUSH2 0x745 PUSH2 0x824 JUMP JUMPDEST JUMPDEST POP SWAP2 SWAP1 POP JUMP JUMPDEST PUSH2 0x755 DUP3 PUSH2 0x896 JUMP JUMPDEST DUP2 ADD DUP2 DUP2 LT PUSH8 0xFFFFFFFFFFFFFFFF DUP3 GT OR ISZERO PUSH2 0x774 JUMPI PUSH2 0x773 PUSH2 0x853 JUMP JUMPDEST JUMPDEST DUP1 PUSH1 0x40 MSTORE POP POP POP JUMP JUMPDEST PUSH1 0x0 PUSH2 0x788 DUP3 PUSH2 0x6BC JUMP JUMPDEST SWAP2 POP PUSH32 0xFFFFFFFFFFFFFFFFFFFFFFFFFFFFFFFFFFFFFFFFFFFFFFFFFFFFFFFFFFFFFFFF DUP3 EQ ISZERO PUSH2 0x7BB JUMPI PUSH2 0x7BA PUSH2 0x7C6 JUMP JUMPDEST JUMPDEST PUSH1 0x1 DUP3 ADD SWAP1 POP SWAP2 SWAP1 POP JUMP JUMPDEST PUSH32 0x4E487B7100000000000000000000000000000000000000000000000000000000 PUSH1 0x0 MSTORE PUSH1 0x11 PUSH1 0x4 MSTORE PUSH1 0x24 PUSH1 0x0 REVERT JUMPDEST PUSH32 0x4E487B7100000000000000000000000000000000000000000000000000000000 PUSH1 0x0 MSTORE PUSH1 0x21 PUSH1 0x4 MSTORE PUSH1 0x24 PUSH1 0x0 REVERT JUMPDEST PUSH32 0x4E487B7100000000000000000000000000000000000000000000000000000000 PUSH1 0x0 MSTORE PUSH1 0x22 PUSH1 0x4 MSTORE PUSH1 0x24 PUSH1 0x0 REVERT JUMPDEST PUSH32 0x4E487B7100000000000000000000000000000000000000000000000000000000 PUSH1 0x0 MSTORE PUSH1 0x41 PUSH1 0x4 MSTORE PUSH1 0x24 PUSH1 0x0 REVERT JUMPDEST PUSH1 0x0 DUP1 REVERT JUMPDEST PUSH1 0x0 DUP1 REVERT JUMPDEST PUSH1 0x0 DUP1 REVERT JUMPDEST PUSH1 0x0 DUP1 REVERT JUMPDEST PUSH1 0x0 PUSH1 0x1F NOT PUSH1 0x1F DUP4 ADD AND SWAP1 POP SWAP2 SWAP1 POP JUMP JUMPDEST PUSH32 0x506C656173652070617920657861637420616D6F756E742E0000000000000000 PUSH1 0x0 DUP3 ADD MSTORE POP JUMP JUMPDEST PUSH32 0x4974656D20686173206265656E20616C7265616479207061696420666F72206F PUSH1 0x0 DUP3 ADD MSTORE PUSH32 0x722064656C697665726564000000000000000000000000000000000000000000 PUSH1 0x20 DUP3 ADD MSTORE POP JUMP JUMPDEST PUSH1 0x3 DUP2 LT PUSH2 0x930 JUMPI PUSH2 0x92F PUSH2 0x7F5 JUMP JUMPDEST JUMPDEST POP JUMP JUMPDEST PUSH2 0x93C DUP2 PUSH2 0x6BC JUMP JUMPDEST DUP2 EQ PUSH2 0x947 JUMPI PUSH1 0x0 DUP1 REVERT JUMPDEST POP JUMP INVALID LOG2 PUSH5 0x6970667358 0x22 SLT KECCAK256 CODESIZE 0x4E 0xB8 0x5C DUP14 LOG4 0xFC 0xF7 0xEF SWAP4 CALLDATALOAD 0xCD LOG1 PUSH4 0xB01A9F26 0xC2 PUSH14 0x5D40607C432EA4791AE4423D6473 PUSH16 0x6C634300080700330000000000000000 "
				},
				"gasEstimates": {
					"creation": {
						"codeDepositCost": "486400",
						"executionCost": "518",
						"totalCost": "486918"
					},
					"external": {
						"createItem(string,uint256)": "infinite",
						"items(uint256)": "infinite",
						"triggerDelivery()": "122",
						"triggerPayment(uint256)": "35554"
					}
				},
				"methodIdentifiers": {
					"createItem(string,uint256)": "8c551742",
					"items(uint256)": "bfb231d2",
					"triggerDelivery()": "5f4fe7b6",
					"triggerPayment(uint256)": "800fb83f"
				}
			},
			"userdoc": {
				"kind": "user",
				"methods": {},
				"version": 1
			}
		}
	}
}