{
	"contracts/eventtrigger.sol": {
		"Item": {
			"abi": [
				{
					"inputs": [
						{
							"internalType": "contract ItemManager",
							"name": "_parentContract",
							"type": "address"
						},
						{
							"internalType": "uint256",
							"name": "_itemPriceInWei",
							"type": "uint256"
						},
						{
							"internalType": "uint256",
							"name": "_itemIndex",
							"type": "uint256"
						}
					],
					"stateMutability": "nonpayable",
					"type": "constructor"
				},
				{
					"inputs": [],
					"name": "itemIndex",
					"outputs": [
						{
							"internalType": "uint256",
							"name": "",
							"type": "uint256"
						}
					],
					"stateMutability": "view",
					"type": "function"
				},
				{
					"inputs": [],
					"name": "itemPriceInWei",
					"outputs": [
						{
							"internalType": "uint256",
							"name": "",
							"type": "uint256"
						}
					],
					"stateMutability": "view",
					"type": "function"
				},
				{
					"inputs": [],
					"name": "pa",
					"outputs": [],
					"stateMutability": "payable",
					"type": "function"
				},
				{
					"inputs": [],
					"name": "pricePaid",
					"outputs": [
						{
							"internalType": "uint256",
							"name": "",
							"type": "uint256"
						}
					],
					"stateMutability": "view",
					"type": "function"
				}
			],
			"devdoc": {
				"kind": "dev",
				"methods": {},
				"version": 1
			},
			"evm": {
				"assembly": "    /* \"contracts/eventtrigger.sol\":60:982  contract Item {\r... */\n  mstore(0x40, 0x80)\n    /* \"contracts/eventtrigger.sol\":207:420  constructor(ItemManager _parentContract, uint _itemPriceInWei, uint _itemIndex) public {\r... */\n  callvalue\n  dup1\n  iszero\n  tag_1\n  jumpi\n  0x00\n  dup1\n  revert\ntag_1:\n  pop\n  mload(0x40)\n  sub(codesize, bytecodeSize)\n  dup1\n  bytecodeSize\n  dup4\n  codecopy\n  dup2\n  dup2\n  add\n  0x40\n  mstore\n  dup2\n  add\n  swap1\n  tag_2\n  swap2\n  swap1\n  tag_3\n  jump\t// in\ntag_2:\n    /* \"contracts/eventtrigger.sol\":322:336  parentContract */\n  0x03\n  0x00\n  swap1\n  sload\n  swap1\n  0x0100\n  exp\n  swap1\n  div\n  0xffffffffffffffffffffffffffffffffffffffff\n  and\n    /* \"contracts/eventtrigger.sol\":305:319  parentContract */\n  0x03\n  0x00\n    /* \"contracts/eventtrigger.sol\":305:336  parentContract = parentContract */\n  0x0100\n  exp\n  dup2\n  sload\n  dup2\n  0xffffffffffffffffffffffffffffffffffffffff\n  mul\n  not\n  and\n  swap1\n  dup4\n  0xffffffffffffffffffffffffffffffffffffffff\n  and\n  mul\n  or\n  swap1\n  sstore\n  pop\n    /* \"contracts/eventtrigger.sol\":364:379  _itemPriceInWei */\n  dup2\n    /* \"contracts/eventtrigger.sol\":347:361  itemPriceInWei */\n  0x00\n    /* \"contracts/eventtrigger.sol\":347:379  itemPriceInWei = _itemPriceInWei */\n  dup2\n  swap1\n  sstore\n  pop\n    /* \"contracts/eventtrigger.sol\":402:412  _itemIndex */\n  dup1\n    /* \"contracts/eventtrigger.sol\":390:399  itemIndex */\n  0x02\n    /* \"contracts/eventtrigger.sol\":390:412  itemIndex = _itemIndex */\n  dup2\n  swap1\n  sstore\n  pop\n    /* \"contracts/eventtrigger.sol\":207:420  constructor(ItemManager _parentContract, uint _itemPriceInWei, uint _itemIndex) public {\r... */\n  pop\n  pop\n  pop\n    /* \"contracts/eventtrigger.sol\":60:982  contract Item {\r... */\n  jump(tag_6)\n    /* \"#utility.yul\":7:188   */\ntag_8:\n    /* \"#utility.yul\":83:88   */\n  0x00\n    /* \"#utility.yul\":114:120   */\n  dup2\n    /* \"#utility.yul\":108:121   */\n  mload\n    /* \"#utility.yul\":99:121   */\n  swap1\n  pop\n    /* \"#utility.yul\":130:182   */\n  tag_10\n    /* \"#utility.yul\":176:181   */\n  dup2\n    /* \"#utility.yul\":130:182   */\n  tag_11\n  jump\t// in\ntag_10:\n    /* \"#utility.yul\":7:188   */\n  swap3\n  swap2\n  pop\n  pop\n  jump\t// out\n    /* \"#utility.yul\":194:337   */\ntag_12:\n    /* \"#utility.yul\":251:256   */\n  0x00\n    /* \"#utility.yul\":282:288   */\n  dup2\n    /* \"#utility.yul\":276:289   */\n  mload\n    /* \"#utility.yul\":267:289   */\n  swap1\n  pop\n    /* \"#utility.yul\":298:331   */\n  tag_14\n    /* \"#utility.yul\":325:330   */\n  dup2\n    /* \"#utility.yul\":298:331   */\n  tag_15\n  jump\t// in\ntag_14:\n    /* \"#utility.yul\":194:337   */\n  swap3\n  swap2\n  pop\n  pop\n  jump\t// out\n    /* \"#utility.yul\":343:1044   */\ntag_3:\n    /* \"#utility.yul\":450:456   */\n  0x00\n    /* \"#utility.yul\":458:464   */\n  dup1\n    /* \"#utility.yul\":466:472   */\n  0x00\n    /* \"#utility.yul\":515:517   */\n  0x60\n    /* \"#utility.yul\":503:512   */\n  dup5\n    /* \"#utility.yul\":494:501   */\n  dup7\n    /* \"#utility.yul\":490:513   */\n  sub\n    /* \"#utility.yul\":486:518   */\n  slt\n    /* \"#utility.yul\":483:602   */\n  iszero\n  tag_17\n  jumpi\n    /* \"#utility.yul\":521:600   */\n  tag_18\n  tag_19\n  jump\t// in\ntag_18:\n    /* \"#utility.yul\":483:602   */\ntag_17:\n    /* \"#utility.yul\":641:642   */\n  0x00\n    /* \"#utility.yul\":666:749   */\n  tag_20\n    /* \"#utility.yul\":741:748   */\n  dup7\n    /* \"#utility.yul\":732:738   */\n  dup3\n    /* \"#utility.yul\":721:730   */\n  dup8\n    /* \"#utility.yul\":717:739   */\n  add\n    /* \"#utility.yul\":666:749   */\n  tag_8\n  jump\t// in\ntag_20:\n    /* \"#utility.yul\":656:749   */\n  swap4\n  pop\n    /* \"#utility.yul\":612:759   */\n  pop\n    /* \"#utility.yul\":798:800   */\n  0x20\n    /* \"#utility.yul\":824:888   */\n  tag_21\n    /* \"#utility.yul\":880:887   */\n  dup7\n    /* \"#utility.yul\":871:877   */\n  dup3\n    /* \"#utility.yul\":860:869   */\n  dup8\n    /* \"#utility.yul\":856:878   */\n  add\n    /* \"#utility.yul\":824:888   */\n  tag_12\n  jump\t// in\ntag_21:\n    /* \"#utility.yul\":814:888   */\n  swap3\n  pop\n    /* \"#utility.yul\":769:898   */\n  pop\n    /* \"#utility.yul\":937:939   */\n  0x40\n    /* \"#utility.yul\":963:1027   */\n  tag_22\n    /* \"#utility.yul\":1019:1026   */\n  dup7\n    /* \"#utility.yul\":1010:1016   */\n  dup3\n    /* \"#utility.yul\":999:1008   */\n  dup8\n    /* \"#utility.yul\":995:1017   */\n  add\n    /* \"#utility.yul\":963:1027   */\n  tag_12\n  jump\t// in\ntag_22:\n    /* \"#utility.yul\":953:1027   */\n  swap2\n  pop\n    /* \"#utility.yul\":908:1037   */\n  pop\n    /* \"#utility.yul\":343:1044   */\n  swap3\n  pop\n  swap3\n  pop\n  swap3\n  jump\t// out\n    /* \"#utility.yul\":1131:1227   */\ntag_25:\n    /* \"#utility.yul\":1168:1175   */\n  0x00\n    /* \"#utility.yul\":1197:1221   */\n  tag_27\n    /* \"#utility.yul\":1215:1220   */\n  dup3\n    /* \"#utility.yul\":1197:1221   */\n  tag_28\n  jump\t// in\ntag_27:\n    /* \"#utility.yul\":1186:1221   */\n  swap1\n  pop\n    /* \"#utility.yul\":1131:1227   */\n  swap2\n  swap1\n  pop\n  jump\t// out\n    /* \"#utility.yul\":1233:1348   */\ntag_29:\n    /* \"#utility.yul\":1289:1296   */\n  0x00\n    /* \"#utility.yul\":1318:1342   */\n  tag_31\n    /* \"#utility.yul\":1336:1341   */\n  dup3\n    /* \"#utility.yul\":1318:1342   */\n  tag_25\n  jump\t// in\ntag_31:\n    /* \"#utility.yul\":1307:1342   */\n  swap1\n  pop\n    /* \"#utility.yul\":1233:1348   */\n  swap2\n  swap1\n  pop\n  jump\t// out\n    /* \"#utility.yul\":1354:1480   */\ntag_28:\n    /* \"#utility.yul\":1391:1398   */\n  0x00\n    /* \"#utility.yul\":1431:1473   */\n  0xffffffffffffffffffffffffffffffffffffffff\n    /* \"#utility.yul\":1424:1429   */\n  dup3\n    /* \"#utility.yul\":1420:1474   */\n  and\n    /* \"#utility.yul\":1409:1474   */\n  swap1\n  pop\n    /* \"#utility.yul\":1354:1480   */\n  swap2\n  swap1\n  pop\n  jump\t// out\n    /* \"#utility.yul\":1486:1563   */\ntag_33:\n    /* \"#utility.yul\":1523:1530   */\n  0x00\n    /* \"#utility.yul\":1552:1557   */\n  dup2\n    /* \"#utility.yul\":1541:1557   */\n  swap1\n  pop\n    /* \"#utility.yul\":1486:1563   */\n  swap2\n  swap1\n  pop\n  jump\t// out\n    /* \"#utility.yul\":1692:1809   */\ntag_19:\n    /* \"#utility.yul\":1801:1802   */\n  0x00\n    /* \"#utility.yul\":1798:1799   */\n  dup1\n    /* \"#utility.yul\":1791:1803   */\n  revert\n    /* \"#utility.yul\":1815:1975   */\ntag_11:\n    /* \"#utility.yul\":1907:1950   */\n  tag_39\n    /* \"#utility.yul\":1944:1949   */\n  dup2\n    /* \"#utility.yul\":1907:1950   */\n  tag_29\n  jump\t// in\ntag_39:\n    /* \"#utility.yul\":1900:1905   */\n  dup2\n    /* \"#utility.yul\":1897:1951   */\n  eq\n    /* \"#utility.yul\":1887:1969   */\n  tag_40\n  jumpi\n    /* \"#utility.yul\":1965:1966   */\n  0x00\n    /* \"#utility.yul\":1962:1963   */\n  dup1\n    /* \"#utility.yul\":1955:1967   */\n  revert\n    /* \"#utility.yul\":1887:1969   */\ntag_40:\n    /* \"#utility.yul\":1815:1975   */\n  pop\n  jump\t// out\n    /* \"#utility.yul\":1981:2103   */\ntag_15:\n    /* \"#utility.yul\":2054:2078   */\n  tag_42\n    /* \"#utility.yul\":2072:2077   */\n  dup2\n    /* \"#utility.yul\":2054:2078   */\n  tag_33\n  jump\t// in\ntag_42:\n    /* \"#utility.yul\":2047:2052   */\n  dup2\n    /* \"#utility.yul\":2044:2079   */\n  eq\n    /* \"#utility.yul\":2034:2097   */\n  tag_43\n  jumpi\n    /* \"#utility.yul\":2093:2094   */\n  0x00\n    /* \"#utility.yul\":2090:2091   */\n  dup1\n    /* \"#utility.yul\":2083:2095   */\n  revert\n    /* \"#utility.yul\":2034:2097   */\ntag_43:\n    /* \"#utility.yul\":1981:2103   */\n  pop\n  jump\t// out\n    /* \"contracts/eventtrigger.sol\":60:982  contract Item {\r... */\ntag_6:\n  dataSize(sub_0)\n  dup1\n  dataOffset(sub_0)\n  0x00\n  codecopy\n  0x00\n  return\nstop\n\nsub_0: assembly {\n        /* \"contracts/eventtrigger.sol\":60:982  contract Item {\r... */\n      mstore(0x40, 0x80)\n      jumpi(tag_1, lt(calldatasize, 0x04))\n      shr(0xe0, calldataload(0x00))\n      dup1\n      0x0a63361c\n      eq\n      tag_2\n      jumpi\n      dup1\n      0x89794d00\n      eq\n      tag_3\n      jumpi\n      dup1\n      0xc784a6e6\n      eq\n      tag_4\n      jumpi\n      dup1\n      0xe07bb1a7\n      eq\n      tag_5\n      jumpi\n    tag_1:\n      0x00\n      dup1\n      revert\n        /* \"contracts/eventtrigger.sol\":428:938  function pa () external payable {\r... */\n    tag_2:\n      tag_6\n      tag_7\n      jump\t// in\n    tag_6:\n      stop\n        /* \"contracts/eventtrigger.sol\":114:135  uint public pricePaid */\n    tag_3:\n      callvalue\n      dup1\n      iszero\n      tag_8\n      jumpi\n      0x00\n      dup1\n      revert\n    tag_8:\n      pop\n      tag_9\n      tag_10\n      jump\t// in\n    tag_9:\n      mload(0x40)\n      tag_11\n      swap2\n      swap1\n      tag_12\n      jump\t// in\n    tag_11:\n      mload(0x40)\n      dup1\n      swap2\n      sub\n      swap1\n      return\n        /* \"contracts/eventtrigger.sol\":81:107  uint public itemPriceInWei */\n    tag_4:\n      callvalue\n      dup1\n      iszero\n      tag_13\n      jumpi\n      0x00\n      dup1\n      revert\n    tag_13:\n      pop\n      tag_14\n      tag_15\n      jump\t// in\n    tag_14:\n      mload(0x40)\n      tag_16\n      swap2\n      swap1\n      tag_12\n      jump\t// in\n    tag_16:\n      mload(0x40)\n      dup1\n      swap2\n      sub\n      swap1\n      return\n        /* \"contracts/eventtrigger.sol\":142:163  uint public itemIndex */\n    tag_5:\n      callvalue\n      dup1\n      iszero\n      tag_17\n      jumpi\n      0x00\n      dup1\n      revert\n    tag_17:\n      pop\n      tag_18\n      tag_19\n      jump\t// in\n    tag_18:\n      mload(0x40)\n      tag_20\n      swap2\n      swap1\n      tag_12\n      jump\t// in\n    tag_20:\n      mload(0x40)\n      dup1\n      swap2\n      sub\n      swap1\n      return\n        /* \"contracts/eventtrigger.sol\":428:938  function pa () external payable {\r... */\n    tag_7:\n        /* \"contracts/eventtrigger.sol\":493:494  0 */\n      0x00\n        /* \"contracts/eventtrigger.sol\":480:489  pricePaid */\n      sload(0x01)\n        /* \"contracts/eventtrigger.sol\":480:494  pricePaid == 0 */\n      eq\n        /* \"contracts/eventtrigger.sol\":471:524  require (pricePaid == 0, \"Item is paid for already.\") */\n      tag_22\n      jumpi\n      mload(0x40)\n      0x08c379a000000000000000000000000000000000000000000000000000000000\n      dup2\n      mstore\n      0x04\n      add\n      tag_23\n      swap1\n      tag_24\n      jump\t// in\n    tag_23:\n      mload(0x40)\n      dup1\n      swap2\n      sub\n      swap1\n      revert\n    tag_22:\n        /* \"contracts/eventtrigger.sol\":562:571  msg.value */\n      callvalue\n        /* \"contracts/eventtrigger.sol\":544:558  itemPriceInWei */\n      sload(0x00)\n        /* \"contracts/eventtrigger.sol\":544:571  itemPriceInWei == msg.value */\n      eq\n        /* \"contracts/eventtrigger.sol\":535:600  require (itemPriceInWei == msg.value, \"Please pay exact amount.\") */\n      tag_25\n      jumpi\n      mload(0x40)\n      0x08c379a000000000000000000000000000000000000000000000000000000000\n      dup2\n      mstore\n      0x04\n      add\n      tag_26\n      swap1\n      tag_27\n      jump\t// in\n    tag_26:\n      mload(0x40)\n      dup1\n      swap2\n      sub\n      swap1\n      revert\n    tag_25:\n        /* \"contracts/eventtrigger.sol\":624:633  msg.value */\n      callvalue\n        /* \"contracts/eventtrigger.sol\":611:620  pricePaid */\n      0x01\n      0x00\n        /* \"contracts/eventtrigger.sol\":611:633  pricePaid += msg.value */\n      dup3\n      dup3\n      sload\n      tag_28\n      swap2\n      swap1\n      tag_29\n      jump\t// in\n    tag_28:\n      swap3\n      pop\n      pop\n      dup2\n      swap1\n      sstore\n      pop\n        /* \"contracts/eventtrigger.sol\":708:720  bool success */\n      0x00\n        /* \"contracts/eventtrigger.sol\":735:749  parentContract */\n      0x03\n      0x00\n      swap1\n      sload\n      swap1\n      0x0100\n      exp\n      swap1\n      div\n      0xffffffffffffffffffffffffffffffffffffffff\n      and\n        /* \"contracts/eventtrigger.sol\":727:755  address(parentContract).call */\n      0xffffffffffffffffffffffffffffffffffffffff\n      and\n        /* \"contracts/eventtrigger.sol\":764:773  msg.value */\n      callvalue\n        /* \"contracts/eventtrigger.sol\":781:789  80000000 */\n      0x04c4b400\n        /* \"contracts/eventtrigger.sol\":727:854  address(parentContract).call{value : msg.value, gas : 80000000 }(abi.encodeWithSignature(\"triggerPayment(uint256)\", itemIndex)) */\n      swap1\n        /* \"contracts/eventtrigger.sol\":843:852  itemIndex */\n      sload(0x02)\n        /* \"contracts/eventtrigger.sol\":792:853  abi.encodeWithSignature(\"triggerPayment(uint256)\", itemIndex) */\n      add(0x24, mload(0x40))\n      tag_30\n      swap2\n      swap1\n      tag_12\n      jump\t// in\n    tag_30:\n      mload(0x40)\n      0x20\n      dup2\n      dup4\n      sub\n      sub\n      dup2\n      mstore\n      swap1\n      0x40\n      mstore\n      and(not(0xffffffffffffffffffffffffffffffffffffffffffffffffffffffff), 0x800fb83f00000000000000000000000000000000000000000000000000000000)\n      0x20\n      dup3\n      add\n      dup1\n      mload\n      0xffffffffffffffffffffffffffffffffffffffffffffffffffffffff\n      dup4\n      dup2\n      dup4\n      and\n      or\n      dup4\n      mstore\n      pop\n      pop\n      pop\n      pop\n        /* \"contracts/eventtrigger.sol\":727:854  address(parentContract).call{value : msg.value, gas : 80000000 }(abi.encodeWithSignature(\"triggerPayment(uint256)\", itemIndex)) */\n      mload(0x40)\n      tag_31\n      swap2\n      swap1\n      tag_32\n      jump\t// in\n    tag_31:\n      0x00\n      mload(0x40)\n      dup1\n      dup4\n      sub\n      dup2\n      dup6\n      dup9\n      dup9\n      call\n      swap4\n      pop\n      pop\n      pop\n      pop\n      returndatasize\n      dup1\n      0x00\n      dup2\n      eq\n      tag_35\n      jumpi\n      mload(0x40)\n      swap2\n      pop\n      and(add(returndatasize, 0x3f), not(0x1f))\n      dup3\n      add\n      0x40\n      mstore\n      returndatasize\n      dup3\n      mstore\n      returndatasize\n      0x00\n      0x20\n      dup5\n      add\n      returndatacopy\n      jump(tag_34)\n    tag_35:\n      0x60\n      swap2\n      pop\n    tag_34:\n      pop\n        /* \"contracts/eventtrigger.sol\":707:854  (bool success, ) =  address(parentContract).call{value : msg.value, gas : 80000000 }(abi.encodeWithSignature(\"triggerPayment(uint256)\", itemIndex)) */\n      pop\n      swap1\n      pop\n        /* \"contracts/eventtrigger.sol\":874:881  success */\n      dup1\n        /* \"contracts/eventtrigger.sol\":865:930  require (success, \"Transaction unsuccessful, cancelling payment\") */\n      tag_36\n      jumpi\n      mload(0x40)\n      0x08c379a000000000000000000000000000000000000000000000000000000000\n      dup2\n      mstore\n      0x04\n      add\n      tag_37\n      swap1\n      tag_38\n      jump\t// in\n    tag_37:\n      mload(0x40)\n      dup1\n      swap2\n      sub\n      swap1\n      revert\n    tag_36:\n        /* \"contracts/eventtrigger.sol\":460:938  {\r... */\n      pop\n        /* \"contracts/eventtrigger.sol\":428:938  function pa () external payable {\r... */\n      jump\t// out\n        /* \"contracts/eventtrigger.sol\":114:135  uint public pricePaid */\n    tag_10:\n      sload(0x01)\n      dup2\n      jump\t// out\n        /* \"contracts/eventtrigger.sol\":81:107  uint public itemPriceInWei */\n    tag_15:\n      sload(0x00)\n      dup2\n      jump\t// out\n        /* \"contracts/eventtrigger.sol\":142:163  uint public itemIndex */\n    tag_19:\n      sload(0x02)\n      dup2\n      jump\t// out\n        /* \"#utility.yul\":7:380   */\n    tag_40:\n        /* \"#utility.yul\":111:114   */\n      0x00\n        /* \"#utility.yul\":139:177   */\n      tag_42\n        /* \"#utility.yul\":171:176   */\n      dup3\n        /* \"#utility.yul\":139:177   */\n      tag_43\n      jump\t// in\n    tag_42:\n        /* \"#utility.yul\":193:281   */\n      tag_44\n        /* \"#utility.yul\":274:280   */\n      dup2\n        /* \"#utility.yul\":269:272   */\n      dup6\n        /* \"#utility.yul\":193:281   */\n      tag_45\n      jump\t// in\n    tag_44:\n        /* \"#utility.yul\":186:281   */\n      swap4\n      pop\n        /* \"#utility.yul\":290:342   */\n      tag_46\n        /* \"#utility.yul\":335:341   */\n      dup2\n        /* \"#utility.yul\":330:333   */\n      dup6\n        /* \"#utility.yul\":323:327   */\n      0x20\n        /* \"#utility.yul\":316:321   */\n      dup7\n        /* \"#utility.yul\":312:328   */\n      add\n        /* \"#utility.yul\":290:342   */\n      tag_47\n      jump\t// in\n    tag_46:\n        /* \"#utility.yul\":367:373   */\n      dup1\n        /* \"#utility.yul\":362:365   */\n      dup5\n        /* \"#utility.yul\":358:374   */\n      add\n        /* \"#utility.yul\":351:374   */\n      swap2\n      pop\n        /* \"#utility.yul\":115:380   */\n      pop\n        /* \"#utility.yul\":7:380   */\n      swap3\n      swap2\n      pop\n      pop\n      jump\t// out\n        /* \"#utility.yul\":386:752   */\n    tag_48:\n        /* \"#utility.yul\":528:531   */\n      0x00\n        /* \"#utility.yul\":549:616   */\n      tag_50\n        /* \"#utility.yul\":613:615   */\n      0x2c\n        /* \"#utility.yul\":608:611   */\n      dup4\n        /* \"#utility.yul\":549:616   */\n      tag_51\n      jump\t// in\n    tag_50:\n        /* \"#utility.yul\":542:616   */\n      swap2\n      pop\n        /* \"#utility.yul\":625:718   */\n      tag_52\n        /* \"#utility.yul\":714:717   */\n      dup3\n        /* \"#utility.yul\":625:718   */\n      tag_53\n      jump\t// in\n    tag_52:\n        /* \"#utility.yul\":743:745   */\n      0x40\n        /* \"#utility.yul\":738:741   */\n      dup3\n        /* \"#utility.yul\":734:746   */\n      add\n        /* \"#utility.yul\":727:746   */\n      swap1\n      pop\n        /* \"#utility.yul\":386:752   */\n      swap2\n      swap1\n      pop\n      jump\t// out\n        /* \"#utility.yul\":758:1124   */\n    tag_54:\n        /* \"#utility.yul\":900:903   */\n      0x00\n        /* \"#utility.yul\":921:988   */\n      tag_56\n        /* \"#utility.yul\":985:987   */\n      0x19\n        /* \"#utility.yul\":980:983   */\n      dup4\n        /* \"#utility.yul\":921:988   */\n      tag_51\n      jump\t// in\n    tag_56:\n        /* \"#utility.yul\":914:988   */\n      swap2\n      pop\n        /* \"#utility.yul\":997:1090   */\n      tag_57\n        /* \"#utility.yul\":1086:1089   */\n      dup3\n        /* \"#utility.yul\":997:1090   */\n      tag_58\n      jump\t// in\n    tag_57:\n        /* \"#utility.yul\":1115:1117   */\n      0x20\n        /* \"#utility.yul\":1110:1113   */\n      dup3\n        /* \"#utility.yul\":1106:1118   */\n      add\n        /* \"#utility.yul\":1099:1118   */\n      swap1\n      pop\n        /* \"#utility.yul\":758:1124   */\n      swap2\n      swap1\n      pop\n      jump\t// out\n        /* \"#utility.yul\":1130:1496   */\n    tag_59:\n        /* \"#utility.yul\":1272:1275   */\n      0x00\n        /* \"#utility.yul\":1293:1360   */\n      tag_61\n        /* \"#utility.yul\":1357:1359   */\n      0x18\n        /* \"#utility.yul\":1352:1355   */\n      dup4\n        /* \"#utility.yul\":1293:1360   */\n      tag_51\n      jump\t// in\n    tag_61:\n        /* \"#utility.yul\":1286:1360   */\n      swap2\n      pop\n        /* \"#utility.yul\":1369:1462   */\n      tag_62\n        /* \"#utility.yul\":1458:1461   */\n      dup3\n        /* \"#utility.yul\":1369:1462   */\n      tag_63\n      jump\t// in\n    tag_62:\n        /* \"#utility.yul\":1487:1489   */\n      0x20\n        /* \"#utility.yul\":1482:1485   */\n      dup3\n        /* \"#utility.yul\":1478:1490   */\n      add\n        /* \"#utility.yul\":1471:1490   */\n      swap1\n      pop\n        /* \"#utility.yul\":1130:1496   */\n      swap2\n      swap1\n      pop\n      jump\t// out\n        /* \"#utility.yul\":1502:1620   */\n    tag_64:\n        /* \"#utility.yul\":1589:1613   */\n      tag_66\n        /* \"#utility.yul\":1607:1612   */\n      dup2\n        /* \"#utility.yul\":1589:1613   */\n      tag_67\n      jump\t// in\n    tag_66:\n        /* \"#utility.yul\":1584:1587   */\n      dup3\n        /* \"#utility.yul\":1577:1614   */\n      mstore\n        /* \"#utility.yul\":1502:1620   */\n      pop\n      pop\n      jump\t// out\n        /* \"#utility.yul\":1626:1897   */\n    tag_32:\n        /* \"#utility.yul\":1756:1759   */\n      0x00\n        /* \"#utility.yul\":1778:1871   */\n      tag_69\n        /* \"#utility.yul\":1867:1870   */\n      dup3\n        /* \"#utility.yul\":1858:1864   */\n      dup5\n        /* \"#utility.yul\":1778:1871   */\n      tag_40\n      jump\t// in\n    tag_69:\n        /* \"#utility.yul\":1771:1871   */\n      swap2\n      pop\n        /* \"#utility.yul\":1888:1891   */\n      dup2\n        /* \"#utility.yul\":1881:1891   */\n      swap1\n      pop\n        /* \"#utility.yul\":1626:1897   */\n      swap3\n      swap2\n      pop\n      pop\n      jump\t// out\n        /* \"#utility.yul\":1903:2322   */\n    tag_38:\n        /* \"#utility.yul\":2069:2073   */\n      0x00\n        /* \"#utility.yul\":2107:2109   */\n      0x20\n        /* \"#utility.yul\":2096:2105   */\n      dup3\n        /* \"#utility.yul\":2092:2110   */\n      add\n        /* \"#utility.yul\":2084:2110   */\n      swap1\n      pop\n        /* \"#utility.yul\":2156:2165   */\n      dup2\n        /* \"#utility.yul\":2150:2154   */\n      dup2\n        /* \"#utility.yul\":2146:2166   */\n      sub\n        /* \"#utility.yul\":2142:2143   */\n      0x00\n        /* \"#utility.yul\":2131:2140   */\n      dup4\n        /* \"#utility.yul\":2127:2144   */\n      add\n        /* \"#utility.yul\":2120:2167   */\n      mstore\n        /* \"#utility.yul\":2184:2315   */\n      tag_71\n        /* \"#utility.yul\":2310:2314   */\n      dup2\n        /* \"#utility.yul\":2184:2315   */\n      tag_48\n      jump\t// in\n    tag_71:\n        /* \"#utility.yul\":2176:2315   */\n      swap1\n      pop\n        /* \"#utility.yul\":1903:2322   */\n      swap2\n      swap1\n      pop\n      jump\t// out\n        /* \"#utility.yul\":2328:2747   */\n    tag_24:\n        /* \"#utility.yul\":2494:2498   */\n      0x00\n        /* \"#utility.yul\":2532:2534   */\n      0x20\n        /* \"#utility.yul\":2521:2530   */\n      dup3\n        /* \"#utility.yul\":2517:2535   */\n      add\n        /* \"#utility.yul\":2509:2535   */\n      swap1\n      pop\n        /* \"#utility.yul\":2581:2590   */\n      dup2\n        /* \"#utility.yul\":2575:2579   */\n      dup2\n        /* \"#utility.yul\":2571:2591   */\n      sub\n        /* \"#utility.yul\":2567:2568   */\n      0x00\n        /* \"#utility.yul\":2556:2565   */\n      dup4\n        /* \"#utility.yul\":2552:2569   */\n      add\n        /* \"#utility.yul\":2545:2592   */\n      mstore\n        /* \"#utility.yul\":2609:2740   */\n      tag_73\n        /* \"#utility.yul\":2735:2739   */\n      dup2\n        /* \"#utility.yul\":2609:2740   */\n      tag_54\n      jump\t// in\n    tag_73:\n        /* \"#utility.yul\":2601:2740   */\n      swap1\n      pop\n        /* \"#utility.yul\":2328:2747   */\n      swap2\n      swap1\n      pop\n      jump\t// out\n        /* \"#utility.yul\":2753:3172   */\n    tag_27:\n        /* \"#utility.yul\":2919:2923   */\n      0x00\n        /* \"#utility.yul\":2957:2959   */\n      0x20\n        /* \"#utility.yul\":2946:2955   */\n      dup3\n        /* \"#utility.yul\":2942:2960   */\n      add\n        /* \"#utility.yul\":2934:2960   */\n      swap1\n      pop\n        /* \"#utility.yul\":3006:3015   */\n      dup2\n        /* \"#utility.yul\":3000:3004   */\n      dup2\n        /* \"#utility.yul\":2996:3016   */\n      sub\n        /* \"#utility.yul\":2992:2993   */\n      0x00\n        /* \"#utility.yul\":2981:2990   */\n      dup4\n        /* \"#utility.yul\":2977:2994   */\n      add\n        /* \"#utility.yul\":2970:3017   */\n      mstore\n        /* \"#utility.yul\":3034:3165   */\n      tag_75\n        /* \"#utility.yul\":3160:3164   */\n      dup2\n        /* \"#utility.yul\":3034:3165   */\n      tag_59\n      jump\t// in\n    tag_75:\n        /* \"#utility.yul\":3026:3165   */\n      swap1\n      pop\n        /* \"#utility.yul\":2753:3172   */\n      swap2\n      swap1\n      pop\n      jump\t// out\n        /* \"#utility.yul\":3178:3400   */\n    tag_12:\n        /* \"#utility.yul\":3271:3275   */\n      0x00\n        /* \"#utility.yul\":3309:3311   */\n      0x20\n        /* \"#utility.yul\":3298:3307   */\n      dup3\n        /* \"#utility.yul\":3294:3312   */\n      add\n        /* \"#utility.yul\":3286:3312   */\n      swap1\n      pop\n        /* \"#utility.yul\":3322:3393   */\n      tag_77\n        /* \"#utility.yul\":3390:3391   */\n      0x00\n        /* \"#utility.yul\":3379:3388   */\n      dup4\n        /* \"#utility.yul\":3375:3392   */\n      add\n        /* \"#utility.yul\":3366:3372   */\n      dup5\n        /* \"#utility.yul\":3322:3393   */\n      tag_64\n      jump\t// in\n    tag_77:\n        /* \"#utility.yul\":3178:3400   */\n      swap3\n      swap2\n      pop\n      pop\n      jump\t// out\n        /* \"#utility.yul\":3406:3504   */\n    tag_43:\n        /* \"#utility.yul\":3457:3463   */\n      0x00\n        /* \"#utility.yul\":3491:3496   */\n      dup2\n        /* \"#utility.yul\":3485:3497   */\n      mload\n        /* \"#utility.yul\":3475:3497   */\n      swap1\n      pop\n        /* \"#utility.yul\":3406:3504   */\n      swap2\n      swap1\n      pop\n      jump\t// out\n        /* \"#utility.yul\":3510:3657   */\n    tag_45:\n        /* \"#utility.yul\":3611:3622   */\n      0x00\n        /* \"#utility.yul\":3648:3651   */\n      dup2\n        /* \"#utility.yul\":3633:3651   */\n      swap1\n      pop\n        /* \"#utility.yul\":3510:3657   */\n      swap3\n      swap2\n      pop\n      pop\n      jump\t// out\n        /* \"#utility.yul\":3663:3832   */\n    tag_51:\n        /* \"#utility.yul\":3747:3758   */\n      0x00\n        /* \"#utility.yul\":3781:3787   */\n      dup3\n        /* \"#utility.yul\":3776:3779   */\n      dup3\n        /* \"#utility.yul\":3769:3788   */\n      mstore\n        /* \"#utility.yul\":3821:3825   */\n      0x20\n        /* \"#utility.yul\":3816:3819   */\n      dup3\n        /* \"#utility.yul\":3812:3826   */\n      add\n        /* \"#utility.yul\":3797:3826   */\n      swap1\n      pop\n        /* \"#utility.yul\":3663:3832   */\n      swap3\n      swap2\n      pop\n      pop\n      jump\t// out\n        /* \"#utility.yul\":3838:4143   */\n    tag_29:\n        /* \"#utility.yul\":3878:3881   */\n      0x00\n        /* \"#utility.yul\":3897:3917   */\n      tag_82\n        /* \"#utility.yul\":3915:3916   */\n      dup3\n        /* \"#utility.yul\":3897:3917   */\n      tag_67\n      jump\t// in\n    tag_82:\n        /* \"#utility.yul\":3892:3917   */\n      swap2\n      pop\n        /* \"#utility.yul\":3931:3951   */\n      tag_83\n        /* \"#utility.yul\":3949:3950   */\n      dup4\n        /* \"#utility.yul\":3931:3951   */\n      tag_67\n      jump\t// in\n    tag_83:\n        /* \"#utility.yul\":3926:3951   */\n      swap3\n      pop\n        /* \"#utility.yul\":4085:4086   */\n      dup3\n        /* \"#utility.yul\":4017:4083   */\n      0xffffffffffffffffffffffffffffffffffffffffffffffffffffffffffffffff\n        /* \"#utility.yul\":4013:4087   */\n      sub\n        /* \"#utility.yul\":4010:4011   */\n      dup3\n        /* \"#utility.yul\":4007:4088   */\n      gt\n        /* \"#utility.yul\":4004:4111   */\n      iszero\n      tag_84\n      jumpi\n        /* \"#utility.yul\":4091:4109   */\n      tag_85\n      tag_86\n      jump\t// in\n    tag_85:\n        /* \"#utility.yul\":4004:4111   */\n    tag_84:\n        /* \"#utility.yul\":4135:4136   */\n      dup3\n        /* \"#utility.yul\":4132:4133   */\n      dup3\n        /* \"#utility.yul\":4128:4137   */\n      add\n        /* \"#utility.yul\":4121:4137   */\n      swap1\n      pop\n        /* \"#utility.yul\":3838:4143   */\n      swap3\n      swap2\n      pop\n      pop\n      jump\t// out\n        /* \"#utility.yul\":4149:4226   */\n    tag_67:\n        /* \"#utility.yul\":4186:4193   */\n      0x00\n        /* \"#utility.yul\":4215:4220   */\n      dup2\n        /* \"#utility.yul\":4204:4220   */\n      swap1\n      pop\n        /* \"#utility.yul\":4149:4226   */\n      swap2\n      swap1\n      pop\n      jump\t// out\n        /* \"#utility.yul\":4232:4539   */\n    tag_47:\n        /* \"#utility.yul\":4300:4301   */\n      0x00\n        /* \"#utility.yul\":4310:4423   */\n    tag_89:\n        /* \"#utility.yul\":4324:4330   */\n      dup4\n        /* \"#utility.yul\":4321:4322   */\n      dup2\n        /* \"#utility.yul\":4318:4331   */\n      lt\n        /* \"#utility.yul\":4310:4423   */\n      iszero\n      tag_91\n      jumpi\n        /* \"#utility.yul\":4409:4410   */\n      dup1\n        /* \"#utility.yul\":4404:4407   */\n      dup3\n        /* \"#utility.yul\":4400:4411   */\n      add\n        /* \"#utility.yul\":4394:4412   */\n      mload\n        /* \"#utility.yul\":4390:4391   */\n      dup2\n        /* \"#utility.yul\":4385:4388   */\n      dup5\n        /* \"#utility.yul\":4381:4392   */\n      add\n        /* \"#utility.yul\":4374:4413   */\n      mstore\n        /* \"#utility.yul\":4346:4348   */\n      0x20\n        /* \"#utility.yul\":4343:4344   */\n      dup2\n        /* \"#utility.yul\":4339:4349   */\n      add\n        /* \"#utility.yul\":4334:4349   */\n      swap1\n      pop\n        /* \"#utility.yul\":4310:4423   */\n      jump(tag_89)\n    tag_91:\n        /* \"#utility.yul\":4441:4447   */\n      dup4\n        /* \"#utility.yul\":4438:4439   */\n      dup2\n        /* \"#utility.yul\":4435:4448   */\n      gt\n        /* \"#utility.yul\":4432:4533   */\n      iszero\n      tag_92\n      jumpi\n        /* \"#utility.yul\":4521:4522   */\n      0x00\n        /* \"#utility.yul\":4512:4518   */\n      dup5\n        /* \"#utility.yul\":4507:4510   */\n      dup5\n        /* \"#utility.yul\":4503:4519   */\n      add\n        /* \"#utility.yul\":4496:4523   */\n      mstore\n        /* \"#utility.yul\":4432:4533   */\n    tag_92:\n        /* \"#utility.yul\":4281:4539   */\n      pop\n        /* \"#utility.yul\":4232:4539   */\n      pop\n      pop\n      pop\n      jump\t// out\n        /* \"#utility.yul\":4545:4725   */\n    tag_86:\n        /* \"#utility.yul\":4593:4670   */\n      0x4e487b7100000000000000000000000000000000000000000000000000000000\n        /* \"#utility.yul\":4590:4591   */\n      0x00\n        /* \"#utility.yul\":4583:4671   */\n      mstore\n        /* \"#utility.yul\":4690:4694   */\n      0x11\n        /* \"#utility.yul\":4687:4688   */\n      0x04\n        /* \"#utility.yul\":4680:4695   */\n      mstore\n        /* \"#utility.yul\":4714:4718   */\n      0x24\n        /* \"#utility.yul\":4711:4712   */\n      0x00\n        /* \"#utility.yul\":4704:4719   */\n      revert\n        /* \"#utility.yul\":4731:4962   */\n    tag_53:\n        /* \"#utility.yul\":4871:4905   */\n      0x5472616e73616374696f6e20756e7375636365737366756c2c2063616e63656c\n        /* \"#utility.yul\":4867:4868   */\n      0x00\n        /* \"#utility.yul\":4859:4865   */\n      dup3\n        /* \"#utility.yul\":4855:4869   */\n      add\n        /* \"#utility.yul\":4848:4906   */\n      mstore\n        /* \"#utility.yul\":4940:4954   */\n      0x6c696e67207061796d656e740000000000000000000000000000000000000000\n        /* \"#utility.yul\":4935:4937   */\n      0x20\n        /* \"#utility.yul\":4927:4933   */\n      dup3\n        /* \"#utility.yul\":4923:4938   */\n      add\n        /* \"#utility.yul\":4916:4955   */\n      mstore\n        /* \"#utility.yul\":4731:4962   */\n      pop\n      jump\t// out\n        /* \"#utility.yul\":4968:5143   */\n    tag_58:\n        /* \"#utility.yul\":5108:5135   */\n      0x4974656d206973207061696420666f7220616c72656164792e00000000000000\n        /* \"#utility.yul\":5104:5105   */\n      0x00\n        /* \"#utility.yul\":5096:5102   */\n      dup3\n        /* \"#utility.yul\":5092:5106   */\n      add\n        /* \"#utility.yul\":5085:5136   */\n      mstore\n        /* \"#utility.yul\":4968:5143   */\n      pop\n      jump\t// out\n        /* \"#utility.yul\":5149:5323   */\n    tag_63:\n        /* \"#utility.yul\":5289:5315   */\n      0x506c656173652070617920657861637420616d6f756e742e0000000000000000\n        /* \"#utility.yul\":5285:5286   */\n      0x00\n        /* \"#utility.yul\":5277:5283   */\n      dup3\n        /* \"#utility.yul\":5273:5287   */\n      add\n        /* \"#utility.yul\":5266:5316   */\n      mstore\n        /* \"#utility.yul\":5149:5323   */\n      pop\n      jump\t// out\n\n    auxdata: 0xa26469706673582212201566f7b30988cd12c18e1f36c4c5e56d195a187af7c2025e34e6eecd87b761c364736f6c63430008070033\n}\n",
				"bytecode": {
					"linkReferences": {},
					"object": "608060405234801561001057600080fd5b5060405161079f38038061079f833981810160405281019061003291906100d5565b600360009054906101000a900473ffffffffffffffffffffffffffffffffffffffff16600360006101000a81548173ffffffffffffffffffffffffffffffffffffffff021916908373ffffffffffffffffffffffffffffffffffffffff16021790555081600081905550806002819055505050506101a9565b6000815190506100ba8161017b565b92915050565b6000815190506100cf81610192565b92915050565b6000806000606084860312156100ee576100ed610176565b5b60006100fc868287016100ab565b935050602061010d868287016100c0565b925050604061011e868287016100c0565b9150509250925092565b60006101338261014c565b9050919050565b600061014582610128565b9050919050565b600073ffffffffffffffffffffffffffffffffffffffff82169050919050565b6000819050919050565b600080fd5b6101848161013a565b811461018f57600080fd5b50565b61019b8161016c565b81146101a657600080fd5b50565b6105e7806101b86000396000f3fe60806040526004361061003f5760003560e01c80630a63361c1461004457806389794d001461004e578063c784a6e614610079578063e07bb1a7146100a4575b600080fd5b61004c6100cf565b005b34801561005a57600080fd5b506100636102da565b604051610070919061040c565b60405180910390f35b34801561008557600080fd5b5061008e6102e0565b60405161009b919061040c565b60405180910390f35b3480156100b057600080fd5b506100b96102e6565b6040516100c6919061040c565b60405180910390f35b600060015414610114576040517f08c379a000000000000000000000000000000000000000000000000000000000815260040161010b906103cc565b60405180910390fd5b3460005414610158576040517f08c379a000000000000000000000000000000000000000000000000000000000815260040161014f906103ec565b60405180910390fd5b346001600082825461016a919061044e565b925050819055506000600360009054906101000a900473ffffffffffffffffffffffffffffffffffffffff1673ffffffffffffffffffffffffffffffffffffffff16346304c4b400906002546040516024016101c6919061040c565b6040516020818303038152906040527f800fb83f000000000000000000000000000000000000000000000000000000007bffffffffffffffffffffffffffffffffffffffffffffffffffffffff19166020820180517bffffffffffffffffffffffffffffffffffffffffffffffffffffffff83818316178352505050506040516102509190610395565b600060405180830381858888f193505050503d806000811461028e576040519150601f19603f3d011682016040523d82523d6000602084013e610293565b606091505b50509050806102d7576040517f08c379a00000000000000000000000000000000000000000000000000000000081526004016102ce906103ac565b60405180910390fd5b50565b60015481565b60005481565b60025481565b60006102f782610427565b6103018185610432565b93506103118185602086016104ae565b80840191505092915050565b600061032a602c8361043d565b915061033582610510565b604082019050919050565b600061034d60198361043d565b91506103588261055f565b602082019050919050565b600061037060188361043d565b915061037b82610588565b602082019050919050565b61038f816104a4565b82525050565b60006103a182846102ec565b915081905092915050565b600060208201905081810360008301526103c58161031d565b9050919050565b600060208201905081810360008301526103e581610340565b9050919050565b6000602082019050818103600083015261040581610363565b9050919050565b60006020820190506104216000830184610386565b92915050565b600081519050919050565b600081905092915050565b600082825260208201905092915050565b6000610459826104a4565b9150610464836104a4565b9250827fffffffffffffffffffffffffffffffffffffffffffffffffffffffffffffffff03821115610499576104986104e1565b5b828201905092915050565b6000819050919050565b60005b838110156104cc5780820151818401526020810190506104b1565b838111156104db576000848401525b50505050565b7f4e487b7100000000000000000000000000000000000000000000000000000000600052601160045260246000fd5b7f5472616e73616374696f6e20756e7375636365737366756c2c2063616e63656c60008201527f6c696e67207061796d656e740000000000000000000000000000000000000000602082015250565b7f4974656d206973207061696420666f7220616c72656164792e00000000000000600082015250565b7f506c656173652070617920657861637420616d6f756e742e000000000000000060008201525056fea26469706673582212201566f7b30988cd12c18e1f36c4c5e56d195a187af7c2025e34e6eecd87b761c364736f6c63430008070033",
					"opcodes": "PUSH1 0x80 PUSH1 0x40 MSTORE CALLVALUE DUP1 ISZERO PUSH2 0x10 JUMPI PUSH1 0x0 DUP1 REVERT JUMPDEST POP PUSH1 0x40 MLOAD PUSH2 0x79F CODESIZE SUB DUP1 PUSH2 0x79F DUP4 CODECOPY DUP2 DUP2 ADD PUSH1 0x40 MSTORE DUP2 ADD SWAP1 PUSH2 0x32 SWAP2 SWAP1 PUSH2 0xD5 JUMP JUMPDEST PUSH1 0x3 PUSH1 0x0 SWAP1 SLOAD SWAP1 PUSH2 0x100 EXP SWAP1 DIV PUSH20 0xFFFFFFFFFFFFFFFFFFFFFFFFFFFFFFFFFFFFFFFF AND PUSH1 0x3 PUSH1 0x0 PUSH2 0x100 EXP DUP2 SLOAD DUP2 PUSH20 0xFFFFFFFFFFFFFFFFFFFFFFFFFFFFFFFFFFFFFFFF MUL NOT AND SWAP1 DUP4 PUSH20 0xFFFFFFFFFFFFFFFFFFFFFFFFFFFFFFFFFFFFFFFF AND MUL OR SWAP1 SSTORE POP DUP2 PUSH1 0x0 DUP2 SWAP1 SSTORE POP DUP1 PUSH1 0x2 DUP2 SWAP1 SSTORE POP POP POP POP PUSH2 0x1A9 JUMP JUMPDEST PUSH1 0x0 DUP2 MLOAD SWAP1 POP PUSH2 0xBA DUP2 PUSH2 0x17B JUMP JUMPDEST SWAP3 SWAP2 POP POP JUMP JUMPDEST PUSH1 0x0 DUP2 MLOAD SWAP1 POP PUSH2 0xCF DUP2 PUSH2 0x192 JUMP JUMPDEST SWAP3 SWAP2 POP POP JUMP JUMPDEST PUSH1 0x0 DUP1 PUSH1 0x0 PUSH1 0x60 DUP5 DUP7 SUB SLT ISZERO PUSH2 0xEE JUMPI PUSH2 0xED PUSH2 0x176 JUMP JUMPDEST JUMPDEST PUSH1 0x0 PUSH2 0xFC DUP7 DUP3 DUP8 ADD PUSH2 0xAB JUMP JUMPDEST SWAP4 POP POP PUSH1 0x20 PUSH2 0x10D DUP7 DUP3 DUP8 ADD PUSH2 0xC0 JUMP JUMPDEST SWAP3 POP POP PUSH1 0x40 PUSH2 0x11E DUP7 DUP3 DUP8 ADD PUSH2 0xC0 JUMP JUMPDEST SWAP2 POP POP SWAP3 POP SWAP3 POP SWAP3 JUMP JUMPDEST PUSH1 0x0 PUSH2 0x133 DUP3 PUSH2 0x14C JUMP JUMPDEST SWAP1 POP SWAP2 SWAP1 POP JUMP JUMPDEST PUSH1 0x0 PUSH2 0x145 DUP3 PUSH2 0x128 JUMP JUMPDEST SWAP1 POP SWAP2 SWAP1 POP JUMP JUMPDEST PUSH1 0x0 PUSH20 0xFFFFFFFFFFFFFFFFFFFFFFFFFFFFFFFFFFFFFFFF DUP3 AND SWAP1 POP SWAP2 SWAP1 POP JUMP JUMPDEST PUSH1 0x0 DUP2 SWAP1 POP SWAP2 SWAP1 POP JUMP JUMPDEST PUSH1 0x0 DUP1 REVERT JUMPDEST PUSH2 0x184 DUP2 PUSH2 0x13A JUMP JUMPDEST DUP2 EQ PUSH2 0x18F JUMPI PUSH1 0x0 DUP1 REVERT JUMPDEST POP JUMP JUMPDEST PUSH2 0x19B DUP2 PUSH2 0x16C JUMP JUMPDEST DUP2 EQ PUSH2 0x1A6 JUMPI PUSH1 0x0 DUP1 REVERT JUMPDEST POP JUMP JUMPDEST PUSH2 0x5E7 DUP1 PUSH2 0x1B8 PUSH1 0x0 CODECOPY PUSH1 0x0 RETURN INVALID PUSH1 0x80 PUSH1 0x40 MSTORE PUSH1 0x4 CALLDATASIZE LT PUSH2 0x3F JUMPI PUSH1 0x0 CALLDATALOAD PUSH1 0xE0 SHR DUP1 PUSH4 0xA63361C EQ PUSH2 0x44 JUMPI DUP1 PUSH4 0x89794D00 EQ PUSH2 0x4E JUMPI DUP1 PUSH4 0xC784A6E6 EQ PUSH2 0x79 JUMPI DUP1 PUSH4 0xE07BB1A7 EQ PUSH2 0xA4 JUMPI JUMPDEST PUSH1 0x0 DUP1 REVERT JUMPDEST PUSH2 0x4C PUSH2 0xCF JUMP JUMPDEST STOP JUMPDEST CALLVALUE DUP1 ISZERO PUSH2 0x5A JUMPI PUSH1 0x0 DUP1 REVERT JUMPDEST POP PUSH2 0x63 PUSH2 0x2DA JUMP JUMPDEST PUSH1 0x40 MLOAD PUSH2 0x70 SWAP2 SWAP1 PUSH2 0x40C JUMP JUMPDEST PUSH1 0x40 MLOAD DUP1 SWAP2 SUB SWAP1 RETURN JUMPDEST CALLVALUE DUP1 ISZERO PUSH2 0x85 JUMPI PUSH1 0x0 DUP1 REVERT JUMPDEST POP PUSH2 0x8E PUSH2 0x2E0 JUMP JUMPDEST PUSH1 0x40 MLOAD PUSH2 0x9B SWAP2 SWAP1 PUSH2 0x40C JUMP JUMPDEST PUSH1 0x40 MLOAD DUP1 SWAP2 SUB SWAP1 RETURN JUMPDEST CALLVALUE DUP1 ISZERO PUSH2 0xB0 JUMPI PUSH1 0x0 DUP1 REVERT JUMPDEST POP PUSH2 0xB9 PUSH2 0x2E6 JUMP JUMPDEST PUSH1 0x40 MLOAD PUSH2 0xC6 SWAP2 SWAP1 PUSH2 0x40C JUMP JUMPDEST PUSH1 0x40 MLOAD DUP1 SWAP2 SUB SWAP1 RETURN JUMPDEST PUSH1 0x0 PUSH1 0x1 SLOAD EQ PUSH2 0x114 JUMPI PUSH1 0x40 MLOAD PUSH32 0x8C379A000000000000000000000000000000000000000000000000000000000 DUP2 MSTORE PUSH1 0x4 ADD PUSH2 0x10B SWAP1 PUSH2 0x3CC JUMP JUMPDEST PUSH1 0x40 MLOAD DUP1 SWAP2 SUB SWAP1 REVERT JUMPDEST CALLVALUE PUSH1 0x0 SLOAD EQ PUSH2 0x158 JUMPI PUSH1 0x40 MLOAD PUSH32 0x8C379A000000000000000000000000000000000000000000000000000000000 DUP2 MSTORE PUSH1 0x4 ADD PUSH2 0x14F SWAP1 PUSH2 0x3EC JUMP JUMPDEST PUSH1 0x40 MLOAD DUP1 SWAP2 SUB SWAP1 REVERT JUMPDEST CALLVALUE PUSH1 0x1 PUSH1 0x0 DUP3 DUP3 SLOAD PUSH2 0x16A SWAP2 SWAP1 PUSH2 0x44E JUMP JUMPDEST SWAP3 POP POP DUP2 SWAP1 SSTORE POP PUSH1 0x0 PUSH1 0x3 PUSH1 0x0 SWAP1 SLOAD SWAP1 PUSH2 0x100 EXP SWAP1 DIV PUSH20 0xFFFFFFFFFFFFFFFFFFFFFFFFFFFFFFFFFFFFFFFF AND PUSH20 0xFFFFFFFFFFFFFFFFFFFFFFFFFFFFFFFFFFFFFFFF AND CALLVALUE PUSH4 0x4C4B400 SWAP1 PUSH1 0x2 SLOAD PUSH1 0x40 MLOAD PUSH1 0x24 ADD PUSH2 0x1C6 SWAP2 SWAP1 PUSH2 0x40C JUMP JUMPDEST PUSH1 0x40 MLOAD PUSH1 0x20 DUP2 DUP4 SUB SUB DUP2 MSTORE SWAP1 PUSH1 0x40 MSTORE PUSH32 0x800FB83F00000000000000000000000000000000000000000000000000000000 PUSH28 0xFFFFFFFFFFFFFFFFFFFFFFFFFFFFFFFFFFFFFFFFFFFFFFFFFFFFFFFF NOT AND PUSH1 0x20 DUP3 ADD DUP1 MLOAD PUSH28 0xFFFFFFFFFFFFFFFFFFFFFFFFFFFFFFFFFFFFFFFFFFFFFFFFFFFFFFFF DUP4 DUP2 DUP4 AND OR DUP4 MSTORE POP POP POP POP PUSH1 0x40 MLOAD PUSH2 0x250 SWAP2 SWAP1 PUSH2 0x395 JUMP JUMPDEST PUSH1 0x0 PUSH1 0x40 MLOAD DUP1 DUP4 SUB DUP2 DUP6 DUP9 DUP9 CALL SWAP4 POP POP POP POP RETURNDATASIZE DUP1 PUSH1 0x0 DUP2 EQ PUSH2 0x28E JUMPI PUSH1 0x40 MLOAD SWAP2 POP PUSH1 0x1F NOT PUSH1 0x3F RETURNDATASIZE ADD AND DUP3 ADD PUSH1 0x40 MSTORE RETURNDATASIZE DUP3 MSTORE RETURNDATASIZE PUSH1 0x0 PUSH1 0x20 DUP5 ADD RETURNDATACOPY PUSH2 0x293 JUMP JUMPDEST PUSH1 0x60 SWAP2 POP JUMPDEST POP POP SWAP1 POP DUP1 PUSH2 0x2D7 JUMPI PUSH1 0x40 MLOAD PUSH32 0x8C379A000000000000000000000000000000000000000000000000000000000 DUP2 MSTORE PUSH1 0x4 ADD PUSH2 0x2CE SWAP1 PUSH2 0x3AC JUMP JUMPDEST PUSH1 0x40 MLOAD DUP1 SWAP2 SUB SWAP1 REVERT JUMPDEST POP JUMP JUMPDEST PUSH1 0x1 SLOAD DUP2 JUMP JUMPDEST PUSH1 0x0 SLOAD DUP2 JUMP JUMPDEST PUSH1 0x2 SLOAD DUP2 JUMP JUMPDEST PUSH1 0x0 PUSH2 0x2F7 DUP3 PUSH2 0x427 JUMP JUMPDEST PUSH2 0x301 DUP2 DUP6 PUSH2 0x432 JUMP JUMPDEST SWAP4 POP PUSH2 0x311 DUP2 DUP6 PUSH1 0x20 DUP7 ADD PUSH2 0x4AE JUMP JUMPDEST DUP1 DUP5 ADD SWAP2 POP POP SWAP3 SWAP2 POP POP JUMP JUMPDEST PUSH1 0x0 PUSH2 0x32A PUSH1 0x2C DUP4 PUSH2 0x43D JUMP JUMPDEST SWAP2 POP PUSH2 0x335 DUP3 PUSH2 0x510 JUMP JUMPDEST PUSH1 0x40 DUP3 ADD SWAP1 POP SWAP2 SWAP1 POP JUMP JUMPDEST PUSH1 0x0 PUSH2 0x34D PUSH1 0x19 DUP4 PUSH2 0x43D JUMP JUMPDEST SWAP2 POP PUSH2 0x358 DUP3 PUSH2 0x55F JUMP JUMPDEST PUSH1 0x20 DUP3 ADD SWAP1 POP SWAP2 SWAP1 POP JUMP JUMPDEST PUSH1 0x0 PUSH2 0x370 PUSH1 0x18 DUP4 PUSH2 0x43D JUMP JUMPDEST SWAP2 POP PUSH2 0x37B DUP3 PUSH2 0x588 JUMP JUMPDEST PUSH1 0x20 DUP3 ADD SWAP1 POP SWAP2 SWAP1 POP JUMP JUMPDEST PUSH2 0x38F DUP2 PUSH2 0x4A4 JUMP JUMPDEST DUP3 MSTORE POP POP JUMP JUMPDEST PUSH1 0x0 PUSH2 0x3A1 DUP3 DUP5 PUSH2 0x2EC JUMP JUMPDEST SWAP2 POP DUP2 SWAP1 POP SWAP3 SWAP2 POP POP JUMP JUMPDEST PUSH1 0x0 PUSH1 0x20 DUP3 ADD SWAP1 POP DUP2 DUP2 SUB PUSH1 0x0 DUP4 ADD MSTORE PUSH2 0x3C5 DUP2 PUSH2 0x31D JUMP JUMPDEST SWAP1 POP SWAP2 SWAP1 POP JUMP JUMPDEST PUSH1 0x0 PUSH1 0x20 DUP3 ADD SWAP1 POP DUP2 DUP2 SUB PUSH1 0x0 DUP4 ADD MSTORE PUSH2 0x3E5 DUP2 PUSH2 0x340 JUMP JUMPDEST SWAP1 POP SWAP2 SWAP1 POP JUMP JUMPDEST PUSH1 0x0 PUSH1 0x20 DUP3 ADD SWAP1 POP DUP2 DUP2 SUB PUSH1 0x0 DUP4 ADD MSTORE PUSH2 0x405 DUP2 PUSH2 0x363 JUMP JUMPDEST SWAP1 POP SWAP2 SWAP1 POP JUMP JUMPDEST PUSH1 0x0 PUSH1 0x20 DUP3 ADD SWAP1 POP PUSH2 0x421 PUSH1 0x0 DUP4 ADD DUP5 PUSH2 0x386 JUMP JUMPDEST SWAP3 SWAP2 POP POP JUMP JUMPDEST PUSH1 0x0 DUP2 MLOAD SWAP1 POP SWAP2 SWAP1 POP JUMP JUMPDEST PUSH1 0x0 DUP2 SWAP1 POP SWAP3 SWAP2 POP POP JUMP JUMPDEST PUSH1 0x0 DUP3 DUP3 MSTORE PUSH1 0x20 DUP3 ADD SWAP1 POP SWAP3 SWAP2 POP POP JUMP JUMPDEST PUSH1 0x0 PUSH2 0x459 DUP3 PUSH2 0x4A4 JUMP JUMPDEST SWAP2 POP PUSH2 0x464 DUP4 PUSH2 0x4A4 JUMP JUMPDEST SWAP3 POP DUP3 PUSH32 0xFFFFFFFFFFFFFFFFFFFFFFFFFFFFFFFFFFFFFFFFFFFFFFFFFFFFFFFFFFFFFFFF SUB DUP3 GT ISZERO PUSH2 0x499 JUMPI PUSH2 0x498 PUSH2 0x4E1 JUMP JUMPDEST JUMPDEST DUP3 DUP3 ADD SWAP1 POP SWAP3 SWAP2 POP POP JUMP JUMPDEST PUSH1 0x0 DUP2 SWAP1 POP SWAP2 SWAP1 POP JUMP JUMPDEST PUSH1 0x0 JUMPDEST DUP4 DUP2 LT ISZERO PUSH2 0x4CC JUMPI DUP1 DUP3 ADD MLOAD DUP2 DUP5 ADD MSTORE PUSH1 0x20 DUP2 ADD SWAP1 POP PUSH2 0x4B1 JUMP JUMPDEST DUP4 DUP2 GT ISZERO PUSH2 0x4DB JUMPI PUSH1 0x0 DUP5 DUP5 ADD MSTORE JUMPDEST POP POP POP POP JUMP JUMPDEST PUSH32 0x4E487B7100000000000000000000000000000000000000000000000000000000 PUSH1 0x0 MSTORE PUSH1 0x11 PUSH1 0x4 MSTORE PUSH1 0x24 PUSH1 0x0 REVERT JUMPDEST PUSH32 0x5472616E73616374696F6E20756E7375636365737366756C2C2063616E63656C PUSH1 0x0 DUP3 ADD MSTORE PUSH32 0x6C696E67207061796D656E740000000000000000000000000000000000000000 PUSH1 0x20 DUP3 ADD MSTORE POP JUMP JUMPDEST PUSH32 0x4974656D206973207061696420666F7220616C72656164792E00000000000000 PUSH1 0x0 DUP3 ADD MSTORE POP JUMP JUMPDEST PUSH32 0x506C656173652070617920657861637420616D6F756E742E0000000000000000 PUSH1 0x0 DUP3 ADD MSTORE POP JUMP INVALID LOG2 PUSH5 0x6970667358 0x22 SLT KECCAK256 ISZERO PUSH7 0xF7B30988CD12C1 DUP15 0x1F CALLDATASIZE 0xC4 0xC5 0xE5 PUSH14 0x195A187AF7C2025E34E6EECD87B7 PUSH2 0xC364 PUSH20 0x6F6C634300080700330000000000000000000000 "
				},
				"gasEstimates": {
					"creation": {
						"codeDepositCost": "302200",
						"executionCost": "infinite",
						"totalCost": "infinite"
					},
					"external": {
						"itemIndex()": "2473",
						"itemPriceInWei()": "2451",
						"pa()": "infinite",
						"pricePaid()": "2429"
					}
				},
				"methodIdentifiers": {
					"itemIndex()": "e07bb1a7",
					"itemPriceInWei()": "c784a6e6",
					"pa()": "0a63361c",
					"pricePaid()": "89794d00"
				}
			},
			"userdoc": {
				"kind": "user",
				"methods": {},
				"version": 1
			}
		}
	}
}