{
	"contracts/eventtrigger.sol": {
		"ItemPayment": {
			"abi": [
				{
					"inputs": [
						{
							"internalType": "contract ItemManager",
							"name": "_parentContract",
							"type": "address"
						},
						{
							"internalType": "uint256",
							"name": "_itemPriceInWei",
							"type": "uint256"
						},
						{
							"internalType": "uint256",
							"name": "_itemIndex",
							"type": "uint256"
						}
					],
					"stateMutability": "nonpayable",
					"type": "constructor"
				},
				{
					"inputs": [],
					"name": "itemIndex",
					"outputs": [
						{
							"internalType": "uint256",
							"name": "",
							"type": "uint256"
						}
					],
					"stateMutability": "view",
					"type": "function"
				},
				{
					"inputs": [],
					"name": "itemPriceInWei",
					"outputs": [
						{
							"internalType": "uint256",
							"name": "",
							"type": "uint256"
						}
					],
					"stateMutability": "view",
					"type": "function"
				}
			],
			"devdoc": {
				"kind": "dev",
				"methods": {},
				"version": 1
			},
			"evm": {
				"assembly": "    /* \"contracts/eventtrigger.sol\":60:294  contract ItemPayment {\r... */\n  mstore(0x40, 0x80)\n    /* \"contracts/eventtrigger.sol\":186:291  constructor(ItemManager _parentContract, uint _itemPriceInWei, uint _itemIndex) public {\r... */\n  callvalue\n  dup1\n  iszero\n  tag_1\n  jumpi\n  0x00\n  dup1\n  revert\ntag_1:\n  pop\n  mload(0x40)\n  sub(codesize, bytecodeSize)\n  dup1\n  bytecodeSize\n  dup4\n  codecopy\n  dup2\n  dup2\n  add\n  0x40\n  mstore\n  dup2\n  add\n  swap1\n  tag_2\n  swap2\n  swap1\n  tag_3\n  jump\t// in\ntag_2:\n  pop\n  pop\n  pop\n    /* \"contracts/eventtrigger.sol\":60:294  contract ItemPayment {\r... */\n  jump(tag_6)\n    /* \"#utility.yul\":7:188   */\ntag_8:\n    /* \"#utility.yul\":83:88   */\n  0x00\n    /* \"#utility.yul\":114:120   */\n  dup2\n    /* \"#utility.yul\":108:121   */\n  mload\n    /* \"#utility.yul\":99:121   */\n  swap1\n  pop\n    /* \"#utility.yul\":130:182   */\n  tag_10\n    /* \"#utility.yul\":176:181   */\n  dup2\n    /* \"#utility.yul\":130:182   */\n  tag_11\n  jump\t// in\ntag_10:\n    /* \"#utility.yul\":7:188   */\n  swap3\n  swap2\n  pop\n  pop\n  jump\t// out\n    /* \"#utility.yul\":194:337   */\ntag_12:\n    /* \"#utility.yul\":251:256   */\n  0x00\n    /* \"#utility.yul\":282:288   */\n  dup2\n    /* \"#utility.yul\":276:289   */\n  mload\n    /* \"#utility.yul\":267:289   */\n  swap1\n  pop\n    /* \"#utility.yul\":298:331   */\n  tag_14\n    /* \"#utility.yul\":325:330   */\n  dup2\n    /* \"#utility.yul\":298:331   */\n  tag_15\n  jump\t// in\ntag_14:\n    /* \"#utility.yul\":194:337   */\n  swap3\n  swap2\n  pop\n  pop\n  jump\t// out\n    /* \"#utility.yul\":343:1044   */\ntag_3:\n    /* \"#utility.yul\":450:456   */\n  0x00\n    /* \"#utility.yul\":458:464   */\n  dup1\n    /* \"#utility.yul\":466:472   */\n  0x00\n    /* \"#utility.yul\":515:517   */\n  0x60\n    /* \"#utility.yul\":503:512   */\n  dup5\n    /* \"#utility.yul\":494:501   */\n  dup7\n    /* \"#utility.yul\":490:513   */\n  sub\n    /* \"#utility.yul\":486:518   */\n  slt\n    /* \"#utility.yul\":483:602   */\n  iszero\n  tag_17\n  jumpi\n    /* \"#utility.yul\":521:600   */\n  tag_18\n  tag_19\n  jump\t// in\ntag_18:\n    /* \"#utility.yul\":483:602   */\ntag_17:\n    /* \"#utility.yul\":641:642   */\n  0x00\n    /* \"#utility.yul\":666:749   */\n  tag_20\n    /* \"#utility.yul\":741:748   */\n  dup7\n    /* \"#utility.yul\":732:738   */\n  dup3\n    /* \"#utility.yul\":721:730   */\n  dup8\n    /* \"#utility.yul\":717:739   */\n  add\n    /* \"#utility.yul\":666:749   */\n  tag_8\n  jump\t// in\ntag_20:\n    /* \"#utility.yul\":656:749   */\n  swap4\n  pop\n    /* \"#utility.yul\":612:759   */\n  pop\n    /* \"#utility.yul\":798:800   */\n  0x20\n    /* \"#utility.yul\":824:888   */\n  tag_21\n    /* \"#utility.yul\":880:887   */\n  dup7\n    /* \"#utility.yul\":871:877   */\n  dup3\n    /* \"#utility.yul\":860:869   */\n  dup8\n    /* \"#utility.yul\":856:878   */\n  add\n    /* \"#utility.yul\":824:888   */\n  tag_12\n  jump\t// in\ntag_21:\n    /* \"#utility.yul\":814:888   */\n  swap3\n  pop\n    /* \"#utility.yul\":769:898   */\n  pop\n    /* \"#utility.yul\":937:939   */\n  0x40\n    /* \"#utility.yul\":963:1027   */\n  tag_22\n    /* \"#utility.yul\":1019:1026   */\n  dup7\n    /* \"#utility.yul\":1010:1016   */\n  dup3\n    /* \"#utility.yul\":999:1008   */\n  dup8\n    /* \"#utility.yul\":995:1017   */\n  add\n    /* \"#utility.yul\":963:1027   */\n  tag_12\n  jump\t// in\ntag_22:\n    /* \"#utility.yul\":953:1027   */\n  swap2\n  pop\n    /* \"#utility.yul\":908:1037   */\n  pop\n    /* \"#utility.yul\":343:1044   */\n  swap3\n  pop\n  swap3\n  pop\n  swap3\n  jump\t// out\n    /* \"#utility.yul\":1131:1227   */\ntag_25:\n    /* \"#utility.yul\":1168:1175   */\n  0x00\n    /* \"#utility.yul\":1197:1221   */\n  tag_27\n    /* \"#utility.yul\":1215:1220   */\n  dup3\n    /* \"#utility.yul\":1197:1221   */\n  tag_28\n  jump\t// in\ntag_27:\n    /* \"#utility.yul\":1186:1221   */\n  swap1\n  pop\n    /* \"#utility.yul\":1131:1227   */\n  swap2\n  swap1\n  pop\n  jump\t// out\n    /* \"#utility.yul\":1233:1348   */\ntag_29:\n    /* \"#utility.yul\":1289:1296   */\n  0x00\n    /* \"#utility.yul\":1318:1342   */\n  tag_31\n    /* \"#utility.yul\":1336:1341   */\n  dup3\n    /* \"#utility.yul\":1318:1342   */\n  tag_25\n  jump\t// in\ntag_31:\n    /* \"#utility.yul\":1307:1342   */\n  swap1\n  pop\n    /* \"#utility.yul\":1233:1348   */\n  swap2\n  swap1\n  pop\n  jump\t// out\n    /* \"#utility.yul\":1354:1480   */\ntag_28:\n    /* \"#utility.yul\":1391:1398   */\n  0x00\n    /* \"#utility.yul\":1431:1473   */\n  0xffffffffffffffffffffffffffffffffffffffff\n    /* \"#utility.yul\":1424:1429   */\n  dup3\n    /* \"#utility.yul\":1420:1474   */\n  and\n    /* \"#utility.yul\":1409:1474   */\n  swap1\n  pop\n    /* \"#utility.yul\":1354:1480   */\n  swap2\n  swap1\n  pop\n  jump\t// out\n    /* \"#utility.yul\":1486:1563   */\ntag_33:\n    /* \"#utility.yul\":1523:1530   */\n  0x00\n    /* \"#utility.yul\":1552:1557   */\n  dup2\n    /* \"#utility.yul\":1541:1557   */\n  swap1\n  pop\n    /* \"#utility.yul\":1486:1563   */\n  swap2\n  swap1\n  pop\n  jump\t// out\n    /* \"#utility.yul\":1692:1809   */\ntag_19:\n    /* \"#utility.yul\":1801:1802   */\n  0x00\n    /* \"#utility.yul\":1798:1799   */\n  dup1\n    /* \"#utility.yul\":1791:1803   */\n  revert\n    /* \"#utility.yul\":1815:1975   */\ntag_11:\n    /* \"#utility.yul\":1907:1950   */\n  tag_39\n    /* \"#utility.yul\":1944:1949   */\n  dup2\n    /* \"#utility.yul\":1907:1950   */\n  tag_29\n  jump\t// in\ntag_39:\n    /* \"#utility.yul\":1900:1905   */\n  dup2\n    /* \"#utility.yul\":1897:1951   */\n  eq\n    /* \"#utility.yul\":1887:1969   */\n  tag_40\n  jumpi\n    /* \"#utility.yul\":1965:1966   */\n  0x00\n    /* \"#utility.yul\":1962:1963   */\n  dup1\n    /* \"#utility.yul\":1955:1967   */\n  revert\n    /* \"#utility.yul\":1887:1969   */\ntag_40:\n    /* \"#utility.yul\":1815:1975   */\n  pop\n  jump\t// out\n    /* \"#utility.yul\":1981:2103   */\ntag_15:\n    /* \"#utility.yul\":2054:2078   */\n  tag_42\n    /* \"#utility.yul\":2072:2077   */\n  dup2\n    /* \"#utility.yul\":2054:2078   */\n  tag_33\n  jump\t// in\ntag_42:\n    /* \"#utility.yul\":2047:2052   */\n  dup2\n    /* \"#utility.yul\":2044:2079   */\n  eq\n    /* \"#utility.yul\":2034:2097   */\n  tag_43\n  jumpi\n    /* \"#utility.yul\":2093:2094   */\n  0x00\n    /* \"#utility.yul\":2090:2091   */\n  dup1\n    /* \"#utility.yul\":2083:2095   */\n  revert\n    /* \"#utility.yul\":2034:2097   */\ntag_43:\n    /* \"#utility.yul\":1981:2103   */\n  pop\n  jump\t// out\n    /* \"contracts/eventtrigger.sol\":60:294  contract ItemPayment {\r... */\ntag_6:\n  dataSize(sub_0)\n  dup1\n  dataOffset(sub_0)\n  0x00\n  codecopy\n  0x00\n  return\nstop\n\nsub_0: assembly {\n        /* \"contracts/eventtrigger.sol\":60:294  contract ItemPayment {\r... */\n      mstore(0x40, 0x80)\n      callvalue\n      dup1\n      iszero\n      tag_1\n      jumpi\n      0x00\n      dup1\n      revert\n    tag_1:\n      pop\n      jumpi(tag_2, lt(calldatasize, 0x04))\n      shr(0xe0, calldataload(0x00))\n      dup1\n      0xc784a6e6\n      eq\n      tag_3\n      jumpi\n      dup1\n      0xe07bb1a7\n      eq\n      tag_4\n      jumpi\n    tag_2:\n      0x00\n      dup1\n      revert\n        /* \"contracts/eventtrigger.sol\":88:114  uint public itemPriceInWei */\n    tag_3:\n      tag_5\n      tag_6\n      jump\t// in\n    tag_5:\n      mload(0x40)\n      tag_7\n      swap2\n      swap1\n      tag_8\n      jump\t// in\n    tag_7:\n      mload(0x40)\n      dup1\n      swap2\n      sub\n      swap1\n      return\n        /* \"contracts/eventtrigger.sol\":121:142  uint public itemIndex */\n    tag_4:\n      tag_9\n      tag_10\n      jump\t// in\n    tag_9:\n      mload(0x40)\n      tag_11\n      swap2\n      swap1\n      tag_8\n      jump\t// in\n    tag_11:\n      mload(0x40)\n      dup1\n      swap2\n      sub\n      swap1\n      return\n        /* \"contracts/eventtrigger.sol\":88:114  uint public itemPriceInWei */\n    tag_6:\n      sload(0x00)\n      dup2\n      jump\t// out\n        /* \"contracts/eventtrigger.sol\":121:142  uint public itemIndex */\n    tag_10:\n      sload(0x01)\n      dup2\n      jump\t// out\n        /* \"#utility.yul\":7:125   */\n    tag_13:\n        /* \"#utility.yul\":94:118   */\n      tag_15\n        /* \"#utility.yul\":112:117   */\n      dup2\n        /* \"#utility.yul\":94:118   */\n      tag_16\n      jump\t// in\n    tag_15:\n        /* \"#utility.yul\":89:92   */\n      dup3\n        /* \"#utility.yul\":82:119   */\n      mstore\n        /* \"#utility.yul\":7:125   */\n      pop\n      pop\n      jump\t// out\n        /* \"#utility.yul\":131:353   */\n    tag_8:\n        /* \"#utility.yul\":224:228   */\n      0x00\n        /* \"#utility.yul\":262:264   */\n      0x20\n        /* \"#utility.yul\":251:260   */\n      dup3\n        /* \"#utility.yul\":247:265   */\n      add\n        /* \"#utility.yul\":239:265   */\n      swap1\n      pop\n        /* \"#utility.yul\":275:346   */\n      tag_18\n        /* \"#utility.yul\":343:344   */\n      0x00\n        /* \"#utility.yul\":332:341   */\n      dup4\n        /* \"#utility.yul\":328:345   */\n      add\n        /* \"#utility.yul\":319:325   */\n      dup5\n        /* \"#utility.yul\":275:346   */\n      tag_13\n      jump\t// in\n    tag_18:\n        /* \"#utility.yul\":131:353   */\n      swap3\n      swap2\n      pop\n      pop\n      jump\t// out\n        /* \"#utility.yul\":359:436   */\n    tag_16:\n        /* \"#utility.yul\":396:403   */\n      0x00\n        /* \"#utility.yul\":425:430   */\n      dup2\n        /* \"#utility.yul\":414:430   */\n      swap1\n      pop\n        /* \"#utility.yul\":359:436   */\n      swap2\n      swap1\n      pop\n      jump\t// out\n\n    auxdata: 0xa2646970667358221220477a3d47cb543f5f120e40806f7535ce05cdb8880557dca4c6a947aff040660d64736f6c63430008070033\n}\n",
				"bytecode": {
					"linkReferences": {},
					"object": "608060405234801561001057600080fd5b5060405161022338038061022383398181016040528101906100329190610064565b505050610138565b6000815190506100498161010a565b92915050565b60008151905061005e81610121565b92915050565b60008060006060848603121561007d5761007c610105565b5b600061008b8682870161003a565b935050602061009c8682870161004f565b92505060406100ad8682870161004f565b9150509250925092565b60006100c2826100db565b9050919050565b60006100d4826100b7565b9050919050565b600073ffffffffffffffffffffffffffffffffffffffff82169050919050565b6000819050919050565b600080fd5b610113816100c9565b811461011e57600080fd5b50565b61012a816100fb565b811461013557600080fd5b50565b60dd806101466000396000f3fe6080604052348015600f57600080fd5b506004361060325760003560e01c8063c784a6e6146037578063e07bb1a7146051575b600080fd5b603d606b565b604051604891906084565b60405180910390f35b60576071565b604051606291906084565b60405180910390f35b60005481565b60015481565b607e81609d565b82525050565b6000602082019050609760008301846077565b92915050565b600081905091905056fea2646970667358221220477a3d47cb543f5f120e40806f7535ce05cdb8880557dca4c6a947aff040660d64736f6c63430008070033",
					"opcodes": "PUSH1 0x80 PUSH1 0x40 MSTORE CALLVALUE DUP1 ISZERO PUSH2 0x10 JUMPI PUSH1 0x0 DUP1 REVERT JUMPDEST POP PUSH1 0x40 MLOAD PUSH2 0x223 CODESIZE SUB DUP1 PUSH2 0x223 DUP4 CODECOPY DUP2 DUP2 ADD PUSH1 0x40 MSTORE DUP2 ADD SWAP1 PUSH2 0x32 SWAP2 SWAP1 PUSH2 0x64 JUMP JUMPDEST POP POP POP PUSH2 0x138 JUMP JUMPDEST PUSH1 0x0 DUP2 MLOAD SWAP1 POP PUSH2 0x49 DUP2 PUSH2 0x10A JUMP JUMPDEST SWAP3 SWAP2 POP POP JUMP JUMPDEST PUSH1 0x0 DUP2 MLOAD SWAP1 POP PUSH2 0x5E DUP2 PUSH2 0x121 JUMP JUMPDEST SWAP3 SWAP2 POP POP JUMP JUMPDEST PUSH1 0x0 DUP1 PUSH1 0x0 PUSH1 0x60 DUP5 DUP7 SUB SLT ISZERO PUSH2 0x7D JUMPI PUSH2 0x7C PUSH2 0x105 JUMP JUMPDEST JUMPDEST PUSH1 0x0 PUSH2 0x8B DUP7 DUP3 DUP8 ADD PUSH2 0x3A JUMP JUMPDEST SWAP4 POP POP PUSH1 0x20 PUSH2 0x9C DUP7 DUP3 DUP8 ADD PUSH2 0x4F JUMP JUMPDEST SWAP3 POP POP PUSH1 0x40 PUSH2 0xAD DUP7 DUP3 DUP8 ADD PUSH2 0x4F JUMP JUMPDEST SWAP2 POP POP SWAP3 POP SWAP3 POP SWAP3 JUMP JUMPDEST PUSH1 0x0 PUSH2 0xC2 DUP3 PUSH2 0xDB JUMP JUMPDEST SWAP1 POP SWAP2 SWAP1 POP JUMP JUMPDEST PUSH1 0x0 PUSH2 0xD4 DUP3 PUSH2 0xB7 JUMP JUMPDEST SWAP1 POP SWAP2 SWAP1 POP JUMP JUMPDEST PUSH1 0x0 PUSH20 0xFFFFFFFFFFFFFFFFFFFFFFFFFFFFFFFFFFFFFFFF DUP3 AND SWAP1 POP SWAP2 SWAP1 POP JUMP JUMPDEST PUSH1 0x0 DUP2 SWAP1 POP SWAP2 SWAP1 POP JUMP JUMPDEST PUSH1 0x0 DUP1 REVERT JUMPDEST PUSH2 0x113 DUP2 PUSH2 0xC9 JUMP JUMPDEST DUP2 EQ PUSH2 0x11E JUMPI PUSH1 0x0 DUP1 REVERT JUMPDEST POP JUMP JUMPDEST PUSH2 0x12A DUP2 PUSH2 0xFB JUMP JUMPDEST DUP2 EQ PUSH2 0x135 JUMPI PUSH1 0x0 DUP1 REVERT JUMPDEST POP JUMP JUMPDEST PUSH1 0xDD DUP1 PUSH2 0x146 PUSH1 0x0 CODECOPY PUSH1 0x0 RETURN INVALID PUSH1 0x80 PUSH1 0x40 MSTORE CALLVALUE DUP1 ISZERO PUSH1 0xF JUMPI PUSH1 0x0 DUP1 REVERT JUMPDEST POP PUSH1 0x4 CALLDATASIZE LT PUSH1 0x32 JUMPI PUSH1 0x0 CALLDATALOAD PUSH1 0xE0 SHR DUP1 PUSH4 0xC784A6E6 EQ PUSH1 0x37 JUMPI DUP1 PUSH4 0xE07BB1A7 EQ PUSH1 0x51 JUMPI JUMPDEST PUSH1 0x0 DUP1 REVERT JUMPDEST PUSH1 0x3D PUSH1 0x6B JUMP JUMPDEST PUSH1 0x40 MLOAD PUSH1 0x48 SWAP2 SWAP1 PUSH1 0x84 JUMP JUMPDEST PUSH1 0x40 MLOAD DUP1 SWAP2 SUB SWAP1 RETURN JUMPDEST PUSH1 0x57 PUSH1 0x71 JUMP JUMPDEST PUSH1 0x40 MLOAD PUSH1 0x62 SWAP2 SWAP1 PUSH1 0x84 JUMP JUMPDEST PUSH1 0x40 MLOAD DUP1 SWAP2 SUB SWAP1 RETURN JUMPDEST PUSH1 0x0 SLOAD DUP2 JUMP JUMPDEST PUSH1 0x1 SLOAD DUP2 JUMP JUMPDEST PUSH1 0x7E DUP2 PUSH1 0x9D JUMP JUMPDEST DUP3 MSTORE POP POP JUMP JUMPDEST PUSH1 0x0 PUSH1 0x20 DUP3 ADD SWAP1 POP PUSH1 0x97 PUSH1 0x0 DUP4 ADD DUP5 PUSH1 0x77 JUMP JUMPDEST SWAP3 SWAP2 POP POP JUMP JUMPDEST PUSH1 0x0 DUP2 SWAP1 POP SWAP2 SWAP1 POP JUMP INVALID LOG2 PUSH5 0x6970667358 0x22 SLT KECCAK256 SELFBALANCE PUSH27 0x3D47CB543F5F120E40806F7535CE05CDB8880557DCA4C6A947AFF0 BLOCKHASH PUSH7 0xD64736F6C6343 STOP ADDMOD SMOD STOP CALLER "
				},
				"gasEstimates": {
					"creation": {
						"codeDepositCost": "44200",
						"executionCost": "infinite",
						"totalCost": "infinite"
					},
					"external": {
						"itemIndex()": "2429",
						"itemPriceInWei()": "2407"
					}
				},
				"methodIdentifiers": {
					"itemIndex()": "e07bb1a7",
					"itemPriceInWei()": "c784a6e6"
				}
			},
			"userdoc": {
				"kind": "user",
				"methods": {},
				"version": 1
			}
		}
	}
}