{
	"contracts/eventtrigger.sol": {
		"Item": {
			"abi": [
				{
					"inputs": [
						{
							"internalType": "contract ItemManager",
							"name": "_parentContract",
							"type": "address"
						},
						{
							"internalType": "uint256",
							"name": "_itemPriceInWei",
							"type": "uint256"
						},
						{
							"internalType": "uint256",
							"name": "_itemIndex",
							"type": "uint256"
						},
						{
							"internalType": "address",
							"name": "_addr",
							"type": "address"
						}
					],
					"stateMutability": "nonpayable",
					"type": "constructor"
				},
				{
					"inputs": [],
					"name": "addr",
					"outputs": [
						{
							"internalType": "address",
							"name": "",
							"type": "address"
						}
					],
					"stateMutability": "view",
					"type": "function"
				},
				{
					"inputs": [],
					"name": "conAddress",
					"outputs": [
						{
							"internalType": "address",
							"name": "",
							"type": "address"
						}
					],
					"stateMutability": "view",
					"type": "function"
				},
				{
					"inputs": [],
					"name": "itemIndex",
					"outputs": [
						{
							"internalType": "uint256",
							"name": "",
							"type": "uint256"
						}
					],
					"stateMutability": "view",
					"type": "function"
				},
				{
					"inputs": [],
					"name": "itemPriceInWei",
					"outputs": [
						{
							"internalType": "uint256",
							"name": "",
							"type": "uint256"
						}
					],
					"stateMutability": "view",
					"type": "function"
				},
				{
					"inputs": [],
					"name": "pay",
					"outputs": [],
					"stateMutability": "payable",
					"type": "function"
				},
				{
					"inputs": [],
					"name": "pricePaid",
					"outputs": [
						{
							"internalType": "uint256",
							"name": "",
							"type": "uint256"
						}
					],
					"stateMutability": "view",
					"type": "function"
				}
			],
			"devdoc": {
				"kind": "dev",
				"methods": {},
				"version": 1
			},
			"evm": {
				"assembly": "    /* \"contracts/eventtrigger.sol\":60:1210  contract Item {\r... */\n  mstore(0x40, 0x80)\n    /* \"contracts/eventtrigger.sol\":233:484  constructor(ItemManager _parentContract, uint _itemPriceInWei, uint _itemIndex, address _addr) public {\r... */\n  callvalue\n  dup1\n  iszero\n  tag_1\n  jumpi\n  0x00\n  dup1\n  revert\ntag_1:\n  pop\n  mload(0x40)\n  sub(codesize, bytecodeSize)\n  dup1\n  bytecodeSize\n  dup4\n  codecopy\n  dup2\n  dup2\n  add\n  0x40\n  mstore\n  dup2\n  add\n  swap1\n  tag_2\n  swap2\n  swap1\n  tag_3\n  jump\t// in\ntag_2:\n    /* \"contracts/eventtrigger.sol\":363:377  parentContract */\n  0x04\n  0x00\n  swap1\n  sload\n  swap1\n  0x0100\n  exp\n  swap1\n  div\n  0xffffffffffffffffffffffffffffffffffffffff\n  and\n    /* \"contracts/eventtrigger.sol\":346:360  parentContract */\n  0x04\n  0x00\n    /* \"contracts/eventtrigger.sol\":346:377  parentContract = parentContract */\n  0x0100\n  exp\n  dup2\n  sload\n  dup2\n  0xffffffffffffffffffffffffffffffffffffffff\n  mul\n  not\n  and\n  swap1\n  dup4\n  0xffffffffffffffffffffffffffffffffffffffff\n  and\n  mul\n  or\n  swap1\n  sstore\n  pop\n    /* \"contracts/eventtrigger.sol\":405:420  _itemPriceInWei */\n  dup3\n    /* \"contracts/eventtrigger.sol\":388:402  itemPriceInWei */\n  0x00\n    /* \"contracts/eventtrigger.sol\":388:420  itemPriceInWei = _itemPriceInWei */\n  dup2\n  swap1\n  sstore\n  pop\n    /* \"contracts/eventtrigger.sol\":443:453  _itemIndex */\n  dup2\n    /* \"contracts/eventtrigger.sol\":431:440  itemIndex */\n  0x02\n    /* \"contracts/eventtrigger.sol\":431:453  itemIndex = _itemIndex */\n  dup2\n  swap1\n  sstore\n  pop\n    /* \"contracts/eventtrigger.sol\":471:476  _addr */\n  dup1\n    /* \"contracts/eventtrigger.sol\":464:468  addr */\n  0x03\n  0x00\n    /* \"contracts/eventtrigger.sol\":464:476  addr = _addr */\n  0x0100\n  exp\n  dup2\n  sload\n  dup2\n  0xffffffffffffffffffffffffffffffffffffffff\n  mul\n  not\n  and\n  swap1\n  dup4\n  0xffffffffffffffffffffffffffffffffffffffff\n  and\n  mul\n  or\n  swap1\n  sstore\n  pop\n    /* \"contracts/eventtrigger.sol\":233:484  constructor(ItemManager _parentContract, uint _itemPriceInWei, uint _itemIndex, address _addr) public {\r... */\n  pop\n  pop\n  pop\n  pop\n    /* \"contracts/eventtrigger.sol\":60:1210  contract Item {\r... */\n  jump(tag_6)\n    /* \"#utility.yul\":7:150   */\ntag_8:\n    /* \"#utility.yul\":64:69   */\n  0x00\n    /* \"#utility.yul\":95:101   */\n  dup2\n    /* \"#utility.yul\":89:102   */\n  mload\n    /* \"#utility.yul\":80:102   */\n  swap1\n  pop\n    /* \"#utility.yul\":111:144   */\n  tag_10\n    /* \"#utility.yul\":138:143   */\n  dup2\n    /* \"#utility.yul\":111:144   */\n  tag_11\n  jump\t// in\ntag_10:\n    /* \"#utility.yul\":7:150   */\n  swap3\n  swap2\n  pop\n  pop\n  jump\t// out\n    /* \"#utility.yul\":156:337   */\ntag_12:\n    /* \"#utility.yul\":232:237   */\n  0x00\n    /* \"#utility.yul\":263:269   */\n  dup2\n    /* \"#utility.yul\":257:270   */\n  mload\n    /* \"#utility.yul\":248:270   */\n  swap1\n  pop\n    /* \"#utility.yul\":279:331   */\n  tag_14\n    /* \"#utility.yul\":325:330   */\n  dup2\n    /* \"#utility.yul\":279:331   */\n  tag_15\n  jump\t// in\ntag_14:\n    /* \"#utility.yul\":156:337   */\n  swap3\n  swap2\n  pop\n  pop\n  jump\t// out\n    /* \"#utility.yul\":343:486   */\ntag_16:\n    /* \"#utility.yul\":400:405   */\n  0x00\n    /* \"#utility.yul\":431:437   */\n  dup2\n    /* \"#utility.yul\":425:438   */\n  mload\n    /* \"#utility.yul\":416:438   */\n  swap1\n  pop\n    /* \"#utility.yul\":447:480   */\n  tag_18\n    /* \"#utility.yul\":474:479   */\n  dup2\n    /* \"#utility.yul\":447:480   */\n  tag_19\n  jump\t// in\ntag_18:\n    /* \"#utility.yul\":343:486   */\n  swap3\n  swap2\n  pop\n  pop\n  jump\t// out\n    /* \"#utility.yul\":492:1350   */\ntag_3:\n    /* \"#utility.yul\":608:614   */\n  0x00\n    /* \"#utility.yul\":616:622   */\n  dup1\n    /* \"#utility.yul\":624:630   */\n  0x00\n    /* \"#utility.yul\":632:638   */\n  dup1\n    /* \"#utility.yul\":681:684   */\n  0x80\n    /* \"#utility.yul\":669:678   */\n  dup6\n    /* \"#utility.yul\":660:667   */\n  dup8\n    /* \"#utility.yul\":656:679   */\n  sub\n    /* \"#utility.yul\":652:685   */\n  slt\n    /* \"#utility.yul\":649:769   */\n  iszero\n  tag_21\n  jumpi\n    /* \"#utility.yul\":688:767   */\n  tag_22\n  tag_23\n  jump\t// in\ntag_22:\n    /* \"#utility.yul\":649:769   */\ntag_21:\n    /* \"#utility.yul\":808:809   */\n  0x00\n    /* \"#utility.yul\":833:916   */\n  tag_24\n    /* \"#utility.yul\":908:915   */\n  dup8\n    /* \"#utility.yul\":899:905   */\n  dup3\n    /* \"#utility.yul\":888:897   */\n  dup9\n    /* \"#utility.yul\":884:906   */\n  add\n    /* \"#utility.yul\":833:916   */\n  tag_12\n  jump\t// in\ntag_24:\n    /* \"#utility.yul\":823:916   */\n  swap5\n  pop\n    /* \"#utility.yul\":779:926   */\n  pop\n    /* \"#utility.yul\":965:967   */\n  0x20\n    /* \"#utility.yul\":991:1055   */\n  tag_25\n    /* \"#utility.yul\":1047:1054   */\n  dup8\n    /* \"#utility.yul\":1038:1044   */\n  dup3\n    /* \"#utility.yul\":1027:1036   */\n  dup9\n    /* \"#utility.yul\":1023:1045   */\n  add\n    /* \"#utility.yul\":991:1055   */\n  tag_16\n  jump\t// in\ntag_25:\n    /* \"#utility.yul\":981:1055   */\n  swap4\n  pop\n    /* \"#utility.yul\":936:1065   */\n  pop\n    /* \"#utility.yul\":1104:1106   */\n  0x40\n    /* \"#utility.yul\":1130:1194   */\n  tag_26\n    /* \"#utility.yul\":1186:1193   */\n  dup8\n    /* \"#utility.yul\":1177:1183   */\n  dup3\n    /* \"#utility.yul\":1166:1175   */\n  dup9\n    /* \"#utility.yul\":1162:1184   */\n  add\n    /* \"#utility.yul\":1130:1194   */\n  tag_16\n  jump\t// in\ntag_26:\n    /* \"#utility.yul\":1120:1194   */\n  swap3\n  pop\n    /* \"#utility.yul\":1075:1204   */\n  pop\n    /* \"#utility.yul\":1243:1245   */\n  0x60\n    /* \"#utility.yul\":1269:1333   */\n  tag_27\n    /* \"#utility.yul\":1325:1332   */\n  dup8\n    /* \"#utility.yul\":1316:1322   */\n  dup3\n    /* \"#utility.yul\":1305:1314   */\n  dup9\n    /* \"#utility.yul\":1301:1323   */\n  add\n    /* \"#utility.yul\":1269:1333   */\n  tag_8\n  jump\t// in\ntag_27:\n    /* \"#utility.yul\":1259:1333   */\n  swap2\n  pop\n    /* \"#utility.yul\":1214:1343   */\n  pop\n    /* \"#utility.yul\":492:1350   */\n  swap3\n  swap6\n  swap2\n  swap5\n  pop\n  swap3\n  pop\n  jump\t// out\n    /* \"#utility.yul\":1437:1533   */\ntag_30:\n    /* \"#utility.yul\":1474:1481   */\n  0x00\n    /* \"#utility.yul\":1503:1527   */\n  tag_32\n    /* \"#utility.yul\":1521:1526   */\n  dup3\n    /* \"#utility.yul\":1503:1527   */\n  tag_33\n  jump\t// in\ntag_32:\n    /* \"#utility.yul\":1492:1527   */\n  swap1\n  pop\n    /* \"#utility.yul\":1437:1533   */\n  swap2\n  swap1\n  pop\n  jump\t// out\n    /* \"#utility.yul\":1539:1654   */\ntag_34:\n    /* \"#utility.yul\":1595:1602   */\n  0x00\n    /* \"#utility.yul\":1624:1648   */\n  tag_36\n    /* \"#utility.yul\":1642:1647   */\n  dup3\n    /* \"#utility.yul\":1624:1648   */\n  tag_30\n  jump\t// in\ntag_36:\n    /* \"#utility.yul\":1613:1648   */\n  swap1\n  pop\n    /* \"#utility.yul\":1539:1654   */\n  swap2\n  swap1\n  pop\n  jump\t// out\n    /* \"#utility.yul\":1660:1786   */\ntag_33:\n    /* \"#utility.yul\":1697:1704   */\n  0x00\n    /* \"#utility.yul\":1737:1779   */\n  0xffffffffffffffffffffffffffffffffffffffff\n    /* \"#utility.yul\":1730:1735   */\n  dup3\n    /* \"#utility.yul\":1726:1780   */\n  and\n    /* \"#utility.yul\":1715:1780   */\n  swap1\n  pop\n    /* \"#utility.yul\":1660:1786   */\n  swap2\n  swap1\n  pop\n  jump\t// out\n    /* \"#utility.yul\":1792:1869   */\ntag_38:\n    /* \"#utility.yul\":1829:1836   */\n  0x00\n    /* \"#utility.yul\":1858:1863   */\n  dup2\n    /* \"#utility.yul\":1847:1863   */\n  swap1\n  pop\n    /* \"#utility.yul\":1792:1869   */\n  swap2\n  swap1\n  pop\n  jump\t// out\n    /* \"#utility.yul\":1998:2115   */\ntag_23:\n    /* \"#utility.yul\":2107:2108   */\n  0x00\n    /* \"#utility.yul\":2104:2105   */\n  dup1\n    /* \"#utility.yul\":2097:2109   */\n  revert\n    /* \"#utility.yul\":2121:2243   */\ntag_11:\n    /* \"#utility.yul\":2194:2218   */\n  tag_44\n    /* \"#utility.yul\":2212:2217   */\n  dup2\n    /* \"#utility.yul\":2194:2218   */\n  tag_30\n  jump\t// in\ntag_44:\n    /* \"#utility.yul\":2187:2192   */\n  dup2\n    /* \"#utility.yul\":2184:2219   */\n  eq\n    /* \"#utility.yul\":2174:2237   */\n  tag_45\n  jumpi\n    /* \"#utility.yul\":2233:2234   */\n  0x00\n    /* \"#utility.yul\":2230:2231   */\n  dup1\n    /* \"#utility.yul\":2223:2235   */\n  revert\n    /* \"#utility.yul\":2174:2237   */\ntag_45:\n    /* \"#utility.yul\":2121:2243   */\n  pop\n  jump\t// out\n    /* \"#utility.yul\":2249:2409   */\ntag_15:\n    /* \"#utility.yul\":2341:2384   */\n  tag_47\n    /* \"#utility.yul\":2378:2383   */\n  dup2\n    /* \"#utility.yul\":2341:2384   */\n  tag_34\n  jump\t// in\ntag_47:\n    /* \"#utility.yul\":2334:2339   */\n  dup2\n    /* \"#utility.yul\":2331:2385   */\n  eq\n    /* \"#utility.yul\":2321:2403   */\n  tag_48\n  jumpi\n    /* \"#utility.yul\":2399:2400   */\n  0x00\n    /* \"#utility.yul\":2396:2397   */\n  dup1\n    /* \"#utility.yul\":2389:2401   */\n  revert\n    /* \"#utility.yul\":2321:2403   */\ntag_48:\n    /* \"#utility.yul\":2249:2409   */\n  pop\n  jump\t// out\n    /* \"#utility.yul\":2415:2537   */\ntag_19:\n    /* \"#utility.yul\":2488:2512   */\n  tag_50\n    /* \"#utility.yul\":2506:2511   */\n  dup2\n    /* \"#utility.yul\":2488:2512   */\n  tag_38\n  jump\t// in\ntag_50:\n    /* \"#utility.yul\":2481:2486   */\n  dup2\n    /* \"#utility.yul\":2478:2513   */\n  eq\n    /* \"#utility.yul\":2468:2531   */\n  tag_51\n  jumpi\n    /* \"#utility.yul\":2527:2528   */\n  0x00\n    /* \"#utility.yul\":2524:2525   */\n  dup1\n    /* \"#utility.yul\":2517:2529   */\n  revert\n    /* \"#utility.yul\":2468:2531   */\ntag_51:\n    /* \"#utility.yul\":2415:2537   */\n  pop\n  jump\t// out\n    /* \"contracts/eventtrigger.sol\":60:1210  contract Item {\r... */\ntag_6:\n  dataSize(sub_0)\n  dup1\n  dataOffset(sub_0)\n  0x00\n  codecopy\n  0x00\n  return\nstop\n\nsub_0: assembly {\n        /* \"contracts/eventtrigger.sol\":60:1210  contract Item {\r... */\n      mstore(0x40, 0x80)\n      jumpi(tag_1, lt(calldatasize, 0x04))\n      shr(0xe0, calldataload(0x00))\n      dup1\n      0x1b9265b8\n      eq\n      tag_2\n      jumpi\n      dup1\n      0x767800de\n      eq\n      tag_3\n      jumpi\n      dup1\n      0x89794d00\n      eq\n      tag_4\n      jumpi\n      dup1\n      0xc7286b20\n      eq\n      tag_5\n      jumpi\n      dup1\n      0xc784a6e6\n      eq\n      tag_6\n      jumpi\n      dup1\n      0xe07bb1a7\n      eq\n      tag_7\n      jumpi\n    tag_1:\n      0x00\n      dup1\n      revert\n        /* \"contracts/eventtrigger.sol\":602:1166  function pay () external payable {\r... */\n    tag_2:\n      tag_8\n      tag_9\n      jump\t// in\n    tag_8:\n      stop\n        /* \"contracts/eventtrigger.sol\":170:189  address public addr */\n    tag_3:\n      callvalue\n      dup1\n      iszero\n      tag_10\n      jumpi\n      0x00\n      dup1\n      revert\n    tag_10:\n      pop\n      tag_11\n      tag_12\n      jump\t// in\n    tag_11:\n      mload(0x40)\n      tag_13\n      swap2\n      swap1\n      tag_14\n      jump\t// in\n    tag_13:\n      mload(0x40)\n      dup1\n      swap2\n      sub\n      swap1\n      return\n        /* \"contracts/eventtrigger.sol\":114:135  uint public pricePaid */\n    tag_4:\n      callvalue\n      dup1\n      iszero\n      tag_15\n      jumpi\n      0x00\n      dup1\n      revert\n    tag_15:\n      pop\n      tag_16\n      tag_17\n      jump\t// in\n    tag_16:\n      mload(0x40)\n      tag_18\n      swap2\n      swap1\n      tag_19\n      jump\t// in\n    tag_18:\n      mload(0x40)\n      dup1\n      swap2\n      sub\n      swap1\n      return\n        /* \"contracts/eventtrigger.sol\":492:594  function conAddress () public view returns (address) {\r... */\n    tag_5:\n      callvalue\n      dup1\n      iszero\n      tag_20\n      jumpi\n      0x00\n      dup1\n      revert\n    tag_20:\n      pop\n      tag_21\n      tag_22\n      jump\t// in\n    tag_21:\n      mload(0x40)\n      tag_23\n      swap2\n      swap1\n      tag_14\n      jump\t// in\n    tag_23:\n      mload(0x40)\n      dup1\n      swap2\n      sub\n      swap1\n      return\n        /* \"contracts/eventtrigger.sol\":81:107  uint public itemPriceInWei */\n    tag_6:\n      callvalue\n      dup1\n      iszero\n      tag_24\n      jumpi\n      0x00\n      dup1\n      revert\n    tag_24:\n      pop\n      tag_25\n      tag_26\n      jump\t// in\n    tag_25:\n      mload(0x40)\n      tag_27\n      swap2\n      swap1\n      tag_19\n      jump\t// in\n    tag_27:\n      mload(0x40)\n      dup1\n      swap2\n      sub\n      swap1\n      return\n        /* \"contracts/eventtrigger.sol\":142:163  uint public itemIndex */\n    tag_7:\n      callvalue\n      dup1\n      iszero\n      tag_28\n      jumpi\n      0x00\n      dup1\n      revert\n    tag_28:\n      pop\n      tag_29\n      tag_30\n      jump\t// in\n    tag_29:\n      mload(0x40)\n      tag_31\n      swap2\n      swap1\n      tag_19\n      jump\t// in\n    tag_31:\n      mload(0x40)\n      dup1\n      swap2\n      sub\n      swap1\n      return\n        /* \"contracts/eventtrigger.sol\":602:1166  function pay () external payable {\r... */\n    tag_9:\n        /* \"contracts/eventtrigger.sol\":668:669  0 */\n      0x00\n        /* \"contracts/eventtrigger.sol\":655:664  pricePaid */\n      sload(0x01)\n        /* \"contracts/eventtrigger.sol\":655:669  pricePaid == 0 */\n      eq\n        /* \"contracts/eventtrigger.sol\":646:699  require (pricePaid == 0, \"Item is paid for already.\") */\n      tag_33\n      jumpi\n      mload(0x40)\n      0x08c379a000000000000000000000000000000000000000000000000000000000\n      dup2\n      mstore\n      0x04\n      add\n      tag_34\n      swap1\n      tag_35\n      jump\t// in\n    tag_34:\n      mload(0x40)\n      dup1\n      swap2\n      sub\n      swap1\n      revert\n    tag_33:\n        /* \"contracts/eventtrigger.sol\":737:746  msg.value */\n      callvalue\n        /* \"contracts/eventtrigger.sol\":719:733  itemPriceInWei */\n      sload(0x00)\n        /* \"contracts/eventtrigger.sol\":719:746  itemPriceInWei == msg.value */\n      eq\n        /* \"contracts/eventtrigger.sol\":710:775  require (itemPriceInWei == msg.value, \"Please pay exact amount.\") */\n      tag_36\n      jumpi\n      mload(0x40)\n      0x08c379a000000000000000000000000000000000000000000000000000000000\n      dup2\n      mstore\n      0x04\n      add\n      tag_37\n      swap1\n      tag_38\n      jump\t// in\n    tag_37:\n      mload(0x40)\n      dup1\n      swap2\n      sub\n      swap1\n      revert\n    tag_36:\n        /* \"contracts/eventtrigger.sol\":799:808  msg.value */\n      callvalue\n        /* \"contracts/eventtrigger.sol\":786:795  pricePaid */\n      0x01\n      0x00\n        /* \"contracts/eventtrigger.sol\":786:808  pricePaid += msg.value */\n      dup3\n      dup3\n      sload\n      tag_39\n      swap2\n      swap1\n      tag_40\n      jump\t// in\n    tag_39:\n      swap3\n      pop\n      pop\n      dup2\n      swap1\n      sstore\n      pop\n        /* \"contracts/eventtrigger.sol\":955:967  bool success */\n      0x00\n        /* \"contracts/eventtrigger.sol\":974:978  addr */\n      0x03\n      0x00\n      swap1\n      sload\n      swap1\n      0x0100\n      exp\n      swap1\n      div\n      0xffffffffffffffffffffffffffffffffffffffff\n      and\n        /* \"contracts/eventtrigger.sol\":974:983  addr.call */\n      0xffffffffffffffffffffffffffffffffffffffff\n      and\n        /* \"contracts/eventtrigger.sol\":992:1001  msg.value */\n      callvalue\n        /* \"contracts/eventtrigger.sol\":1009:1017  80000000 */\n      0x04c4b400\n        /* \"contracts/eventtrigger.sol\":974:1082  addr.call{value : msg.value, gas : 80000000 }(abi.encodeWithSignature(\"triggerPayment(uint256)\", itemIndex)) */\n      swap1\n        /* \"contracts/eventtrigger.sol\":1071:1080  itemIndex */\n      sload(0x02)\n        /* \"contracts/eventtrigger.sol\":1020:1081  abi.encodeWithSignature(\"triggerPayment(uint256)\", itemIndex) */\n      add(0x24, mload(0x40))\n      tag_41\n      swap2\n      swap1\n      tag_19\n      jump\t// in\n    tag_41:\n      mload(0x40)\n      0x20\n      dup2\n      dup4\n      sub\n      sub\n      dup2\n      mstore\n      swap1\n      0x40\n      mstore\n      and(not(0xffffffffffffffffffffffffffffffffffffffffffffffffffffffff), 0x800fb83f00000000000000000000000000000000000000000000000000000000)\n      0x20\n      dup3\n      add\n      dup1\n      mload\n      0xffffffffffffffffffffffffffffffffffffffffffffffffffffffff\n      dup4\n      dup2\n      dup4\n      and\n      or\n      dup4\n      mstore\n      pop\n      pop\n      pop\n      pop\n        /* \"contracts/eventtrigger.sol\":974:1082  addr.call{value : msg.value, gas : 80000000 }(abi.encodeWithSignature(\"triggerPayment(uint256)\", itemIndex)) */\n      mload(0x40)\n      tag_42\n      swap2\n      swap1\n      tag_43\n      jump\t// in\n    tag_42:\n      0x00\n      mload(0x40)\n      dup1\n      dup4\n      sub\n      dup2\n      dup6\n      dup9\n      dup9\n      call\n      swap4\n      pop\n      pop\n      pop\n      pop\n      returndatasize\n      dup1\n      0x00\n      dup2\n      eq\n      tag_46\n      jumpi\n      mload(0x40)\n      swap2\n      pop\n      and(add(returndatasize, 0x3f), not(0x1f))\n      dup3\n      add\n      0x40\n      mstore\n      returndatasize\n      dup3\n      mstore\n      returndatasize\n      0x00\n      0x20\n      dup5\n      add\n      returndatacopy\n      jump(tag_45)\n    tag_46:\n      0x60\n      swap2\n      pop\n    tag_45:\n      pop\n        /* \"contracts/eventtrigger.sol\":954:1082  (bool success, ) =  addr.call{value : msg.value, gas : 80000000 }(abi.encodeWithSignature(\"triggerPayment(uint256)\", itemIndex)) */\n      pop\n      swap1\n      pop\n        /* \"contracts/eventtrigger.sol\":1102:1109  success */\n      dup1\n        /* \"contracts/eventtrigger.sol\":1093:1158  require (success, \"Transaction unsuccessful, cancelling payment\") */\n      tag_47\n      jumpi\n      mload(0x40)\n      0x08c379a000000000000000000000000000000000000000000000000000000000\n      dup2\n      mstore\n      0x04\n      add\n      tag_48\n      swap1\n      tag_49\n      jump\t// in\n    tag_48:\n      mload(0x40)\n      dup1\n      swap2\n      sub\n      swap1\n      revert\n    tag_47:\n        /* \"contracts/eventtrigger.sol\":635:1166  {\r... */\n      pop\n        /* \"contracts/eventtrigger.sol\":602:1166  function pay () external payable {\r... */\n      jump\t// out\n        /* \"contracts/eventtrigger.sol\":170:189  address public addr */\n    tag_12:\n      0x03\n      0x00\n      swap1\n      sload\n      swap1\n      0x0100\n      exp\n      swap1\n      div\n      0xffffffffffffffffffffffffffffffffffffffff\n      and\n      dup2\n      jump\t// out\n        /* \"contracts/eventtrigger.sol\":114:135  uint public pricePaid */\n    tag_17:\n      sload(0x01)\n      dup2\n      jump\t// out\n        /* \"contracts/eventtrigger.sol\":492:594  function conAddress () public view returns (address) {\r... */\n    tag_22:\n        /* \"contracts/eventtrigger.sol\":536:543  address */\n      0x00\n        /* \"contracts/eventtrigger.sol\":571:585  parentContract */\n      0x04\n      0x00\n      swap1\n      sload\n      swap1\n      0x0100\n      exp\n      swap1\n      div\n      0xffffffffffffffffffffffffffffffffffffffff\n      and\n        /* \"contracts/eventtrigger.sol\":556:586  return address(parentContract) */\n      swap1\n      pop\n        /* \"contracts/eventtrigger.sol\":492:594  function conAddress () public view returns (address) {\r... */\n      swap1\n      jump\t// out\n        /* \"contracts/eventtrigger.sol\":81:107  uint public itemPriceInWei */\n    tag_26:\n      sload(0x00)\n      dup2\n      jump\t// out\n        /* \"contracts/eventtrigger.sol\":142:163  uint public itemIndex */\n    tag_30:\n      sload(0x02)\n      dup2\n      jump\t// out\n        /* \"#utility.yul\":7:125   */\n    tag_52:\n        /* \"#utility.yul\":94:118   */\n      tag_54\n        /* \"#utility.yul\":112:117   */\n      dup2\n        /* \"#utility.yul\":94:118   */\n      tag_55\n      jump\t// in\n    tag_54:\n        /* \"#utility.yul\":89:92   */\n      dup3\n        /* \"#utility.yul\":82:119   */\n      mstore\n        /* \"#utility.yul\":7:125   */\n      pop\n      pop\n      jump\t// out\n        /* \"#utility.yul\":131:504   */\n    tag_56:\n        /* \"#utility.yul\":235:238   */\n      0x00\n        /* \"#utility.yul\":263:301   */\n      tag_58\n        /* \"#utility.yul\":295:300   */\n      dup3\n        /* \"#utility.yul\":263:301   */\n      tag_59\n      jump\t// in\n    tag_58:\n        /* \"#utility.yul\":317:405   */\n      tag_60\n        /* \"#utility.yul\":398:404   */\n      dup2\n        /* \"#utility.yul\":393:396   */\n      dup6\n        /* \"#utility.yul\":317:405   */\n      tag_61\n      jump\t// in\n    tag_60:\n        /* \"#utility.yul\":310:405   */\n      swap4\n      pop\n        /* \"#utility.yul\":414:466   */\n      tag_62\n        /* \"#utility.yul\":459:465   */\n      dup2\n        /* \"#utility.yul\":454:457   */\n      dup6\n        /* \"#utility.yul\":447:451   */\n      0x20\n        /* \"#utility.yul\":440:445   */\n      dup7\n        /* \"#utility.yul\":436:452   */\n      add\n        /* \"#utility.yul\":414:466   */\n      tag_63\n      jump\t// in\n    tag_62:\n        /* \"#utility.yul\":491:497   */\n      dup1\n        /* \"#utility.yul\":486:489   */\n      dup5\n        /* \"#utility.yul\":482:498   */\n      add\n        /* \"#utility.yul\":475:498   */\n      swap2\n      pop\n        /* \"#utility.yul\":239:504   */\n      pop\n        /* \"#utility.yul\":131:504   */\n      swap3\n      swap2\n      pop\n      pop\n      jump\t// out\n        /* \"#utility.yul\":510:876   */\n    tag_64:\n        /* \"#utility.yul\":652:655   */\n      0x00\n        /* \"#utility.yul\":673:740   */\n      tag_66\n        /* \"#utility.yul\":737:739   */\n      0x2c\n        /* \"#utility.yul\":732:735   */\n      dup4\n        /* \"#utility.yul\":673:740   */\n      tag_67\n      jump\t// in\n    tag_66:\n        /* \"#utility.yul\":666:740   */\n      swap2\n      pop\n        /* \"#utility.yul\":749:842   */\n      tag_68\n        /* \"#utility.yul\":838:841   */\n      dup3\n        /* \"#utility.yul\":749:842   */\n      tag_69\n      jump\t// in\n    tag_68:\n        /* \"#utility.yul\":867:869   */\n      0x40\n        /* \"#utility.yul\":862:865   */\n      dup3\n        /* \"#utility.yul\":858:870   */\n      add\n        /* \"#utility.yul\":851:870   */\n      swap1\n      pop\n        /* \"#utility.yul\":510:876   */\n      swap2\n      swap1\n      pop\n      jump\t// out\n        /* \"#utility.yul\":882:1248   */\n    tag_70:\n        /* \"#utility.yul\":1024:1027   */\n      0x00\n        /* \"#utility.yul\":1045:1112   */\n      tag_72\n        /* \"#utility.yul\":1109:1111   */\n      0x19\n        /* \"#utility.yul\":1104:1107   */\n      dup4\n        /* \"#utility.yul\":1045:1112   */\n      tag_67\n      jump\t// in\n    tag_72:\n        /* \"#utility.yul\":1038:1112   */\n      swap2\n      pop\n        /* \"#utility.yul\":1121:1214   */\n      tag_73\n        /* \"#utility.yul\":1210:1213   */\n      dup3\n        /* \"#utility.yul\":1121:1214   */\n      tag_74\n      jump\t// in\n    tag_73:\n        /* \"#utility.yul\":1239:1241   */\n      0x20\n        /* \"#utility.yul\":1234:1237   */\n      dup3\n        /* \"#utility.yul\":1230:1242   */\n      add\n        /* \"#utility.yul\":1223:1242   */\n      swap1\n      pop\n        /* \"#utility.yul\":882:1248   */\n      swap2\n      swap1\n      pop\n      jump\t// out\n        /* \"#utility.yul\":1254:1620   */\n    tag_75:\n        /* \"#utility.yul\":1396:1399   */\n      0x00\n        /* \"#utility.yul\":1417:1484   */\n      tag_77\n        /* \"#utility.yul\":1481:1483   */\n      0x18\n        /* \"#utility.yul\":1476:1479   */\n      dup4\n        /* \"#utility.yul\":1417:1484   */\n      tag_67\n      jump\t// in\n    tag_77:\n        /* \"#utility.yul\":1410:1484   */\n      swap2\n      pop\n        /* \"#utility.yul\":1493:1586   */\n      tag_78\n        /* \"#utility.yul\":1582:1585   */\n      dup3\n        /* \"#utility.yul\":1493:1586   */\n      tag_79\n      jump\t// in\n    tag_78:\n        /* \"#utility.yul\":1611:1613   */\n      0x20\n        /* \"#utility.yul\":1606:1609   */\n      dup3\n        /* \"#utility.yul\":1602:1614   */\n      add\n        /* \"#utility.yul\":1595:1614   */\n      swap1\n      pop\n        /* \"#utility.yul\":1254:1620   */\n      swap2\n      swap1\n      pop\n      jump\t// out\n        /* \"#utility.yul\":1626:1744   */\n    tag_80:\n        /* \"#utility.yul\":1713:1737   */\n      tag_82\n        /* \"#utility.yul\":1731:1736   */\n      dup2\n        /* \"#utility.yul\":1713:1737   */\n      tag_83\n      jump\t// in\n    tag_82:\n        /* \"#utility.yul\":1708:1711   */\n      dup3\n        /* \"#utility.yul\":1701:1738   */\n      mstore\n        /* \"#utility.yul\":1626:1744   */\n      pop\n      pop\n      jump\t// out\n        /* \"#utility.yul\":1750:2021   */\n    tag_43:\n        /* \"#utility.yul\":1880:1883   */\n      0x00\n        /* \"#utility.yul\":1902:1995   */\n      tag_85\n        /* \"#utility.yul\":1991:1994   */\n      dup3\n        /* \"#utility.yul\":1982:1988   */\n      dup5\n        /* \"#utility.yul\":1902:1995   */\n      tag_56\n      jump\t// in\n    tag_85:\n        /* \"#utility.yul\":1895:1995   */\n      swap2\n      pop\n        /* \"#utility.yul\":2012:2015   */\n      dup2\n        /* \"#utility.yul\":2005:2015   */\n      swap1\n      pop\n        /* \"#utility.yul\":1750:2021   */\n      swap3\n      swap2\n      pop\n      pop\n      jump\t// out\n        /* \"#utility.yul\":2027:2249   */\n    tag_14:\n        /* \"#utility.yul\":2120:2124   */\n      0x00\n        /* \"#utility.yul\":2158:2160   */\n      0x20\n        /* \"#utility.yul\":2147:2156   */\n      dup3\n        /* \"#utility.yul\":2143:2161   */\n      add\n        /* \"#utility.yul\":2135:2161   */\n      swap1\n      pop\n        /* \"#utility.yul\":2171:2242   */\n      tag_87\n        /* \"#utility.yul\":2239:2240   */\n      0x00\n        /* \"#utility.yul\":2228:2237   */\n      dup4\n        /* \"#utility.yul\":2224:2241   */\n      add\n        /* \"#utility.yul\":2215:2221   */\n      dup5\n        /* \"#utility.yul\":2171:2242   */\n      tag_52\n      jump\t// in\n    tag_87:\n        /* \"#utility.yul\":2027:2249   */\n      swap3\n      swap2\n      pop\n      pop\n      jump\t// out\n        /* \"#utility.yul\":2255:2674   */\n    tag_49:\n        /* \"#utility.yul\":2421:2425   */\n      0x00\n        /* \"#utility.yul\":2459:2461   */\n      0x20\n        /* \"#utility.yul\":2448:2457   */\n      dup3\n        /* \"#utility.yul\":2444:2462   */\n      add\n        /* \"#utility.yul\":2436:2462   */\n      swap1\n      pop\n        /* \"#utility.yul\":2508:2517   */\n      dup2\n        /* \"#utility.yul\":2502:2506   */\n      dup2\n        /* \"#utility.yul\":2498:2518   */\n      sub\n        /* \"#utility.yul\":2494:2495   */\n      0x00\n        /* \"#utility.yul\":2483:2492   */\n      dup4\n        /* \"#utility.yul\":2479:2496   */\n      add\n        /* \"#utility.yul\":2472:2519   */\n      mstore\n        /* \"#utility.yul\":2536:2667   */\n      tag_89\n        /* \"#utility.yul\":2662:2666   */\n      dup2\n        /* \"#utility.yul\":2536:2667   */\n      tag_64\n      jump\t// in\n    tag_89:\n        /* \"#utility.yul\":2528:2667   */\n      swap1\n      pop\n        /* \"#utility.yul\":2255:2674   */\n      swap2\n      swap1\n      pop\n      jump\t// out\n        /* \"#utility.yul\":2680:3099   */\n    tag_35:\n        /* \"#utility.yul\":2846:2850   */\n      0x00\n        /* \"#utility.yul\":2884:2886   */\n      0x20\n        /* \"#utility.yul\":2873:2882   */\n      dup3\n        /* \"#utility.yul\":2869:2887   */\n      add\n        /* \"#utility.yul\":2861:2887   */\n      swap1\n      pop\n        /* \"#utility.yul\":2933:2942   */\n      dup2\n        /* \"#utility.yul\":2927:2931   */\n      dup2\n        /* \"#utility.yul\":2923:2943   */\n      sub\n        /* \"#utility.yul\":2919:2920   */\n      0x00\n        /* \"#utility.yul\":2908:2917   */\n      dup4\n        /* \"#utility.yul\":2904:2921   */\n      add\n        /* \"#utility.yul\":2897:2944   */\n      mstore\n        /* \"#utility.yul\":2961:3092   */\n      tag_91\n        /* \"#utility.yul\":3087:3091   */\n      dup2\n        /* \"#utility.yul\":2961:3092   */\n      tag_70\n      jump\t// in\n    tag_91:\n        /* \"#utility.yul\":2953:3092   */\n      swap1\n      pop\n        /* \"#utility.yul\":2680:3099   */\n      swap2\n      swap1\n      pop\n      jump\t// out\n        /* \"#utility.yul\":3105:3524   */\n    tag_38:\n        /* \"#utility.yul\":3271:3275   */\n      0x00\n        /* \"#utility.yul\":3309:3311   */\n      0x20\n        /* \"#utility.yul\":3298:3307   */\n      dup3\n        /* \"#utility.yul\":3294:3312   */\n      add\n        /* \"#utility.yul\":3286:3312   */\n      swap1\n      pop\n        /* \"#utility.yul\":3358:3367   */\n      dup2\n        /* \"#utility.yul\":3352:3356   */\n      dup2\n        /* \"#utility.yul\":3348:3368   */\n      sub\n        /* \"#utility.yul\":3344:3345   */\n      0x00\n        /* \"#utility.yul\":3333:3342   */\n      dup4\n        /* \"#utility.yul\":3329:3346   */\n      add\n        /* \"#utility.yul\":3322:3369   */\n      mstore\n        /* \"#utility.yul\":3386:3517   */\n      tag_93\n        /* \"#utility.yul\":3512:3516   */\n      dup2\n        /* \"#utility.yul\":3386:3517   */\n      tag_75\n      jump\t// in\n    tag_93:\n        /* \"#utility.yul\":3378:3517   */\n      swap1\n      pop\n        /* \"#utility.yul\":3105:3524   */\n      swap2\n      swap1\n      pop\n      jump\t// out\n        /* \"#utility.yul\":3530:3752   */\n    tag_19:\n        /* \"#utility.yul\":3623:3627   */\n      0x00\n        /* \"#utility.yul\":3661:3663   */\n      0x20\n        /* \"#utility.yul\":3650:3659   */\n      dup3\n        /* \"#utility.yul\":3646:3664   */\n      add\n        /* \"#utility.yul\":3638:3664   */\n      swap1\n      pop\n        /* \"#utility.yul\":3674:3745   */\n      tag_95\n        /* \"#utility.yul\":3742:3743   */\n      0x00\n        /* \"#utility.yul\":3731:3740   */\n      dup4\n        /* \"#utility.yul\":3727:3744   */\n      add\n        /* \"#utility.yul\":3718:3724   */\n      dup5\n        /* \"#utility.yul\":3674:3745   */\n      tag_80\n      jump\t// in\n    tag_95:\n        /* \"#utility.yul\":3530:3752   */\n      swap3\n      swap2\n      pop\n      pop\n      jump\t// out\n        /* \"#utility.yul\":3758:3856   */\n    tag_59:\n        /* \"#utility.yul\":3809:3815   */\n      0x00\n        /* \"#utility.yul\":3843:3848   */\n      dup2\n        /* \"#utility.yul\":3837:3849   */\n      mload\n        /* \"#utility.yul\":3827:3849   */\n      swap1\n      pop\n        /* \"#utility.yul\":3758:3856   */\n      swap2\n      swap1\n      pop\n      jump\t// out\n        /* \"#utility.yul\":3862:4009   */\n    tag_61:\n        /* \"#utility.yul\":3963:3974   */\n      0x00\n        /* \"#utility.yul\":4000:4003   */\n      dup2\n        /* \"#utility.yul\":3985:4003   */\n      swap1\n      pop\n        /* \"#utility.yul\":3862:4009   */\n      swap3\n      swap2\n      pop\n      pop\n      jump\t// out\n        /* \"#utility.yul\":4015:4184   */\n    tag_67:\n        /* \"#utility.yul\":4099:4110   */\n      0x00\n        /* \"#utility.yul\":4133:4139   */\n      dup3\n        /* \"#utility.yul\":4128:4131   */\n      dup3\n        /* \"#utility.yul\":4121:4140   */\n      mstore\n        /* \"#utility.yul\":4173:4177   */\n      0x20\n        /* \"#utility.yul\":4168:4171   */\n      dup3\n        /* \"#utility.yul\":4164:4178   */\n      add\n        /* \"#utility.yul\":4149:4178   */\n      swap1\n      pop\n        /* \"#utility.yul\":4015:4184   */\n      swap3\n      swap2\n      pop\n      pop\n      jump\t// out\n        /* \"#utility.yul\":4190:4495   */\n    tag_40:\n        /* \"#utility.yul\":4230:4233   */\n      0x00\n        /* \"#utility.yul\":4249:4269   */\n      tag_100\n        /* \"#utility.yul\":4267:4268   */\n      dup3\n        /* \"#utility.yul\":4249:4269   */\n      tag_83\n      jump\t// in\n    tag_100:\n        /* \"#utility.yul\":4244:4269   */\n      swap2\n      pop\n        /* \"#utility.yul\":4283:4303   */\n      tag_101\n        /* \"#utility.yul\":4301:4302   */\n      dup4\n        /* \"#utility.yul\":4283:4303   */\n      tag_83\n      jump\t// in\n    tag_101:\n        /* \"#utility.yul\":4278:4303   */\n      swap3\n      pop\n        /* \"#utility.yul\":4437:4438   */\n      dup3\n        /* \"#utility.yul\":4369:4435   */\n      0xffffffffffffffffffffffffffffffffffffffffffffffffffffffffffffffff\n        /* \"#utility.yul\":4365:4439   */\n      sub\n        /* \"#utility.yul\":4362:4363   */\n      dup3\n        /* \"#utility.yul\":4359:4440   */\n      gt\n        /* \"#utility.yul\":4356:4463   */\n      iszero\n      tag_102\n      jumpi\n        /* \"#utility.yul\":4443:4461   */\n      tag_103\n      tag_104\n      jump\t// in\n    tag_103:\n        /* \"#utility.yul\":4356:4463   */\n    tag_102:\n        /* \"#utility.yul\":4487:4488   */\n      dup3\n        /* \"#utility.yul\":4484:4485   */\n      dup3\n        /* \"#utility.yul\":4480:4489   */\n      add\n        /* \"#utility.yul\":4473:4489   */\n      swap1\n      pop\n        /* \"#utility.yul\":4190:4495   */\n      swap3\n      swap2\n      pop\n      pop\n      jump\t// out\n        /* \"#utility.yul\":4501:4597   */\n    tag_55:\n        /* \"#utility.yul\":4538:4545   */\n      0x00\n        /* \"#utility.yul\":4567:4591   */\n      tag_106\n        /* \"#utility.yul\":4585:4590   */\n      dup3\n        /* \"#utility.yul\":4567:4591   */\n      tag_107\n      jump\t// in\n    tag_106:\n        /* \"#utility.yul\":4556:4591   */\n      swap1\n      pop\n        /* \"#utility.yul\":4501:4597   */\n      swap2\n      swap1\n      pop\n      jump\t// out\n        /* \"#utility.yul\":4603:4729   */\n    tag_107:\n        /* \"#utility.yul\":4640:4647   */\n      0x00\n        /* \"#utility.yul\":4680:4722   */\n      0xffffffffffffffffffffffffffffffffffffffff\n        /* \"#utility.yul\":4673:4678   */\n      dup3\n        /* \"#utility.yul\":4669:4723   */\n      and\n        /* \"#utility.yul\":4658:4723   */\n      swap1\n      pop\n        /* \"#utility.yul\":4603:4729   */\n      swap2\n      swap1\n      pop\n      jump\t// out\n        /* \"#utility.yul\":4735:4812   */\n    tag_83:\n        /* \"#utility.yul\":4772:4779   */\n      0x00\n        /* \"#utility.yul\":4801:4806   */\n      dup2\n        /* \"#utility.yul\":4790:4806   */\n      swap1\n      pop\n        /* \"#utility.yul\":4735:4812   */\n      swap2\n      swap1\n      pop\n      jump\t// out\n        /* \"#utility.yul\":4818:5125   */\n    tag_63:\n        /* \"#utility.yul\":4886:4887   */\n      0x00\n        /* \"#utility.yul\":4896:5009   */\n    tag_111:\n        /* \"#utility.yul\":4910:4916   */\n      dup4\n        /* \"#utility.yul\":4907:4908   */\n      dup2\n        /* \"#utility.yul\":4904:4917   */\n      lt\n        /* \"#utility.yul\":4896:5009   */\n      iszero\n      tag_113\n      jumpi\n        /* \"#utility.yul\":4995:4996   */\n      dup1\n        /* \"#utility.yul\":4990:4993   */\n      dup3\n        /* \"#utility.yul\":4986:4997   */\n      add\n        /* \"#utility.yul\":4980:4998   */\n      mload\n        /* \"#utility.yul\":4976:4977   */\n      dup2\n        /* \"#utility.yul\":4971:4974   */\n      dup5\n        /* \"#utility.yul\":4967:4978   */\n      add\n        /* \"#utility.yul\":4960:4999   */\n      mstore\n        /* \"#utility.yul\":4932:4934   */\n      0x20\n        /* \"#utility.yul\":4929:4930   */\n      dup2\n        /* \"#utility.yul\":4925:4935   */\n      add\n        /* \"#utility.yul\":4920:4935   */\n      swap1\n      pop\n        /* \"#utility.yul\":4896:5009   */\n      jump(tag_111)\n    tag_113:\n        /* \"#utility.yul\":5027:5033   */\n      dup4\n        /* \"#utility.yul\":5024:5025   */\n      dup2\n        /* \"#utility.yul\":5021:5034   */\n      gt\n        /* \"#utility.yul\":5018:5119   */\n      iszero\n      tag_114\n      jumpi\n        /* \"#utility.yul\":5107:5108   */\n      0x00\n        /* \"#utility.yul\":5098:5104   */\n      dup5\n        /* \"#utility.yul\":5093:5096   */\n      dup5\n        /* \"#utility.yul\":5089:5105   */\n      add\n        /* \"#utility.yul\":5082:5109   */\n      mstore\n        /* \"#utility.yul\":5018:5119   */\n    tag_114:\n        /* \"#utility.yul\":4867:5125   */\n      pop\n        /* \"#utility.yul\":4818:5125   */\n      pop\n      pop\n      pop\n      jump\t// out\n        /* \"#utility.yul\":5131:5311   */\n    tag_104:\n        /* \"#utility.yul\":5179:5256   */\n      0x4e487b7100000000000000000000000000000000000000000000000000000000\n        /* \"#utility.yul\":5176:5177   */\n      0x00\n        /* \"#utility.yul\":5169:5257   */\n      mstore\n        /* \"#utility.yul\":5276:5280   */\n      0x11\n        /* \"#utility.yul\":5273:5274   */\n      0x04\n        /* \"#utility.yul\":5266:5281   */\n      mstore\n        /* \"#utility.yul\":5300:5304   */\n      0x24\n        /* \"#utility.yul\":5297:5298   */\n      0x00\n        /* \"#utility.yul\":5290:5305   */\n      revert\n        /* \"#utility.yul\":5317:5548   */\n    tag_69:\n        /* \"#utility.yul\":5457:5491   */\n      0x5472616e73616374696f6e20756e7375636365737366756c2c2063616e63656c\n        /* \"#utility.yul\":5453:5454   */\n      0x00\n        /* \"#utility.yul\":5445:5451   */\n      dup3\n        /* \"#utility.yul\":5441:5455   */\n      add\n        /* \"#utility.yul\":5434:5492   */\n      mstore\n        /* \"#utility.yul\":5526:5540   */\n      0x6c696e67207061796d656e740000000000000000000000000000000000000000\n        /* \"#utility.yul\":5521:5523   */\n      0x20\n        /* \"#utility.yul\":5513:5519   */\n      dup3\n        /* \"#utility.yul\":5509:5524   */\n      add\n        /* \"#utility.yul\":5502:5541   */\n      mstore\n        /* \"#utility.yul\":5317:5548   */\n      pop\n      jump\t// out\n        /* \"#utility.yul\":5554:5729   */\n    tag_74:\n        /* \"#utility.yul\":5694:5721   */\n      0x4974656d206973207061696420666f7220616c72656164792e00000000000000\n        /* \"#utility.yul\":5690:5691   */\n      0x00\n        /* \"#utility.yul\":5682:5688   */\n      dup3\n        /* \"#utility.yul\":5678:5692   */\n      add\n        /* \"#utility.yul\":5671:5722   */\n      mstore\n        /* \"#utility.yul\":5554:5729   */\n      pop\n      jump\t// out\n        /* \"#utility.yul\":5735:5909   */\n    tag_79:\n        /* \"#utility.yul\":5875:5901   */\n      0x506c656173652070617920657861637420616d6f756e742e0000000000000000\n        /* \"#utility.yul\":5871:5872   */\n      0x00\n        /* \"#utility.yul\":5863:5869   */\n      dup3\n        /* \"#utility.yul\":5859:5873   */\n      add\n        /* \"#utility.yul\":5852:5902   */\n      mstore\n        /* \"#utility.yul\":5735:5909   */\n      pop\n      jump\t// out\n\n    auxdata: 0xa26469706673582212207f1baf7bb5d2f0ed30b93c645a002261ec5f83d4f0f4d677edea66ad04381ef264736f6c63430008070033\n}\n",
				"bytecode": {
					"linkReferences": {},
					"object": "608060405234801561001057600080fd5b506040516109393803806109398339818101604052810190610032919061012c565b600460009054906101000a900473ffffffffffffffffffffffffffffffffffffffff16600460006101000a81548173ffffffffffffffffffffffffffffffffffffffff021916908373ffffffffffffffffffffffffffffffffffffffff160217905550826000819055508160028190555080600360006101000a81548173ffffffffffffffffffffffffffffffffffffffff021916908373ffffffffffffffffffffffffffffffffffffffff1602179055505050505061022b565b6000815190506100fc816101e6565b92915050565b600081519050610111816101fd565b92915050565b60008151905061012681610214565b92915050565b60008060008060808587031215610146576101456101e1565b5b600061015487828801610102565b945050602061016587828801610117565b935050604061017687828801610117565b9250506060610187878288016100ed565b91505092959194509250565b600061019e826101b7565b9050919050565b60006101b082610193565b9050919050565b600073ffffffffffffffffffffffffffffffffffffffff82169050919050565b6000819050919050565b600080fd5b6101ef81610193565b81146101fa57600080fd5b50565b610206816101a5565b811461021157600080fd5b50565b61021d816101d7565b811461022857600080fd5b50565b6106ff8061023a6000396000f3fe6080604052600436106100555760003560e01c80631b9265b81461005a578063767800de1461006457806389794d001461008f578063c7286b20146100ba578063c784a6e6146100e5578063e07bb1a714610110575b600080fd5b61006261013b565b005b34801561007057600080fd5b50610079610346565b6040516100869190610477565b60405180910390f35b34801561009b57600080fd5b506100a461036c565b6040516100b191906104f2565b60405180910390f35b3480156100c657600080fd5b506100cf610372565b6040516100dc9190610477565b60405180910390f35b3480156100f157600080fd5b506100fa61039c565b60405161010791906104f2565b60405180910390f35b34801561011c57600080fd5b506101256103a2565b60405161013291906104f2565b60405180910390f35b600060015414610180576040517f08c379a0000000000000000000000000000000000000000000000000000000008152600401610177906104b2565b60405180910390fd5b34600054146101c4576040517f08c379a00000000000000000000000000000000000000000000000000000000081526004016101bb906104d2565b60405180910390fd5b34600160008282546101d69190610534565b925050819055506000600360009054906101000a900473ffffffffffffffffffffffffffffffffffffffff1673ffffffffffffffffffffffffffffffffffffffff16346304c4b4009060025460405160240161023291906104f2565b6040516020818303038152906040527f800fb83f000000000000000000000000000000000000000000000000000000007bffffffffffffffffffffffffffffffffffffffffffffffffffffffff19166020820180517bffffffffffffffffffffffffffffffffffffffffffffffffffffffff83818316178352505050506040516102bc9190610460565b600060405180830381858888f193505050503d80600081146102fa576040519150601f19603f3d011682016040523d82523d6000602084013e6102ff565b606091505b5050905080610343576040517f08c379a000000000000000000000000000000000000000000000000000000000815260040161033a90610492565b60405180910390fd5b50565b600360009054906101000a900473ffffffffffffffffffffffffffffffffffffffff1681565b60015481565b6000600460009054906101000a900473ffffffffffffffffffffffffffffffffffffffff16905090565b60005481565b60025481565b6103b18161058a565b82525050565b60006103c28261050d565b6103cc8185610518565b93506103dc8185602086016105c6565b80840191505092915050565b60006103f5602c83610523565b915061040082610628565b604082019050919050565b6000610418601983610523565b915061042382610677565b602082019050919050565b600061043b601883610523565b9150610446826106a0565b602082019050919050565b61045a816105bc565b82525050565b600061046c82846103b7565b915081905092915050565b600060208201905061048c60008301846103a8565b92915050565b600060208201905081810360008301526104ab816103e8565b9050919050565b600060208201905081810360008301526104cb8161040b565b9050919050565b600060208201905081810360008301526104eb8161042e565b9050919050565b60006020820190506105076000830184610451565b92915050565b600081519050919050565b600081905092915050565b600082825260208201905092915050565b600061053f826105bc565b915061054a836105bc565b9250827fffffffffffffffffffffffffffffffffffffffffffffffffffffffffffffffff0382111561057f5761057e6105f9565b5b828201905092915050565b60006105958261059c565b9050919050565b600073ffffffffffffffffffffffffffffffffffffffff82169050919050565b6000819050919050565b60005b838110156105e45780820151818401526020810190506105c9565b838111156105f3576000848401525b50505050565b7f4e487b7100000000000000000000000000000000000000000000000000000000600052601160045260246000fd5b7f5472616e73616374696f6e20756e7375636365737366756c2c2063616e63656c60008201527f6c696e67207061796d656e740000000000000000000000000000000000000000602082015250565b7f4974656d206973207061696420666f7220616c72656164792e00000000000000600082015250565b7f506c656173652070617920657861637420616d6f756e742e000000000000000060008201525056fea26469706673582212207f1baf7bb5d2f0ed30b93c645a002261ec5f83d4f0f4d677edea66ad04381ef264736f6c63430008070033",
					"opcodes": "PUSH1 0x80 PUSH1 0x40 MSTORE CALLVALUE DUP1 ISZERO PUSH2 0x10 JUMPI PUSH1 0x0 DUP1 REVERT JUMPDEST POP PUSH1 0x40 MLOAD PUSH2 0x939 CODESIZE SUB DUP1 PUSH2 0x939 DUP4 CODECOPY DUP2 DUP2 ADD PUSH1 0x40 MSTORE DUP2 ADD SWAP1 PUSH2 0x32 SWAP2 SWAP1 PUSH2 0x12C JUMP JUMPDEST PUSH1 0x4 PUSH1 0x0 SWAP1 SLOAD SWAP1 PUSH2 0x100 EXP SWAP1 DIV PUSH20 0xFFFFFFFFFFFFFFFFFFFFFFFFFFFFFFFFFFFFFFFF AND PUSH1 0x4 PUSH1 0x0 PUSH2 0x100 EXP DUP2 SLOAD DUP2 PUSH20 0xFFFFFFFFFFFFFFFFFFFFFFFFFFFFFFFFFFFFFFFF MUL NOT AND SWAP1 DUP4 PUSH20 0xFFFFFFFFFFFFFFFFFFFFFFFFFFFFFFFFFFFFFFFF AND MUL OR SWAP1 SSTORE POP DUP3 PUSH1 0x0 DUP2 SWAP1 SSTORE POP DUP2 PUSH1 0x2 DUP2 SWAP1 SSTORE POP DUP1 PUSH1 0x3 PUSH1 0x0 PUSH2 0x100 EXP DUP2 SLOAD DUP2 PUSH20 0xFFFFFFFFFFFFFFFFFFFFFFFFFFFFFFFFFFFFFFFF MUL NOT AND SWAP1 DUP4 PUSH20 0xFFFFFFFFFFFFFFFFFFFFFFFFFFFFFFFFFFFFFFFF AND MUL OR SWAP1 SSTORE POP POP POP POP POP PUSH2 0x22B JUMP JUMPDEST PUSH1 0x0 DUP2 MLOAD SWAP1 POP PUSH2 0xFC DUP2 PUSH2 0x1E6 JUMP JUMPDEST SWAP3 SWAP2 POP POP JUMP JUMPDEST PUSH1 0x0 DUP2 MLOAD SWAP1 POP PUSH2 0x111 DUP2 PUSH2 0x1FD JUMP JUMPDEST SWAP3 SWAP2 POP POP JUMP JUMPDEST PUSH1 0x0 DUP2 MLOAD SWAP1 POP PUSH2 0x126 DUP2 PUSH2 0x214 JUMP JUMPDEST SWAP3 SWAP2 POP POP JUMP JUMPDEST PUSH1 0x0 DUP1 PUSH1 0x0 DUP1 PUSH1 0x80 DUP6 DUP8 SUB SLT ISZERO PUSH2 0x146 JUMPI PUSH2 0x145 PUSH2 0x1E1 JUMP JUMPDEST JUMPDEST PUSH1 0x0 PUSH2 0x154 DUP8 DUP3 DUP9 ADD PUSH2 0x102 JUMP JUMPDEST SWAP5 POP POP PUSH1 0x20 PUSH2 0x165 DUP8 DUP3 DUP9 ADD PUSH2 0x117 JUMP JUMPDEST SWAP4 POP POP PUSH1 0x40 PUSH2 0x176 DUP8 DUP3 DUP9 ADD PUSH2 0x117 JUMP JUMPDEST SWAP3 POP POP PUSH1 0x60 PUSH2 0x187 DUP8 DUP3 DUP9 ADD PUSH2 0xED JUMP JUMPDEST SWAP2 POP POP SWAP3 SWAP6 SWAP2 SWAP5 POP SWAP3 POP JUMP JUMPDEST PUSH1 0x0 PUSH2 0x19E DUP3 PUSH2 0x1B7 JUMP JUMPDEST SWAP1 POP SWAP2 SWAP1 POP JUMP JUMPDEST PUSH1 0x0 PUSH2 0x1B0 DUP3 PUSH2 0x193 JUMP JUMPDEST SWAP1 POP SWAP2 SWAP1 POP JUMP JUMPDEST PUSH1 0x0 PUSH20 0xFFFFFFFFFFFFFFFFFFFFFFFFFFFFFFFFFFFFFFFF DUP3 AND SWAP1 POP SWAP2 SWAP1 POP JUMP JUMPDEST PUSH1 0x0 DUP2 SWAP1 POP SWAP2 SWAP1 POP JUMP JUMPDEST PUSH1 0x0 DUP1 REVERT JUMPDEST PUSH2 0x1EF DUP2 PUSH2 0x193 JUMP JUMPDEST DUP2 EQ PUSH2 0x1FA JUMPI PUSH1 0x0 DUP1 REVERT JUMPDEST POP JUMP JUMPDEST PUSH2 0x206 DUP2 PUSH2 0x1A5 JUMP JUMPDEST DUP2 EQ PUSH2 0x211 JUMPI PUSH1 0x0 DUP1 REVERT JUMPDEST POP JUMP JUMPDEST PUSH2 0x21D DUP2 PUSH2 0x1D7 JUMP JUMPDEST DUP2 EQ PUSH2 0x228 JUMPI PUSH1 0x0 DUP1 REVERT JUMPDEST POP JUMP JUMPDEST PUSH2 0x6FF DUP1 PUSH2 0x23A PUSH1 0x0 CODECOPY PUSH1 0x0 RETURN INVALID PUSH1 0x80 PUSH1 0x40 MSTORE PUSH1 0x4 CALLDATASIZE LT PUSH2 0x55 JUMPI PUSH1 0x0 CALLDATALOAD PUSH1 0xE0 SHR DUP1 PUSH4 0x1B9265B8 EQ PUSH2 0x5A JUMPI DUP1 PUSH4 0x767800DE EQ PUSH2 0x64 JUMPI DUP1 PUSH4 0x89794D00 EQ PUSH2 0x8F JUMPI DUP1 PUSH4 0xC7286B20 EQ PUSH2 0xBA JUMPI DUP1 PUSH4 0xC784A6E6 EQ PUSH2 0xE5 JUMPI DUP1 PUSH4 0xE07BB1A7 EQ PUSH2 0x110 JUMPI JUMPDEST PUSH1 0x0 DUP1 REVERT JUMPDEST PUSH2 0x62 PUSH2 0x13B JUMP JUMPDEST STOP JUMPDEST CALLVALUE DUP1 ISZERO PUSH2 0x70 JUMPI PUSH1 0x0 DUP1 REVERT JUMPDEST POP PUSH2 0x79 PUSH2 0x346 JUMP JUMPDEST PUSH1 0x40 MLOAD PUSH2 0x86 SWAP2 SWAP1 PUSH2 0x477 JUMP JUMPDEST PUSH1 0x40 MLOAD DUP1 SWAP2 SUB SWAP1 RETURN JUMPDEST CALLVALUE DUP1 ISZERO PUSH2 0x9B JUMPI PUSH1 0x0 DUP1 REVERT JUMPDEST POP PUSH2 0xA4 PUSH2 0x36C JUMP JUMPDEST PUSH1 0x40 MLOAD PUSH2 0xB1 SWAP2 SWAP1 PUSH2 0x4F2 JUMP JUMPDEST PUSH1 0x40 MLOAD DUP1 SWAP2 SUB SWAP1 RETURN JUMPDEST CALLVALUE DUP1 ISZERO PUSH2 0xC6 JUMPI PUSH1 0x0 DUP1 REVERT JUMPDEST POP PUSH2 0xCF PUSH2 0x372 JUMP JUMPDEST PUSH1 0x40 MLOAD PUSH2 0xDC SWAP2 SWAP1 PUSH2 0x477 JUMP JUMPDEST PUSH1 0x40 MLOAD DUP1 SWAP2 SUB SWAP1 RETURN JUMPDEST CALLVALUE DUP1 ISZERO PUSH2 0xF1 JUMPI PUSH1 0x0 DUP1 REVERT JUMPDEST POP PUSH2 0xFA PUSH2 0x39C JUMP JUMPDEST PUSH1 0x40 MLOAD PUSH2 0x107 SWAP2 SWAP1 PUSH2 0x4F2 JUMP JUMPDEST PUSH1 0x40 MLOAD DUP1 SWAP2 SUB SWAP1 RETURN JUMPDEST CALLVALUE DUP1 ISZERO PUSH2 0x11C JUMPI PUSH1 0x0 DUP1 REVERT JUMPDEST POP PUSH2 0x125 PUSH2 0x3A2 JUMP JUMPDEST PUSH1 0x40 MLOAD PUSH2 0x132 SWAP2 SWAP1 PUSH2 0x4F2 JUMP JUMPDEST PUSH1 0x40 MLOAD DUP1 SWAP2 SUB SWAP1 RETURN JUMPDEST PUSH1 0x0 PUSH1 0x1 SLOAD EQ PUSH2 0x180 JUMPI PUSH1 0x40 MLOAD PUSH32 0x8C379A000000000000000000000000000000000000000000000000000000000 DUP2 MSTORE PUSH1 0x4 ADD PUSH2 0x177 SWAP1 PUSH2 0x4B2 JUMP JUMPDEST PUSH1 0x40 MLOAD DUP1 SWAP2 SUB SWAP1 REVERT JUMPDEST CALLVALUE PUSH1 0x0 SLOAD EQ PUSH2 0x1C4 JUMPI PUSH1 0x40 MLOAD PUSH32 0x8C379A000000000000000000000000000000000000000000000000000000000 DUP2 MSTORE PUSH1 0x4 ADD PUSH2 0x1BB SWAP1 PUSH2 0x4D2 JUMP JUMPDEST PUSH1 0x40 MLOAD DUP1 SWAP2 SUB SWAP1 REVERT JUMPDEST CALLVALUE PUSH1 0x1 PUSH1 0x0 DUP3 DUP3 SLOAD PUSH2 0x1D6 SWAP2 SWAP1 PUSH2 0x534 JUMP JUMPDEST SWAP3 POP POP DUP2 SWAP1 SSTORE POP PUSH1 0x0 PUSH1 0x3 PUSH1 0x0 SWAP1 SLOAD SWAP1 PUSH2 0x100 EXP SWAP1 DIV PUSH20 0xFFFFFFFFFFFFFFFFFFFFFFFFFFFFFFFFFFFFFFFF AND PUSH20 0xFFFFFFFFFFFFFFFFFFFFFFFFFFFFFFFFFFFFFFFF AND CALLVALUE PUSH4 0x4C4B400 SWAP1 PUSH1 0x2 SLOAD PUSH1 0x40 MLOAD PUSH1 0x24 ADD PUSH2 0x232 SWAP2 SWAP1 PUSH2 0x4F2 JUMP JUMPDEST PUSH1 0x40 MLOAD PUSH1 0x20 DUP2 DUP4 SUB SUB DUP2 MSTORE SWAP1 PUSH1 0x40 MSTORE PUSH32 0x800FB83F00000000000000000000000000000000000000000000000000000000 PUSH28 0xFFFFFFFFFFFFFFFFFFFFFFFFFFFFFFFFFFFFFFFFFFFFFFFFFFFFFFFF NOT AND PUSH1 0x20 DUP3 ADD DUP1 MLOAD PUSH28 0xFFFFFFFFFFFFFFFFFFFFFFFFFFFFFFFFFFFFFFFFFFFFFFFFFFFFFFFF DUP4 DUP2 DUP4 AND OR DUP4 MSTORE POP POP POP POP PUSH1 0x40 MLOAD PUSH2 0x2BC SWAP2 SWAP1 PUSH2 0x460 JUMP JUMPDEST PUSH1 0x0 PUSH1 0x40 MLOAD DUP1 DUP4 SUB DUP2 DUP6 DUP9 DUP9 CALL SWAP4 POP POP POP POP RETURNDATASIZE DUP1 PUSH1 0x0 DUP2 EQ PUSH2 0x2FA JUMPI PUSH1 0x40 MLOAD SWAP2 POP PUSH1 0x1F NOT PUSH1 0x3F RETURNDATASIZE ADD AND DUP3 ADD PUSH1 0x40 MSTORE RETURNDATASIZE DUP3 MSTORE RETURNDATASIZE PUSH1 0x0 PUSH1 0x20 DUP5 ADD RETURNDATACOPY PUSH2 0x2FF JUMP JUMPDEST PUSH1 0x60 SWAP2 POP JUMPDEST POP POP SWAP1 POP DUP1 PUSH2 0x343 JUMPI PUSH1 0x40 MLOAD PUSH32 0x8C379A000000000000000000000000000000000000000000000000000000000 DUP2 MSTORE PUSH1 0x4 ADD PUSH2 0x33A SWAP1 PUSH2 0x492 JUMP JUMPDEST PUSH1 0x40 MLOAD DUP1 SWAP2 SUB SWAP1 REVERT JUMPDEST POP JUMP JUMPDEST PUSH1 0x3 PUSH1 0x0 SWAP1 SLOAD SWAP1 PUSH2 0x100 EXP SWAP1 DIV PUSH20 0xFFFFFFFFFFFFFFFFFFFFFFFFFFFFFFFFFFFFFFFF AND DUP2 JUMP JUMPDEST PUSH1 0x1 SLOAD DUP2 JUMP JUMPDEST PUSH1 0x0 PUSH1 0x4 PUSH1 0x0 SWAP1 SLOAD SWAP1 PUSH2 0x100 EXP SWAP1 DIV PUSH20 0xFFFFFFFFFFFFFFFFFFFFFFFFFFFFFFFFFFFFFFFF AND SWAP1 POP SWAP1 JUMP JUMPDEST PUSH1 0x0 SLOAD DUP2 JUMP JUMPDEST PUSH1 0x2 SLOAD DUP2 JUMP JUMPDEST PUSH2 0x3B1 DUP2 PUSH2 0x58A JUMP JUMPDEST DUP3 MSTORE POP POP JUMP JUMPDEST PUSH1 0x0 PUSH2 0x3C2 DUP3 PUSH2 0x50D JUMP JUMPDEST PUSH2 0x3CC DUP2 DUP6 PUSH2 0x518 JUMP JUMPDEST SWAP4 POP PUSH2 0x3DC DUP2 DUP6 PUSH1 0x20 DUP7 ADD PUSH2 0x5C6 JUMP JUMPDEST DUP1 DUP5 ADD SWAP2 POP POP SWAP3 SWAP2 POP POP JUMP JUMPDEST PUSH1 0x0 PUSH2 0x3F5 PUSH1 0x2C DUP4 PUSH2 0x523 JUMP JUMPDEST SWAP2 POP PUSH2 0x400 DUP3 PUSH2 0x628 JUMP JUMPDEST PUSH1 0x40 DUP3 ADD SWAP1 POP SWAP2 SWAP1 POP JUMP JUMPDEST PUSH1 0x0 PUSH2 0x418 PUSH1 0x19 DUP4 PUSH2 0x523 JUMP JUMPDEST SWAP2 POP PUSH2 0x423 DUP3 PUSH2 0x677 JUMP JUMPDEST PUSH1 0x20 DUP3 ADD SWAP1 POP SWAP2 SWAP1 POP JUMP JUMPDEST PUSH1 0x0 PUSH2 0x43B PUSH1 0x18 DUP4 PUSH2 0x523 JUMP JUMPDEST SWAP2 POP PUSH2 0x446 DUP3 PUSH2 0x6A0 JUMP JUMPDEST PUSH1 0x20 DUP3 ADD SWAP1 POP SWAP2 SWAP1 POP JUMP JUMPDEST PUSH2 0x45A DUP2 PUSH2 0x5BC JUMP JUMPDEST DUP3 MSTORE POP POP JUMP JUMPDEST PUSH1 0x0 PUSH2 0x46C DUP3 DUP5 PUSH2 0x3B7 JUMP JUMPDEST SWAP2 POP DUP2 SWAP1 POP SWAP3 SWAP2 POP POP JUMP JUMPDEST PUSH1 0x0 PUSH1 0x20 DUP3 ADD SWAP1 POP PUSH2 0x48C PUSH1 0x0 DUP4 ADD DUP5 PUSH2 0x3A8 JUMP JUMPDEST SWAP3 SWAP2 POP POP JUMP JUMPDEST PUSH1 0x0 PUSH1 0x20 DUP3 ADD SWAP1 POP DUP2 DUP2 SUB PUSH1 0x0 DUP4 ADD MSTORE PUSH2 0x4AB DUP2 PUSH2 0x3E8 JUMP JUMPDEST SWAP1 POP SWAP2 SWAP1 POP JUMP JUMPDEST PUSH1 0x0 PUSH1 0x20 DUP3 ADD SWAP1 POP DUP2 DUP2 SUB PUSH1 0x0 DUP4 ADD MSTORE PUSH2 0x4CB DUP2 PUSH2 0x40B JUMP JUMPDEST SWAP1 POP SWAP2 SWAP1 POP JUMP JUMPDEST PUSH1 0x0 PUSH1 0x20 DUP3 ADD SWAP1 POP DUP2 DUP2 SUB PUSH1 0x0 DUP4 ADD MSTORE PUSH2 0x4EB DUP2 PUSH2 0x42E JUMP JUMPDEST SWAP1 POP SWAP2 SWAP1 POP JUMP JUMPDEST PUSH1 0x0 PUSH1 0x20 DUP3 ADD SWAP1 POP PUSH2 0x507 PUSH1 0x0 DUP4 ADD DUP5 PUSH2 0x451 JUMP JUMPDEST SWAP3 SWAP2 POP POP JUMP JUMPDEST PUSH1 0x0 DUP2 MLOAD SWAP1 POP SWAP2 SWAP1 POP JUMP JUMPDEST PUSH1 0x0 DUP2 SWAP1 POP SWAP3 SWAP2 POP POP JUMP JUMPDEST PUSH1 0x0 DUP3 DUP3 MSTORE PUSH1 0x20 DUP3 ADD SWAP1 POP SWAP3 SWAP2 POP POP JUMP JUMPDEST PUSH1 0x0 PUSH2 0x53F DUP3 PUSH2 0x5BC JUMP JUMPDEST SWAP2 POP PUSH2 0x54A DUP4 PUSH2 0x5BC JUMP JUMPDEST SWAP3 POP DUP3 PUSH32 0xFFFFFFFFFFFFFFFFFFFFFFFFFFFFFFFFFFFFFFFFFFFFFFFFFFFFFFFFFFFFFFFF SUB DUP3 GT ISZERO PUSH2 0x57F JUMPI PUSH2 0x57E PUSH2 0x5F9 JUMP JUMPDEST JUMPDEST DUP3 DUP3 ADD SWAP1 POP SWAP3 SWAP2 POP POP JUMP JUMPDEST PUSH1 0x0 PUSH2 0x595 DUP3 PUSH2 0x59C JUMP JUMPDEST SWAP1 POP SWAP2 SWAP1 POP JUMP JUMPDEST PUSH1 0x0 PUSH20 0xFFFFFFFFFFFFFFFFFFFFFFFFFFFFFFFFFFFFFFFF DUP3 AND SWAP1 POP SWAP2 SWAP1 POP JUMP JUMPDEST PUSH1 0x0 DUP2 SWAP1 POP SWAP2 SWAP1 POP JUMP JUMPDEST PUSH1 0x0 JUMPDEST DUP4 DUP2 LT ISZERO PUSH2 0x5E4 JUMPI DUP1 DUP3 ADD MLOAD DUP2 DUP5 ADD MSTORE PUSH1 0x20 DUP2 ADD SWAP1 POP PUSH2 0x5C9 JUMP JUMPDEST DUP4 DUP2 GT ISZERO PUSH2 0x5F3 JUMPI PUSH1 0x0 DUP5 DUP5 ADD MSTORE JUMPDEST POP POP POP POP JUMP JUMPDEST PUSH32 0x4E487B7100000000000000000000000000000000000000000000000000000000 PUSH1 0x0 MSTORE PUSH1 0x11 PUSH1 0x4 MSTORE PUSH1 0x24 PUSH1 0x0 REVERT JUMPDEST PUSH32 0x5472616E73616374696F6E20756E7375636365737366756C2C2063616E63656C PUSH1 0x0 DUP3 ADD MSTORE PUSH32 0x6C696E67207061796D656E740000000000000000000000000000000000000000 PUSH1 0x20 DUP3 ADD MSTORE POP JUMP JUMPDEST PUSH32 0x4974656D206973207061696420666F7220616C72656164792E00000000000000 PUSH1 0x0 DUP3 ADD MSTORE POP JUMP JUMPDEST PUSH32 0x506C656173652070617920657861637420616D6F756E742E0000000000000000 PUSH1 0x0 DUP3 ADD MSTORE POP JUMP INVALID LOG2 PUSH5 0x6970667358 0x22 SLT KECCAK256 PUSH32 0x1BAF7BB5D2F0ED30B93C645A002261EC5F83D4F0F4D677EDEA66AD04381EF264 PUSH20 0x6F6C634300080700330000000000000000000000 "
				},
				"gasEstimates": {
					"creation": {
						"codeDepositCost": "358200",
						"executionCost": "infinite",
						"totalCost": "infinite"
					},
					"external": {
						"addr()": "2514",
						"conAddress()": "2566",
						"itemIndex()": "2517",
						"itemPriceInWei()": "2495",
						"pay()": "infinite",
						"pricePaid()": "2451"
					}
				},
				"methodIdentifiers": {
					"addr()": "767800de",
					"conAddress()": "c7286b20",
					"itemIndex()": "e07bb1a7",
					"itemPriceInWei()": "c784a6e6",
					"pay()": "1b9265b8",
					"pricePaid()": "89794d00"
				}
			},
			"userdoc": {
				"kind": "user",
				"methods": {},
				"version": 1
			}
		}
	}
}