{
	"contracts/eventtrigger.sol": {
		"ItemManager": {
			"abi": [
				{
					"inputs": [
						{
							"internalType": "string",
							"name": "_identifier",
							"type": "string"
						},
						{
							"internalType": "uint256",
							"name": "_itemPrice",
							"type": "uint256"
						}
					],
					"name": "createItem",
					"outputs": [],
					"stateMutability": "nonpayable",
					"type": "function"
				},
				{
					"inputs": [
						{
							"internalType": "uint256",
							"name": "",
							"type": "uint256"
						}
					],
					"name": "items",
					"outputs": [
						{
							"internalType": "string",
							"name": "_identifier",
							"type": "string"
						},
						{
							"internalType": "uint256",
							"name": "_itemPrice",
							"type": "uint256"
						},
						{
							"internalType": "enum ItemManager.AutoChainState",
							"name": "_state",
							"type": "uint8"
						}
					],
					"stateMutability": "view",
					"type": "function"
				},
				{
					"inputs": [],
					"name": "triggerDelivery",
					"outputs": [],
					"stateMutability": "nonpayable",
					"type": "function"
				},
				{
					"inputs": [
						{
							"internalType": "uint256",
							"name": "_itemIndex",
							"type": "uint256"
						}
					],
					"name": "triggerPayment",
					"outputs": [],
					"stateMutability": "payable",
					"type": "function"
				}
			],
			"devdoc": {
				"kind": "dev",
				"methods": {},
				"version": 1
			},
			"evm": {
				"assembly": "    /* \"contracts/eventtrigger.sol\":60:820  contract ItemManager {\r... */\n  mstore(0x40, 0x80)\n  callvalue\n  dup1\n  iszero\n  tag_1\n  jumpi\n  0x00\n  dup1\n  revert\ntag_1:\n  pop\n  dataSize(sub_0)\n  dup1\n  dataOffset(sub_0)\n  0x00\n  codecopy\n  0x00\n  return\nstop\n\nsub_0: assembly {\n        /* \"contracts/eventtrigger.sol\":60:820  contract ItemManager {\r... */\n      mstore(0x40, 0x80)\n      jumpi(tag_1, lt(calldatasize, 0x04))\n      shr(0xe0, calldataload(0x00))\n      dup1\n      0x5f4fe7b6\n      eq\n      tag_2\n      jumpi\n      dup1\n      0x800fb83f\n      eq\n      tag_3\n      jumpi\n      dup1\n      0x8c551742\n      eq\n      tag_4\n      jumpi\n      dup1\n      0xbfb231d2\n      eq\n      tag_5\n      jumpi\n    tag_1:\n      0x00\n      dup1\n      revert\n        /* \"contracts/eventtrigger.sol\":772:817  function triggerDelivery () public {\r... */\n    tag_2:\n      callvalue\n      dup1\n      iszero\n      tag_6\n      jumpi\n      0x00\n      dup1\n      revert\n    tag_6:\n      pop\n      tag_7\n      tag_8\n      jump\t// in\n    tag_7:\n      stop\n        /* \"contracts/eventtrigger.sol\":609:764  function triggerPayment (uint _itemIndex) external payable{\r... */\n    tag_3:\n      tag_9\n      0x04\n      dup1\n      calldatasize\n      sub\n      dup2\n      add\n      swap1\n      tag_10\n      swap2\n      swap1\n      tag_11\n      jump\t// in\n    tag_10:\n      tag_12\n      jump\t// in\n    tag_9:\n      stop\n        /* \"contracts/eventtrigger.sol\":336:601  function createItem (string memory _identifier, uint _itemPrice) public {\r... */\n    tag_4:\n      callvalue\n      dup1\n      iszero\n      tag_13\n      jumpi\n      0x00\n      dup1\n      revert\n    tag_13:\n      pop\n      tag_14\n      0x04\n      dup1\n      calldatasize\n      sub\n      dup2\n      add\n      swap1\n      tag_15\n      swap2\n      swap1\n      tag_16\n      jump\t// in\n    tag_15:\n      tag_17\n      jump\t// in\n    tag_14:\n      stop\n        /* \"contracts/eventtrigger.sol\":271:306  mapping (uint => item) public items */\n    tag_5:\n      callvalue\n      dup1\n      iszero\n      tag_18\n      jumpi\n      0x00\n      dup1\n      revert\n    tag_18:\n      pop\n      tag_19\n      0x04\n      dup1\n      calldatasize\n      sub\n      dup2\n      add\n      swap1\n      tag_20\n      swap2\n      swap1\n      tag_11\n      jump\t// in\n    tag_20:\n      tag_21\n      jump\t// in\n    tag_19:\n      mload(0x40)\n      tag_22\n      swap4\n      swap3\n      swap2\n      swap1\n      tag_23\n      jump\t// in\n    tag_22:\n      mload(0x40)\n      dup1\n      swap2\n      sub\n      swap1\n      return\n        /* \"contracts/eventtrigger.sol\":772:817  function triggerDelivery () public {\r... */\n    tag_8:\n      jump\t// out\n        /* \"contracts/eventtrigger.sol\":609:764  function triggerPayment (uint _itemIndex) external payable{\r... */\n    tag_12:\n        /* \"contracts/eventtrigger.sol\":717:726  msg.value */\n      callvalue\n        /* \"contracts/eventtrigger.sol\":686:691  items */\n      0x00\n        /* \"contracts/eventtrigger.sol\":686:702  items[itemIndex] */\n      dup1\n        /* \"contracts/eventtrigger.sol\":692:701  itemIndex */\n      sload(0x01)\n        /* \"contracts/eventtrigger.sol\":686:702  items[itemIndex] */\n      dup2\n      mstore\n      0x20\n      add\n      swap1\n      dup2\n      mstore\n      0x20\n      add\n      0x00\n      keccak256\n        /* \"contracts/eventtrigger.sol\":686:713  items[itemIndex]._itemPrice */\n      0x01\n      add\n      sload\n        /* \"contracts/eventtrigger.sol\":686:726  items[itemIndex]._itemPrice == msg.value */\n      eq\n        /* \"contracts/eventtrigger.sol\":678:754  require(items[itemIndex]._itemPrice == msg.value, \"Please pay exact amount\") */\n      tag_26\n      jumpi\n      mload(0x40)\n      0x08c379a000000000000000000000000000000000000000000000000000000000\n      dup2\n      mstore\n      0x04\n      add\n      tag_27\n      swap1\n      tag_28\n      jump\t// in\n    tag_27:\n      mload(0x40)\n      dup1\n      swap2\n      sub\n      swap1\n      revert\n    tag_26:\n        /* \"contracts/eventtrigger.sol\":609:764  function triggerPayment (uint _itemIndex) external payable{\r... */\n      pop\n      jump\t// out\n        /* \"contracts/eventtrigger.sol\":336:601  function createItem (string memory _identifier, uint _itemPrice) public {\r... */\n    tag_17:\n        /* \"contracts/eventtrigger.sol\":450:461  _identifier */\n      dup2\n        /* \"contracts/eventtrigger.sol\":419:424  items */\n      0x00\n        /* \"contracts/eventtrigger.sol\":419:435  items[itemIndex] */\n      dup1\n        /* \"contracts/eventtrigger.sol\":425:434  itemIndex */\n      sload(0x01)\n        /* \"contracts/eventtrigger.sol\":419:435  items[itemIndex] */\n      dup2\n      mstore\n      0x20\n      add\n      swap1\n      dup2\n      mstore\n      0x20\n      add\n      0x00\n      keccak256\n        /* \"contracts/eventtrigger.sol\":419:447  items[itemIndex]._identifier */\n      0x00\n      add\n        /* \"contracts/eventtrigger.sol\":419:461  items[itemIndex]._identifier = _identifier */\n      swap1\n      dup1\n      mload\n      swap1\n      0x20\n      add\n      swap1\n      tag_30\n      swap3\n      swap2\n      swap1\n      tag_31\n      jump\t// in\n    tag_30:\n      pop\n        /* \"contracts/eventtrigger.sol\":502:512  _itemPrice */\n      dup1\n        /* \"contracts/eventtrigger.sol\":472:477  items */\n      0x00\n        /* \"contracts/eventtrigger.sol\":472:488  items[itemIndex] */\n      dup1\n        /* \"contracts/eventtrigger.sol\":478:487  itemIndex */\n      sload(0x01)\n        /* \"contracts/eventtrigger.sol\":472:488  items[itemIndex] */\n      dup2\n      mstore\n      0x20\n      add\n      swap1\n      dup2\n      mstore\n      0x20\n      add\n      0x00\n      keccak256\n        /* \"contracts/eventtrigger.sol\":472:499  items[itemIndex]._itemPrice */\n      0x01\n      add\n        /* \"contracts/eventtrigger.sol\":472:512  items[itemIndex]._itemPrice = _itemPrice */\n      dup2\n      swap1\n      sstore\n      pop\n        /* \"contracts/eventtrigger.sol\":549:571  AutoChainState.Created */\n      0x00\n        /* \"contracts/eventtrigger.sol\":523:528  items */\n      dup1\n        /* \"contracts/eventtrigger.sol\":523:539  items[itemIndex] */\n      0x00\n        /* \"contracts/eventtrigger.sol\":529:538  itemIndex */\n      sload(0x01)\n        /* \"contracts/eventtrigger.sol\":523:539  items[itemIndex] */\n      dup2\n      mstore\n      0x20\n      add\n      swap1\n      dup2\n      mstore\n      0x20\n      add\n      0x00\n      keccak256\n        /* \"contracts/eventtrigger.sol\":523:546  items[itemIndex]._state */\n      0x02\n      add\n      0x00\n        /* \"contracts/eventtrigger.sol\":523:571  items[itemIndex]._state = AutoChainState.Created */\n      0x0100\n      exp\n      dup2\n      sload\n      dup2\n      0xff\n      mul\n      not\n      and\n      swap1\n      dup4\n      0x02\n      dup2\n      gt\n      iszero\n      tag_32\n      jumpi\n      tag_33\n      tag_34\n      jump\t// in\n    tag_33:\n    tag_32:\n      mul\n      or\n      swap1\n      sstore\n      pop\n        /* \"contracts/eventtrigger.sol\":582:591  itemIndex */\n      0x01\n      0x00\n        /* \"contracts/eventtrigger.sol\":582:593  itemIndex++ */\n      dup2\n      sload\n      dup1\n      swap3\n      swap2\n      swap1\n      tag_35\n      swap1\n      tag_36\n      jump\t// in\n    tag_35:\n      swap2\n      swap1\n      pop\n      sstore\n      pop\n        /* \"contracts/eventtrigger.sol\":336:601  function createItem (string memory _identifier, uint _itemPrice) public {\r... */\n      pop\n      pop\n      jump\t// out\n        /* \"contracts/eventtrigger.sol\":271:306  mapping (uint => item) public items */\n    tag_21:\n      mstore(0x20, 0x00)\n      dup1\n      0x00\n      mstore\n      keccak256(0x00, 0x40)\n      0x00\n      swap2\n      pop\n      swap1\n      pop\n      dup1\n      0x00\n      add\n      dup1\n      sload\n      tag_37\n      swap1\n      tag_38\n      jump\t// in\n    tag_37:\n      dup1\n      0x1f\n      add\n      0x20\n      dup1\n      swap2\n      div\n      mul\n      0x20\n      add\n      mload(0x40)\n      swap1\n      dup2\n      add\n      0x40\n      mstore\n      dup1\n      swap3\n      swap2\n      swap1\n      dup2\n      dup2\n      mstore\n      0x20\n      add\n      dup3\n      dup1\n      sload\n      tag_39\n      swap1\n      tag_38\n      jump\t// in\n    tag_39:\n      dup1\n      iszero\n      tag_40\n      jumpi\n      dup1\n      0x1f\n      lt\n      tag_41\n      jumpi\n      0x0100\n      dup1\n      dup4\n      sload\n      div\n      mul\n      dup4\n      mstore\n      swap2\n      0x20\n      add\n      swap2\n      jump(tag_40)\n    tag_41:\n      dup3\n      add\n      swap2\n      swap1\n      0x00\n      mstore\n      keccak256(0x00, 0x20)\n      swap1\n    tag_42:\n      dup2\n      sload\n      dup2\n      mstore\n      swap1\n      0x01\n      add\n      swap1\n      0x20\n      add\n      dup1\n      dup4\n      gt\n      tag_42\n      jumpi\n      dup3\n      swap1\n      sub\n      0x1f\n      and\n      dup3\n      add\n      swap2\n    tag_40:\n      pop\n      pop\n      pop\n      pop\n      pop\n      swap1\n      dup1\n      0x01\n      add\n      sload\n      swap1\n      dup1\n      0x02\n      add\n      0x00\n      swap1\n      sload\n      swap1\n      0x0100\n      exp\n      swap1\n      div\n      0xff\n      and\n      swap1\n      pop\n      dup4\n      jump\t// out\n    tag_31:\n      dup3\n      dup1\n      sload\n      tag_43\n      swap1\n      tag_38\n      jump\t// in\n    tag_43:\n      swap1\n      0x00\n      mstore\n      keccak256(0x00, 0x20)\n      swap1\n      0x1f\n      add\n      0x20\n      swap1\n      div\n      dup2\n      add\n      swap3\n      dup3\n      tag_45\n      jumpi\n      0x00\n      dup6\n      sstore\n      jump(tag_44)\n    tag_45:\n      dup3\n      0x1f\n      lt\n      tag_46\n      jumpi\n      dup1\n      mload\n      not(0xff)\n      and\n      dup4\n      dup1\n      add\n      or\n      dup6\n      sstore\n      jump(tag_44)\n    tag_46:\n      dup3\n      dup1\n      add\n      0x01\n      add\n      dup6\n      sstore\n      dup3\n      iszero\n      tag_44\n      jumpi\n      swap2\n      dup3\n      add\n    tag_47:\n      dup3\n      dup2\n      gt\n      iszero\n      tag_48\n      jumpi\n      dup3\n      mload\n      dup3\n      sstore\n      swap2\n      0x20\n      add\n      swap2\n      swap1\n      0x01\n      add\n      swap1\n      jump(tag_47)\n    tag_48:\n    tag_44:\n      pop\n      swap1\n      pop\n      tag_49\n      swap2\n      swap1\n      tag_50\n      jump\t// in\n    tag_49:\n      pop\n      swap1\n      jump\t// out\n    tag_50:\n    tag_51:\n      dup1\n      dup3\n      gt\n      iszero\n      tag_52\n      jumpi\n      0x00\n      dup2\n      0x00\n      swap1\n      sstore\n      pop\n      0x01\n      add\n      jump(tag_51)\n    tag_52:\n      pop\n      swap1\n      jump\t// out\n        /* \"#utility.yul\":7:419   */\n    tag_54:\n        /* \"#utility.yul\":85:90   */\n      0x00\n        /* \"#utility.yul\":110:176   */\n      tag_56\n        /* \"#utility.yul\":126:175   */\n      tag_57\n        /* \"#utility.yul\":168:174   */\n      dup5\n        /* \"#utility.yul\":126:175   */\n      tag_58\n      jump\t// in\n    tag_57:\n        /* \"#utility.yul\":110:176   */\n      tag_59\n      jump\t// in\n    tag_56:\n        /* \"#utility.yul\":101:176   */\n      swap1\n      pop\n        /* \"#utility.yul\":199:205   */\n      dup3\n        /* \"#utility.yul\":192:197   */\n      dup2\n        /* \"#utility.yul\":185:206   */\n      mstore\n        /* \"#utility.yul\":237:241   */\n      0x20\n        /* \"#utility.yul\":230:235   */\n      dup2\n        /* \"#utility.yul\":226:242   */\n      add\n        /* \"#utility.yul\":275:278   */\n      dup5\n        /* \"#utility.yul\":266:272   */\n      dup5\n        /* \"#utility.yul\":261:264   */\n      dup5\n        /* \"#utility.yul\":257:273   */\n      add\n        /* \"#utility.yul\":254:279   */\n      gt\n        /* \"#utility.yul\":251:363   */\n      iszero\n      tag_60\n      jumpi\n        /* \"#utility.yul\":282:361   */\n      tag_61\n      tag_62\n      jump\t// in\n    tag_61:\n        /* \"#utility.yul\":251:363   */\n    tag_60:\n        /* \"#utility.yul\":372:413   */\n      tag_63\n        /* \"#utility.yul\":406:412   */\n      dup5\n        /* \"#utility.yul\":401:404   */\n      dup3\n        /* \"#utility.yul\":396:399   */\n      dup6\n        /* \"#utility.yul\":372:413   */\n      tag_64\n      jump\t// in\n    tag_63:\n        /* \"#utility.yul\":91:419   */\n      pop\n        /* \"#utility.yul\":7:419   */\n      swap4\n      swap3\n      pop\n      pop\n      pop\n      jump\t// out\n        /* \"#utility.yul\":439:779   */\n    tag_65:\n        /* \"#utility.yul\":495:500   */\n      0x00\n        /* \"#utility.yul\":544:547   */\n      dup3\n        /* \"#utility.yul\":537:541   */\n      0x1f\n        /* \"#utility.yul\":529:535   */\n      dup4\n        /* \"#utility.yul\":525:542   */\n      add\n        /* \"#utility.yul\":521:548   */\n      slt\n        /* \"#utility.yul\":511:633   */\n      tag_67\n      jumpi\n        /* \"#utility.yul\":552:631   */\n      tag_68\n      tag_69\n      jump\t// in\n    tag_68:\n        /* \"#utility.yul\":511:633   */\n    tag_67:\n        /* \"#utility.yul\":669:675   */\n      dup2\n        /* \"#utility.yul\":656:676   */\n      calldataload\n        /* \"#utility.yul\":694:773   */\n      tag_70\n        /* \"#utility.yul\":769:772   */\n      dup5\n        /* \"#utility.yul\":761:767   */\n      dup3\n        /* \"#utility.yul\":754:758   */\n      0x20\n        /* \"#utility.yul\":746:752   */\n      dup7\n        /* \"#utility.yul\":742:759   */\n      add\n        /* \"#utility.yul\":694:773   */\n      tag_54\n      jump\t// in\n    tag_70:\n        /* \"#utility.yul\":685:773   */\n      swap2\n      pop\n        /* \"#utility.yul\":501:779   */\n      pop\n        /* \"#utility.yul\":439:779   */\n      swap3\n      swap2\n      pop\n      pop\n      jump\t// out\n        /* \"#utility.yul\":785:924   */\n    tag_71:\n        /* \"#utility.yul\":831:836   */\n      0x00\n        /* \"#utility.yul\":869:875   */\n      dup2\n        /* \"#utility.yul\":856:876   */\n      calldataload\n        /* \"#utility.yul\":847:876   */\n      swap1\n      pop\n        /* \"#utility.yul\":885:918   */\n      tag_73\n        /* \"#utility.yul\":912:917   */\n      dup2\n        /* \"#utility.yul\":885:918   */\n      tag_74\n      jump\t// in\n    tag_73:\n        /* \"#utility.yul\":785:924   */\n      swap3\n      swap2\n      pop\n      pop\n      jump\t// out\n        /* \"#utility.yul\":930:1584   */\n    tag_16:\n        /* \"#utility.yul\":1008:1014   */\n      0x00\n        /* \"#utility.yul\":1016:1022   */\n      dup1\n        /* \"#utility.yul\":1065:1067   */\n      0x40\n        /* \"#utility.yul\":1053:1062   */\n      dup4\n        /* \"#utility.yul\":1044:1051   */\n      dup6\n        /* \"#utility.yul\":1040:1063   */\n      sub\n        /* \"#utility.yul\":1036:1068   */\n      slt\n        /* \"#utility.yul\":1033:1152   */\n      iszero\n      tag_76\n      jumpi\n        /* \"#utility.yul\":1071:1150   */\n      tag_77\n      tag_78\n      jump\t// in\n    tag_77:\n        /* \"#utility.yul\":1033:1152   */\n    tag_76:\n        /* \"#utility.yul\":1219:1220   */\n      0x00\n        /* \"#utility.yul\":1208:1217   */\n      dup4\n        /* \"#utility.yul\":1204:1221   */\n      add\n        /* \"#utility.yul\":1191:1222   */\n      calldataload\n        /* \"#utility.yul\":1249:1267   */\n      0xffffffffffffffff\n        /* \"#utility.yul\":1241:1247   */\n      dup2\n        /* \"#utility.yul\":1238:1268   */\n      gt\n        /* \"#utility.yul\":1235:1352   */\n      iszero\n      tag_79\n      jumpi\n        /* \"#utility.yul\":1271:1350   */\n      tag_80\n      tag_81\n      jump\t// in\n    tag_80:\n        /* \"#utility.yul\":1235:1352   */\n    tag_79:\n        /* \"#utility.yul\":1376:1439   */\n      tag_82\n        /* \"#utility.yul\":1431:1438   */\n      dup6\n        /* \"#utility.yul\":1422:1428   */\n      dup3\n        /* \"#utility.yul\":1411:1420   */\n      dup7\n        /* \"#utility.yul\":1407:1429   */\n      add\n        /* \"#utility.yul\":1376:1439   */\n      tag_65\n      jump\t// in\n    tag_82:\n        /* \"#utility.yul\":1366:1439   */\n      swap3\n      pop\n        /* \"#utility.yul\":1162:1449   */\n      pop\n        /* \"#utility.yul\":1488:1490   */\n      0x20\n        /* \"#utility.yul\":1514:1567   */\n      tag_83\n        /* \"#utility.yul\":1559:1566   */\n      dup6\n        /* \"#utility.yul\":1550:1556   */\n      dup3\n        /* \"#utility.yul\":1539:1548   */\n      dup7\n        /* \"#utility.yul\":1535:1557   */\n      add\n        /* \"#utility.yul\":1514:1567   */\n      tag_71\n      jump\t// in\n    tag_83:\n        /* \"#utility.yul\":1504:1567   */\n      swap2\n      pop\n        /* \"#utility.yul\":1459:1577   */\n      pop\n        /* \"#utility.yul\":930:1584   */\n      swap3\n      pop\n      swap3\n      swap1\n      pop\n      jump\t// out\n        /* \"#utility.yul\":1590:1919   */\n    tag_11:\n        /* \"#utility.yul\":1649:1655   */\n      0x00\n        /* \"#utility.yul\":1698:1700   */\n      0x20\n        /* \"#utility.yul\":1686:1695   */\n      dup3\n        /* \"#utility.yul\":1677:1684   */\n      dup5\n        /* \"#utility.yul\":1673:1696   */\n      sub\n        /* \"#utility.yul\":1669:1701   */\n      slt\n        /* \"#utility.yul\":1666:1785   */\n      iszero\n      tag_85\n      jumpi\n        /* \"#utility.yul\":1704:1783   */\n      tag_86\n      tag_78\n      jump\t// in\n    tag_86:\n        /* \"#utility.yul\":1666:1785   */\n    tag_85:\n        /* \"#utility.yul\":1824:1825   */\n      0x00\n        /* \"#utility.yul\":1849:1902   */\n      tag_87\n        /* \"#utility.yul\":1894:1901   */\n      dup5\n        /* \"#utility.yul\":1885:1891   */\n      dup3\n        /* \"#utility.yul\":1874:1883   */\n      dup6\n        /* \"#utility.yul\":1870:1892   */\n      add\n        /* \"#utility.yul\":1849:1902   */\n      tag_71\n      jump\t// in\n    tag_87:\n        /* \"#utility.yul\":1839:1902   */\n      swap2\n      pop\n        /* \"#utility.yul\":1795:1912   */\n      pop\n        /* \"#utility.yul\":1590:1919   */\n      swap3\n      swap2\n      pop\n      pop\n      jump\t// out\n        /* \"#utility.yul\":1925:2084   */\n    tag_88:\n        /* \"#utility.yul\":2026:2077   */\n      tag_90\n        /* \"#utility.yul\":2071:2076   */\n      dup2\n        /* \"#utility.yul\":2026:2077   */\n      tag_91\n      jump\t// in\n    tag_90:\n        /* \"#utility.yul\":2021:2024   */\n      dup3\n        /* \"#utility.yul\":2014:2078   */\n      mstore\n        /* \"#utility.yul\":1925:2084   */\n      pop\n      pop\n      jump\t// out\n        /* \"#utility.yul\":2090:2454   */\n    tag_92:\n        /* \"#utility.yul\":2178:2181   */\n      0x00\n        /* \"#utility.yul\":2206:2245   */\n      tag_94\n        /* \"#utility.yul\":2239:2244   */\n      dup3\n        /* \"#utility.yul\":2206:2245   */\n      tag_95\n      jump\t// in\n    tag_94:\n        /* \"#utility.yul\":2261:2332   */\n      tag_96\n        /* \"#utility.yul\":2325:2331   */\n      dup2\n        /* \"#utility.yul\":2320:2323   */\n      dup6\n        /* \"#utility.yul\":2261:2332   */\n      tag_97\n      jump\t// in\n    tag_96:\n        /* \"#utility.yul\":2254:2332   */\n      swap4\n      pop\n        /* \"#utility.yul\":2341:2393   */\n      tag_98\n        /* \"#utility.yul\":2386:2392   */\n      dup2\n        /* \"#utility.yul\":2381:2384   */\n      dup6\n        /* \"#utility.yul\":2374:2378   */\n      0x20\n        /* \"#utility.yul\":2367:2372   */\n      dup7\n        /* \"#utility.yul\":2363:2379   */\n      add\n        /* \"#utility.yul\":2341:2393   */\n      tag_99\n      jump\t// in\n    tag_98:\n        /* \"#utility.yul\":2418:2447   */\n      tag_100\n        /* \"#utility.yul\":2440:2446   */\n      dup2\n        /* \"#utility.yul\":2418:2447   */\n      tag_101\n      jump\t// in\n    tag_100:\n        /* \"#utility.yul\":2413:2416   */\n      dup5\n        /* \"#utility.yul\":2409:2448   */\n      add\n        /* \"#utility.yul\":2402:2448   */\n      swap2\n      pop\n        /* \"#utility.yul\":2182:2454   */\n      pop\n        /* \"#utility.yul\":2090:2454   */\n      swap3\n      swap2\n      pop\n      pop\n      jump\t// out\n        /* \"#utility.yul\":2460:2826   */\n    tag_102:\n        /* \"#utility.yul\":2602:2605   */\n      0x00\n        /* \"#utility.yul\":2623:2690   */\n      tag_104\n        /* \"#utility.yul\":2687:2689   */\n      0x17\n        /* \"#utility.yul\":2682:2685   */\n      dup4\n        /* \"#utility.yul\":2623:2690   */\n      tag_97\n      jump\t// in\n    tag_104:\n        /* \"#utility.yul\":2616:2690   */\n      swap2\n      pop\n        /* \"#utility.yul\":2699:2792   */\n      tag_105\n        /* \"#utility.yul\":2788:2791   */\n      dup3\n        /* \"#utility.yul\":2699:2792   */\n      tag_106\n      jump\t// in\n    tag_105:\n        /* \"#utility.yul\":2817:2819   */\n      0x20\n        /* \"#utility.yul\":2812:2815   */\n      dup3\n        /* \"#utility.yul\":2808:2820   */\n      add\n        /* \"#utility.yul\":2801:2820   */\n      swap1\n      pop\n        /* \"#utility.yul\":2460:2826   */\n      swap2\n      swap1\n      pop\n      jump\t// out\n        /* \"#utility.yul\":2832:2950   */\n    tag_107:\n        /* \"#utility.yul\":2919:2943   */\n      tag_109\n        /* \"#utility.yul\":2937:2942   */\n      dup2\n        /* \"#utility.yul\":2919:2943   */\n      tag_110\n      jump\t// in\n    tag_109:\n        /* \"#utility.yul\":2914:2917   */\n      dup3\n        /* \"#utility.yul\":2907:2944   */\n      mstore\n        /* \"#utility.yul\":2832:2950   */\n      pop\n      pop\n      jump\t// out\n        /* \"#utility.yul\":2956:3517   */\n    tag_23:\n        /* \"#utility.yul\":3139:3143   */\n      0x00\n        /* \"#utility.yul\":3177:3179   */\n      0x60\n        /* \"#utility.yul\":3166:3175   */\n      dup3\n        /* \"#utility.yul\":3162:3180   */\n      add\n        /* \"#utility.yul\":3154:3180   */\n      swap1\n      pop\n        /* \"#utility.yul\":3226:3235   */\n      dup2\n        /* \"#utility.yul\":3220:3224   */\n      dup2\n        /* \"#utility.yul\":3216:3236   */\n      sub\n        /* \"#utility.yul\":3212:3213   */\n      0x00\n        /* \"#utility.yul\":3201:3210   */\n      dup4\n        /* \"#utility.yul\":3197:3214   */\n      add\n        /* \"#utility.yul\":3190:3237   */\n      mstore\n        /* \"#utility.yul\":3254:3332   */\n      tag_112\n        /* \"#utility.yul\":3327:3331   */\n      dup2\n        /* \"#utility.yul\":3318:3324   */\n      dup7\n        /* \"#utility.yul\":3254:3332   */\n      tag_92\n      jump\t// in\n    tag_112:\n        /* \"#utility.yul\":3246:3332   */\n      swap1\n      pop\n        /* \"#utility.yul\":3342:3414   */\n      tag_113\n        /* \"#utility.yul\":3410:3412   */\n      0x20\n        /* \"#utility.yul\":3399:3408   */\n      dup4\n        /* \"#utility.yul\":3395:3413   */\n      add\n        /* \"#utility.yul\":3386:3392   */\n      dup6\n        /* \"#utility.yul\":3342:3414   */\n      tag_107\n      jump\t// in\n    tag_113:\n        /* \"#utility.yul\":3424:3510   */\n      tag_114\n        /* \"#utility.yul\":3506:3508   */\n      0x40\n        /* \"#utility.yul\":3495:3504   */\n      dup4\n        /* \"#utility.yul\":3491:3509   */\n      add\n        /* \"#utility.yul\":3482:3488   */\n      dup5\n        /* \"#utility.yul\":3424:3510   */\n      tag_88\n      jump\t// in\n    tag_114:\n        /* \"#utility.yul\":2956:3517   */\n      swap5\n      swap4\n      pop\n      pop\n      pop\n      pop\n      jump\t// out\n        /* \"#utility.yul\":3523:3942   */\n    tag_28:\n        /* \"#utility.yul\":3689:3693   */\n      0x00\n        /* \"#utility.yul\":3727:3729   */\n      0x20\n        /* \"#utility.yul\":3716:3725   */\n      dup3\n        /* \"#utility.yul\":3712:3730   */\n      add\n        /* \"#utility.yul\":3704:3730   */\n      swap1\n      pop\n        /* \"#utility.yul\":3776:3785   */\n      dup2\n        /* \"#utility.yul\":3770:3774   */\n      dup2\n        /* \"#utility.yul\":3766:3786   */\n      sub\n        /* \"#utility.yul\":3762:3763   */\n      0x00\n        /* \"#utility.yul\":3751:3760   */\n      dup4\n        /* \"#utility.yul\":3747:3764   */\n      add\n        /* \"#utility.yul\":3740:3787   */\n      mstore\n        /* \"#utility.yul\":3804:3935   */\n      tag_116\n        /* \"#utility.yul\":3930:3934   */\n      dup2\n        /* \"#utility.yul\":3804:3935   */\n      tag_102\n      jump\t// in\n    tag_116:\n        /* \"#utility.yul\":3796:3935   */\n      swap1\n      pop\n        /* \"#utility.yul\":3523:3942   */\n      swap2\n      swap1\n      pop\n      jump\t// out\n        /* \"#utility.yul\":3948:4077   */\n    tag_59:\n        /* \"#utility.yul\":3982:3988   */\n      0x00\n        /* \"#utility.yul\":4009:4029   */\n      tag_118\n      tag_119\n      jump\t// in\n    tag_118:\n        /* \"#utility.yul\":3999:4029   */\n      swap1\n      pop\n        /* \"#utility.yul\":4038:4071   */\n      tag_120\n        /* \"#utility.yul\":4066:4070   */\n      dup3\n        /* \"#utility.yul\":4058:4064   */\n      dup3\n        /* \"#utility.yul\":4038:4071   */\n      tag_121\n      jump\t// in\n    tag_120:\n        /* \"#utility.yul\":3948:4077   */\n      swap2\n      swap1\n      pop\n      jump\t// out\n        /* \"#utility.yul\":4083:4158   */\n    tag_119:\n        /* \"#utility.yul\":4116:4122   */\n      0x00\n        /* \"#utility.yul\":4149:4151   */\n      0x40\n        /* \"#utility.yul\":4143:4152   */\n      mload\n        /* \"#utility.yul\":4133:4152   */\n      swap1\n      pop\n        /* \"#utility.yul\":4083:4158   */\n      swap1\n      jump\t// out\n        /* \"#utility.yul\":4164:4472   */\n    tag_58:\n        /* \"#utility.yul\":4226:4230   */\n      0x00\n        /* \"#utility.yul\":4316:4334   */\n      0xffffffffffffffff\n        /* \"#utility.yul\":4308:4314   */\n      dup3\n        /* \"#utility.yul\":4305:4335   */\n      gt\n        /* \"#utility.yul\":4302:4358   */\n      iszero\n      tag_124\n      jumpi\n        /* \"#utility.yul\":4338:4356   */\n      tag_125\n      tag_126\n      jump\t// in\n    tag_125:\n        /* \"#utility.yul\":4302:4358   */\n    tag_124:\n        /* \"#utility.yul\":4376:4405   */\n      tag_127\n        /* \"#utility.yul\":4398:4404   */\n      dup3\n        /* \"#utility.yul\":4376:4405   */\n      tag_101\n      jump\t// in\n    tag_127:\n        /* \"#utility.yul\":4368:4405   */\n      swap1\n      pop\n        /* \"#utility.yul\":4460:4464   */\n      0x20\n        /* \"#utility.yul\":4454:4458   */\n      dup2\n        /* \"#utility.yul\":4450:4465   */\n      add\n        /* \"#utility.yul\":4442:4465   */\n      swap1\n      pop\n        /* \"#utility.yul\":4164:4472   */\n      swap2\n      swap1\n      pop\n      jump\t// out\n        /* \"#utility.yul\":4478:4577   */\n    tag_95:\n        /* \"#utility.yul\":4530:4536   */\n      0x00\n        /* \"#utility.yul\":4564:4569   */\n      dup2\n        /* \"#utility.yul\":4558:4570   */\n      mload\n        /* \"#utility.yul\":4548:4570   */\n      swap1\n      pop\n        /* \"#utility.yul\":4478:4577   */\n      swap2\n      swap1\n      pop\n      jump\t// out\n        /* \"#utility.yul\":4583:4752   */\n    tag_97:\n        /* \"#utility.yul\":4667:4678   */\n      0x00\n        /* \"#utility.yul\":4701:4707   */\n      dup3\n        /* \"#utility.yul\":4696:4699   */\n      dup3\n        /* \"#utility.yul\":4689:4708   */\n      mstore\n        /* \"#utility.yul\":4741:4745   */\n      0x20\n        /* \"#utility.yul\":4736:4739   */\n      dup3\n        /* \"#utility.yul\":4732:4746   */\n      add\n        /* \"#utility.yul\":4717:4746   */\n      swap1\n      pop\n        /* \"#utility.yul\":4583:4752   */\n      swap3\n      swap2\n      pop\n      pop\n      jump\t// out\n        /* \"#utility.yul\":4758:4901   */\n    tag_130:\n        /* \"#utility.yul\":4811:4818   */\n      0x00\n        /* \"#utility.yul\":4840:4845   */\n      dup2\n        /* \"#utility.yul\":4829:4845   */\n      swap1\n      pop\n        /* \"#utility.yul\":4846:4895   */\n      tag_132\n        /* \"#utility.yul\":4889:4894   */\n      dup3\n        /* \"#utility.yul\":4846:4895   */\n      tag_133\n      jump\t// in\n    tag_132:\n        /* \"#utility.yul\":4758:4901   */\n      swap2\n      swap1\n      pop\n      jump\t// out\n        /* \"#utility.yul\":4907:4984   */\n    tag_110:\n        /* \"#utility.yul\":4944:4951   */\n      0x00\n        /* \"#utility.yul\":4973:4978   */\n      dup2\n        /* \"#utility.yul\":4962:4978   */\n      swap1\n      pop\n        /* \"#utility.yul\":4907:4984   */\n      swap2\n      swap1\n      pop\n      jump\t// out\n        /* \"#utility.yul\":4990:5133   */\n    tag_91:\n        /* \"#utility.yul\":5054:5063   */\n      0x00\n        /* \"#utility.yul\":5087:5127   */\n      tag_136\n        /* \"#utility.yul\":5121:5126   */\n      dup3\n        /* \"#utility.yul\":5087:5127   */\n      tag_130\n      jump\t// in\n    tag_136:\n        /* \"#utility.yul\":5074:5127   */\n      swap1\n      pop\n        /* \"#utility.yul\":4990:5133   */\n      swap2\n      swap1\n      pop\n      jump\t// out\n        /* \"#utility.yul\":5139:5293   */\n    tag_64:\n        /* \"#utility.yul\":5223:5229   */\n      dup3\n        /* \"#utility.yul\":5218:5221   */\n      dup2\n        /* \"#utility.yul\":5213:5216   */\n      dup4\n        /* \"#utility.yul\":5200:5230   */\n      calldatacopy\n        /* \"#utility.yul\":5285:5286   */\n      0x00\n        /* \"#utility.yul\":5276:5282   */\n      dup4\n        /* \"#utility.yul\":5271:5274   */\n      dup4\n        /* \"#utility.yul\":5267:5283   */\n      add\n        /* \"#utility.yul\":5260:5287   */\n      mstore\n        /* \"#utility.yul\":5139:5293   */\n      pop\n      pop\n      pop\n      jump\t// out\n        /* \"#utility.yul\":5299:5606   */\n    tag_99:\n        /* \"#utility.yul\":5367:5368   */\n      0x00\n        /* \"#utility.yul\":5377:5490   */\n    tag_139:\n        /* \"#utility.yul\":5391:5397   */\n      dup4\n        /* \"#utility.yul\":5388:5389   */\n      dup2\n        /* \"#utility.yul\":5385:5398   */\n      lt\n        /* \"#utility.yul\":5377:5490   */\n      iszero\n      tag_141\n      jumpi\n        /* \"#utility.yul\":5476:5477   */\n      dup1\n        /* \"#utility.yul\":5471:5474   */\n      dup3\n        /* \"#utility.yul\":5467:5478   */\n      add\n        /* \"#utility.yul\":5461:5479   */\n      mload\n        /* \"#utility.yul\":5457:5458   */\n      dup2\n        /* \"#utility.yul\":5452:5455   */\n      dup5\n        /* \"#utility.yul\":5448:5459   */\n      add\n        /* \"#utility.yul\":5441:5480   */\n      mstore\n        /* \"#utility.yul\":5413:5415   */\n      0x20\n        /* \"#utility.yul\":5410:5411   */\n      dup2\n        /* \"#utility.yul\":5406:5416   */\n      add\n        /* \"#utility.yul\":5401:5416   */\n      swap1\n      pop\n        /* \"#utility.yul\":5377:5490   */\n      jump(tag_139)\n    tag_141:\n        /* \"#utility.yul\":5508:5514   */\n      dup4\n        /* \"#utility.yul\":5505:5506   */\n      dup2\n        /* \"#utility.yul\":5502:5515   */\n      gt\n        /* \"#utility.yul\":5499:5600   */\n      iszero\n      tag_142\n      jumpi\n        /* \"#utility.yul\":5588:5589   */\n      0x00\n        /* \"#utility.yul\":5579:5585   */\n      dup5\n        /* \"#utility.yul\":5574:5577   */\n      dup5\n        /* \"#utility.yul\":5570:5586   */\n      add\n        /* \"#utility.yul\":5563:5590   */\n      mstore\n        /* \"#utility.yul\":5499:5600   */\n    tag_142:\n        /* \"#utility.yul\":5348:5606   */\n      pop\n        /* \"#utility.yul\":5299:5606   */\n      pop\n      pop\n      pop\n      jump\t// out\n        /* \"#utility.yul\":5612:5932   */\n    tag_38:\n        /* \"#utility.yul\":5656:5662   */\n      0x00\n        /* \"#utility.yul\":5693:5694   */\n      0x02\n        /* \"#utility.yul\":5687:5691   */\n      dup3\n        /* \"#utility.yul\":5683:5695   */\n      div\n        /* \"#utility.yul\":5673:5695   */\n      swap1\n      pop\n        /* \"#utility.yul\":5740:5741   */\n      0x01\n        /* \"#utility.yul\":5734:5738   */\n      dup3\n        /* \"#utility.yul\":5730:5742   */\n      and\n        /* \"#utility.yul\":5761:5779   */\n      dup1\n        /* \"#utility.yul\":5751:5832   */\n      tag_144\n      jumpi\n        /* \"#utility.yul\":5817:5821   */\n      0x7f\n        /* \"#utility.yul\":5809:5815   */\n      dup3\n        /* \"#utility.yul\":5805:5822   */\n      and\n        /* \"#utility.yul\":5795:5822   */\n      swap2\n      pop\n        /* \"#utility.yul\":5751:5832   */\n    tag_144:\n        /* \"#utility.yul\":5879:5881   */\n      0x20\n        /* \"#utility.yul\":5871:5877   */\n      dup3\n        /* \"#utility.yul\":5868:5882   */\n      lt\n        /* \"#utility.yul\":5848:5866   */\n      dup2\n        /* \"#utility.yul\":5845:5883   */\n      eq\n        /* \"#utility.yul\":5842:5926   */\n      iszero\n      tag_145\n      jumpi\n        /* \"#utility.yul\":5898:5916   */\n      tag_146\n      tag_147\n      jump\t// in\n    tag_146:\n        /* \"#utility.yul\":5842:5926   */\n    tag_145:\n        /* \"#utility.yul\":5663:5932   */\n      pop\n        /* \"#utility.yul\":5612:5932   */\n      swap2\n      swap1\n      pop\n      jump\t// out\n        /* \"#utility.yul\":5938:6219   */\n    tag_121:\n        /* \"#utility.yul\":6021:6048   */\n      tag_149\n        /* \"#utility.yul\":6043:6047   */\n      dup3\n        /* \"#utility.yul\":6021:6048   */\n      tag_101\n      jump\t// in\n    tag_149:\n        /* \"#utility.yul\":6013:6019   */\n      dup2\n        /* \"#utility.yul\":6009:6049   */\n      add\n        /* \"#utility.yul\":6151:6157   */\n      dup2\n        /* \"#utility.yul\":6139:6149   */\n      dup2\n        /* \"#utility.yul\":6136:6158   */\n      lt\n        /* \"#utility.yul\":6115:6133   */\n      0xffffffffffffffff\n        /* \"#utility.yul\":6103:6113   */\n      dup3\n        /* \"#utility.yul\":6100:6134   */\n      gt\n        /* \"#utility.yul\":6097:6159   */\n      or\n        /* \"#utility.yul\":6094:6182   */\n      iszero\n      tag_150\n      jumpi\n        /* \"#utility.yul\":6162:6180   */\n      tag_151\n      tag_126\n      jump\t// in\n    tag_151:\n        /* \"#utility.yul\":6094:6182   */\n    tag_150:\n        /* \"#utility.yul\":6202:6212   */\n      dup1\n        /* \"#utility.yul\":6198:6200   */\n      0x40\n        /* \"#utility.yul\":6191:6213   */\n      mstore\n        /* \"#utility.yul\":5981:6219   */\n      pop\n        /* \"#utility.yul\":5938:6219   */\n      pop\n      pop\n      jump\t// out\n        /* \"#utility.yul\":6225:6458   */\n    tag_36:\n        /* \"#utility.yul\":6264:6267   */\n      0x00\n        /* \"#utility.yul\":6287:6311   */\n      tag_153\n        /* \"#utility.yul\":6305:6310   */\n      dup3\n        /* \"#utility.yul\":6287:6311   */\n      tag_110\n      jump\t// in\n    tag_153:\n        /* \"#utility.yul\":6278:6311   */\n      swap2\n      pop\n        /* \"#utility.yul\":6333:6399   */\n      0xffffffffffffffffffffffffffffffffffffffffffffffffffffffffffffffff\n        /* \"#utility.yul\":6326:6331   */\n      dup3\n        /* \"#utility.yul\":6323:6400   */\n      eq\n        /* \"#utility.yul\":6320:6423   */\n      iszero\n      tag_154\n      jumpi\n        /* \"#utility.yul\":6403:6421   */\n      tag_155\n      tag_156\n      jump\t// in\n    tag_155:\n        /* \"#utility.yul\":6320:6423   */\n    tag_154:\n        /* \"#utility.yul\":6450:6451   */\n      0x01\n        /* \"#utility.yul\":6443:6448   */\n      dup3\n        /* \"#utility.yul\":6439:6452   */\n      add\n        /* \"#utility.yul\":6432:6452   */\n      swap1\n      pop\n        /* \"#utility.yul\":6225:6458   */\n      swap2\n      swap1\n      pop\n      jump\t// out\n        /* \"#utility.yul\":6464:6644   */\n    tag_156:\n        /* \"#utility.yul\":6512:6589   */\n      0x4e487b7100000000000000000000000000000000000000000000000000000000\n        /* \"#utility.yul\":6509:6510   */\n      0x00\n        /* \"#utility.yul\":6502:6590   */\n      mstore\n        /* \"#utility.yul\":6609:6613   */\n      0x11\n        /* \"#utility.yul\":6606:6607   */\n      0x04\n        /* \"#utility.yul\":6599:6614   */\n      mstore\n        /* \"#utility.yul\":6633:6637   */\n      0x24\n        /* \"#utility.yul\":6630:6631   */\n      0x00\n        /* \"#utility.yul\":6623:6638   */\n      revert\n        /* \"#utility.yul\":6650:6830   */\n    tag_34:\n        /* \"#utility.yul\":6698:6775   */\n      0x4e487b7100000000000000000000000000000000000000000000000000000000\n        /* \"#utility.yul\":6695:6696   */\n      0x00\n        /* \"#utility.yul\":6688:6776   */\n      mstore\n        /* \"#utility.yul\":6795:6799   */\n      0x21\n        /* \"#utility.yul\":6792:6793   */\n      0x04\n        /* \"#utility.yul\":6785:6800   */\n      mstore\n        /* \"#utility.yul\":6819:6823   */\n      0x24\n        /* \"#utility.yul\":6816:6817   */\n      0x00\n        /* \"#utility.yul\":6809:6824   */\n      revert\n        /* \"#utility.yul\":6836:7016   */\n    tag_147:\n        /* \"#utility.yul\":6884:6961   */\n      0x4e487b7100000000000000000000000000000000000000000000000000000000\n        /* \"#utility.yul\":6881:6882   */\n      0x00\n        /* \"#utility.yul\":6874:6962   */\n      mstore\n        /* \"#utility.yul\":6981:6985   */\n      0x22\n        /* \"#utility.yul\":6978:6979   */\n      0x04\n        /* \"#utility.yul\":6971:6986   */\n      mstore\n        /* \"#utility.yul\":7005:7009   */\n      0x24\n        /* \"#utility.yul\":7002:7003   */\n      0x00\n        /* \"#utility.yul\":6995:7010   */\n      revert\n        /* \"#utility.yul\":7022:7202   */\n    tag_126:\n        /* \"#utility.yul\":7070:7147   */\n      0x4e487b7100000000000000000000000000000000000000000000000000000000\n        /* \"#utility.yul\":7067:7068   */\n      0x00\n        /* \"#utility.yul\":7060:7148   */\n      mstore\n        /* \"#utility.yul\":7167:7171   */\n      0x41\n        /* \"#utility.yul\":7164:7165   */\n      0x04\n        /* \"#utility.yul\":7157:7172   */\n      mstore\n        /* \"#utility.yul\":7191:7195   */\n      0x24\n        /* \"#utility.yul\":7188:7189   */\n      0x00\n        /* \"#utility.yul\":7181:7196   */\n      revert\n        /* \"#utility.yul\":7208:7325   */\n    tag_69:\n        /* \"#utility.yul\":7317:7318   */\n      0x00\n        /* \"#utility.yul\":7314:7315   */\n      dup1\n        /* \"#utility.yul\":7307:7319   */\n      revert\n        /* \"#utility.yul\":7331:7448   */\n    tag_62:\n        /* \"#utility.yul\":7440:7441   */\n      0x00\n        /* \"#utility.yul\":7437:7438   */\n      dup1\n        /* \"#utility.yul\":7430:7442   */\n      revert\n        /* \"#utility.yul\":7454:7571   */\n    tag_81:\n        /* \"#utility.yul\":7563:7564   */\n      0x00\n        /* \"#utility.yul\":7560:7561   */\n      dup1\n        /* \"#utility.yul\":7553:7565   */\n      revert\n        /* \"#utility.yul\":7577:7694   */\n    tag_78:\n        /* \"#utility.yul\":7686:7687   */\n      0x00\n        /* \"#utility.yul\":7683:7684   */\n      dup1\n        /* \"#utility.yul\":7676:7688   */\n      revert\n        /* \"#utility.yul\":7700:7802   */\n    tag_101:\n        /* \"#utility.yul\":7741:7747   */\n      0x00\n        /* \"#utility.yul\":7792:7794   */\n      0x1f\n        /* \"#utility.yul\":7788:7795   */\n      not\n        /* \"#utility.yul\":7783:7785   */\n      0x1f\n        /* \"#utility.yul\":7776:7781   */\n      dup4\n        /* \"#utility.yul\":7772:7786   */\n      add\n        /* \"#utility.yul\":7768:7796   */\n      and\n        /* \"#utility.yul\":7758:7796   */\n      swap1\n      pop\n        /* \"#utility.yul\":7700:7802   */\n      swap2\n      swap1\n      pop\n      jump\t// out\n        /* \"#utility.yul\":7808:7981   */\n    tag_106:\n        /* \"#utility.yul\":7948:7973   */\n      0x506c656173652070617920657861637420616d6f756e74000000000000000000\n        /* \"#utility.yul\":7944:7945   */\n      0x00\n        /* \"#utility.yul\":7936:7942   */\n      dup3\n        /* \"#utility.yul\":7932:7946   */\n      add\n        /* \"#utility.yul\":7925:7974   */\n      mstore\n        /* \"#utility.yul\":7808:7981   */\n      pop\n      jump\t// out\n        /* \"#utility.yul\":7987:8108   */\n    tag_133:\n        /* \"#utility.yul\":8076:8077   */\n      0x03\n        /* \"#utility.yul\":8069:8074   */\n      dup2\n        /* \"#utility.yul\":8066:8078   */\n      lt\n        /* \"#utility.yul\":8056:8102   */\n      tag_168\n      jumpi\n        /* \"#utility.yul\":8082:8100   */\n      tag_169\n      tag_34\n      jump\t// in\n    tag_169:\n        /* \"#utility.yul\":8056:8102   */\n    tag_168:\n        /* \"#utility.yul\":7987:8108   */\n      pop\n      jump\t// out\n        /* \"#utility.yul\":8114:8236   */\n    tag_74:\n        /* \"#utility.yul\":8187:8211   */\n      tag_171\n        /* \"#utility.yul\":8205:8210   */\n      dup2\n        /* \"#utility.yul\":8187:8211   */\n      tag_110\n      jump\t// in\n    tag_171:\n        /* \"#utility.yul\":8180:8185   */\n      dup2\n        /* \"#utility.yul\":8177:8212   */\n      eq\n        /* \"#utility.yul\":8167:8230   */\n      tag_172\n      jumpi\n        /* \"#utility.yul\":8226:8227   */\n      0x00\n        /* \"#utility.yul\":8223:8224   */\n      dup1\n        /* \"#utility.yul\":8216:8228   */\n      revert\n        /* \"#utility.yul\":8167:8230   */\n    tag_172:\n        /* \"#utility.yul\":8114:8236   */\n      pop\n      jump\t// out\n\n    auxdata: 0xa2646970667358221220e6ccf3860e7511998f68b3c96bb1ab8269aeddadd69a5e3aa0c9a05f5bb0552c64736f6c63430008070033\n}\n",
				"bytecode": {
					"linkReferences": {},
					"object": "608060405234801561001057600080fd5b50610823806100206000396000f3fe60806040526004361061003f5760003560e01c80635f4fe7b614610044578063800fb83f1461005b5780638c55174214610077578063bfb231d2146100a0575b600080fd5b34801561005057600080fd5b506100596100df565b005b61007560048036038101906100709190610424565b6100e1565b005b34801561008357600080fd5b5061009e600480360381019061009991906103c8565b61013d565b005b3480156100ac57600080fd5b506100c760048036038101906100c29190610424565b6101e1565b6040516100d6939291906104cb565b60405180910390f35b565b346000806001548152602001908152602001600020600101541461013a576040517f08c379a000000000000000000000000000000000000000000000000000000000815260040161013190610509565b60405180910390fd5b50565b81600080600154815260200190815260200160002060000190805190602001906101689291906102a0565b50806000806001548152602001908152602001600020600101819055506000806000600154815260200190815260200160002060020160006101000a81548160ff021916908360028111156101c0576101bf6106e7565b5b0217905550600160008154809291906101d89061066f565b91905055505050565b60006020528060005260406000206000915090508060000180546102049061060c565b80601f01602080910402602001604051908101604052809291908181526020018280546102309061060c565b801561027d5780601f106102525761010080835404028352916020019161027d565b820191906000526020600020905b81548152906001019060200180831161026057829003601f168201915b5050505050908060010154908060020160009054906101000a900460ff16905083565b8280546102ac9061060c565b90600052602060002090601f0160209004810192826102ce5760008555610315565b82601f106102e757805160ff1916838001178555610315565b82800160010185558215610315579182015b828111156103145782518255916020019190600101906102f9565b5b5090506103229190610326565b5090565b5b8082111561033f576000816000905550600101610327565b5090565b60006103566103518461054e565b610529565b90508281526020810184848401111561037257610371610779565b5b61037d8482856105ca565b509392505050565b600082601f83011261039a57610399610774565b5b81356103aa848260208601610343565b91505092915050565b6000813590506103c2816107d6565b92915050565b600080604083850312156103df576103de610783565b5b600083013567ffffffffffffffff8111156103fd576103fc61077e565b5b61040985828601610385565b925050602061041a858286016103b3565b9150509250929050565b60006020828403121561043a57610439610783565b5b6000610448848285016103b3565b91505092915050565b61045a816105b8565b82525050565b600061046b8261057f565b610475818561058a565b93506104858185602086016105d9565b61048e81610788565b840191505092915050565b60006104a660178361058a565b91506104b182610799565b602082019050919050565b6104c5816105ae565b82525050565b600060608201905081810360008301526104e58186610460565b90506104f460208301856104bc565b6105016040830184610451565b949350505050565b6000602082019050818103600083015261052281610499565b9050919050565b6000610533610544565b905061053f828261063e565b919050565b6000604051905090565b600067ffffffffffffffff82111561056957610568610745565b5b61057282610788565b9050602081019050919050565b600081519050919050565b600082825260208201905092915050565b60008190506105a9826107c2565b919050565b6000819050919050565b60006105c38261059b565b9050919050565b82818337600083830152505050565b60005b838110156105f75780820151818401526020810190506105dc565b83811115610606576000848401525b50505050565b6000600282049050600182168061062457607f821691505b6020821081141561063857610637610716565b5b50919050565b61064782610788565b810181811067ffffffffffffffff8211171561066657610665610745565b5b80604052505050565b600061067a826105ae565b91507fffffffffffffffffffffffffffffffffffffffffffffffffffffffffffffffff8214156106ad576106ac6106b8565b5b600182019050919050565b7f4e487b7100000000000000000000000000000000000000000000000000000000600052601160045260246000fd5b7f4e487b7100000000000000000000000000000000000000000000000000000000600052602160045260246000fd5b7f4e487b7100000000000000000000000000000000000000000000000000000000600052602260045260246000fd5b7f4e487b7100000000000000000000000000000000000000000000000000000000600052604160045260246000fd5b600080fd5b600080fd5b600080fd5b600080fd5b6000601f19601f8301169050919050565b7f506c656173652070617920657861637420616d6f756e74000000000000000000600082015250565b600381106107d3576107d26106e7565b5b50565b6107df816105ae565b81146107ea57600080fd5b5056fea2646970667358221220e6ccf3860e7511998f68b3c96bb1ab8269aeddadd69a5e3aa0c9a05f5bb0552c64736f6c63430008070033",
					"opcodes": "PUSH1 0x80 PUSH1 0x40 MSTORE CALLVALUE DUP1 ISZERO PUSH2 0x10 JUMPI PUSH1 0x0 DUP1 REVERT JUMPDEST POP PUSH2 0x823 DUP1 PUSH2 0x20 PUSH1 0x0 CODECOPY PUSH1 0x0 RETURN INVALID PUSH1 0x80 PUSH1 0x40 MSTORE PUSH1 0x4 CALLDATASIZE LT PUSH2 0x3F JUMPI PUSH1 0x0 CALLDATALOAD PUSH1 0xE0 SHR DUP1 PUSH4 0x5F4FE7B6 EQ PUSH2 0x44 JUMPI DUP1 PUSH4 0x800FB83F EQ PUSH2 0x5B JUMPI DUP1 PUSH4 0x8C551742 EQ PUSH2 0x77 JUMPI DUP1 PUSH4 0xBFB231D2 EQ PUSH2 0xA0 JUMPI JUMPDEST PUSH1 0x0 DUP1 REVERT JUMPDEST CALLVALUE DUP1 ISZERO PUSH2 0x50 JUMPI PUSH1 0x0 DUP1 REVERT JUMPDEST POP PUSH2 0x59 PUSH2 0xDF JUMP JUMPDEST STOP JUMPDEST PUSH2 0x75 PUSH1 0x4 DUP1 CALLDATASIZE SUB DUP2 ADD SWAP1 PUSH2 0x70 SWAP2 SWAP1 PUSH2 0x424 JUMP JUMPDEST PUSH2 0xE1 JUMP JUMPDEST STOP JUMPDEST CALLVALUE DUP1 ISZERO PUSH2 0x83 JUMPI PUSH1 0x0 DUP1 REVERT JUMPDEST POP PUSH2 0x9E PUSH1 0x4 DUP1 CALLDATASIZE SUB DUP2 ADD SWAP1 PUSH2 0x99 SWAP2 SWAP1 PUSH2 0x3C8 JUMP JUMPDEST PUSH2 0x13D JUMP JUMPDEST STOP JUMPDEST CALLVALUE DUP1 ISZERO PUSH2 0xAC JUMPI PUSH1 0x0 DUP1 REVERT JUMPDEST POP PUSH2 0xC7 PUSH1 0x4 DUP1 CALLDATASIZE SUB DUP2 ADD SWAP1 PUSH2 0xC2 SWAP2 SWAP1 PUSH2 0x424 JUMP JUMPDEST PUSH2 0x1E1 JUMP JUMPDEST PUSH1 0x40 MLOAD PUSH2 0xD6 SWAP4 SWAP3 SWAP2 SWAP1 PUSH2 0x4CB JUMP JUMPDEST PUSH1 0x40 MLOAD DUP1 SWAP2 SUB SWAP1 RETURN JUMPDEST JUMP JUMPDEST CALLVALUE PUSH1 0x0 DUP1 PUSH1 0x1 SLOAD DUP2 MSTORE PUSH1 0x20 ADD SWAP1 DUP2 MSTORE PUSH1 0x20 ADD PUSH1 0x0 KECCAK256 PUSH1 0x1 ADD SLOAD EQ PUSH2 0x13A JUMPI PUSH1 0x40 MLOAD PUSH32 0x8C379A000000000000000000000000000000000000000000000000000000000 DUP2 MSTORE PUSH1 0x4 ADD PUSH2 0x131 SWAP1 PUSH2 0x509 JUMP JUMPDEST PUSH1 0x40 MLOAD DUP1 SWAP2 SUB SWAP1 REVERT JUMPDEST POP JUMP JUMPDEST DUP2 PUSH1 0x0 DUP1 PUSH1 0x1 SLOAD DUP2 MSTORE PUSH1 0x20 ADD SWAP1 DUP2 MSTORE PUSH1 0x20 ADD PUSH1 0x0 KECCAK256 PUSH1 0x0 ADD SWAP1 DUP1 MLOAD SWAP1 PUSH1 0x20 ADD SWAP1 PUSH2 0x168 SWAP3 SWAP2 SWAP1 PUSH2 0x2A0 JUMP JUMPDEST POP DUP1 PUSH1 0x0 DUP1 PUSH1 0x1 SLOAD DUP2 MSTORE PUSH1 0x20 ADD SWAP1 DUP2 MSTORE PUSH1 0x20 ADD PUSH1 0x0 KECCAK256 PUSH1 0x1 ADD DUP2 SWAP1 SSTORE POP PUSH1 0x0 DUP1 PUSH1 0x0 PUSH1 0x1 SLOAD DUP2 MSTORE PUSH1 0x20 ADD SWAP1 DUP2 MSTORE PUSH1 0x20 ADD PUSH1 0x0 KECCAK256 PUSH1 0x2 ADD PUSH1 0x0 PUSH2 0x100 EXP DUP2 SLOAD DUP2 PUSH1 0xFF MUL NOT AND SWAP1 DUP4 PUSH1 0x2 DUP2 GT ISZERO PUSH2 0x1C0 JUMPI PUSH2 0x1BF PUSH2 0x6E7 JUMP JUMPDEST JUMPDEST MUL OR SWAP1 SSTORE POP PUSH1 0x1 PUSH1 0x0 DUP2 SLOAD DUP1 SWAP3 SWAP2 SWAP1 PUSH2 0x1D8 SWAP1 PUSH2 0x66F JUMP JUMPDEST SWAP2 SWAP1 POP SSTORE POP POP POP JUMP JUMPDEST PUSH1 0x0 PUSH1 0x20 MSTORE DUP1 PUSH1 0x0 MSTORE PUSH1 0x40 PUSH1 0x0 KECCAK256 PUSH1 0x0 SWAP2 POP SWAP1 POP DUP1 PUSH1 0x0 ADD DUP1 SLOAD PUSH2 0x204 SWAP1 PUSH2 0x60C JUMP JUMPDEST DUP1 PUSH1 0x1F ADD PUSH1 0x20 DUP1 SWAP2 DIV MUL PUSH1 0x20 ADD PUSH1 0x40 MLOAD SWAP1 DUP2 ADD PUSH1 0x40 MSTORE DUP1 SWAP3 SWAP2 SWAP1 DUP2 DUP2 MSTORE PUSH1 0x20 ADD DUP3 DUP1 SLOAD PUSH2 0x230 SWAP1 PUSH2 0x60C JUMP JUMPDEST DUP1 ISZERO PUSH2 0x27D JUMPI DUP1 PUSH1 0x1F LT PUSH2 0x252 JUMPI PUSH2 0x100 DUP1 DUP4 SLOAD DIV MUL DUP4 MSTORE SWAP2 PUSH1 0x20 ADD SWAP2 PUSH2 0x27D JUMP JUMPDEST DUP3 ADD SWAP2 SWAP1 PUSH1 0x0 MSTORE PUSH1 0x20 PUSH1 0x0 KECCAK256 SWAP1 JUMPDEST DUP2 SLOAD DUP2 MSTORE SWAP1 PUSH1 0x1 ADD SWAP1 PUSH1 0x20 ADD DUP1 DUP4 GT PUSH2 0x260 JUMPI DUP3 SWAP1 SUB PUSH1 0x1F AND DUP3 ADD SWAP2 JUMPDEST POP POP POP POP POP SWAP1 DUP1 PUSH1 0x1 ADD SLOAD SWAP1 DUP1 PUSH1 0x2 ADD PUSH1 0x0 SWAP1 SLOAD SWAP1 PUSH2 0x100 EXP SWAP1 DIV PUSH1 0xFF AND SWAP1 POP DUP4 JUMP JUMPDEST DUP3 DUP1 SLOAD PUSH2 0x2AC SWAP1 PUSH2 0x60C JUMP JUMPDEST SWAP1 PUSH1 0x0 MSTORE PUSH1 0x20 PUSH1 0x0 KECCAK256 SWAP1 PUSH1 0x1F ADD PUSH1 0x20 SWAP1 DIV DUP2 ADD SWAP3 DUP3 PUSH2 0x2CE JUMPI PUSH1 0x0 DUP6 SSTORE PUSH2 0x315 JUMP JUMPDEST DUP3 PUSH1 0x1F LT PUSH2 0x2E7 JUMPI DUP1 MLOAD PUSH1 0xFF NOT AND DUP4 DUP1 ADD OR DUP6 SSTORE PUSH2 0x315 JUMP JUMPDEST DUP3 DUP1 ADD PUSH1 0x1 ADD DUP6 SSTORE DUP3 ISZERO PUSH2 0x315 JUMPI SWAP2 DUP3 ADD JUMPDEST DUP3 DUP2 GT ISZERO PUSH2 0x314 JUMPI DUP3 MLOAD DUP3 SSTORE SWAP2 PUSH1 0x20 ADD SWAP2 SWAP1 PUSH1 0x1 ADD SWAP1 PUSH2 0x2F9 JUMP JUMPDEST JUMPDEST POP SWAP1 POP PUSH2 0x322 SWAP2 SWAP1 PUSH2 0x326 JUMP JUMPDEST POP SWAP1 JUMP JUMPDEST JUMPDEST DUP1 DUP3 GT ISZERO PUSH2 0x33F JUMPI PUSH1 0x0 DUP2 PUSH1 0x0 SWAP1 SSTORE POP PUSH1 0x1 ADD PUSH2 0x327 JUMP JUMPDEST POP SWAP1 JUMP JUMPDEST PUSH1 0x0 PUSH2 0x356 PUSH2 0x351 DUP5 PUSH2 0x54E JUMP JUMPDEST PUSH2 0x529 JUMP JUMPDEST SWAP1 POP DUP3 DUP2 MSTORE PUSH1 0x20 DUP2 ADD DUP5 DUP5 DUP5 ADD GT ISZERO PUSH2 0x372 JUMPI PUSH2 0x371 PUSH2 0x779 JUMP JUMPDEST JUMPDEST PUSH2 0x37D DUP5 DUP3 DUP6 PUSH2 0x5CA JUMP JUMPDEST POP SWAP4 SWAP3 POP POP POP JUMP JUMPDEST PUSH1 0x0 DUP3 PUSH1 0x1F DUP4 ADD SLT PUSH2 0x39A JUMPI PUSH2 0x399 PUSH2 0x774 JUMP JUMPDEST JUMPDEST DUP2 CALLDATALOAD PUSH2 0x3AA DUP5 DUP3 PUSH1 0x20 DUP7 ADD PUSH2 0x343 JUMP JUMPDEST SWAP2 POP POP SWAP3 SWAP2 POP POP JUMP JUMPDEST PUSH1 0x0 DUP2 CALLDATALOAD SWAP1 POP PUSH2 0x3C2 DUP2 PUSH2 0x7D6 JUMP JUMPDEST SWAP3 SWAP2 POP POP JUMP JUMPDEST PUSH1 0x0 DUP1 PUSH1 0x40 DUP4 DUP6 SUB SLT ISZERO PUSH2 0x3DF JUMPI PUSH2 0x3DE PUSH2 0x783 JUMP JUMPDEST JUMPDEST PUSH1 0x0 DUP4 ADD CALLDATALOAD PUSH8 0xFFFFFFFFFFFFFFFF DUP2 GT ISZERO PUSH2 0x3FD JUMPI PUSH2 0x3FC PUSH2 0x77E JUMP JUMPDEST JUMPDEST PUSH2 0x409 DUP6 DUP3 DUP7 ADD PUSH2 0x385 JUMP JUMPDEST SWAP3 POP POP PUSH1 0x20 PUSH2 0x41A DUP6 DUP3 DUP7 ADD PUSH2 0x3B3 JUMP JUMPDEST SWAP2 POP POP SWAP3 POP SWAP3 SWAP1 POP JUMP JUMPDEST PUSH1 0x0 PUSH1 0x20 DUP3 DUP5 SUB SLT ISZERO PUSH2 0x43A JUMPI PUSH2 0x439 PUSH2 0x783 JUMP JUMPDEST JUMPDEST PUSH1 0x0 PUSH2 0x448 DUP5 DUP3 DUP6 ADD PUSH2 0x3B3 JUMP JUMPDEST SWAP2 POP POP SWAP3 SWAP2 POP POP JUMP JUMPDEST PUSH2 0x45A DUP2 PUSH2 0x5B8 JUMP JUMPDEST DUP3 MSTORE POP POP JUMP JUMPDEST PUSH1 0x0 PUSH2 0x46B DUP3 PUSH2 0x57F JUMP JUMPDEST PUSH2 0x475 DUP2 DUP6 PUSH2 0x58A JUMP JUMPDEST SWAP4 POP PUSH2 0x485 DUP2 DUP6 PUSH1 0x20 DUP7 ADD PUSH2 0x5D9 JUMP JUMPDEST PUSH2 0x48E DUP2 PUSH2 0x788 JUMP JUMPDEST DUP5 ADD SWAP2 POP POP SWAP3 SWAP2 POP POP JUMP JUMPDEST PUSH1 0x0 PUSH2 0x4A6 PUSH1 0x17 DUP4 PUSH2 0x58A JUMP JUMPDEST SWAP2 POP PUSH2 0x4B1 DUP3 PUSH2 0x799 JUMP JUMPDEST PUSH1 0x20 DUP3 ADD SWAP1 POP SWAP2 SWAP1 POP JUMP JUMPDEST PUSH2 0x4C5 DUP2 PUSH2 0x5AE JUMP JUMPDEST DUP3 MSTORE POP POP JUMP JUMPDEST PUSH1 0x0 PUSH1 0x60 DUP3 ADD SWAP1 POP DUP2 DUP2 SUB PUSH1 0x0 DUP4 ADD MSTORE PUSH2 0x4E5 DUP2 DUP7 PUSH2 0x460 JUMP JUMPDEST SWAP1 POP PUSH2 0x4F4 PUSH1 0x20 DUP4 ADD DUP6 PUSH2 0x4BC JUMP JUMPDEST PUSH2 0x501 PUSH1 0x40 DUP4 ADD DUP5 PUSH2 0x451 JUMP JUMPDEST SWAP5 SWAP4 POP POP POP POP JUMP JUMPDEST PUSH1 0x0 PUSH1 0x20 DUP3 ADD SWAP1 POP DUP2 DUP2 SUB PUSH1 0x0 DUP4 ADD MSTORE PUSH2 0x522 DUP2 PUSH2 0x499 JUMP JUMPDEST SWAP1 POP SWAP2 SWAP1 POP JUMP JUMPDEST PUSH1 0x0 PUSH2 0x533 PUSH2 0x544 JUMP JUMPDEST SWAP1 POP PUSH2 0x53F DUP3 DUP3 PUSH2 0x63E JUMP JUMPDEST SWAP2 SWAP1 POP JUMP JUMPDEST PUSH1 0x0 PUSH1 0x40 MLOAD SWAP1 POP SWAP1 JUMP JUMPDEST PUSH1 0x0 PUSH8 0xFFFFFFFFFFFFFFFF DUP3 GT ISZERO PUSH2 0x569 JUMPI PUSH2 0x568 PUSH2 0x745 JUMP JUMPDEST JUMPDEST PUSH2 0x572 DUP3 PUSH2 0x788 JUMP JUMPDEST SWAP1 POP PUSH1 0x20 DUP2 ADD SWAP1 POP SWAP2 SWAP1 POP JUMP JUMPDEST PUSH1 0x0 DUP2 MLOAD SWAP1 POP SWAP2 SWAP1 POP JUMP JUMPDEST PUSH1 0x0 DUP3 DUP3 MSTORE PUSH1 0x20 DUP3 ADD SWAP1 POP SWAP3 SWAP2 POP POP JUMP JUMPDEST PUSH1 0x0 DUP2 SWAP1 POP PUSH2 0x5A9 DUP3 PUSH2 0x7C2 JUMP JUMPDEST SWAP2 SWAP1 POP JUMP JUMPDEST PUSH1 0x0 DUP2 SWAP1 POP SWAP2 SWAP1 POP JUMP JUMPDEST PUSH1 0x0 PUSH2 0x5C3 DUP3 PUSH2 0x59B JUMP JUMPDEST SWAP1 POP SWAP2 SWAP1 POP JUMP JUMPDEST DUP3 DUP2 DUP4 CALLDATACOPY PUSH1 0x0 DUP4 DUP4 ADD MSTORE POP POP POP JUMP JUMPDEST PUSH1 0x0 JUMPDEST DUP4 DUP2 LT ISZERO PUSH2 0x5F7 JUMPI DUP1 DUP3 ADD MLOAD DUP2 DUP5 ADD MSTORE PUSH1 0x20 DUP2 ADD SWAP1 POP PUSH2 0x5DC JUMP JUMPDEST DUP4 DUP2 GT ISZERO PUSH2 0x606 JUMPI PUSH1 0x0 DUP5 DUP5 ADD MSTORE JUMPDEST POP POP POP POP JUMP JUMPDEST PUSH1 0x0 PUSH1 0x2 DUP3 DIV SWAP1 POP PUSH1 0x1 DUP3 AND DUP1 PUSH2 0x624 JUMPI PUSH1 0x7F DUP3 AND SWAP2 POP JUMPDEST PUSH1 0x20 DUP3 LT DUP2 EQ ISZERO PUSH2 0x638 JUMPI PUSH2 0x637 PUSH2 0x716 JUMP JUMPDEST JUMPDEST POP SWAP2 SWAP1 POP JUMP JUMPDEST PUSH2 0x647 DUP3 PUSH2 0x788 JUMP JUMPDEST DUP2 ADD DUP2 DUP2 LT PUSH8 0xFFFFFFFFFFFFFFFF DUP3 GT OR ISZERO PUSH2 0x666 JUMPI PUSH2 0x665 PUSH2 0x745 JUMP JUMPDEST JUMPDEST DUP1 PUSH1 0x40 MSTORE POP POP POP JUMP JUMPDEST PUSH1 0x0 PUSH2 0x67A DUP3 PUSH2 0x5AE JUMP JUMPDEST SWAP2 POP PUSH32 0xFFFFFFFFFFFFFFFFFFFFFFFFFFFFFFFFFFFFFFFFFFFFFFFFFFFFFFFFFFFFFFFF DUP3 EQ ISZERO PUSH2 0x6AD JUMPI PUSH2 0x6AC PUSH2 0x6B8 JUMP JUMPDEST JUMPDEST PUSH1 0x1 DUP3 ADD SWAP1 POP SWAP2 SWAP1 POP JUMP JUMPDEST PUSH32 0x4E487B7100000000000000000000000000000000000000000000000000000000 PUSH1 0x0 MSTORE PUSH1 0x11 PUSH1 0x4 MSTORE PUSH1 0x24 PUSH1 0x0 REVERT JUMPDEST PUSH32 0x4E487B7100000000000000000000000000000000000000000000000000000000 PUSH1 0x0 MSTORE PUSH1 0x21 PUSH1 0x4 MSTORE PUSH1 0x24 PUSH1 0x0 REVERT JUMPDEST PUSH32 0x4E487B7100000000000000000000000000000000000000000000000000000000 PUSH1 0x0 MSTORE PUSH1 0x22 PUSH1 0x4 MSTORE PUSH1 0x24 PUSH1 0x0 REVERT JUMPDEST PUSH32 0x4E487B7100000000000000000000000000000000000000000000000000000000 PUSH1 0x0 MSTORE PUSH1 0x41 PUSH1 0x4 MSTORE PUSH1 0x24 PUSH1 0x0 REVERT JUMPDEST PUSH1 0x0 DUP1 REVERT JUMPDEST PUSH1 0x0 DUP1 REVERT JUMPDEST PUSH1 0x0 DUP1 REVERT JUMPDEST PUSH1 0x0 DUP1 REVERT JUMPDEST PUSH1 0x0 PUSH1 0x1F NOT PUSH1 0x1F DUP4 ADD AND SWAP1 POP SWAP2 SWAP1 POP JUMP JUMPDEST PUSH32 0x506C656173652070617920657861637420616D6F756E74000000000000000000 PUSH1 0x0 DUP3 ADD MSTORE POP JUMP JUMPDEST PUSH1 0x3 DUP2 LT PUSH2 0x7D3 JUMPI PUSH2 0x7D2 PUSH2 0x6E7 JUMP JUMPDEST JUMPDEST POP JUMP JUMPDEST PUSH2 0x7DF DUP2 PUSH2 0x5AE JUMP JUMPDEST DUP2 EQ PUSH2 0x7EA JUMPI PUSH1 0x0 DUP1 REVERT JUMPDEST POP JUMP INVALID LOG2 PUSH5 0x6970667358 0x22 SLT KECCAK256 0xE6 0xCC RETURN DUP7 0xE PUSH22 0x11998F68B3C96BB1AB8269AEDDADD69A5E3AA0C9A05F JUMPDEST 0xB0 SSTORE 0x2C PUSH5 0x736F6C6343 STOP ADDMOD SMOD STOP CALLER "
				},
				"gasEstimates": {
					"creation": {
						"codeDepositCost": "416600",
						"executionCost": "455",
						"totalCost": "417055"
					},
					"external": {
						"createItem(string,uint256)": "infinite",
						"items(uint256)": "infinite",
						"triggerDelivery()": "122",
						"triggerPayment(uint256)": "4975"
					}
				},
				"methodIdentifiers": {
					"createItem(string,uint256)": "8c551742",
					"items(uint256)": "bfb231d2",
					"triggerDelivery()": "5f4fe7b6",
					"triggerPayment(uint256)": "800fb83f"
				}
			},
			"userdoc": {
				"kind": "user",
				"methods": {},
				"version": 1
			}
		}
	}
}