{
  "contractName": "Item",
  "abi": [
    {
      "inputs": [
        {
          "internalType": "uint256",
          "name": "_itemPriceInWei",
          "type": "uint256"
        },
        {
          "internalType": "uint256",
          "name": "_itemIndex",
          "type": "uint256"
        },
        {
          "internalType": "address",
          "name": "_addr",
          "type": "address"
        }
      ],
      "stateMutability": "nonpayable",
      "type": "constructor"
    },
    {
      "stateMutability": "payable",
      "type": "fallback"
    },
    {
      "inputs": [],
      "name": "addr",
      "outputs": [
        {
          "internalType": "address",
          "name": "",
          "type": "address"
        }
      ],
      "stateMutability": "view",
      "type": "function"
    },
    {
      "inputs": [],
      "name": "itemIndex",
      "outputs": [
        {
          "internalType": "uint256",
          "name": "",
          "type": "uint256"
        }
      ],
      "stateMutability": "view",
      "type": "function"
    },
    {
      "inputs": [],
      "name": "itemPriceInWei",
      "outputs": [
        {
          "internalType": "uint256",
          "name": "",
          "type": "uint256"
        }
      ],
      "stateMutability": "view",
      "type": "function"
    },
    {
      "inputs": [],
      "name": "pricePaid",
      "outputs": [
        {
          "internalType": "uint256",
          "name": "",
          "type": "uint256"
        }
      ],
      "stateMutability": "view",
      "type": "function"
    }
  ],
  "bytecode": "0x608060405234801561001057600080fd5b5060405161080d38038061080d83398181016040528101906100329190610122565b826000819055508160028190555080600360006101000a81548173ffffffffffffffffffffffffffffffffffffffff021916908373ffffffffffffffffffffffffffffffffffffffff160217905550505050610175565b600080fd5b6000819050919050565b6100a18161008e565b81146100ac57600080fd5b50565b6000815190506100be81610098565b92915050565b600073ffffffffffffffffffffffffffffffffffffffff82169050919050565b60006100ef826100c4565b9050919050565b6100ff816100e4565b811461010a57600080fd5b50565b60008151905061011c816100f6565b92915050565b60008060006060848603121561013b5761013a610089565b5b6000610149868287016100af565b935050602061015a868287016100af565b925050604061016b8682870161010d565b9150509250925092565b610689806101846000396000f3fe6080604052600436106100435760003560e01c8063767800de1461024e57806389794d0014610279578063c784a6e6146102a4578063e07bb1a7146102cf57610044565b5b600060015414610089576040517f08c379a00000000000000000000000000000000000000000000000000000000081526004016100809061038f565b60405180910390fd5b34600054146100cd576040517f08c379a00000000000000000000000000000000000000000000000000000000081526004016100c4906103fb565b60405180910390fd5b34600160008282546100df9190610454565b925050819055506000600360009054906101000a900473ffffffffffffffffffffffffffffffffffffffff1673ffffffffffffffffffffffffffffffffffffffff16346304c4b4009060025460405160240161013b91906104b9565b6040516020818303038152906040527f800fb83f000000000000000000000000000000000000000000000000000000007bffffffffffffffffffffffffffffffffffffffffffffffffffffffff19166020820180517bffffffffffffffffffffffffffffffffffffffffffffffffffffffff83818316178352505050506040516101c5919061054e565b600060405180830381858888f193505050503d8060008114610203576040519150601f19603f3d011682016040523d82523d6000602084013e610208565b606091505b505090508061024c576040517f08c379a0000000000000000000000000000000000000000000000000000000008152600401610243906105d7565b60405180910390fd5b005b34801561025a57600080fd5b506102636102fa565b6040516102709190610638565b60405180910390f35b34801561028557600080fd5b5061028e610320565b60405161029b91906104b9565b60405180910390f35b3480156102b057600080fd5b506102b9610326565b6040516102c691906104b9565b60405180910390f35b3480156102db57600080fd5b506102e461032c565b6040516102f191906104b9565b60405180910390f35b600360009054906101000a900473ffffffffffffffffffffffffffffffffffffffff1681565b60015481565b60005481565b60025481565b600082825260208201905092915050565b7f4974656d206973207061696420666f7220616c72656164792e00000000000000600082015250565b6000610379601983610332565b915061038482610343565b602082019050919050565b600060208201905081810360008301526103a88161036c565b9050919050565b7f506c656173652070617920657861637420616d6f756e742e0000000000000000600082015250565b60006103e5601883610332565b91506103f0826103af565b602082019050919050565b60006020820190508181036000830152610414816103d8565b9050919050565b6000819050919050565b7f4e487b7100000000000000000000000000000000000000000000000000000000600052601160045260246000fd5b600061045f8261041b565b915061046a8361041b565b9250827fffffffffffffffffffffffffffffffffffffffffffffffffffffffffffffffff0382111561049f5761049e610425565b5b828201905092915050565b6104b38161041b565b82525050565b60006020820190506104ce60008301846104aa565b92915050565b600081519050919050565b600081905092915050565b60005b838110156105085780820151818401526020810190506104ed565b83811115610517576000848401525b50505050565b6000610528826104d4565b61053281856104df565b93506105428185602086016104ea565b80840191505092915050565b600061055a828461051d565b915081905092915050565b7f5472616e73616374696f6e20756e7375636365737366756c2c2063616e63656c60008201527f6c696e67207061796d656e740000000000000000000000000000000000000000602082015250565b60006105c1602c83610332565b91506105cc82610565565b604082019050919050565b600060208201905081810360008301526105f0816105b4565b9050919050565b600073ffffffffffffffffffffffffffffffffffffffff82169050919050565b6000610622826105f7565b9050919050565b61063281610617565b82525050565b600060208201905061064d6000830184610629565b9291505056fea2646970667358221220bec720ab908fdaf55426b8c7cc9af4d836ea47045ab6940392d8eb081cc9fbf064736f6c634300080d0033",
  "immutableReferences": {},
  "source": "// SPDX-License-Identifier: MIT\r\npragma solidity ^0.8.0;\r\n\r\ncontract Item{\r\n    uint public itemPriceInWei;\r\n    uint public pricePaid;\r\n    uint public itemIndex;\r\n    address public addr;\r\n\r\n    constructor(uint _itemPriceInWei, uint _itemIndex, address _addr) {\r\n        itemPriceInWei = _itemPriceInWei;\r\n        itemIndex = _itemIndex;\r\n        addr = _addr;\r\n    }\r\n\r\n    fallback () external payable {\r\n        require (pricePaid == 0, \"Item is paid for already.\");\r\n        require (itemPriceInWei == msg.value, \"Please pay exact amount.\");\r\n        pricePaid += msg.value;\r\n        //address payable mainAddr = address(parentContract);\r\n        //parentContract.triggerPayment{value : msg.value}(itemIndex);\r\n        (bool success, ) =  addr.call{value : msg.value, gas : 80000000 }(abi.encodeWithSignature(\"triggerPayment(uint256)\", itemIndex));\r\n        require (success, \"Transaction unsuccessful, cancelling payment\");\r\n    }\r\n\r\n    //fallback () external payable {}\r\n}",
  "sourcePath": "E:\\Web3.js\\tb_2\\contracts\\item.sol",
  "compiler": {
    "name": "solc",
    "version": "0.8.13+commit.abaa5c0e.Emscripten.clang"
  },
  "schemaVersion": "3.4.7",
  "updatedAt": "2022-04-22T09:52:11.799Z",
  "devdoc": {
    "kind": "dev",
    "methods": {},
    "version": 1
  },
  "userdoc": {
    "kind": "user",
    "methods": {},
    "version": 1
  }
}